{
  "contractName": "Turtis",
  "abi": [
    {
      "inputs": [],
      "stateMutability": "nonpayable",
      "type": "constructor"
    },
    {
      "anonymous": false,
      "inputs": [
        {
          "indexed": true,
          "internalType": "address",
          "name": "owner",
          "type": "address"
        },
        {
          "indexed": true,
          "internalType": "address",
          "name": "approved",
          "type": "address"
        },
        {
          "indexed": true,
          "internalType": "uint256",
          "name": "tokenId",
          "type": "uint256"
        }
      ],
      "name": "Approval",
      "type": "event"
    },
    {
      "anonymous": false,
      "inputs": [
        {
          "indexed": true,
          "internalType": "address",
          "name": "owner",
          "type": "address"
        },
        {
          "indexed": true,
          "internalType": "address",
          "name": "operator",
          "type": "address"
        },
        {
          "indexed": false,
          "internalType": "bool",
          "name": "approved",
          "type": "bool"
        }
      ],
      "name": "ApprovalForAll",
      "type": "event"
    },
    {
      "anonymous": false,
      "inputs": [
        {
          "indexed": true,
          "internalType": "bytes32",
          "name": "id",
          "type": "bytes32"
        }
      ],
      "name": "ChainlinkCancelled",
      "type": "event"
    },
    {
      "anonymous": false,
      "inputs": [
        {
          "indexed": true,
          "internalType": "bytes32",
          "name": "id",
          "type": "bytes32"
        }
      ],
      "name": "ChainlinkFulfilled",
      "type": "event"
    },
    {
      "anonymous": false,
      "inputs": [
        {
          "indexed": true,
          "internalType": "bytes32",
          "name": "id",
          "type": "bytes32"
        }
      ],
      "name": "ChainlinkRequested",
      "type": "event"
    },
    {
      "anonymous": false,
      "inputs": [
        {
          "indexed": false,
          "internalType": "string",
          "name": "ipfsLink",
          "type": "string"
        }
      ],
      "name": "DataReceivedFromAPI",
      "type": "event"
    },
    {
      "anonymous": false,
      "inputs": [
        {
          "indexed": false,
          "internalType": "uint256",
          "name": "tokenId",
          "type": "uint256"
        }
      ],
      "name": "NewTurtleGenerated",
      "type": "event"
    },
    {
      "anonymous": false,
      "inputs": [
        {
          "indexed": true,
          "internalType": "address",
          "name": "from",
          "type": "address"
        },
        {
          "indexed": true,
          "internalType": "address",
          "name": "to",
          "type": "address"
        },
        {
          "indexed": true,
          "internalType": "uint256",
          "name": "tokenId",
          "type": "uint256"
        }
      ],
      "name": "Transfer",
      "type": "event"
    },
    {
      "anonymous": false,
      "inputs": [
        {
          "indexed": false,
          "internalType": "uint256",
          "name": "tokenId",
          "type": "uint256"
        }
      ],
      "name": "TurtleBought",
      "type": "event"
    },
    {
      "anonymous": false,
      "inputs": [
        {
          "indexed": false,
          "internalType": "uint256",
          "name": "tokenId",
          "type": "uint256"
        }
      ],
      "name": "TurtleUpForSale",
      "type": "event"
    },
    {
      "inputs": [
        {
          "internalType": "address",
          "name": "to",
          "type": "address"
        },
        {
          "internalType": "uint256",
          "name": "tokenId",
          "type": "uint256"
        }
      ],
      "name": "approve",
      "outputs": [],
      "stateMutability": "nonpayable",
      "type": "function"
    },
    {
      "inputs": [
        {
          "internalType": "address",
          "name": "owner",
          "type": "address"
        }
      ],
      "name": "balanceOf",
      "outputs": [
        {
          "internalType": "uint256",
          "name": "",
          "type": "uint256"
        }
      ],
      "stateMutability": "view",
      "type": "function",
      "constant": true
    },
    {
      "inputs": [],
      "name": "baseURI",
      "outputs": [
        {
          "internalType": "string",
          "name": "",
          "type": "string"
        }
      ],
      "stateMutability": "view",
      "type": "function",
      "constant": true
    },
    {
      "inputs": [],
      "name": "contractOwner",
      "outputs": [
        {
          "internalType": "address",
          "name": "",
          "type": "address"
        }
      ],
      "stateMutability": "view",
      "type": "function",
      "constant": true
    },
    {
      "inputs": [
        {
          "internalType": "uint256",
          "name": "tokenId",
          "type": "uint256"
        }
      ],
      "name": "getApproved",
      "outputs": [
        {
          "internalType": "address",
          "name": "",
          "type": "address"
        }
      ],
      "stateMutability": "view",
      "type": "function",
      "constant": true
    },
    {
      "inputs": [],
      "name": "ipfsLink",
      "outputs": [
        {
          "internalType": "string",
          "name": "",
          "type": "string"
        }
      ],
      "stateMutability": "view",
      "type": "function",
      "constant": true
    },
    {
      "inputs": [
        {
          "internalType": "address",
          "name": "owner",
          "type": "address"
        },
        {
          "internalType": "address",
          "name": "operator",
          "type": "address"
        }
      ],
      "name": "isApprovedForAll",
      "outputs": [
        {
          "internalType": "bool",
          "name": "",
          "type": "bool"
        }
      ],
      "stateMutability": "view",
      "type": "function",
      "constant": true
    },
    {
      "inputs": [],
      "name": "name",
      "outputs": [
        {
          "internalType": "string",
          "name": "",
          "type": "string"
        }
      ],
      "stateMutability": "view",
      "type": "function",
      "constant": true
    },
    {
      "inputs": [
        {
          "internalType": "uint256",
          "name": "tokenId",
          "type": "uint256"
        }
      ],
      "name": "ownerOf",
      "outputs": [
        {
          "internalType": "address",
          "name": "",
          "type": "address"
        }
      ],
      "stateMutability": "view",
      "type": "function",
      "constant": true
    },
    {
      "inputs": [
        {
          "internalType": "address",
          "name": "from",
          "type": "address"
        },
        {
          "internalType": "address",
          "name": "to",
          "type": "address"
        },
        {
          "internalType": "uint256",
          "name": "tokenId",
          "type": "uint256"
        }
      ],
      "name": "safeTransferFrom",
      "outputs": [],
      "stateMutability": "nonpayable",
      "type": "function"
    },
    {
      "inputs": [
        {
          "internalType": "address",
          "name": "from",
          "type": "address"
        },
        {
          "internalType": "address",
          "name": "to",
          "type": "address"
        },
        {
          "internalType": "uint256",
          "name": "tokenId",
          "type": "uint256"
        },
        {
          "internalType": "bytes",
          "name": "_data",
          "type": "bytes"
        }
      ],
      "name": "safeTransferFrom",
      "outputs": [],
      "stateMutability": "nonpayable",
      "type": "function"
    },
    {
      "inputs": [
        {
          "internalType": "address",
          "name": "operator",
          "type": "address"
        },
        {
          "internalType": "bool",
          "name": "approved",
          "type": "bool"
        }
      ],
      "name": "setApprovalForAll",
      "outputs": [],
      "stateMutability": "nonpayable",
      "type": "function"
    },
    {
      "inputs": [
        {
          "internalType": "bytes4",
          "name": "interfaceId",
          "type": "bytes4"
        }
      ],
      "name": "supportsInterface",
      "outputs": [
        {
          "internalType": "bool",
          "name": "",
          "type": "bool"
        }
      ],
      "stateMutability": "view",
      "type": "function",
      "constant": true
    },
    {
      "inputs": [],
      "name": "symbol",
      "outputs": [
        {
          "internalType": "string",
          "name": "",
          "type": "string"
        }
      ],
      "stateMutability": "view",
      "type": "function",
      "constant": true
    },
    {
      "inputs": [
        {
          "internalType": "uint256",
          "name": "index",
          "type": "uint256"
        }
      ],
      "name": "tokenByIndex",
      "outputs": [
        {
          "internalType": "uint256",
          "name": "",
          "type": "uint256"
        }
      ],
      "stateMutability": "view",
      "type": "function",
      "constant": true
    },
    {
      "inputs": [
        {
          "internalType": "address",
          "name": "owner",
          "type": "address"
        },
        {
          "internalType": "uint256",
          "name": "index",
          "type": "uint256"
        }
      ],
      "name": "tokenOfOwnerByIndex",
      "outputs": [
        {
          "internalType": "uint256",
          "name": "",
          "type": "uint256"
        }
      ],
      "stateMutability": "view",
      "type": "function",
      "constant": true
    },
    {
      "inputs": [
        {
          "internalType": "uint256",
          "name": "tokenId",
          "type": "uint256"
        }
      ],
      "name": "tokenURI",
      "outputs": [
        {
          "internalType": "string",
          "name": "",
          "type": "string"
        }
      ],
      "stateMutability": "view",
      "type": "function",
      "constant": true
    },
    {
      "inputs": [],
      "name": "totalSupply",
      "outputs": [
        {
          "internalType": "uint256",
          "name": "",
          "type": "uint256"
        }
      ],
      "stateMutability": "view",
      "type": "function",
      "constant": true
    },
    {
      "inputs": [
        {
          "internalType": "address",
          "name": "from",
          "type": "address"
        },
        {
          "internalType": "address",
          "name": "to",
          "type": "address"
        },
        {
          "internalType": "uint256",
          "name": "tokenId",
          "type": "uint256"
        }
      ],
      "name": "transferFrom",
      "outputs": [],
      "stateMutability": "nonpayable",
      "type": "function"
    },
    {
      "inputs": [
        {
          "internalType": "uint256",
          "name": "",
          "type": "uint256"
        }
      ],
      "name": "turtlesForSale",
      "outputs": [
        {
          "internalType": "uint256",
          "name": "",
          "type": "uint256"
        }
      ],
      "stateMutability": "view",
      "type": "function",
      "constant": true
    },
    {
      "inputs": [
        {
          "internalType": "address",
          "name": "_oracleAddress",
          "type": "address"
        }
      ],
      "name": "setOracleAddress",
      "outputs": [],
      "stateMutability": "nonpayable",
      "type": "function"
    },
    {
      "inputs": [
        {
          "internalType": "string",
          "name": "_jobID",
          "type": "string"
        }
      ],
      "name": "setJobID",
      "outputs": [],
      "stateMutability": "nonpayable",
      "type": "function"
    },
    {
      "inputs": [
        {
          "internalType": "uint256",
          "name": "_fee",
          "type": "uint256"
        }
      ],
      "name": "setFeeInLink",
      "outputs": [],
      "stateMutability": "nonpayable",
      "type": "function"
    },
    {
      "inputs": [
        {
          "internalType": "string",
          "name": "_url",
          "type": "string"
        }
      ],
      "name": "setApiBaseUrl",
      "outputs": [],
      "stateMutability": "nonpayable",
      "type": "function"
    },
    {
      "inputs": [
        {
          "internalType": "string",
          "name": "_url",
          "type": "string"
        }
      ],
      "name": "setApiSecondUrl",
      "outputs": [],
      "stateMutability": "nonpayable",
      "type": "function"
    },
    {
      "inputs": [
        {
          "internalType": "uint256",
          "name": "_highScore",
          "type": "uint256"
        }
      ],
      "name": "setHighScore",
      "outputs": [],
      "stateMutability": "nonpayable",
      "type": "function"
    },
    {
      "inputs": [
        {
          "internalType": "uint256",
          "name": "_tokenId",
          "type": "uint256"
        }
      ],
      "name": "buyTurtle",
      "outputs": [],
      "stateMutability": "payable",
      "type": "function",
      "payable": true
    },
    {
      "inputs": [
        {
          "internalType": "uint256",
          "name": "_tokenId",
          "type": "uint256"
        },
        {
          "internalType": "uint256",
          "name": "_price",
          "type": "uint256"
        }
      ],
      "name": "putUpTurtleForSale",
      "outputs": [],
      "stateMutability": "nonpayable",
      "type": "function"
    },
    {
      "inputs": [
        {
          "internalType": "string",
          "name": "score",
          "type": "string"
        }
      ],
      "name": "requestNewRandomTurtle",
      "outputs": [],
      "stateMutability": "nonpayable",
      "type": "function"
    },
    {
      "inputs": [
        {
          "internalType": "bytes32",
          "name": "_requestId",
          "type": "bytes32"
        },
        {
          "internalType": "bytes32",
          "name": "dataFromAPI",
          "type": "bytes32"
        }
      ],
      "name": "fulfill",
      "outputs": [
        {
          "internalType": "bytes32",
          "name": "requestId",
          "type": "bytes32"
        }
      ],
      "stateMutability": "nonpayable",
      "type": "function"
    },
    {
      "inputs": [
        {
          "internalType": "bytes32",
          "name": "_requestId",
          "type": "bytes32"
        },
        {
          "internalType": "bytes32",
          "name": "dataFromAPI",
          "type": "bytes32"
        }
      ],
      "name": "fulfillSecondRequest",
      "outputs": [],
      "stateMutability": "nonpayable",
      "type": "function"
    }
  ],
  "bytecode": "0x60806040526001600e556040518060400160405280600781526020017f697066733a2f2f00000000000000000000000000000000000000000000000000815250601390805190602001906200005692919062000419565b5060006017553480156200006957600080fd5b506040518060400160405280600f81526020017f547572746c6543686172616374657200000000000000000000000000000000008152506040518060400160405280600481526020017f5452544c00000000000000000000000000000000000000000000000000000000815250620000ee6301ffc9a760e01b620002cc60201b60201c565b81600690805190602001906200010692919062000419565b5080600790805190602001906200011f92919062000419565b50620001386380ac58cd60e01b620002cc60201b60201c565b62000150635b5e139f60e01b620002cc60201b60201c565b6200016863780e9d6360e01b620002cc60201b60201c565b50506200018f73326c977e6efc84e512bb9c30f76e30c160ed06fb620003d560201b60201c565b600060178190555033601060006101000a81548173ffffffffffffffffffffffffffffffffffffffff021916908373ffffffffffffffffffffffffffffffffffffffff1602179055506040518060600160405280602381526020016200593360239139601890805190602001906200020992919062000419565b506040518060600160405280602a815260200162005956602a9139601990805190602001906200023b92919062000419565b5073c8d925525ca8759812d0c299b90247917d4d4b7c601460006101000a81548173ffffffffffffffffffffffffffffffffffffffff021916908373ffffffffffffffffffffffffffffffffffffffff1602179055507f6137333330643062346239363463303561626336366132363330373034376330601581905550662386f26fc10000601681905550620004c8565b63ffffffff60e01b817bffffffffffffffffffffffffffffffffffffffffffffffffffffffff1916141562000369576040517f08c379a000000000000000000000000000000000000000000000000000000000815260040180806020018281038252601c8152602001807f4552433136353a20696e76616c696420696e746572666163652069640000000081525060200191505060405180910390fd5b6001600080837bffffffffffffffffffffffffffffffffffffffffffffffffffffffff19167bffffffffffffffffffffffffffffffffffffffffffffffffffffffff1916815260200190815260200160002060006101000a81548160ff02191690831515021790555050565b80600c60006101000a81548173ffffffffffffffffffffffffffffffffffffffff021916908373ffffffffffffffffffffffffffffffffffffffff16021790555050565b828054600181600116156101000203166002900490600052602060002090601f016020900481019282601f106200045c57805160ff19168380011785556200048d565b828001600101855582156200048d579182015b828111156200048c5782518255916020019190600101906200046f565b5b5090506200049c9190620004a0565b5090565b620004c591905b80821115620004c1576000816000905550600101620004a7565b5090565b90565b61545b80620004d86000396000f3fe6080604052600436106101d85760003560e01c80634f6ccce711610102578063a22cb46511610095578063c87b56dd11610064578063c87b56dd14610eac578063ce606ee014610f60578063e985e9c514610fb7578063f2044fe914611040576101d8565b8063a22cb46514610cb3578063a5ac5f1c14610d10578063a748efb214610d4b578063b88d4fde14610d9a576101d8565b806370a08231116100d157806370a0823114610abb578063877f282b14610b205780639271b99714610be857806395d89b4114610c23576101d8565b80634f6ccce7146108995780635a717299146108e85780636352211e146109b05780636c0360eb14610a2b576101d8565b806323b872dd1161017a578063328c9f0211610149578063328c9f021461063d5780633380f0681461070557806342842e0e146107cd5780634c69c00f14610848576101d8565b806323b872dd1461047e5780632b22aaea146104f95780632b9d8c9a1461053e5780632f745c59146105ce576101d8565b8063081812fc116101b6578063081812fc14610338578063095ea7b3146103b357806318160ddd1461040e578063184d9bb914610439576101d8565b806301ffc9a7146101dd578063042f2b651461024f57806306fdde03146102a8575b600080fd5b3480156101e957600080fd5b506102356004803603602081101561020057600080fd5b8101908080357bffffffffffffffffffffffffffffffffffffffffffffffffffffffff1916906020019092919050505061106e565b604051808215151515815260200191505060405180910390f35b34801561025b57600080fd5b506102926004803603604081101561027257600080fd5b8101908080359060200190929190803590602001909291905050506110d5565b6040518082815260200191505060405180910390f35b3480156102b457600080fd5b506102bd6113b3565b6040518080602001828103825283818151815260200191508051906020019080838360005b838110156102fd5780820151818401526020810190506102e2565b50505050905090810190601f16801561032a5780820380516001836020036101000a031916815260200191505b509250505060405180910390f35b34801561034457600080fd5b506103716004803603602081101561035b57600080fd5b8101908080359060200190929190505050611455565b604051808273ffffffffffffffffffffffffffffffffffffffff1673ffffffffffffffffffffffffffffffffffffffff16815260200191505060405180910390f35b3480156103bf57600080fd5b5061040c600480360360408110156103d657600080fd5b81019080803573ffffffffffffffffffffffffffffffffffffffff169060200190929190803590602001909291905050506114f0565b005b34801561041a57600080fd5b50610423611634565b6040518082815260200191505060405180910390f35b34801561044557600080fd5b5061047c6004803603604081101561045c57600080fd5b810190808035906020019092919080359060200190929190505050611645565b005b34801561048a57600080fd5b506104f7600480360360608110156104a157600080fd5b81019080803573ffffffffffffffffffffffffffffffffffffffff169060200190929190803573ffffffffffffffffffffffffffffffffffffffff169060200190929190803590602001909291905050506116fe565b005b34801561050557600080fd5b5061053c6004803603604081101561051c57600080fd5b810190808035906020019092919080359060200190929190505050611774565b005b34801561054a57600080fd5b50610553611a3c565b6040518080602001828103825283818151815260200191508051906020019080838360005b83811015610593578082015181840152602081019050610578565b50505050905090810190601f1680156105c05780820380516001836020036101000a031916815260200191505b509250505060405180910390f35b3480156105da57600080fd5b50610627600480360360408110156105f157600080fd5b81019080803573ffffffffffffffffffffffffffffffffffffffff16906020019092919080359060200190929190505050611ada565b6040518082815260200191505060405180910390f35b34801561064957600080fd5b506107036004803603602081101561066057600080fd5b810190808035906020019064010000000081111561067d57600080fd5b82018360208201111561068f57600080fd5b803590602001918460018302840111640100000000831117156106b157600080fd5b91908080601f016020809104026020016040519081016040528093929190818152602001838380828437600081840152601f19601f820116905080830192505050505050509192919290505050611b35565b005b34801561071157600080fd5b506107cb6004803603602081101561072857600080fd5b810190808035906020019064010000000081111561074557600080fd5b82018360208201111561075757600080fd5b8035906020019184600183028401116401000000008311171561077957600080fd5b91908080601f016020809104026020016040519081016040528093929190818152602001838380828437600081840152601f19601f820116905080830192505050505050509192919290505050611bf5565b005b3480156107d957600080fd5b50610846600480360360608110156107f057600080fd5b81019080803573ffffffffffffffffffffffffffffffffffffffff169060200190929190803573ffffffffffffffffffffffffffffffffffffffff16906020019092919080359060200190929190505050611d90565b005b34801561085457600080fd5b506108976004803603602081101561086b57600080fd5b81019080803573ffffffffffffffffffffffffffffffffffffffff169060200190929190505050611db0565b005b3480156108a557600080fd5b506108d2600480360360208110156108bc57600080fd5b8101908080359060200190929190505050611e9a565b6040518082815260200191505060405180910390f35b3480156108f457600080fd5b506109ae6004803603602081101561090b57600080fd5b810190808035906020019064010000000081111561092857600080fd5b82018360208201111561093a57600080fd5b8035906020019184600183028401116401000000008311171561095c57600080fd5b91908080601f016020809104026020016040519081016040528093929190818152602001838380828437600081840152601f19601f820116905080830192505050505050509192919290505050611ebd565b005b3480156109bc57600080fd5b506109e9600480360360208110156109d357600080fd5b8101908080359060200190929190505050611f75565b604051808273ffffffffffffffffffffffffffffffffffffffff1673ffffffffffffffffffffffffffffffffffffffff16815260200191505060405180910390f35b348015610a3757600080fd5b50610a40611fac565b6040518080602001828103825283818151815260200191508051906020019080838360005b83811015610a80578082015181840152602081019050610a65565b50505050905090810190601f168015610aad5780820380516001836020036101000a031916815260200191505b509250505060405180910390f35b348015610ac757600080fd5b50610b0a60048036036020811015610ade57600080fd5b81019080803573ffffffffffffffffffffffffffffffffffffffff16906020019092919050505061204e565b6040518082815260200191505060405180910390f35b348015610b2c57600080fd5b50610be660048036036020811015610b4357600080fd5b8101908080359060200190640100000000811115610b6057600080fd5b820183602082011115610b7257600080fd5b80359060200191846001830284011164010000000083111715610b9457600080fd5b91908080601f016020809104026020016040519081016040528093929190818152602001838380828437600081840152601f19601f820116905080830192505050505050509192919290505050612123565b005b348015610bf457600080fd5b50610c2160048036036020811015610c0b57600080fd5b81019080803590602001909291905050506121e3565b005b348015610c2f57600080fd5b50610c3861222a565b6040518080602001828103825283818151815260200191508051906020019080838360005b83811015610c78578082015181840152602081019050610c5d565b50505050905090810190601f168015610ca55780820380516001836020036101000a031916815260200191505b509250505060405180910390f35b348015610cbf57600080fd5b50610d0e60048036036040811015610cd657600080fd5b81019080803573ffffffffffffffffffffffffffffffffffffffff1690602001909291908035151590602001909291905050506122cc565b005b348015610d1c57600080fd5b50610d4960048036036020811015610d3357600080fd5b8101908080359060200190929190505050612484565b005b348015610d5757600080fd5b50610d8460048036036020811015610d6e57600080fd5b810190808035906020019092919050505061253e565b6040518082815260200191505060405180910390f35b348015610da657600080fd5b50610eaa60048036036080811015610dbd57600080fd5b81019080803573ffffffffffffffffffffffffffffffffffffffff169060200190929190803573ffffffffffffffffffffffffffffffffffffffff1690602001909291908035906020019092919080359060200190640100000000811115610e2457600080fd5b820183602082011115610e3657600080fd5b80359060200191846001830284011164010000000083111715610e5857600080fd5b91908080601f016020809104026020016040519081016040528093929190818152602001838380828437600081840152601f19601f820116905080830192505050505050509192919290505050612556565b005b348015610eb857600080fd5b50610ee560048036036020811015610ecf57600080fd5b81019080803590602001909291905050506125ce565b6040518080602001828103825283818151815260200191508051906020019080838360005b83811015610f25578082015181840152602081019050610f0a565b50505050905090810190601f168015610f525780820380516001836020036101000a031916815260200191505b509250505060405180910390f35b348015610f6c57600080fd5b50610f7561289f565b604051808273ffffffffffffffffffffffffffffffffffffffff1673ffffffffffffffffffffffffffffffffffffffff16815260200191505060405180910390f35b348015610fc357600080fd5b5061102660048036036040811015610fda57600080fd5b81019080803573ffffffffffffffffffffffffffffffffffffffff169060200190929190803573ffffffffffffffffffffffffffffffffffffffff1690602001909291905050506128c5565b604051808215151515815260200191505060405180910390f35b61106c6004803603602081101561105657600080fd5b8101908080359060200190929190505050612959565b005b6000806000837bffffffffffffffffffffffffffffffffffffffffffffffffffffffff19167bffffffffffffffffffffffffffffffffffffffffffffffffffffffff1916815260200190815260200160002060009054906101000a900460ff169050919050565b600082600f600082815260200190815260200160002060009054906101000a900473ffffffffffffffffffffffffffffffffffffffff1673ffffffffffffffffffffffffffffffffffffffff163373ffffffffffffffffffffffffffffffffffffffff161461118f576040517f08c379a00000000000000000000000000000000000000000000000000000000081526004018080602001828103825260288152602001806153da6028913960400191505060405180910390fd5b600f600082815260200190815260200160002060006101000a81549073ffffffffffffffffffffffffffffffffffffffff0219169055807f7cc135e0cebb02c3480ae5d74d377283180a2601f8f644edf7987b009316c63a60405160405180910390a282601181905550611201614fe9565b61121560155430632b22aaea60e01b612bb1565b90506112fb6040518060400160405280600381526020017f676574000000000000000000000000000000000000000000000000000000000081525060198054600181600116156101000203166002900480601f0160208091040260200160405190810160405280929190818152602001828054600181600116156101000203166002900480156112e65780601f106112bb576101008083540402835291602001916112e6565b820191906000526020600020905b8154815290600101906020018083116112c957829003601f168201915b505050505083612be29092919063ffffffff16565b61137a6040518060400160405280600481526020017f70617468000000000000000000000000000000000000000000000000000000008152506040518060400160405280600981526020017f495046535f50415448000000000000000000000000000000000000000000000081525083612be29092919063ffffffff16565b6113a9601460009054906101000a900473ffffffffffffffffffffffffffffffffffffffff1682601654612c15565b9250505092915050565b606060068054600181600116156101000203166002900480601f01602080910402602001604051908101604052809291908181526020018280546001816001161561010002031660029004801561144b5780601f106114205761010080835404028352916020019161144b565b820191906000526020600020905b81548152906001019060200180831161142e57829003601f168201915b5050505050905090565b600061146082612ecd565b6114b5576040517f08c379a000000000000000000000000000000000000000000000000000000000815260040180806020018281038252602c8152602001806152d8602c913960400191505060405180910390fd5b6004600083815260200190815260200160002060009054906101000a900473ffffffffffffffffffffffffffffffffffffffff169050919050565b60006114fb82611f75565b90508073ffffffffffffffffffffffffffffffffffffffff168373ffffffffffffffffffffffffffffffffffffffff161415611582576040517f08c379a00000000000000000000000000000000000000000000000000000000081526004018080602001828103825260218152602001806153886021913960400191505060405180910390fd5b8073ffffffffffffffffffffffffffffffffffffffff166115a1612eea565b73ffffffffffffffffffffffffffffffffffffffff1614806115d057506115cf816115ca612eea565b6128c5565b5b611625576040517f08c379a000000000000000000000000000000000000000000000000000000000815260040180806020018281038252603881526020018061522b6038913960400191505060405180910390fd5b61162f8383612ef2565b505050565b60006116406002612fab565b905090565b611656611650612eea565b83612fc0565b6116ab576040517f08c379a00000000000000000000000000000000000000000000000000000000081526004018080602001828103825260288152602001806151386028913960400191505060405180910390fd5b80601a6000848152602001908152602001600020819055507f5cfd7981b7826a1543139612aae7cac778558e6d89d166a9d4b69423535fe087826040518082815260200191505060405180910390a15050565b61170f611709612eea565b82612fc0565b611764576040517f08c379a00000000000000000000000000000000000000000000000000000000081526004018080602001828103825260318152602001806153a96031913960400191505060405180910390fd5b61176f8383836130b4565b505050565b81600f600082815260200190815260200160002060009054906101000a900473ffffffffffffffffffffffffffffffffffffffff1673ffffffffffffffffffffffffffffffffffffffff163373ffffffffffffffffffffffffffffffffffffffff161461182c576040517f08c379a00000000000000000000000000000000000000000000000000000000081526004018080602001828103825260288152602001806153da6028913960400191505060405180910390fd5b600f600082815260200190815260200160002060006101000a81549073ffffffffffffffffffffffffffffffffffffffff0219169055807f7cc135e0cebb02c3480ae5d74d377283180a2601f8f644edf7987b009316c63a60405160405180910390a28160128190555061189e6132f7565b7f1a1317a9b735d6402ccd1a577bb88ad490d3c2301e44fa83a56561c708287bdb6013604051808060200182810382528381815460018160011615610100020316600290048152602001915080546001816001161561010002031660029004801561194a5780601f1061191f5761010080835404028352916020019161194a565b820191906000526020600020905b81548152906001019060200180831161192d57829003601f168201915b50509250505060405180910390a16119fb60138054600181600116156101000203166002900480601f0160208091040260200160405190810160405280929190818152602001828054600181600116156101000203166002900480156119f15780601f106119c6576101008083540402835291602001916119f1565b820191906000526020600020905b8154815290600101906020018083116119d457829003601f168201915b50505050506134f9565b7f375888a712a23aa4f960c32984e16baf008be32cc52f7b9c12212feee89eb6086001601754036040518082815260200191505060405180910390a1505050565b60138054600181600116156101000203166002900480601f016020809104026020016040519081016040528092919081815260200182805460018160011615610100020316600290048015611ad25780601f10611aa757610100808354040283529160200191611ad2565b820191906000526020600020905b815481529060010190602001808311611ab557829003601f168201915b505050505081565b6000611b2d82600160008673ffffffffffffffffffffffffffffffffffffffff1673ffffffffffffffffffffffffffffffffffffffff16815260200190815260200160002061351a90919063ffffffff16565b905092915050565b601060009054906101000a900473ffffffffffffffffffffffffffffffffffffffff1673ffffffffffffffffffffffffffffffffffffffff163373ffffffffffffffffffffffffffffffffffffffff1614611bdb576040517f08c379a00000000000000000000000000000000000000000000000000000000081526004018080602001828103825260248152602001806154026024913960400191505060405180910390fd5b8060199080519060200190611bf1929190615056565b5050565b6040518060400160405280600781526020017f697066733a2f2f0000000000000000000000000000000000000000000000000081525060139080519060200190611c40929190615056565b50611c4d33601754613534565b6060611d2960188054600181600116156101000203166002900480601f016020809104026020016040519081016040528092919081815260200182805460018160011615610100020316600290048015611ce85780601f10611cbd57610100808354040283529160200191611ce8565b820191906000526020600020905b815481529060010190602001808311611ccb57829003601f168201915b50505050506040518060400160405280600781526020017f3f73636f72653d0000000000000000000000000000000000000000000000000081525084613552565b90506060611d3d611d38611634565b61366e565b9050611d7f826040518060400160405280600d81526020017f2663686172616374657249643d0000000000000000000000000000000000000081525083613552565b9150611d8a826137be565b50505050565b611dab83838360405180602001604052806000815250612556565b505050565b601060009054906101000a900473ffffffffffffffffffffffffffffffffffffffff1673ffffffffffffffffffffffffffffffffffffffff163373ffffffffffffffffffffffffffffffffffffffff1614611e56576040517f08c379a00000000000000000000000000000000000000000000000000000000081526004018080602001828103825260248152602001806154026024913960400191505060405180910390fd5b80601460006101000a81548173ffffffffffffffffffffffffffffffffffffffff021916908373ffffffffffffffffffffffffffffffffffffffff16021790555050565b600080611eb18360026138de90919063ffffffff16565b50905080915050919050565b601060009054906101000a900473ffffffffffffffffffffffffffffffffffffffff1673ffffffffffffffffffffffffffffffffffffffff163373ffffffffffffffffffffffffffffffffffffffff1614611f63576040517f08c379a00000000000000000000000000000000000000000000000000000000081526004018080602001828103825260248152602001806154026024913960400191505060405180910390fd5b611f6c8161390d565b60158190555050565b6000611fa58260405180606001604052806029815260200161528d6029913960026139389092919063ffffffff16565b9050919050565b606060098054600181600116156101000203166002900480601f0160208091040260200160405190810160405280929190818152602001828054600181600116156101000203166002900480156120445780601f1061201957610100808354040283529160200191612044565b820191906000526020600020905b81548152906001019060200180831161202757829003601f168201915b5050505050905090565b60008073ffffffffffffffffffffffffffffffffffffffff168273ffffffffffffffffffffffffffffffffffffffff1614156120d5576040517f08c379a000000000000000000000000000000000000000000000000000000000815260040180806020018281038252602a815260200180615263602a913960400191505060405180910390fd5b61211c600160008473ffffffffffffffffffffffffffffffffffffffff1673ffffffffffffffffffffffffffffffffffffffff168152602001908152602001600020613957565b9050919050565b601060009054906101000a900473ffffffffffffffffffffffffffffffffffffffff1673ffffffffffffffffffffffffffffffffffffffff163373ffffffffffffffffffffffffffffffffffffffff16146121c9576040517f08c379a00000000000000000000000000000000000000000000000000000000081526004018080602001828103825260248152602001806154026024913960400191505060405180910390fd5b80601890805190602001906121df929190615056565b5050565b80601b60003373ffffffffffffffffffffffffffffffffffffffff1673ffffffffffffffffffffffffffffffffffffffff1681526020019081526020016000208190555050565b606060078054600181600116156101000203166002900480601f0160208091040260200160405190810160405280929190818152602001828054600181600116156101000203166002900480156122c25780601f10612297576101008083540402835291602001916122c2565b820191906000526020600020905b8154815290600101906020018083116122a557829003601f168201915b5050505050905090565b6122d4612eea565b73ffffffffffffffffffffffffffffffffffffffff168273ffffffffffffffffffffffffffffffffffffffff161415612375576040517f08c379a00000000000000000000000000000000000000000000000000000000081526004018080602001828103825260198152602001807f4552433732313a20617070726f766520746f2063616c6c65720000000000000081525060200191505060405180910390fd5b8060056000612382612eea565b73ffffffffffffffffffffffffffffffffffffffff1673ffffffffffffffffffffffffffffffffffffffff16815260200190815260200160002060008473ffffffffffffffffffffffffffffffffffffffff1673ffffffffffffffffffffffffffffffffffffffff16815260200190815260200160002060006101000a81548160ff0219169083151502179055508173ffffffffffffffffffffffffffffffffffffffff1661242f612eea565b73ffffffffffffffffffffffffffffffffffffffff167f17307eab39ab6107e8899845ad3d59bd9653f200f220920489ca2b5937696c3183604051808215151515815260200191505060405180910390a35050565b601060009054906101000a900473ffffffffffffffffffffffffffffffffffffffff1673ffffffffffffffffffffffffffffffffffffffff163373ffffffffffffffffffffffffffffffffffffffff161461252a576040517f08c379a00000000000000000000000000000000000000000000000000000000081526004018080602001828103825260248152602001806154026024913960400191505060405180910390fd5b670de0b6b3a7640000810260168190555050565b601a6020528060005260406000206000915090505481565b612567612561612eea565b83612fc0565b6125bc576040517f08c379a00000000000000000000000000000000000000000000000000000000081526004018080602001828103825260318152602001806153a96031913960400191505060405180910390fd5b6125c88484848461396c565b50505050565b60606125d982612ecd565b61262e576040517f08c379a000000000000000000000000000000000000000000000000000000000815260040180806020018281038252602f815260200180615359602f913960400191505060405180910390fd5b6060600860008481526020019081526020016000208054600181600116156101000203166002900480601f0160208091040260200160405190810160405280929190818152602001828054600181600116156101000203166002900480156126d75780601f106126ac576101008083540402835291602001916126d7565b820191906000526020600020905b8154815290600101906020018083116126ba57829003601f168201915b5050505050905060606126e8611fac565b90506000815114156126fe57819250505061289a565b6000825111156127cf5780826040516020018083805190602001908083835b60208310612740578051825260208201915060208101905060208303925061271d565b6001836020036101000a03801982511681845116808217855250505050505090500182805190602001908083835b60208310612791578051825260208201915060208101905060208303925061276e565b6001836020036101000a038019825116818451168082178552505050505050905001925050506040516020818303038152906040529250505061289a565b806127d9856139de565b6040516020018083805190602001908083835b6020831061280f57805182526020820191506020810190506020830392506127ec565b6001836020036101000a03801982511681845116808217855250505050505090500182805190602001908083835b60208310612860578051825260208201915060208101905060208303925061283d565b6001836020036101000a03801982511681845116808217855250505050505090500192505050604051602081830303815290604052925050505b919050565b601060009054906101000a900473ffffffffffffffffffffffffffffffffffffffff1681565b6000600560008473ffffffffffffffffffffffffffffffffffffffff1673ffffffffffffffffffffffffffffffffffffffff16815260200190815260200160002060008373ffffffffffffffffffffffffffffffffffffffff1673ffffffffffffffffffffffffffffffffffffffff16815260200190815260200160002060009054906101000a900460ff16905092915050565b6000601a600083815260200190815260200160002054116129e2576040517f08c379a00000000000000000000000000000000000000000000000000000000081526004018080602001828103825260208152602001807f54686520547572746c652073686f756c6420626520757020666f722073616c6581525060200191505060405180910390fd5b6000601a60008381526020019081526020016000205490506000601a6000848152602001908152602001600020819055506000612a1e83611f75565b9050813411612a95576040517f08c379a000000000000000000000000000000000000000000000000000000000815260040180806020018281038252601d8152602001807f596f75206e65656420746f206861766520656e6f75676820457468657200000081525060200191505060405180910390fd5b612ad68133856040518060400160405280600c81526020017f427579206120547572746c65000000000000000000000000000000000000000081525061396c565b60008190508073ffffffffffffffffffffffffffffffffffffffff166108fc849081150290604051600060405180830381858888f19350505050158015612b21573d6000803e3d6000fd5b5082341115612b74573373ffffffffffffffffffffffffffffffffffffffff166108fc8434039081150290604051600060405180830381858888f19350505050158015612b72573d6000803e3d6000fd5b505b7f8c78864e67a7dfb4ed185a3b2dad4a13fd8a7f807e84ecf1687eab5cb297676e846040518082815260200191505060405180910390a150505050565b612bb9614fe9565b612bc1614fe9565b612bd885858584613b25909392919063ffffffff16565b9150509392505050565b612bf9828460800151613bd590919063ffffffff16565b612c10818460800151613bd590919063ffffffff16565b505050565b600030600e54604051602001808373ffffffffffffffffffffffffffffffffffffffff1673ffffffffffffffffffffffffffffffffffffffff1660601b815260140182815260200192505050604051602081830303815290604052805190602001209050600e5483606001818152505083600f600083815260200190815260200160002060006101000a81548173ffffffffffffffffffffffffffffffffffffffff021916908373ffffffffffffffffffffffffffffffffffffffff160217905550807fb5e6e01e79f91267dc17b4e6314d5d4d03593d2ceee0fbb452b750bd70ea5af960405160405180910390a2600c60009054906101000a900473ffffffffffffffffffffffffffffffffffffffff1673ffffffffffffffffffffffffffffffffffffffff16634000aea08584612d4d87613bfa565b6040518463ffffffff1660e01b8152600401808473ffffffffffffffffffffffffffffffffffffffff1673ffffffffffffffffffffffffffffffffffffffff16815260200183815260200180602001828103825283818151815260200191508051906020019080838360005b83811015612dd4578082015181840152602081019050612db9565b50505050905090810190601f168015612e015780820380516001836020036101000a031916815260200191505b50945050505050602060405180830381600087803b158015612e2257600080fd5b505af1158015612e36573d6000803e3d6000fd5b505050506040513d6020811015612e4c57600080fd5b8101908080519060200190929190505050612eb2576040517f08c379a00000000000000000000000000000000000000000000000000000000081526004018080602001828103825260238152602001806151926023913960400191505060405180910390fd5b6001600e600082825401925050819055508090509392505050565b6000612ee3826002613dc690919063ffffffff16565b9050919050565b600033905090565b816004600083815260200190815260200160002060006101000a81548173ffffffffffffffffffffffffffffffffffffffff021916908373ffffffffffffffffffffffffffffffffffffffff160217905550808273ffffffffffffffffffffffffffffffffffffffff16612f6583611f75565b73ffffffffffffffffffffffffffffffffffffffff167f8c5be1e5ebec7d5bd14f71427d1e84f3dd0314c0f7b2291e5b200ac8c7c3b92560405160405180910390a45050565b6000612fb982600001613de0565b9050919050565b6000612fcb82612ecd565b613020576040517f08c379a000000000000000000000000000000000000000000000000000000000815260040180806020018281038252602c8152602001806151ff602c913960400191505060405180910390fd5b600061302b83611f75565b90508073ffffffffffffffffffffffffffffffffffffffff168473ffffffffffffffffffffffffffffffffffffffff16148061309a57508373ffffffffffffffffffffffffffffffffffffffff1661308284611455565b73ffffffffffffffffffffffffffffffffffffffff16145b806130ab57506130aa81856128c5565b5b91505092915050565b8273ffffffffffffffffffffffffffffffffffffffff166130d482611f75565b73ffffffffffffffffffffffffffffffffffffffff1614613140576040517f08c379a00000000000000000000000000000000000000000000000000000000081526004018080602001828103825260298152602001806153306029913960400191505060405180910390fd5b600073ffffffffffffffffffffffffffffffffffffffff168273ffffffffffffffffffffffffffffffffffffffff1614156131c6576040517f08c379a00000000000000000000000000000000000000000000000000000000081526004018080602001828103825260248152602001806151b56024913960400191505060405180910390fd5b6131d1838383613df1565b6131dc600082612ef2565b61322d81600160008673ffffffffffffffffffffffffffffffffffffffff1673ffffffffffffffffffffffffffffffffffffffff168152602001908152602001600020613df690919063ffffffff16565b5061327f81600160008573ffffffffffffffffffffffffffffffffffffffff1673ffffffffffffffffffffffffffffffffffffffff168152602001908152602001600020613e1090919063ffffffff16565b5061329681836002613e2a9092919063ffffffff16565b50808273ffffffffffffffffffffffffffffffffffffffff168473ffffffffffffffffffffffffffffffffffffffff167fddf252ad1be2c89b69c2b068fc378daa952ba7f163c4a11628f55a4df523b3ef60405160405180910390a4505050565b6060613304601154613e5f565b90506060613313601254613e5f565b90506133ba60138054600181600116156101000203166002900480601f0160208091040260200160405190810160405280929190818152602001828054600181600116156101000203166002900480156133ae5780601f10613383576101008083540402835291602001916133ae565b820191906000526020600020905b81548152906001019060200180831161339157829003601f168201915b50505050508383613552565b601390805190602001906133cf929190615056565b506134df60138054600181600116156101000203166002900480601f0160208091040260200160405190810160405280929190818152602001828054600181600116156101000203166002900480156134695780601f1061343e57610100808354040283529160200191613469565b820191906000526020600020905b81548152906001019060200180831161344c57829003601f168201915b50505050506040518060400160405280600981526020017f2f6d6574616461746100000000000000000000000000000000000000000000008152506040518060400160405280600581526020017f2e6a736f6e000000000000000000000000000000000000000000000000000000815250613552565b601390805190602001906134f4929190615056565b505050565b61350560175482613fd3565b60176000815480929190600101919050555050565b6000613529836000018361405d565b60001c905092915050565b61354e8282604051806020016040528060008152506140e0565b5050565b60608383836040516020018084805190602001908083835b6020831061358d578051825260208201915060208101905060208303925061356a565b6001836020036101000a03801982511681845116808217855250505050505090500183805190602001908083835b602083106135de57805182526020820191506020810190506020830392506135bb565b6001836020036101000a03801982511681845116808217855250505050505090500182805190602001908083835b6020831061362f578051825260208201915060208101905060208303925061360c565b6001836020036101000a038019825116818451168082178552505050505050905001935050505060405160208183030381529060405290509392505050565b606060008214156136b6576040518060400160405280600181526020017f300000000000000000000000000000000000000000000000000000000000000081525090506137b9565b600082905060005b600082146136e0578080600101915050600a82816136d857fe5b0491506136be565b60608167ffffffffffffffff811180156136f957600080fd5b506040519080825280601f01601f19166020018201604052801561372c5781602001600182028036833780820191505090505b50905060008290505b600086146137b1576001810390506000600a80888161375057fe5b04028703603001905060008160f81b90508084848151811061376e57fe5b60200101907effffffffffffffffffffffffffffffffffffffffffffffffffffffffffffff1916908160001a905350600a88816137a757fe5b0497505050613735565b819450505050505b919050565b60006137c8614fe9565b6137dc6015543063042f2b6560e01b612bb1565b90506138286040518060400160405280600381526020017f67657400000000000000000000000000000000000000000000000000000000008152508483612be29092919063ffffffff16565b6138a76040518060400160405280600481526020017f70617468000000000000000000000000000000000000000000000000000000008152506040518060400160405280600981526020017f495046535f50415448000000000000000000000000000000000000000000000081525083612be29092919063ffffffff16565b6138d6601460009054906101000a900473ffffffffffffffffffffffffffffffffffffffff1682601654612c15565b915050919050565b6000806000806138f18660000186614151565b915091508160001c8160001c8090509350935050509250929050565b6000606082905060008151141561392a576000801b915050613933565b60208301519150505b919050565b600061394b846000018460001b846141ea565b60001c90509392505050565b6000613965826000016142e0565b9050919050565b6139778484846130b4565b613983848484846142f1565b6139d8576040517f08c379a00000000000000000000000000000000000000000000000000000000081526004018080602001828103825260328152602001806151606032913960400191505060405180910390fd5b50505050565b60606000821415613a26576040518060400160405280600181526020017f30000000000000000000000000000000000000000000000000000000000000008152509050613b20565b600082905060005b60008214613a50578080600101915050600a8281613a4857fe5b049150613a2e565b60608167ffffffffffffffff81118015613a6957600080fd5b506040519080825280601f01601f191660200182016040528015613a9c5781602001600182028036833780820191505090505b50905060006001830390508593505b60008414613b1857600a8481613abd57fe5b0660300160f81b82828060019003935081518110613ad757fe5b60200101907effffffffffffffffffffffffffffffffffffffffffffffffffffffffffffff1916908160001a905350600a8481613b1057fe5b049350613aab565b819450505050505b919050565b613b2d614fe9565b613b3d8560800151610100614536565b508385600001818152505082856020019073ffffffffffffffffffffffffffffffffffffffff16908173ffffffffffffffffffffffffffffffffffffffff16815250508185604001907bffffffffffffffffffffffffffffffffffffffffffffffffffffffff191690817bffffffffffffffffffffffffffffffffffffffffffffffffffffffff191681525050849050949350505050565b613be2826003835161458a565b613bf581836146cf90919063ffffffff16565b505050565b6060634042994660e01b60008084600001518560200151866040015187606001516001896080015160000151604051602401808973ffffffffffffffffffffffffffffffffffffffff1673ffffffffffffffffffffffffffffffffffffffff1681526020018881526020018781526020018673ffffffffffffffffffffffffffffffffffffffff1673ffffffffffffffffffffffffffffffffffffffff168152602001857bffffffffffffffffffffffffffffffffffffffffffffffffffffffff19167bffffffffffffffffffffffffffffffffffffffffffffffffffffffff1916815260200184815260200183815260200180602001828103825283818151815260200191508051906020019080838360005b83811015613d29578082015181840152602081019050613d0e565b50505050905090810190601f168015613d565780820380516001836020036101000a031916815260200191505b509950505050505050505050604051602081830303815290604052907bffffffffffffffffffffffffffffffffffffffffffffffffffffffff19166020820180517bffffffffffffffffffffffffffffffffffffffffffffffffffffffff83818316178352505050509050919050565b6000613dd8836000018360001b6146f1565b905092915050565b600081600001805490509050919050565b505050565b6000613e08836000018360001b614714565b905092915050565b6000613e22836000018360001b6147fc565b905092915050565b6000613e56846000018460001b8473ffffffffffffffffffffffffffffffffffffffff1660001b61486c565b90509392505050565b606060008090505b60208160ff16108015613eb25750600060f81b838260ff1660208110613e8957fe5b1a60f81b7effffffffffffffffffffffffffffffffffffffffffffffffffffffffffffff191614155b15613ec4578080600101915050613e67565b60608160ff1667ffffffffffffffff81118015613ee057600080fd5b506040519080825280601f01601f191660200182016040528015613f135781602001600182028036833780820191505090505b509050600091505b60208260ff16108015613f665750600060f81b848360ff1660208110613f3d57fe5b1a60f81b7effffffffffffffffffffffffffffffffffffffffffffffffffffffffffffff191614155b15613fc957838260ff1660208110613f7a57fe5b1a60f81b818360ff1681518110613f8d57fe5b60200101907effffffffffffffffffffffffffffffffffffffffffffffffffffffffffffff1916908160001a9053508180600101925050613f1b565b8092505050919050565b613fdc82612ecd565b614031576040517f08c379a000000000000000000000000000000000000000000000000000000000815260040180806020018281038252602c815260200180615304602c913960400191505060405180910390fd5b80600860008481526020019081526020016000209080519060200190614058929190615056565b505050565b6000818360000180549050116140be576040517f08c379a00000000000000000000000000000000000000000000000000000000081526004018080602001828103825260228152602001806151166022913960400191505060405180910390fd5b8260000182815481106140cd57fe5b9060005260206000200154905092915050565b6140ea8383614948565b6140f760008484846142f1565b61414c576040517f08c379a00000000000000000000000000000000000000000000000000000000081526004018080602001828103825260328152602001806151606032913960400191505060405180910390fd5b505050565b600080828460000180549050116141b3576040517f08c379a00000000000000000000000000000000000000000000000000000000081526004018080602001828103825260228152602001806152b66022913960400191505060405180910390fd5b60008460000184815481106141c457fe5b906000526020600020906002020190508060000154816001015492509250509250929050565b600080846001016000858152602001908152602001600020549050600081141583906142b1576040517f08c379a00000000000000000000000000000000000000000000000000000000081526004018080602001828103825283818151815260200191508051906020019080838360005b8381101561427657808201518184015260208101905061425b565b50505050905090810190601f1680156142a35780820380516001836020036101000a031916815260200191505b509250505060405180910390fd5b508460000160018203815481106142c457fe5b9060005260206000209060020201600101549150509392505050565b600081600001805490509050919050565b60006143128473ffffffffffffffffffffffffffffffffffffffff16614b3c565b61431f576001905061452e565b60606144b563150b7a0260e01b614334612eea565b888787604051602401808573ffffffffffffffffffffffffffffffffffffffff1673ffffffffffffffffffffffffffffffffffffffff1681526020018473ffffffffffffffffffffffffffffffffffffffff1673ffffffffffffffffffffffffffffffffffffffff16815260200183815260200180602001828103825283818151815260200191508051906020019080838360005b838110156143e45780820151818401526020810190506143c9565b50505050905090810190601f1680156144115780820380516001836020036101000a031916815260200191505b5095505050505050604051602081830303815290604052907bffffffffffffffffffffffffffffffffffffffffffffffffffffffff19166020820180517bffffffffffffffffffffffffffffffffffffffffffffffffffffffff8381831617835250505050604051806060016040528060328152602001615160603291398773ffffffffffffffffffffffffffffffffffffffff16614b4f9092919063ffffffff16565b905060008180602001905160208110156144ce57600080fd5b8101908080519060200190929190505050905063150b7a0260e01b7bffffffffffffffffffffffffffffffffffffffffffffffffffffffff1916817bffffffffffffffffffffffffffffffffffffffffffffffffffffffff191614925050505b949350505050565b61453e6150d6565b60006020838161454a57fe5b0614614563576020828161455a57fe5b06602003820191505b81836020018181525050604051808452600081528281016020016040525082905092915050565b601781116145b7576145b18160058460ff16901b60ff161784614b6790919063ffffffff16565b506146ca565b60ff81116145f9576145dc601860058460ff16901b1784614b6790919063ffffffff16565b506145f381600185614b879092919063ffffffff16565b506146c9565b61ffff811161463c5761461f601960058460ff16901b1784614b6790919063ffffffff16565b5061463681600285614b879092919063ffffffff16565b506146c8565b63ffffffff811161468157614664601a60058460ff16901b1784614b6790919063ffffffff16565b5061467b81600485614b879092919063ffffffff16565b506146c7565b67ffffffffffffffff81116146c6576146ad601b60058460ff16901b1784614b6790919063ffffffff16565b506146c481600885614b879092919063ffffffff16565b505b5b5b5b5b505050565b6146d76150d6565b6146e983846000015151848551614ba9565b905092915050565b600080836001016000848152602001908152602001600020541415905092915050565b600080836001016000848152602001908152602001600020549050600081146147f0576000600182039050600060018660000180549050039050600086600001828154811061475f57fe5b906000526020600020015490508087600001848154811061477c57fe5b90600052602060002001819055506001830187600101600083815260200190815260200160002081905550866000018054806147b457fe5b600190038181906000526020600020016000905590558660010160008781526020019081526020016000206000905560019450505050506147f6565b60009150505b92915050565b60006148088383614c62565b614861578260000182908060018154018082558091505060019003906000526020600020016000909190919091505582600001805490508360010160008481526020019081526020016000208190555060019050614866565b600090505b92915050565b600080846001016000858152602001908152602001600020549050600081141561491357846000016040518060400160405280868152602001858152509080600181540180825580915050600190039060005260206000209060020201600090919091909150600082015181600001556020820151816001015550508460000180549050856001016000868152602001908152602001600020819055506001915050614941565b8285600001600183038154811061492657fe5b90600052602060002090600202016001018190555060009150505b9392505050565b600073ffffffffffffffffffffffffffffffffffffffff168273ffffffffffffffffffffffffffffffffffffffff1614156149eb576040517f08c379a00000000000000000000000000000000000000000000000000000000081526004018080602001828103825260208152602001807f4552433732313a206d696e7420746f20746865207a65726f206164647265737381525060200191505060405180910390fd5b6149f481612ecd565b15614a67576040517f08c379a000000000000000000000000000000000000000000000000000000000815260040180806020018281038252601c8152602001807f4552433732313a20746f6b656e20616c7265616479206d696e7465640000000081525060200191505060405180910390fd5b614a7360008383613df1565b614ac481600160008573ffffffffffffffffffffffffffffffffffffffff1673ffffffffffffffffffffffffffffffffffffffff168152602001908152602001600020613e1090919063ffffffff16565b50614adb81836002613e2a9092919063ffffffff16565b50808273ffffffffffffffffffffffffffffffffffffffff16600073ffffffffffffffffffffffffffffffffffffffff167fddf252ad1be2c89b69c2b068fc378daa952ba7f163c4a11628f55a4df523b3ef60405160405180910390a45050565b600080823b905060008111915050919050565b6060614b5e8484600085614c85565b90509392505050565b614b6f6150d6565b614b7f8384600001515184614e2e565b905092915050565b614b8f6150d6565b614ba0848560000151518585614e7c565b90509392505050565b614bb16150d6565b8251821115614bbf57600080fd5b84602001518285011115614bea57614be9856002614be38860200151888701614edd565b02614ef9565b5b600080865180518760208301019350808887011115614c095787860182525b60208701925050505b60208410614c355780518252602082019150602081019050602084039350614c12565b60006001856020036101000a03905080198251168184511681811785525050879350505050949350505050565b600080836001016000848152602001908152602001600020541415905092915050565b606082471015614ce0576040517f08c379a00000000000000000000000000000000000000000000000000000000081526004018080602001828103825260268152602001806151d96026913960400191505060405180910390fd5b614ce985614b3c565b614d5b576040517f08c379a000000000000000000000000000000000000000000000000000000000815260040180806020018281038252601d8152602001807f416464726573733a2063616c6c20746f206e6f6e2d636f6e747261637400000081525060200191505060405180910390fd5b600060608673ffffffffffffffffffffffffffffffffffffffff1685876040518082805190602001908083835b60208310614dab5780518252602082019150602081019050602083039250614d88565b6001836020036101000a03801982511681845116808217855250505050505090500191505060006040518083038185875af1925050503d8060008114614e0d576040519150601f19603f3d011682016040523d82523d6000602084013e614e12565b606091505b5091509150614e22828286614f1d565b92505050949350505050565b614e366150d6565b83602001518310614e5357614e52846002866020015102614ef9565b5b8351805160208583010184815381861415614e6f576001820183525b5050508390509392505050565b614e846150d6565b84602001518483011115614ea257614ea185600286850102614ef9565b5b60006001836101000a0390508551838682010185831982511617815281518588011115614ecf5784870182525b505085915050949350505050565b600081831115614eef57829050614ef3565b8190505b92915050565b606082600001519050614f0c8383614536565b50614f1783826146cf565b50505050565b60608315614f2d57829050614fe2565b600083511115614f405782518084602001fd5b816040517f08c379a00000000000000000000000000000000000000000000000000000000081526004018080602001828103825283818151815260200191508051906020019080838360005b83811015614fa7578082015181840152602081019050614f8c565b50505050905090810190601f168015614fd45780820380516001836020036101000a031916815260200191505b509250505060405180910390fd5b9392505050565b6040518060a0016040528060008019168152602001600073ffffffffffffffffffffffffffffffffffffffff16815260200160007bffffffffffffffffffffffffffffffffffffffffffffffffffffffff19168152602001600081526020016150506150d6565b81525090565b828054600181600116156101000203166002900490600052602060002090601f016020900481019282601f1061509757805160ff19168380011785556150c5565b828001600101855582156150c5579182015b828111156150c45782518255916020019190600101906150a9565b5b5090506150d291906150f0565b5090565b604051806040016040528060608152602001600081525090565b61511291905b8082111561510e5760008160009055506001016150f6565b5090565b9056fe456e756d657261626c655365743a20696e646578206f7574206f6620626f756e64734552433732313a2043616c6c6572206973206e6f74206f776e6572206e6f7220617070726f7665644552433732313a207472616e7366657220746f206e6f6e20455243373231526563656976657220696d706c656d656e746572756e61626c6520746f207472616e73666572416e6443616c6c20746f206f7261636c654552433732313a207472616e7366657220746f20746865207a65726f2061646472657373416464726573733a20696e73756666696369656e742062616c616e636520666f722063616c6c4552433732313a206f70657261746f7220717565727920666f72206e6f6e6578697374656e7420746f6b656e4552433732313a20617070726f76652063616c6c6572206973206e6f74206f776e6572206e6f7220617070726f76656420666f7220616c6c4552433732313a2062616c616e636520717565727920666f7220746865207a65726f20616464726573734552433732313a206f776e657220717565727920666f72206e6f6e6578697374656e7420746f6b656e456e756d657261626c654d61703a20696e646578206f7574206f6620626f756e64734552433732313a20617070726f76656420717565727920666f72206e6f6e6578697374656e7420746f6b656e4552433732314d657461646174613a2055524920736574206f66206e6f6e6578697374656e7420746f6b656e4552433732313a207472616e73666572206f6620746f6b656e2074686174206973206e6f74206f776e4552433732314d657461646174613a2055524920717565727920666f72206e6f6e6578697374656e7420746f6b656e4552433732313a20617070726f76616c20746f2063757272656e74206f776e65724552433732313a207472616e736665722063616c6c6572206973206e6f74206f776e6572206e6f7220617070726f766564536f75726365206d75737420626520746865206f7261636c65206f662074686520726571756573745468652063616c6c6572206973206e6f742074686520636f6e7472616374206f776e6572a2646970667358221220c476fa344c9e62bbdd19f5b05ca0135380e7504a56d89a46d49264d20bc1f58964736f6c6343000606003368747470733a2f2f696d616765732d626c656e642e6865726f6b756170702e636f6d2f68747470733a2f2f696d616765732d626c656e642e6865726f6b756170702e636f6d2f7365636f6e642f",
  "immutableReferences": {},
  "source": "// SPDX-License-Identifier: MIT\r\npragma solidity ^0.6.6;\r\n\r\nimport \"@openzeppelin/contracts/token/ERC721/ERC721.sol\";\r\nimport \"@chainlink/contracts/src/v0.6/ChainlinkClient.sol\";\r\n\r\ncontract Turtis is ERC721, ChainlinkClient {\r\n  address public contractOwner; // Owner of this contract\r\n\r\n  // Bytes32 data related to IPFS Hash returned from the API\r\n  bytes32 private ipfsHashOneBytes32;\r\n  bytes32 private ipfsHashTwoBytes32;\r\n\r\n  string public ipfsLink = \"ipfs://\"; // Stores the IPFS link after the API call\r\n\r\n  // Chainlink Oracle, Job ID and fee required for making the API call using Chainlink\r\n  address private oracle;\r\n  bytes32 private jobId;\r\n  uint256 private fee;\r\n\r\n  uint256 private uniqueTokenId = 0; // Unique TokenID\r\n\r\n  string private apiBaseUrl; // Stores the base url of the api\r\n  string private apiSecondUrl; // API url for the second call\r\n\r\n  // Mapping from Token ID to Price\r\n  mapping(uint256 => uint256) public turtlesForSale;\r\n\r\n  // Mapping from User address to high score\r\n  mapping(address => uint256) userAddressToHighScore;\r\n\r\n  // Events\r\n\r\n  // Emitted when a new Turtle is generated after reaching a new checkpoint in the game\r\n  event NewTurtleGenerated(uint256 tokenId);\r\n\r\n  // Emitted when the data received from the API is successful\r\n  event DataReceivedFromAPI(string ipfsLink);\r\n\r\n  // Emitted when a turtle is bought\r\n  event TurtleBought(uint256 tokenId);\r\n\r\n  // Emitted when a turtle is put up for sale\r\n  event TurtleUpForSale(uint256 tokenId);\r\n\r\n  /**\r\n   * Network: Matic Mumbai Testnet\r\n   * Oracle: 0xc8D925525CA8759812d0c299B90247917d4d4b7C\r\n   * Job ID: a7330d0b4b964c05abc66a26307047c0\r\n   * LINK address: 0x326C977E6efc84E512bB9C30f76E30c160eD06FB\r\n   * Fee: 0.01 LINK\r\n   */\r\n\r\n  // Contructor is called when an instance of 'TurtleCharacter' contract is deployed\r\n  constructor() public ERC721(\"TurtleCharacter\", \"TRTL\") {\r\n    setChainlinkToken(0x326C977E6efc84E512bB9C30f76E30c160eD06FB);\r\n\r\n    uniqueTokenId = 0;\r\n    contractOwner = msg.sender;\r\n    apiBaseUrl = \"https://images-blend.herokuapp.com/\";\r\n    apiSecondUrl = \"https://images-blend.herokuapp.com/second/\";\r\n\r\n    oracle = 0xc8D925525CA8759812d0c299B90247917d4d4b7C; // Address of the chainlink oracle\r\n    jobId = \"a7330d0b4b964c05abc66a26307047c0\"; // This Job gets data from an API in the form of a bytes32 variable\r\n    fee = 0.01 * 10**18; // 0.01 LINK (Fee for Chainlink Oracle for returning the required data)\r\n  }\r\n\r\n  // Modifer that checks to see if msg.sender == contractOwner\r\n  modifier onlyContractOwner() {\r\n    require(\r\n      msg.sender == contractOwner,\r\n      \"The caller is not the contract owner\"\r\n    );\r\n    _;\r\n  }\r\n\r\n  // Function 'setOracleAddress' sets a new oracle address\r\n  function setOracleAddress(address _oracleAddress) public onlyContractOwner {\r\n    oracle = _oracleAddress;\r\n  }\r\n\r\n  // Function 'setJobID' sets a new job ID\r\n  function setJobID(string memory _jobID) public onlyContractOwner {\r\n    jobId = stringToBytes32(_jobID);\r\n  }\r\n\r\n  // Function 'setFeeInLink' sets a new fee for the Chainlink Oracle\r\n  function setFeeInLink(uint256 _fee) public onlyContractOwner {\r\n    fee = _fee * 10**18;\r\n  }\r\n\r\n  // Function 'setApiBaseUrl' sets a new base URL link for the API\r\n  function setApiBaseUrl(string memory _url) public onlyContractOwner {\r\n    apiBaseUrl = _url;\r\n  }\r\n\r\n  // Function 'setApiSecondUrl' sets a new second URL link for the API\r\n  function setApiSecondUrl(string memory _url) public onlyContractOwner {\r\n    apiSecondUrl = _url;\r\n  }\r\n\r\n  // Function 'setHighScore' sets a new highScore for the user\r\n  function setHighScore(uint256 _highScore) public {\r\n    userAddressToHighScore[msg.sender] = _highScore;\r\n  }\r\n\r\n  // Function 'buyTurtle' allows anyone to buy a turtle that is put up for sale\r\n  function buyTurtle(uint256 _tokenId) public payable {\r\n    require(turtlesForSale[_tokenId] > 0, \"The Turtle should be up for sale\");\r\n\r\n    uint256 turtleCost = turtlesForSale[_tokenId];\r\n    turtlesForSale[_tokenId] = 0;\r\n\r\n    address ownerAddress = ownerOf(_tokenId);\r\n    require(msg.value > turtleCost, \"You need to have enough Ether\");\r\n\r\n    _safeTransfer(ownerAddress, msg.sender, _tokenId, bytes(\"Buy a Turtle\")); // ERC721 Token is safely transferred using this function call\r\n\r\n    address payable ownerAddressPayable = payable(ownerAddress);\r\n    ownerAddressPayable.transfer(turtleCost);\r\n    if (msg.value > turtleCost) {\r\n      payable(msg.sender).transfer(msg.value - turtleCost); // Excess Ether is returned back to the buyer\r\n    }\r\n\r\n    emit TurtleBought(_tokenId);\r\n  }\r\n\r\n  // Function 'putUpTurtleForSale' allows a turtle owner to put it up for sale\r\n  function putUpTurtleForSale(uint256 _tokenId, uint256 _price) public {\r\n    require(\r\n      _isApprovedOrOwner(_msgSender(), _tokenId),\r\n      \"ERC721: Caller is not owner nor approved\"\r\n    );\r\n    turtlesForSale[_tokenId] = _price;\r\n\r\n    emit TurtleUpForSale(_tokenId);\r\n  }\r\n\r\n  // Function 'requestNewRandomTurtle' mints a new Turtle character\r\n  function requestNewRandomTurtle(string memory score) public {\r\n    ipfsLink = \"ipfs://\";\r\n    _safeMint(msg.sender, uniqueTokenId);\r\n    string memory apiLink = append(apiBaseUrl, \"?score=\", score);\r\n    string memory characterId = uint2str(totalSupply());\r\n    apiLink = append(apiLink, \"&characterId=\", characterId);\r\n    requestIPFSHash(apiLink);\r\n  }\r\n\r\n  // Function 'requestIPFSHash' requests a new IPFS hash from the API\r\n  function requestIPFSHash(string memory apiLink)\r\n    private\r\n    returns (bytes32 requestId)\r\n  {\r\n    Chainlink.Request memory request = buildChainlinkRequest(\r\n      jobId,\r\n      address(this),\r\n      this.fulfill.selector\r\n    );\r\n    request.add(\"get\", apiLink);\r\n    request.add(\"path\", \"IPFS_PATH\");\r\n\r\n    return sendChainlinkRequestTo(oracle, request, fee);\r\n  }\r\n\r\n  // Function 'fulfill' is called after the response for the API call is received\r\n  function fulfill(bytes32 _requestId, bytes32 dataFromAPI)\r\n    public\r\n    recordChainlinkFulfillment(_requestId)\r\n    returns (bytes32 requestId)\r\n  {\r\n    ipfsHashOneBytes32 = dataFromAPI;\r\n\r\n    Chainlink.Request memory request = buildChainlinkRequest(\r\n      jobId,\r\n      address(this),\r\n      this.fulfillSecondRequest.selector\r\n    );\r\n    request.add(\"get\", apiSecondUrl);\r\n    request.add(\"path\", \"IPFS_PATH\");\r\n\r\n    return sendChainlinkRequestTo(oracle, request, fee);\r\n  }\r\n\r\n  // Function 'fulfillSecondRequest' is called after the response for the API call is received\r\n  function fulfillSecondRequest(bytes32 _requestId, bytes32 dataFromAPI)\r\n    public\r\n    recordChainlinkFulfillment(_requestId)\r\n  {\r\n    ipfsHashTwoBytes32 = dataFromAPI;\r\n    generateIPFSLink();\r\n\r\n    emit DataReceivedFromAPI(ipfsLink);\r\n\r\n    setTokenURI(ipfsLink);\r\n\r\n    emit NewTurtleGenerated(uniqueTokenId - 1);\r\n  }\r\n\r\n  // Function 'bytes32ToString' convers a bytes32 variable to a string variable\r\n  function bytes32ToString(bytes32 _bytes32)\r\n    internal\r\n    pure\r\n    returns (string memory)\r\n  {\r\n    uint8 i = 0;\r\n    while (i < 32 && _bytes32[i] != 0) {\r\n      i++;\r\n    }\r\n    bytes memory bytesArray = new bytes(i);\r\n    for (i = 0; i < 32 && _bytes32[i] != 0; i++) {\r\n      bytesArray[i] = _bytes32[i];\r\n    }\r\n    return string(bytesArray);\r\n  }\r\n\r\n  // Function 'stringToBytes32' convers a string variable to a bytes32 variable\r\n  function stringToBytes32(string memory source)\r\n    internal\r\n    pure\r\n    returns (bytes32 result)\r\n  {\r\n    bytes memory tempEmptyStringTest = bytes(source);\r\n    if (tempEmptyStringTest.length == 0) {\r\n      return 0x0;\r\n    }\r\n    assembly {\r\n      result := mload(add(source, 32))\r\n    }\r\n  }\r\n\r\n  // Function 'generateIPFSLink' generates the IPFS link from the 2 API calls\r\n  function generateIPFSLink() private {\r\n    string memory ipfsHashPartOne = bytes32ToString(ipfsHashOneBytes32);\r\n    string memory ipfsHashPartTwo = bytes32ToString(ipfsHashTwoBytes32);\r\n    ipfsLink = append(ipfsLink, ipfsHashPartOne, ipfsHashPartTwo);\r\n    ipfsLink = append(ipfsLink, \"/metadata\", \".json\");\r\n  }\r\n\r\n  // Function 'append' appends 3 strings\r\n  function append(\r\n    string memory a,\r\n    string memory b,\r\n    string memory c\r\n  ) internal pure returns (string memory) {\r\n    return string(abi.encodePacked(a, b, c));\r\n  }\r\n\r\n  // Function 'uint2str' converts a uint256 variable to a string variable\r\n  function uint2str(uint256 _i)\r\n    internal\r\n    pure\r\n    returns (string memory _uintAsString)\r\n  {\r\n    if (_i == 0) {\r\n      return \"0\";\r\n    }\r\n    uint256 j = _i;\r\n    uint256 len;\r\n    while (j != 0) {\r\n      len++;\r\n      j /= 10;\r\n    }\r\n    bytes memory bstr = new bytes(len);\r\n    uint256 k = len;\r\n    while (_i != 0) {\r\n      k = k - 1;\r\n      uint8 temp = (48 + uint8(_i - (_i / 10) * 10));\r\n      bytes1 b1 = bytes1(temp);\r\n      bstr[k] = b1;\r\n      _i /= 10;\r\n    }\r\n    return string(bstr);\r\n  }\r\n\r\n  // Function 'setTokenURI' sets the Token URI for the ERC721 standard token\r\n  function setTokenURI(string memory _tokenURI) private {\r\n    _setTokenURI(uniqueTokenId, _tokenURI);\r\n    uniqueTokenId++;\r\n  }\r\n}\r\n",
  "sourcePath": "C:/Users/dines/Downloads/NFT-Game/contracts/Turtis.sol",
  "compiler": {
    "name": "solc",
    "version": "0.6.6+commit.6c089d02.Emscripten.clang"
  },
  "schemaVersion": "3.4.1",
  "updatedAt": "2021-07-30T23:05:35.405Z",
  "networkType": "ethereum",
  "devdoc": {
    "methods": {
      "approve(address,uint256)": {
        "details": "See {IERC721-approve}."
      },
      "balanceOf(address)": {
        "details": "See {IERC721-balanceOf}."
      },
      "baseURI()": {
        "details": "Returns the base URI set via {_setBaseURI}. This will be automatically added as a prefix in {tokenURI} to each token's URI, or to the token ID if no specific URI is set for that token ID."
      },
      "getApproved(uint256)": {
        "details": "See {IERC721-getApproved}."
      },
      "isApprovedForAll(address,address)": {
        "details": "See {IERC721-isApprovedForAll}."
      },
      "name()": {
        "details": "See {IERC721Metadata-name}."
      },
      "ownerOf(uint256)": {
        "details": "See {IERC721-ownerOf}."
      },
      "safeTransferFrom(address,address,uint256)": {
        "details": "See {IERC721-safeTransferFrom}."
      },
      "safeTransferFrom(address,address,uint256,bytes)": {
        "details": "See {IERC721-safeTransferFrom}."
      },
      "setApprovalForAll(address,bool)": {
        "details": "See {IERC721-setApprovalForAll}."
      },
      "supportsInterface(bytes4)": {
        "details": "See {IERC165-supportsInterface}.     * Time complexity O(1), guaranteed to always use less than 30 000 gas."
      },
      "symbol()": {
        "details": "See {IERC721Metadata-symbol}."
      },
      "tokenByIndex(uint256)": {
        "details": "See {IERC721Enumerable-tokenByIndex}."
      },
      "tokenOfOwnerByIndex(address,uint256)": {
        "details": "See {IERC721Enumerable-tokenOfOwnerByIndex}."
      },
      "tokenURI(uint256)": {
        "details": "See {IERC721Metadata-tokenURI}."
      },
      "totalSupply()": {
        "details": "See {IERC721Enumerable-totalSupply}."
      },
      "transferFrom(address,address,uint256)": {
        "details": "See {IERC721-transferFrom}."
      }
    }
  },
  "userdoc": {
    "methods": {
      "constructor": "Network: Matic Mumbai Testnet Oracle: 0xc8D925525CA8759812d0c299B90247917d4d4b7C Job ID: a7330d0b4b964c05abc66a26307047c0 LINK address: 0x326C977E6efc84E512bB9C30f76E30c160eD06FB Fee: 0.01 LINK"
    }
  }
}