{
  "contractName": "TurtleCharacter",
  "abi": [
    {
      "inputs": [],
      "stateMutability": "nonpayable",
      "type": "constructor"
    },
    {
      "anonymous": false,
      "inputs": [
        {
          "indexed": true,
          "internalType": "address",
          "name": "owner",
          "type": "address"
        },
        {
          "indexed": true,
          "internalType": "address",
          "name": "approved",
          "type": "address"
        },
        {
          "indexed": true,
          "internalType": "uint256",
          "name": "tokenId",
          "type": "uint256"
        }
      ],
      "name": "Approval",
      "type": "event"
    },
    {
      "anonymous": false,
      "inputs": [
        {
          "indexed": true,
          "internalType": "address",
          "name": "owner",
          "type": "address"
        },
        {
          "indexed": true,
          "internalType": "address",
          "name": "operator",
          "type": "address"
        },
        {
          "indexed": false,
          "internalType": "bool",
          "name": "approved",
          "type": "bool"
        }
      ],
      "name": "ApprovalForAll",
      "type": "event"
    },
    {
      "anonymous": false,
      "inputs": [
        {
          "indexed": true,
          "internalType": "bytes32",
          "name": "id",
          "type": "bytes32"
        }
      ],
      "name": "ChainlinkCancelled",
      "type": "event"
    },
    {
      "anonymous": false,
      "inputs": [
        {
          "indexed": true,
          "internalType": "bytes32",
          "name": "id",
          "type": "bytes32"
        }
      ],
      "name": "ChainlinkFulfilled",
      "type": "event"
    },
    {
      "anonymous": false,
      "inputs": [
        {
          "indexed": true,
          "internalType": "bytes32",
          "name": "id",
          "type": "bytes32"
        }
      ],
      "name": "ChainlinkRequested",
      "type": "event"
    },
    {
      "anonymous": false,
      "inputs": [
        {
          "indexed": true,
          "internalType": "address",
          "name": "from",
          "type": "address"
        },
        {
          "indexed": true,
          "internalType": "address",
          "name": "to",
          "type": "address"
        },
        {
          "indexed": true,
          "internalType": "uint256",
          "name": "tokenId",
          "type": "uint256"
        }
      ],
      "name": "Transfer",
      "type": "event"
    },
    {
      "inputs": [
        {
          "internalType": "address",
          "name": "to",
          "type": "address"
        },
        {
          "internalType": "uint256",
          "name": "tokenId",
          "type": "uint256"
        }
      ],
      "name": "approve",
      "outputs": [],
      "stateMutability": "nonpayable",
      "type": "function"
    },
    {
      "inputs": [
        {
          "internalType": "address",
          "name": "owner",
          "type": "address"
        }
      ],
      "name": "balanceOf",
      "outputs": [
        {
          "internalType": "uint256",
          "name": "",
          "type": "uint256"
        }
      ],
      "stateMutability": "view",
      "type": "function"
    },
    {
      "inputs": [],
      "name": "baseURI",
      "outputs": [
        {
          "internalType": "string",
          "name": "",
          "type": "string"
        }
      ],
      "stateMutability": "view",
      "type": "function"
    },
    {
      "inputs": [],
      "name": "contractOwner",
      "outputs": [
        {
          "internalType": "address",
          "name": "",
          "type": "address"
        }
      ],
      "stateMutability": "view",
      "type": "function"
    },
    {
      "inputs": [
        {
          "internalType": "uint256",
          "name": "tokenId",
          "type": "uint256"
        }
      ],
      "name": "getApproved",
      "outputs": [
        {
          "internalType": "address",
          "name": "",
          "type": "address"
        }
      ],
      "stateMutability": "view",
      "type": "function"
    },
    {
      "inputs": [],
      "name": "ipfsLink",
      "outputs": [
        {
          "internalType": "string",
          "name": "",
          "type": "string"
        }
      ],
      "stateMutability": "view",
      "type": "function"
    },
    {
      "inputs": [
        {
          "internalType": "address",
          "name": "owner",
          "type": "address"
        },
        {
          "internalType": "address",
          "name": "operator",
          "type": "address"
        }
      ],
      "name": "isApprovedForAll",
      "outputs": [
        {
          "internalType": "bool",
          "name": "",
          "type": "bool"
        }
      ],
      "stateMutability": "view",
      "type": "function"
    },
    {
      "inputs": [],
      "name": "name",
      "outputs": [
        {
          "internalType": "string",
          "name": "",
          "type": "string"
        }
      ],
      "stateMutability": "view",
      "type": "function"
    },
    {
      "inputs": [
        {
          "internalType": "uint256",
          "name": "tokenId",
          "type": "uint256"
        }
      ],
      "name": "ownerOf",
      "outputs": [
        {
          "internalType": "address",
          "name": "",
          "type": "address"
        }
      ],
      "stateMutability": "view",
      "type": "function"
    },
    {
      "inputs": [
        {
          "internalType": "address",
          "name": "from",
          "type": "address"
        },
        {
          "internalType": "address",
          "name": "to",
          "type": "address"
        },
        {
          "internalType": "uint256",
          "name": "tokenId",
          "type": "uint256"
        }
      ],
      "name": "safeTransferFrom",
      "outputs": [],
      "stateMutability": "nonpayable",
      "type": "function"
    },
    {
      "inputs": [
        {
          "internalType": "address",
          "name": "from",
          "type": "address"
        },
        {
          "internalType": "address",
          "name": "to",
          "type": "address"
        },
        {
          "internalType": "uint256",
          "name": "tokenId",
          "type": "uint256"
        },
        {
          "internalType": "bytes",
          "name": "_data",
          "type": "bytes"
        }
      ],
      "name": "safeTransferFrom",
      "outputs": [],
      "stateMutability": "nonpayable",
      "type": "function"
    },
    {
      "inputs": [
        {
          "internalType": "address",
          "name": "operator",
          "type": "address"
        },
        {
          "internalType": "bool",
          "name": "approved",
          "type": "bool"
        }
      ],
      "name": "setApprovalForAll",
      "outputs": [],
      "stateMutability": "nonpayable",
      "type": "function"
    },
    {
      "inputs": [
        {
          "internalType": "bytes4",
          "name": "interfaceId",
          "type": "bytes4"
        }
      ],
      "name": "supportsInterface",
      "outputs": [
        {
          "internalType": "bool",
          "name": "",
          "type": "bool"
        }
      ],
      "stateMutability": "view",
      "type": "function"
    },
    {
      "inputs": [],
      "name": "symbol",
      "outputs": [
        {
          "internalType": "string",
          "name": "",
          "type": "string"
        }
      ],
      "stateMutability": "view",
      "type": "function"
    },
    {
      "inputs": [
        {
          "internalType": "uint256",
          "name": "index",
          "type": "uint256"
        }
      ],
      "name": "tokenByIndex",
      "outputs": [
        {
          "internalType": "uint256",
          "name": "",
          "type": "uint256"
        }
      ],
      "stateMutability": "view",
      "type": "function"
    },
    {
      "inputs": [
        {
          "internalType": "address",
          "name": "owner",
          "type": "address"
        },
        {
          "internalType": "uint256",
          "name": "index",
          "type": "uint256"
        }
      ],
      "name": "tokenOfOwnerByIndex",
      "outputs": [
        {
          "internalType": "uint256",
          "name": "",
          "type": "uint256"
        }
      ],
      "stateMutability": "view",
      "type": "function"
    },
    {
      "inputs": [
        {
          "internalType": "uint256",
          "name": "tokenId",
          "type": "uint256"
        }
      ],
      "name": "tokenURI",
      "outputs": [
        {
          "internalType": "string",
          "name": "",
          "type": "string"
        }
      ],
      "stateMutability": "view",
      "type": "function"
    },
    {
      "inputs": [],
      "name": "totalSupply",
      "outputs": [
        {
          "internalType": "uint256",
          "name": "",
          "type": "uint256"
        }
      ],
      "stateMutability": "view",
      "type": "function"
    },
    {
      "inputs": [
        {
          "internalType": "address",
          "name": "from",
          "type": "address"
        },
        {
          "internalType": "address",
          "name": "to",
          "type": "address"
        },
        {
          "internalType": "uint256",
          "name": "tokenId",
          "type": "uint256"
        }
      ],
      "name": "transferFrom",
      "outputs": [],
      "stateMutability": "nonpayable",
      "type": "function"
    },
    {
      "inputs": [],
      "name": "requestRandomCharacter",
      "outputs": [],
      "stateMutability": "nonpayable",
      "type": "function"
    },
    {
      "inputs": [],
      "name": "requestIPFSHash",
      "outputs": [
        {
          "internalType": "bytes32",
          "name": "requestId",
          "type": "bytes32"
        }
      ],
      "stateMutability": "nonpayable",
      "type": "function"
    },
    {
      "inputs": [
        {
          "internalType": "bytes32",
          "name": "_requestId",
          "type": "bytes32"
        },
        {
          "internalType": "bytes32",
          "name": "dataFromAPI",
          "type": "bytes32"
        }
      ],
      "name": "fulfill",
      "outputs": [
        {
          "internalType": "bytes32",
          "name": "requestId",
          "type": "bytes32"
        }
      ],
      "stateMutability": "nonpayable",
      "type": "function"
    },
    {
      "inputs": [
        {
          "internalType": "bytes32",
          "name": "_requestId",
          "type": "bytes32"
        },
        {
          "internalType": "bytes32",
          "name": "dataFromAPI",
          "type": "bytes32"
        }
      ],
      "name": "fulfillSecondRequest",
      "outputs": [],
      "stateMutability": "nonpayable",
      "type": "function"
    },
    {
      "inputs": [
        {
          "internalType": "bytes32",
          "name": "_bytes32",
          "type": "bytes32"
        }
      ],
      "name": "bytes32ToString",
      "outputs": [
        {
          "internalType": "string",
          "name": "",
          "type": "string"
        }
      ],
      "stateMutability": "pure",
      "type": "function"
    },
    {
      "inputs": [
        {
          "internalType": "string",
          "name": "a",
          "type": "string"
        },
        {
          "internalType": "string",
          "name": "b",
          "type": "string"
        },
        {
          "internalType": "string",
          "name": "c",
          "type": "string"
        }
      ],
      "name": "append",
      "outputs": [
        {
          "internalType": "string",
          "name": "",
          "type": "string"
        }
      ],
      "stateMutability": "pure",
      "type": "function"
    },
    {
      "inputs": [],
      "name": "withdrawLink",
      "outputs": [],
      "stateMutability": "nonpayable",
      "type": "function"
    }
  ],
  "bytecode": "0x608060405260016004556040518060400160405280601581526020017f68747470733a2f2f697066732e696f2f697066732f0000000000000000000000815250601390805190602001906200005692919062000443565b5060006017553480156200006957600080fd5b506040518060400160405280600f81526020017f547572746c6543686172616374657200000000000000000000000000000000008152506040518060400160405280600481526020017f5452544c00000000000000000000000000000000000000000000000000000000815250620000ee6301ffc9a760e01b6200024b60201b60201c565b81600c90805190602001906200010692919062000443565b5080600d90805190602001906200011f92919062000443565b50620001386380ac58cd60e01b6200024b60201b60201c565b62000150635b5e139f60e01b6200024b60201b60201c565b6200016863780e9d6360e01b6200024b60201b60201c565b50506200017a6200035560201b60201c565b33601060006101000a81548173ffffffffffffffffffffffffffffffffffffffff021916908373ffffffffffffffffffffffffffffffffffffffff160217905550733a56ae4a2831c3d3514b5d7af5578e45ebdb7a40601460006101000a81548173ffffffffffffffffffffffffffffffffffffffff021916908373ffffffffffffffffffffffffffffffffffffffff1602179055507f3138376262383065356565373461313339373334636163373437356633633665601581905550662386f26fc10000601681905550620004f2565b63ffffffff60e01b817bffffffffffffffffffffffffffffffffffffffffffffffffffffffff19161415620002e8576040517f08c379a000000000000000000000000000000000000000000000000000000000815260040180806020018281038252601c8152602001807f4552433136353a20696e76616c696420696e746572666163652069640000000081525060200191505060405180910390fd5b600160066000837bffffffffffffffffffffffffffffffffffffffffffffffffffffffff19167bffffffffffffffffffffffffffffffffffffffffffffffffffffffff1916815260200190815260200160002060006101000a81548160ff02191690831515021790555050565b620003fd73c89bd4e1632d3a43cb03aaad5262cbe4038bc57173ffffffffffffffffffffffffffffffffffffffff166338cc48316040518163ffffffff1660e01b815260040160206040518083038186803b158015620003b457600080fd5b505afa158015620003c9573d6000803e3d6000fd5b505050506040513d6020811015620003e057600080fd5b8101908080519060200190929190505050620003ff60201b60201c565b565b80600260006101000a81548173ffffffffffffffffffffffffffffffffffffffff021916908373ffffffffffffffffffffffffffffffffffffffff16021790555050565b828054600181600116156101000203166002900490600052602060002090601f016020900481019282601f106200048657805160ff1916838001178555620004b7565b82800160010185558215620004b7579182015b82811115620004b657825182559160200191906001019062000499565b5b509050620004c69190620004ca565b5090565b620004ef91905b80821115620004eb576000816000905550600101620004d1565b5090565b90565b61473180620005026000396000f3fe608060405234801561001057600080fd5b506004361061018e5760003560e01c80634f6ccce7116100de57806395d89b4111610097578063c87b56dd11610071578063c87b56dd14610c1a578063ce606ee014610cc1578063e985e9c514610d0b578063f8b2474d14610d875761018e565b806395d89b4114610a42578063a22cb46514610ac5578063b88d4fde14610b155761018e565b80634f6ccce7146108065780636352211e146108485780636c0360eb146108b657806370a08231146109395780638dc654a2146109915780639201de551461099b5761018e565b806323b872dd1161014b5780632b9d8c9a116101255780632b9d8c9a146104515780632f745c59146104d457806342842e0e1461053657806347395ced146105a45761018e565b806323b872dd146103a1578063259049f41461040f5780632b22aaea146104195761018e565b806301ffc9a714610193578063042f2b65146101f857806306fdde0314610244578063081812fc146102c7578063095ea7b31461033557806318160ddd14610383575b600080fd5b6101de600480360360208110156101a957600080fd5b8101908080357bffffffffffffffffffffffffffffffffffffffffffffffffffffffff19169060200190929190505050610da5565b604051808215151515815260200191505060405180910390f35b61022e6004803603604081101561020e57600080fd5b810190808035906020019092919080359060200190929190505050610e0d565b6040518082815260200191505060405180910390f35b61024c611069565b6040518080602001828103825283818151815260200191508051906020019080838360005b8381101561028c578082015181840152602081019050610271565b50505050905090810190601f1680156102b95780820380516001836020036101000a031916815260200191505b509250505060405180910390f35b6102f3600480360360208110156102dd57600080fd5b810190808035906020019092919050505061110b565b604051808273ffffffffffffffffffffffffffffffffffffffff1673ffffffffffffffffffffffffffffffffffffffff16815260200191505060405180910390f35b6103816004803603604081101561034b57600080fd5b81019080803573ffffffffffffffffffffffffffffffffffffffff169060200190929190803590602001909291905050506111a6565b005b61038b6112ea565b6040518082815260200191505060405180910390f35b61040d600480360360608110156103b757600080fd5b81019080803573ffffffffffffffffffffffffffffffffffffffff169060200190929190803573ffffffffffffffffffffffffffffffffffffffff169060200190929190803590602001909291905050506112fb565b005b610417611371565b005b61044f6004803603604081101561042f57600080fd5b8101908080359060200190929190803590602001909291905050506113d4565b005b6104596115a6565b6040518080602001828103825283818151815260200191508051906020019080838360005b8381101561049957808201518184015260208101905061047e565b50505050905090810190601f1680156104c65780820380516001836020036101000a031916815260200191505b509250505060405180910390f35b610520600480360360408110156104ea57600080fd5b81019080803573ffffffffffffffffffffffffffffffffffffffff16906020019092919080359060200190929190505050611644565b6040518082815260200191505060405180910390f35b6105a26004803603606081101561054c57600080fd5b81019080803573ffffffffffffffffffffffffffffffffffffffff169060200190929190803573ffffffffffffffffffffffffffffffffffffffff1690602001909291908035906020019092919050505061169f565b005b61078b600480360360608110156105ba57600080fd5b81019080803590602001906401000000008111156105d757600080fd5b8201836020820111156105e957600080fd5b8035906020019184600183028401116401000000008311171561060b57600080fd5b91908080601f016020809104026020016040519081016040528093929190818152602001838380828437600081840152601f19601f8201169050808301925050505050505091929192908035906020019064010000000081111561066e57600080fd5b82018360208201111561068057600080fd5b803590602001918460018302840111640100000000831117156106a257600080fd5b91908080601f016020809104026020016040519081016040528093929190818152602001838380828437600081840152601f19601f8201169050808301925050505050505091929192908035906020019064010000000081111561070557600080fd5b82018360208201111561071757600080fd5b8035906020019184600183028401116401000000008311171561073957600080fd5b91908080601f016020809104026020016040519081016040528093929190818152602001838380828437600081840152601f19601f8201169050808301925050505050505091929192905050506116bf565b6040518080602001828103825283818151815260200191508051906020019080838360005b838110156107cb5780820151818401526020810190506107b0565b50505050905090810190601f1680156107f85780820380516001836020036101000a031916815260200191505b509250505060405180910390f35b6108326004803603602081101561081c57600080fd5b81019080803590602001909291905050506117db565b6040518082815260200191505060405180910390f35b6108746004803603602081101561085e57600080fd5b81019080803590602001909291905050506117fe565b604051808273ffffffffffffffffffffffffffffffffffffffff1673ffffffffffffffffffffffffffffffffffffffff16815260200191505060405180910390f35b6108be611835565b6040518080602001828103825283818151815260200191508051906020019080838360005b838110156108fe5780820151818401526020810190506108e3565b50505050905090810190601f16801561092b5780820380516001836020036101000a031916815260200191505b509250505060405180910390f35b61097b6004803603602081101561094f57600080fd5b81019080803573ffffffffffffffffffffffffffffffffffffffff1690602001909291905050506118d7565b6040518082815260200191505060405180910390f35b6109996119ac565b005b6109c7600480360360208110156109b157600080fd5b8101908080359060200190929190505050611ba6565b6040518080602001828103825283818151815260200191508051906020019080838360005b83811015610a075780820151818401526020810190506109ec565b50505050905090810190601f168015610a345780820380516001836020036101000a031916815260200191505b509250505060405180910390f35b610a4a611d1a565b6040518080602001828103825283818151815260200191508051906020019080838360005b83811015610a8a578082015181840152602081019050610a6f565b50505050905090810190601f168015610ab75780820380516001836020036101000a031916815260200191505b509250505060405180910390f35b610b1360048036036040811015610adb57600080fd5b81019080803573ffffffffffffffffffffffffffffffffffffffff169060200190929190803515159060200190929190505050611dbc565b005b610c1860048036036080811015610b2b57600080fd5b81019080803573ffffffffffffffffffffffffffffffffffffffff169060200190929190803573ffffffffffffffffffffffffffffffffffffffff1690602001909291908035906020019092919080359060200190640100000000811115610b9257600080fd5b820183602082011115610ba457600080fd5b80359060200191846001830284011164010000000083111715610bc657600080fd5b91908080601f016020809104026020016040519081016040528093929190818152602001838380828437600081840152601f19601f820116905080830192505050505050509192919290505050611f74565b005b610c4660048036036020811015610c3057600080fd5b8101908080359060200190929190505050611fec565b6040518080602001828103825283818151815260200191508051906020019080838360005b83811015610c86578082015181840152602081019050610c6b565b50505050905090810190601f168015610cb35780820380516001836020036101000a031916815260200191505b509250505060405180910390f35b610cc96122bd565b604051808273ffffffffffffffffffffffffffffffffffffffff1673ffffffffffffffffffffffffffffffffffffffff16815260200191505060405180910390f35b610d6d60048036036040811015610d2157600080fd5b81019080803573ffffffffffffffffffffffffffffffffffffffff169060200190929190803573ffffffffffffffffffffffffffffffffffffffff1690602001909291905050506122e3565b604051808215151515815260200191505060405180910390f35b610d8f612377565b6040518082815260200191505060405180910390f35b600060066000837bffffffffffffffffffffffffffffffffffffffffffffffffffffffff19167bffffffffffffffffffffffffffffffffffffffffffffffffffffffff1916815260200190815260200160002060009054906101000a900460ff169050919050565b6000826005600082815260200190815260200160002060009054906101000a900473ffffffffffffffffffffffffffffffffffffffff1673ffffffffffffffffffffffffffffffffffffffff163373ffffffffffffffffffffffffffffffffffffffff1614610ec7576040517f08c379a00000000000000000000000000000000000000000000000000000000081526004018080602001828103825260288152602001806146d46028913960400191505060405180910390fd5b6005600082815260200190815260200160002060006101000a81549073ffffffffffffffffffffffffffffffffffffffff0219169055807f7cc135e0cebb02c3480ae5d74d377283180a2601f8f644edf7987b009316c63a60405160405180910390a282601181905550610f396142bf565b610f4d60155430632b22aaea60e01b6124ad565b9050610fb16040518060400160405280600381526020017f676574000000000000000000000000000000000000000000000000000000000081525060405180606001604052806029815260200161440e60299139836124de9092919063ffffffff16565b6110306040518060400160405280600481526020017f70617468000000000000000000000000000000000000000000000000000000008152506040518060400160405280600981526020017f495046535f504154480000000000000000000000000000000000000000000000815250836124de9092919063ffffffff16565b61105f601460009054906101000a900473ffffffffffffffffffffffffffffffffffffffff1682601654612511565b9250505092915050565b6060600c8054600181600116156101000203166002900480601f0160208091040260200160405190810160405280929190818152602001828054600181600116156101000203166002900480156111015780601f106110d657610100808354040283529160200191611101565b820191906000526020600020905b8154815290600101906020018083116110e457829003601f168201915b5050505050905090565b6000611116826127c9565b61116b576040517f08c379a000000000000000000000000000000000000000000000000000000000815260040180806020018281038252602c8152602001806145d2602c913960400191505060405180910390fd5b600a600083815260200190815260200160002060009054906101000a900473ffffffffffffffffffffffffffffffffffffffff169050919050565b60006111b1826117fe565b90508073ffffffffffffffffffffffffffffffffffffffff168373ffffffffffffffffffffffffffffffffffffffff161415611238576040517f08c379a00000000000000000000000000000000000000000000000000000000081526004018080602001828103825260218152602001806146826021913960400191505060405180910390fd5b8073ffffffffffffffffffffffffffffffffffffffff166112576127e6565b73ffffffffffffffffffffffffffffffffffffffff1614806112865750611285816112806127e6565b6122e3565b5b6112db576040517f08c379a00000000000000000000000000000000000000000000000000000000081526004018080602001828103825260388152602001806145026038913960400191505060405180910390fd5b6112e583836127ee565b505050565b60006112f660086128a7565b905090565b61130c6113066127e6565b826128bc565b611361576040517f08c379a00000000000000000000000000000000000000000000000000000000081526004018080602001828103825260318152602001806146a36031913960400191505060405180910390fd5b61136c8383836129b0565b505050565b6040518060400160405280601581526020017f68747470733a2f2f697066732e696f2f697066732f0000000000000000000000815250601390805190602001906113bc92919061432c565b506113c933601754612bf3565b6113d1612377565b50565b816005600082815260200190815260200160002060009054906101000a900473ffffffffffffffffffffffffffffffffffffffff1673ffffffffffffffffffffffffffffffffffffffff163373ffffffffffffffffffffffffffffffffffffffff161461148c576040517f08c379a00000000000000000000000000000000000000000000000000000000081526004018080602001828103825260288152602001806146d46028913960400191505060405180910390fd5b6005600082815260200190815260200160002060006101000a81549073ffffffffffffffffffffffffffffffffffffffff0219169055807f7cc135e0cebb02c3480ae5d74d377283180a2601f8f644edf7987b009316c63a60405160405180910390a2816012819055506114fe612c11565b6115a160138054600181600116156101000203166002900480601f0160208091040260200160405190810160405280929190818152602001828054600181600116156101000203166002900480156115975780601f1061156c57610100808354040283529160200191611597565b820191906000526020600020905b81548152906001019060200180831161157a57829003601f168201915b5050505050612cee565b505050565b60138054600181600116156101000203166002900480601f01602080910402602001604051908101604052809291908181526020018280546001816001161561010002031660029004801561163c5780601f106116115761010080835404028352916020019161163c565b820191906000526020600020905b81548152906001019060200180831161161f57829003601f168201915b505050505081565b600061169782600760008673ffffffffffffffffffffffffffffffffffffffff1673ffffffffffffffffffffffffffffffffffffffff168152602001908152602001600020612d0f90919063ffffffff16565b905092915050565b6116ba83838360405180602001604052806000815250611f74565b505050565b60608383836040516020018084805190602001908083835b602083106116fa57805182526020820191506020810190506020830392506116d7565b6001836020036101000a03801982511681845116808217855250505050505090500183805190602001908083835b6020831061174b5780518252602082019150602081019050602083039250611728565b6001836020036101000a03801982511681845116808217855250505050505090500182805190602001908083835b6020831061179c5780518252602082019150602081019050602083039250611779565b6001836020036101000a038019825116818451168082178552505050505050905001935050505060405160208183030381529060405290509392505050565b6000806117f2836008612d2990919063ffffffff16565b50905080915050919050565b600061182e82604051806060016040528060298152602001614564602991396008612d589092919063ffffffff16565b9050919050565b6060600f8054600181600116156101000203166002900480601f0160208091040260200160405190810160405280929190818152602001828054600181600116156101000203166002900480156118cd5780601f106118a2576101008083540402835291602001916118cd565b820191906000526020600020905b8154815290600101906020018083116118b057829003601f168201915b5050505050905090565b60008073ffffffffffffffffffffffffffffffffffffffff168273ffffffffffffffffffffffffffffffffffffffff16141561195e576040517f08c379a000000000000000000000000000000000000000000000000000000000815260040180806020018281038252602a81526020018061453a602a913960400191505060405180910390fd5b6119a5600760008473ffffffffffffffffffffffffffffffffffffffff1673ffffffffffffffffffffffffffffffffffffffff168152602001908152602001600020612d77565b9050919050565b60006119b6612d8c565b90508073ffffffffffffffffffffffffffffffffffffffff1663a9059cbb338373ffffffffffffffffffffffffffffffffffffffff166370a08231306040518263ffffffff1660e01b8152600401808273ffffffffffffffffffffffffffffffffffffffff1673ffffffffffffffffffffffffffffffffffffffff16815260200191505060206040518083038186803b158015611a5257600080fd5b505afa158015611a66573d6000803e3d6000fd5b505050506040513d6020811015611a7c57600080fd5b81019080805190602001909291905050506040518363ffffffff1660e01b8152600401808373ffffffffffffffffffffffffffffffffffffffff1673ffffffffffffffffffffffffffffffffffffffff16815260200182815260200192505050602060405180830381600087803b158015611af657600080fd5b505af1158015611b0a573d6000803e3d6000fd5b505050506040513d6020811015611b2057600080fd5b8101908080519060200190929190505050611ba3576040517f08c379a00000000000000000000000000000000000000000000000000000000081526004018080602001828103825260178152602001807f556e61626c6520746f207472616e73666572204c494e4b00000000000000000081525060200191505060405180910390fd5b50565b606060008090505b60208160ff16108015611bf95750600060f81b838260ff1660208110611bd057fe5b1a60f81b7effffffffffffffffffffffffffffffffffffffffffffffffffffffffffffff191614155b15611c0b578080600101915050611bae565b60608160ff1667ffffffffffffffff81118015611c2757600080fd5b506040519080825280601f01601f191660200182016040528015611c5a5781602001600182028036833780820191505090505b509050600091505b60208260ff16108015611cad5750600060f81b848360ff1660208110611c8457fe5b1a60f81b7effffffffffffffffffffffffffffffffffffffffffffffffffffffffffffff191614155b15611d1057838260ff1660208110611cc157fe5b1a60f81b818360ff1681518110611cd457fe5b60200101907effffffffffffffffffffffffffffffffffffffffffffffffffffffffffffff1916908160001a9053508180600101925050611c62565b8092505050919050565b6060600d8054600181600116156101000203166002900480601f016020809104026020016040519081016040528092919081815260200182805460018160011615610100020316600290048015611db25780601f10611d8757610100808354040283529160200191611db2565b820191906000526020600020905b815481529060010190602001808311611d9557829003601f168201915b5050505050905090565b611dc46127e6565b73ffffffffffffffffffffffffffffffffffffffff168273ffffffffffffffffffffffffffffffffffffffff161415611e65576040517f08c379a00000000000000000000000000000000000000000000000000000000081526004018080602001828103825260198152602001807f4552433732313a20617070726f766520746f2063616c6c65720000000000000081525060200191505060405180910390fd5b80600b6000611e726127e6565b73ffffffffffffffffffffffffffffffffffffffff1673ffffffffffffffffffffffffffffffffffffffff16815260200190815260200160002060008473ffffffffffffffffffffffffffffffffffffffff1673ffffffffffffffffffffffffffffffffffffffff16815260200190815260200160002060006101000a81548160ff0219169083151502179055508173ffffffffffffffffffffffffffffffffffffffff16611f1f6127e6565b73ffffffffffffffffffffffffffffffffffffffff167f17307eab39ab6107e8899845ad3d59bd9653f200f220920489ca2b5937696c3183604051808215151515815260200191505060405180910390a35050565b611f85611f7f6127e6565b836128bc565b611fda576040517f08c379a00000000000000000000000000000000000000000000000000000000081526004018080602001828103825260318152602001806146a36031913960400191505060405180910390fd5b611fe684848484612db6565b50505050565b6060611ff7826127c9565b61204c576040517f08c379a000000000000000000000000000000000000000000000000000000000815260040180806020018281038252602f815260200180614653602f913960400191505060405180910390fd5b6060600e60008481526020019081526020016000208054600181600116156101000203166002900480601f0160208091040260200160405190810160405280929190818152602001828054600181600116156101000203166002900480156120f55780601f106120ca576101008083540402835291602001916120f5565b820191906000526020600020905b8154815290600101906020018083116120d857829003601f168201915b505050505090506060612106611835565b905060008151141561211c5781925050506122b8565b6000825111156121ed5780826040516020018083805190602001908083835b6020831061215e578051825260208201915060208101905060208303925061213b565b6001836020036101000a03801982511681845116808217855250505050505090500182805190602001908083835b602083106121af578051825260208201915060208101905060208303925061218c565b6001836020036101000a03801982511681845116808217855250505050505090500192505050604051602081830303815290604052925050506122b8565b806121f785612e28565b6040516020018083805190602001908083835b6020831061222d578051825260208201915060208101905060208303925061220a565b6001836020036101000a03801982511681845116808217855250505050505090500182805190602001908083835b6020831061227e578051825260208201915060208101905060208303925061225b565b6001836020036101000a03801982511681845116808217855250505050505090500192505050604051602081830303815290604052925050505b919050565b601060009054906101000a900473ffffffffffffffffffffffffffffffffffffffff1681565b6000600b60008473ffffffffffffffffffffffffffffffffffffffff1673ffffffffffffffffffffffffffffffffffffffff16815260200190815260200160002060008373ffffffffffffffffffffffffffffffffffffffff1673ffffffffffffffffffffffffffffffffffffffff16815260200190815260200160002060009054906101000a900460ff16905092915050565b60006123816142bf565b6123956015543063042f2b6560e01b6124ad565b90506123f96040518060400160405280600381526020017f67657400000000000000000000000000000000000000000000000000000000008152506040518060600160405280602381526020016145af60239139836124de9092919063ffffffff16565b6124786040518060400160405280600481526020017f70617468000000000000000000000000000000000000000000000000000000008152506040518060400160405280600981526020017f495046535f504154480000000000000000000000000000000000000000000000815250836124de9092919063ffffffff16565b6124a7601460009054906101000a900473ffffffffffffffffffffffffffffffffffffffff1682601654612511565b91505090565b6124b56142bf565b6124bd6142bf565b6124d485858584612f6f909392919063ffffffff16565b9150509392505050565b6124f582846080015161301f90919063ffffffff16565b61250c81846080015161301f90919063ffffffff16565b505050565b600030600454604051602001808373ffffffffffffffffffffffffffffffffffffffff1673ffffffffffffffffffffffffffffffffffffffff1660601b815260140182815260200192505050604051602081830303815290604052805190602001209050600454836060018181525050836005600083815260200190815260200160002060006101000a81548173ffffffffffffffffffffffffffffffffffffffff021916908373ffffffffffffffffffffffffffffffffffffffff160217905550807fb5e6e01e79f91267dc17b4e6314d5d4d03593d2ceee0fbb452b750bd70ea5af960405160405180910390a2600260009054906101000a900473ffffffffffffffffffffffffffffffffffffffff1673ffffffffffffffffffffffffffffffffffffffff16634000aea0858461264987613044565b6040518463ffffffff1660e01b8152600401808473ffffffffffffffffffffffffffffffffffffffff1673ffffffffffffffffffffffffffffffffffffffff16815260200183815260200180602001828103825283818151815260200191508051906020019080838360005b838110156126d05780820151818401526020810190506126b5565b50505050905090810190601f1680156126fd5780820380516001836020036101000a031916815260200191505b50945050505050602060405180830381600087803b15801561271e57600080fd5b505af1158015612732573d6000803e3d6000fd5b505050506040513d602081101561274857600080fd5b81019080805190602001909291905050506127ae576040517f08c379a00000000000000000000000000000000000000000000000000000000081526004018080602001828103825260238152602001806144696023913960400191505060405180910390fd5b60016004600082825401925050819055508090509392505050565b60006127df82600861321090919063ffffffff16565b9050919050565b600033905090565b81600a600083815260200190815260200160002060006101000a81548173ffffffffffffffffffffffffffffffffffffffff021916908373ffffffffffffffffffffffffffffffffffffffff160217905550808273ffffffffffffffffffffffffffffffffffffffff16612861836117fe565b73ffffffffffffffffffffffffffffffffffffffff167f8c5be1e5ebec7d5bd14f71427d1e84f3dd0314c0f7b2291e5b200ac8c7c3b92560405160405180910390a45050565b60006128b58260000161322a565b9050919050565b60006128c7826127c9565b61291c576040517f08c379a000000000000000000000000000000000000000000000000000000000815260040180806020018281038252602c8152602001806144d6602c913960400191505060405180910390fd5b6000612927836117fe565b90508073ffffffffffffffffffffffffffffffffffffffff168473ffffffffffffffffffffffffffffffffffffffff16148061299657508373ffffffffffffffffffffffffffffffffffffffff1661297e8461110b565b73ffffffffffffffffffffffffffffffffffffffff16145b806129a757506129a681856122e3565b5b91505092915050565b8273ffffffffffffffffffffffffffffffffffffffff166129d0826117fe565b73ffffffffffffffffffffffffffffffffffffffff1614612a3c576040517f08c379a000000000000000000000000000000000000000000000000000000000815260040180806020018281038252602981526020018061462a6029913960400191505060405180910390fd5b600073ffffffffffffffffffffffffffffffffffffffff168273ffffffffffffffffffffffffffffffffffffffff161415612ac2576040517f08c379a000000000000000000000000000000000000000000000000000000000815260040180806020018281038252602481526020018061448c6024913960400191505060405180910390fd5b612acd83838361323b565b612ad86000826127ee565b612b2981600760008673ffffffffffffffffffffffffffffffffffffffff1673ffffffffffffffffffffffffffffffffffffffff16815260200190815260200160002061324090919063ffffffff16565b50612b7b81600760008573ffffffffffffffffffffffffffffffffffffffff1673ffffffffffffffffffffffffffffffffffffffff16815260200190815260200160002061325a90919063ffffffff16565b50612b92818360086132749092919063ffffffff16565b50808273ffffffffffffffffffffffffffffffffffffffff168473ffffffffffffffffffffffffffffffffffffffff167fddf252ad1be2c89b69c2b068fc378daa952ba7f163c4a11628f55a4df523b3ef60405160405180910390a4505050565b612c0d8282604051806020016040528060008152506132a9565b5050565b6060612c1e601154611ba6565b90506060612c2d601254611ba6565b9050612cd460138054600181600116156101000203166002900480601f016020809104026020016040519081016040528092919081815260200182805460018160011615610100020316600290048015612cc85780601f10612c9d57610100808354040283529160200191612cc8565b820191906000526020600020905b815481529060010190602001808311612cab57829003601f168201915b505050505083836116bf565b60139080519060200190612ce992919061432c565b505050565b612cfa6017548261331a565b60176000815480929190600101919050555050565b6000612d1e83600001836133a4565b60001c905092915050565b600080600080612d3c8660000186613427565b915091508160001c8160001c8090509350935050509250929050565b6000612d6b846000018460001b846134c0565b60001c90509392505050565b6000612d85826000016135b6565b9050919050565b6000600260009054906101000a900473ffffffffffffffffffffffffffffffffffffffff16905090565b612dc18484846129b0565b612dcd848484846135c7565b612e22576040517f08c379a00000000000000000000000000000000000000000000000000000000081526004018080602001828103825260328152602001806144376032913960400191505060405180910390fd5b50505050565b60606000821415612e70576040518060400160405280600181526020017f30000000000000000000000000000000000000000000000000000000000000008152509050612f6a565b600082905060005b60008214612e9a578080600101915050600a8281612e9257fe5b049150612e78565b60608167ffffffffffffffff81118015612eb357600080fd5b506040519080825280601f01601f191660200182016040528015612ee65781602001600182028036833780820191505090505b50905060006001830390508593505b60008414612f6257600a8481612f0757fe5b0660300160f81b82828060019003935081518110612f2157fe5b60200101907effffffffffffffffffffffffffffffffffffffffffffffffffffffffffffff1916908160001a905350600a8481612f5a57fe5b049350612ef5565b819450505050505b919050565b612f776142bf565b612f87856080015161010061380c565b508385600001818152505082856020019073ffffffffffffffffffffffffffffffffffffffff16908173ffffffffffffffffffffffffffffffffffffffff16815250508185604001907bffffffffffffffffffffffffffffffffffffffffffffffffffffffff191690817bffffffffffffffffffffffffffffffffffffffffffffffffffffffff191681525050849050949350505050565b61302c8260038351613860565b61303f81836139a590919063ffffffff16565b505050565b6060634042994660e01b60008084600001518560200151866040015187606001516001896080015160000151604051602401808973ffffffffffffffffffffffffffffffffffffffff1673ffffffffffffffffffffffffffffffffffffffff1681526020018881526020018781526020018673ffffffffffffffffffffffffffffffffffffffff1673ffffffffffffffffffffffffffffffffffffffff168152602001857bffffffffffffffffffffffffffffffffffffffffffffffffffffffff19167bffffffffffffffffffffffffffffffffffffffffffffffffffffffff1916815260200184815260200183815260200180602001828103825283818151815260200191508051906020019080838360005b83811015613173578082015181840152602081019050613158565b50505050905090810190601f1680156131a05780820380516001836020036101000a031916815260200191505b509950505050505050505050604051602081830303815290604052907bffffffffffffffffffffffffffffffffffffffffffffffffffffffff19166020820180517bffffffffffffffffffffffffffffffffffffffffffffffffffffffff83818316178352505050509050919050565b6000613222836000018360001b6139c7565b905092915050565b600081600001805490509050919050565b505050565b6000613252836000018360001b6139ea565b905092915050565b600061326c836000018360001b613ad2565b905092915050565b60006132a0846000018460001b8473ffffffffffffffffffffffffffffffffffffffff1660001b613b42565b90509392505050565b6132b38383613c1e565b6132c060008484846135c7565b613315576040517f08c379a00000000000000000000000000000000000000000000000000000000081526004018080602001828103825260328152602001806144376032913960400191505060405180910390fd5b505050565b613323826127c9565b613378576040517f08c379a000000000000000000000000000000000000000000000000000000000815260040180806020018281038252602c8152602001806145fe602c913960400191505060405180910390fd5b80600e6000848152602001908152602001600020908051906020019061339f92919061432c565b505050565b600081836000018054905011613405576040517f08c379a00000000000000000000000000000000000000000000000000000000081526004018080602001828103825260228152602001806143ec6022913960400191505060405180910390fd5b82600001828154811061341457fe5b9060005260206000200154905092915050565b60008082846000018054905011613489576040517f08c379a000000000000000000000000000000000000000000000000000000000815260040180806020018281038252602281526020018061458d6022913960400191505060405180910390fd5b600084600001848154811061349a57fe5b906000526020600020906002020190508060000154816001015492509250509250929050565b60008084600101600085815260200190815260200160002054905060008114158390613587576040517f08c379a00000000000000000000000000000000000000000000000000000000081526004018080602001828103825283818151815260200191508051906020019080838360005b8381101561354c578082015181840152602081019050613531565b50505050905090810190601f1680156135795780820380516001836020036101000a031916815260200191505b509250505060405180910390fd5b5084600001600182038154811061359a57fe5b9060005260206000209060020201600101549150509392505050565b600081600001805490509050919050565b60006135e88473ffffffffffffffffffffffffffffffffffffffff16613e12565b6135f55760019050613804565b606061378b63150b7a0260e01b61360a6127e6565b888787604051602401808573ffffffffffffffffffffffffffffffffffffffff1673ffffffffffffffffffffffffffffffffffffffff1681526020018473ffffffffffffffffffffffffffffffffffffffff1673ffffffffffffffffffffffffffffffffffffffff16815260200183815260200180602001828103825283818151815260200191508051906020019080838360005b838110156136ba57808201518184015260208101905061369f565b50505050905090810190601f1680156136e75780820380516001836020036101000a031916815260200191505b5095505050505050604051602081830303815290604052907bffffffffffffffffffffffffffffffffffffffffffffffffffffffff19166020820180517bffffffffffffffffffffffffffffffffffffffffffffffffffffffff8381831617835250505050604051806060016040528060328152602001614437603291398773ffffffffffffffffffffffffffffffffffffffff16613e259092919063ffffffff16565b905060008180602001905160208110156137a457600080fd5b8101908080519060200190929190505050905063150b7a0260e01b7bffffffffffffffffffffffffffffffffffffffffffffffffffffffff1916817bffffffffffffffffffffffffffffffffffffffffffffffffffffffff191614925050505b949350505050565b6138146143ac565b60006020838161382057fe5b0614613839576020828161383057fe5b06602003820191505b81836020018181525050604051808452600081528281016020016040525082905092915050565b6017811161388d576138878160058460ff16901b60ff161784613e3d90919063ffffffff16565b506139a0565b60ff81116138cf576138b2601860058460ff16901b1784613e3d90919063ffffffff16565b506138c981600185613e5d9092919063ffffffff16565b5061399f565b61ffff8111613912576138f5601960058460ff16901b1784613e3d90919063ffffffff16565b5061390c81600285613e5d9092919063ffffffff16565b5061399e565b63ffffffff81116139575761393a601a60058460ff16901b1784613e3d90919063ffffffff16565b5061395181600485613e5d9092919063ffffffff16565b5061399d565b67ffffffffffffffff811161399c57613983601b60058460ff16901b1784613e3d90919063ffffffff16565b5061399a81600885613e5d9092919063ffffffff16565b505b5b5b5b5b505050565b6139ad6143ac565b6139bf83846000015151848551613e7f565b905092915050565b600080836001016000848152602001908152602001600020541415905092915050565b60008083600101600084815260200190815260200160002054905060008114613ac65760006001820390506000600186600001805490500390506000866000018281548110613a3557fe5b9060005260206000200154905080876000018481548110613a5257fe5b9060005260206000200181905550600183018760010160008381526020019081526020016000208190555086600001805480613a8a57fe5b60019003818190600052602060002001600090559055866001016000878152602001908152602001600020600090556001945050505050613acc565b60009150505b92915050565b6000613ade8383613f38565b613b37578260000182908060018154018082558091505060019003906000526020600020016000909190919091505582600001805490508360010160008481526020019081526020016000208190555060019050613b3c565b600090505b92915050565b6000808460010160008581526020019081526020016000205490506000811415613be957846000016040518060400160405280868152602001858152509080600181540180825580915050600190039060005260206000209060020201600090919091909150600082015181600001556020820151816001015550508460000180549050856001016000868152602001908152602001600020819055506001915050613c17565b82856000016001830381548110613bfc57fe5b90600052602060002090600202016001018190555060009150505b9392505050565b600073ffffffffffffffffffffffffffffffffffffffff168273ffffffffffffffffffffffffffffffffffffffff161415613cc1576040517f08c379a00000000000000000000000000000000000000000000000000000000081526004018080602001828103825260208152602001807f4552433732313a206d696e7420746f20746865207a65726f206164647265737381525060200191505060405180910390fd5b613cca816127c9565b15613d3d576040517f08c379a000000000000000000000000000000000000000000000000000000000815260040180806020018281038252601c8152602001807f4552433732313a20746f6b656e20616c7265616479206d696e7465640000000081525060200191505060405180910390fd5b613d496000838361323b565b613d9a81600760008573ffffffffffffffffffffffffffffffffffffffff1673ffffffffffffffffffffffffffffffffffffffff16815260200190815260200160002061325a90919063ffffffff16565b50613db1818360086132749092919063ffffffff16565b50808273ffffffffffffffffffffffffffffffffffffffff16600073ffffffffffffffffffffffffffffffffffffffff167fddf252ad1be2c89b69c2b068fc378daa952ba7f163c4a11628f55a4df523b3ef60405160405180910390a45050565b600080823b905060008111915050919050565b6060613e348484600085613f5b565b90509392505050565b613e456143ac565b613e558384600001515184614104565b905092915050565b613e656143ac565b613e76848560000151518585614152565b90509392505050565b613e876143ac565b8251821115613e9557600080fd5b84602001518285011115613ec057613ebf856002613eb988602001518887016141b3565b026141cf565b5b600080865180518760208301019350808887011115613edf5787860182525b60208701925050505b60208410613f0b5780518252602082019150602081019050602084039350613ee8565b60006001856020036101000a03905080198251168184511681811785525050879350505050949350505050565b600080836001016000848152602001908152602001600020541415905092915050565b606082471015613fb6576040517f08c379a00000000000000000000000000000000000000000000000000000000081526004018080602001828103825260268152602001806144b06026913960400191505060405180910390fd5b613fbf85613e12565b614031576040517f08c379a000000000000000000000000000000000000000000000000000000000815260040180806020018281038252601d8152602001807f416464726573733a2063616c6c20746f206e6f6e2d636f6e747261637400000081525060200191505060405180910390fd5b600060608673ffffffffffffffffffffffffffffffffffffffff1685876040518082805190602001908083835b60208310614081578051825260208201915060208101905060208303925061405e565b6001836020036101000a03801982511681845116808217855250505050505090500191505060006040518083038185875af1925050503d80600081146140e3576040519150601f19603f3d011682016040523d82523d6000602084013e6140e8565b606091505b50915091506140f88282866141f3565b92505050949350505050565b61410c6143ac565b83602001518310614129576141288460028660200151026141cf565b5b8351805160208583010184815381861415614145576001820183525b5050508390509392505050565b61415a6143ac565b8460200151848301111561417857614177856002868501026141cf565b5b60006001836101000a03905085518386820101858319825116178152815185880111156141a55784870182525b505085915050949350505050565b6000818311156141c5578290506141c9565b8190505b92915050565b6060826000015190506141e2838361380c565b506141ed83826139a5565b50505050565b60608315614203578290506142b8565b6000835111156142165782518084602001fd5b816040517f08c379a00000000000000000000000000000000000000000000000000000000081526004018080602001828103825283818151815260200191508051906020019080838360005b8381101561427d578082015181840152602081019050614262565b50505050905090810190601f1680156142aa5780820380516001836020036101000a031916815260200191505b509250505060405180910390fd5b9392505050565b6040518060a0016040528060008019168152602001600073ffffffffffffffffffffffffffffffffffffffff16815260200160007bffffffffffffffffffffffffffffffffffffffffffffffffffffffff19168152602001600081526020016143266143ac565b81525090565b828054600181600116156101000203166002900490600052602060002090601f016020900481019282601f1061436d57805160ff191683800117855561439b565b8280016001018555821561439b579182015b8281111561439a57825182559160200191906001019061437f565b5b5090506143a891906143c6565b5090565b604051806040016040528060608152602001600081525090565b6143e891905b808211156143e45760008160009055506001016143cc565b5090565b9056fe456e756d657261626c655365743a20696e646578206f7574206f6620626f756e647368747470733a2f2f696d616765732d626c656e642e6865726f6b756170702e636f6d2f7365636f6e644552433732313a207472616e7366657220746f206e6f6e20455243373231526563656976657220696d706c656d656e746572756e61626c6520746f207472616e73666572416e6443616c6c20746f206f7261636c654552433732313a207472616e7366657220746f20746865207a65726f2061646472657373416464726573733a20696e73756666696369656e742062616c616e636520666f722063616c6c4552433732313a206f70657261746f7220717565727920666f72206e6f6e6578697374656e7420746f6b656e4552433732313a20617070726f76652063616c6c6572206973206e6f74206f776e6572206e6f7220617070726f76656420666f7220616c6c4552433732313a2062616c616e636520717565727920666f7220746865207a65726f20616464726573734552433732313a206f776e657220717565727920666f72206e6f6e6578697374656e7420746f6b656e456e756d657261626c654d61703a20696e646578206f7574206f6620626f756e647368747470733a2f2f696d616765732d626c656e642e6865726f6b756170702e636f6d2f4552433732313a20617070726f76656420717565727920666f72206e6f6e6578697374656e7420746f6b656e4552433732314d657461646174613a2055524920736574206f66206e6f6e6578697374656e7420746f6b656e4552433732313a207472616e73666572206f6620746f6b656e2074686174206973206e6f74206f776e4552433732314d657461646174613a2055524920717565727920666f72206e6f6e6578697374656e7420746f6b656e4552433732313a20617070726f76616c20746f2063757272656e74206f776e65724552433732313a207472616e736665722063616c6c6572206973206e6f74206f776e6572206e6f7220617070726f766564536f75726365206d75737420626520746865206f7261636c65206f66207468652072657175657374a2646970667358221220f26669ae00cb29bea6047d3d21f4d4c0cb3f6bdaf19204e030da30b3b97a600b64736f6c63430006060033",
  "immutableReferences": {},
  "source": "// SPDX-License-Identifier: MIT\npragma solidity ^0.6.6;\n\nimport \"@chainlink/contracts/src/v0.6/ChainlinkClient.sol\";\nimport \"@openzeppelin/contracts/token/ERC721/ERC721.sol\";\n\ncontract TurtleCharacter is ChainlinkClient, ERC721 {\n    address public contractOwner;\n\n\n    bytes32 private ipfsHashOneBytes32;\n    bytes32 private ipfsHashTwoBytes32;\n    string public ipfsLink = \"https://ipfs.io/ipfs/\";\n\n    address private oracle;\n    bytes32 private jobId;\n    uint256 private fee;\n    uint256 private uniqueTokenId = 0;\n\n    /**\n     * Network: Rinkeby\n     * Oracle - 0x3A56aE4a2831C3d3514b5D7Af5578E45eBDb7a40\n     * Job ID - 187bb80e5ee74a139734cac7475f3c6e\n     * Fee: 0.01 LINK\n     */\n    constructor() public ERC721(\"TurtleCharacter\", \"TRTL\") {\n        setPublicChainlinkToken();\n        contractOwner = msg.sender;\n        oracle = 0x3A56aE4a2831C3d3514b5D7Af5578E45eBDb7a40;\n        jobId = \"187bb80e5ee74a139734cac7475f3c6e\";\n        fee = 0.01 * 10**18; // 0.01 LINK\n    }\n\n    modifier onlyOwner() {\n        require(msg.sender == contractOwner);\n        _;\n    }\n\n    function requestRandomCharacter() public {\n        ipfsLink = \"https://ipfs.io/ipfs/\";\n        _safeMint(msg.sender, uniqueTokenId);\n        requestIPFSHash();\n    }\n\n    function requestIPFSHash() public returns (bytes32 requestId) {\n        Chainlink.Request memory request = buildChainlinkRequest(\n            jobId,\n            address(this),\n            this.fulfill.selector\n        );\n        request.add(\"get\", \"https://images-blend.herokuapp.com/\");\n        request.add(\"path\", \"IPFS_PATH\");\n\n        return sendChainlinkRequestTo(oracle, request, fee);\n    }\n\n    function fulfill(bytes32 _requestId, bytes32 dataFromAPI) public recordChainlinkFulfillment(_requestId) returns (bytes32 requestId) {\n        ipfsHashOneBytes32 = dataFromAPI;\n\n        Chainlink.Request memory request = buildChainlinkRequest(\n            jobId,\n            address(this),\n            this.fulfillSecondRequest.selector\n        );\n        request.add(\"get\", \"https://images-blend.herokuapp.com/second\");\n        request.add(\"path\", \"IPFS_PATH\");\n\n        return sendChainlinkRequestTo(oracle, request, fee);\n    }\n\n    function fulfillSecondRequest(bytes32 _requestId, bytes32 dataFromAPI) public recordChainlinkFulfillment(_requestId) {\n        ipfsHashTwoBytes32 = dataFromAPI;\n        generateIPFSLink();\n        setTokenURI(ipfsLink);\n    }\n\n    function bytes32ToString(bytes32 _bytes32) public pure returns (string memory) {\n        uint8 i = 0;\n        while (i < 32 && _bytes32[i] != 0) {\n            i++;\n        }\n        bytes memory bytesArray = new bytes(i);\n        for (i = 0; i < 32 && _bytes32[i] != 0; i++) {\n            bytesArray[i] = _bytes32[i];\n        }\n        return string(bytesArray);\n    }\n\n    function generateIPFSLink() private {\n        string memory ipfsHashPartOne = bytes32ToString(ipfsHashOneBytes32);\n        string memory ipfsHashPartTwo = bytes32ToString(ipfsHashTwoBytes32);\n        ipfsLink = append(ipfsLink, ipfsHashPartOne, ipfsHashPartTwo);\n    }\n\n    function append(\n        string memory a,\n        string memory b,\n        string memory c\n    ) public pure returns (string memory) {\n        return string(abi.encodePacked(a, b, c));\n    }\n\n    function withdrawLink() external {\n        LinkTokenInterface linkToken = LinkTokenInterface(\n            chainlinkTokenAddress()\n        );\n        require(\n            linkToken.transfer(msg.sender, linkToken.balanceOf(address(this))),\n            \"Unable to transfer LINK\"\n        );\n    }\n\n    function setTokenURI(string memory _tokenURI) private {\n        _setTokenURI(uniqueTokenId, _tokenURI);\n        uniqueTokenId++;\n    }\n}\n",
  "sourcePath": "D:/EthOdyssey/NFT-Game/contracts/TurtleCharacter.sol",
  "compiler": {
    "name": "solc",
    "version": "0.6.6+commit.6c089d02.Emscripten.clang"
  },
  "schemaVersion": "3.4.1",
  "updatedAt": "2021-07-27T12:09:43.632Z",
  "devdoc": {
    "methods": {
      "approve(address,uint256)": {
        "details": "See {IERC721-approve}."
      },
      "balanceOf(address)": {
        "details": "See {IERC721-balanceOf}."
      },
      "baseURI()": {
        "details": "Returns the base URI set via {_setBaseURI}. This will be automatically added as a prefix in {tokenURI} to each token's URI, or to the token ID if no specific URI is set for that token ID."
      },
      "getApproved(uint256)": {
        "details": "See {IERC721-getApproved}."
      },
      "isApprovedForAll(address,address)": {
        "details": "See {IERC721-isApprovedForAll}."
      },
      "name()": {
        "details": "See {IERC721Metadata-name}."
      },
      "ownerOf(uint256)": {
        "details": "See {IERC721-ownerOf}."
      },
      "safeTransferFrom(address,address,uint256)": {
        "details": "See {IERC721-safeTransferFrom}."
      },
      "safeTransferFrom(address,address,uint256,bytes)": {
        "details": "See {IERC721-safeTransferFrom}."
      },
      "setApprovalForAll(address,bool)": {
        "details": "See {IERC721-setApprovalForAll}."
      },
      "supportsInterface(bytes4)": {
        "details": "See {IERC165-supportsInterface}.     * Time complexity O(1), guaranteed to always use less than 30 000 gas."
      },
      "symbol()": {
        "details": "See {IERC721Metadata-symbol}."
      },
      "tokenByIndex(uint256)": {
        "details": "See {IERC721Enumerable-tokenByIndex}."
      },
      "tokenOfOwnerByIndex(address,uint256)": {
        "details": "See {IERC721Enumerable-tokenOfOwnerByIndex}."
      },
      "tokenURI(uint256)": {
        "details": "See {IERC721Metadata-tokenURI}."
      },
      "totalSupply()": {
        "details": "See {IERC721Enumerable-totalSupply}."
      },
      "transferFrom(address,address,uint256)": {
        "details": "See {IERC721-transferFrom}."
      }
    }
  },
  "userdoc": {
    "methods": {
      "constructor": "Network: Rinkeby Oracle - 0x3A56aE4a2831C3d3514b5D7Af5578E45eBDb7a40 Job ID - 187bb80e5ee74a139734cac7475f3c6e Fee: 0.01 LINK"
    }
  }
}