{
  "contractName": "TurtleCharacter",
  "abi": [
    {
      "inputs": [],
      "stateMutability": "nonpayable",
      "type": "constructor"
    },
    {
      "anonymous": false,
      "inputs": [
        {
          "indexed": true,
          "internalType": "address",
          "name": "owner",
          "type": "address"
        },
        {
          "indexed": true,
          "internalType": "address",
          "name": "approved",
          "type": "address"
        },
        {
          "indexed": true,
          "internalType": "uint256",
          "name": "tokenId",
          "type": "uint256"
        }
      ],
      "name": "Approval",
      "type": "event"
    },
    {
      "anonymous": false,
      "inputs": [
        {
          "indexed": true,
          "internalType": "address",
          "name": "owner",
          "type": "address"
        },
        {
          "indexed": true,
          "internalType": "address",
          "name": "operator",
          "type": "address"
        },
        {
          "indexed": false,
          "internalType": "bool",
          "name": "approved",
          "type": "bool"
        }
      ],
      "name": "ApprovalForAll",
      "type": "event"
    },
    {
      "anonymous": false,
      "inputs": [
        {
          "indexed": true,
          "internalType": "bytes32",
          "name": "id",
          "type": "bytes32"
        }
      ],
      "name": "ChainlinkCancelled",
      "type": "event"
    },
    {
      "anonymous": false,
      "inputs": [
        {
          "indexed": true,
          "internalType": "bytes32",
          "name": "id",
          "type": "bytes32"
        }
      ],
      "name": "ChainlinkFulfilled",
      "type": "event"
    },
    {
      "anonymous": false,
      "inputs": [
        {
          "indexed": true,
          "internalType": "bytes32",
          "name": "id",
          "type": "bytes32"
        }
      ],
      "name": "ChainlinkRequested",
      "type": "event"
    },
    {
      "anonymous": false,
      "inputs": [
        {
          "indexed": true,
          "internalType": "address",
          "name": "from",
          "type": "address"
        },
        {
          "indexed": true,
          "internalType": "address",
          "name": "to",
          "type": "address"
        },
        {
          "indexed": true,
          "internalType": "uint256",
          "name": "tokenId",
          "type": "uint256"
        }
      ],
      "name": "Transfer",
      "type": "event"
    },
    {
      "inputs": [
        {
          "internalType": "address",
          "name": "to",
          "type": "address"
        },
        {
          "internalType": "uint256",
          "name": "tokenId",
          "type": "uint256"
        }
      ],
      "name": "approve",
      "outputs": [],
      "stateMutability": "nonpayable",
      "type": "function"
    },
    {
      "inputs": [
        {
          "internalType": "address",
          "name": "owner",
          "type": "address"
        }
      ],
      "name": "balanceOf",
      "outputs": [
        {
          "internalType": "uint256",
          "name": "",
          "type": "uint256"
        }
      ],
      "stateMutability": "view",
      "type": "function"
    },
    {
      "inputs": [],
      "name": "baseURI",
      "outputs": [
        {
          "internalType": "string",
          "name": "",
          "type": "string"
        }
      ],
      "stateMutability": "view",
      "type": "function"
    },
    {
      "inputs": [
        {
          "internalType": "uint256",
          "name": "tokenId",
          "type": "uint256"
        }
      ],
      "name": "getApproved",
      "outputs": [
        {
          "internalType": "address",
          "name": "",
          "type": "address"
        }
      ],
      "stateMutability": "view",
      "type": "function"
    },
    {
      "inputs": [],
      "name": "ipfsLink",
      "outputs": [
        {
          "internalType": "string",
          "name": "",
          "type": "string"
        }
      ],
      "stateMutability": "view",
      "type": "function"
    },
    {
      "inputs": [
        {
          "internalType": "address",
          "name": "owner",
          "type": "address"
        },
        {
          "internalType": "address",
          "name": "operator",
          "type": "address"
        }
      ],
      "name": "isApprovedForAll",
      "outputs": [
        {
          "internalType": "bool",
          "name": "",
          "type": "bool"
        }
      ],
      "stateMutability": "view",
      "type": "function"
    },
    {
      "inputs": [],
      "name": "name",
      "outputs": [
        {
          "internalType": "string",
          "name": "",
          "type": "string"
        }
      ],
      "stateMutability": "view",
      "type": "function"
    },
    {
      "inputs": [
        {
          "internalType": "uint256",
          "name": "tokenId",
          "type": "uint256"
        }
      ],
      "name": "ownerOf",
      "outputs": [
        {
          "internalType": "address",
          "name": "",
          "type": "address"
        }
      ],
      "stateMutability": "view",
      "type": "function"
    },
    {
      "inputs": [
        {
          "internalType": "address",
          "name": "from",
          "type": "address"
        },
        {
          "internalType": "address",
          "name": "to",
          "type": "address"
        },
        {
          "internalType": "uint256",
          "name": "tokenId",
          "type": "uint256"
        }
      ],
      "name": "safeTransferFrom",
      "outputs": [],
      "stateMutability": "nonpayable",
      "type": "function"
    },
    {
      "inputs": [
        {
          "internalType": "address",
          "name": "from",
          "type": "address"
        },
        {
          "internalType": "address",
          "name": "to",
          "type": "address"
        },
        {
          "internalType": "uint256",
          "name": "tokenId",
          "type": "uint256"
        },
        {
          "internalType": "bytes",
          "name": "_data",
          "type": "bytes"
        }
      ],
      "name": "safeTransferFrom",
      "outputs": [],
      "stateMutability": "nonpayable",
      "type": "function"
    },
    {
      "inputs": [
        {
          "internalType": "address",
          "name": "operator",
          "type": "address"
        },
        {
          "internalType": "bool",
          "name": "approved",
          "type": "bool"
        }
      ],
      "name": "setApprovalForAll",
      "outputs": [],
      "stateMutability": "nonpayable",
      "type": "function"
    },
    {
      "inputs": [
        {
          "internalType": "bytes4",
          "name": "interfaceId",
          "type": "bytes4"
        }
      ],
      "name": "supportsInterface",
      "outputs": [
        {
          "internalType": "bool",
          "name": "",
          "type": "bool"
        }
      ],
      "stateMutability": "view",
      "type": "function"
    },
    {
      "inputs": [],
      "name": "symbol",
      "outputs": [
        {
          "internalType": "string",
          "name": "",
          "type": "string"
        }
      ],
      "stateMutability": "view",
      "type": "function"
    },
    {
      "inputs": [
        {
          "internalType": "uint256",
          "name": "index",
          "type": "uint256"
        }
      ],
      "name": "tokenByIndex",
      "outputs": [
        {
          "internalType": "uint256",
          "name": "",
          "type": "uint256"
        }
      ],
      "stateMutability": "view",
      "type": "function"
    },
    {
      "inputs": [
        {
          "internalType": "address",
          "name": "owner",
          "type": "address"
        },
        {
          "internalType": "uint256",
          "name": "index",
          "type": "uint256"
        }
      ],
      "name": "tokenOfOwnerByIndex",
      "outputs": [
        {
          "internalType": "uint256",
          "name": "",
          "type": "uint256"
        }
      ],
      "stateMutability": "view",
      "type": "function"
    },
    {
      "inputs": [
        {
          "internalType": "uint256",
          "name": "tokenId",
          "type": "uint256"
        }
      ],
      "name": "tokenURI",
      "outputs": [
        {
          "internalType": "string",
          "name": "",
          "type": "string"
        }
      ],
      "stateMutability": "view",
      "type": "function"
    },
    {
      "inputs": [],
      "name": "totalSupply",
      "outputs": [
        {
          "internalType": "uint256",
          "name": "",
          "type": "uint256"
        }
      ],
      "stateMutability": "view",
      "type": "function"
    },
    {
      "inputs": [
        {
          "internalType": "address",
          "name": "from",
          "type": "address"
        },
        {
          "internalType": "address",
          "name": "to",
          "type": "address"
        },
        {
          "internalType": "uint256",
          "name": "tokenId",
          "type": "uint256"
        }
      ],
      "name": "transferFrom",
      "outputs": [],
      "stateMutability": "nonpayable",
      "type": "function"
    },
    {
      "inputs": [],
      "name": "requestRandomCharacter",
      "outputs": [],
      "stateMutability": "nonpayable",
      "type": "function"
    },
    {
      "inputs": [],
      "name": "requestIPFSHash",
      "outputs": [
        {
          "internalType": "bytes32",
          "name": "requestId",
          "type": "bytes32"
        }
      ],
      "stateMutability": "nonpayable",
      "type": "function"
    },
    {
      "inputs": [
        {
          "internalType": "bytes32",
          "name": "_requestId",
          "type": "bytes32"
        },
        {
          "internalType": "bytes32",
          "name": "dataFromAPI",
          "type": "bytes32"
        }
      ],
      "name": "fulfill",
      "outputs": [
        {
          "internalType": "bytes32",
          "name": "requestId",
          "type": "bytes32"
        }
      ],
      "stateMutability": "nonpayable",
      "type": "function"
    },
    {
      "inputs": [
        {
          "internalType": "bytes32",
          "name": "_requestId",
          "type": "bytes32"
        },
        {
          "internalType": "bytes32",
          "name": "dataFromAPI",
          "type": "bytes32"
        }
      ],
      "name": "fulfillSecondRequest",
      "outputs": [],
      "stateMutability": "nonpayable",
      "type": "function"
    },
    {
      "inputs": [
        {
          "internalType": "bytes32",
          "name": "_bytes32",
          "type": "bytes32"
        }
      ],
      "name": "bytes32ToString",
      "outputs": [
        {
          "internalType": "string",
          "name": "",
          "type": "string"
        }
      ],
      "stateMutability": "pure",
      "type": "function"
    },
    {
      "inputs": [
        {
          "internalType": "string",
          "name": "a",
          "type": "string"
        },
        {
          "internalType": "string",
          "name": "b",
          "type": "string"
        },
        {
          "internalType": "string",
          "name": "c",
          "type": "string"
        }
      ],
      "name": "append",
      "outputs": [
        {
          "internalType": "string",
          "name": "",
          "type": "string"
        }
      ],
      "stateMutability": "pure",
      "type": "function"
    },
    {
      "inputs": [],
      "name": "withdrawLink",
      "outputs": [],
      "stateMutability": "nonpayable",
      "type": "function"
    }
  ],
  "bytecode": "0x608060405260016004556040518060400160405280601581526020017f68747470733a2f2f697066732e696f2f697066732f0000000000000000000000815250601290805190602001906200005692919062000402565b5060006016553480156200006957600080fd5b506040518060400160405280600f81526020017f547572746c6543686172616374657200000000000000000000000000000000008152506040518060400160405280600481526020017f5452544c00000000000000000000000000000000000000000000000000000000815250620000ee6301ffc9a760e01b6200020a60201b60201c565b81600c90805190602001906200010692919062000402565b5080600d90805190602001906200011f92919062000402565b50620001386380ac58cd60e01b6200020a60201b60201c565b62000150635b5e139f60e01b6200020a60201b60201c565b6200016863780e9d6360e01b6200020a60201b60201c565b50506200017a6200031460201b60201c565b733a56ae4a2831c3d3514b5d7af5578e45ebdb7a40601360006101000a81548173ffffffffffffffffffffffffffffffffffffffff021916908373ffffffffffffffffffffffffffffffffffffffff1602179055507f3138376262383065356565373461313339373334636163373437356633633665601481905550662386f26fc10000601581905550620004b1565b63ffffffff60e01b817bffffffffffffffffffffffffffffffffffffffffffffffffffffffff19161415620002a7576040517f08c379a000000000000000000000000000000000000000000000000000000000815260040180806020018281038252601c8152602001807f4552433136353a20696e76616c696420696e746572666163652069640000000081525060200191505060405180910390fd5b600160066000837bffffffffffffffffffffffffffffffffffffffffffffffffffffffff19167bffffffffffffffffffffffffffffffffffffffffffffffffffffffff1916815260200190815260200160002060006101000a81548160ff02191690831515021790555050565b620003bc73c89bd4e1632d3a43cb03aaad5262cbe4038bc57173ffffffffffffffffffffffffffffffffffffffff166338cc48316040518163ffffffff1660e01b815260040160206040518083038186803b1580156200037357600080fd5b505afa15801562000388573d6000803e3d6000fd5b505050506040513d60208110156200039f57600080fd5b8101908080519060200190929190505050620003be60201b60201c565b565b80600260006101000a81548173ffffffffffffffffffffffffffffffffffffffff021916908373ffffffffffffffffffffffffffffffffffffffff16021790555050565b828054600181600116156101000203166002900490600052602060002090601f016020900481019282601f106200044557805160ff191683800117855562000476565b8280016001018555821562000476579182015b828111156200047557825182559160200191906001019062000458565b5b50905062000485919062000489565b5090565b620004ae91905b80821115620004aa57600081600090555060010162000490565b5090565b90565b6146a680620004c16000396000f3fe608060405234801561001057600080fd5b50600436106101735760003560e01c806347395ced116100de5780639201de5511610097578063b88d4fde11610071578063b88d4fde14610afa578063c87b56dd14610bff578063e985e9c514610ca6578063f8b2474d14610d2257610173565b80639201de551461098057806395d89b4114610a27578063a22cb46514610aaa57610173565b806347395ced146105895780634f6ccce7146107eb5780636352211e1461082d5780636c0360eb1461089b57806370a082311461091e5780638dc654a21461097657610173565b806323b872dd1161013057806323b872dd14610386578063259049f4146103f45780632b22aaea146103fe5780632b9d8c9a146104365780632f745c59146104b957806342842e0e1461051b57610173565b806301ffc9a714610178578063042f2b65146101dd57806306fdde0314610229578063081812fc146102ac578063095ea7b31461031a57806318160ddd14610368575b600080fd5b6101c36004803603602081101561018e57600080fd5b8101908080357bffffffffffffffffffffffffffffffffffffffffffffffffffffffff19169060200190929190505050610d40565b604051808215151515815260200191505060405180910390f35b610213600480360360408110156101f357600080fd5b810190808035906020019092919080359060200190929190505050610da8565b6040518082815260200191505060405180910390f35b610231611004565b6040518080602001828103825283818151815260200191508051906020019080838360005b83811015610271578082015181840152602081019050610256565b50505050905090810190601f16801561029e5780820380516001836020036101000a031916815260200191505b509250505060405180910390f35b6102d8600480360360208110156102c257600080fd5b81019080803590602001909291905050506110a6565b604051808273ffffffffffffffffffffffffffffffffffffffff1673ffffffffffffffffffffffffffffffffffffffff16815260200191505060405180910390f35b6103666004803603604081101561033057600080fd5b81019080803573ffffffffffffffffffffffffffffffffffffffff16906020019092919080359060200190929190505050611141565b005b610370611285565b6040518082815260200191505060405180910390f35b6103f26004803603606081101561039c57600080fd5b81019080803573ffffffffffffffffffffffffffffffffffffffff169060200190929190803573ffffffffffffffffffffffffffffffffffffffff16906020019092919080359060200190929190505050611296565b005b6103fc61130c565b005b6104346004803603604081101561041457600080fd5b81019080803590602001909291908035906020019092919050505061136f565b005b61043e611541565b6040518080602001828103825283818151815260200191508051906020019080838360005b8381101561047e578082015181840152602081019050610463565b50505050905090810190601f1680156104ab5780820380516001836020036101000a031916815260200191505b509250505060405180910390f35b610505600480360360408110156104cf57600080fd5b81019080803573ffffffffffffffffffffffffffffffffffffffff169060200190929190803590602001909291905050506115df565b6040518082815260200191505060405180910390f35b6105876004803603606081101561053157600080fd5b81019080803573ffffffffffffffffffffffffffffffffffffffff169060200190929190803573ffffffffffffffffffffffffffffffffffffffff1690602001909291908035906020019092919050505061163a565b005b6107706004803603606081101561059f57600080fd5b81019080803590602001906401000000008111156105bc57600080fd5b8201836020820111156105ce57600080fd5b803590602001918460018302840111640100000000831117156105f057600080fd5b91908080601f016020809104026020016040519081016040528093929190818152602001838380828437600081840152601f19601f8201169050808301925050505050505091929192908035906020019064010000000081111561065357600080fd5b82018360208201111561066557600080fd5b8035906020019184600183028401116401000000008311171561068757600080fd5b91908080601f016020809104026020016040519081016040528093929190818152602001838380828437600081840152601f19601f820116905080830192505050505050509192919290803590602001906401000000008111156106ea57600080fd5b8201836020820111156106fc57600080fd5b8035906020019184600183028401116401000000008311171561071e57600080fd5b91908080601f016020809104026020016040519081016040528093929190818152602001838380828437600081840152601f19601f82011690508083019250505050505050919291929050505061165a565b6040518080602001828103825283818151815260200191508051906020019080838360005b838110156107b0578082015181840152602081019050610795565b50505050905090810190601f1680156107dd5780820380516001836020036101000a031916815260200191505b509250505060405180910390f35b6108176004803603602081101561080157600080fd5b8101908080359060200190929190505050611776565b6040518082815260200191505060405180910390f35b6108596004803603602081101561084357600080fd5b8101908080359060200190929190505050611799565b604051808273ffffffffffffffffffffffffffffffffffffffff1673ffffffffffffffffffffffffffffffffffffffff16815260200191505060405180910390f35b6108a36117d0565b6040518080602001828103825283818151815260200191508051906020019080838360005b838110156108e35780820151818401526020810190506108c8565b50505050905090810190601f1680156109105780820380516001836020036101000a031916815260200191505b509250505060405180910390f35b6109606004803603602081101561093457600080fd5b81019080803573ffffffffffffffffffffffffffffffffffffffff169060200190929190505050611872565b6040518082815260200191505060405180910390f35b61097e611947565b005b6109ac6004803603602081101561099657600080fd5b8101908080359060200190929190505050611b41565b6040518080602001828103825283818151815260200191508051906020019080838360005b838110156109ec5780820151818401526020810190506109d1565b50505050905090810190601f168015610a195780820380516001836020036101000a031916815260200191505b509250505060405180910390f35b610a2f611cb5565b6040518080602001828103825283818151815260200191508051906020019080838360005b83811015610a6f578082015181840152602081019050610a54565b50505050905090810190601f168015610a9c5780820380516001836020036101000a031916815260200191505b509250505060405180910390f35b610af860048036036040811015610ac057600080fd5b81019080803573ffffffffffffffffffffffffffffffffffffffff169060200190929190803515159060200190929190505050611d57565b005b610bfd60048036036080811015610b1057600080fd5b81019080803573ffffffffffffffffffffffffffffffffffffffff169060200190929190803573ffffffffffffffffffffffffffffffffffffffff1690602001909291908035906020019092919080359060200190640100000000811115610b7757600080fd5b820183602082011115610b8957600080fd5b80359060200191846001830284011164010000000083111715610bab57600080fd5b91908080601f016020809104026020016040519081016040528093929190818152602001838380828437600081840152601f19601f820116905080830192505050505050509192919290505050611f0f565b005b610c2b60048036036020811015610c1557600080fd5b8101908080359060200190929190505050611f87565b6040518080602001828103825283818151815260200191508051906020019080838360005b83811015610c6b578082015181840152602081019050610c50565b50505050905090810190601f168015610c985780820380516001836020036101000a031916815260200191505b509250505060405180910390f35b610d0860048036036040811015610cbc57600080fd5b81019080803573ffffffffffffffffffffffffffffffffffffffff169060200190929190803573ffffffffffffffffffffffffffffffffffffffff169060200190929190505050612258565b604051808215151515815260200191505060405180910390f35b610d2a6122ec565b6040518082815260200191505060405180910390f35b600060066000837bffffffffffffffffffffffffffffffffffffffffffffffffffffffff19167bffffffffffffffffffffffffffffffffffffffffffffffffffffffff1916815260200190815260200160002060009054906101000a900460ff169050919050565b6000826005600082815260200190815260200160002060009054906101000a900473ffffffffffffffffffffffffffffffffffffffff1673ffffffffffffffffffffffffffffffffffffffff163373ffffffffffffffffffffffffffffffffffffffff1614610e62576040517f08c379a00000000000000000000000000000000000000000000000000000000081526004018080602001828103825260288152602001806146496028913960400191505060405180910390fd5b6005600082815260200190815260200160002060006101000a81549073ffffffffffffffffffffffffffffffffffffffff0219169055807f7cc135e0cebb02c3480ae5d74d377283180a2601f8f644edf7987b009316c63a60405160405180910390a282601081905550610ed4614234565b610ee860145430632b22aaea60e01b612422565b9050610f4c6040518060400160405280600381526020017f676574000000000000000000000000000000000000000000000000000000000081525060405180606001604052806029815260200161438360299139836124539092919063ffffffff16565b610fcb6040518060400160405280600481526020017f70617468000000000000000000000000000000000000000000000000000000008152506040518060400160405280600981526020017f495046535f504154480000000000000000000000000000000000000000000000815250836124539092919063ffffffff16565b610ffa601360009054906101000a900473ffffffffffffffffffffffffffffffffffffffff1682601554612486565b9250505092915050565b6060600c8054600181600116156101000203166002900480601f01602080910402602001604051908101604052809291908181526020018280546001816001161561010002031660029004801561109c5780601f106110715761010080835404028352916020019161109c565b820191906000526020600020905b81548152906001019060200180831161107f57829003601f168201915b5050505050905090565b60006110b18261273e565b611106576040517f08c379a000000000000000000000000000000000000000000000000000000000815260040180806020018281038252602c815260200180614547602c913960400191505060405180910390fd5b600a600083815260200190815260200160002060009054906101000a900473ffffffffffffffffffffffffffffffffffffffff169050919050565b600061114c82611799565b90508073ffffffffffffffffffffffffffffffffffffffff168373ffffffffffffffffffffffffffffffffffffffff1614156111d3576040517f08c379a00000000000000000000000000000000000000000000000000000000081526004018080602001828103825260218152602001806145f76021913960400191505060405180910390fd5b8073ffffffffffffffffffffffffffffffffffffffff166111f261275b565b73ffffffffffffffffffffffffffffffffffffffff16148061122157506112208161121b61275b565b612258565b5b611276576040517f08c379a00000000000000000000000000000000000000000000000000000000081526004018080602001828103825260388152602001806144776038913960400191505060405180910390fd5b6112808383612763565b505050565b6000611291600861281c565b905090565b6112a76112a161275b565b82612831565b6112fc576040517f08c379a00000000000000000000000000000000000000000000000000000000081526004018080602001828103825260318152602001806146186031913960400191505060405180910390fd5b611307838383612925565b505050565b6040518060400160405280601581526020017f68747470733a2f2f697066732e696f2f697066732f0000000000000000000000815250601290805190602001906113579291906142a1565b5061136433601654612b68565b61136c6122ec565b50565b816005600082815260200190815260200160002060009054906101000a900473ffffffffffffffffffffffffffffffffffffffff1673ffffffffffffffffffffffffffffffffffffffff163373ffffffffffffffffffffffffffffffffffffffff1614611427576040517f08c379a00000000000000000000000000000000000000000000000000000000081526004018080602001828103825260288152602001806146496028913960400191505060405180910390fd5b6005600082815260200190815260200160002060006101000a81549073ffffffffffffffffffffffffffffffffffffffff0219169055807f7cc135e0cebb02c3480ae5d74d377283180a2601f8f644edf7987b009316c63a60405160405180910390a281601181905550611499612b86565b61153c60128054600181600116156101000203166002900480601f0160208091040260200160405190810160405280929190818152602001828054600181600116156101000203166002900480156115325780601f1061150757610100808354040283529160200191611532565b820191906000526020600020905b81548152906001019060200180831161151557829003601f168201915b5050505050612c63565b505050565b60128054600181600116156101000203166002900480601f0160208091040260200160405190810160405280929190818152602001828054600181600116156101000203166002900480156115d75780601f106115ac576101008083540402835291602001916115d7565b820191906000526020600020905b8154815290600101906020018083116115ba57829003601f168201915b505050505081565b600061163282600760008673ffffffffffffffffffffffffffffffffffffffff1673ffffffffffffffffffffffffffffffffffffffff168152602001908152602001600020612c8490919063ffffffff16565b905092915050565b61165583838360405180602001604052806000815250611f0f565b505050565b60608383836040516020018084805190602001908083835b602083106116955780518252602082019150602081019050602083039250611672565b6001836020036101000a03801982511681845116808217855250505050505090500183805190602001908083835b602083106116e657805182526020820191506020810190506020830392506116c3565b6001836020036101000a03801982511681845116808217855250505050505090500182805190602001908083835b602083106117375780518252602082019150602081019050602083039250611714565b6001836020036101000a038019825116818451168082178552505050505050905001935050505060405160208183030381529060405290509392505050565b60008061178d836008612c9e90919063ffffffff16565b50905080915050919050565b60006117c9826040518060600160405280602981526020016144d9602991396008612ccd9092919063ffffffff16565b9050919050565b6060600f8054600181600116156101000203166002900480601f0160208091040260200160405190810160405280929190818152602001828054600181600116156101000203166002900480156118685780601f1061183d57610100808354040283529160200191611868565b820191906000526020600020905b81548152906001019060200180831161184b57829003601f168201915b5050505050905090565b60008073ffffffffffffffffffffffffffffffffffffffff168273ffffffffffffffffffffffffffffffffffffffff1614156118f9576040517f08c379a000000000000000000000000000000000000000000000000000000000815260040180806020018281038252602a8152602001806144af602a913960400191505060405180910390fd5b611940600760008473ffffffffffffffffffffffffffffffffffffffff1673ffffffffffffffffffffffffffffffffffffffff168152602001908152602001600020612cec565b9050919050565b6000611951612d01565b90508073ffffffffffffffffffffffffffffffffffffffff1663a9059cbb338373ffffffffffffffffffffffffffffffffffffffff166370a08231306040518263ffffffff1660e01b8152600401808273ffffffffffffffffffffffffffffffffffffffff1673ffffffffffffffffffffffffffffffffffffffff16815260200191505060206040518083038186803b1580156119ed57600080fd5b505afa158015611a01573d6000803e3d6000fd5b505050506040513d6020811015611a1757600080fd5b81019080805190602001909291905050506040518363ffffffff1660e01b8152600401808373ffffffffffffffffffffffffffffffffffffffff1673ffffffffffffffffffffffffffffffffffffffff16815260200182815260200192505050602060405180830381600087803b158015611a9157600080fd5b505af1158015611aa5573d6000803e3d6000fd5b505050506040513d6020811015611abb57600080fd5b8101908080519060200190929190505050611b3e576040517f08c379a00000000000000000000000000000000000000000000000000000000081526004018080602001828103825260178152602001807f556e61626c6520746f207472616e73666572204c494e4b00000000000000000081525060200191505060405180910390fd5b50565b606060008090505b60208160ff16108015611b945750600060f81b838260ff1660208110611b6b57fe5b1a60f81b7effffffffffffffffffffffffffffffffffffffffffffffffffffffffffffff191614155b15611ba6578080600101915050611b49565b60608160ff1667ffffffffffffffff81118015611bc257600080fd5b506040519080825280601f01601f191660200182016040528015611bf55781602001600182028036833780820191505090505b509050600091505b60208260ff16108015611c485750600060f81b848360ff1660208110611c1f57fe5b1a60f81b7effffffffffffffffffffffffffffffffffffffffffffffffffffffffffffff191614155b15611cab57838260ff1660208110611c5c57fe5b1a60f81b818360ff1681518110611c6f57fe5b60200101907effffffffffffffffffffffffffffffffffffffffffffffffffffffffffffff1916908160001a9053508180600101925050611bfd565b8092505050919050565b6060600d8054600181600116156101000203166002900480601f016020809104026020016040519081016040528092919081815260200182805460018160011615610100020316600290048015611d4d5780601f10611d2257610100808354040283529160200191611d4d565b820191906000526020600020905b815481529060010190602001808311611d3057829003601f168201915b5050505050905090565b611d5f61275b565b73ffffffffffffffffffffffffffffffffffffffff168273ffffffffffffffffffffffffffffffffffffffff161415611e00576040517f08c379a00000000000000000000000000000000000000000000000000000000081526004018080602001828103825260198152602001807f4552433732313a20617070726f766520746f2063616c6c65720000000000000081525060200191505060405180910390fd5b80600b6000611e0d61275b565b73ffffffffffffffffffffffffffffffffffffffff1673ffffffffffffffffffffffffffffffffffffffff16815260200190815260200160002060008473ffffffffffffffffffffffffffffffffffffffff1673ffffffffffffffffffffffffffffffffffffffff16815260200190815260200160002060006101000a81548160ff0219169083151502179055508173ffffffffffffffffffffffffffffffffffffffff16611eba61275b565b73ffffffffffffffffffffffffffffffffffffffff167f17307eab39ab6107e8899845ad3d59bd9653f200f220920489ca2b5937696c3183604051808215151515815260200191505060405180910390a35050565b611f20611f1a61275b565b83612831565b611f75576040517f08c379a00000000000000000000000000000000000000000000000000000000081526004018080602001828103825260318152602001806146186031913960400191505060405180910390fd5b611f8184848484612d2b565b50505050565b6060611f928261273e565b611fe7576040517f08c379a000000000000000000000000000000000000000000000000000000000815260040180806020018281038252602f8152602001806145c8602f913960400191505060405180910390fd5b6060600e60008481526020019081526020016000208054600181600116156101000203166002900480601f0160208091040260200160405190810160405280929190818152602001828054600181600116156101000203166002900480156120905780601f1061206557610100808354040283529160200191612090565b820191906000526020600020905b81548152906001019060200180831161207357829003601f168201915b5050505050905060606120a16117d0565b90506000815114156120b7578192505050612253565b6000825111156121885780826040516020018083805190602001908083835b602083106120f957805182526020820191506020810190506020830392506120d6565b6001836020036101000a03801982511681845116808217855250505050505090500182805190602001908083835b6020831061214a5780518252602082019150602081019050602083039250612127565b6001836020036101000a0380198251168184511680821785525050505050509050019250505060405160208183030381529060405292505050612253565b8061219285612d9d565b6040516020018083805190602001908083835b602083106121c857805182526020820191506020810190506020830392506121a5565b6001836020036101000a03801982511681845116808217855250505050505090500182805190602001908083835b6020831061221957805182526020820191506020810190506020830392506121f6565b6001836020036101000a03801982511681845116808217855250505050505090500192505050604051602081830303815290604052925050505b919050565b6000600b60008473ffffffffffffffffffffffffffffffffffffffff1673ffffffffffffffffffffffffffffffffffffffff16815260200190815260200160002060008373ffffffffffffffffffffffffffffffffffffffff1673ffffffffffffffffffffffffffffffffffffffff16815260200190815260200160002060009054906101000a900460ff16905092915050565b60006122f6614234565b61230a6014543063042f2b6560e01b612422565b905061236e6040518060400160405280600381526020017f676574000000000000000000000000000000000000000000000000000000000081525060405180606001604052806023815260200161452460239139836124539092919063ffffffff16565b6123ed6040518060400160405280600481526020017f70617468000000000000000000000000000000000000000000000000000000008152506040518060400160405280600981526020017f495046535f504154480000000000000000000000000000000000000000000000815250836124539092919063ffffffff16565b61241c601360009054906101000a900473ffffffffffffffffffffffffffffffffffffffff1682601554612486565b91505090565b61242a614234565b612432614234565b61244985858584612ee4909392919063ffffffff16565b9150509392505050565b61246a828460800151612f9490919063ffffffff16565b612481818460800151612f9490919063ffffffff16565b505050565b600030600454604051602001808373ffffffffffffffffffffffffffffffffffffffff1673ffffffffffffffffffffffffffffffffffffffff1660601b815260140182815260200192505050604051602081830303815290604052805190602001209050600454836060018181525050836005600083815260200190815260200160002060006101000a81548173ffffffffffffffffffffffffffffffffffffffff021916908373ffffffffffffffffffffffffffffffffffffffff160217905550807fb5e6e01e79f91267dc17b4e6314d5d4d03593d2ceee0fbb452b750bd70ea5af960405160405180910390a2600260009054906101000a900473ffffffffffffffffffffffffffffffffffffffff1673ffffffffffffffffffffffffffffffffffffffff16634000aea085846125be87612fb9565b6040518463ffffffff1660e01b8152600401808473ffffffffffffffffffffffffffffffffffffffff1673ffffffffffffffffffffffffffffffffffffffff16815260200183815260200180602001828103825283818151815260200191508051906020019080838360005b8381101561264557808201518184015260208101905061262a565b50505050905090810190601f1680156126725780820380516001836020036101000a031916815260200191505b50945050505050602060405180830381600087803b15801561269357600080fd5b505af11580156126a7573d6000803e3d6000fd5b505050506040513d60208110156126bd57600080fd5b8101908080519060200190929190505050612723576040517f08c379a00000000000000000000000000000000000000000000000000000000081526004018080602001828103825260238152602001806143de6023913960400191505060405180910390fd5b60016004600082825401925050819055508090509392505050565b600061275482600861318590919063ffffffff16565b9050919050565b600033905090565b81600a600083815260200190815260200160002060006101000a81548173ffffffffffffffffffffffffffffffffffffffff021916908373ffffffffffffffffffffffffffffffffffffffff160217905550808273ffffffffffffffffffffffffffffffffffffffff166127d683611799565b73ffffffffffffffffffffffffffffffffffffffff167f8c5be1e5ebec7d5bd14f71427d1e84f3dd0314c0f7b2291e5b200ac8c7c3b92560405160405180910390a45050565b600061282a8260000161319f565b9050919050565b600061283c8261273e565b612891576040517f08c379a000000000000000000000000000000000000000000000000000000000815260040180806020018281038252602c81526020018061444b602c913960400191505060405180910390fd5b600061289c83611799565b90508073ffffffffffffffffffffffffffffffffffffffff168473ffffffffffffffffffffffffffffffffffffffff16148061290b57508373ffffffffffffffffffffffffffffffffffffffff166128f3846110a6565b73ffffffffffffffffffffffffffffffffffffffff16145b8061291c575061291b8185612258565b5b91505092915050565b8273ffffffffffffffffffffffffffffffffffffffff1661294582611799565b73ffffffffffffffffffffffffffffffffffffffff16146129b1576040517f08c379a000000000000000000000000000000000000000000000000000000000815260040180806020018281038252602981526020018061459f6029913960400191505060405180910390fd5b600073ffffffffffffffffffffffffffffffffffffffff168273ffffffffffffffffffffffffffffffffffffffff161415612a37576040517f08c379a00000000000000000000000000000000000000000000000000000000081526004018080602001828103825260248152602001806144016024913960400191505060405180910390fd5b612a428383836131b0565b612a4d600082612763565b612a9e81600760008673ffffffffffffffffffffffffffffffffffffffff1673ffffffffffffffffffffffffffffffffffffffff1681526020019081526020016000206131b590919063ffffffff16565b50612af081600760008573ffffffffffffffffffffffffffffffffffffffff1673ffffffffffffffffffffffffffffffffffffffff1681526020019081526020016000206131cf90919063ffffffff16565b50612b07818360086131e99092919063ffffffff16565b50808273ffffffffffffffffffffffffffffffffffffffff168473ffffffffffffffffffffffffffffffffffffffff167fddf252ad1be2c89b69c2b068fc378daa952ba7f163c4a11628f55a4df523b3ef60405160405180910390a4505050565b612b8282826040518060200160405280600081525061321e565b5050565b6060612b93601054611b41565b90506060612ba2601154611b41565b9050612c4960128054600181600116156101000203166002900480601f016020809104026020016040519081016040528092919081815260200182805460018160011615610100020316600290048015612c3d5780601f10612c1257610100808354040283529160200191612c3d565b820191906000526020600020905b815481529060010190602001808311612c2057829003601f168201915b5050505050838361165a565b60129080519060200190612c5e9291906142a1565b505050565b612c6f6016548261328f565b60166000815480929190600101919050555050565b6000612c938360000183613319565b60001c905092915050565b600080600080612cb1866000018661339c565b915091508160001c8160001c8090509350935050509250929050565b6000612ce0846000018460001b84613435565b60001c90509392505050565b6000612cfa8260000161352b565b9050919050565b6000600260009054906101000a900473ffffffffffffffffffffffffffffffffffffffff16905090565b612d36848484612925565b612d428484848461353c565b612d97576040517f08c379a00000000000000000000000000000000000000000000000000000000081526004018080602001828103825260328152602001806143ac6032913960400191505060405180910390fd5b50505050565b60606000821415612de5576040518060400160405280600181526020017f30000000000000000000000000000000000000000000000000000000000000008152509050612edf565b600082905060005b60008214612e0f578080600101915050600a8281612e0757fe5b049150612ded565b60608167ffffffffffffffff81118015612e2857600080fd5b506040519080825280601f01601f191660200182016040528015612e5b5781602001600182028036833780820191505090505b50905060006001830390508593505b60008414612ed757600a8481612e7c57fe5b0660300160f81b82828060019003935081518110612e9657fe5b60200101907effffffffffffffffffffffffffffffffffffffffffffffffffffffffffffff1916908160001a905350600a8481612ecf57fe5b049350612e6a565b819450505050505b919050565b612eec614234565b612efc8560800151610100613781565b508385600001818152505082856020019073ffffffffffffffffffffffffffffffffffffffff16908173ffffffffffffffffffffffffffffffffffffffff16815250508185604001907bffffffffffffffffffffffffffffffffffffffffffffffffffffffff191690817bffffffffffffffffffffffffffffffffffffffffffffffffffffffff191681525050849050949350505050565b612fa182600383516137d5565b612fb4818361391a90919063ffffffff16565b505050565b6060634042994660e01b60008084600001518560200151866040015187606001516001896080015160000151604051602401808973ffffffffffffffffffffffffffffffffffffffff1673ffffffffffffffffffffffffffffffffffffffff1681526020018881526020018781526020018673ffffffffffffffffffffffffffffffffffffffff1673ffffffffffffffffffffffffffffffffffffffff168152602001857bffffffffffffffffffffffffffffffffffffffffffffffffffffffff19167bffffffffffffffffffffffffffffffffffffffffffffffffffffffff1916815260200184815260200183815260200180602001828103825283818151815260200191508051906020019080838360005b838110156130e85780820151818401526020810190506130cd565b50505050905090810190601f1680156131155780820380516001836020036101000a031916815260200191505b509950505050505050505050604051602081830303815290604052907bffffffffffffffffffffffffffffffffffffffffffffffffffffffff19166020820180517bffffffffffffffffffffffffffffffffffffffffffffffffffffffff83818316178352505050509050919050565b6000613197836000018360001b61393c565b905092915050565b600081600001805490509050919050565b505050565b60006131c7836000018360001b61395f565b905092915050565b60006131e1836000018360001b613a47565b905092915050565b6000613215846000018460001b8473ffffffffffffffffffffffffffffffffffffffff1660001b613ab7565b90509392505050565b6132288383613b93565b613235600084848461353c565b61328a576040517f08c379a00000000000000000000000000000000000000000000000000000000081526004018080602001828103825260328152602001806143ac6032913960400191505060405180910390fd5b505050565b6132988261273e565b6132ed576040517f08c379a000000000000000000000000000000000000000000000000000000000815260040180806020018281038252602c815260200180614573602c913960400191505060405180910390fd5b80600e600084815260200190815260200160002090805190602001906133149291906142a1565b505050565b60008183600001805490501161337a576040517f08c379a00000000000000000000000000000000000000000000000000000000081526004018080602001828103825260228152602001806143616022913960400191505060405180910390fd5b82600001828154811061338957fe5b9060005260206000200154905092915050565b600080828460000180549050116133fe576040517f08c379a00000000000000000000000000000000000000000000000000000000081526004018080602001828103825260228152602001806145026022913960400191505060405180910390fd5b600084600001848154811061340f57fe5b906000526020600020906002020190508060000154816001015492509250509250929050565b600080846001016000858152602001908152602001600020549050600081141583906134fc576040517f08c379a00000000000000000000000000000000000000000000000000000000081526004018080602001828103825283818151815260200191508051906020019080838360005b838110156134c15780820151818401526020810190506134a6565b50505050905090810190601f1680156134ee5780820380516001836020036101000a031916815260200191505b509250505060405180910390fd5b5084600001600182038154811061350f57fe5b9060005260206000209060020201600101549150509392505050565b600081600001805490509050919050565b600061355d8473ffffffffffffffffffffffffffffffffffffffff16613d87565b61356a5760019050613779565b606061370063150b7a0260e01b61357f61275b565b888787604051602401808573ffffffffffffffffffffffffffffffffffffffff1673ffffffffffffffffffffffffffffffffffffffff1681526020018473ffffffffffffffffffffffffffffffffffffffff1673ffffffffffffffffffffffffffffffffffffffff16815260200183815260200180602001828103825283818151815260200191508051906020019080838360005b8381101561362f578082015181840152602081019050613614565b50505050905090810190601f16801561365c5780820380516001836020036101000a031916815260200191505b5095505050505050604051602081830303815290604052907bffffffffffffffffffffffffffffffffffffffffffffffffffffffff19166020820180517bffffffffffffffffffffffffffffffffffffffffffffffffffffffff83818316178352505050506040518060600160405280603281526020016143ac603291398773ffffffffffffffffffffffffffffffffffffffff16613d9a9092919063ffffffff16565b9050600081806020019051602081101561371957600080fd5b8101908080519060200190929190505050905063150b7a0260e01b7bffffffffffffffffffffffffffffffffffffffffffffffffffffffff1916817bffffffffffffffffffffffffffffffffffffffffffffffffffffffff191614925050505b949350505050565b613789614321565b60006020838161379557fe5b06146137ae57602082816137a557fe5b06602003820191505b81836020018181525050604051808452600081528281016020016040525082905092915050565b60178111613802576137fc8160058460ff16901b60ff161784613db290919063ffffffff16565b50613915565b60ff811161384457613827601860058460ff16901b1784613db290919063ffffffff16565b5061383e81600185613dd29092919063ffffffff16565b50613914565b61ffff81116138875761386a601960058460ff16901b1784613db290919063ffffffff16565b5061388181600285613dd29092919063ffffffff16565b50613913565b63ffffffff81116138cc576138af601a60058460ff16901b1784613db290919063ffffffff16565b506138c681600485613dd29092919063ffffffff16565b50613912565b67ffffffffffffffff8111613911576138f8601b60058460ff16901b1784613db290919063ffffffff16565b5061390f81600885613dd29092919063ffffffff16565b505b5b5b5b5b505050565b613922614321565b61393483846000015151848551613df4565b905092915050565b600080836001016000848152602001908152602001600020541415905092915050565b60008083600101600084815260200190815260200160002054905060008114613a3b57600060018203905060006001866000018054905003905060008660000182815481106139aa57fe5b90600052602060002001549050808760000184815481106139c757fe5b90600052602060002001819055506001830187600101600083815260200190815260200160002081905550866000018054806139ff57fe5b60019003818190600052602060002001600090559055866001016000878152602001908152602001600020600090556001945050505050613a41565b60009150505b92915050565b6000613a538383613ead565b613aac578260000182908060018154018082558091505060019003906000526020600020016000909190919091505582600001805490508360010160008481526020019081526020016000208190555060019050613ab1565b600090505b92915050565b6000808460010160008581526020019081526020016000205490506000811415613b5e57846000016040518060400160405280868152602001858152509080600181540180825580915050600190039060005260206000209060020201600090919091909150600082015181600001556020820151816001015550508460000180549050856001016000868152602001908152602001600020819055506001915050613b8c565b82856000016001830381548110613b7157fe5b90600052602060002090600202016001018190555060009150505b9392505050565b600073ffffffffffffffffffffffffffffffffffffffff168273ffffffffffffffffffffffffffffffffffffffff161415613c36576040517f08c379a00000000000000000000000000000000000000000000000000000000081526004018080602001828103825260208152602001807f4552433732313a206d696e7420746f20746865207a65726f206164647265737381525060200191505060405180910390fd5b613c3f8161273e565b15613cb2576040517f08c379a000000000000000000000000000000000000000000000000000000000815260040180806020018281038252601c8152602001807f4552433732313a20746f6b656e20616c7265616479206d696e7465640000000081525060200191505060405180910390fd5b613cbe600083836131b0565b613d0f81600760008573ffffffffffffffffffffffffffffffffffffffff1673ffffffffffffffffffffffffffffffffffffffff1681526020019081526020016000206131cf90919063ffffffff16565b50613d26818360086131e99092919063ffffffff16565b50808273ffffffffffffffffffffffffffffffffffffffff16600073ffffffffffffffffffffffffffffffffffffffff167fddf252ad1be2c89b69c2b068fc378daa952ba7f163c4a11628f55a4df523b3ef60405160405180910390a45050565b600080823b905060008111915050919050565b6060613da98484600085613ed0565b90509392505050565b613dba614321565b613dca8384600001515184614079565b905092915050565b613dda614321565b613deb8485600001515185856140c7565b90509392505050565b613dfc614321565b8251821115613e0a57600080fd5b84602001518285011115613e3557613e34856002613e2e8860200151888701614128565b02614144565b5b600080865180518760208301019350808887011115613e545787860182525b60208701925050505b60208410613e805780518252602082019150602081019050602084039350613e5d565b60006001856020036101000a03905080198251168184511681811785525050879350505050949350505050565b600080836001016000848152602001908152602001600020541415905092915050565b606082471015613f2b576040517f08c379a00000000000000000000000000000000000000000000000000000000081526004018080602001828103825260268152602001806144256026913960400191505060405180910390fd5b613f3485613d87565b613fa6576040517f08c379a000000000000000000000000000000000000000000000000000000000815260040180806020018281038252601d8152602001807f416464726573733a2063616c6c20746f206e6f6e2d636f6e747261637400000081525060200191505060405180910390fd5b600060608673ffffffffffffffffffffffffffffffffffffffff1685876040518082805190602001908083835b60208310613ff65780518252602082019150602081019050602083039250613fd3565b6001836020036101000a03801982511681845116808217855250505050505090500191505060006040518083038185875af1925050503d8060008114614058576040519150601f19603f3d011682016040523d82523d6000602084013e61405d565b606091505b509150915061406d828286614168565b92505050949350505050565b614081614321565b8360200151831061409e5761409d846002866020015102614144565b5b83518051602085830101848153818614156140ba576001820183525b5050508390509392505050565b6140cf614321565b846020015184830111156140ed576140ec85600286850102614144565b5b60006001836101000a039050855183868201018583198251161781528151858801111561411a5784870182525b505085915050949350505050565b60008183111561413a5782905061413e565b8190505b92915050565b6060826000015190506141578383613781565b50614162838261391a565b50505050565b606083156141785782905061422d565b60008351111561418b5782518084602001fd5b816040517f08c379a00000000000000000000000000000000000000000000000000000000081526004018080602001828103825283818151815260200191508051906020019080838360005b838110156141f25780820151818401526020810190506141d7565b50505050905090810190601f16801561421f5780820380516001836020036101000a031916815260200191505b509250505060405180910390fd5b9392505050565b6040518060a0016040528060008019168152602001600073ffffffffffffffffffffffffffffffffffffffff16815260200160007bffffffffffffffffffffffffffffffffffffffffffffffffffffffff191681526020016000815260200161429b614321565b81525090565b828054600181600116156101000203166002900490600052602060002090601f016020900481019282601f106142e257805160ff1916838001178555614310565b82800160010185558215614310579182015b8281111561430f5782518255916020019190600101906142f4565b5b50905061431d919061433b565b5090565b604051806040016040528060608152602001600081525090565b61435d91905b80821115614359576000816000905550600101614341565b5090565b9056fe456e756d657261626c655365743a20696e646578206f7574206f6620626f756e647368747470733a2f2f696d616765732d626c656e642e6865726f6b756170702e636f6d2f7365636f6e644552433732313a207472616e7366657220746f206e6f6e20455243373231526563656976657220696d706c656d656e746572756e61626c6520746f207472616e73666572416e6443616c6c20746f206f7261636c654552433732313a207472616e7366657220746f20746865207a65726f2061646472657373416464726573733a20696e73756666696369656e742062616c616e636520666f722063616c6c4552433732313a206f70657261746f7220717565727920666f72206e6f6e6578697374656e7420746f6b656e4552433732313a20617070726f76652063616c6c6572206973206e6f74206f776e6572206e6f7220617070726f76656420666f7220616c6c4552433732313a2062616c616e636520717565727920666f7220746865207a65726f20616464726573734552433732313a206f776e657220717565727920666f72206e6f6e6578697374656e7420746f6b656e456e756d657261626c654d61703a20696e646578206f7574206f6620626f756e647368747470733a2f2f696d616765732d626c656e642e6865726f6b756170702e636f6d2f4552433732313a20617070726f76656420717565727920666f72206e6f6e6578697374656e7420746f6b656e4552433732314d657461646174613a2055524920736574206f66206e6f6e6578697374656e7420746f6b656e4552433732313a207472616e73666572206f6620746f6b656e2074686174206973206e6f74206f776e4552433732314d657461646174613a2055524920717565727920666f72206e6f6e6578697374656e7420746f6b656e4552433732313a20617070726f76616c20746f2063757272656e74206f776e65724552433732313a207472616e736665722063616c6c6572206973206e6f74206f776e6572206e6f7220617070726f766564536f75726365206d75737420626520746865206f7261636c65206f66207468652072657175657374a2646970667358221220d1af781052b1d4be8acd3ab85c35d33882672021ef5432e7423d13922124bdef64736f6c63430006060033",
  "immutableReferences": {},
  "source": "// SPDX-License-Identifier: MIT\npragma solidity ^0.6.6;\n\nimport \"@chainlink/contracts/src/v0.6/ChainlinkClient.sol\";\nimport \"@openzeppelin/contracts/token/ERC721/ERC721.sol\";\n\ncontract TurtleCharacter is ChainlinkClient, ERC721 {\n    bytes32 private ipfsHashOneBytes32;\n    bytes32 private ipfsHashTwoBytes32;\n    string public ipfsLink = \"https://ipfs.io/ipfs/\";\n\n    address private oracle;\n    bytes32 private jobId;\n    uint256 private fee;\n    uint256 private uniqueTokenId = 0;\n\n    /**\n     * Network: Rinkeby\n     * Oracle - 0x3A56aE4a2831C3d3514b5D7Af5578E45eBDb7a40\n     * Job ID - 187bb80e5ee74a139734cac7475f3c6e\n     * Fee: 0.01 LINK\n     */\n    constructor() public ERC721(\"TurtleCharacter\", \"TRTL\") {\n        setPublicChainlinkToken();\n        oracle = 0x3A56aE4a2831C3d3514b5D7Af5578E45eBDb7a40;\n        jobId = \"187bb80e5ee74a139734cac7475f3c6e\";\n        fee = 0.01 * 10**18; // 0.01 LINK\n    }\n\n    function requestRandomCharacter() public {\n        ipfsLink = \"https://ipfs.io/ipfs/\";\n        _safeMint(msg.sender, uniqueTokenId);\n        requestIPFSHash();\n    }\n\n    function requestIPFSHash() public returns (bytes32 requestId) {\n        Chainlink.Request memory request = buildChainlinkRequest(\n            jobId,\n            address(this),\n            this.fulfill.selector\n        );\n        request.add(\"get\", \"https://images-blend.herokuapp.com/\");\n        request.add(\"path\", \"IPFS_PATH\");\n\n        return sendChainlinkRequestTo(oracle, request, fee);\n    }\n\n    function fulfill(bytes32 _requestId, bytes32 dataFromAPI) public recordChainlinkFulfillment(_requestId) returns (bytes32 requestId) {\n        ipfsHashOneBytes32 = dataFromAPI;\n\n        Chainlink.Request memory request = buildChainlinkRequest(\n            jobId,\n            address(this),\n            this.fulfillSecondRequest.selector\n        );\n        request.add(\"get\", \"https://images-blend.herokuapp.com/second\");\n        request.add(\"path\", \"IPFS_PATH\");\n\n        return sendChainlinkRequestTo(oracle, request, fee);\n    }\n\n    function fulfillSecondRequest(bytes32 _requestId, bytes32 dataFromAPI) public recordChainlinkFulfillment(_requestId) {\n        ipfsHashTwoBytes32 = dataFromAPI;\n        generateIPFSLink();\n        setTokenURI(ipfsLink);\n    }\n\n    function bytes32ToString(bytes32 _bytes32) public pure returns (string memory) {\n        uint8 i = 0;\n        while (i < 32 && _bytes32[i] != 0) {\n            i++;\n        }\n        bytes memory bytesArray = new bytes(i);\n        for (i = 0; i < 32 && _bytes32[i] != 0; i++) {\n            bytesArray[i] = _bytes32[i];\n        }\n        return string(bytesArray);\n    }\n\n    function generateIPFSLink() private {\n        string memory part1 = bytes32ToString(ipfsHashOneBytes32);\n        string memory part2 = bytes32ToString(ipfsHashTwoBytes32);\n        ipfsLink = append(ipfsLink, part1, part2);\n    }\n\n    function append(\n        string memory a,\n        string memory b,\n        string memory c\n    ) public pure returns (string memory) {\n        return string(abi.encodePacked(a, b, c));\n    }\n\n    function withdrawLink() external {\n        LinkTokenInterface linkToken = LinkTokenInterface(\n            chainlinkTokenAddress()\n        );\n        require(\n            linkToken.transfer(msg.sender, linkToken.balanceOf(address(this))),\n            \"Unable to transfer LINK\"\n        );\n    }\n\n    function setTokenURI(string memory _tokenURI) private {\n        _setTokenURI(uniqueTokenId, _tokenURI);\n        uniqueTokenId++;\n    }\n}\n",
  "sourcePath": "D:/EthOdyssey/NFT-Game/contracts/TurtleCharacter.sol",
  "compiler": {
    "name": "solc",
    "version": "0.6.6+commit.6c089d02.Emscripten.clang"
  },
  "schemaVersion": "3.4.1",
  "updatedAt": "2021-07-27T11:57:40.514Z",
  "devdoc": {
    "methods": {
      "approve(address,uint256)": {
        "details": "See {IERC721-approve}."
      },
      "balanceOf(address)": {
        "details": "See {IERC721-balanceOf}."
      },
      "baseURI()": {
        "details": "Returns the base URI set via {_setBaseURI}. This will be automatically added as a prefix in {tokenURI} to each token's URI, or to the token ID if no specific URI is set for that token ID."
      },
      "getApproved(uint256)": {
        "details": "See {IERC721-getApproved}."
      },
      "isApprovedForAll(address,address)": {
        "details": "See {IERC721-isApprovedForAll}."
      },
      "name()": {
        "details": "See {IERC721Metadata-name}."
      },
      "ownerOf(uint256)": {
        "details": "See {IERC721-ownerOf}."
      },
      "safeTransferFrom(address,address,uint256)": {
        "details": "See {IERC721-safeTransferFrom}."
      },
      "safeTransferFrom(address,address,uint256,bytes)": {
        "details": "See {IERC721-safeTransferFrom}."
      },
      "setApprovalForAll(address,bool)": {
        "details": "See {IERC721-setApprovalForAll}."
      },
      "supportsInterface(bytes4)": {
        "details": "See {IERC165-supportsInterface}.     * Time complexity O(1), guaranteed to always use less than 30 000 gas."
      },
      "symbol()": {
        "details": "See {IERC721Metadata-symbol}."
      },
      "tokenByIndex(uint256)": {
        "details": "See {IERC721Enumerable-tokenByIndex}."
      },
      "tokenOfOwnerByIndex(address,uint256)": {
        "details": "See {IERC721Enumerable-tokenOfOwnerByIndex}."
      },
      "tokenURI(uint256)": {
        "details": "See {IERC721Metadata-tokenURI}."
      },
      "totalSupply()": {
        "details": "See {IERC721Enumerable-totalSupply}."
      },
      "transferFrom(address,address,uint256)": {
        "details": "See {IERC721-transferFrom}."
      }
    }
  },
  "userdoc": {
    "methods": {
      "constructor": "Network: Rinkeby Oracle - 0x3A56aE4a2831C3d3514b5D7Af5578E45eBDb7a40 Job ID - 187bb80e5ee74a139734cac7475f3c6e Fee: 0.01 LINK"
    }
  }
}