{
  "contractName": "Turtis",
  "abi": [
    {
      "inputs": [],
      "stateMutability": "nonpayable",
      "type": "constructor"
    },
    {
      "anonymous": false,
      "inputs": [
        {
          "indexed": true,
          "internalType": "address",
          "name": "owner",
          "type": "address"
        },
        {
          "indexed": true,
          "internalType": "address",
          "name": "approved",
          "type": "address"
        },
        {
          "indexed": true,
          "internalType": "uint256",
          "name": "tokenId",
          "type": "uint256"
        }
      ],
      "name": "Approval",
      "type": "event"
    },
    {
      "anonymous": false,
      "inputs": [
        {
          "indexed": true,
          "internalType": "address",
          "name": "owner",
          "type": "address"
        },
        {
          "indexed": true,
          "internalType": "address",
          "name": "operator",
          "type": "address"
        },
        {
          "indexed": false,
          "internalType": "bool",
          "name": "approved",
          "type": "bool"
        }
      ],
      "name": "ApprovalForAll",
      "type": "event"
    },
    {
      "anonymous": false,
      "inputs": [
        {
          "indexed": true,
          "internalType": "bytes32",
          "name": "id",
          "type": "bytes32"
        }
      ],
      "name": "ChainlinkCancelled",
      "type": "event"
    },
    {
      "anonymous": false,
      "inputs": [
        {
          "indexed": true,
          "internalType": "bytes32",
          "name": "id",
          "type": "bytes32"
        }
      ],
      "name": "ChainlinkFulfilled",
      "type": "event"
    },
    {
      "anonymous": false,
      "inputs": [
        {
          "indexed": true,
          "internalType": "bytes32",
          "name": "id",
          "type": "bytes32"
        }
      ],
      "name": "ChainlinkRequested",
      "type": "event"
    },
    {
      "anonymous": false,
      "inputs": [
        {
          "indexed": false,
          "internalType": "string",
          "name": "ipfsLink",
          "type": "string"
        }
      ],
      "name": "DataReceivedFromAPI",
      "type": "event"
    },
    {
      "anonymous": false,
      "inputs": [
        {
          "indexed": false,
          "internalType": "uint256",
          "name": "tokenId",
          "type": "uint256"
        }
      ],
      "name": "NewTurtleGenerated",
      "type": "event"
    },
    {
      "anonymous": false,
      "inputs": [
        {
          "indexed": true,
          "internalType": "address",
          "name": "from",
          "type": "address"
        },
        {
          "indexed": true,
          "internalType": "address",
          "name": "to",
          "type": "address"
        },
        {
          "indexed": true,
          "internalType": "uint256",
          "name": "tokenId",
          "type": "uint256"
        }
      ],
      "name": "Transfer",
      "type": "event"
    },
    {
      "anonymous": false,
      "inputs": [
        {
          "indexed": false,
          "internalType": "uint256",
          "name": "tokenId",
          "type": "uint256"
        }
      ],
      "name": "TurtleBought",
      "type": "event"
    },
    {
      "anonymous": false,
      "inputs": [
        {
          "indexed": false,
          "internalType": "uint256",
          "name": "tokenId",
          "type": "uint256"
        }
      ],
      "name": "TurtleUpForSale",
      "type": "event"
    },
    {
      "inputs": [
        {
          "internalType": "address",
          "name": "to",
          "type": "address"
        },
        {
          "internalType": "uint256",
          "name": "tokenId",
          "type": "uint256"
        }
      ],
      "name": "approve",
      "outputs": [],
      "stateMutability": "nonpayable",
      "type": "function"
    },
    {
      "inputs": [
        {
          "internalType": "address",
          "name": "owner",
          "type": "address"
        }
      ],
      "name": "balanceOf",
      "outputs": [
        {
          "internalType": "uint256",
          "name": "",
          "type": "uint256"
        }
      ],
      "stateMutability": "view",
      "type": "function",
      "constant": true
    },
    {
      "inputs": [],
      "name": "baseURI",
      "outputs": [
        {
          "internalType": "string",
          "name": "",
          "type": "string"
        }
      ],
      "stateMutability": "view",
      "type": "function",
      "constant": true
    },
    {
      "inputs": [],
      "name": "contractOwner",
      "outputs": [
        {
          "internalType": "address",
          "name": "",
          "type": "address"
        }
      ],
      "stateMutability": "view",
      "type": "function",
      "constant": true
    },
    {
      "inputs": [
        {
          "internalType": "uint256",
          "name": "tokenId",
          "type": "uint256"
        }
      ],
      "name": "getApproved",
      "outputs": [
        {
          "internalType": "address",
          "name": "",
          "type": "address"
        }
      ],
      "stateMutability": "view",
      "type": "function",
      "constant": true
    },
    {
      "inputs": [],
      "name": "ipfsLink",
      "outputs": [
        {
          "internalType": "string",
          "name": "",
          "type": "string"
        }
      ],
      "stateMutability": "view",
      "type": "function",
      "constant": true
    },
    {
      "inputs": [
        {
          "internalType": "address",
          "name": "owner",
          "type": "address"
        },
        {
          "internalType": "address",
          "name": "operator",
          "type": "address"
        }
      ],
      "name": "isApprovedForAll",
      "outputs": [
        {
          "internalType": "bool",
          "name": "",
          "type": "bool"
        }
      ],
      "stateMutability": "view",
      "type": "function",
      "constant": true
    },
    {
      "inputs": [],
      "name": "name",
      "outputs": [
        {
          "internalType": "string",
          "name": "",
          "type": "string"
        }
      ],
      "stateMutability": "view",
      "type": "function",
      "constant": true
    },
    {
      "inputs": [
        {
          "internalType": "uint256",
          "name": "tokenId",
          "type": "uint256"
        }
      ],
      "name": "ownerOf",
      "outputs": [
        {
          "internalType": "address",
          "name": "",
          "type": "address"
        }
      ],
      "stateMutability": "view",
      "type": "function",
      "constant": true
    },
    {
      "inputs": [
        {
          "internalType": "address",
          "name": "from",
          "type": "address"
        },
        {
          "internalType": "address",
          "name": "to",
          "type": "address"
        },
        {
          "internalType": "uint256",
          "name": "tokenId",
          "type": "uint256"
        }
      ],
      "name": "safeTransferFrom",
      "outputs": [],
      "stateMutability": "nonpayable",
      "type": "function"
    },
    {
      "inputs": [
        {
          "internalType": "address",
          "name": "from",
          "type": "address"
        },
        {
          "internalType": "address",
          "name": "to",
          "type": "address"
        },
        {
          "internalType": "uint256",
          "name": "tokenId",
          "type": "uint256"
        },
        {
          "internalType": "bytes",
          "name": "_data",
          "type": "bytes"
        }
      ],
      "name": "safeTransferFrom",
      "outputs": [],
      "stateMutability": "nonpayable",
      "type": "function"
    },
    {
      "inputs": [
        {
          "internalType": "address",
          "name": "operator",
          "type": "address"
        },
        {
          "internalType": "bool",
          "name": "approved",
          "type": "bool"
        }
      ],
      "name": "setApprovalForAll",
      "outputs": [],
      "stateMutability": "nonpayable",
      "type": "function"
    },
    {
      "inputs": [
        {
          "internalType": "bytes4",
          "name": "interfaceId",
          "type": "bytes4"
        }
      ],
      "name": "supportsInterface",
      "outputs": [
        {
          "internalType": "bool",
          "name": "",
          "type": "bool"
        }
      ],
      "stateMutability": "view",
      "type": "function",
      "constant": true
    },
    {
      "inputs": [],
      "name": "symbol",
      "outputs": [
        {
          "internalType": "string",
          "name": "",
          "type": "string"
        }
      ],
      "stateMutability": "view",
      "type": "function",
      "constant": true
    },
    {
      "inputs": [
        {
          "internalType": "uint256",
          "name": "index",
          "type": "uint256"
        }
      ],
      "name": "tokenByIndex",
      "outputs": [
        {
          "internalType": "uint256",
          "name": "",
          "type": "uint256"
        }
      ],
      "stateMutability": "view",
      "type": "function",
      "constant": true
    },
    {
      "inputs": [
        {
          "internalType": "address",
          "name": "owner",
          "type": "address"
        },
        {
          "internalType": "uint256",
          "name": "index",
          "type": "uint256"
        }
      ],
      "name": "tokenOfOwnerByIndex",
      "outputs": [
        {
          "internalType": "uint256",
          "name": "",
          "type": "uint256"
        }
      ],
      "stateMutability": "view",
      "type": "function",
      "constant": true
    },
    {
      "inputs": [
        {
          "internalType": "uint256",
          "name": "tokenId",
          "type": "uint256"
        }
      ],
      "name": "tokenURI",
      "outputs": [
        {
          "internalType": "string",
          "name": "",
          "type": "string"
        }
      ],
      "stateMutability": "view",
      "type": "function",
      "constant": true
    },
    {
      "inputs": [],
      "name": "totalSupply",
      "outputs": [
        {
          "internalType": "uint256",
          "name": "",
          "type": "uint256"
        }
      ],
      "stateMutability": "view",
      "type": "function",
      "constant": true
    },
    {
      "inputs": [
        {
          "internalType": "address",
          "name": "from",
          "type": "address"
        },
        {
          "internalType": "address",
          "name": "to",
          "type": "address"
        },
        {
          "internalType": "uint256",
          "name": "tokenId",
          "type": "uint256"
        }
      ],
      "name": "transferFrom",
      "outputs": [],
      "stateMutability": "nonpayable",
      "type": "function"
    },
    {
      "inputs": [
        {
          "internalType": "uint256",
          "name": "",
          "type": "uint256"
        }
      ],
      "name": "turtlesForSale",
      "outputs": [
        {
          "internalType": "uint256",
          "name": "",
          "type": "uint256"
        }
      ],
      "stateMutability": "view",
      "type": "function",
      "constant": true
    },
    {
      "inputs": [
        {
          "internalType": "address",
          "name": "",
          "type": "address"
        }
      ],
      "name": "userAddressToHighScore",
      "outputs": [
        {
          "internalType": "string",
          "name": "",
          "type": "string"
        }
      ],
      "stateMutability": "view",
      "type": "function",
      "constant": true
    },
    {
      "inputs": [],
      "name": "getUsers",
      "outputs": [
        {
          "internalType": "address[]",
          "name": "",
          "type": "address[]"
        }
      ],
      "stateMutability": "view",
      "type": "function",
      "constant": true
    },
    {
      "inputs": [
        {
          "internalType": "address",
          "name": "_oracleAddress",
          "type": "address"
        }
      ],
      "name": "setOracleAddress",
      "outputs": [],
      "stateMutability": "nonpayable",
      "type": "function"
    },
    {
      "inputs": [
        {
          "internalType": "string",
          "name": "_jobID",
          "type": "string"
        }
      ],
      "name": "setJobID",
      "outputs": [],
      "stateMutability": "nonpayable",
      "type": "function"
    },
    {
      "inputs": [
        {
          "internalType": "uint256",
          "name": "_fee",
          "type": "uint256"
        }
      ],
      "name": "setFeeInLink",
      "outputs": [],
      "stateMutability": "nonpayable",
      "type": "function"
    },
    {
      "inputs": [
        {
          "internalType": "string",
          "name": "_url",
          "type": "string"
        }
      ],
      "name": "setApiBaseUrl",
      "outputs": [],
      "stateMutability": "nonpayable",
      "type": "function"
    },
    {
      "inputs": [
        {
          "internalType": "string",
          "name": "_url",
          "type": "string"
        }
      ],
      "name": "setApiSecondUrl",
      "outputs": [],
      "stateMutability": "nonpayable",
      "type": "function"
    },
    {
      "inputs": [
        {
          "internalType": "uint256",
          "name": "_tokenId",
          "type": "uint256"
        }
      ],
      "name": "buyTurtle",
      "outputs": [],
      "stateMutability": "payable",
      "type": "function",
      "payable": true
    },
    {
      "inputs": [
        {
          "internalType": "uint256",
          "name": "_tokenId",
          "type": "uint256"
        },
        {
          "internalType": "uint256",
          "name": "_price",
          "type": "uint256"
        }
      ],
      "name": "putUpTurtleForSale",
      "outputs": [],
      "stateMutability": "nonpayable",
      "type": "function"
    },
    {
      "inputs": [
        {
          "internalType": "string",
          "name": "score",
          "type": "string"
        }
      ],
      "name": "requestNewRandomTurtle",
      "outputs": [],
      "stateMutability": "nonpayable",
      "type": "function"
    },
    {
      "inputs": [
        {
          "internalType": "bytes32",
          "name": "_requestId",
          "type": "bytes32"
        },
        {
          "internalType": "bytes32",
          "name": "dataFromAPI",
          "type": "bytes32"
        }
      ],
      "name": "fulfill",
      "outputs": [
        {
          "internalType": "bytes32",
          "name": "requestId",
          "type": "bytes32"
        }
      ],
      "stateMutability": "nonpayable",
      "type": "function"
    },
    {
      "inputs": [
        {
          "internalType": "bytes32",
          "name": "_requestId",
          "type": "bytes32"
        },
        {
          "internalType": "bytes32",
          "name": "dataFromAPI",
          "type": "bytes32"
        }
      ],
      "name": "fulfillSecondRequest",
      "outputs": [],
      "stateMutability": "nonpayable",
      "type": "function"
    },
    {
      "inputs": [
        {
          "internalType": "uint256",
          "name": "_tokenId",
          "type": "uint256"
        },
        {
          "internalType": "string",
          "name": "_tokenURI",
          "type": "string"
        }
      ],
      "name": "updateTokenURI",
      "outputs": [],
      "stateMutability": "nonpayable",
      "type": "function"
    }
  ],
  "bytecode": "0x60806040526001600e556040518060400160405280600781526020017f697066733a2f2f00000000000000000000000000000000000000000000000000815250601390805190602001906200005692919062000419565b5060006017553480156200006957600080fd5b506040518060400160405280600f81526020017f547572746c6543686172616374657200000000000000000000000000000000008152506040518060400160405280600481526020017f5452544c00000000000000000000000000000000000000000000000000000000815250620000ee6301ffc9a760e01b620002cc60201b60201c565b81600690805190602001906200010692919062000419565b5080600790805190602001906200011f92919062000419565b50620001386380ac58cd60e01b620002cc60201b60201c565b62000150635b5e139f60e01b620002cc60201b60201c565b6200016863780e9d6360e01b620002cc60201b60201c565b50506200018f73326c977e6efc84e512bb9c30f76e30c160ed06fb620003d560201b60201c565b600060178190555033601060006101000a81548173ffffffffffffffffffffffffffffffffffffffff021916908373ffffffffffffffffffffffffffffffffffffffff16021790555060405180606001604052806023815260200162005e7760239139601890805190602001906200020992919062000419565b506040518060600160405280602a815260200162005e9a602a9139601990805190602001906200023b92919062000419565b5073c8d925525ca8759812d0c299b90247917d4d4b7c601460006101000a81548173ffffffffffffffffffffffffffffffffffffffff021916908373ffffffffffffffffffffffffffffffffffffffff1602179055507f6137333330643062346239363463303561626336366132363330373034376330601581905550662386f26fc10000601681905550620004c8565b63ffffffff60e01b817bffffffffffffffffffffffffffffffffffffffffffffffffffffffff1916141562000369576040517f08c379a000000000000000000000000000000000000000000000000000000000815260040180806020018281038252601c8152602001807f4552433136353a20696e76616c696420696e746572666163652069640000000081525060200191505060405180910390fd5b6001600080837bffffffffffffffffffffffffffffffffffffffffffffffffffffffff19167bffffffffffffffffffffffffffffffffffffffffffffffffffffffff1916815260200190815260200160002060006101000a81548160ff02191690831515021790555050565b80600c60006101000a81548173ffffffffffffffffffffffffffffffffffffffff021916908373ffffffffffffffffffffffffffffffffffffffff16021790555050565b828054600181600116156101000203166002900490600052602060002090601f016020900481019282601f106200045c57805160ff19168380011785556200048d565b828001600101855582156200048d579182015b828111156200048c5782518255916020019190600101906200046f565b5b5090506200049c9190620004a0565b5090565b620004c591905b80821115620004c1576000816000905550600101620004a7565b5090565b90565b61599f80620004d86000396000f3fe6080604052600436106101ed5760003560e01c80634c69c00f1161010d578063a22cb465116100a0578063c87b56dd1161006f578063c87b56dd14610fc4578063ce606ee014611078578063e503cafa146110cf578063e985e9c514611199578063f2044fe914611222576101ed565b8063a22cb46514610dcb578063a5ac5f1c14610e28578063a748efb214610e63578063b88d4fde14610eb2576101ed565b80636c0360eb116100dc5780636c0360eb14610b7e57806370a0823114610c0e578063877f282b14610c7357806395d89b4114610d3b576101ed565b80634c69c00f1461099b5780634f6ccce7146109ec5780635a71729914610a3b5780636352211e14610b03576101ed565b806318e97fd1116101855780632f745c59116101545780632f745c5914610721578063328c9f02146107905780633380f0681461085857806342842e0e14610920576101ed565b806318e97fd1146104ff57806323b872dd146105d15780632b22aaea1461064c5780632b9d8c9a14610691576101ed565b8063081812fc116101c1578063081812fc146103b9578063095ea7b31461043457806318160ddd1461048f578063184d9bb9146104ba576101ed565b8062ce8e3e146101f257806301ffc9a71461025e578063042f2b65146102d057806306fdde0314610329575b600080fd5b3480156101fe57600080fd5b50610207611250565b6040518080602001828103825283818151815260200191508051906020019060200280838360005b8381101561024a57808201518184015260208101905061022f565b505050509050019250505060405180910390f35b34801561026a57600080fd5b506102b66004803603602081101561028157600080fd5b8101908080357bffffffffffffffffffffffffffffffffffffffffffffffffffffffff191690602001909291905050506112de565b604051808215151515815260200191505060405180910390f35b3480156102dc57600080fd5b50610313600480360360408110156102f357600080fd5b810190808035906020019092919080359060200190929190505050611345565b6040518082815260200191505060405180910390f35b34801561033557600080fd5b5061033e611623565b6040518080602001828103825283818151815260200191508051906020019080838360005b8381101561037e578082015181840152602081019050610363565b50505050905090810190601f1680156103ab5780820380516001836020036101000a031916815260200191505b509250505060405180910390f35b3480156103c557600080fd5b506103f2600480360360208110156103dc57600080fd5b81019080803590602001909291905050506116c5565b604051808273ffffffffffffffffffffffffffffffffffffffff1673ffffffffffffffffffffffffffffffffffffffff16815260200191505060405180910390f35b34801561044057600080fd5b5061048d6004803603604081101561045757600080fd5b81019080803573ffffffffffffffffffffffffffffffffffffffff16906020019092919080359060200190929190505050611760565b005b34801561049b57600080fd5b506104a46118a4565b6040518082815260200191505060405180910390f35b3480156104c657600080fd5b506104fd600480360360408110156104dd57600080fd5b8101908080359060200190929190803590602001909291905050506118b5565b005b34801561050b57600080fd5b506105cf6004803603604081101561052257600080fd5b81019080803590602001909291908035906020019064010000000081111561054957600080fd5b82018360208201111561055b57600080fd5b8035906020019184600183028401116401000000008311171561057d57600080fd5b91908080601f016020809104026020016040519081016040528093929190818152602001838380828437600081840152601f19601f82011690508083019250505050505050919291929050505061196e565b005b3480156105dd57600080fd5b5061064a600480360360608110156105f457600080fd5b81019080803573ffffffffffffffffffffffffffffffffffffffff169060200190929190803573ffffffffffffffffffffffffffffffffffffffff16906020019092919080359060200190929190505050611a22565b005b34801561065857600080fd5b5061068f6004803603604081101561066f57600080fd5b810190808035906020019092919080359060200190929190505050611a98565b005b34801561069d57600080fd5b506106a6611d60565b6040518080602001828103825283818151815260200191508051906020019080838360005b838110156106e65780820151818401526020810190506106cb565b50505050905090810190601f1680156107135780820380516001836020036101000a031916815260200191505b509250505060405180910390f35b34801561072d57600080fd5b5061077a6004803603604081101561074457600080fd5b81019080803573ffffffffffffffffffffffffffffffffffffffff16906020019092919080359060200190929190505050611dfe565b6040518082815260200191505060405180910390f35b34801561079c57600080fd5b50610856600480360360208110156107b357600080fd5b81019080803590602001906401000000008111156107d057600080fd5b8201836020820111156107e257600080fd5b8035906020019184600183028401116401000000008311171561080457600080fd5b91908080601f016020809104026020016040519081016040528093929190818152602001838380828437600081840152601f19601f820116905080830192505050505050509192919290505050611e59565b005b34801561086457600080fd5b5061091e6004803603602081101561087b57600080fd5b810190808035906020019064010000000081111561089857600080fd5b8201836020820111156108aa57600080fd5b803590602001918460018302840111640100000000831117156108cc57600080fd5b91908080601f016020809104026020016040519081016040528093929190818152602001838380828437600081840152601f19601f820116905080830192505050505050509192919290505050611f19565b005b34801561092c57600080fd5b506109996004803603606081101561094357600080fd5b81019080803573ffffffffffffffffffffffffffffffffffffffff169060200190929190803573ffffffffffffffffffffffffffffffffffffffff169060200190929190803590602001909291905050506120cc565b005b3480156109a757600080fd5b506109ea600480360360208110156109be57600080fd5b81019080803573ffffffffffffffffffffffffffffffffffffffff1690602001909291905050506120ec565b005b3480156109f857600080fd5b50610a2560048036036020811015610a0f57600080fd5b81019080803590602001909291905050506121d6565b6040518082815260200191505060405180910390f35b348015610a4757600080fd5b50610b0160048036036020811015610a5e57600080fd5b8101908080359060200190640100000000811115610a7b57600080fd5b820183602082011115610a8d57600080fd5b80359060200191846001830284011164010000000083111715610aaf57600080fd5b91908080601f016020809104026020016040519081016040528093929190818152602001838380828437600081840152601f19601f8201169050808301925050505050505091929192905050506121f9565b005b348015610b0f57600080fd5b50610b3c60048036036020811015610b2657600080fd5b81019080803590602001909291905050506122b1565b604051808273ffffffffffffffffffffffffffffffffffffffff1673ffffffffffffffffffffffffffffffffffffffff16815260200191505060405180910390f35b348015610b8a57600080fd5b50610b936122e8565b6040518080602001828103825283818151815260200191508051906020019080838360005b83811015610bd3578082015181840152602081019050610bb8565b50505050905090810190601f168015610c005780820380516001836020036101000a031916815260200191505b509250505060405180910390f35b348015610c1a57600080fd5b50610c5d60048036036020811015610c3157600080fd5b81019080803573ffffffffffffffffffffffffffffffffffffffff16906020019092919050505061238a565b6040518082815260200191505060405180910390f35b348015610c7f57600080fd5b50610d3960048036036020811015610c9657600080fd5b8101908080359060200190640100000000811115610cb357600080fd5b820183602082011115610cc557600080fd5b80359060200191846001830284011164010000000083111715610ce757600080fd5b91908080601f016020809104026020016040519081016040528093929190818152602001838380828437600081840152601f19601f82011690508083019250505050505050919291929050505061245f565b005b348015610d4757600080fd5b50610d5061251f565b6040518080602001828103825283818151815260200191508051906020019080838360005b83811015610d90578082015181840152602081019050610d75565b50505050905090810190601f168015610dbd5780820380516001836020036101000a031916815260200191505b509250505060405180910390f35b348015610dd757600080fd5b50610e2660048036036040811015610dee57600080fd5b81019080803573ffffffffffffffffffffffffffffffffffffffff1690602001909291908035151590602001909291905050506125c1565b005b348015610e3457600080fd5b50610e6160048036036020811015610e4b57600080fd5b8101908080359060200190929190505050612779565b005b348015610e6f57600080fd5b50610e9c60048036036020811015610e8657600080fd5b8101908080359060200190929190505050612833565b6040518082815260200191505060405180910390f35b348015610ebe57600080fd5b50610fc260048036036080811015610ed557600080fd5b81019080803573ffffffffffffffffffffffffffffffffffffffff169060200190929190803573ffffffffffffffffffffffffffffffffffffffff1690602001909291908035906020019092919080359060200190640100000000811115610f3c57600080fd5b820183602082011115610f4e57600080fd5b80359060200191846001830284011164010000000083111715610f7057600080fd5b91908080601f016020809104026020016040519081016040528093929190818152602001838380828437600081840152601f19601f82011690508083019250505050505050919291929050505061284b565b005b348015610fd057600080fd5b50610ffd60048036036020811015610fe757600080fd5b81019080803590602001909291905050506128c3565b6040518080602001828103825283818151815260200191508051906020019080838360005b8381101561103d578082015181840152602081019050611022565b50505050905090810190601f16801561106a5780820380516001836020036101000a031916815260200191505b509250505060405180910390f35b34801561108457600080fd5b5061108d612b94565b604051808273ffffffffffffffffffffffffffffffffffffffff1673ffffffffffffffffffffffffffffffffffffffff16815260200191505060405180910390f35b3480156110db57600080fd5b5061111e600480360360208110156110f257600080fd5b81019080803573ffffffffffffffffffffffffffffffffffffffff169060200190929190505050612bba565b6040518080602001828103825283818151815260200191508051906020019080838360005b8381101561115e578082015181840152602081019050611143565b50505050905090810190601f16801561118b5780820380516001836020036101000a031916815260200191505b509250505060405180910390f35b3480156111a557600080fd5b50611208600480360360408110156111bc57600080fd5b81019080803573ffffffffffffffffffffffffffffffffffffffff169060200190929190803573ffffffffffffffffffffffffffffffffffffffff169060200190929190505050612c6a565b604051808215151515815260200191505060405180910390f35b61124e6004803603602081101561123857600080fd5b8101908080359060200190929190505050612cfe565b005b6060601a8054806020026020016040519081016040528092919081815260200182805480156112d457602002820191906000526020600020905b8160009054906101000a900473ffffffffffffffffffffffffffffffffffffffff1673ffffffffffffffffffffffffffffffffffffffff168152602001906001019080831161128a575b5050505050905090565b6000806000837bffffffffffffffffffffffffffffffffffffffffffffffffffffffff19167bffffffffffffffffffffffffffffffffffffffffffffffffffffffff1916815260200190815260200160002060009054906101000a900460ff169050919050565b600082600f600082815260200190815260200160002060009054906101000a900473ffffffffffffffffffffffffffffffffffffffff1673ffffffffffffffffffffffffffffffffffffffff163373ffffffffffffffffffffffffffffffffffffffff16146113ff576040517f08c379a000000000000000000000000000000000000000000000000000000000815260040180806020018281038252602881526020018061591e6028913960400191505060405180910390fd5b600f600082815260200190815260200160002060006101000a81549073ffffffffffffffffffffffffffffffffffffffff0219169055807f7cc135e0cebb02c3480ae5d74d377283180a2601f8f644edf7987b009316c63a60405160405180910390a28260118190555061147161552d565b61148560155430632b22aaea60e01b612f56565b905061156b6040518060400160405280600381526020017f676574000000000000000000000000000000000000000000000000000000000081525060198054600181600116156101000203166002900480601f0160208091040260200160405190810160405280929190818152602001828054600181600116156101000203166002900480156115565780601f1061152b57610100808354040283529160200191611556565b820191906000526020600020905b81548152906001019060200180831161153957829003601f168201915b505050505083612f879092919063ffffffff16565b6115ea6040518060400160405280600481526020017f70617468000000000000000000000000000000000000000000000000000000008152506040518060400160405280600981526020017f495046535f50415448000000000000000000000000000000000000000000000081525083612f879092919063ffffffff16565b611619601460009054906101000a900473ffffffffffffffffffffffffffffffffffffffff1682601654612fba565b9250505092915050565b606060068054600181600116156101000203166002900480601f0160208091040260200160405190810160405280929190818152602001828054600181600116156101000203166002900480156116bb5780601f10611690576101008083540402835291602001916116bb565b820191906000526020600020905b81548152906001019060200180831161169e57829003601f168201915b5050505050905090565b60006116d082613272565b611725576040517f08c379a000000000000000000000000000000000000000000000000000000000815260040180806020018281038252602c81526020018061581c602c913960400191505060405180910390fd5b6004600083815260200190815260200160002060009054906101000a900473ffffffffffffffffffffffffffffffffffffffff169050919050565b600061176b826122b1565b90508073ffffffffffffffffffffffffffffffffffffffff168373ffffffffffffffffffffffffffffffffffffffff1614156117f2576040517f08c379a00000000000000000000000000000000000000000000000000000000081526004018080602001828103825260218152602001806158cc6021913960400191505060405180910390fd5b8073ffffffffffffffffffffffffffffffffffffffff1661181161328f565b73ffffffffffffffffffffffffffffffffffffffff161480611840575061183f8161183a61328f565b612c6a565b5b611895576040517f08c379a000000000000000000000000000000000000000000000000000000000815260040180806020018281038252603881526020018061576f6038913960400191505060405180910390fd5b61189f8383613297565b505050565b60006118b06002613350565b905090565b6118c66118c061328f565b83613365565b61191b576040517f08c379a000000000000000000000000000000000000000000000000000000000815260040180806020018281038252602881526020018061567c6028913960400191505060405180910390fd5b80601b6000848152602001908152602001600020819055507f5cfd7981b7826a1543139612aae7cac778558e6d89d166a9d4b69423535fe087826040518082815260200191505060405180910390a15050565b601060009054906101000a900473ffffffffffffffffffffffffffffffffffffffff1673ffffffffffffffffffffffffffffffffffffffff163373ffffffffffffffffffffffffffffffffffffffff1614611a14576040517f08c379a00000000000000000000000000000000000000000000000000000000081526004018080602001828103825260248152602001806159466024913960400191505060405180910390fd5b611a1e8282613459565b5050565b611a33611a2d61328f565b82613365565b611a88576040517f08c379a00000000000000000000000000000000000000000000000000000000081526004018080602001828103825260318152602001806158ed6031913960400191505060405180910390fd5b611a938383836134e3565b505050565b81600f600082815260200190815260200160002060009054906101000a900473ffffffffffffffffffffffffffffffffffffffff1673ffffffffffffffffffffffffffffffffffffffff163373ffffffffffffffffffffffffffffffffffffffff1614611b50576040517f08c379a000000000000000000000000000000000000000000000000000000000815260040180806020018281038252602881526020018061591e6028913960400191505060405180910390fd5b600f600082815260200190815260200160002060006101000a81549073ffffffffffffffffffffffffffffffffffffffff0219169055807f7cc135e0cebb02c3480ae5d74d377283180a2601f8f644edf7987b009316c63a60405160405180910390a281601281905550611bc2613726565b7f1a1317a9b735d6402ccd1a577bb88ad490d3c2301e44fa83a56561c708287bdb60136040518080602001828103825283818154600181600116156101000203166002900481526020019150805460018160011615610100020316600290048015611c6e5780601f10611c4357610100808354040283529160200191611c6e565b820191906000526020600020905b815481529060010190602001808311611c5157829003601f168201915b50509250505060405180910390a1611d1f60138054600181600116156101000203166002900480601f016020809104026020016040519081016040528092919081815260200182805460018160011615610100020316600290048015611d155780601f10611cea57610100808354040283529160200191611d15565b820191906000526020600020905b815481529060010190602001808311611cf857829003601f168201915b5050505050613928565b7f375888a712a23aa4f960c32984e16baf008be32cc52f7b9c12212feee89eb6086001601754036040518082815260200191505060405180910390a1505050565b60138054600181600116156101000203166002900480601f016020809104026020016040519081016040528092919081815260200182805460018160011615610100020316600290048015611df65780601f10611dcb57610100808354040283529160200191611df6565b820191906000526020600020905b815481529060010190602001808311611dd957829003601f168201915b505050505081565b6000611e5182600160008673ffffffffffffffffffffffffffffffffffffffff1673ffffffffffffffffffffffffffffffffffffffff16815260200190815260200160002061394590919063ffffffff16565b905092915050565b601060009054906101000a900473ffffffffffffffffffffffffffffffffffffffff1673ffffffffffffffffffffffffffffffffffffffff163373ffffffffffffffffffffffffffffffffffffffff1614611eff576040517f08c379a00000000000000000000000000000000000000000000000000000000081526004018080602001828103825260248152602001806159466024913960400191505060405180910390fd5b8060199080519060200190611f1592919061559a565b5050565b611f23813361395f565b6040518060400160405280600781526020017f697066733a2f2f0000000000000000000000000000000000000000000000000081525060139080519060200190611f6e92919061559a565b50611f89336017600081548092919060010191905055613b02565b606061206560188054600181600116156101000203166002900480601f0160208091040260200160405190810160405280929190818152602001828054600181600116156101000203166002900480156120245780601f10611ff957610100808354040283529160200191612024565b820191906000526020600020905b81548152906001019060200180831161200757829003601f168201915b50505050506040518060400160405280600781526020017f3f73636f72653d0000000000000000000000000000000000000000000000000081525084613b20565b905060606120796120746118a4565b613c3c565b90506120bb826040518060400160405280600d81526020017f2663686172616374657249643d0000000000000000000000000000000000000081525083613b20565b91506120c682613d8c565b50505050565b6120e78383836040518060200160405280600081525061284b565b505050565b601060009054906101000a900473ffffffffffffffffffffffffffffffffffffffff1673ffffffffffffffffffffffffffffffffffffffff163373ffffffffffffffffffffffffffffffffffffffff1614612192576040517f08c379a00000000000000000000000000000000000000000000000000000000081526004018080602001828103825260248152602001806159466024913960400191505060405180910390fd5b80601460006101000a81548173ffffffffffffffffffffffffffffffffffffffff021916908373ffffffffffffffffffffffffffffffffffffffff16021790555050565b6000806121ed836002613eac90919063ffffffff16565b50905080915050919050565b601060009054906101000a900473ffffffffffffffffffffffffffffffffffffffff1673ffffffffffffffffffffffffffffffffffffffff163373ffffffffffffffffffffffffffffffffffffffff161461229f576040517f08c379a00000000000000000000000000000000000000000000000000000000081526004018080602001828103825260248152602001806159466024913960400191505060405180910390fd5b6122a881613edb565b60158190555050565b60006122e1826040518060600160405280602981526020016157d1602991396002613f069092919063ffffffff16565b9050919050565b606060098054600181600116156101000203166002900480601f0160208091040260200160405190810160405280929190818152602001828054600181600116156101000203166002900480156123805780601f1061235557610100808354040283529160200191612380565b820191906000526020600020905b81548152906001019060200180831161236357829003601f168201915b5050505050905090565b60008073ffffffffffffffffffffffffffffffffffffffff168273ffffffffffffffffffffffffffffffffffffffff161415612411576040517f08c379a000000000000000000000000000000000000000000000000000000000815260040180806020018281038252602a8152602001806157a7602a913960400191505060405180910390fd5b612458600160008473ffffffffffffffffffffffffffffffffffffffff1673ffffffffffffffffffffffffffffffffffffffff168152602001908152602001600020613f25565b9050919050565b601060009054906101000a900473ffffffffffffffffffffffffffffffffffffffff1673ffffffffffffffffffffffffffffffffffffffff163373ffffffffffffffffffffffffffffffffffffffff1614612505576040517f08c379a00000000000000000000000000000000000000000000000000000000081526004018080602001828103825260248152602001806159466024913960400191505060405180910390fd5b806018908051906020019061251b92919061559a565b5050565b606060078054600181600116156101000203166002900480601f0160208091040260200160405190810160405280929190818152602001828054600181600116156101000203166002900480156125b75780601f1061258c576101008083540402835291602001916125b7565b820191906000526020600020905b81548152906001019060200180831161259a57829003601f168201915b5050505050905090565b6125c961328f565b73ffffffffffffffffffffffffffffffffffffffff168273ffffffffffffffffffffffffffffffffffffffff16141561266a576040517f08c379a00000000000000000000000000000000000000000000000000000000081526004018080602001828103825260198152602001807f4552433732313a20617070726f766520746f2063616c6c65720000000000000081525060200191505060405180910390fd5b806005600061267761328f565b73ffffffffffffffffffffffffffffffffffffffff1673ffffffffffffffffffffffffffffffffffffffff16815260200190815260200160002060008473ffffffffffffffffffffffffffffffffffffffff1673ffffffffffffffffffffffffffffffffffffffff16815260200190815260200160002060006101000a81548160ff0219169083151502179055508173ffffffffffffffffffffffffffffffffffffffff1661272461328f565b73ffffffffffffffffffffffffffffffffffffffff167f17307eab39ab6107e8899845ad3d59bd9653f200f220920489ca2b5937696c3183604051808215151515815260200191505060405180910390a35050565b601060009054906101000a900473ffffffffffffffffffffffffffffffffffffffff1673ffffffffffffffffffffffffffffffffffffffff163373ffffffffffffffffffffffffffffffffffffffff161461281f576040517f08c379a00000000000000000000000000000000000000000000000000000000081526004018080602001828103825260248152602001806159466024913960400191505060405180910390fd5b670de0b6b3a7640000810260168190555050565b601b6020528060005260406000206000915090505481565b61285c61285661328f565b83613365565b6128b1576040517f08c379a00000000000000000000000000000000000000000000000000000000081526004018080602001828103825260318152602001806158ed6031913960400191505060405180910390fd5b6128bd84848484613f3a565b50505050565b60606128ce82613272565b612923576040517f08c379a000000000000000000000000000000000000000000000000000000000815260040180806020018281038252602f81526020018061589d602f913960400191505060405180910390fd5b6060600860008481526020019081526020016000208054600181600116156101000203166002900480601f0160208091040260200160405190810160405280929190818152602001828054600181600116156101000203166002900480156129cc5780601f106129a1576101008083540402835291602001916129cc565b820191906000526020600020905b8154815290600101906020018083116129af57829003601f168201915b5050505050905060606129dd6122e8565b90506000815114156129f3578192505050612b8f565b600082511115612ac45780826040516020018083805190602001908083835b60208310612a355780518252602082019150602081019050602083039250612a12565b6001836020036101000a03801982511681845116808217855250505050505090500182805190602001908083835b60208310612a865780518252602082019150602081019050602083039250612a63565b6001836020036101000a0380198251168184511680821785525050505050509050019250505060405160208183030381529060405292505050612b8f565b80612ace85613fac565b6040516020018083805190602001908083835b60208310612b045780518252602082019150602081019050602083039250612ae1565b6001836020036101000a03801982511681845116808217855250505050505090500182805190602001908083835b60208310612b555780518252602082019150602081019050602083039250612b32565b6001836020036101000a03801982511681845116808217855250505050505090500192505050604051602081830303815290604052925050505b919050565b601060009054906101000a900473ffffffffffffffffffffffffffffffffffffffff1681565b601c6020528060005260406000206000915090508054600181600116156101000203166002900480601f016020809104026020016040519081016040528092919081815260200182805460018160011615610100020316600290048015612c625780601f10612c3757610100808354040283529160200191612c62565b820191906000526020600020905b815481529060010190602001808311612c4557829003601f168201915b505050505081565b6000600560008473ffffffffffffffffffffffffffffffffffffffff1673ffffffffffffffffffffffffffffffffffffffff16815260200190815260200160002060008373ffffffffffffffffffffffffffffffffffffffff1673ffffffffffffffffffffffffffffffffffffffff16815260200190815260200160002060009054906101000a900460ff16905092915050565b6000601b60008381526020019081526020016000205411612d87576040517f08c379a00000000000000000000000000000000000000000000000000000000081526004018080602001828103825260208152602001807f54686520547572746c652073686f756c6420626520757020666f722073616c6581525060200191505060405180910390fd5b6000601b60008381526020019081526020016000205490506000601b6000848152602001908152602001600020819055506000612dc3836122b1565b9050813411612e3a576040517f08c379a000000000000000000000000000000000000000000000000000000000815260040180806020018281038252601d8152602001807f596f75206e65656420746f206861766520656e6f75676820457468657200000081525060200191505060405180910390fd5b612e7b8133856040518060400160405280600c81526020017f427579206120547572746c650000000000000000000000000000000000000000815250613f3a565b60008190508073ffffffffffffffffffffffffffffffffffffffff166108fc849081150290604051600060405180830381858888f19350505050158015612ec6573d6000803e3d6000fd5b5082341115612f19573373ffffffffffffffffffffffffffffffffffffffff166108fc8434039081150290604051600060405180830381858888f19350505050158015612f17573d6000803e3d6000fd5b505b7f8c78864e67a7dfb4ed185a3b2dad4a13fd8a7f807e84ecf1687eab5cb297676e846040518082815260200191505060405180910390a150505050565b612f5e61552d565b612f6661552d565b612f7d858585846140f3909392919063ffffffff16565b9150509392505050565b612f9e8284608001516141a390919063ffffffff16565b612fb58184608001516141a390919063ffffffff16565b505050565b600030600e54604051602001808373ffffffffffffffffffffffffffffffffffffffff1673ffffffffffffffffffffffffffffffffffffffff1660601b815260140182815260200192505050604051602081830303815290604052805190602001209050600e5483606001818152505083600f600083815260200190815260200160002060006101000a81548173ffffffffffffffffffffffffffffffffffffffff021916908373ffffffffffffffffffffffffffffffffffffffff160217905550807fb5e6e01e79f91267dc17b4e6314d5d4d03593d2ceee0fbb452b750bd70ea5af960405160405180910390a2600c60009054906101000a900473ffffffffffffffffffffffffffffffffffffffff1673ffffffffffffffffffffffffffffffffffffffff16634000aea085846130f2876141c8565b6040518463ffffffff1660e01b8152600401808473ffffffffffffffffffffffffffffffffffffffff1673ffffffffffffffffffffffffffffffffffffffff16815260200183815260200180602001828103825283818151815260200191508051906020019080838360005b8381101561317957808201518184015260208101905061315e565b50505050905090810190601f1680156131a65780820380516001836020036101000a031916815260200191505b50945050505050602060405180830381600087803b1580156131c757600080fd5b505af11580156131db573d6000803e3d6000fd5b505050506040513d60208110156131f157600080fd5b8101908080519060200190929190505050613257576040517f08c379a00000000000000000000000000000000000000000000000000000000081526004018080602001828103825260238152602001806156d66023913960400191505060405180910390fd5b6001600e600082825401925050819055508090509392505050565b600061328882600261439490919063ffffffff16565b9050919050565b600033905090565b816004600083815260200190815260200160002060006101000a81548173ffffffffffffffffffffffffffffffffffffffff021916908373ffffffffffffffffffffffffffffffffffffffff160217905550808273ffffffffffffffffffffffffffffffffffffffff1661330a836122b1565b73ffffffffffffffffffffffffffffffffffffffff167f8c5be1e5ebec7d5bd14f71427d1e84f3dd0314c0f7b2291e5b200ac8c7c3b92560405160405180910390a45050565b600061335e826000016143ae565b9050919050565b600061337082613272565b6133c5576040517f08c379a000000000000000000000000000000000000000000000000000000000815260040180806020018281038252602c815260200180615743602c913960400191505060405180910390fd5b60006133d0836122b1565b90508073ffffffffffffffffffffffffffffffffffffffff168473ffffffffffffffffffffffffffffffffffffffff16148061343f57508373ffffffffffffffffffffffffffffffffffffffff16613427846116c5565b73ffffffffffffffffffffffffffffffffffffffff16145b80613450575061344f8185612c6a565b5b91505092915050565b61346282613272565b6134b7576040517f08c379a000000000000000000000000000000000000000000000000000000000815260040180806020018281038252602c815260200180615848602c913960400191505060405180910390fd5b806008600084815260200190815260200160002090805190602001906134de92919061559a565b505050565b8273ffffffffffffffffffffffffffffffffffffffff16613503826122b1565b73ffffffffffffffffffffffffffffffffffffffff161461356f576040517f08c379a00000000000000000000000000000000000000000000000000000000081526004018080602001828103825260298152602001806158746029913960400191505060405180910390fd5b600073ffffffffffffffffffffffffffffffffffffffff168273ffffffffffffffffffffffffffffffffffffffff1614156135f5576040517f08c379a00000000000000000000000000000000000000000000000000000000081526004018080602001828103825260248152602001806156f96024913960400191505060405180910390fd5b6136008383836143bf565b61360b600082613297565b61365c81600160008673ffffffffffffffffffffffffffffffffffffffff1673ffffffffffffffffffffffffffffffffffffffff1681526020019081526020016000206143c490919063ffffffff16565b506136ae81600160008573ffffffffffffffffffffffffffffffffffffffff1673ffffffffffffffffffffffffffffffffffffffff1681526020019081526020016000206143de90919063ffffffff16565b506136c5818360026143f89092919063ffffffff16565b50808273ffffffffffffffffffffffffffffffffffffffff168473ffffffffffffffffffffffffffffffffffffffff167fddf252ad1be2c89b69c2b068fc378daa952ba7f163c4a11628f55a4df523b3ef60405160405180910390a4505050565b606061373360115461442d565b9050606061374260125461442d565b90506137e960138054600181600116156101000203166002900480601f0160208091040260200160405190810160405280929190818152602001828054600181600116156101000203166002900480156137dd5780601f106137b2576101008083540402835291602001916137dd565b820191906000526020600020905b8154815290600101906020018083116137c057829003601f168201915b50505050508383613b20565b601390805190602001906137fe92919061559a565b5061390e60138054600181600116156101000203166002900480601f0160208091040260200160405190810160405280929190818152602001828054600181600116156101000203166002900480156138985780601f1061386d57610100808354040283529160200191613898565b820191906000526020600020905b81548152906001019060200180831161387b57829003601f168201915b50505050506040518060400160405280600981526020017f2f6d6574616461746100000000000000000000000000000000000000000000008152506040518060400160405280600581526020017f2e6a736f6e000000000000000000000000000000000000000000000000000000815250613b20565b6013908051906020019061392392919061559a565b505050565b600060016139346118a4565b0390506139418183613459565b5050565b600061395483600001836145a1565b60001c905092915050565b6060601c60008373ffffffffffffffffffffffffffffffffffffffff1673ffffffffffffffffffffffffffffffffffffffff1681526020019081526020016000208054600181600116156101000203166002900480601f016020809104026020016040519081016040528092919081815260200182805460018160011615610100020316600290048015613a345780601f10613a0957610100808354040283529160200191613a34565b820191906000526020600020905b815481529060010190602001808311613a1757829003601f168201915b50505050509050600081511415613aa957601a829080600181540180825580915050600190039060005260206000200160009091909190916101000a81548173ffffffffffffffffffffffffffffffffffffffff021916908373ffffffffffffffffffffffffffffffffffffffff1602179055505b82601c60008473ffffffffffffffffffffffffffffffffffffffff1673ffffffffffffffffffffffffffffffffffffffff1681526020019081526020016000209080519060200190613afc92919061559a565b50505050565b613b1c828260405180602001604052806000815250614624565b5050565b60608383836040516020018084805190602001908083835b60208310613b5b5780518252602082019150602081019050602083039250613b38565b6001836020036101000a03801982511681845116808217855250505050505090500183805190602001908083835b60208310613bac5780518252602082019150602081019050602083039250613b89565b6001836020036101000a03801982511681845116808217855250505050505090500182805190602001908083835b60208310613bfd5780518252602082019150602081019050602083039250613bda565b6001836020036101000a038019825116818451168082178552505050505050905001935050505060405160208183030381529060405290509392505050565b60606000821415613c84576040518060400160405280600181526020017f30000000000000000000000000000000000000000000000000000000000000008152509050613d87565b600082905060005b60008214613cae578080600101915050600a8281613ca657fe5b049150613c8c565b60608167ffffffffffffffff81118015613cc757600080fd5b506040519080825280601f01601f191660200182016040528015613cfa5781602001600182028036833780820191505090505b50905060008290505b60008614613d7f576001810390506000600a808881613d1e57fe5b04028703603001905060008160f81b905080848481518110613d3c57fe5b60200101907effffffffffffffffffffffffffffffffffffffffffffffffffffffffffffff1916908160001a905350600a8881613d7557fe5b0497505050613d03565b819450505050505b919050565b6000613d9661552d565b613daa6015543063042f2b6560e01b612f56565b9050613df66040518060400160405280600381526020017f67657400000000000000000000000000000000000000000000000000000000008152508483612f879092919063ffffffff16565b613e756040518060400160405280600481526020017f70617468000000000000000000000000000000000000000000000000000000008152506040518060400160405280600981526020017f495046535f50415448000000000000000000000000000000000000000000000081525083612f879092919063ffffffff16565b613ea4601460009054906101000a900473ffffffffffffffffffffffffffffffffffffffff1682601654612fba565b915050919050565b600080600080613ebf8660000186614695565b915091508160001c8160001c8090509350935050509250929050565b60006060829050600081511415613ef8576000801b915050613f01565b60208301519150505b919050565b6000613f19846000018460001b8461472e565b60001c90509392505050565b6000613f3382600001614824565b9050919050565b613f458484846134e3565b613f5184848484614835565b613fa6576040517f08c379a00000000000000000000000000000000000000000000000000000000081526004018080602001828103825260328152602001806156a46032913960400191505060405180910390fd5b50505050565b60606000821415613ff4576040518060400160405280600181526020017f300000000000000000000000000000000000000000000000000000000000000081525090506140ee565b600082905060005b6000821461401e578080600101915050600a828161401657fe5b049150613ffc565b60608167ffffffffffffffff8111801561403757600080fd5b506040519080825280601f01601f19166020018201604052801561406a5781602001600182028036833780820191505090505b50905060006001830390508593505b600084146140e657600a848161408b57fe5b0660300160f81b828280600190039350815181106140a557fe5b60200101907effffffffffffffffffffffffffffffffffffffffffffffffffffffffffffff1916908160001a905350600a84816140de57fe5b049350614079565b819450505050505b919050565b6140fb61552d565b61410b8560800151610100614a7a565b508385600001818152505082856020019073ffffffffffffffffffffffffffffffffffffffff16908173ffffffffffffffffffffffffffffffffffffffff16815250508185604001907bffffffffffffffffffffffffffffffffffffffffffffffffffffffff191690817bffffffffffffffffffffffffffffffffffffffffffffffffffffffff191681525050849050949350505050565b6141b08260038351614ace565b6141c38183614c1390919063ffffffff16565b505050565b6060634042994660e01b60008084600001518560200151866040015187606001516001896080015160000151604051602401808973ffffffffffffffffffffffffffffffffffffffff1673ffffffffffffffffffffffffffffffffffffffff1681526020018881526020018781526020018673ffffffffffffffffffffffffffffffffffffffff1673ffffffffffffffffffffffffffffffffffffffff168152602001857bffffffffffffffffffffffffffffffffffffffffffffffffffffffff19167bffffffffffffffffffffffffffffffffffffffffffffffffffffffff1916815260200184815260200183815260200180602001828103825283818151815260200191508051906020019080838360005b838110156142f75780820151818401526020810190506142dc565b50505050905090810190601f1680156143245780820380516001836020036101000a031916815260200191505b509950505050505050505050604051602081830303815290604052907bffffffffffffffffffffffffffffffffffffffffffffffffffffffff19166020820180517bffffffffffffffffffffffffffffffffffffffffffffffffffffffff83818316178352505050509050919050565b60006143a6836000018360001b614c35565b905092915050565b600081600001805490509050919050565b505050565b60006143d6836000018360001b614c58565b905092915050565b60006143f0836000018360001b614d40565b905092915050565b6000614424846000018460001b8473ffffffffffffffffffffffffffffffffffffffff1660001b614db0565b90509392505050565b606060008090505b60208160ff161080156144805750600060f81b838260ff166020811061445757fe5b1a60f81b7effffffffffffffffffffffffffffffffffffffffffffffffffffffffffffff191614155b15614492578080600101915050614435565b60608160ff1667ffffffffffffffff811180156144ae57600080fd5b506040519080825280601f01601f1916602001820160405280156144e15781602001600182028036833780820191505090505b509050600091505b60208260ff161080156145345750600060f81b848360ff166020811061450b57fe5b1a60f81b7effffffffffffffffffffffffffffffffffffffffffffffffffffffffffffff191614155b1561459757838260ff166020811061454857fe5b1a60f81b818360ff168151811061455b57fe5b60200101907effffffffffffffffffffffffffffffffffffffffffffffffffffffffffffff1916908160001a90535081806001019250506144e9565b8092505050919050565b600081836000018054905011614602576040517f08c379a000000000000000000000000000000000000000000000000000000000815260040180806020018281038252602281526020018061565a6022913960400191505060405180910390fd5b82600001828154811061461157fe5b9060005260206000200154905092915050565b61462e8383614e8c565b61463b6000848484614835565b614690576040517f08c379a00000000000000000000000000000000000000000000000000000000081526004018080602001828103825260328152602001806156a46032913960400191505060405180910390fd5b505050565b600080828460000180549050116146f7576040517f08c379a00000000000000000000000000000000000000000000000000000000081526004018080602001828103825260228152602001806157fa6022913960400191505060405180910390fd5b600084600001848154811061470857fe5b906000526020600020906002020190508060000154816001015492509250509250929050565b600080846001016000858152602001908152602001600020549050600081141583906147f5576040517f08c379a00000000000000000000000000000000000000000000000000000000081526004018080602001828103825283818151815260200191508051906020019080838360005b838110156147ba57808201518184015260208101905061479f565b50505050905090810190601f1680156147e75780820380516001836020036101000a031916815260200191505b509250505060405180910390fd5b5084600001600182038154811061480857fe5b9060005260206000209060020201600101549150509392505050565b600081600001805490509050919050565b60006148568473ffffffffffffffffffffffffffffffffffffffff16615080565b6148635760019050614a72565b60606149f963150b7a0260e01b61487861328f565b888787604051602401808573ffffffffffffffffffffffffffffffffffffffff1673ffffffffffffffffffffffffffffffffffffffff1681526020018473ffffffffffffffffffffffffffffffffffffffff1673ffffffffffffffffffffffffffffffffffffffff16815260200183815260200180602001828103825283818151815260200191508051906020019080838360005b8381101561492857808201518184015260208101905061490d565b50505050905090810190601f1680156149555780820380516001836020036101000a031916815260200191505b5095505050505050604051602081830303815290604052907bffffffffffffffffffffffffffffffffffffffffffffffffffffffff19166020820180517bffffffffffffffffffffffffffffffffffffffffffffffffffffffff83818316178352505050506040518060600160405280603281526020016156a4603291398773ffffffffffffffffffffffffffffffffffffffff166150939092919063ffffffff16565b90506000818060200190516020811015614a1257600080fd5b8101908080519060200190929190505050905063150b7a0260e01b7bffffffffffffffffffffffffffffffffffffffffffffffffffffffff1916817bffffffffffffffffffffffffffffffffffffffffffffffffffffffff191614925050505b949350505050565b614a8261561a565b600060208381614a8e57fe5b0614614aa75760208281614a9e57fe5b06602003820191505b81836020018181525050604051808452600081528281016020016040525082905092915050565b60178111614afb57614af58160058460ff16901b60ff1617846150ab90919063ffffffff16565b50614c0e565b60ff8111614b3d57614b20601860058460ff16901b17846150ab90919063ffffffff16565b50614b37816001856150cb9092919063ffffffff16565b50614c0d565b61ffff8111614b8057614b63601960058460ff16901b17846150ab90919063ffffffff16565b50614b7a816002856150cb9092919063ffffffff16565b50614c0c565b63ffffffff8111614bc557614ba8601a60058460ff16901b17846150ab90919063ffffffff16565b50614bbf816004856150cb9092919063ffffffff16565b50614c0b565b67ffffffffffffffff8111614c0a57614bf1601b60058460ff16901b17846150ab90919063ffffffff16565b50614c08816008856150cb9092919063ffffffff16565b505b5b5b5b5b505050565b614c1b61561a565b614c2d838460000151518485516150ed565b905092915050565b600080836001016000848152602001908152602001600020541415905092915050565b60008083600101600084815260200190815260200160002054905060008114614d345760006001820390506000600186600001805490500390506000866000018281548110614ca357fe5b9060005260206000200154905080876000018481548110614cc057fe5b9060005260206000200181905550600183018760010160008381526020019081526020016000208190555086600001805480614cf857fe5b60019003818190600052602060002001600090559055866001016000878152602001908152602001600020600090556001945050505050614d3a565b60009150505b92915050565b6000614d4c83836151a6565b614da5578260000182908060018154018082558091505060019003906000526020600020016000909190919091505582600001805490508360010160008481526020019081526020016000208190555060019050614daa565b600090505b92915050565b6000808460010160008581526020019081526020016000205490506000811415614e5757846000016040518060400160405280868152602001858152509080600181540180825580915050600190039060005260206000209060020201600090919091909150600082015181600001556020820151816001015550508460000180549050856001016000868152602001908152602001600020819055506001915050614e85565b82856000016001830381548110614e6a57fe5b90600052602060002090600202016001018190555060009150505b9392505050565b600073ffffffffffffffffffffffffffffffffffffffff168273ffffffffffffffffffffffffffffffffffffffff161415614f2f576040517f08c379a00000000000000000000000000000000000000000000000000000000081526004018080602001828103825260208152602001807f4552433732313a206d696e7420746f20746865207a65726f206164647265737381525060200191505060405180910390fd5b614f3881613272565b15614fab576040517f08c379a000000000000000000000000000000000000000000000000000000000815260040180806020018281038252601c8152602001807f4552433732313a20746f6b656e20616c7265616479206d696e7465640000000081525060200191505060405180910390fd5b614fb7600083836143bf565b61500881600160008573ffffffffffffffffffffffffffffffffffffffff1673ffffffffffffffffffffffffffffffffffffffff1681526020019081526020016000206143de90919063ffffffff16565b5061501f818360026143f89092919063ffffffff16565b50808273ffffffffffffffffffffffffffffffffffffffff16600073ffffffffffffffffffffffffffffffffffffffff167fddf252ad1be2c89b69c2b068fc378daa952ba7f163c4a11628f55a4df523b3ef60405160405180910390a45050565b600080823b905060008111915050919050565b60606150a284846000856151c9565b90509392505050565b6150b361561a565b6150c38384600001515184615372565b905092915050565b6150d361561a565b6150e48485600001515185856153c0565b90509392505050565b6150f561561a565b825182111561510357600080fd5b8460200151828501111561512e5761512d8560026151278860200151888701615421565b0261543d565b5b60008086518051876020830101935080888701111561514d5787860182525b60208701925050505b602084106151795780518252602082019150602081019050602084039350615156565b60006001856020036101000a03905080198251168184511681811785525050879350505050949350505050565b600080836001016000848152602001908152602001600020541415905092915050565b606082471015615224576040517f08c379a000000000000000000000000000000000000000000000000000000000815260040180806020018281038252602681526020018061571d6026913960400191505060405180910390fd5b61522d85615080565b61529f576040517f08c379a000000000000000000000000000000000000000000000000000000000815260040180806020018281038252601d8152602001807f416464726573733a2063616c6c20746f206e6f6e2d636f6e747261637400000081525060200191505060405180910390fd5b600060608673ffffffffffffffffffffffffffffffffffffffff1685876040518082805190602001908083835b602083106152ef57805182526020820191506020810190506020830392506152cc565b6001836020036101000a03801982511681845116808217855250505050505090500191505060006040518083038185875af1925050503d8060008114615351576040519150601f19603f3d011682016040523d82523d6000602084013e615356565b606091505b5091509150615366828286615461565b92505050949350505050565b61537a61561a565b836020015183106153975761539684600286602001510261543d565b5b83518051602085830101848153818614156153b3576001820183525b5050508390509392505050565b6153c861561a565b846020015184830111156153e6576153e58560028685010261543d565b5b60006001836101000a03905085518386820101858319825116178152815185880111156154135784870182525b505085915050949350505050565b60008183111561543357829050615437565b8190505b92915050565b6060826000015190506154508383614a7a565b5061545b8382614c13565b50505050565b6060831561547157829050615526565b6000835111156154845782518084602001fd5b816040517f08c379a00000000000000000000000000000000000000000000000000000000081526004018080602001828103825283818151815260200191508051906020019080838360005b838110156154eb5780820151818401526020810190506154d0565b50505050905090810190601f1680156155185780820380516001836020036101000a031916815260200191505b509250505060405180910390fd5b9392505050565b6040518060a0016040528060008019168152602001600073ffffffffffffffffffffffffffffffffffffffff16815260200160007bffffffffffffffffffffffffffffffffffffffffffffffffffffffff191681526020016000815260200161559461561a565b81525090565b828054600181600116156101000203166002900490600052602060002090601f016020900481019282601f106155db57805160ff1916838001178555615609565b82800160010185558215615609579182015b828111156156085782518255916020019190600101906155ed565b5b5090506156169190615634565b5090565b604051806040016040528060608152602001600081525090565b61565691905b8082111561565257600081600090555060010161563a565b5090565b9056fe456e756d657261626c655365743a20696e646578206f7574206f6620626f756e64734552433732313a2043616c6c6572206973206e6f74206f776e6572206e6f7220617070726f7665644552433732313a207472616e7366657220746f206e6f6e20455243373231526563656976657220696d706c656d656e746572756e61626c6520746f207472616e73666572416e6443616c6c20746f206f7261636c654552433732313a207472616e7366657220746f20746865207a65726f2061646472657373416464726573733a20696e73756666696369656e742062616c616e636520666f722063616c6c4552433732313a206f70657261746f7220717565727920666f72206e6f6e6578697374656e7420746f6b656e4552433732313a20617070726f76652063616c6c6572206973206e6f74206f776e6572206e6f7220617070726f76656420666f7220616c6c4552433732313a2062616c616e636520717565727920666f7220746865207a65726f20616464726573734552433732313a206f776e657220717565727920666f72206e6f6e6578697374656e7420746f6b656e456e756d657261626c654d61703a20696e646578206f7574206f6620626f756e64734552433732313a20617070726f76656420717565727920666f72206e6f6e6578697374656e7420746f6b656e4552433732314d657461646174613a2055524920736574206f66206e6f6e6578697374656e7420746f6b656e4552433732313a207472616e73666572206f6620746f6b656e2074686174206973206e6f74206f776e4552433732314d657461646174613a2055524920717565727920666f72206e6f6e6578697374656e7420746f6b656e4552433732313a20617070726f76616c20746f2063757272656e74206f776e65724552433732313a207472616e736665722063616c6c6572206973206e6f74206f776e6572206e6f7220617070726f766564536f75726365206d75737420626520746865206f7261636c65206f662074686520726571756573745468652063616c6c6572206973206e6f742074686520636f6e7472616374206f776e6572a2646970667358221220721dea09ebc0a8ae23331f7d7939b4123231936abc42a12ad4e95a3cc06d117a64736f6c6343000606003368747470733a2f2f696d616765732d626c656e642e6865726f6b756170702e636f6d2f68747470733a2f2f696d616765732d626c656e642e6865726f6b756170702e636f6d2f7365636f6e642f",
  "immutableReferences": {},
  "source": "// SPDX-License-Identifier: MIT\r\npragma solidity ^0.6.6;\r\n\r\nimport \"@openzeppelin/contracts/token/ERC721/ERC721.sol\";\r\nimport \"@chainlink/contracts/src/v0.6/ChainlinkClient.sol\";\r\n\r\ncontract Turtis is ERC721, ChainlinkClient {\r\n  address public contractOwner; // Owner of this contract\r\n\r\n  // Bytes32 data related to IPFS Hash returned from the API\r\n  bytes32 private ipfsHashOneBytes32;\r\n  bytes32 private ipfsHashTwoBytes32;\r\n\r\n  string public ipfsLink = \"ipfs://\"; // Stores the IPFS link after the API call\r\n\r\n  // Chainlink Oracle, Job ID and fee required for making the API call using Chainlink\r\n  address private oracle;\r\n  bytes32 private jobId;\r\n  uint256 private fee;\r\n\r\n  uint256 private uniqueTokenId = 0; // Unique TokenID\r\n\r\n  string private apiBaseUrl; // Stores the base url of the api\r\n  string private apiSecondUrl; // API url for the second call\r\n\r\n  address[] private users; // Address array to store all the users\r\n\r\n  // Mapping from Token ID to Price\r\n  mapping(uint256 => uint256) public turtlesForSale;\r\n\r\n  // Mapping from User address to high score\r\n  mapping(address => string) public userAddressToHighScore;\r\n\r\n  // Events\r\n\r\n  // Emitted when a new Turtle is generated after reaching a new checkpoint in the game\r\n  event NewTurtleGenerated(uint256 tokenId);\r\n\r\n  // Emitted when the data received from the API is successful\r\n  event DataReceivedFromAPI(string ipfsLink);\r\n\r\n  // Emitted when a turtle is bought\r\n  event TurtleBought(uint256 tokenId);\r\n\r\n  // Emitted when a turtle is put up for sale\r\n  event TurtleUpForSale(uint256 tokenId);\r\n\r\n  /**\r\n   * Network: Matic Mumbai Testnet\r\n   * Oracle: 0xc8D925525CA8759812d0c299B90247917d4d4b7C\r\n   * Job ID: a7330d0b4b964c05abc66a26307047c0\r\n   * LINK address: 0x326C977E6efc84E512bB9C30f76E30c160eD06FB\r\n   * Fee: 0.01 LINK\r\n   */\r\n\r\n  // Contructor is called when an instance of 'TurtleCharacter' contract is deployed\r\n  constructor() public ERC721(\"TurtleCharacter\", \"TRTL\") {\r\n    setChainlinkToken(0x326C977E6efc84E512bB9C30f76E30c160eD06FB);\r\n\r\n    uniqueTokenId = 0;\r\n    contractOwner = msg.sender;\r\n    apiBaseUrl = \"https://images-blend.herokuapp.com/\";\r\n    apiSecondUrl = \"https://images-blend.herokuapp.com/second/\";\r\n\r\n    oracle = 0xc8D925525CA8759812d0c299B90247917d4d4b7C; // Address of the chainlink oracle\r\n    jobId = \"a7330d0b4b964c05abc66a26307047c0\"; // This Job gets data from an API in the form of a bytes32 variable\r\n    fee = 0.01 * 10**18; // 0.01 LINK (Fee for Chainlink Oracle for returning the required data)\r\n  }\r\n\r\n  // Modifer that checks to see if msg.sender == contractOwner\r\n  modifier onlyContractOwner() {\r\n    require(\r\n      msg.sender == contractOwner,\r\n      \"The caller is not the contract owner\"\r\n    );\r\n    _;\r\n  }\r\n\r\n  // Function 'getUsers' returns the address array of users\r\n  function getUsers() public view returns (address[] memory) {\r\n    return users;\r\n  }\r\n\r\n  // Function 'setOracleAddress' sets a new oracle address\r\n  function setOracleAddress(address _oracleAddress) public onlyContractOwner {\r\n    oracle = _oracleAddress;\r\n  }\r\n\r\n  // Function 'setJobID' sets a new job ID\r\n  function setJobID(string memory _jobID) public onlyContractOwner {\r\n    jobId = stringToBytes32(_jobID);\r\n  }\r\n\r\n  // Function 'setFeeInLink' sets a new fee for the Chainlink Oracle\r\n  function setFeeInLink(uint256 _fee) public onlyContractOwner {\r\n    fee = _fee * 10**18;\r\n  }\r\n\r\n  // Function 'setApiBaseUrl' sets a new base URL link for the API\r\n  function setApiBaseUrl(string memory _url) public onlyContractOwner {\r\n    apiBaseUrl = _url;\r\n  }\r\n\r\n  // Function 'setApiSecondUrl' sets a new second URL link for the API\r\n  function setApiSecondUrl(string memory _url) public onlyContractOwner {\r\n    apiSecondUrl = _url;\r\n  }\r\n\r\n  // Function 'setHighScore' sets a new highScore for the user\r\n  function setHighScore(string memory _highScore, address _sender) internal {\r\n    bytes memory score = bytes(userAddressToHighScore[_sender]);\r\n    if (score.length == 0) {\r\n      users.push(_sender);\r\n    }\r\n    userAddressToHighScore[_sender] = _highScore;\r\n  }\r\n\r\n  // Function 'buyTurtle' allows anyone to buy a turtle that is put up for sale\r\n  function buyTurtle(uint256 _tokenId) public payable {\r\n    require(turtlesForSale[_tokenId] > 0, \"The Turtle should be up for sale\");\r\n\r\n    uint256 turtleCost = turtlesForSale[_tokenId];\r\n    turtlesForSale[_tokenId] = 0;\r\n\r\n    address ownerAddress = ownerOf(_tokenId);\r\n    require(msg.value > turtleCost, \"You need to have enough Ether\");\r\n\r\n    _safeTransfer(ownerAddress, msg.sender, _tokenId, bytes(\"Buy a Turtle\")); // ERC721 Token is safely transferred using this function call\r\n\r\n    address payable ownerAddressPayable = payable(ownerAddress);\r\n    ownerAddressPayable.transfer(turtleCost);\r\n    if (msg.value > turtleCost) {\r\n      payable(msg.sender).transfer(msg.value - turtleCost); // Excess Ether is returned back to the buyer\r\n    }\r\n\r\n    emit TurtleBought(_tokenId);\r\n  }\r\n\r\n  // Function 'putUpTurtleForSale' allows a turtle owner to put it up for sale\r\n  function putUpTurtleForSale(uint256 _tokenId, uint256 _price) public {\r\n    require(\r\n      _isApprovedOrOwner(_msgSender(), _tokenId),\r\n      \"ERC721: Caller is not owner nor approved\"\r\n    );\r\n    turtlesForSale[_tokenId] = _price;\r\n\r\n    emit TurtleUpForSale(_tokenId);\r\n  }\r\n\r\n  // Function 'requestNewRandomTurtle' mints a new Turtle character\r\n  function requestNewRandomTurtle(string memory score) public {\r\n    setHighScore(score, msg.sender);\r\n    ipfsLink = \"ipfs://\";\r\n    _safeMint(msg.sender, uniqueTokenId++);\r\n    string memory apiLink = append(apiBaseUrl, \"?score=\", score);\r\n    string memory characterId = uint2str(totalSupply());\r\n    apiLink = append(apiLink, \"&characterId=\", characterId);\r\n    requestIPFSHash(apiLink);\r\n  }\r\n\r\n  // Function 'requestIPFSHash' requests a new IPFS hash from the API\r\n  function requestIPFSHash(string memory apiLink)\r\n    private\r\n    returns (bytes32 requestId)\r\n  {\r\n    Chainlink.Request memory request = buildChainlinkRequest(\r\n      jobId,\r\n      address(this),\r\n      this.fulfill.selector\r\n    );\r\n    request.add(\"get\", apiLink);\r\n    request.add(\"path\", \"IPFS_PATH\");\r\n\r\n    return sendChainlinkRequestTo(oracle, request, fee);\r\n  }\r\n\r\n  // Function 'fulfill' is called after the response for the API call is received\r\n  function fulfill(bytes32 _requestId, bytes32 dataFromAPI)\r\n    public\r\n    recordChainlinkFulfillment(_requestId)\r\n    returns (bytes32 requestId)\r\n  {\r\n    ipfsHashOneBytes32 = dataFromAPI;\r\n\r\n    Chainlink.Request memory request = buildChainlinkRequest(\r\n      jobId,\r\n      address(this),\r\n      this.fulfillSecondRequest.selector\r\n    );\r\n    request.add(\"get\", apiSecondUrl);\r\n    request.add(\"path\", \"IPFS_PATH\");\r\n\r\n    return sendChainlinkRequestTo(oracle, request, fee);\r\n  }\r\n\r\n  // Function 'fulfillSecondRequest' is called after the response for the API call is received\r\n  function fulfillSecondRequest(bytes32 _requestId, bytes32 dataFromAPI)\r\n    public\r\n    recordChainlinkFulfillment(_requestId)\r\n  {\r\n    ipfsHashTwoBytes32 = dataFromAPI;\r\n    generateIPFSLink();\r\n\r\n    emit DataReceivedFromAPI(ipfsLink);\r\n\r\n    setTokenURI(ipfsLink);\r\n\r\n    emit NewTurtleGenerated(uniqueTokenId - 1);\r\n  }\r\n\r\n  // Function 'bytes32ToString' convers a bytes32 variable to a string variable\r\n  function bytes32ToString(bytes32 _bytes32)\r\n    internal\r\n    pure\r\n    returns (string memory)\r\n  {\r\n    uint8 i = 0;\r\n    while (i < 32 && _bytes32[i] != 0) {\r\n      i++;\r\n    }\r\n    bytes memory bytesArray = new bytes(i);\r\n    for (i = 0; i < 32 && _bytes32[i] != 0; i++) {\r\n      bytesArray[i] = _bytes32[i];\r\n    }\r\n    return string(bytesArray);\r\n  }\r\n\r\n  // Function 'stringToBytes32' convers a string variable to a bytes32 variable\r\n  function stringToBytes32(string memory source)\r\n    internal\r\n    pure\r\n    returns (bytes32 result)\r\n  {\r\n    bytes memory tempEmptyStringTest = bytes(source);\r\n    if (tempEmptyStringTest.length == 0) {\r\n      return 0x0;\r\n    }\r\n    assembly {\r\n      result := mload(add(source, 32))\r\n    }\r\n  }\r\n\r\n  // Function 'generateIPFSLink' generates the IPFS link from the 2 API calls\r\n  function generateIPFSLink() private {\r\n    string memory ipfsHashPartOne = bytes32ToString(ipfsHashOneBytes32);\r\n    string memory ipfsHashPartTwo = bytes32ToString(ipfsHashTwoBytes32);\r\n    ipfsLink = append(ipfsLink, ipfsHashPartOne, ipfsHashPartTwo);\r\n    ipfsLink = append(ipfsLink, \"/metadata\", \".json\");\r\n  }\r\n\r\n  // Function 'append' appends 3 strings\r\n  function append(\r\n    string memory a,\r\n    string memory b,\r\n    string memory c\r\n  ) internal pure returns (string memory) {\r\n    return string(abi.encodePacked(a, b, c));\r\n  }\r\n\r\n  // Function 'uint2str' converts a uint256 variable to a string variable\r\n  function uint2str(uint256 _i)\r\n    internal\r\n    pure\r\n    returns (string memory _uintAsString)\r\n  {\r\n    if (_i == 0) {\r\n      return \"0\";\r\n    }\r\n    uint256 j = _i;\r\n    uint256 len;\r\n    while (j != 0) {\r\n      len++;\r\n      j /= 10;\r\n    }\r\n    bytes memory bstr = new bytes(len);\r\n    uint256 k = len;\r\n    while (_i != 0) {\r\n      k = k - 1;\r\n      uint8 temp = (48 + uint8(_i - (_i / 10) * 10));\r\n      bytes1 b1 = bytes1(temp);\r\n      bstr[k] = b1;\r\n      _i /= 10;\r\n    }\r\n    return string(bstr);\r\n  }\r\n\r\n  // Function 'setTokenURI' sets the Token URI for the ERC721 standard token\r\n  function setTokenURI(string memory _tokenURI) private {\r\n    uint256 lastTokenId = totalSupply() - 1;\r\n    _setTokenURI(lastTokenId, _tokenURI);\r\n  }\r\n\r\n  // Function 'updateTokenURI' updates the Token URI for a specific Token\r\n  function updateTokenURI(uint256 _tokenId, string memory _tokenURI)\r\n    public\r\n    onlyContractOwner\r\n  {\r\n    _setTokenURI(_tokenId, _tokenURI);\r\n  }\r\n}\r\n",
  "sourcePath": "C:/Users/dines/Downloads/NFT-Game/contracts/Turtis.sol",
  "compiler": {
    "name": "solc",
    "version": "0.6.6+commit.6c089d02.Emscripten.clang"
  },
  "schemaVersion": "3.4.1",
  "updatedAt": "2021-08-06T15:53:09.474Z",
  "networkType": "ethereum",
  "devdoc": {
    "methods": {
      "approve(address,uint256)": {
        "details": "See {IERC721-approve}."
      },
      "balanceOf(address)": {
        "details": "See {IERC721-balanceOf}."
      },
      "baseURI()": {
        "details": "Returns the base URI set via {_setBaseURI}. This will be automatically added as a prefix in {tokenURI} to each token's URI, or to the token ID if no specific URI is set for that token ID."
      },
      "getApproved(uint256)": {
        "details": "See {IERC721-getApproved}."
      },
      "isApprovedForAll(address,address)": {
        "details": "See {IERC721-isApprovedForAll}."
      },
      "name()": {
        "details": "See {IERC721Metadata-name}."
      },
      "ownerOf(uint256)": {
        "details": "See {IERC721-ownerOf}."
      },
      "safeTransferFrom(address,address,uint256)": {
        "details": "See {IERC721-safeTransferFrom}."
      },
      "safeTransferFrom(address,address,uint256,bytes)": {
        "details": "See {IERC721-safeTransferFrom}."
      },
      "setApprovalForAll(address,bool)": {
        "details": "See {IERC721-setApprovalForAll}."
      },
      "supportsInterface(bytes4)": {
        "details": "See {IERC165-supportsInterface}.     * Time complexity O(1), guaranteed to always use less than 30 000 gas."
      },
      "symbol()": {
        "details": "See {IERC721Metadata-symbol}."
      },
      "tokenByIndex(uint256)": {
        "details": "See {IERC721Enumerable-tokenByIndex}."
      },
      "tokenOfOwnerByIndex(address,uint256)": {
        "details": "See {IERC721Enumerable-tokenOfOwnerByIndex}."
      },
      "tokenURI(uint256)": {
        "details": "See {IERC721Metadata-tokenURI}."
      },
      "totalSupply()": {
        "details": "See {IERC721Enumerable-totalSupply}."
      },
      "transferFrom(address,address,uint256)": {
        "details": "See {IERC721-transferFrom}."
      }
    }
  },
  "userdoc": {
    "methods": {
      "constructor": "Network: Matic Mumbai Testnet Oracle: 0xc8D925525CA8759812d0c299B90247917d4d4b7C Job ID: a7330d0b4b964c05abc66a26307047c0 LINK address: 0x326C977E6efc84E512bB9C30f76E30c160eD06FB Fee: 0.01 LINK"
    }
  }
}