{
  "contractName": "TurtleCharacter",
  "abi": [
    {
      "inputs": [],
      "stateMutability": "nonpayable",
      "type": "constructor"
    },
    {
      "anonymous": false,
      "inputs": [
        {
          "indexed": true,
          "internalType": "address",
          "name": "owner",
          "type": "address"
        },
        {
          "indexed": true,
          "internalType": "address",
          "name": "approved",
          "type": "address"
        },
        {
          "indexed": true,
          "internalType": "uint256",
          "name": "tokenId",
          "type": "uint256"
        }
      ],
      "name": "Approval",
      "type": "event"
    },
    {
      "anonymous": false,
      "inputs": [
        {
          "indexed": true,
          "internalType": "address",
          "name": "owner",
          "type": "address"
        },
        {
          "indexed": true,
          "internalType": "address",
          "name": "operator",
          "type": "address"
        },
        {
          "indexed": false,
          "internalType": "bool",
          "name": "approved",
          "type": "bool"
        }
      ],
      "name": "ApprovalForAll",
      "type": "event"
    },
    {
      "anonymous": false,
      "inputs": [
        {
          "indexed": true,
          "internalType": "bytes32",
          "name": "id",
          "type": "bytes32"
        }
      ],
      "name": "ChainlinkCancelled",
      "type": "event"
    },
    {
      "anonymous": false,
      "inputs": [
        {
          "indexed": true,
          "internalType": "bytes32",
          "name": "id",
          "type": "bytes32"
        }
      ],
      "name": "ChainlinkFulfilled",
      "type": "event"
    },
    {
      "anonymous": false,
      "inputs": [
        {
          "indexed": true,
          "internalType": "bytes32",
          "name": "id",
          "type": "bytes32"
        }
      ],
      "name": "ChainlinkRequested",
      "type": "event"
    },
    {
      "anonymous": false,
      "inputs": [
        {
          "indexed": true,
          "internalType": "address",
          "name": "from",
          "type": "address"
        },
        {
          "indexed": true,
          "internalType": "address",
          "name": "to",
          "type": "address"
        },
        {
          "indexed": true,
          "internalType": "uint256",
          "name": "tokenId",
          "type": "uint256"
        }
      ],
      "name": "Transfer",
      "type": "event"
    },
    {
      "inputs": [
        {
          "internalType": "address",
          "name": "to",
          "type": "address"
        },
        {
          "internalType": "uint256",
          "name": "tokenId",
          "type": "uint256"
        }
      ],
      "name": "approve",
      "outputs": [],
      "stateMutability": "nonpayable",
      "type": "function"
    },
    {
      "inputs": [
        {
          "internalType": "address",
          "name": "owner",
          "type": "address"
        }
      ],
      "name": "balanceOf",
      "outputs": [
        {
          "internalType": "uint256",
          "name": "",
          "type": "uint256"
        }
      ],
      "stateMutability": "view",
      "type": "function",
      "constant": true
    },
    {
      "inputs": [],
      "name": "baseURI",
      "outputs": [
        {
          "internalType": "string",
          "name": "",
          "type": "string"
        }
      ],
      "stateMutability": "view",
      "type": "function",
      "constant": true
    },
    {
      "inputs": [
        {
          "internalType": "uint256",
          "name": "tokenId",
          "type": "uint256"
        }
      ],
      "name": "getApproved",
      "outputs": [
        {
          "internalType": "address",
          "name": "",
          "type": "address"
        }
      ],
      "stateMutability": "view",
      "type": "function",
      "constant": true
    },
    {
      "inputs": [],
      "name": "ipfsLink",
      "outputs": [
        {
          "internalType": "string",
          "name": "",
          "type": "string"
        }
      ],
      "stateMutability": "view",
      "type": "function",
      "constant": true
    },
    {
      "inputs": [
        {
          "internalType": "address",
          "name": "owner",
          "type": "address"
        },
        {
          "internalType": "address",
          "name": "operator",
          "type": "address"
        }
      ],
      "name": "isApprovedForAll",
      "outputs": [
        {
          "internalType": "bool",
          "name": "",
          "type": "bool"
        }
      ],
      "stateMutability": "view",
      "type": "function",
      "constant": true
    },
    {
      "inputs": [],
      "name": "name",
      "outputs": [
        {
          "internalType": "string",
          "name": "",
          "type": "string"
        }
      ],
      "stateMutability": "view",
      "type": "function",
      "constant": true
    },
    {
      "inputs": [
        {
          "internalType": "uint256",
          "name": "tokenId",
          "type": "uint256"
        }
      ],
      "name": "ownerOf",
      "outputs": [
        {
          "internalType": "address",
          "name": "",
          "type": "address"
        }
      ],
      "stateMutability": "view",
      "type": "function",
      "constant": true
    },
    {
      "inputs": [
        {
          "internalType": "address",
          "name": "from",
          "type": "address"
        },
        {
          "internalType": "address",
          "name": "to",
          "type": "address"
        },
        {
          "internalType": "uint256",
          "name": "tokenId",
          "type": "uint256"
        }
      ],
      "name": "safeTransferFrom",
      "outputs": [],
      "stateMutability": "nonpayable",
      "type": "function"
    },
    {
      "inputs": [
        {
          "internalType": "address",
          "name": "from",
          "type": "address"
        },
        {
          "internalType": "address",
          "name": "to",
          "type": "address"
        },
        {
          "internalType": "uint256",
          "name": "tokenId",
          "type": "uint256"
        },
        {
          "internalType": "bytes",
          "name": "_data",
          "type": "bytes"
        }
      ],
      "name": "safeTransferFrom",
      "outputs": [],
      "stateMutability": "nonpayable",
      "type": "function"
    },
    {
      "inputs": [
        {
          "internalType": "address",
          "name": "operator",
          "type": "address"
        },
        {
          "internalType": "bool",
          "name": "approved",
          "type": "bool"
        }
      ],
      "name": "setApprovalForAll",
      "outputs": [],
      "stateMutability": "nonpayable",
      "type": "function"
    },
    {
      "inputs": [
        {
          "internalType": "bytes4",
          "name": "interfaceId",
          "type": "bytes4"
        }
      ],
      "name": "supportsInterface",
      "outputs": [
        {
          "internalType": "bool",
          "name": "",
          "type": "bool"
        }
      ],
      "stateMutability": "view",
      "type": "function",
      "constant": true
    },
    {
      "inputs": [],
      "name": "symbol",
      "outputs": [
        {
          "internalType": "string",
          "name": "",
          "type": "string"
        }
      ],
      "stateMutability": "view",
      "type": "function",
      "constant": true
    },
    {
      "inputs": [
        {
          "internalType": "uint256",
          "name": "index",
          "type": "uint256"
        }
      ],
      "name": "tokenByIndex",
      "outputs": [
        {
          "internalType": "uint256",
          "name": "",
          "type": "uint256"
        }
      ],
      "stateMutability": "view",
      "type": "function",
      "constant": true
    },
    {
      "inputs": [
        {
          "internalType": "address",
          "name": "owner",
          "type": "address"
        },
        {
          "internalType": "uint256",
          "name": "index",
          "type": "uint256"
        }
      ],
      "name": "tokenOfOwnerByIndex",
      "outputs": [
        {
          "internalType": "uint256",
          "name": "",
          "type": "uint256"
        }
      ],
      "stateMutability": "view",
      "type": "function",
      "constant": true
    },
    {
      "inputs": [
        {
          "internalType": "uint256",
          "name": "tokenId",
          "type": "uint256"
        }
      ],
      "name": "tokenURI",
      "outputs": [
        {
          "internalType": "string",
          "name": "",
          "type": "string"
        }
      ],
      "stateMutability": "view",
      "type": "function",
      "constant": true
    },
    {
      "inputs": [],
      "name": "totalSupply",
      "outputs": [
        {
          "internalType": "uint256",
          "name": "",
          "type": "uint256"
        }
      ],
      "stateMutability": "view",
      "type": "function",
      "constant": true
    },
    {
      "inputs": [
        {
          "internalType": "address",
          "name": "from",
          "type": "address"
        },
        {
          "internalType": "address",
          "name": "to",
          "type": "address"
        },
        {
          "internalType": "uint256",
          "name": "tokenId",
          "type": "uint256"
        }
      ],
      "name": "transferFrom",
      "outputs": [],
      "stateMutability": "nonpayable",
      "type": "function"
    },
    {
      "inputs": [],
      "name": "volume",
      "outputs": [
        {
          "internalType": "bytes32",
          "name": "",
          "type": "bytes32"
        }
      ],
      "stateMutability": "view",
      "type": "function",
      "constant": true
    },
    {
      "inputs": [],
      "name": "volume2",
      "outputs": [
        {
          "internalType": "bytes32",
          "name": "",
          "type": "bytes32"
        }
      ],
      "stateMutability": "view",
      "type": "function",
      "constant": true
    },
    {
      "inputs": [],
      "name": "requestRandomCharacter",
      "outputs": [],
      "stateMutability": "nonpayable",
      "type": "function"
    },
    {
      "inputs": [],
      "name": "requestVolumeData",
      "outputs": [
        {
          "internalType": "bytes32",
          "name": "requestId",
          "type": "bytes32"
        }
      ],
      "stateMutability": "nonpayable",
      "type": "function"
    },
    {
      "inputs": [
        {
          "internalType": "bytes32",
          "name": "_requestId",
          "type": "bytes32"
        },
        {
          "internalType": "bytes32",
          "name": "_volume",
          "type": "bytes32"
        }
      ],
      "name": "fulfill",
      "outputs": [
        {
          "internalType": "bytes32",
          "name": "requestId",
          "type": "bytes32"
        }
      ],
      "stateMutability": "nonpayable",
      "type": "function"
    },
    {
      "inputs": [
        {
          "internalType": "bytes32",
          "name": "_requestId",
          "type": "bytes32"
        },
        {
          "internalType": "bytes32",
          "name": "_volume",
          "type": "bytes32"
        }
      ],
      "name": "fulfillSecondRequest",
      "outputs": [],
      "stateMutability": "nonpayable",
      "type": "function"
    },
    {
      "inputs": [
        {
          "internalType": "bytes32",
          "name": "_bytes32",
          "type": "bytes32"
        }
      ],
      "name": "bytes32ToString",
      "outputs": [
        {
          "internalType": "string",
          "name": "",
          "type": "string"
        }
      ],
      "stateMutability": "pure",
      "type": "function",
      "constant": true
    },
    {
      "inputs": [],
      "name": "generateIPFSLink",
      "outputs": [],
      "stateMutability": "nonpayable",
      "type": "function"
    },
    {
      "inputs": [],
      "name": "withdrawLink",
      "outputs": [],
      "stateMutability": "nonpayable",
      "type": "function"
    }
  ],
  "bytecode": "0x608060405260016004556040518060400160405280601581526020017f68747470733a2f2f697066732e696f2f697066732f0000000000000000000000815250601290805190602001906200005692919062000403565b5060006016553480156200006957600080fd5b506040518060400160405280600f81526020017f547572746c6543686172616374657200000000000000000000000000000000008152506040518060400160405280600481526020017f5452544c00000000000000000000000000000000000000000000000000000000815250620000ee6301ffc9a760e01b6200020b60201b60201c565b81600c90805190602001906200010692919062000403565b5080600d90805190602001906200011f92919062000403565b50620001386380ac58cd60e01b6200020b60201b60201c565b62000150635b5e139f60e01b6200020b60201b60201c565b6200016863780e9d6360e01b6200020b60201b60201c565b50506200017a6200031560201b60201c565b73aa1dc356dc4b18f30c347798fd5379f3d77abc5b601360006101000a81548173ffffffffffffffffffffffffffffffffffffffff021916908373ffffffffffffffffffffffffffffffffffffffff1602179055507f623732383564343835396461346232383963373836316462393731626166306160148190555067016345785d8a0000601581905550620004b2565b63ffffffff60e01b817bffffffffffffffffffffffffffffffffffffffffffffffffffffffff19161415620002a8576040517f08c379a000000000000000000000000000000000000000000000000000000000815260040180806020018281038252601c8152602001807f4552433136353a20696e76616c696420696e746572666163652069640000000081525060200191505060405180910390fd5b600160066000837bffffffffffffffffffffffffffffffffffffffffffffffffffffffff19167bffffffffffffffffffffffffffffffffffffffffffffffffffffffff1916815260200190815260200160002060006101000a81548160ff02191690831515021790555050565b620003bd73c89bd4e1632d3a43cb03aaad5262cbe4038bc57173ffffffffffffffffffffffffffffffffffffffff166338cc48316040518163ffffffff1660e01b815260040160206040518083038186803b1580156200037457600080fd5b505afa15801562000389573d6000803e3d6000fd5b505050506040513d6020811015620003a057600080fd5b8101908080519060200190929190505050620003bf60201b60201c565b565b80600260006101000a81548173ffffffffffffffffffffffffffffffffffffffff021916908373ffffffffffffffffffffffffffffffffffffffff16021790555050565b828054600181600116156101000203166002900490600052602060002090601f016020900481019282601f106200044657805160ff191683800117855562000477565b8280016001018555821562000477579182015b828111156200047657825182559160200191906001019062000459565b5b5090506200048691906200048a565b5090565b620004af91905b80821115620004ab57600081600090555060010162000491565b5090565b90565b6144cc80620004c26000396000f3fe608060405234801561001057600080fd5b50600436106101a95760003560e01c80636006e134116100f95780639201de5511610097578063b88d4fde11610071578063b88d4fde14610914578063c618a1e414610a19578063c87b56dd14610a37578063e985e9c514610ade576101a9565b80639201de551461079a57806395d89b4114610841578063a22cb465146108c4576101a9565b80636c0360eb116100d35780636c0360eb146106ab57806370a082311461072e57806389ec60ce146107865780638dc654a214610790576101a9565b80636006e134146106015780636021abac1461061f5780636352211e1461063d576101a9565b806323b872dd116101665780632b9d8c9a116101405780632b9d8c9a1461046c5780632f745c59146104ef57806342842e0e146105515780634f6ccce7146105bf576101a9565b806323b872dd146103bc578063259049f41461042a5780632b22aaea14610434576101a9565b806301ffc9a7146101ae578063042f2b651461021357806306fdde031461025f578063081812fc146102e2578063095ea7b31461035057806318160ddd1461039e575b600080fd5b6101f9600480360360208110156101c457600080fd5b8101908080357bffffffffffffffffffffffffffffffffffffffffffffffffffffffff19169060200190929190505050610b5a565b604051808215151515815260200191505060405180910390f35b6102496004803603604081101561022957600080fd5b810190808035906020019092919080359060200190929190505050610bc2565b6040518082815260200191505060405180910390f35b610267610e1e565b6040518080602001828103825283818151815260200191508051906020019080838360005b838110156102a757808201518184015260208101905061028c565b50505050905090810190601f1680156102d45780820380516001836020036101000a031916815260200191505b509250505060405180910390f35b61030e600480360360208110156102f857600080fd5b8101908080359060200190929190505050610ec0565b604051808273ffffffffffffffffffffffffffffffffffffffff1673ffffffffffffffffffffffffffffffffffffffff16815260200191505060405180910390f35b61039c6004803603604081101561036657600080fd5b81019080803573ffffffffffffffffffffffffffffffffffffffff16906020019092919080359060200190929190505050610f5b565b005b6103a661109f565b6040518082815260200191505060405180910390f35b610428600480360360608110156103d257600080fd5b81019080803573ffffffffffffffffffffffffffffffffffffffff169060200190929190803573ffffffffffffffffffffffffffffffffffffffff169060200190929190803590602001909291905050506110b0565b005b610432611126565b005b61046a6004803603604081101561044a57600080fd5b810190808035906020019092919080359060200190929190505050611189565b005b61047461135b565b6040518080602001828103825283818151815260200191508051906020019080838360005b838110156104b4578082015181840152602081019050610499565b50505050905090810190601f1680156104e15780820380516001836020036101000a031916815260200191505b509250505060405180910390f35b61053b6004803603604081101561050557600080fd5b81019080803573ffffffffffffffffffffffffffffffffffffffff169060200190929190803590602001909291905050506113f9565b6040518082815260200191505060405180910390f35b6105bd6004803603606081101561056757600080fd5b81019080803573ffffffffffffffffffffffffffffffffffffffff169060200190929190803573ffffffffffffffffffffffffffffffffffffffff16906020019092919080359060200190929190505050611454565b005b6105eb600480360360208110156105d557600080fd5b8101908080359060200190929190505050611474565b6040518082815260200191505060405180910390f35b610609611497565b6040518082815260200191505060405180910390f35b61062761149d565b6040518082815260200191505060405180910390f35b6106696004803603602081101561065357600080fd5b81019080803590602001909291905050506115d3565b604051808273ffffffffffffffffffffffffffffffffffffffff1673ffffffffffffffffffffffffffffffffffffffff16815260200191505060405180910390f35b6106b361160a565b6040518080602001828103825283818151815260200191508051906020019080838360005b838110156106f35780820151818401526020810190506106d8565b50505050905090810190601f1680156107205780820380516001836020036101000a031916815260200191505b509250505060405180910390f35b6107706004803603602081101561074457600080fd5b81019080803573ffffffffffffffffffffffffffffffffffffffff1690602001909291905050506116ac565b6040518082815260200191505060405180910390f35b61078e611781565b005b61079861185e565b005b6107c6600480360360208110156107b057600080fd5b8101908080359060200190929190505050611a58565b6040518080602001828103825283818151815260200191508051906020019080838360005b838110156108065780820151818401526020810190506107eb565b50505050905090810190601f1680156108335780820380516001836020036101000a031916815260200191505b509250505060405180910390f35b610849611bcc565b6040518080602001828103825283818151815260200191508051906020019080838360005b8381101561088957808201518184015260208101905061086e565b50505050905090810190601f1680156108b65780820380516001836020036101000a031916815260200191505b509250505060405180910390f35b610912600480360360408110156108da57600080fd5b81019080803573ffffffffffffffffffffffffffffffffffffffff169060200190929190803515159060200190929190505050611c6e565b005b610a176004803603608081101561092a57600080fd5b81019080803573ffffffffffffffffffffffffffffffffffffffff169060200190929190803573ffffffffffffffffffffffffffffffffffffffff169060200190929190803590602001909291908035906020019064010000000081111561099157600080fd5b8201836020820111156109a357600080fd5b803590602001918460018302840111640100000000831117156109c557600080fd5b91908080601f016020809104026020016040519081016040528093929190818152602001838380828437600081840152601f19601f820116905080830192505050505050509192919290505050611e26565b005b610a21611e9e565b6040518082815260200191505060405180910390f35b610a6360048036036020811015610a4d57600080fd5b8101908080359060200190929190505050611ea4565b6040518080602001828103825283818151815260200191508051906020019080838360005b83811015610aa3578082015181840152602081019050610a88565b50505050905090810190601f168015610ad05780820380516001836020036101000a031916815260200191505b509250505060405180910390f35b610b4060048036036040811015610af457600080fd5b81019080803573ffffffffffffffffffffffffffffffffffffffff169060200190929190803573ffffffffffffffffffffffffffffffffffffffff169060200190929190505050612175565b604051808215151515815260200191505060405180910390f35b600060066000837bffffffffffffffffffffffffffffffffffffffffffffffffffffffff19167bffffffffffffffffffffffffffffffffffffffffffffffffffffffff1916815260200190815260200160002060009054906101000a900460ff169050919050565b6000826005600082815260200190815260200160002060009054906101000a900473ffffffffffffffffffffffffffffffffffffffff1673ffffffffffffffffffffffffffffffffffffffff163373ffffffffffffffffffffffffffffffffffffffff1614610c7c576040517f08c379a000000000000000000000000000000000000000000000000000000000815260040180806020018281038252602881526020018061446f6028913960400191505060405180910390fd5b6005600082815260200190815260200160002060006101000a81549073ffffffffffffffffffffffffffffffffffffffff0219169055807f7cc135e0cebb02c3480ae5d74d377283180a2601f8f644edf7987b009316c63a60405160405180910390a282601081905550610cee61405a565b610d0260145430632b22aaea60e01b612209565b9050610d666040518060400160405280600381526020017f67657400000000000000000000000000000000000000000000000000000000008152506040518060600160405280602981526020016141a9602991398361223a9092919063ffffffff16565b610de56040518060400160405280600481526020017f70617468000000000000000000000000000000000000000000000000000000008152506040518060400160405280600981526020017f495046535f5041544800000000000000000000000000000000000000000000008152508361223a9092919063ffffffff16565b610e14601360009054906101000a900473ffffffffffffffffffffffffffffffffffffffff168260155461226d565b9250505092915050565b6060600c8054600181600116156101000203166002900480601f016020809104026020016040519081016040528092919081815260200182805460018160011615610100020316600290048015610eb65780601f10610e8b57610100808354040283529160200191610eb6565b820191906000526020600020905b815481529060010190602001808311610e9957829003601f168201915b5050505050905090565b6000610ecb82612525565b610f20576040517f08c379a000000000000000000000000000000000000000000000000000000000815260040180806020018281038252602c81526020018061436d602c913960400191505060405180910390fd5b600a600083815260200190815260200160002060009054906101000a900473ffffffffffffffffffffffffffffffffffffffff169050919050565b6000610f66826115d3565b90508073ffffffffffffffffffffffffffffffffffffffff168373ffffffffffffffffffffffffffffffffffffffff161415610fed576040517f08c379a000000000000000000000000000000000000000000000000000000000815260040180806020018281038252602181526020018061441d6021913960400191505060405180910390fd5b8073ffffffffffffffffffffffffffffffffffffffff1661100c612542565b73ffffffffffffffffffffffffffffffffffffffff16148061103b575061103a81611035612542565b612175565b5b611090576040517f08c379a000000000000000000000000000000000000000000000000000000000815260040180806020018281038252603881526020018061429d6038913960400191505060405180910390fd5b61109a838361254a565b505050565b60006110ab6008612603565b905090565b6110c16110bb612542565b82612618565b611116576040517f08c379a000000000000000000000000000000000000000000000000000000000815260040180806020018281038252603181526020018061443e6031913960400191505060405180910390fd5b61112183838361270c565b505050565b6040518060400160405280601581526020017f68747470733a2f2f697066732e696f2f697066732f0000000000000000000000815250601290805190602001906111719291906140c7565b5061117e3360165461294f565b61118661149d565b50565b816005600082815260200190815260200160002060009054906101000a900473ffffffffffffffffffffffffffffffffffffffff1673ffffffffffffffffffffffffffffffffffffffff163373ffffffffffffffffffffffffffffffffffffffff1614611241576040517f08c379a000000000000000000000000000000000000000000000000000000000815260040180806020018281038252602881526020018061446f6028913960400191505060405180910390fd5b6005600082815260200190815260200160002060006101000a81549073ffffffffffffffffffffffffffffffffffffffff0219169055807f7cc135e0cebb02c3480ae5d74d377283180a2601f8f644edf7987b009316c63a60405160405180910390a2816011819055506112b3611781565b61135660128054600181600116156101000203166002900480601f01602080910402602001604051908101604052809291908181526020018280546001816001161561010002031660029004801561134c5780601f106113215761010080835404028352916020019161134c565b820191906000526020600020905b81548152906001019060200180831161132f57829003601f168201915b505050505061296d565b505050565b60128054600181600116156101000203166002900480601f0160208091040260200160405190810160405280929190818152602001828054600181600116156101000203166002900480156113f15780601f106113c6576101008083540402835291602001916113f1565b820191906000526020600020905b8154815290600101906020018083116113d457829003601f168201915b505050505081565b600061144c82600760008673ffffffffffffffffffffffffffffffffffffffff1673ffffffffffffffffffffffffffffffffffffffff16815260200190815260200160002061298e90919063ffffffff16565b905092915050565b61146f83838360405180602001604052806000815250611e26565b505050565b60008061148b8360086129a890919063ffffffff16565b50905080915050919050565b60115481565b60006114a761405a565b6114bb6014543063042f2b6560e01b612209565b905061151f6040518060400160405280600381526020017f676574000000000000000000000000000000000000000000000000000000000081525060405180606001604052806023815260200161434a602391398361223a9092919063ffffffff16565b61159e6040518060400160405280600481526020017f70617468000000000000000000000000000000000000000000000000000000008152506040518060400160405280600981526020017f495046535f5041544800000000000000000000000000000000000000000000008152508361223a9092919063ffffffff16565b6115cd601360009054906101000a900473ffffffffffffffffffffffffffffffffffffffff168260155461226d565b91505090565b6000611603826040518060600160405280602981526020016142ff6029913960086129d79092919063ffffffff16565b9050919050565b6060600f8054600181600116156101000203166002900480601f0160208091040260200160405190810160405280929190818152602001828054600181600116156101000203166002900480156116a25780601f10611677576101008083540402835291602001916116a2565b820191906000526020600020905b81548152906001019060200180831161168557829003601f168201915b5050505050905090565b60008073ffffffffffffffffffffffffffffffffffffffff168273ffffffffffffffffffffffffffffffffffffffff161415611733576040517f08c379a000000000000000000000000000000000000000000000000000000000815260040180806020018281038252602a8152602001806142d5602a913960400191505060405180910390fd5b61177a600760008473ffffffffffffffffffffffffffffffffffffffff1673ffffffffffffffffffffffffffffffffffffffff1681526020019081526020016000206129f6565b9050919050565b606061178e601054611a58565b9050606061179d601154611a58565b905061184460128054600181600116156101000203166002900480601f0160208091040260200160405190810160405280929190818152602001828054600181600116156101000203166002900480156118385780601f1061180d57610100808354040283529160200191611838565b820191906000526020600020905b81548152906001019060200180831161181b57829003601f168201915b50505050508383612a0b565b601290805190602001906118599291906140c7565b505050565b6000611868612b27565b90508073ffffffffffffffffffffffffffffffffffffffff1663a9059cbb338373ffffffffffffffffffffffffffffffffffffffff166370a08231306040518263ffffffff1660e01b8152600401808273ffffffffffffffffffffffffffffffffffffffff1673ffffffffffffffffffffffffffffffffffffffff16815260200191505060206040518083038186803b15801561190457600080fd5b505afa158015611918573d6000803e3d6000fd5b505050506040513d602081101561192e57600080fd5b81019080805190602001909291905050506040518363ffffffff1660e01b8152600401808373ffffffffffffffffffffffffffffffffffffffff1673ffffffffffffffffffffffffffffffffffffffff16815260200182815260200192505050602060405180830381600087803b1580156119a857600080fd5b505af11580156119bc573d6000803e3d6000fd5b505050506040513d60208110156119d257600080fd5b8101908080519060200190929190505050611a55576040517f08c379a00000000000000000000000000000000000000000000000000000000081526004018080602001828103825260128152602001807f556e61626c6520746f207472616e73666572000000000000000000000000000081525060200191505060405180910390fd5b50565b606060008090505b60208160ff16108015611aab5750600060f81b838260ff1660208110611a8257fe5b1a60f81b7effffffffffffffffffffffffffffffffffffffffffffffffffffffffffffff191614155b15611abd578080600101915050611a60565b60608160ff1667ffffffffffffffff81118015611ad957600080fd5b506040519080825280601f01601f191660200182016040528015611b0c5781602001600182028036833780820191505090505b509050600091505b60208260ff16108015611b5f5750600060f81b848360ff1660208110611b3657fe5b1a60f81b7effffffffffffffffffffffffffffffffffffffffffffffffffffffffffffff191614155b15611bc257838260ff1660208110611b7357fe5b1a60f81b818360ff1681518110611b8657fe5b60200101907effffffffffffffffffffffffffffffffffffffffffffffffffffffffffffff1916908160001a9053508180600101925050611b14565b8092505050919050565b6060600d8054600181600116156101000203166002900480601f016020809104026020016040519081016040528092919081815260200182805460018160011615610100020316600290048015611c645780601f10611c3957610100808354040283529160200191611c64565b820191906000526020600020905b815481529060010190602001808311611c4757829003601f168201915b5050505050905090565b611c76612542565b73ffffffffffffffffffffffffffffffffffffffff168273ffffffffffffffffffffffffffffffffffffffff161415611d17576040517f08c379a00000000000000000000000000000000000000000000000000000000081526004018080602001828103825260198152602001807f4552433732313a20617070726f766520746f2063616c6c65720000000000000081525060200191505060405180910390fd5b80600b6000611d24612542565b73ffffffffffffffffffffffffffffffffffffffff1673ffffffffffffffffffffffffffffffffffffffff16815260200190815260200160002060008473ffffffffffffffffffffffffffffffffffffffff1673ffffffffffffffffffffffffffffffffffffffff16815260200190815260200160002060006101000a81548160ff0219169083151502179055508173ffffffffffffffffffffffffffffffffffffffff16611dd1612542565b73ffffffffffffffffffffffffffffffffffffffff167f17307eab39ab6107e8899845ad3d59bd9653f200f220920489ca2b5937696c3183604051808215151515815260200191505060405180910390a35050565b611e37611e31612542565b83612618565b611e8c576040517f08c379a000000000000000000000000000000000000000000000000000000000815260040180806020018281038252603181526020018061443e6031913960400191505060405180910390fd5b611e9884848484612b51565b50505050565b60105481565b6060611eaf82612525565b611f04576040517f08c379a000000000000000000000000000000000000000000000000000000000815260040180806020018281038252602f8152602001806143ee602f913960400191505060405180910390fd5b6060600e60008481526020019081526020016000208054600181600116156101000203166002900480601f016020809104026020016040519081016040528092919081815260200182805460018160011615610100020316600290048015611fad5780601f10611f8257610100808354040283529160200191611fad565b820191906000526020600020905b815481529060010190602001808311611f9057829003601f168201915b505050505090506060611fbe61160a565b9050600081511415611fd4578192505050612170565b6000825111156120a55780826040516020018083805190602001908083835b602083106120165780518252602082019150602081019050602083039250611ff3565b6001836020036101000a03801982511681845116808217855250505050505090500182805190602001908083835b602083106120675780518252602082019150602081019050602083039250612044565b6001836020036101000a0380198251168184511680821785525050505050509050019250505060405160208183030381529060405292505050612170565b806120af85612bc3565b6040516020018083805190602001908083835b602083106120e557805182526020820191506020810190506020830392506120c2565b6001836020036101000a03801982511681845116808217855250505050505090500182805190602001908083835b602083106121365780518252602082019150602081019050602083039250612113565b6001836020036101000a03801982511681845116808217855250505050505090500192505050604051602081830303815290604052925050505b919050565b6000600b60008473ffffffffffffffffffffffffffffffffffffffff1673ffffffffffffffffffffffffffffffffffffffff16815260200190815260200160002060008373ffffffffffffffffffffffffffffffffffffffff1673ffffffffffffffffffffffffffffffffffffffff16815260200190815260200160002060009054906101000a900460ff16905092915050565b61221161405a565b61221961405a565b61223085858584612d0a909392919063ffffffff16565b9150509392505050565b612251828460800151612dba90919063ffffffff16565b612268818460800151612dba90919063ffffffff16565b505050565b600030600454604051602001808373ffffffffffffffffffffffffffffffffffffffff1673ffffffffffffffffffffffffffffffffffffffff1660601b815260140182815260200192505050604051602081830303815290604052805190602001209050600454836060018181525050836005600083815260200190815260200160002060006101000a81548173ffffffffffffffffffffffffffffffffffffffff021916908373ffffffffffffffffffffffffffffffffffffffff160217905550807fb5e6e01e79f91267dc17b4e6314d5d4d03593d2ceee0fbb452b750bd70ea5af960405160405180910390a2600260009054906101000a900473ffffffffffffffffffffffffffffffffffffffff1673ffffffffffffffffffffffffffffffffffffffff16634000aea085846123a587612ddf565b6040518463ffffffff1660e01b8152600401808473ffffffffffffffffffffffffffffffffffffffff1673ffffffffffffffffffffffffffffffffffffffff16815260200183815260200180602001828103825283818151815260200191508051906020019080838360005b8381101561242c578082015181840152602081019050612411565b50505050905090810190601f1680156124595780820380516001836020036101000a031916815260200191505b50945050505050602060405180830381600087803b15801561247a57600080fd5b505af115801561248e573d6000803e3d6000fd5b505050506040513d60208110156124a457600080fd5b810190808051906020019092919050505061250a576040517f08c379a00000000000000000000000000000000000000000000000000000000081526004018080602001828103825260238152602001806142046023913960400191505060405180910390fd5b60016004600082825401925050819055508090509392505050565b600061253b826008612fab90919063ffffffff16565b9050919050565b600033905090565b81600a600083815260200190815260200160002060006101000a81548173ffffffffffffffffffffffffffffffffffffffff021916908373ffffffffffffffffffffffffffffffffffffffff160217905550808273ffffffffffffffffffffffffffffffffffffffff166125bd836115d3565b73ffffffffffffffffffffffffffffffffffffffff167f8c5be1e5ebec7d5bd14f71427d1e84f3dd0314c0f7b2291e5b200ac8c7c3b92560405160405180910390a45050565b600061261182600001612fc5565b9050919050565b600061262382612525565b612678576040517f08c379a000000000000000000000000000000000000000000000000000000000815260040180806020018281038252602c815260200180614271602c913960400191505060405180910390fd5b6000612683836115d3565b90508073ffffffffffffffffffffffffffffffffffffffff168473ffffffffffffffffffffffffffffffffffffffff1614806126f257508373ffffffffffffffffffffffffffffffffffffffff166126da84610ec0565b73ffffffffffffffffffffffffffffffffffffffff16145b8061270357506127028185612175565b5b91505092915050565b8273ffffffffffffffffffffffffffffffffffffffff1661272c826115d3565b73ffffffffffffffffffffffffffffffffffffffff1614612798576040517f08c379a00000000000000000000000000000000000000000000000000000000081526004018080602001828103825260298152602001806143c56029913960400191505060405180910390fd5b600073ffffffffffffffffffffffffffffffffffffffff168273ffffffffffffffffffffffffffffffffffffffff16141561281e576040517f08c379a00000000000000000000000000000000000000000000000000000000081526004018080602001828103825260248152602001806142276024913960400191505060405180910390fd5b612829838383612fd6565b61283460008261254a565b61288581600760008673ffffffffffffffffffffffffffffffffffffffff1673ffffffffffffffffffffffffffffffffffffffff168152602001908152602001600020612fdb90919063ffffffff16565b506128d781600760008573ffffffffffffffffffffffffffffffffffffffff1673ffffffffffffffffffffffffffffffffffffffff168152602001908152602001600020612ff590919063ffffffff16565b506128ee8183600861300f9092919063ffffffff16565b50808273ffffffffffffffffffffffffffffffffffffffff168473ffffffffffffffffffffffffffffffffffffffff167fddf252ad1be2c89b69c2b068fc378daa952ba7f163c4a11628f55a4df523b3ef60405160405180910390a4505050565b612969828260405180602001604052806000815250613044565b5050565b612979601654826130b5565b60166000815480929190600101919050555050565b600061299d836000018361313f565b60001c905092915050565b6000806000806129bb86600001866131c2565b915091508160001c8160001c8090509350935050509250929050565b60006129ea846000018460001b8461325b565b60001c90509392505050565b6000612a0482600001613351565b9050919050565b60608383836040516020018084805190602001908083835b60208310612a465780518252602082019150602081019050602083039250612a23565b6001836020036101000a03801982511681845116808217855250505050505090500183805190602001908083835b60208310612a975780518252602082019150602081019050602083039250612a74565b6001836020036101000a03801982511681845116808217855250505050505090500182805190602001908083835b60208310612ae85780518252602082019150602081019050602083039250612ac5565b6001836020036101000a038019825116818451168082178552505050505050905001935050505060405160208183030381529060405290509392505050565b6000600260009054906101000a900473ffffffffffffffffffffffffffffffffffffffff16905090565b612b5c84848461270c565b612b6884848484613362565b612bbd576040517f08c379a00000000000000000000000000000000000000000000000000000000081526004018080602001828103825260328152602001806141d26032913960400191505060405180910390fd5b50505050565b60606000821415612c0b576040518060400160405280600181526020017f30000000000000000000000000000000000000000000000000000000000000008152509050612d05565b600082905060005b60008214612c35578080600101915050600a8281612c2d57fe5b049150612c13565b60608167ffffffffffffffff81118015612c4e57600080fd5b506040519080825280601f01601f191660200182016040528015612c815781602001600182028036833780820191505090505b50905060006001830390508593505b60008414612cfd57600a8481612ca257fe5b0660300160f81b82828060019003935081518110612cbc57fe5b60200101907effffffffffffffffffffffffffffffffffffffffffffffffffffffffffffff1916908160001a905350600a8481612cf557fe5b049350612c90565b819450505050505b919050565b612d1261405a565b612d2285608001516101006135a7565b508385600001818152505082856020019073ffffffffffffffffffffffffffffffffffffffff16908173ffffffffffffffffffffffffffffffffffffffff16815250508185604001907bffffffffffffffffffffffffffffffffffffffffffffffffffffffff191690817bffffffffffffffffffffffffffffffffffffffffffffffffffffffff191681525050849050949350505050565b612dc782600383516135fb565b612dda818361374090919063ffffffff16565b505050565b6060634042994660e01b60008084600001518560200151866040015187606001516001896080015160000151604051602401808973ffffffffffffffffffffffffffffffffffffffff1673ffffffffffffffffffffffffffffffffffffffff1681526020018881526020018781526020018673ffffffffffffffffffffffffffffffffffffffff1673ffffffffffffffffffffffffffffffffffffffff168152602001857bffffffffffffffffffffffffffffffffffffffffffffffffffffffff19167bffffffffffffffffffffffffffffffffffffffffffffffffffffffff1916815260200184815260200183815260200180602001828103825283818151815260200191508051906020019080838360005b83811015612f0e578082015181840152602081019050612ef3565b50505050905090810190601f168015612f3b5780820380516001836020036101000a031916815260200191505b509950505050505050505050604051602081830303815290604052907bffffffffffffffffffffffffffffffffffffffffffffffffffffffff19166020820180517bffffffffffffffffffffffffffffffffffffffffffffffffffffffff83818316178352505050509050919050565b6000612fbd836000018360001b613762565b905092915050565b600081600001805490509050919050565b505050565b6000612fed836000018360001b613785565b905092915050565b6000613007836000018360001b61386d565b905092915050565b600061303b846000018460001b8473ffffffffffffffffffffffffffffffffffffffff1660001b6138dd565b90509392505050565b61304e83836139b9565b61305b6000848484613362565b6130b0576040517f08c379a00000000000000000000000000000000000000000000000000000000081526004018080602001828103825260328152602001806141d26032913960400191505060405180910390fd5b505050565b6130be82612525565b613113576040517f08c379a000000000000000000000000000000000000000000000000000000000815260040180806020018281038252602c815260200180614399602c913960400191505060405180910390fd5b80600e6000848152602001908152602001600020908051906020019061313a9291906140c7565b505050565b6000818360000180549050116131a0576040517f08c379a00000000000000000000000000000000000000000000000000000000081526004018080602001828103825260228152602001806141876022913960400191505060405180910390fd5b8260000182815481106131af57fe5b9060005260206000200154905092915050565b60008082846000018054905011613224576040517f08c379a00000000000000000000000000000000000000000000000000000000081526004018080602001828103825260228152602001806143286022913960400191505060405180910390fd5b600084600001848154811061323557fe5b906000526020600020906002020190508060000154816001015492509250509250929050565b60008084600101600085815260200190815260200160002054905060008114158390613322576040517f08c379a00000000000000000000000000000000000000000000000000000000081526004018080602001828103825283818151815260200191508051906020019080838360005b838110156132e75780820151818401526020810190506132cc565b50505050905090810190601f1680156133145780820380516001836020036101000a031916815260200191505b509250505060405180910390fd5b5084600001600182038154811061333557fe5b9060005260206000209060020201600101549150509392505050565b600081600001805490509050919050565b60006133838473ffffffffffffffffffffffffffffffffffffffff16613bad565b613390576001905061359f565b606061352663150b7a0260e01b6133a5612542565b888787604051602401808573ffffffffffffffffffffffffffffffffffffffff1673ffffffffffffffffffffffffffffffffffffffff1681526020018473ffffffffffffffffffffffffffffffffffffffff1673ffffffffffffffffffffffffffffffffffffffff16815260200183815260200180602001828103825283818151815260200191508051906020019080838360005b8381101561345557808201518184015260208101905061343a565b50505050905090810190601f1680156134825780820380516001836020036101000a031916815260200191505b5095505050505050604051602081830303815290604052907bffffffffffffffffffffffffffffffffffffffffffffffffffffffff19166020820180517bffffffffffffffffffffffffffffffffffffffffffffffffffffffff83818316178352505050506040518060600160405280603281526020016141d2603291398773ffffffffffffffffffffffffffffffffffffffff16613bc09092919063ffffffff16565b9050600081806020019051602081101561353f57600080fd5b8101908080519060200190929190505050905063150b7a0260e01b7bffffffffffffffffffffffffffffffffffffffffffffffffffffffff1916817bffffffffffffffffffffffffffffffffffffffffffffffffffffffff191614925050505b949350505050565b6135af614147565b6000602083816135bb57fe5b06146135d457602082816135cb57fe5b06602003820191505b81836020018181525050604051808452600081528281016020016040525082905092915050565b60178111613628576136228160058460ff16901b60ff161784613bd890919063ffffffff16565b5061373b565b60ff811161366a5761364d601860058460ff16901b1784613bd890919063ffffffff16565b5061366481600185613bf89092919063ffffffff16565b5061373a565b61ffff81116136ad57613690601960058460ff16901b1784613bd890919063ffffffff16565b506136a781600285613bf89092919063ffffffff16565b50613739565b63ffffffff81116136f2576136d5601a60058460ff16901b1784613bd890919063ffffffff16565b506136ec81600485613bf89092919063ffffffff16565b50613738565b67ffffffffffffffff81116137375761371e601b60058460ff16901b1784613bd890919063ffffffff16565b5061373581600885613bf89092919063ffffffff16565b505b5b5b5b5b505050565b613748614147565b61375a83846000015151848551613c1a565b905092915050565b600080836001016000848152602001908152602001600020541415905092915050565b6000808360010160008481526020019081526020016000205490506000811461386157600060018203905060006001866000018054905003905060008660000182815481106137d057fe5b90600052602060002001549050808760000184815481106137ed57fe5b906000526020600020018190555060018301876001016000838152602001908152602001600020819055508660000180548061382557fe5b60019003818190600052602060002001600090559055866001016000878152602001908152602001600020600090556001945050505050613867565b60009150505b92915050565b60006138798383613cd3565b6138d25782600001829080600181540180825580915050600190039060005260206000200160009091909190915055826000018054905083600101600084815260200190815260200160002081905550600190506138d7565b600090505b92915050565b6000808460010160008581526020019081526020016000205490506000811415613984578460000160405180604001604052808681526020018581525090806001815401808255809150506001900390600052602060002090600202016000909190919091506000820151816000015560208201518160010155505084600001805490508560010160008681526020019081526020016000208190555060019150506139b2565b8285600001600183038154811061399757fe5b90600052602060002090600202016001018190555060009150505b9392505050565b600073ffffffffffffffffffffffffffffffffffffffff168273ffffffffffffffffffffffffffffffffffffffff161415613a5c576040517f08c379a00000000000000000000000000000000000000000000000000000000081526004018080602001828103825260208152602001807f4552433732313a206d696e7420746f20746865207a65726f206164647265737381525060200191505060405180910390fd5b613a6581612525565b15613ad8576040517f08c379a000000000000000000000000000000000000000000000000000000000815260040180806020018281038252601c8152602001807f4552433732313a20746f6b656e20616c7265616479206d696e7465640000000081525060200191505060405180910390fd5b613ae460008383612fd6565b613b3581600760008573ffffffffffffffffffffffffffffffffffffffff1673ffffffffffffffffffffffffffffffffffffffff168152602001908152602001600020612ff590919063ffffffff16565b50613b4c8183600861300f9092919063ffffffff16565b50808273ffffffffffffffffffffffffffffffffffffffff16600073ffffffffffffffffffffffffffffffffffffffff167fddf252ad1be2c89b69c2b068fc378daa952ba7f163c4a11628f55a4df523b3ef60405160405180910390a45050565b600080823b905060008111915050919050565b6060613bcf8484600085613cf6565b90509392505050565b613be0614147565b613bf08384600001515184613e9f565b905092915050565b613c00614147565b613c11848560000151518585613eed565b90509392505050565b613c22614147565b8251821115613c3057600080fd5b84602001518285011115613c5b57613c5a856002613c548860200151888701613f4e565b02613f6a565b5b600080865180518760208301019350808887011115613c7a5787860182525b60208701925050505b60208410613ca65780518252602082019150602081019050602084039350613c83565b60006001856020036101000a03905080198251168184511681811785525050879350505050949350505050565b600080836001016000848152602001908152602001600020541415905092915050565b606082471015613d51576040517f08c379a000000000000000000000000000000000000000000000000000000000815260040180806020018281038252602681526020018061424b6026913960400191505060405180910390fd5b613d5a85613bad565b613dcc576040517f08c379a000000000000000000000000000000000000000000000000000000000815260040180806020018281038252601d8152602001807f416464726573733a2063616c6c20746f206e6f6e2d636f6e747261637400000081525060200191505060405180910390fd5b600060608673ffffffffffffffffffffffffffffffffffffffff1685876040518082805190602001908083835b60208310613e1c5780518252602082019150602081019050602083039250613df9565b6001836020036101000a03801982511681845116808217855250505050505090500191505060006040518083038185875af1925050503d8060008114613e7e576040519150601f19603f3d011682016040523d82523d6000602084013e613e83565b606091505b5091509150613e93828286613f8e565b92505050949350505050565b613ea7614147565b83602001518310613ec457613ec3846002866020015102613f6a565b5b8351805160208583010184815381861415613ee0576001820183525b5050508390509392505050565b613ef5614147565b84602001518483011115613f1357613f1285600286850102613f6a565b5b60006001836101000a0390508551838682010185831982511617815281518588011115613f405784870182525b505085915050949350505050565b600081831115613f6057829050613f64565b8190505b92915050565b606082600001519050613f7d83836135a7565b50613f888382613740565b50505050565b60608315613f9e57829050614053565b600083511115613fb15782518084602001fd5b816040517f08c379a00000000000000000000000000000000000000000000000000000000081526004018080602001828103825283818151815260200191508051906020019080838360005b83811015614018578082015181840152602081019050613ffd565b50505050905090810190601f1680156140455780820380516001836020036101000a031916815260200191505b509250505060405180910390fd5b9392505050565b6040518060a0016040528060008019168152602001600073ffffffffffffffffffffffffffffffffffffffff16815260200160007bffffffffffffffffffffffffffffffffffffffffffffffffffffffff19168152602001600081526020016140c1614147565b81525090565b828054600181600116156101000203166002900490600052602060002090601f016020900481019282601f1061410857805160ff1916838001178555614136565b82800160010185558215614136579182015b8281111561413557825182559160200191906001019061411a565b5b5090506141439190614161565b5090565b604051806040016040528060608152602001600081525090565b61418391905b8082111561417f576000816000905550600101614167565b5090565b9056fe456e756d657261626c655365743a20696e646578206f7574206f6620626f756e647368747470733a2f2f696d616765732d626c656e642e6865726f6b756170702e636f6d2f7365636f6e644552433732313a207472616e7366657220746f206e6f6e20455243373231526563656976657220696d706c656d656e746572756e61626c6520746f207472616e73666572416e6443616c6c20746f206f7261636c654552433732313a207472616e7366657220746f20746865207a65726f2061646472657373416464726573733a20696e73756666696369656e742062616c616e636520666f722063616c6c4552433732313a206f70657261746f7220717565727920666f72206e6f6e6578697374656e7420746f6b656e4552433732313a20617070726f76652063616c6c6572206973206e6f74206f776e6572206e6f7220617070726f76656420666f7220616c6c4552433732313a2062616c616e636520717565727920666f7220746865207a65726f20616464726573734552433732313a206f776e657220717565727920666f72206e6f6e6578697374656e7420746f6b656e456e756d657261626c654d61703a20696e646578206f7574206f6620626f756e647368747470733a2f2f696d616765732d626c656e642e6865726f6b756170702e636f6d2f4552433732313a20617070726f76656420717565727920666f72206e6f6e6578697374656e7420746f6b656e4552433732314d657461646174613a2055524920736574206f66206e6f6e6578697374656e7420746f6b656e4552433732313a207472616e73666572206f6620746f6b656e2074686174206973206e6f74206f776e4552433732314d657461646174613a2055524920717565727920666f72206e6f6e6578697374656e7420746f6b656e4552433732313a20617070726f76616c20746f2063757272656e74206f776e65724552433732313a207472616e736665722063616c6c6572206973206e6f74206f776e6572206e6f7220617070726f766564536f75726365206d75737420626520746865206f7261636c65206f66207468652072657175657374a26469706673582212202792bd8197fc05521361b9b6e5d052777e8ca634cb826c74b5cbec3eb0eea86d64736f6c63430006060033",
  "immutableReferences": {},
  "source": "// SPDX-License-Identifier: MIT\r\npragma solidity ^0.6.6;\r\n\r\nimport \"@chainlink/contracts/src/v0.6/ChainlinkClient.sol\";\r\nimport \"@openzeppelin/contracts/token/ERC721/ERC721.sol\";\r\n\r\ncontract TurtleCharacter is ChainlinkClient, ERC721 {\r\n  \r\n    bytes32 public volume;\r\n    bytes32 public volume2;\r\n    string public ipfsLink = \"https://ipfs.io/ipfs/\";\r\n    \r\n    address private oracle;\r\n    bytes32 private jobId;\r\n    uint256 private fee;\r\n    uint256 uniqueTokenId = 0;\r\n    \r\n    /**\r\n     * Network: Kovan\r\n     * Chainlink - 0x2f90A6D021db21e1B2A077c5a37B3C7E75D15b7e\r\n     * Chainlink - 29fa9aa13bf1468788b7cc4a500a45b8\r\n     * Fee: 0.1 LINK\r\n     */\r\n    constructor() public ERC721(\"TurtleCharacter\", \"TRTL\") {\r\n        setPublicChainlinkToken();\r\n        oracle = 0xAA1DC356dc4B18f30C347798FD5379F3D77ABC5b;\r\n        jobId = \"b7285d4859da4b289c7861db971baf0a\";\r\n        fee = 0.1 * 10 ** 18; // 0.1 LINK\r\n    }\r\n     \r\n    function requestRandomCharacter() public {\r\n        ipfsLink = \"https://ipfs.io/ipfs/\";\r\n        _safeMint(msg.sender, uniqueTokenId);\r\n        requestVolumeData();\r\n    }\r\n     \r\n    function requestVolumeData() public returns (bytes32 requestId) \r\n    {\r\n        Chainlink.Request memory request = buildChainlinkRequest(jobId, address(this), this.fulfill.selector);\r\n        \r\n        // Set the URL to perform the GET request on\r\n        request.add(\"get\", \"https://images-blend.herokuapp.com/\");\r\n        \r\n        request.add(\"path\", \"IPFS_PATH\");\r\n        \r\n        // Sends the request\r\n        return sendChainlinkRequestTo(oracle, request, fee);\r\n    }\r\n    \r\n    /**\r\n     * Receive the response in the form of bytes32\r\n     */ \r\n    function fulfill(bytes32 _requestId, bytes32 _volume) public recordChainlinkFulfillment(_requestId) returns (bytes32 requestId) \r\n    {\r\n        volume = _volume;\r\n\r\n        Chainlink.Request memory request = buildChainlinkRequest(jobId, address(this), this.fulfillSecondRequest.selector);\r\n        \r\n        // Set the URL to perform the GET request on\r\n        request.add(\"get\", \"https://images-blend.herokuapp.com/second\");\r\n        \r\n        request.add(\"path\", \"IPFS_PATH\");\r\n        \r\n        // Sends the request\r\n        return sendChainlinkRequestTo(oracle, request, fee);\r\n    }\r\n    \r\n    function fulfillSecondRequest(bytes32 _requestId, bytes32 _volume) public recordChainlinkFulfillment(_requestId) {\r\n        volume2 = _volume;\r\n        generateIPFSLink();\r\n        setTokenURI(ipfsLink);\r\n    }\r\n    \r\n    function bytes32ToString(bytes32 _bytes32) public pure returns (string memory) {\r\n        uint8 i = 0;\r\n        while(i < 32 && _bytes32[i] != 0) {\r\n            i++;\r\n        }\r\n        bytes memory bytesArray = new bytes(i);\r\n        for (i = 0; i < 32 && _bytes32[i] != 0; i++) {\r\n            bytesArray[i] = _bytes32[i];\r\n        }\r\n        return string(bytesArray);\r\n    }\r\n    \r\n    function generateIPFSLink() public {\r\n        string memory part1 = bytes32ToString(volume);\r\n        string memory part2 = bytes32ToString(volume2);\r\n        ipfsLink = append(ipfsLink, part1, part2);\r\n    }\r\n    \r\n    function append(string memory a, string memory b, string memory c) internal pure returns (string memory) {\r\n    return string(abi.encodePacked(a, b, c));\r\n    }\r\n    \r\n    /**\r\n     * Withdraw LINK from this contract\r\n     * \r\n     * NOTE: DO NOT USE THIS IN PRODUCTION AS IT CAN BE CALLED BY ANY ADDRESS.\r\n     * THIS IS PURELY FOR EXAMPLE PURPOSES ONLY.\r\n     */\r\n    function withdrawLink() external {\r\n        LinkTokenInterface linkToken = LinkTokenInterface(chainlinkTokenAddress());\r\n        require(linkToken.transfer(msg.sender, linkToken.balanceOf(address(this))), \"Unable to transfer\");\r\n    }\r\n\r\n    function setTokenURI(string memory _tokenURI) private {\r\n        _setTokenURI(uniqueTokenId, _tokenURI);\r\n        uniqueTokenId++;\r\n    }\r\n}",
  "sourcePath": "D:/EthOdyssey/NFT-Game/contracts/TurtleCharacter.sol",
  "compiler": {
    "name": "solc",
    "version": "0.6.6+commit.6c089d02.Emscripten.clang"
  },
  "schemaVersion": "3.4.1",
  "updatedAt": "2021-07-27T08:44:33.806Z",
  "networkType": "ethereum",
  "devdoc": {
    "methods": {
      "approve(address,uint256)": {
        "details": "See {IERC721-approve}."
      },
      "balanceOf(address)": {
        "details": "See {IERC721-balanceOf}."
      },
      "baseURI()": {
        "details": "Returns the base URI set via {_setBaseURI}. This will be automatically added as a prefix in {tokenURI} to each token's URI, or to the token ID if no specific URI is set for that token ID."
      },
      "getApproved(uint256)": {
        "details": "See {IERC721-getApproved}."
      },
      "isApprovedForAll(address,address)": {
        "details": "See {IERC721-isApprovedForAll}."
      },
      "name()": {
        "details": "See {IERC721Metadata-name}."
      },
      "ownerOf(uint256)": {
        "details": "See {IERC721-ownerOf}."
      },
      "safeTransferFrom(address,address,uint256)": {
        "details": "See {IERC721-safeTransferFrom}."
      },
      "safeTransferFrom(address,address,uint256,bytes)": {
        "details": "See {IERC721-safeTransferFrom}."
      },
      "setApprovalForAll(address,bool)": {
        "details": "See {IERC721-setApprovalForAll}."
      },
      "supportsInterface(bytes4)": {
        "details": "See {IERC165-supportsInterface}.     * Time complexity O(1), guaranteed to always use less than 30 000 gas."
      },
      "symbol()": {
        "details": "See {IERC721Metadata-symbol}."
      },
      "tokenByIndex(uint256)": {
        "details": "See {IERC721Enumerable-tokenByIndex}."
      },
      "tokenOfOwnerByIndex(address,uint256)": {
        "details": "See {IERC721Enumerable-tokenOfOwnerByIndex}."
      },
      "tokenURI(uint256)": {
        "details": "See {IERC721Metadata-tokenURI}."
      },
      "totalSupply()": {
        "details": "See {IERC721Enumerable-totalSupply}."
      },
      "transferFrom(address,address,uint256)": {
        "details": "See {IERC721-transferFrom}."
      }
    }
  },
  "userdoc": {
    "methods": {
      "constructor": "Network: Kovan Chainlink - 0x2f90A6D021db21e1B2A077c5a37B3C7E75D15b7e Chainlink - 29fa9aa13bf1468788b7cc4a500a45b8 Fee: 0.1 LINK",
      "fulfill(bytes32,bytes32)": {
        "notice": "Receive the response in the form of bytes32"
      },
      "withdrawLink()": {
        "notice": "Withdraw LINK from this contract \r NOTE: DO NOT USE THIS IN PRODUCTION AS IT CAN BE CALLED BY ANY ADDRESS. THIS IS PURELY FOR EXAMPLE PURPOSES ONLY."
      }
    }
  }
}