{
  "contractName": "TurtleCharacter",
  "abi": [
    {
      "inputs": [],
      "stateMutability": "nonpayable",
      "type": "constructor"
    },
    {
      "anonymous": false,
      "inputs": [
        {
          "indexed": true,
          "internalType": "address",
          "name": "owner",
          "type": "address"
        },
        {
          "indexed": true,
          "internalType": "address",
          "name": "approved",
          "type": "address"
        },
        {
          "indexed": true,
          "internalType": "uint256",
          "name": "tokenId",
          "type": "uint256"
        }
      ],
      "name": "Approval",
      "type": "event"
    },
    {
      "anonymous": false,
      "inputs": [
        {
          "indexed": true,
          "internalType": "address",
          "name": "owner",
          "type": "address"
        },
        {
          "indexed": true,
          "internalType": "address",
          "name": "operator",
          "type": "address"
        },
        {
          "indexed": false,
          "internalType": "bool",
          "name": "approved",
          "type": "bool"
        }
      ],
      "name": "ApprovalForAll",
      "type": "event"
    },
    {
      "anonymous": false,
      "inputs": [
        {
          "indexed": true,
          "internalType": "bytes32",
          "name": "id",
          "type": "bytes32"
        }
      ],
      "name": "ChainlinkCancelled",
      "type": "event"
    },
    {
      "anonymous": false,
      "inputs": [
        {
          "indexed": true,
          "internalType": "bytes32",
          "name": "id",
          "type": "bytes32"
        }
      ],
      "name": "ChainlinkFulfilled",
      "type": "event"
    },
    {
      "anonymous": false,
      "inputs": [
        {
          "indexed": true,
          "internalType": "bytes32",
          "name": "id",
          "type": "bytes32"
        }
      ],
      "name": "ChainlinkRequested",
      "type": "event"
    },
    {
      "anonymous": false,
      "inputs": [
        {
          "indexed": true,
          "internalType": "address",
          "name": "from",
          "type": "address"
        },
        {
          "indexed": true,
          "internalType": "address",
          "name": "to",
          "type": "address"
        },
        {
          "indexed": true,
          "internalType": "uint256",
          "name": "tokenId",
          "type": "uint256"
        }
      ],
      "name": "Transfer",
      "type": "event"
    },
    {
      "inputs": [
        {
          "internalType": "address",
          "name": "to",
          "type": "address"
        },
        {
          "internalType": "uint256",
          "name": "tokenId",
          "type": "uint256"
        }
      ],
      "name": "approve",
      "outputs": [],
      "stateMutability": "nonpayable",
      "type": "function"
    },
    {
      "inputs": [
        {
          "internalType": "address",
          "name": "owner",
          "type": "address"
        }
      ],
      "name": "balanceOf",
      "outputs": [
        {
          "internalType": "uint256",
          "name": "",
          "type": "uint256"
        }
      ],
      "stateMutability": "view",
      "type": "function"
    },
    {
      "inputs": [],
      "name": "baseURI",
      "outputs": [
        {
          "internalType": "string",
          "name": "",
          "type": "string"
        }
      ],
      "stateMutability": "view",
      "type": "function"
    },
    {
      "inputs": [],
      "name": "contractOwner",
      "outputs": [
        {
          "internalType": "address",
          "name": "",
          "type": "address"
        }
      ],
      "stateMutability": "view",
      "type": "function"
    },
    {
      "inputs": [
        {
          "internalType": "uint256",
          "name": "tokenId",
          "type": "uint256"
        }
      ],
      "name": "getApproved",
      "outputs": [
        {
          "internalType": "address",
          "name": "",
          "type": "address"
        }
      ],
      "stateMutability": "view",
      "type": "function"
    },
    {
      "inputs": [],
      "name": "ipfsLink",
      "outputs": [
        {
          "internalType": "string",
          "name": "",
          "type": "string"
        }
      ],
      "stateMutability": "view",
      "type": "function"
    },
    {
      "inputs": [
        {
          "internalType": "address",
          "name": "owner",
          "type": "address"
        },
        {
          "internalType": "address",
          "name": "operator",
          "type": "address"
        }
      ],
      "name": "isApprovedForAll",
      "outputs": [
        {
          "internalType": "bool",
          "name": "",
          "type": "bool"
        }
      ],
      "stateMutability": "view",
      "type": "function"
    },
    {
      "inputs": [],
      "name": "name",
      "outputs": [
        {
          "internalType": "string",
          "name": "",
          "type": "string"
        }
      ],
      "stateMutability": "view",
      "type": "function"
    },
    {
      "inputs": [
        {
          "internalType": "uint256",
          "name": "tokenId",
          "type": "uint256"
        }
      ],
      "name": "ownerOf",
      "outputs": [
        {
          "internalType": "address",
          "name": "",
          "type": "address"
        }
      ],
      "stateMutability": "view",
      "type": "function"
    },
    {
      "inputs": [
        {
          "internalType": "address",
          "name": "from",
          "type": "address"
        },
        {
          "internalType": "address",
          "name": "to",
          "type": "address"
        },
        {
          "internalType": "uint256",
          "name": "tokenId",
          "type": "uint256"
        }
      ],
      "name": "safeTransferFrom",
      "outputs": [],
      "stateMutability": "nonpayable",
      "type": "function"
    },
    {
      "inputs": [
        {
          "internalType": "address",
          "name": "from",
          "type": "address"
        },
        {
          "internalType": "address",
          "name": "to",
          "type": "address"
        },
        {
          "internalType": "uint256",
          "name": "tokenId",
          "type": "uint256"
        },
        {
          "internalType": "bytes",
          "name": "_data",
          "type": "bytes"
        }
      ],
      "name": "safeTransferFrom",
      "outputs": [],
      "stateMutability": "nonpayable",
      "type": "function"
    },
    {
      "inputs": [
        {
          "internalType": "address",
          "name": "operator",
          "type": "address"
        },
        {
          "internalType": "bool",
          "name": "approved",
          "type": "bool"
        }
      ],
      "name": "setApprovalForAll",
      "outputs": [],
      "stateMutability": "nonpayable",
      "type": "function"
    },
    {
      "inputs": [
        {
          "internalType": "bytes4",
          "name": "interfaceId",
          "type": "bytes4"
        }
      ],
      "name": "supportsInterface",
      "outputs": [
        {
          "internalType": "bool",
          "name": "",
          "type": "bool"
        }
      ],
      "stateMutability": "view",
      "type": "function"
    },
    {
      "inputs": [],
      "name": "symbol",
      "outputs": [
        {
          "internalType": "string",
          "name": "",
          "type": "string"
        }
      ],
      "stateMutability": "view",
      "type": "function"
    },
    {
      "inputs": [
        {
          "internalType": "uint256",
          "name": "index",
          "type": "uint256"
        }
      ],
      "name": "tokenByIndex",
      "outputs": [
        {
          "internalType": "uint256",
          "name": "",
          "type": "uint256"
        }
      ],
      "stateMutability": "view",
      "type": "function"
    },
    {
      "inputs": [
        {
          "internalType": "address",
          "name": "owner",
          "type": "address"
        },
        {
          "internalType": "uint256",
          "name": "index",
          "type": "uint256"
        }
      ],
      "name": "tokenOfOwnerByIndex",
      "outputs": [
        {
          "internalType": "uint256",
          "name": "",
          "type": "uint256"
        }
      ],
      "stateMutability": "view",
      "type": "function"
    },
    {
      "inputs": [
        {
          "internalType": "uint256",
          "name": "tokenId",
          "type": "uint256"
        }
      ],
      "name": "tokenURI",
      "outputs": [
        {
          "internalType": "string",
          "name": "",
          "type": "string"
        }
      ],
      "stateMutability": "view",
      "type": "function"
    },
    {
      "inputs": [],
      "name": "totalSupply",
      "outputs": [
        {
          "internalType": "uint256",
          "name": "",
          "type": "uint256"
        }
      ],
      "stateMutability": "view",
      "type": "function"
    },
    {
      "inputs": [
        {
          "internalType": "address",
          "name": "from",
          "type": "address"
        },
        {
          "internalType": "address",
          "name": "to",
          "type": "address"
        },
        {
          "internalType": "uint256",
          "name": "tokenId",
          "type": "uint256"
        }
      ],
      "name": "transferFrom",
      "outputs": [],
      "stateMutability": "nonpayable",
      "type": "function"
    },
    {
      "inputs": [
        {
          "internalType": "uint256",
          "name": "",
          "type": "uint256"
        }
      ],
      "name": "turtlesForSale",
      "outputs": [
        {
          "internalType": "uint256",
          "name": "",
          "type": "uint256"
        }
      ],
      "stateMutability": "view",
      "type": "function"
    },
    {
      "inputs": [
        {
          "internalType": "address",
          "name": "_oracleAddress",
          "type": "address"
        }
      ],
      "name": "setOracleAddress",
      "outputs": [],
      "stateMutability": "nonpayable",
      "type": "function"
    },
    {
      "inputs": [
        {
          "internalType": "bytes32",
          "name": "_jobID",
          "type": "bytes32"
        }
      ],
      "name": "setJobID",
      "outputs": [],
      "stateMutability": "nonpayable",
      "type": "function"
    },
    {
      "inputs": [
        {
          "internalType": "uint256",
          "name": "_fee",
          "type": "uint256"
        }
      ],
      "name": "setFeeInLink",
      "outputs": [],
      "stateMutability": "nonpayable",
      "type": "function"
    },
    {
      "inputs": [
        {
          "internalType": "uint256",
          "name": "_tokenId",
          "type": "uint256"
        }
      ],
      "name": "buyTurtle",
      "outputs": [],
      "stateMutability": "payable",
      "type": "function"
    },
    {
      "inputs": [],
      "name": "requestRandomCharacter",
      "outputs": [],
      "stateMutability": "nonpayable",
      "type": "function"
    },
    {
      "inputs": [],
      "name": "requestIPFSHash",
      "outputs": [
        {
          "internalType": "bytes32",
          "name": "requestId",
          "type": "bytes32"
        }
      ],
      "stateMutability": "nonpayable",
      "type": "function"
    },
    {
      "inputs": [
        {
          "internalType": "bytes32",
          "name": "_requestId",
          "type": "bytes32"
        },
        {
          "internalType": "bytes32",
          "name": "dataFromAPI",
          "type": "bytes32"
        }
      ],
      "name": "fulfill",
      "outputs": [
        {
          "internalType": "bytes32",
          "name": "requestId",
          "type": "bytes32"
        }
      ],
      "stateMutability": "nonpayable",
      "type": "function"
    },
    {
      "inputs": [
        {
          "internalType": "bytes32",
          "name": "_requestId",
          "type": "bytes32"
        },
        {
          "internalType": "bytes32",
          "name": "dataFromAPI",
          "type": "bytes32"
        }
      ],
      "name": "fulfillSecondRequest",
      "outputs": [],
      "stateMutability": "nonpayable",
      "type": "function"
    },
    {
      "inputs": [],
      "name": "withdrawLink",
      "outputs": [],
      "stateMutability": "nonpayable",
      "type": "function"
    }
  ],
  "bytecode": "0x608060405260016004556040518060400160405280601581526020017f68747470733a2f2f697066732e696f2f697066732f0000000000000000000000815250601390805190602001906200005692919062000443565b5060006017553480156200006957600080fd5b506040518060400160405280600f81526020017f547572746c6543686172616374657200000000000000000000000000000000008152506040518060400160405280600481526020017f5452544c00000000000000000000000000000000000000000000000000000000815250620000ee6301ffc9a760e01b6200024b60201b60201c565b81600c90805190602001906200010692919062000443565b5080600d90805190602001906200011f92919062000443565b50620001386380ac58cd60e01b6200024b60201b60201c565b62000150635b5e139f60e01b6200024b60201b60201c565b6200016863780e9d6360e01b6200024b60201b60201c565b50506200017a6200035560201b60201c565b33601060006101000a81548173ffffffffffffffffffffffffffffffffffffffff021916908373ffffffffffffffffffffffffffffffffffffffff160217905550733a56ae4a2831c3d3514b5d7af5578e45ebdb7a40601460006101000a81548173ffffffffffffffffffffffffffffffffffffffff021916908373ffffffffffffffffffffffffffffffffffffffff1602179055507f3138376262383065356565373461313339373334636163373437356633633665601581905550662386f26fc10000601681905550620004f2565b63ffffffff60e01b817bffffffffffffffffffffffffffffffffffffffffffffffffffffffff19161415620002e8576040517f08c379a000000000000000000000000000000000000000000000000000000000815260040180806020018281038252601c8152602001807f4552433136353a20696e76616c696420696e746572666163652069640000000081525060200191505060405180910390fd5b600160066000837bffffffffffffffffffffffffffffffffffffffffffffffffffffffff19167bffffffffffffffffffffffffffffffffffffffffffffffffffffffff1916815260200190815260200160002060006101000a81548160ff02191690831515021790555050565b620003fd73c89bd4e1632d3a43cb03aaad5262cbe4038bc57173ffffffffffffffffffffffffffffffffffffffff166338cc48316040518163ffffffff1660e01b815260040160206040518083038186803b158015620003b457600080fd5b505afa158015620003c9573d6000803e3d6000fd5b505050506040513d6020811015620003e057600080fd5b8101908080519060200190929190505050620003ff60201b60201c565b565b80600260006101000a81548173ffffffffffffffffffffffffffffffffffffffff021916908373ffffffffffffffffffffffffffffffffffffffff16021790555050565b828054600181600116156101000203166002900490600052602060002090601f016020900481019282601f106200048657805160ff1916838001178555620004b7565b82800160010185558215620004b7579182015b82811115620004b657825182559160200191906001019062000499565b5b509050620004c69190620004ca565b5090565b620004ef91905b80821115620004eb576000816000905550600101620004d1565b5090565b90565b614a6880620005026000396000f3fe6080604052600436106101c25760003560e01c80636352211e116100f7578063a748efb211610095578063e985e9c511610064578063e985e9c514610c2f578063f2044fe914610cb8578063f8b2474d14610ce6578063faa0b6b714610d11576101c2565b8063a748efb2146109c3578063b88d4fde14610a12578063c87b56dd14610b24578063ce606ee014610bd8576101c2565b80638dc654a2116100d15780638dc654a21461088457806395d89b411461089b578063a22cb4651461092b578063a5ac5f1c14610988576101c2565b80636352211e146107145780636c0360eb1461078f57806370a082311461081f576101c2565b8063259049f4116101645780632f745c591161013e5780632f745c591461058a57806342842e0e146105f95780634c69c00f146106745780634f6ccce7146106c5576101c2565b8063259049f41461049e5780632b22aaea146104b55780632b9d8c9a146104fa576101c2565b8063081812fc116101a0578063081812fc14610322578063095ea7b31461039d57806318160ddd146103f857806323b872dd14610423576101c2565b806301ffc9a7146101c7578063042f2b651461023957806306fdde0314610292575b600080fd5b3480156101d357600080fd5b5061021f600480360360208110156101ea57600080fd5b8101908080357bffffffffffffffffffffffffffffffffffffffffffffffffffffffff19169060200190929190505050610d4c565b604051808215151515815260200191505060405180910390f35b34801561024557600080fd5b5061027c6004803603604081101561025c57600080fd5b810190808035906020019092919080359060200190929190505050610db4565b6040518082815260200191505060405180910390f35b34801561029e57600080fd5b506102a7611010565b6040518080602001828103825283818151815260200191508051906020019080838360005b838110156102e75780820151818401526020810190506102cc565b50505050905090810190601f1680156103145780820380516001836020036101000a031916815260200191505b509250505060405180910390f35b34801561032e57600080fd5b5061035b6004803603602081101561034557600080fd5b81019080803590602001909291905050506110b2565b604051808273ffffffffffffffffffffffffffffffffffffffff1673ffffffffffffffffffffffffffffffffffffffff16815260200191505060405180910390f35b3480156103a957600080fd5b506103f6600480360360408110156103c057600080fd5b81019080803573ffffffffffffffffffffffffffffffffffffffff1690602001909291908035906020019092919050505061114d565b005b34801561040457600080fd5b5061040d611291565b6040518082815260200191505060405180910390f35b34801561042f57600080fd5b5061049c6004803603606081101561044657600080fd5b81019080803573ffffffffffffffffffffffffffffffffffffffff169060200190929190803573ffffffffffffffffffffffffffffffffffffffff169060200190929190803590602001909291905050506112a2565b005b3480156104aa57600080fd5b506104b3611318565b005b3480156104c157600080fd5b506104f8600480360360408110156104d857600080fd5b81019080803590602001909291908035906020019092919050505061137b565b005b34801561050657600080fd5b5061050f61154d565b6040518080602001828103825283818151815260200191508051906020019080838360005b8381101561054f578082015181840152602081019050610534565b50505050905090810190601f16801561057c5780820380516001836020036101000a031916815260200191505b509250505060405180910390f35b34801561059657600080fd5b506105e3600480360360408110156105ad57600080fd5b81019080803573ffffffffffffffffffffffffffffffffffffffff169060200190929190803590602001909291905050506115eb565b6040518082815260200191505060405180910390f35b34801561060557600080fd5b506106726004803603606081101561061c57600080fd5b81019080803573ffffffffffffffffffffffffffffffffffffffff169060200190929190803573ffffffffffffffffffffffffffffffffffffffff16906020019092919080359060200190929190505050611646565b005b34801561068057600080fd5b506106c36004803603602081101561069757600080fd5b81019080803573ffffffffffffffffffffffffffffffffffffffff169060200190929190505050611666565b005b3480156106d157600080fd5b506106fe600480360360208110156106e857600080fd5b8101908080359060200190929190505050611704565b6040518082815260200191505060405180910390f35b34801561072057600080fd5b5061074d6004803603602081101561073757600080fd5b8101908080359060200190929190505050611727565b604051808273ffffffffffffffffffffffffffffffffffffffff1673ffffffffffffffffffffffffffffffffffffffff16815260200191505060405180910390f35b34801561079b57600080fd5b506107a461175e565b6040518080602001828103825283818151815260200191508051906020019080838360005b838110156107e45780820151818401526020810190506107c9565b50505050905090810190601f1680156108115780820380516001836020036101000a031916815260200191505b509250505060405180910390f35b34801561082b57600080fd5b5061086e6004803603602081101561084257600080fd5b81019080803573ffffffffffffffffffffffffffffffffffffffff169060200190929190505050611800565b6040518082815260200191505060405180910390f35b34801561089057600080fd5b506108996118d5565b005b3480156108a757600080fd5b506108b0611acf565b6040518080602001828103825283818151815260200191508051906020019080838360005b838110156108f05780820151818401526020810190506108d5565b50505050905090810190601f16801561091d5780820380516001836020036101000a031916815260200191505b509250505060405180910390f35b34801561093757600080fd5b506109866004803603604081101561094e57600080fd5b81019080803573ffffffffffffffffffffffffffffffffffffffff169060200190929190803515159060200190929190505050611b71565b005b34801561099457600080fd5b506109c1600480360360208110156109ab57600080fd5b8101908080359060200190929190505050611d29565b005b3480156109cf57600080fd5b506109fc600480360360208110156109e657600080fd5b8101908080359060200190929190505050611d97565b6040518082815260200191505060405180910390f35b348015610a1e57600080fd5b50610b2260048036036080811015610a3557600080fd5b81019080803573ffffffffffffffffffffffffffffffffffffffff169060200190929190803573ffffffffffffffffffffffffffffffffffffffff1690602001909291908035906020019092919080359060200190640100000000811115610a9c57600080fd5b820183602082011115610aae57600080fd5b80359060200191846001830284011164010000000083111715610ad057600080fd5b91908080601f016020809104026020016040519081016040528093929190818152602001838380828437600081840152601f19601f820116905080830192505050505050509192919290505050611daf565b005b348015610b3057600080fd5b50610b5d60048036036020811015610b4757600080fd5b8101908080359060200190929190505050611e27565b6040518080602001828103825283818151815260200191508051906020019080838360005b83811015610b9d578082015181840152602081019050610b82565b50505050905090810190601f168015610bca5780820380516001836020036101000a031916815260200191505b509250505060405180910390f35b348015610be457600080fd5b50610bed6120f8565b604051808273ffffffffffffffffffffffffffffffffffffffff1673ffffffffffffffffffffffffffffffffffffffff16815260200191505060405180910390f35b348015610c3b57600080fd5b50610c9e60048036036040811015610c5257600080fd5b81019080803573ffffffffffffffffffffffffffffffffffffffff169060200190929190803573ffffffffffffffffffffffffffffffffffffffff16906020019092919050505061211e565b604051808215151515815260200191505060405180910390f35b610ce460048036036020811015610cce57600080fd5b81019080803590602001909291905050506121b2565b005b348015610cf257600080fd5b50610cfb6123ba565b6040518082815260200191505060405180910390f35b348015610d1d57600080fd5b50610d4a60048036036020811015610d3457600080fd5b81019080803590602001909291905050506124f0565b005b600060066000837bffffffffffffffffffffffffffffffffffffffffffffffffffffffff19167bffffffffffffffffffffffffffffffffffffffffffffffffffffffff1916815260200190815260200160002060009054906101000a900460ff169050919050565b6000826005600082815260200190815260200160002060009054906101000a900473ffffffffffffffffffffffffffffffffffffffff1673ffffffffffffffffffffffffffffffffffffffff163373ffffffffffffffffffffffffffffffffffffffff1614610e6e576040517f08c379a0000000000000000000000000000000000000000000000000000000008152600401808060200182810382526028815260200180614a0b6028913960400191505060405180910390fd5b6005600082815260200190815260200160002060006101000a81549073ffffffffffffffffffffffffffffffffffffffff0219169055807f7cc135e0cebb02c3480ae5d74d377283180a2601f8f644edf7987b009316c63a60405160405180910390a282601181905550610ee06145f6565b610ef460155430632b22aaea60e01b612554565b9050610f586040518060400160405280600381526020017f676574000000000000000000000000000000000000000000000000000000000081525060405180606001604052806029815260200161474560299139836125859092919063ffffffff16565b610fd76040518060400160405280600481526020017f70617468000000000000000000000000000000000000000000000000000000008152506040518060400160405280600981526020017f495046535f504154480000000000000000000000000000000000000000000000815250836125859092919063ffffffff16565b611006601460009054906101000a900473ffffffffffffffffffffffffffffffffffffffff16826016546125b8565b9250505092915050565b6060600c8054600181600116156101000203166002900480601f0160208091040260200160405190810160405280929190818152602001828054600181600116156101000203166002900480156110a85780601f1061107d576101008083540402835291602001916110a8565b820191906000526020600020905b81548152906001019060200180831161108b57829003601f168201915b5050505050905090565b60006110bd82612870565b611112576040517f08c379a000000000000000000000000000000000000000000000000000000000815260040180806020018281038252602c815260200180614909602c913960400191505060405180910390fd5b600a600083815260200190815260200160002060009054906101000a900473ffffffffffffffffffffffffffffffffffffffff169050919050565b600061115882611727565b90508073ffffffffffffffffffffffffffffffffffffffff168373ffffffffffffffffffffffffffffffffffffffff1614156111df576040517f08c379a00000000000000000000000000000000000000000000000000000000081526004018080602001828103825260218152602001806149b96021913960400191505060405180910390fd5b8073ffffffffffffffffffffffffffffffffffffffff166111fe61288d565b73ffffffffffffffffffffffffffffffffffffffff16148061122d575061122c8161122761288d565b61211e565b5b611282576040517f08c379a00000000000000000000000000000000000000000000000000000000081526004018080602001828103825260388152602001806148396038913960400191505060405180910390fd5b61128c8383612895565b505050565b600061129d600861294e565b905090565b6112b36112ad61288d565b82612963565b611308576040517f08c379a00000000000000000000000000000000000000000000000000000000081526004018080602001828103825260318152602001806149da6031913960400191505060405180910390fd5b611313838383612a57565b505050565b6040518060400160405280601581526020017f68747470733a2f2f697066732e696f2f697066732f000000000000000000000081525060139080519060200190611363929190614663565b5061137033601754612c9a565b6113786123ba565b50565b816005600082815260200190815260200160002060009054906101000a900473ffffffffffffffffffffffffffffffffffffffff1673ffffffffffffffffffffffffffffffffffffffff163373ffffffffffffffffffffffffffffffffffffffff1614611433576040517f08c379a0000000000000000000000000000000000000000000000000000000008152600401808060200182810382526028815260200180614a0b6028913960400191505060405180910390fd5b6005600082815260200190815260200160002060006101000a81549073ffffffffffffffffffffffffffffffffffffffff0219169055807f7cc135e0cebb02c3480ae5d74d377283180a2601f8f644edf7987b009316c63a60405160405180910390a2816012819055506114a5612cb8565b61154860138054600181600116156101000203166002900480601f01602080910402602001604051908101604052809291908181526020018280546001816001161561010002031660029004801561153e5780601f106115135761010080835404028352916020019161153e565b820191906000526020600020905b81548152906001019060200180831161152157829003601f168201915b5050505050612d95565b505050565b60138054600181600116156101000203166002900480601f0160208091040260200160405190810160405280929190818152602001828054600181600116156101000203166002900480156115e35780601f106115b8576101008083540402835291602001916115e3565b820191906000526020600020905b8154815290600101906020018083116115c657829003601f168201915b505050505081565b600061163e82600760008673ffffffffffffffffffffffffffffffffffffffff1673ffffffffffffffffffffffffffffffffffffffff168152602001908152602001600020612db690919063ffffffff16565b905092915050565b61166183838360405180602001604052806000815250611daf565b505050565b601060009054906101000a900473ffffffffffffffffffffffffffffffffffffffff1673ffffffffffffffffffffffffffffffffffffffff163373ffffffffffffffffffffffffffffffffffffffff16146116c057600080fd5b80601460006101000a81548173ffffffffffffffffffffffffffffffffffffffff021916908373ffffffffffffffffffffffffffffffffffffffff16021790555050565b60008061171b836008612dd090919063ffffffff16565b50905080915050919050565b60006117578260405180606001604052806029815260200161489b602991396008612dff9092919063ffffffff16565b9050919050565b6060600f8054600181600116156101000203166002900480601f0160208091040260200160405190810160405280929190818152602001828054600181600116156101000203166002900480156117f65780601f106117cb576101008083540402835291602001916117f6565b820191906000526020600020905b8154815290600101906020018083116117d957829003601f168201915b5050505050905090565b60008073ffffffffffffffffffffffffffffffffffffffff168273ffffffffffffffffffffffffffffffffffffffff161415611887576040517f08c379a000000000000000000000000000000000000000000000000000000000815260040180806020018281038252602a815260200180614871602a913960400191505060405180910390fd5b6118ce600760008473ffffffffffffffffffffffffffffffffffffffff1673ffffffffffffffffffffffffffffffffffffffff168152602001908152602001600020612e1e565b9050919050565b60006118df612e33565b90508073ffffffffffffffffffffffffffffffffffffffff1663a9059cbb338373ffffffffffffffffffffffffffffffffffffffff166370a08231306040518263ffffffff1660e01b8152600401808273ffffffffffffffffffffffffffffffffffffffff1673ffffffffffffffffffffffffffffffffffffffff16815260200191505060206040518083038186803b15801561197b57600080fd5b505afa15801561198f573d6000803e3d6000fd5b505050506040513d60208110156119a557600080fd5b81019080805190602001909291905050506040518363ffffffff1660e01b8152600401808373ffffffffffffffffffffffffffffffffffffffff1673ffffffffffffffffffffffffffffffffffffffff16815260200182815260200192505050602060405180830381600087803b158015611a1f57600080fd5b505af1158015611a33573d6000803e3d6000fd5b505050506040513d6020811015611a4957600080fd5b8101908080519060200190929190505050611acc576040517f08c379a00000000000000000000000000000000000000000000000000000000081526004018080602001828103825260178152602001807f556e61626c6520746f207472616e73666572204c494e4b00000000000000000081525060200191505060405180910390fd5b50565b6060600d8054600181600116156101000203166002900480601f016020809104026020016040519081016040528092919081815260200182805460018160011615610100020316600290048015611b675780601f10611b3c57610100808354040283529160200191611b67565b820191906000526020600020905b815481529060010190602001808311611b4a57829003601f168201915b5050505050905090565b611b7961288d565b73ffffffffffffffffffffffffffffffffffffffff168273ffffffffffffffffffffffffffffffffffffffff161415611c1a576040517f08c379a00000000000000000000000000000000000000000000000000000000081526004018080602001828103825260198152602001807f4552433732313a20617070726f766520746f2063616c6c65720000000000000081525060200191505060405180910390fd5b80600b6000611c2761288d565b73ffffffffffffffffffffffffffffffffffffffff1673ffffffffffffffffffffffffffffffffffffffff16815260200190815260200160002060008473ffffffffffffffffffffffffffffffffffffffff1673ffffffffffffffffffffffffffffffffffffffff16815260200190815260200160002060006101000a81548160ff0219169083151502179055508173ffffffffffffffffffffffffffffffffffffffff16611cd461288d565b73ffffffffffffffffffffffffffffffffffffffff167f17307eab39ab6107e8899845ad3d59bd9653f200f220920489ca2b5937696c3183604051808215151515815260200191505060405180910390a35050565b601060009054906101000a900473ffffffffffffffffffffffffffffffffffffffff1673ffffffffffffffffffffffffffffffffffffffff163373ffffffffffffffffffffffffffffffffffffffff1614611d8357600080fd5b670de0b6b3a7640000810260168190555050565b60186020528060005260406000206000915090505481565b611dc0611dba61288d565b83612963565b611e15576040517f08c379a00000000000000000000000000000000000000000000000000000000081526004018080602001828103825260318152602001806149da6031913960400191505060405180910390fd5b611e2184848484612e5d565b50505050565b6060611e3282612870565b611e87576040517f08c379a000000000000000000000000000000000000000000000000000000000815260040180806020018281038252602f81526020018061498a602f913960400191505060405180910390fd5b6060600e60008481526020019081526020016000208054600181600116156101000203166002900480601f016020809104026020016040519081016040528092919081815260200182805460018160011615610100020316600290048015611f305780601f10611f0557610100808354040283529160200191611f30565b820191906000526020600020905b815481529060010190602001808311611f1357829003601f168201915b505050505090506060611f4161175e565b9050600081511415611f575781925050506120f3565b6000825111156120285780826040516020018083805190602001908083835b60208310611f995780518252602082019150602081019050602083039250611f76565b6001836020036101000a03801982511681845116808217855250505050505090500182805190602001908083835b60208310611fea5780518252602082019150602081019050602083039250611fc7565b6001836020036101000a03801982511681845116808217855250505050505090500192505050604051602081830303815290604052925050506120f3565b8061203285612ecf565b6040516020018083805190602001908083835b602083106120685780518252602082019150602081019050602083039250612045565b6001836020036101000a03801982511681845116808217855250505050505090500182805190602001908083835b602083106120b95780518252602082019150602081019050602083039250612096565b6001836020036101000a03801982511681845116808217855250505050505090500192505050604051602081830303815290604052925050505b919050565b601060009054906101000a900473ffffffffffffffffffffffffffffffffffffffff1681565b6000600b60008473ffffffffffffffffffffffffffffffffffffffff1673ffffffffffffffffffffffffffffffffffffffff16815260200190815260200160002060008373ffffffffffffffffffffffffffffffffffffffff1673ffffffffffffffffffffffffffffffffffffffff16815260200190815260200160002060009054906101000a900460ff16905092915050565b600060186000838152602001908152602001600020541161223b576040517f08c379a00000000000000000000000000000000000000000000000000000000081526004018080602001828103825260208152602001807f54686520547572746c652073686f756c6420626520757020666f722073616c6581525060200191505060405180910390fd5b600060186000838152602001908152602001600020549050600061225e83611727565b90508134116122d5576040517f08c379a000000000000000000000000000000000000000000000000000000000815260040180806020018281038252601d8152602001807f596f75206e65656420746f206861766520656e6f75676820457468657200000081525060200191505060405180910390fd5b6123168133856040518060400160405280600c81526020017f427579206120547572746c650000000000000000000000000000000000000000815250612e5d565b60008190508073ffffffffffffffffffffffffffffffffffffffff166108fc849081150290604051600060405180830381858888f19350505050158015612361573d6000803e3d6000fd5b50823411156123b4573373ffffffffffffffffffffffffffffffffffffffff166108fc8434039081150290604051600060405180830381858888f193505050501580156123b2573d6000803e3d6000fd5b505b50505050565b60006123c46145f6565b6123d86015543063042f2b6560e01b612554565b905061243c6040518060400160405280600381526020017f67657400000000000000000000000000000000000000000000000000000000008152506040518060600160405280602381526020016148e660239139836125859092919063ffffffff16565b6124bb6040518060400160405280600481526020017f70617468000000000000000000000000000000000000000000000000000000008152506040518060400160405280600981526020017f495046535f504154480000000000000000000000000000000000000000000000815250836125859092919063ffffffff16565b6124ea601460009054906101000a900473ffffffffffffffffffffffffffffffffffffffff16826016546125b8565b91505090565b601060009054906101000a900473ffffffffffffffffffffffffffffffffffffffff1673ffffffffffffffffffffffffffffffffffffffff163373ffffffffffffffffffffffffffffffffffffffff161461254a57600080fd5b8060158190555050565b61255c6145f6565b6125646145f6565b61257b85858584613016909392919063ffffffff16565b9150509392505050565b61259c8284608001516130c690919063ffffffff16565b6125b38184608001516130c690919063ffffffff16565b505050565b600030600454604051602001808373ffffffffffffffffffffffffffffffffffffffff1673ffffffffffffffffffffffffffffffffffffffff1660601b815260140182815260200192505050604051602081830303815290604052805190602001209050600454836060018181525050836005600083815260200190815260200160002060006101000a81548173ffffffffffffffffffffffffffffffffffffffff021916908373ffffffffffffffffffffffffffffffffffffffff160217905550807fb5e6e01e79f91267dc17b4e6314d5d4d03593d2ceee0fbb452b750bd70ea5af960405160405180910390a2600260009054906101000a900473ffffffffffffffffffffffffffffffffffffffff1673ffffffffffffffffffffffffffffffffffffffff16634000aea085846126f0876130eb565b6040518463ffffffff1660e01b8152600401808473ffffffffffffffffffffffffffffffffffffffff1673ffffffffffffffffffffffffffffffffffffffff16815260200183815260200180602001828103825283818151815260200191508051906020019080838360005b8381101561277757808201518184015260208101905061275c565b50505050905090810190601f1680156127a45780820380516001836020036101000a031916815260200191505b50945050505050602060405180830381600087803b1580156127c557600080fd5b505af11580156127d9573d6000803e3d6000fd5b505050506040513d60208110156127ef57600080fd5b8101908080519060200190929190505050612855576040517f08c379a00000000000000000000000000000000000000000000000000000000081526004018080602001828103825260238152602001806147a06023913960400191505060405180910390fd5b60016004600082825401925050819055508090509392505050565b60006128868260086132b790919063ffffffff16565b9050919050565b600033905090565b81600a600083815260200190815260200160002060006101000a81548173ffffffffffffffffffffffffffffffffffffffff021916908373ffffffffffffffffffffffffffffffffffffffff160217905550808273ffffffffffffffffffffffffffffffffffffffff1661290883611727565b73ffffffffffffffffffffffffffffffffffffffff167f8c5be1e5ebec7d5bd14f71427d1e84f3dd0314c0f7b2291e5b200ac8c7c3b92560405160405180910390a45050565b600061295c826000016132d1565b9050919050565b600061296e82612870565b6129c3576040517f08c379a000000000000000000000000000000000000000000000000000000000815260040180806020018281038252602c81526020018061480d602c913960400191505060405180910390fd5b60006129ce83611727565b90508073ffffffffffffffffffffffffffffffffffffffff168473ffffffffffffffffffffffffffffffffffffffff161480612a3d57508373ffffffffffffffffffffffffffffffffffffffff16612a25846110b2565b73ffffffffffffffffffffffffffffffffffffffff16145b80612a4e5750612a4d818561211e565b5b91505092915050565b8273ffffffffffffffffffffffffffffffffffffffff16612a7782611727565b73ffffffffffffffffffffffffffffffffffffffff1614612ae3576040517f08c379a00000000000000000000000000000000000000000000000000000000081526004018080602001828103825260298152602001806149616029913960400191505060405180910390fd5b600073ffffffffffffffffffffffffffffffffffffffff168273ffffffffffffffffffffffffffffffffffffffff161415612b69576040517f08c379a00000000000000000000000000000000000000000000000000000000081526004018080602001828103825260248152602001806147c36024913960400191505060405180910390fd5b612b748383836132e2565b612b7f600082612895565b612bd081600760008673ffffffffffffffffffffffffffffffffffffffff1673ffffffffffffffffffffffffffffffffffffffff1681526020019081526020016000206132e790919063ffffffff16565b50612c2281600760008573ffffffffffffffffffffffffffffffffffffffff1673ffffffffffffffffffffffffffffffffffffffff16815260200190815260200160002061330190919063ffffffff16565b50612c398183600861331b9092919063ffffffff16565b50808273ffffffffffffffffffffffffffffffffffffffff168473ffffffffffffffffffffffffffffffffffffffff167fddf252ad1be2c89b69c2b068fc378daa952ba7f163c4a11628f55a4df523b3ef60405160405180910390a4505050565b612cb4828260405180602001604052806000815250613350565b5050565b6060612cc56011546133c1565b90506060612cd46012546133c1565b9050612d7b60138054600181600116156101000203166002900480601f016020809104026020016040519081016040528092919081815260200182805460018160011615610100020316600290048015612d6f5780601f10612d4457610100808354040283529160200191612d6f565b820191906000526020600020905b815481529060010190602001808311612d5257829003601f168201915b50505050508383613535565b60139080519060200190612d90929190614663565b505050565b612da160175482613651565b60176000815480929190600101919050555050565b6000612dc583600001836136db565b60001c905092915050565b600080600080612de3866000018661375e565b915091508160001c8160001c8090509350935050509250929050565b6000612e12846000018460001b846137f7565b60001c90509392505050565b6000612e2c826000016138ed565b9050919050565b6000600260009054906101000a900473ffffffffffffffffffffffffffffffffffffffff16905090565b612e68848484612a57565b612e74848484846138fe565b612ec9576040517f08c379a000000000000000000000000000000000000000000000000000000000815260040180806020018281038252603281526020018061476e6032913960400191505060405180910390fd5b50505050565b60606000821415612f17576040518060400160405280600181526020017f30000000000000000000000000000000000000000000000000000000000000008152509050613011565b600082905060005b60008214612f41578080600101915050600a8281612f3957fe5b049150612f1f565b60608167ffffffffffffffff81118015612f5a57600080fd5b506040519080825280601f01601f191660200182016040528015612f8d5781602001600182028036833780820191505090505b50905060006001830390508593505b6000841461300957600a8481612fae57fe5b0660300160f81b82828060019003935081518110612fc857fe5b60200101907effffffffffffffffffffffffffffffffffffffffffffffffffffffffffffff1916908160001a905350600a848161300157fe5b049350612f9c565b819450505050505b919050565b61301e6145f6565b61302e8560800151610100613b43565b508385600001818152505082856020019073ffffffffffffffffffffffffffffffffffffffff16908173ffffffffffffffffffffffffffffffffffffffff16815250508185604001907bffffffffffffffffffffffffffffffffffffffffffffffffffffffff191690817bffffffffffffffffffffffffffffffffffffffffffffffffffffffff191681525050849050949350505050565b6130d38260038351613b97565b6130e68183613cdc90919063ffffffff16565b505050565b6060634042994660e01b60008084600001518560200151866040015187606001516001896080015160000151604051602401808973ffffffffffffffffffffffffffffffffffffffff1673ffffffffffffffffffffffffffffffffffffffff1681526020018881526020018781526020018673ffffffffffffffffffffffffffffffffffffffff1673ffffffffffffffffffffffffffffffffffffffff168152602001857bffffffffffffffffffffffffffffffffffffffffffffffffffffffff19167bffffffffffffffffffffffffffffffffffffffffffffffffffffffff1916815260200184815260200183815260200180602001828103825283818151815260200191508051906020019080838360005b8381101561321a5780820151818401526020810190506131ff565b50505050905090810190601f1680156132475780820380516001836020036101000a031916815260200191505b509950505050505050505050604051602081830303815290604052907bffffffffffffffffffffffffffffffffffffffffffffffffffffffff19166020820180517bffffffffffffffffffffffffffffffffffffffffffffffffffffffff83818316178352505050509050919050565b60006132c9836000018360001b613cfe565b905092915050565b600081600001805490509050919050565b505050565b60006132f9836000018360001b613d21565b905092915050565b6000613313836000018360001b613e09565b905092915050565b6000613347846000018460001b8473ffffffffffffffffffffffffffffffffffffffff1660001b613e79565b90509392505050565b61335a8383613f55565b61336760008484846138fe565b6133bc576040517f08c379a000000000000000000000000000000000000000000000000000000000815260040180806020018281038252603281526020018061476e6032913960400191505060405180910390fd5b505050565b606060008090505b60208160ff161080156134145750600060f81b838260ff16602081106133eb57fe5b1a60f81b7effffffffffffffffffffffffffffffffffffffffffffffffffffffffffffff191614155b156134265780806001019150506133c9565b60608160ff1667ffffffffffffffff8111801561344257600080fd5b506040519080825280601f01601f1916602001820160405280156134755781602001600182028036833780820191505090505b509050600091505b60208260ff161080156134c85750600060f81b848360ff166020811061349f57fe5b1a60f81b7effffffffffffffffffffffffffffffffffffffffffffffffffffffffffffff191614155b1561352b57838260ff16602081106134dc57fe5b1a60f81b818360ff16815181106134ef57fe5b60200101907effffffffffffffffffffffffffffffffffffffffffffffffffffffffffffff1916908160001a905350818060010192505061347d565b8092505050919050565b60608383836040516020018084805190602001908083835b60208310613570578051825260208201915060208101905060208303925061354d565b6001836020036101000a03801982511681845116808217855250505050505090500183805190602001908083835b602083106135c1578051825260208201915060208101905060208303925061359e565b6001836020036101000a03801982511681845116808217855250505050505090500182805190602001908083835b6020831061361257805182526020820191506020810190506020830392506135ef565b6001836020036101000a038019825116818451168082178552505050505050905001935050505060405160208183030381529060405290509392505050565b61365a82612870565b6136af576040517f08c379a000000000000000000000000000000000000000000000000000000000815260040180806020018281038252602c815260200180614935602c913960400191505060405180910390fd5b80600e600084815260200190815260200160002090805190602001906136d6929190614663565b505050565b60008183600001805490501161373c576040517f08c379a00000000000000000000000000000000000000000000000000000000081526004018080602001828103825260228152602001806147236022913960400191505060405180910390fd5b82600001828154811061374b57fe5b9060005260206000200154905092915050565b600080828460000180549050116137c0576040517f08c379a00000000000000000000000000000000000000000000000000000000081526004018080602001828103825260228152602001806148c46022913960400191505060405180910390fd5b60008460000184815481106137d157fe5b906000526020600020906002020190508060000154816001015492509250509250929050565b600080846001016000858152602001908152602001600020549050600081141583906138be576040517f08c379a00000000000000000000000000000000000000000000000000000000081526004018080602001828103825283818151815260200191508051906020019080838360005b83811015613883578082015181840152602081019050613868565b50505050905090810190601f1680156138b05780820380516001836020036101000a031916815260200191505b509250505060405180910390fd5b508460000160018203815481106138d157fe5b9060005260206000209060020201600101549150509392505050565b600081600001805490509050919050565b600061391f8473ffffffffffffffffffffffffffffffffffffffff16614149565b61392c5760019050613b3b565b6060613ac263150b7a0260e01b61394161288d565b888787604051602401808573ffffffffffffffffffffffffffffffffffffffff1673ffffffffffffffffffffffffffffffffffffffff1681526020018473ffffffffffffffffffffffffffffffffffffffff1673ffffffffffffffffffffffffffffffffffffffff16815260200183815260200180602001828103825283818151815260200191508051906020019080838360005b838110156139f15780820151818401526020810190506139d6565b50505050905090810190601f168015613a1e5780820380516001836020036101000a031916815260200191505b5095505050505050604051602081830303815290604052907bffffffffffffffffffffffffffffffffffffffffffffffffffffffff19166020820180517bffffffffffffffffffffffffffffffffffffffffffffffffffffffff838183161783525050505060405180606001604052806032815260200161476e603291398773ffffffffffffffffffffffffffffffffffffffff1661415c9092919063ffffffff16565b90506000818060200190516020811015613adb57600080fd5b8101908080519060200190929190505050905063150b7a0260e01b7bffffffffffffffffffffffffffffffffffffffffffffffffffffffff1916817bffffffffffffffffffffffffffffffffffffffffffffffffffffffff191614925050505b949350505050565b613b4b6146e3565b600060208381613b5757fe5b0614613b705760208281613b6757fe5b06602003820191505b81836020018181525050604051808452600081528281016020016040525082905092915050565b60178111613bc457613bbe8160058460ff16901b60ff16178461417490919063ffffffff16565b50613cd7565b60ff8111613c0657613be9601860058460ff16901b178461417490919063ffffffff16565b50613c00816001856141949092919063ffffffff16565b50613cd6565b61ffff8111613c4957613c2c601960058460ff16901b178461417490919063ffffffff16565b50613c43816002856141949092919063ffffffff16565b50613cd5565b63ffffffff8111613c8e57613c71601a60058460ff16901b178461417490919063ffffffff16565b50613c88816004856141949092919063ffffffff16565b50613cd4565b67ffffffffffffffff8111613cd357613cba601b60058460ff16901b178461417490919063ffffffff16565b50613cd1816008856141949092919063ffffffff16565b505b5b5b5b5b505050565b613ce46146e3565b613cf6838460000151518485516141b6565b905092915050565b600080836001016000848152602001908152602001600020541415905092915050565b60008083600101600084815260200190815260200160002054905060008114613dfd5760006001820390506000600186600001805490500390506000866000018281548110613d6c57fe5b9060005260206000200154905080876000018481548110613d8957fe5b9060005260206000200181905550600183018760010160008381526020019081526020016000208190555086600001805480613dc157fe5b60019003818190600052602060002001600090559055866001016000878152602001908152602001600020600090556001945050505050613e03565b60009150505b92915050565b6000613e15838361426f565b613e6e578260000182908060018154018082558091505060019003906000526020600020016000909190919091505582600001805490508360010160008481526020019081526020016000208190555060019050613e73565b600090505b92915050565b6000808460010160008581526020019081526020016000205490506000811415613f2057846000016040518060400160405280868152602001858152509080600181540180825580915050600190039060005260206000209060020201600090919091909150600082015181600001556020820151816001015550508460000180549050856001016000868152602001908152602001600020819055506001915050613f4e565b82856000016001830381548110613f3357fe5b90600052602060002090600202016001018190555060009150505b9392505050565b600073ffffffffffffffffffffffffffffffffffffffff168273ffffffffffffffffffffffffffffffffffffffff161415613ff8576040517f08c379a00000000000000000000000000000000000000000000000000000000081526004018080602001828103825260208152602001807f4552433732313a206d696e7420746f20746865207a65726f206164647265737381525060200191505060405180910390fd5b61400181612870565b15614074576040517f08c379a000000000000000000000000000000000000000000000000000000000815260040180806020018281038252601c8152602001807f4552433732313a20746f6b656e20616c7265616479206d696e7465640000000081525060200191505060405180910390fd5b614080600083836132e2565b6140d181600760008573ffffffffffffffffffffffffffffffffffffffff1673ffffffffffffffffffffffffffffffffffffffff16815260200190815260200160002061330190919063ffffffff16565b506140e88183600861331b9092919063ffffffff16565b50808273ffffffffffffffffffffffffffffffffffffffff16600073ffffffffffffffffffffffffffffffffffffffff167fddf252ad1be2c89b69c2b068fc378daa952ba7f163c4a11628f55a4df523b3ef60405160405180910390a45050565b600080823b905060008111915050919050565b606061416b8484600085614292565b90509392505050565b61417c6146e3565b61418c838460000151518461443b565b905092915050565b61419c6146e3565b6141ad848560000151518585614489565b90509392505050565b6141be6146e3565b82518211156141cc57600080fd5b846020015182850111156141f7576141f68560026141f088602001518887016144ea565b02614506565b5b6000808651805187602083010193508088870111156142165787860182525b60208701925050505b60208410614242578051825260208201915060208101905060208403935061421f565b60006001856020036101000a03905080198251168184511681811785525050879350505050949350505050565b600080836001016000848152602001908152602001600020541415905092915050565b6060824710156142ed576040517f08c379a00000000000000000000000000000000000000000000000000000000081526004018080602001828103825260268152602001806147e76026913960400191505060405180910390fd5b6142f685614149565b614368576040517f08c379a000000000000000000000000000000000000000000000000000000000815260040180806020018281038252601d8152602001807f416464726573733a2063616c6c20746f206e6f6e2d636f6e747261637400000081525060200191505060405180910390fd5b600060608673ffffffffffffffffffffffffffffffffffffffff1685876040518082805190602001908083835b602083106143b85780518252602082019150602081019050602083039250614395565b6001836020036101000a03801982511681845116808217855250505050505090500191505060006040518083038185875af1925050503d806000811461441a576040519150601f19603f3d011682016040523d82523d6000602084013e61441f565b606091505b509150915061442f82828661452a565b92505050949350505050565b6144436146e3565b836020015183106144605761445f846002866020015102614506565b5b835180516020858301018481538186141561447c576001820183525b5050508390509392505050565b6144916146e3565b846020015184830111156144af576144ae85600286850102614506565b5b60006001836101000a03905085518386820101858319825116178152815185880111156144dc5784870182525b505085915050949350505050565b6000818311156144fc57829050614500565b8190505b92915050565b6060826000015190506145198383613b43565b506145248382613cdc565b50505050565b6060831561453a578290506145ef565b60008351111561454d5782518084602001fd5b816040517f08c379a00000000000000000000000000000000000000000000000000000000081526004018080602001828103825283818151815260200191508051906020019080838360005b838110156145b4578082015181840152602081019050614599565b50505050905090810190601f1680156145e15780820380516001836020036101000a031916815260200191505b509250505060405180910390fd5b9392505050565b6040518060a0016040528060008019168152602001600073ffffffffffffffffffffffffffffffffffffffff16815260200160007bffffffffffffffffffffffffffffffffffffffffffffffffffffffff191681526020016000815260200161465d6146e3565b81525090565b828054600181600116156101000203166002900490600052602060002090601f016020900481019282601f106146a457805160ff19168380011785556146d2565b828001600101855582156146d2579182015b828111156146d15782518255916020019190600101906146b6565b5b5090506146df91906146fd565b5090565b604051806040016040528060608152602001600081525090565b61471f91905b8082111561471b576000816000905550600101614703565b5090565b9056fe456e756d657261626c655365743a20696e646578206f7574206f6620626f756e647368747470733a2f2f696d616765732d626c656e642e6865726f6b756170702e636f6d2f7365636f6e644552433732313a207472616e7366657220746f206e6f6e20455243373231526563656976657220696d706c656d656e746572756e61626c6520746f207472616e73666572416e6443616c6c20746f206f7261636c654552433732313a207472616e7366657220746f20746865207a65726f2061646472657373416464726573733a20696e73756666696369656e742062616c616e636520666f722063616c6c4552433732313a206f70657261746f7220717565727920666f72206e6f6e6578697374656e7420746f6b656e4552433732313a20617070726f76652063616c6c6572206973206e6f74206f776e6572206e6f7220617070726f76656420666f7220616c6c4552433732313a2062616c616e636520717565727920666f7220746865207a65726f20616464726573734552433732313a206f776e657220717565727920666f72206e6f6e6578697374656e7420746f6b656e456e756d657261626c654d61703a20696e646578206f7574206f6620626f756e647368747470733a2f2f696d616765732d626c656e642e6865726f6b756170702e636f6d2f4552433732313a20617070726f76656420717565727920666f72206e6f6e6578697374656e7420746f6b656e4552433732314d657461646174613a2055524920736574206f66206e6f6e6578697374656e7420746f6b656e4552433732313a207472616e73666572206f6620746f6b656e2074686174206973206e6f74206f776e4552433732314d657461646174613a2055524920717565727920666f72206e6f6e6578697374656e7420746f6b656e4552433732313a20617070726f76616c20746f2063757272656e74206f776e65724552433732313a207472616e736665722063616c6c6572206973206e6f74206f776e6572206e6f7220617070726f766564536f75726365206d75737420626520746865206f7261636c65206f66207468652072657175657374a2646970667358221220152a23e8b2096fba19db93d9fb5ccc0e56c371001559dbb793958461170902d164736f6c63430006060033",
  "immutableReferences": {},
  "source": "// SPDX-License-Identifier: MIT\npragma solidity ^0.6.6;\n\nimport \"@chainlink/contracts/src/v0.6/ChainlinkClient.sol\";\nimport \"@openzeppelin/contracts/token/ERC721/ERC721.sol\";\n\ncontract TurtleCharacter is ChainlinkClient, ERC721 {\n    address public contractOwner;\n\n\n    bytes32 private ipfsHashOneBytes32;\n    bytes32 private ipfsHashTwoBytes32;\n    string public ipfsLink = \"https://ipfs.io/ipfs/\";\n\n    address private oracle;\n    bytes32 private jobId;\n    uint256 private fee;\n    uint256 private uniqueTokenId = 0;\n\n    // Token ID to Price\n    mapping(uint256 => uint256) public turtlesForSale;\n\n    /**\n     * Network: Rinkeby\n     * Oracle - 0x3A56aE4a2831C3d3514b5D7Af5578E45eBDb7a40\n     * Job ID - 187bb80e5ee74a139734cac7475f3c6e\n     * Fee: 0.01 LINK\n     */\n    constructor() public ERC721(\"TurtleCharacter\", \"TRTL\") {\n        setPublicChainlinkToken();\n        contractOwner = msg.sender;\n        oracle = 0x3A56aE4a2831C3d3514b5D7Af5578E45eBDb7a40;\n        jobId = \"187bb80e5ee74a139734cac7475f3c6e\";\n        fee = 0.01 * 10**18; // 0.01 LINK\n    }\n\n    modifier onlyContractOwner() {\n        require(msg.sender == contractOwner);\n        _;\n    }\n\n    function setOracleAddress(address _oracleAddress) public onlyContractOwner {\n        oracle = _oracleAddress;\n    }\n\n    function setJobID(bytes32 _jobID) public onlyContractOwner {\n        jobId = _jobID;\n    }\n\n    function setFeeInLink(uint256 _fee) public onlyContractOwner {\n        fee = _fee * 10**18;\n    }\n\n    function buyTurtle(uint256 _tokenId) public payable {\n        require(turtlesForSale[_tokenId] > 0, \"The Turtle should be up for sale\");\n        uint256 turtleCost = turtlesForSale[_tokenId];\n        address ownerAddress = ownerOf(_tokenId);\n        require(msg.value > turtleCost, \"You need to have enough Ether\");\n        _safeTransfer(ownerAddress, msg.sender, _tokenId, bytes(\"Buy a Turtle\")); \n        address payable ownerAddressPayable = payable(ownerAddress); \n        ownerAddressPayable.transfer(turtleCost);\n        if(msg.value > turtleCost) {\n            payable(msg.sender).transfer(msg.value - turtleCost);\n        }\n    }\n\n    function requestRandomCharacter() public {\n        ipfsLink = \"https://ipfs.io/ipfs/\";\n        _safeMint(msg.sender, uniqueTokenId);\n        requestIPFSHash();\n    }\n\n    function requestIPFSHash() public returns (bytes32 requestId) {\n        Chainlink.Request memory request = buildChainlinkRequest(\n            jobId,\n            address(this),\n            this.fulfill.selector\n        );\n        request.add(\"get\", \"https://images-blend.herokuapp.com/\");\n        request.add(\"path\", \"IPFS_PATH\");\n\n        return sendChainlinkRequestTo(oracle, request, fee);\n    }\n\n    function fulfill(bytes32 _requestId, bytes32 dataFromAPI) public recordChainlinkFulfillment(_requestId) returns (bytes32 requestId) {\n        ipfsHashOneBytes32 = dataFromAPI;\n\n        Chainlink.Request memory request = buildChainlinkRequest(\n            jobId,\n            address(this),\n            this.fulfillSecondRequest.selector\n        );\n        request.add(\"get\", \"https://images-blend.herokuapp.com/second\");\n        request.add(\"path\", \"IPFS_PATH\");\n\n        return sendChainlinkRequestTo(oracle, request, fee);\n    }\n\n    function fulfillSecondRequest(bytes32 _requestId, bytes32 dataFromAPI) public recordChainlinkFulfillment(_requestId) {\n        ipfsHashTwoBytes32 = dataFromAPI;\n        generateIPFSLink();\n        setTokenURI(ipfsLink);\n    }\n\n    function bytes32ToString(bytes32 _bytes32) internal pure returns (string memory) {\n        uint8 i = 0;\n        while (i < 32 && _bytes32[i] != 0) {\n            i++;\n        }\n        bytes memory bytesArray = new bytes(i);\n        for (i = 0; i < 32 && _bytes32[i] != 0; i++) {\n            bytesArray[i] = _bytes32[i];\n        }\n        return string(bytesArray);\n    }\n\n    function generateIPFSLink() private {\n        string memory ipfsHashPartOne = bytes32ToString(ipfsHashOneBytes32);\n        string memory ipfsHashPartTwo = bytes32ToString(ipfsHashTwoBytes32);\n        ipfsLink = append(ipfsLink, ipfsHashPartOne, ipfsHashPartTwo);\n    }\n\n    function append(\n        string memory a,\n        string memory b,\n        string memory c\n    ) internal pure returns (string memory) {\n        return string(abi.encodePacked(a, b, c));\n    }\n\n    function withdrawLink() external {\n        LinkTokenInterface linkToken = LinkTokenInterface(\n            chainlinkTokenAddress()\n        );\n        require(\n            linkToken.transfer(msg.sender, linkToken.balanceOf(address(this))),\n            \"Unable to transfer LINK\"\n        );\n    }\n\n    function setTokenURI(string memory _tokenURI) private {\n        _setTokenURI(uniqueTokenId, _tokenURI);\n        uniqueTokenId++;\n    }\n}\n",
  "sourcePath": "D:/EthOdyssey/NFT-Game/contracts/TurtleCharacter.sol",
  "compiler": {
    "name": "solc",
    "version": "0.6.6+commit.6c089d02.Emscripten.clang"
  },
  "schemaVersion": "3.4.1",
  "updatedAt": "2021-07-27T13:29:07.956Z",
  "devdoc": {
    "methods": {
      "approve(address,uint256)": {
        "details": "See {IERC721-approve}."
      },
      "balanceOf(address)": {
        "details": "See {IERC721-balanceOf}."
      },
      "baseURI()": {
        "details": "Returns the base URI set via {_setBaseURI}. This will be automatically added as a prefix in {tokenURI} to each token's URI, or to the token ID if no specific URI is set for that token ID."
      },
      "getApproved(uint256)": {
        "details": "See {IERC721-getApproved}."
      },
      "isApprovedForAll(address,address)": {
        "details": "See {IERC721-isApprovedForAll}."
      },
      "name()": {
        "details": "See {IERC721Metadata-name}."
      },
      "ownerOf(uint256)": {
        "details": "See {IERC721-ownerOf}."
      },
      "safeTransferFrom(address,address,uint256)": {
        "details": "See {IERC721-safeTransferFrom}."
      },
      "safeTransferFrom(address,address,uint256,bytes)": {
        "details": "See {IERC721-safeTransferFrom}."
      },
      "setApprovalForAll(address,bool)": {
        "details": "See {IERC721-setApprovalForAll}."
      },
      "supportsInterface(bytes4)": {
        "details": "See {IERC165-supportsInterface}.     * Time complexity O(1), guaranteed to always use less than 30 000 gas."
      },
      "symbol()": {
        "details": "See {IERC721Metadata-symbol}."
      },
      "tokenByIndex(uint256)": {
        "details": "See {IERC721Enumerable-tokenByIndex}."
      },
      "tokenOfOwnerByIndex(address,uint256)": {
        "details": "See {IERC721Enumerable-tokenOfOwnerByIndex}."
      },
      "tokenURI(uint256)": {
        "details": "See {IERC721Metadata-tokenURI}."
      },
      "totalSupply()": {
        "details": "See {IERC721Enumerable-totalSupply}."
      },
      "transferFrom(address,address,uint256)": {
        "details": "See {IERC721-transferFrom}."
      }
    }
  },
  "userdoc": {
    "methods": {
      "constructor": "Network: Rinkeby Oracle - 0x3A56aE4a2831C3d3514b5D7Af5578E45eBDb7a40 Job ID - 187bb80e5ee74a139734cac7475f3c6e Fee: 0.01 LINK"
    }
  }
}