{
  "contractName": "TurtleCharacter",
  "abi": [
    {
      "inputs": [],
      "stateMutability": "nonpayable",
      "type": "constructor"
    },
    {
      "anonymous": false,
      "inputs": [
        {
          "indexed": true,
          "internalType": "address",
          "name": "owner",
          "type": "address"
        },
        {
          "indexed": true,
          "internalType": "address",
          "name": "approved",
          "type": "address"
        },
        {
          "indexed": true,
          "internalType": "uint256",
          "name": "tokenId",
          "type": "uint256"
        }
      ],
      "name": "Approval",
      "type": "event"
    },
    {
      "anonymous": false,
      "inputs": [
        {
          "indexed": true,
          "internalType": "address",
          "name": "owner",
          "type": "address"
        },
        {
          "indexed": true,
          "internalType": "address",
          "name": "operator",
          "type": "address"
        },
        {
          "indexed": false,
          "internalType": "bool",
          "name": "approved",
          "type": "bool"
        }
      ],
      "name": "ApprovalForAll",
      "type": "event"
    },
    {
      "anonymous": false,
      "inputs": [
        {
          "indexed": true,
          "internalType": "bytes32",
          "name": "id",
          "type": "bytes32"
        }
      ],
      "name": "ChainlinkCancelled",
      "type": "event"
    },
    {
      "anonymous": false,
      "inputs": [
        {
          "indexed": true,
          "internalType": "bytes32",
          "name": "id",
          "type": "bytes32"
        }
      ],
      "name": "ChainlinkFulfilled",
      "type": "event"
    },
    {
      "anonymous": false,
      "inputs": [
        {
          "indexed": true,
          "internalType": "bytes32",
          "name": "id",
          "type": "bytes32"
        }
      ],
      "name": "ChainlinkRequested",
      "type": "event"
    },
    {
      "anonymous": false,
      "inputs": [
        {
          "indexed": false,
          "internalType": "string",
          "name": "ipfsLink",
          "type": "string"
        }
      ],
      "name": "DataReceivedFromAPI",
      "type": "event"
    },
    {
      "anonymous": false,
      "inputs": [
        {
          "indexed": false,
          "internalType": "uint256",
          "name": "tokenId",
          "type": "uint256"
        }
      ],
      "name": "NewTurtleGenerated",
      "type": "event"
    },
    {
      "anonymous": false,
      "inputs": [
        {
          "indexed": true,
          "internalType": "address",
          "name": "from",
          "type": "address"
        },
        {
          "indexed": true,
          "internalType": "address",
          "name": "to",
          "type": "address"
        },
        {
          "indexed": true,
          "internalType": "uint256",
          "name": "tokenId",
          "type": "uint256"
        }
      ],
      "name": "Transfer",
      "type": "event"
    },
    {
      "anonymous": false,
      "inputs": [
        {
          "indexed": false,
          "internalType": "uint256",
          "name": "tokenId",
          "type": "uint256"
        }
      ],
      "name": "TurtleBought",
      "type": "event"
    },
    {
      "anonymous": false,
      "inputs": [
        {
          "indexed": false,
          "internalType": "uint256",
          "name": "tokenId",
          "type": "uint256"
        }
      ],
      "name": "TurtleUpForSale",
      "type": "event"
    },
    {
      "inputs": [
        {
          "internalType": "address",
          "name": "to",
          "type": "address"
        },
        {
          "internalType": "uint256",
          "name": "tokenId",
          "type": "uint256"
        }
      ],
      "name": "approve",
      "outputs": [],
      "stateMutability": "nonpayable",
      "type": "function"
    },
    {
      "inputs": [
        {
          "internalType": "address",
          "name": "owner",
          "type": "address"
        }
      ],
      "name": "balanceOf",
      "outputs": [
        {
          "internalType": "uint256",
          "name": "",
          "type": "uint256"
        }
      ],
      "stateMutability": "view",
      "type": "function"
    },
    {
      "inputs": [],
      "name": "baseURI",
      "outputs": [
        {
          "internalType": "string",
          "name": "",
          "type": "string"
        }
      ],
      "stateMutability": "view",
      "type": "function"
    },
    {
      "inputs": [],
      "name": "contractOwner",
      "outputs": [
        {
          "internalType": "address",
          "name": "",
          "type": "address"
        }
      ],
      "stateMutability": "view",
      "type": "function"
    },
    {
      "inputs": [
        {
          "internalType": "uint256",
          "name": "tokenId",
          "type": "uint256"
        }
      ],
      "name": "getApproved",
      "outputs": [
        {
          "internalType": "address",
          "name": "",
          "type": "address"
        }
      ],
      "stateMutability": "view",
      "type": "function"
    },
    {
      "inputs": [],
      "name": "ipfsLink",
      "outputs": [
        {
          "internalType": "string",
          "name": "",
          "type": "string"
        }
      ],
      "stateMutability": "view",
      "type": "function"
    },
    {
      "inputs": [
        {
          "internalType": "address",
          "name": "owner",
          "type": "address"
        },
        {
          "internalType": "address",
          "name": "operator",
          "type": "address"
        }
      ],
      "name": "isApprovedForAll",
      "outputs": [
        {
          "internalType": "bool",
          "name": "",
          "type": "bool"
        }
      ],
      "stateMutability": "view",
      "type": "function"
    },
    {
      "inputs": [],
      "name": "name",
      "outputs": [
        {
          "internalType": "string",
          "name": "",
          "type": "string"
        }
      ],
      "stateMutability": "view",
      "type": "function"
    },
    {
      "inputs": [
        {
          "internalType": "uint256",
          "name": "tokenId",
          "type": "uint256"
        }
      ],
      "name": "ownerOf",
      "outputs": [
        {
          "internalType": "address",
          "name": "",
          "type": "address"
        }
      ],
      "stateMutability": "view",
      "type": "function"
    },
    {
      "inputs": [
        {
          "internalType": "address",
          "name": "from",
          "type": "address"
        },
        {
          "internalType": "address",
          "name": "to",
          "type": "address"
        },
        {
          "internalType": "uint256",
          "name": "tokenId",
          "type": "uint256"
        }
      ],
      "name": "safeTransferFrom",
      "outputs": [],
      "stateMutability": "nonpayable",
      "type": "function"
    },
    {
      "inputs": [
        {
          "internalType": "address",
          "name": "from",
          "type": "address"
        },
        {
          "internalType": "address",
          "name": "to",
          "type": "address"
        },
        {
          "internalType": "uint256",
          "name": "tokenId",
          "type": "uint256"
        },
        {
          "internalType": "bytes",
          "name": "_data",
          "type": "bytes"
        }
      ],
      "name": "safeTransferFrom",
      "outputs": [],
      "stateMutability": "nonpayable",
      "type": "function"
    },
    {
      "inputs": [
        {
          "internalType": "address",
          "name": "operator",
          "type": "address"
        },
        {
          "internalType": "bool",
          "name": "approved",
          "type": "bool"
        }
      ],
      "name": "setApprovalForAll",
      "outputs": [],
      "stateMutability": "nonpayable",
      "type": "function"
    },
    {
      "inputs": [
        {
          "internalType": "bytes4",
          "name": "interfaceId",
          "type": "bytes4"
        }
      ],
      "name": "supportsInterface",
      "outputs": [
        {
          "internalType": "bool",
          "name": "",
          "type": "bool"
        }
      ],
      "stateMutability": "view",
      "type": "function"
    },
    {
      "inputs": [],
      "name": "symbol",
      "outputs": [
        {
          "internalType": "string",
          "name": "",
          "type": "string"
        }
      ],
      "stateMutability": "view",
      "type": "function"
    },
    {
      "inputs": [
        {
          "internalType": "uint256",
          "name": "index",
          "type": "uint256"
        }
      ],
      "name": "tokenByIndex",
      "outputs": [
        {
          "internalType": "uint256",
          "name": "",
          "type": "uint256"
        }
      ],
      "stateMutability": "view",
      "type": "function"
    },
    {
      "inputs": [
        {
          "internalType": "address",
          "name": "owner",
          "type": "address"
        },
        {
          "internalType": "uint256",
          "name": "index",
          "type": "uint256"
        }
      ],
      "name": "tokenOfOwnerByIndex",
      "outputs": [
        {
          "internalType": "uint256",
          "name": "",
          "type": "uint256"
        }
      ],
      "stateMutability": "view",
      "type": "function"
    },
    {
      "inputs": [
        {
          "internalType": "uint256",
          "name": "tokenId",
          "type": "uint256"
        }
      ],
      "name": "tokenURI",
      "outputs": [
        {
          "internalType": "string",
          "name": "",
          "type": "string"
        }
      ],
      "stateMutability": "view",
      "type": "function"
    },
    {
      "inputs": [],
      "name": "totalSupply",
      "outputs": [
        {
          "internalType": "uint256",
          "name": "",
          "type": "uint256"
        }
      ],
      "stateMutability": "view",
      "type": "function"
    },
    {
      "inputs": [
        {
          "internalType": "address",
          "name": "from",
          "type": "address"
        },
        {
          "internalType": "address",
          "name": "to",
          "type": "address"
        },
        {
          "internalType": "uint256",
          "name": "tokenId",
          "type": "uint256"
        }
      ],
      "name": "transferFrom",
      "outputs": [],
      "stateMutability": "nonpayable",
      "type": "function"
    },
    {
      "inputs": [
        {
          "internalType": "uint256",
          "name": "",
          "type": "uint256"
        }
      ],
      "name": "turtlesForSale",
      "outputs": [
        {
          "internalType": "uint256",
          "name": "",
          "type": "uint256"
        }
      ],
      "stateMutability": "view",
      "type": "function"
    },
    {
      "inputs": [
        {
          "internalType": "address",
          "name": "_oracleAddress",
          "type": "address"
        }
      ],
      "name": "setOracleAddress",
      "outputs": [],
      "stateMutability": "nonpayable",
      "type": "function"
    },
    {
      "inputs": [
        {
          "internalType": "bytes32",
          "name": "_jobID",
          "type": "bytes32"
        }
      ],
      "name": "setJobID",
      "outputs": [],
      "stateMutability": "nonpayable",
      "type": "function"
    },
    {
      "inputs": [
        {
          "internalType": "uint256",
          "name": "_fee",
          "type": "uint256"
        }
      ],
      "name": "setFeeInLink",
      "outputs": [],
      "stateMutability": "nonpayable",
      "type": "function"
    },
    {
      "inputs": [
        {
          "internalType": "string",
          "name": "_url",
          "type": "string"
        }
      ],
      "name": "setApiBaseUrl",
      "outputs": [],
      "stateMutability": "nonpayable",
      "type": "function"
    },
    {
      "inputs": [
        {
          "internalType": "string",
          "name": "_url",
          "type": "string"
        }
      ],
      "name": "setApiSecondUrl",
      "outputs": [],
      "stateMutability": "nonpayable",
      "type": "function"
    },
    {
      "inputs": [
        {
          "internalType": "uint256",
          "name": "_tokenId",
          "type": "uint256"
        }
      ],
      "name": "buyTurtle",
      "outputs": [],
      "stateMutability": "payable",
      "type": "function"
    },
    {
      "inputs": [
        {
          "internalType": "uint256",
          "name": "_tokenId",
          "type": "uint256"
        },
        {
          "internalType": "uint256",
          "name": "_price",
          "type": "uint256"
        }
      ],
      "name": "putUpTurtleForSale",
      "outputs": [],
      "stateMutability": "nonpayable",
      "type": "function"
    },
    {
      "inputs": [],
      "name": "requestRandomCharacter",
      "outputs": [],
      "stateMutability": "nonpayable",
      "type": "function"
    },
    {
      "inputs": [],
      "name": "requestIPFSHash",
      "outputs": [
        {
          "internalType": "bytes32",
          "name": "requestId",
          "type": "bytes32"
        }
      ],
      "stateMutability": "nonpayable",
      "type": "function"
    },
    {
      "inputs": [
        {
          "internalType": "bytes32",
          "name": "_requestId",
          "type": "bytes32"
        },
        {
          "internalType": "bytes32",
          "name": "dataFromAPI",
          "type": "bytes32"
        }
      ],
      "name": "fulfill",
      "outputs": [
        {
          "internalType": "bytes32",
          "name": "requestId",
          "type": "bytes32"
        }
      ],
      "stateMutability": "nonpayable",
      "type": "function"
    },
    {
      "inputs": [
        {
          "internalType": "bytes32",
          "name": "_requestId",
          "type": "bytes32"
        },
        {
          "internalType": "bytes32",
          "name": "dataFromAPI",
          "type": "bytes32"
        }
      ],
      "name": "fulfillSecondRequest",
      "outputs": [],
      "stateMutability": "nonpayable",
      "type": "function"
    },
    {
      "inputs": [],
      "name": "withdrawLink",
      "outputs": [],
      "stateMutability": "nonpayable",
      "type": "function"
    }
  ],
  "bytecode": "0x60806040526001600e556040518060400160405280601581526020017f68747470733a2f2f697066732e696f2f697066732f00000000000000000000008152506013908051906020019062000056929190620004a6565b5060006017553480156200006957600080fd5b506040518060400160405280600f81526020017f547572746c6543686172616374657200000000000000000000000000000000008152506040518060400160405280600481526020017f5452544c00000000000000000000000000000000000000000000000000000000815250620000ee6301ffc9a760e01b620002af60201b60201c565b816006908051906020019062000106929190620004a6565b5080600790805190602001906200011f929190620004a6565b50620001386380ac58cd60e01b620002af60201b60201c565b62000150635b5e139f60e01b620002af60201b60201c565b6200016863780e9d6360e01b620002af60201b60201c565b50506200017a620003b860201b60201c565b33601060006101000a81548173ffffffffffffffffffffffffffffffffffffffff021916908373ffffffffffffffffffffffffffffffffffffffff160217905550604051806060016040528060238152602001620055896023913960189080519060200190620001ec929190620004a6565b506040518060600160405280602a8152602001620055ac602a9139601990805190602001906200021e929190620004a6565b50733a56ae4a2831c3d3514b5d7af5578e45ebdb7a40601460006101000a81548173ffffffffffffffffffffffffffffffffffffffff021916908373ffffffffffffffffffffffffffffffffffffffff1602179055507f3138376262383065356565373461313339373334636163373437356633633665601581905550662386f26fc1000060168190555062000555565b63ffffffff60e01b817bffffffffffffffffffffffffffffffffffffffffffffffffffffffff191614156200034c576040517f08c379a000000000000000000000000000000000000000000000000000000000815260040180806020018281038252601c8152602001807f4552433136353a20696e76616c696420696e746572666163652069640000000081525060200191505060405180910390fd5b6001600080837bffffffffffffffffffffffffffffffffffffffffffffffffffffffff19167bffffffffffffffffffffffffffffffffffffffffffffffffffffffff1916815260200190815260200160002060006101000a81548160ff02191690831515021790555050565b6200046073c89bd4e1632d3a43cb03aaad5262cbe4038bc57173ffffffffffffffffffffffffffffffffffffffff166338cc48316040518163ffffffff1660e01b815260040160206040518083038186803b1580156200041757600080fd5b505afa1580156200042c573d6000803e3d6000fd5b505050506040513d60208110156200044357600080fd5b81019080805190602001909291905050506200046260201b60201c565b565b80600c60006101000a81548173ffffffffffffffffffffffffffffffffffffffff021916908373ffffffffffffffffffffffffffffffffffffffff16021790555050565b828054600181600116156101000203166002900490600052602060002090601f016020900481019282601f10620004e957805160ff19168380011785556200051a565b828001600101855582156200051a579182015b8281111562000519578251825591602001919060010190620004fc565b5b5090506200052991906200052d565b5090565b6200055291905b808211156200054e57600081600090555060010162000534565b5090565b90565b61502480620005656000396000f3fe6080604052600436106101e35760003560e01c80636352211e11610102578063a748efb211610095578063e985e9c511610064578063e985e9c514610e25578063f2044fe914610eae578063f8b2474d14610edc578063faa0b6b714610f07576101e3565b8063a748efb214610bb9578063b88d4fde14610c08578063c87b56dd14610d1a578063ce606ee014610dce576101e3565b80638dc654a2116100d15780638dc654a214610a7a57806395d89b4114610a91578063a22cb46514610b21578063a5ac5f1c14610b7e576101e3565b80636352211e146108425780636c0360eb146108bd57806370a082311461094d578063877f282b146109b2576101e3565b8063259049f41161017a578063328c9f0211610149578063328c9f021461065f57806342842e0e146107275780634c69c00f146107a25780634f6ccce7146107f3576101e3565b8063259049f4146105045780632b22aaea1461051b5780632b9d8c9a146105605780632f745c59146105f0576101e3565b8063095ea7b3116101b6578063095ea7b3146103be57806318160ddd14610419578063184d9bb91461044457806323b872dd14610489576101e3565b806301ffc9a7146101e8578063042f2b651461025a57806306fdde03146102b3578063081812fc14610343575b600080fd5b3480156101f457600080fd5b506102406004803603602081101561020b57600080fd5b8101908080357bffffffffffffffffffffffffffffffffffffffffffffffffffffffff19169060200190929190505050610f42565b604051808215151515815260200191505060405180910390f35b34801561026657600080fd5b5061029d6004803603604081101561027d57600080fd5b810190808035906020019092919080359060200190929190505050610fa9565b6040518082815260200191505060405180910390f35b3480156102bf57600080fd5b506102c8611287565b6040518080602001828103825283818151815260200191508051906020019080838360005b838110156103085780820151818401526020810190506102ed565b50505050905090810190601f1680156103355780820380516001836020036101000a031916815260200191505b509250505060405180910390f35b34801561034f57600080fd5b5061037c6004803603602081101561036657600080fd5b8101908080359060200190929190505050611329565b604051808273ffffffffffffffffffffffffffffffffffffffff1673ffffffffffffffffffffffffffffffffffffffff16815260200191505060405180910390f35b3480156103ca57600080fd5b50610417600480360360408110156103e157600080fd5b81019080803573ffffffffffffffffffffffffffffffffffffffff169060200190929190803590602001909291905050506113c4565b005b34801561042557600080fd5b5061042e611508565b6040518082815260200191505060405180910390f35b34801561045057600080fd5b506104876004803603604081101561046757600080fd5b810190808035906020019092919080359060200190929190505050611519565b005b34801561049557600080fd5b50610502600480360360608110156104ac57600080fd5b81019080803573ffffffffffffffffffffffffffffffffffffffff169060200190929190803573ffffffffffffffffffffffffffffffffffffffff169060200190929190803590602001909291905050506115d2565b005b34801561051057600080fd5b50610519611648565b005b34801561052757600080fd5b5061055e6004803603604081101561053e57600080fd5b8101908080359060200190929190803590602001909291905050506116ab565b005b34801561056c57600080fd5b50610575611973565b6040518080602001828103825283818151815260200191508051906020019080838360005b838110156105b557808201518184015260208101905061059a565b50505050905090810190601f1680156105e25780820380516001836020036101000a031916815260200191505b509250505060405180910390f35b3480156105fc57600080fd5b506106496004803603604081101561061357600080fd5b81019080803573ffffffffffffffffffffffffffffffffffffffff16906020019092919080359060200190929190505050611a11565b6040518082815260200191505060405180910390f35b34801561066b57600080fd5b506107256004803603602081101561068257600080fd5b810190808035906020019064010000000081111561069f57600080fd5b8201836020820111156106b157600080fd5b803590602001918460018302840111640100000000831117156106d357600080fd5b91908080601f016020809104026020016040519081016040528093929190818152602001838380828437600081840152601f19601f820116905080830192505050505050509192919290505050611a6c565b005b34801561073357600080fd5b506107a06004803603606081101561074a57600080fd5b81019080803573ffffffffffffffffffffffffffffffffffffffff169060200190929190803573ffffffffffffffffffffffffffffffffffffffff16906020019092919080359060200190929190505050611ae0565b005b3480156107ae57600080fd5b506107f1600480360360208110156107c557600080fd5b81019080803573ffffffffffffffffffffffffffffffffffffffff169060200190929190505050611b00565b005b3480156107ff57600080fd5b5061082c6004803603602081101561081657600080fd5b8101908080359060200190929190505050611b9e565b6040518082815260200191505060405180910390f35b34801561084e57600080fd5b5061087b6004803603602081101561086557600080fd5b8101908080359060200190929190505050611bc1565b604051808273ffffffffffffffffffffffffffffffffffffffff1673ffffffffffffffffffffffffffffffffffffffff16815260200191505060405180910390f35b3480156108c957600080fd5b506108d2611bf8565b6040518080602001828103825283818151815260200191508051906020019080838360005b838110156109125780820151818401526020810190506108f7565b50505050905090810190601f16801561093f5780820380516001836020036101000a031916815260200191505b509250505060405180910390f35b34801561095957600080fd5b5061099c6004803603602081101561097057600080fd5b81019080803573ffffffffffffffffffffffffffffffffffffffff169060200190929190505050611c9a565b6040518082815260200191505060405180910390f35b3480156109be57600080fd5b50610a78600480360360208110156109d557600080fd5b81019080803590602001906401000000008111156109f257600080fd5b820183602082011115610a0457600080fd5b80359060200191846001830284011164010000000083111715610a2657600080fd5b91908080601f016020809104026020016040519081016040528093929190818152602001838380828437600081840152601f19601f820116905080830192505050505050509192919290505050611d6f565b005b348015610a8657600080fd5b50610a8f611de3565b005b348015610a9d57600080fd5b50610aa6611fdd565b6040518080602001828103825283818151815260200191508051906020019080838360005b83811015610ae6578082015181840152602081019050610acb565b50505050905090810190601f168015610b135780820380516001836020036101000a031916815260200191505b509250505060405180910390f35b348015610b2d57600080fd5b50610b7c60048036036040811015610b4457600080fd5b81019080803573ffffffffffffffffffffffffffffffffffffffff16906020019092919080351515906020019092919050505061207f565b005b348015610b8a57600080fd5b50610bb760048036036020811015610ba157600080fd5b8101908080359060200190929190505050612237565b005b348015610bc557600080fd5b50610bf260048036036020811015610bdc57600080fd5b81019080803590602001909291905050506122a5565b6040518082815260200191505060405180910390f35b348015610c1457600080fd5b50610d1860048036036080811015610c2b57600080fd5b81019080803573ffffffffffffffffffffffffffffffffffffffff169060200190929190803573ffffffffffffffffffffffffffffffffffffffff1690602001909291908035906020019092919080359060200190640100000000811115610c9257600080fd5b820183602082011115610ca457600080fd5b80359060200191846001830284011164010000000083111715610cc657600080fd5b91908080601f016020809104026020016040519081016040528093929190818152602001838380828437600081840152601f19601f8201169050808301925050505050505091929192905050506122bd565b005b348015610d2657600080fd5b50610d5360048036036020811015610d3d57600080fd5b8101908080359060200190929190505050612335565b6040518080602001828103825283818151815260200191508051906020019080838360005b83811015610d93578082015181840152602081019050610d78565b50505050905090810190601f168015610dc05780820380516001836020036101000a031916815260200191505b509250505060405180910390f35b348015610dda57600080fd5b50610de3612606565b604051808273ffffffffffffffffffffffffffffffffffffffff1673ffffffffffffffffffffffffffffffffffffffff16815260200191505060405180910390f35b348015610e3157600080fd5b50610e9460048036036040811015610e4857600080fd5b81019080803573ffffffffffffffffffffffffffffffffffffffff169060200190929190803573ffffffffffffffffffffffffffffffffffffffff16906020019092919050505061262c565b604051808215151515815260200191505060405180910390f35b610eda60048036036020811015610ec457600080fd5b81019080803590602001909291905050506126c0565b005b348015610ee857600080fd5b50610ef1612918565b6040518082815260200191505060405180910390f35b348015610f1357600080fd5b50610f4060048036036020811015610f2a57600080fd5b8101908080359060200190929190505050612ad0565b005b6000806000837bffffffffffffffffffffffffffffffffffffffffffffffffffffffff19167bffffffffffffffffffffffffffffffffffffffffffffffffffffffff1916815260200190815260200160002060009054906101000a900460ff169050919050565b600082600f600082815260200190815260200160002060009054906101000a900473ffffffffffffffffffffffffffffffffffffffff1673ffffffffffffffffffffffffffffffffffffffff163373ffffffffffffffffffffffffffffffffffffffff1614611063576040517f08c379a0000000000000000000000000000000000000000000000000000000008152600401808060200182810382526028815260200180614fc76028913960400191505060405180910390fd5b600f600082815260200190815260200160002060006101000a81549073ffffffffffffffffffffffffffffffffffffffff0219169055807f7cc135e0cebb02c3480ae5d74d377283180a2601f8f644edf7987b009316c63a60405160405180910390a2826011819055506110d5614bd6565b6110e960155430632b22aaea60e01b612b34565b90506111cf6040518060400160405280600381526020017f676574000000000000000000000000000000000000000000000000000000000081525060198054600181600116156101000203166002900480601f0160208091040260200160405190810160405280929190818152602001828054600181600116156101000203166002900480156111ba5780601f1061118f576101008083540402835291602001916111ba565b820191906000526020600020905b81548152906001019060200180831161119d57829003601f168201915b505050505083612b659092919063ffffffff16565b61124e6040518060400160405280600481526020017f70617468000000000000000000000000000000000000000000000000000000008152506040518060400160405280600981526020017f495046535f50415448000000000000000000000000000000000000000000000081525083612b659092919063ffffffff16565b61127d601460009054906101000a900473ffffffffffffffffffffffffffffffffffffffff1682601654612b98565b9250505092915050565b606060068054600181600116156101000203166002900480601f01602080910402602001604051908101604052809291908181526020018280546001816001161561010002031660029004801561131f5780601f106112f45761010080835404028352916020019161131f565b820191906000526020600020905b81548152906001019060200180831161130257829003601f168201915b5050505050905090565b600061133482612e50565b611389576040517f08c379a000000000000000000000000000000000000000000000000000000000815260040180806020018281038252602c815260200180614ec5602c913960400191505060405180910390fd5b6004600083815260200190815260200160002060009054906101000a900473ffffffffffffffffffffffffffffffffffffffff169050919050565b60006113cf82611bc1565b90508073ffffffffffffffffffffffffffffffffffffffff168373ffffffffffffffffffffffffffffffffffffffff161415611456576040517f08c379a0000000000000000000000000000000000000000000000000000000008152600401808060200182810382526021815260200180614f756021913960400191505060405180910390fd5b8073ffffffffffffffffffffffffffffffffffffffff16611475612e6d565b73ffffffffffffffffffffffffffffffffffffffff1614806114a457506114a38161149e612e6d565b61262c565b5b6114f9576040517f08c379a0000000000000000000000000000000000000000000000000000000008152600401808060200182810382526038815260200180614e186038913960400191505060405180910390fd5b6115038383612e75565b505050565b60006115146002612f2e565b905090565b61152a611524612e6d565b83612f43565b61157f576040517f08c379a0000000000000000000000000000000000000000000000000000000008152600401808060200182810382526028815260200180614d256028913960400191505060405180910390fd5b80601a6000848152602001908152602001600020819055507f5cfd7981b7826a1543139612aae7cac778558e6d89d166a9d4b69423535fe087826040518082815260200191505060405180910390a15050565b6115e36115dd612e6d565b82612f43565b611638576040517f08c379a0000000000000000000000000000000000000000000000000000000008152600401808060200182810382526031815260200180614f966031913960400191505060405180910390fd5b611643838383613037565b505050565b6040518060400160405280601581526020017f68747470733a2f2f697066732e696f2f697066732f000000000000000000000081525060139080519060200190611693929190614c43565b506116a03360175461327a565b6116a8612918565b50565b81600f600082815260200190815260200160002060009054906101000a900473ffffffffffffffffffffffffffffffffffffffff1673ffffffffffffffffffffffffffffffffffffffff163373ffffffffffffffffffffffffffffffffffffffff1614611763576040517f08c379a0000000000000000000000000000000000000000000000000000000008152600401808060200182810382526028815260200180614fc76028913960400191505060405180910390fd5b600f600082815260200190815260200160002060006101000a81549073ffffffffffffffffffffffffffffffffffffffff0219169055807f7cc135e0cebb02c3480ae5d74d377283180a2601f8f644edf7987b009316c63a60405160405180910390a2816012819055506117d5613298565b7f1a1317a9b735d6402ccd1a577bb88ad490d3c2301e44fa83a56561c708287bdb601360405180806020018281038252838181546001816001161561010002031660029004815260200191508054600181600116156101000203166002900480156118815780601f1061185657610100808354040283529160200191611881565b820191906000526020600020905b81548152906001019060200180831161186457829003601f168201915b50509250505060405180910390a161193260138054600181600116156101000203166002900480601f0160208091040260200160405190810160405280929190818152602001828054600181600116156101000203166002900480156119285780601f106118fd57610100808354040283529160200191611928565b820191906000526020600020905b81548152906001019060200180831161190b57829003601f168201915b5050505050613375565b7f375888a712a23aa4f960c32984e16baf008be32cc52f7b9c12212feee89eb6086001601754036040518082815260200191505060405180910390a1505050565b60138054600181600116156101000203166002900480601f016020809104026020016040519081016040528092919081815260200182805460018160011615610100020316600290048015611a095780601f106119de57610100808354040283529160200191611a09565b820191906000526020600020905b8154815290600101906020018083116119ec57829003601f168201915b505050505081565b6000611a6482600160008673ffffffffffffffffffffffffffffffffffffffff1673ffffffffffffffffffffffffffffffffffffffff16815260200190815260200160002061339690919063ffffffff16565b905092915050565b601060009054906101000a900473ffffffffffffffffffffffffffffffffffffffff1673ffffffffffffffffffffffffffffffffffffffff163373ffffffffffffffffffffffffffffffffffffffff1614611ac657600080fd5b8060199080519060200190611adc929190614c43565b5050565b611afb838383604051806020016040528060008152506122bd565b505050565b601060009054906101000a900473ffffffffffffffffffffffffffffffffffffffff1673ffffffffffffffffffffffffffffffffffffffff163373ffffffffffffffffffffffffffffffffffffffff1614611b5a57600080fd5b80601460006101000a81548173ffffffffffffffffffffffffffffffffffffffff021916908373ffffffffffffffffffffffffffffffffffffffff16021790555050565b600080611bb58360026133b090919063ffffffff16565b50905080915050919050565b6000611bf182604051806060016040528060298152602001614e7a6029913960026133df9092919063ffffffff16565b9050919050565b606060098054600181600116156101000203166002900480601f016020809104026020016040519081016040528092919081815260200182805460018160011615610100020316600290048015611c905780601f10611c6557610100808354040283529160200191611c90565b820191906000526020600020905b815481529060010190602001808311611c7357829003601f168201915b5050505050905090565b60008073ffffffffffffffffffffffffffffffffffffffff168273ffffffffffffffffffffffffffffffffffffffff161415611d21576040517f08c379a000000000000000000000000000000000000000000000000000000000815260040180806020018281038252602a815260200180614e50602a913960400191505060405180910390fd5b611d68600160008473ffffffffffffffffffffffffffffffffffffffff1673ffffffffffffffffffffffffffffffffffffffff1681526020019081526020016000206133fe565b9050919050565b601060009054906101000a900473ffffffffffffffffffffffffffffffffffffffff1673ffffffffffffffffffffffffffffffffffffffff163373ffffffffffffffffffffffffffffffffffffffff1614611dc957600080fd5b8060189080519060200190611ddf929190614c43565b5050565b6000611ded613413565b90508073ffffffffffffffffffffffffffffffffffffffff1663a9059cbb338373ffffffffffffffffffffffffffffffffffffffff166370a08231306040518263ffffffff1660e01b8152600401808273ffffffffffffffffffffffffffffffffffffffff1673ffffffffffffffffffffffffffffffffffffffff16815260200191505060206040518083038186803b158015611e8957600080fd5b505afa158015611e9d573d6000803e3d6000fd5b505050506040513d6020811015611eb357600080fd5b81019080805190602001909291905050506040518363ffffffff1660e01b8152600401808373ffffffffffffffffffffffffffffffffffffffff1673ffffffffffffffffffffffffffffffffffffffff16815260200182815260200192505050602060405180830381600087803b158015611f2d57600080fd5b505af1158015611f41573d6000803e3d6000fd5b505050506040513d6020811015611f5757600080fd5b8101908080519060200190929190505050611fda576040517f08c379a00000000000000000000000000000000000000000000000000000000081526004018080602001828103825260178152602001807f556e61626c6520746f207472616e73666572204c494e4b00000000000000000081525060200191505060405180910390fd5b50565b606060078054600181600116156101000203166002900480601f0160208091040260200160405190810160405280929190818152602001828054600181600116156101000203166002900480156120755780601f1061204a57610100808354040283529160200191612075565b820191906000526020600020905b81548152906001019060200180831161205857829003601f168201915b5050505050905090565b612087612e6d565b73ffffffffffffffffffffffffffffffffffffffff168273ffffffffffffffffffffffffffffffffffffffff161415612128576040517f08c379a00000000000000000000000000000000000000000000000000000000081526004018080602001828103825260198152602001807f4552433732313a20617070726f766520746f2063616c6c65720000000000000081525060200191505060405180910390fd5b8060056000612135612e6d565b73ffffffffffffffffffffffffffffffffffffffff1673ffffffffffffffffffffffffffffffffffffffff16815260200190815260200160002060008473ffffffffffffffffffffffffffffffffffffffff1673ffffffffffffffffffffffffffffffffffffffff16815260200190815260200160002060006101000a81548160ff0219169083151502179055508173ffffffffffffffffffffffffffffffffffffffff166121e2612e6d565b73ffffffffffffffffffffffffffffffffffffffff167f17307eab39ab6107e8899845ad3d59bd9653f200f220920489ca2b5937696c3183604051808215151515815260200191505060405180910390a35050565b601060009054906101000a900473ffffffffffffffffffffffffffffffffffffffff1673ffffffffffffffffffffffffffffffffffffffff163373ffffffffffffffffffffffffffffffffffffffff161461229157600080fd5b670de0b6b3a7640000810260168190555050565b601a6020528060005260406000206000915090505481565b6122ce6122c8612e6d565b83612f43565b612323576040517f08c379a0000000000000000000000000000000000000000000000000000000008152600401808060200182810382526031815260200180614f966031913960400191505060405180910390fd5b61232f8484848461343d565b50505050565b606061234082612e50565b612395576040517f08c379a000000000000000000000000000000000000000000000000000000000815260040180806020018281038252602f815260200180614f46602f913960400191505060405180910390fd5b6060600860008481526020019081526020016000208054600181600116156101000203166002900480601f01602080910402602001604051908101604052809291908181526020018280546001816001161561010002031660029004801561243e5780601f106124135761010080835404028352916020019161243e565b820191906000526020600020905b81548152906001019060200180831161242157829003601f168201915b50505050509050606061244f611bf8565b9050600081511415612465578192505050612601565b6000825111156125365780826040516020018083805190602001908083835b602083106124a75780518252602082019150602081019050602083039250612484565b6001836020036101000a03801982511681845116808217855250505050505090500182805190602001908083835b602083106124f857805182526020820191506020810190506020830392506124d5565b6001836020036101000a0380198251168184511680821785525050505050509050019250505060405160208183030381529060405292505050612601565b80612540856134af565b6040516020018083805190602001908083835b602083106125765780518252602082019150602081019050602083039250612553565b6001836020036101000a03801982511681845116808217855250505050505090500182805190602001908083835b602083106125c757805182526020820191506020810190506020830392506125a4565b6001836020036101000a03801982511681845116808217855250505050505090500192505050604051602081830303815290604052925050505b919050565b601060009054906101000a900473ffffffffffffffffffffffffffffffffffffffff1681565b6000600560008473ffffffffffffffffffffffffffffffffffffffff1673ffffffffffffffffffffffffffffffffffffffff16815260200190815260200160002060008373ffffffffffffffffffffffffffffffffffffffff1673ffffffffffffffffffffffffffffffffffffffff16815260200190815260200160002060009054906101000a900460ff16905092915050565b6000601a60008381526020019081526020016000205411612749576040517f08c379a00000000000000000000000000000000000000000000000000000000081526004018080602001828103825260208152602001807f54686520547572746c652073686f756c6420626520757020666f722073616c6581525060200191505060405180910390fd5b6000601a60008381526020019081526020016000205490506000601a600084815260200190815260200160002081905550600061278583611bc1565b90508134116127fc576040517f08c379a000000000000000000000000000000000000000000000000000000000815260040180806020018281038252601d8152602001807f596f75206e65656420746f206861766520656e6f75676820457468657200000081525060200191505060405180910390fd5b61283d8133856040518060400160405280600c81526020017f427579206120547572746c65000000000000000000000000000000000000000081525061343d565b60008190508073ffffffffffffffffffffffffffffffffffffffff166108fc849081150290604051600060405180830381858888f19350505050158015612888573d6000803e3d6000fd5b50823411156128db573373ffffffffffffffffffffffffffffffffffffffff166108fc8434039081150290604051600060405180830381858888f193505050501580156128d9573d6000803e3d6000fd5b505b7f8c78864e67a7dfb4ed185a3b2dad4a13fd8a7f807e84ecf1687eab5cb297676e846040518082815260200191505060405180910390a150505050565b6000612922614bd6565b6129366015543063042f2b6560e01b612b34565b9050612a1c6040518060400160405280600381526020017f676574000000000000000000000000000000000000000000000000000000000081525060188054600181600116156101000203166002900480601f016020809104026020016040519081016040528092919081815260200182805460018160011615610100020316600290048015612a075780601f106129dc57610100808354040283529160200191612a07565b820191906000526020600020905b8154815290600101906020018083116129ea57829003601f168201915b505050505083612b659092919063ffffffff16565b612a9b6040518060400160405280600481526020017f70617468000000000000000000000000000000000000000000000000000000008152506040518060400160405280600981526020017f495046535f50415448000000000000000000000000000000000000000000000081525083612b659092919063ffffffff16565b612aca601460009054906101000a900473ffffffffffffffffffffffffffffffffffffffff1682601654612b98565b91505090565b601060009054906101000a900473ffffffffffffffffffffffffffffffffffffffff1673ffffffffffffffffffffffffffffffffffffffff163373ffffffffffffffffffffffffffffffffffffffff1614612b2a57600080fd5b8060158190555050565b612b3c614bd6565b612b44614bd6565b612b5b858585846135f6909392919063ffffffff16565b9150509392505050565b612b7c8284608001516136a690919063ffffffff16565b612b938184608001516136a690919063ffffffff16565b505050565b600030600e54604051602001808373ffffffffffffffffffffffffffffffffffffffff1673ffffffffffffffffffffffffffffffffffffffff1660601b815260140182815260200192505050604051602081830303815290604052805190602001209050600e5483606001818152505083600f600083815260200190815260200160002060006101000a81548173ffffffffffffffffffffffffffffffffffffffff021916908373ffffffffffffffffffffffffffffffffffffffff160217905550807fb5e6e01e79f91267dc17b4e6314d5d4d03593d2ceee0fbb452b750bd70ea5af960405160405180910390a2600c60009054906101000a900473ffffffffffffffffffffffffffffffffffffffff1673ffffffffffffffffffffffffffffffffffffffff16634000aea08584612cd0876136cb565b6040518463ffffffff1660e01b8152600401808473ffffffffffffffffffffffffffffffffffffffff1673ffffffffffffffffffffffffffffffffffffffff16815260200183815260200180602001828103825283818151815260200191508051906020019080838360005b83811015612d57578082015181840152602081019050612d3c565b50505050905090810190601f168015612d845780820380516001836020036101000a031916815260200191505b50945050505050602060405180830381600087803b158015612da557600080fd5b505af1158015612db9573d6000803e3d6000fd5b505050506040513d6020811015612dcf57600080fd5b8101908080519060200190929190505050612e35576040517f08c379a0000000000000000000000000000000000000000000000000000000008152600401808060200182810382526023815260200180614d7f6023913960400191505060405180910390fd5b6001600e600082825401925050819055508090509392505050565b6000612e6682600261389790919063ffffffff16565b9050919050565b600033905090565b816004600083815260200190815260200160002060006101000a81548173ffffffffffffffffffffffffffffffffffffffff021916908373ffffffffffffffffffffffffffffffffffffffff160217905550808273ffffffffffffffffffffffffffffffffffffffff16612ee883611bc1565b73ffffffffffffffffffffffffffffffffffffffff167f8c5be1e5ebec7d5bd14f71427d1e84f3dd0314c0f7b2291e5b200ac8c7c3b92560405160405180910390a45050565b6000612f3c826000016138b1565b9050919050565b6000612f4e82612e50565b612fa3576040517f08c379a000000000000000000000000000000000000000000000000000000000815260040180806020018281038252602c815260200180614dec602c913960400191505060405180910390fd5b6000612fae83611bc1565b90508073ffffffffffffffffffffffffffffffffffffffff168473ffffffffffffffffffffffffffffffffffffffff16148061301d57508373ffffffffffffffffffffffffffffffffffffffff1661300584611329565b73ffffffffffffffffffffffffffffffffffffffff16145b8061302e575061302d818561262c565b5b91505092915050565b8273ffffffffffffffffffffffffffffffffffffffff1661305782611bc1565b73ffffffffffffffffffffffffffffffffffffffff16146130c3576040517f08c379a0000000000000000000000000000000000000000000000000000000008152600401808060200182810382526029815260200180614f1d6029913960400191505060405180910390fd5b600073ffffffffffffffffffffffffffffffffffffffff168273ffffffffffffffffffffffffffffffffffffffff161415613149576040517f08c379a0000000000000000000000000000000000000000000000000000000008152600401808060200182810382526024815260200180614da26024913960400191505060405180910390fd5b6131548383836138c2565b61315f600082612e75565b6131b081600160008673ffffffffffffffffffffffffffffffffffffffff1673ffffffffffffffffffffffffffffffffffffffff1681526020019081526020016000206138c790919063ffffffff16565b5061320281600160008573ffffffffffffffffffffffffffffffffffffffff1673ffffffffffffffffffffffffffffffffffffffff1681526020019081526020016000206138e190919063ffffffff16565b50613219818360026138fb9092919063ffffffff16565b50808273ffffffffffffffffffffffffffffffffffffffff168473ffffffffffffffffffffffffffffffffffffffff167fddf252ad1be2c89b69c2b068fc378daa952ba7f163c4a11628f55a4df523b3ef60405160405180910390a4505050565b613294828260405180602001604052806000815250613930565b5050565b60606132a56011546139a1565b905060606132b46012546139a1565b905061335b60138054600181600116156101000203166002900480601f01602080910402602001604051908101604052809291908181526020018280546001816001161561010002031660029004801561334f5780601f106133245761010080835404028352916020019161334f565b820191906000526020600020905b81548152906001019060200180831161333257829003601f168201915b50505050508383613b15565b60139080519060200190613370929190614c43565b505050565b61338160175482613c31565b60176000815480929190600101919050555050565b60006133a58360000183613cbb565b60001c905092915050565b6000806000806133c38660000186613d3e565b915091508160001c8160001c8090509350935050509250929050565b60006133f2846000018460001b84613dd7565b60001c90509392505050565b600061340c82600001613ecd565b9050919050565b6000600c60009054906101000a900473ffffffffffffffffffffffffffffffffffffffff16905090565b613448848484613037565b61345484848484613ede565b6134a9576040517f08c379a0000000000000000000000000000000000000000000000000000000008152600401808060200182810382526032815260200180614d4d6032913960400191505060405180910390fd5b50505050565b606060008214156134f7576040518060400160405280600181526020017f300000000000000000000000000000000000000000000000000000000000000081525090506135f1565b600082905060005b60008214613521578080600101915050600a828161351957fe5b0491506134ff565b60608167ffffffffffffffff8111801561353a57600080fd5b506040519080825280601f01601f19166020018201604052801561356d5781602001600182028036833780820191505090505b50905060006001830390508593505b600084146135e957600a848161358e57fe5b0660300160f81b828280600190039350815181106135a857fe5b60200101907effffffffffffffffffffffffffffffffffffffffffffffffffffffffffffff1916908160001a905350600a84816135e157fe5b04935061357c565b819450505050505b919050565b6135fe614bd6565b61360e8560800151610100614123565b508385600001818152505082856020019073ffffffffffffffffffffffffffffffffffffffff16908173ffffffffffffffffffffffffffffffffffffffff16815250508185604001907bffffffffffffffffffffffffffffffffffffffffffffffffffffffff191690817bffffffffffffffffffffffffffffffffffffffffffffffffffffffff191681525050849050949350505050565b6136b38260038351614177565b6136c681836142bc90919063ffffffff16565b505050565b6060634042994660e01b60008084600001518560200151866040015187606001516001896080015160000151604051602401808973ffffffffffffffffffffffffffffffffffffffff1673ffffffffffffffffffffffffffffffffffffffff1681526020018881526020018781526020018673ffffffffffffffffffffffffffffffffffffffff1673ffffffffffffffffffffffffffffffffffffffff168152602001857bffffffffffffffffffffffffffffffffffffffffffffffffffffffff19167bffffffffffffffffffffffffffffffffffffffffffffffffffffffff1916815260200184815260200183815260200180602001828103825283818151815260200191508051906020019080838360005b838110156137fa5780820151818401526020810190506137df565b50505050905090810190601f1680156138275780820380516001836020036101000a031916815260200191505b509950505050505050505050604051602081830303815290604052907bffffffffffffffffffffffffffffffffffffffffffffffffffffffff19166020820180517bffffffffffffffffffffffffffffffffffffffffffffffffffffffff83818316178352505050509050919050565b60006138a9836000018360001b6142de565b905092915050565b600081600001805490509050919050565b505050565b60006138d9836000018360001b614301565b905092915050565b60006138f3836000018360001b6143e9565b905092915050565b6000613927846000018460001b8473ffffffffffffffffffffffffffffffffffffffff1660001b614459565b90509392505050565b61393a8383614535565b6139476000848484613ede565b61399c576040517f08c379a0000000000000000000000000000000000000000000000000000000008152600401808060200182810382526032815260200180614d4d6032913960400191505060405180910390fd5b505050565b606060008090505b60208160ff161080156139f45750600060f81b838260ff16602081106139cb57fe5b1a60f81b7effffffffffffffffffffffffffffffffffffffffffffffffffffffffffffff191614155b15613a065780806001019150506139a9565b60608160ff1667ffffffffffffffff81118015613a2257600080fd5b506040519080825280601f01601f191660200182016040528015613a555781602001600182028036833780820191505090505b509050600091505b60208260ff16108015613aa85750600060f81b848360ff1660208110613a7f57fe5b1a60f81b7effffffffffffffffffffffffffffffffffffffffffffffffffffffffffffff191614155b15613b0b57838260ff1660208110613abc57fe5b1a60f81b818360ff1681518110613acf57fe5b60200101907effffffffffffffffffffffffffffffffffffffffffffffffffffffffffffff1916908160001a9053508180600101925050613a5d565b8092505050919050565b60608383836040516020018084805190602001908083835b60208310613b505780518252602082019150602081019050602083039250613b2d565b6001836020036101000a03801982511681845116808217855250505050505090500183805190602001908083835b60208310613ba15780518252602082019150602081019050602083039250613b7e565b6001836020036101000a03801982511681845116808217855250505050505090500182805190602001908083835b60208310613bf25780518252602082019150602081019050602083039250613bcf565b6001836020036101000a038019825116818451168082178552505050505050905001935050505060405160208183030381529060405290509392505050565b613c3a82612e50565b613c8f576040517f08c379a000000000000000000000000000000000000000000000000000000000815260040180806020018281038252602c815260200180614ef1602c913960400191505060405180910390fd5b80600860008481526020019081526020016000209080519060200190613cb6929190614c43565b505050565b600081836000018054905011613d1c576040517f08c379a0000000000000000000000000000000000000000000000000000000008152600401808060200182810382526022815260200180614d036022913960400191505060405180910390fd5b826000018281548110613d2b57fe5b9060005260206000200154905092915050565b60008082846000018054905011613da0576040517f08c379a0000000000000000000000000000000000000000000000000000000008152600401808060200182810382526022815260200180614ea36022913960400191505060405180910390fd5b6000846000018481548110613db157fe5b906000526020600020906002020190508060000154816001015492509250509250929050565b60008084600101600085815260200190815260200160002054905060008114158390613e9e576040517f08c379a00000000000000000000000000000000000000000000000000000000081526004018080602001828103825283818151815260200191508051906020019080838360005b83811015613e63578082015181840152602081019050613e48565b50505050905090810190601f168015613e905780820380516001836020036101000a031916815260200191505b509250505060405180910390fd5b50846000016001820381548110613eb157fe5b9060005260206000209060020201600101549150509392505050565b600081600001805490509050919050565b6000613eff8473ffffffffffffffffffffffffffffffffffffffff16614729565b613f0c576001905061411b565b60606140a263150b7a0260e01b613f21612e6d565b888787604051602401808573ffffffffffffffffffffffffffffffffffffffff1673ffffffffffffffffffffffffffffffffffffffff1681526020018473ffffffffffffffffffffffffffffffffffffffff1673ffffffffffffffffffffffffffffffffffffffff16815260200183815260200180602001828103825283818151815260200191508051906020019080838360005b83811015613fd1578082015181840152602081019050613fb6565b50505050905090810190601f168015613ffe5780820380516001836020036101000a031916815260200191505b5095505050505050604051602081830303815290604052907bffffffffffffffffffffffffffffffffffffffffffffffffffffffff19166020820180517bffffffffffffffffffffffffffffffffffffffffffffffffffffffff8381831617835250505050604051806060016040528060328152602001614d4d603291398773ffffffffffffffffffffffffffffffffffffffff1661473c9092919063ffffffff16565b905060008180602001905160208110156140bb57600080fd5b8101908080519060200190929190505050905063150b7a0260e01b7bffffffffffffffffffffffffffffffffffffffffffffffffffffffff1916817bffffffffffffffffffffffffffffffffffffffffffffffffffffffff191614925050505b949350505050565b61412b614cc3565b60006020838161413757fe5b0614614150576020828161414757fe5b06602003820191505b81836020018181525050604051808452600081528281016020016040525082905092915050565b601781116141a45761419e8160058460ff16901b60ff16178461475490919063ffffffff16565b506142b7565b60ff81116141e6576141c9601860058460ff16901b178461475490919063ffffffff16565b506141e0816001856147749092919063ffffffff16565b506142b6565b61ffff81116142295761420c601960058460ff16901b178461475490919063ffffffff16565b50614223816002856147749092919063ffffffff16565b506142b5565b63ffffffff811161426e57614251601a60058460ff16901b178461475490919063ffffffff16565b50614268816004856147749092919063ffffffff16565b506142b4565b67ffffffffffffffff81116142b35761429a601b60058460ff16901b178461475490919063ffffffff16565b506142b1816008856147749092919063ffffffff16565b505b5b5b5b5b505050565b6142c4614cc3565b6142d683846000015151848551614796565b905092915050565b600080836001016000848152602001908152602001600020541415905092915050565b600080836001016000848152602001908152602001600020549050600081146143dd576000600182039050600060018660000180549050039050600086600001828154811061434c57fe5b906000526020600020015490508087600001848154811061436957fe5b90600052602060002001819055506001830187600101600083815260200190815260200160002081905550866000018054806143a157fe5b600190038181906000526020600020016000905590558660010160008781526020019081526020016000206000905560019450505050506143e3565b60009150505b92915050565b60006143f5838361484f565b61444e578260000182908060018154018082558091505060019003906000526020600020016000909190919091505582600001805490508360010160008481526020019081526020016000208190555060019050614453565b600090505b92915050565b60008084600101600085815260200190815260200160002054905060008114156145005784600001604051806040016040528086815260200185815250908060018154018082558091505060019003906000526020600020906002020160009091909190915060008201518160000155602082015181600101555050846000018054905085600101600086815260200190815260200160002081905550600191505061452e565b8285600001600183038154811061451357fe5b90600052602060002090600202016001018190555060009150505b9392505050565b600073ffffffffffffffffffffffffffffffffffffffff168273ffffffffffffffffffffffffffffffffffffffff1614156145d8576040517f08c379a00000000000000000000000000000000000000000000000000000000081526004018080602001828103825260208152602001807f4552433732313a206d696e7420746f20746865207a65726f206164647265737381525060200191505060405180910390fd5b6145e181612e50565b15614654576040517f08c379a000000000000000000000000000000000000000000000000000000000815260040180806020018281038252601c8152602001807f4552433732313a20746f6b656e20616c7265616479206d696e7465640000000081525060200191505060405180910390fd5b614660600083836138c2565b6146b181600160008573ffffffffffffffffffffffffffffffffffffffff1673ffffffffffffffffffffffffffffffffffffffff1681526020019081526020016000206138e190919063ffffffff16565b506146c8818360026138fb9092919063ffffffff16565b50808273ffffffffffffffffffffffffffffffffffffffff16600073ffffffffffffffffffffffffffffffffffffffff167fddf252ad1be2c89b69c2b068fc378daa952ba7f163c4a11628f55a4df523b3ef60405160405180910390a45050565b600080823b905060008111915050919050565b606061474b8484600085614872565b90509392505050565b61475c614cc3565b61476c8384600001515184614a1b565b905092915050565b61477c614cc3565b61478d848560000151518585614a69565b90509392505050565b61479e614cc3565b82518211156147ac57600080fd5b846020015182850111156147d7576147d68560026147d08860200151888701614aca565b02614ae6565b5b6000808651805187602083010193508088870111156147f65787860182525b60208701925050505b6020841061482257805182526020820191506020810190506020840393506147ff565b60006001856020036101000a03905080198251168184511681811785525050879350505050949350505050565b600080836001016000848152602001908152602001600020541415905092915050565b6060824710156148cd576040517f08c379a0000000000000000000000000000000000000000000000000000000008152600401808060200182810382526026815260200180614dc66026913960400191505060405180910390fd5b6148d685614729565b614948576040517f08c379a000000000000000000000000000000000000000000000000000000000815260040180806020018281038252601d8152602001807f416464726573733a2063616c6c20746f206e6f6e2d636f6e747261637400000081525060200191505060405180910390fd5b600060608673ffffffffffffffffffffffffffffffffffffffff1685876040518082805190602001908083835b602083106149985780518252602082019150602081019050602083039250614975565b6001836020036101000a03801982511681845116808217855250505050505090500191505060006040518083038185875af1925050503d80600081146149fa576040519150601f19603f3d011682016040523d82523d6000602084013e6149ff565b606091505b5091509150614a0f828286614b0a565b92505050949350505050565b614a23614cc3565b83602001518310614a4057614a3f846002866020015102614ae6565b5b8351805160208583010184815381861415614a5c576001820183525b5050508390509392505050565b614a71614cc3565b84602001518483011115614a8f57614a8e85600286850102614ae6565b5b60006001836101000a0390508551838682010185831982511617815281518588011115614abc5784870182525b505085915050949350505050565b600081831115614adc57829050614ae0565b8190505b92915050565b606082600001519050614af98383614123565b50614b0483826142bc565b50505050565b60608315614b1a57829050614bcf565b600083511115614b2d5782518084602001fd5b816040517f08c379a00000000000000000000000000000000000000000000000000000000081526004018080602001828103825283818151815260200191508051906020019080838360005b83811015614b94578082015181840152602081019050614b79565b50505050905090810190601f168015614bc15780820380516001836020036101000a031916815260200191505b509250505060405180910390fd5b9392505050565b6040518060a0016040528060008019168152602001600073ffffffffffffffffffffffffffffffffffffffff16815260200160007bffffffffffffffffffffffffffffffffffffffffffffffffffffffff1916815260200160008152602001614c3d614cc3565b81525090565b828054600181600116156101000203166002900490600052602060002090601f016020900481019282601f10614c8457805160ff1916838001178555614cb2565b82800160010185558215614cb2579182015b82811115614cb1578251825591602001919060010190614c96565b5b509050614cbf9190614cdd565b5090565b604051806040016040528060608152602001600081525090565b614cff91905b80821115614cfb576000816000905550600101614ce3565b5090565b9056fe456e756d657261626c655365743a20696e646578206f7574206f6620626f756e64734552433732313a2043616c6c6572206973206e6f74206f776e6572206e6f7220617070726f7665644552433732313a207472616e7366657220746f206e6f6e20455243373231526563656976657220696d706c656d656e746572756e61626c6520746f207472616e73666572416e6443616c6c20746f206f7261636c654552433732313a207472616e7366657220746f20746865207a65726f2061646472657373416464726573733a20696e73756666696369656e742062616c616e636520666f722063616c6c4552433732313a206f70657261746f7220717565727920666f72206e6f6e6578697374656e7420746f6b656e4552433732313a20617070726f76652063616c6c6572206973206e6f74206f776e6572206e6f7220617070726f76656420666f7220616c6c4552433732313a2062616c616e636520717565727920666f7220746865207a65726f20616464726573734552433732313a206f776e657220717565727920666f72206e6f6e6578697374656e7420746f6b656e456e756d657261626c654d61703a20696e646578206f7574206f6620626f756e64734552433732313a20617070726f76656420717565727920666f72206e6f6e6578697374656e7420746f6b656e4552433732314d657461646174613a2055524920736574206f66206e6f6e6578697374656e7420746f6b656e4552433732313a207472616e73666572206f6620746f6b656e2074686174206973206e6f74206f776e4552433732314d657461646174613a2055524920717565727920666f72206e6f6e6578697374656e7420746f6b656e4552433732313a20617070726f76616c20746f2063757272656e74206f776e65724552433732313a207472616e736665722063616c6c6572206973206e6f74206f776e6572206e6f7220617070726f766564536f75726365206d75737420626520746865206f7261636c65206f66207468652072657175657374a26469706673582212205b822f978787f5d525dfa2e703290c87970ab23f52cb69c983cdc46cf26d477764736f6c6343000606003368747470733a2f2f696d616765732d626c656e642e6865726f6b756170702e636f6d2f68747470733a2f2f696d616765732d626c656e642e6865726f6b756170702e636f6d2f7365636f6e642f",
  "immutableReferences": {},
  "source": "// SPDX-License-Identifier: MIT\npragma solidity ^0.6.6;\n\nimport \"@openzeppelin/contracts/token/ERC721/ERC721.sol\";\nimport \"@chainlink/contracts/src/v0.6/ChainlinkClient.sol\";\n\ncontract TurtleCharacter is ERC721, ChainlinkClient {\n    \n    address public contractOwner;\n\n    bytes32 private ipfsHashOneBytes32;\n    bytes32 private ipfsHashTwoBytes32;\n    string public ipfsLink = \"https://ipfs.io/ipfs/\"; // Stores the IPFS link after the API call\n\n    address private oracle;\n    bytes32 private jobId;\n    uint256 private fee;\n\n    uint256 private uniqueTokenId = 0;\n\n    string private apiBaseUrl;\n    string private apiSecondUrl;\n\n    // Token ID to Price\n    mapping(uint256 => uint256) public turtlesForSale;\n\n\n    // Events\n    \n    // Emitted when a new Turtle is generated after reaching a new checkpoint in the game\n    event NewTurtleGenerated(uint256 tokenId);\n\n    // Emitted when the data received from the API is successful\n    event DataReceivedFromAPI(string ipfsLink);\n\n    // Emitted when a turtle is bought\n    event TurtleBought(uint256 tokenId);\n\n    // Emitted when a turtle is put up for sale\n    event TurtleUpForSale(uint256 tokenId);\n\n    /**\n     * Network: Rinkeby\n     * Oracle - 0x3A56aE4a2831C3d3514b5D7Af5578E45eBDb7a40\n     * Job ID - 187bb80e5ee74a139734cac7475f3c6e\n     * Fee: 0.01 LINK\n     */\n    constructor() public ERC721(\"TurtleCharacter\", \"TRTL\") {\n        setPublicChainlinkToken();\n        contractOwner = msg.sender;\n        apiBaseUrl = \"https://images-blend.herokuapp.com/\";\n        apiSecondUrl = \"https://images-blend.herokuapp.com/second/\";\n        oracle = 0x3A56aE4a2831C3d3514b5D7Af5578E45eBDb7a40;\n        jobId = \"187bb80e5ee74a139734cac7475f3c6e\";\n        fee = 0.01 * 10**18; // 0.01 LINK\n    }\n\n    modifier onlyContractOwner() {\n        require(msg.sender == contractOwner);\n        _;\n    }\n\n    function setOracleAddress(address _oracleAddress) public onlyContractOwner {\n        oracle = _oracleAddress;\n    }\n\n    function setJobID(bytes32 _jobID) public onlyContractOwner {\n        jobId = _jobID;\n    }\n\n    function setFeeInLink(uint256 _fee) public onlyContractOwner {\n        fee = _fee * 10**18;\n    }\n\n    function setApiBaseUrl(string memory _url) public onlyContractOwner {\n        apiBaseUrl = _url;\n    }\n\n    function setApiSecondUrl(string memory _url) public onlyContractOwner {\n        apiSecondUrl = _url;\n    }\n\n    function buyTurtle(uint256 _tokenId) public payable {\n        require(turtlesForSale[_tokenId] > 0, \"The Turtle should be up for sale\");\n        uint256 turtleCost = turtlesForSale[_tokenId];\n        turtlesForSale[_tokenId] = 0;\n        address ownerAddress = ownerOf(_tokenId);\n        require(msg.value > turtleCost, \"You need to have enough Ether\");\n        _safeTransfer(ownerAddress, msg.sender, _tokenId, bytes(\"Buy a Turtle\")); \n        address payable ownerAddressPayable = payable(ownerAddress); \n        ownerAddressPayable.transfer(turtleCost);\n        if(msg.value > turtleCost) {\n            payable(msg.sender).transfer(msg.value - turtleCost);\n        }\n\n        emit TurtleBought(_tokenId);\n    }\n\n    function putUpTurtleForSale(uint256 _tokenId, uint256 _price) public {\n        require(_isApprovedOrOwner(_msgSender(), _tokenId), \"ERC721: Caller is not owner nor approved\");\n        turtlesForSale[_tokenId] = _price;\n\n        emit TurtleUpForSale(_tokenId);\n    }\n\n    function requestRandomCharacter() public {\n        ipfsLink = \"https://ipfs.io/ipfs/\";\n        _safeMint(msg.sender, uniqueTokenId);\n        requestIPFSHash();\n    }\n\n    function requestIPFSHash() public returns (bytes32 requestId) {\n        Chainlink.Request memory request = buildChainlinkRequest(\n            jobId,\n            address(this),\n            this.fulfill.selector\n        );\n        request.add(\"get\", apiBaseUrl);\n        request.add(\"path\", \"IPFS_PATH\");\n\n        return sendChainlinkRequestTo(oracle, request, fee);\n    }\n\n    function fulfill(bytes32 _requestId, bytes32 dataFromAPI) public recordChainlinkFulfillment(_requestId) returns (bytes32 requestId) {\n        ipfsHashOneBytes32 = dataFromAPI;\n\n        Chainlink.Request memory request = buildChainlinkRequest(\n            jobId,\n            address(this),\n            this.fulfillSecondRequest.selector\n        );\n        request.add(\"get\", apiSecondUrl);\n        request.add(\"path\", \"IPFS_PATH\");\n\n        return sendChainlinkRequestTo(oracle, request, fee);\n    }\n\n    function fulfillSecondRequest(bytes32 _requestId, bytes32 dataFromAPI) public recordChainlinkFulfillment(_requestId) {\n        ipfsHashTwoBytes32 = dataFromAPI;\n        generateIPFSLink();\n\n        emit DataReceivedFromAPI(ipfsLink);\n\n        setTokenURI(ipfsLink);\n\n        emit NewTurtleGenerated(uniqueTokenId - 1);\n    }\n\n    function bytes32ToString(bytes32 _bytes32) internal pure returns (string memory) {\n        uint8 i = 0;\n        while (i < 32 && _bytes32[i] != 0) {\n            i++;\n        }\n        bytes memory bytesArray = new bytes(i);\n        for (i = 0; i < 32 && _bytes32[i] != 0; i++) {\n            bytesArray[i] = _bytes32[i];\n        }\n        return string(bytesArray);\n    }\n\n    function generateIPFSLink() private {\n        string memory ipfsHashPartOne = bytes32ToString(ipfsHashOneBytes32);\n        string memory ipfsHashPartTwo = bytes32ToString(ipfsHashTwoBytes32);\n        ipfsLink = append(ipfsLink, ipfsHashPartOne, ipfsHashPartTwo);\n    }\n\n    function append(\n        string memory a,\n        string memory b,\n        string memory c\n    ) internal pure returns (string memory) {\n        return string(abi.encodePacked(a, b, c));\n    }\n\n    function withdrawLink() external {\n        LinkTokenInterface linkToken = LinkTokenInterface(\n            chainlinkTokenAddress()\n        );\n        require(\n            linkToken.transfer(msg.sender, linkToken.balanceOf(address(this))),\n            \"Unable to transfer LINK\"\n        );\n    }\n\n    function setTokenURI(string memory _tokenURI) private {\n        _setTokenURI(uniqueTokenId, _tokenURI);\n        uniqueTokenId++;\n    }\n}\n",
  "sourcePath": "D:/EthOdyssey/NFT-Game/contracts/TurtleCharacter.sol",
  "compiler": {
    "name": "solc",
    "version": "0.6.6+commit.6c089d02.Emscripten.clang"
  },
  "schemaVersion": "3.4.1",
  "updatedAt": "2021-07-27T15:17:58.133Z",
  "devdoc": {
    "methods": {
      "approve(address,uint256)": {
        "details": "See {IERC721-approve}."
      },
      "balanceOf(address)": {
        "details": "See {IERC721-balanceOf}."
      },
      "baseURI()": {
        "details": "Returns the base URI set via {_setBaseURI}. This will be automatically added as a prefix in {tokenURI} to each token's URI, or to the token ID if no specific URI is set for that token ID."
      },
      "getApproved(uint256)": {
        "details": "See {IERC721-getApproved}."
      },
      "isApprovedForAll(address,address)": {
        "details": "See {IERC721-isApprovedForAll}."
      },
      "name()": {
        "details": "See {IERC721Metadata-name}."
      },
      "ownerOf(uint256)": {
        "details": "See {IERC721-ownerOf}."
      },
      "safeTransferFrom(address,address,uint256)": {
        "details": "See {IERC721-safeTransferFrom}."
      },
      "safeTransferFrom(address,address,uint256,bytes)": {
        "details": "See {IERC721-safeTransferFrom}."
      },
      "setApprovalForAll(address,bool)": {
        "details": "See {IERC721-setApprovalForAll}."
      },
      "supportsInterface(bytes4)": {
        "details": "See {IERC165-supportsInterface}.     * Time complexity O(1), guaranteed to always use less than 30 000 gas."
      },
      "symbol()": {
        "details": "See {IERC721Metadata-symbol}."
      },
      "tokenByIndex(uint256)": {
        "details": "See {IERC721Enumerable-tokenByIndex}."
      },
      "tokenOfOwnerByIndex(address,uint256)": {
        "details": "See {IERC721Enumerable-tokenOfOwnerByIndex}."
      },
      "tokenURI(uint256)": {
        "details": "See {IERC721Metadata-tokenURI}."
      },
      "totalSupply()": {
        "details": "See {IERC721Enumerable-totalSupply}."
      },
      "transferFrom(address,address,uint256)": {
        "details": "See {IERC721-transferFrom}."
      }
    }
  },
  "userdoc": {
    "methods": {
      "constructor": "Network: Rinkeby Oracle - 0x3A56aE4a2831C3d3514b5D7Af5578E45eBDb7a40 Job ID - 187bb80e5ee74a139734cac7475f3c6e Fee: 0.01 LINK"
    }
  }
}