{
  "contractName": "Turtis",
  "abi": [
    {
      "inputs": [],
      "stateMutability": "nonpayable",
      "type": "constructor"
    },
    {
      "anonymous": false,
      "inputs": [
        {
          "indexed": true,
          "internalType": "address",
          "name": "owner",
          "type": "address"
        },
        {
          "indexed": true,
          "internalType": "address",
          "name": "approved",
          "type": "address"
        },
        {
          "indexed": true,
          "internalType": "uint256",
          "name": "tokenId",
          "type": "uint256"
        }
      ],
      "name": "Approval",
      "type": "event"
    },
    {
      "anonymous": false,
      "inputs": [
        {
          "indexed": true,
          "internalType": "address",
          "name": "owner",
          "type": "address"
        },
        {
          "indexed": true,
          "internalType": "address",
          "name": "operator",
          "type": "address"
        },
        {
          "indexed": false,
          "internalType": "bool",
          "name": "approved",
          "type": "bool"
        }
      ],
      "name": "ApprovalForAll",
      "type": "event"
    },
    {
      "anonymous": false,
      "inputs": [
        {
          "indexed": false,
          "internalType": "string",
          "name": "ipfsLink",
          "type": "string"
        }
      ],
      "name": "DataReceivedFromAPI",
      "type": "event"
    },
    {
      "anonymous": false,
      "inputs": [
        {
          "indexed": false,
          "internalType": "uint256",
          "name": "tokenId",
          "type": "uint256"
        }
      ],
      "name": "NewTurtleGenerated",
      "type": "event"
    },
    {
      "anonymous": false,
      "inputs": [
        {
          "indexed": true,
          "internalType": "address",
          "name": "from",
          "type": "address"
        },
        {
          "indexed": true,
          "internalType": "address",
          "name": "to",
          "type": "address"
        },
        {
          "indexed": true,
          "internalType": "uint256",
          "name": "tokenId",
          "type": "uint256"
        }
      ],
      "name": "Transfer",
      "type": "event"
    },
    {
      "anonymous": false,
      "inputs": [
        {
          "indexed": false,
          "internalType": "uint256",
          "name": "tokenId",
          "type": "uint256"
        }
      ],
      "name": "TurtleBought",
      "type": "event"
    },
    {
      "anonymous": false,
      "inputs": [
        {
          "indexed": false,
          "internalType": "uint256",
          "name": "tokenId",
          "type": "uint256"
        }
      ],
      "name": "TurtleUpForSale",
      "type": "event"
    },
    {
      "inputs": [
        {
          "internalType": "address",
          "name": "to",
          "type": "address"
        },
        {
          "internalType": "uint256",
          "name": "tokenId",
          "type": "uint256"
        }
      ],
      "name": "approve",
      "outputs": [],
      "stateMutability": "nonpayable",
      "type": "function"
    },
    {
      "inputs": [
        {
          "internalType": "address",
          "name": "owner",
          "type": "address"
        }
      ],
      "name": "balanceOf",
      "outputs": [
        {
          "internalType": "uint256",
          "name": "",
          "type": "uint256"
        }
      ],
      "stateMutability": "view",
      "type": "function"
    },
    {
      "inputs": [],
      "name": "baseURI",
      "outputs": [
        {
          "internalType": "string",
          "name": "",
          "type": "string"
        }
      ],
      "stateMutability": "view",
      "type": "function"
    },
    {
      "inputs": [],
      "name": "contractOwner",
      "outputs": [
        {
          "internalType": "address",
          "name": "",
          "type": "address"
        }
      ],
      "stateMutability": "view",
      "type": "function"
    },
    {
      "inputs": [
        {
          "internalType": "uint256",
          "name": "tokenId",
          "type": "uint256"
        }
      ],
      "name": "getApproved",
      "outputs": [
        {
          "internalType": "address",
          "name": "",
          "type": "address"
        }
      ],
      "stateMutability": "view",
      "type": "function"
    },
    {
      "inputs": [
        {
          "internalType": "address",
          "name": "owner",
          "type": "address"
        },
        {
          "internalType": "address",
          "name": "operator",
          "type": "address"
        }
      ],
      "name": "isApprovedForAll",
      "outputs": [
        {
          "internalType": "bool",
          "name": "",
          "type": "bool"
        }
      ],
      "stateMutability": "view",
      "type": "function"
    },
    {
      "inputs": [],
      "name": "name",
      "outputs": [
        {
          "internalType": "string",
          "name": "",
          "type": "string"
        }
      ],
      "stateMutability": "view",
      "type": "function"
    },
    {
      "inputs": [
        {
          "internalType": "uint256",
          "name": "tokenId",
          "type": "uint256"
        }
      ],
      "name": "ownerOf",
      "outputs": [
        {
          "internalType": "address",
          "name": "",
          "type": "address"
        }
      ],
      "stateMutability": "view",
      "type": "function"
    },
    {
      "inputs": [
        {
          "internalType": "address",
          "name": "from",
          "type": "address"
        },
        {
          "internalType": "address",
          "name": "to",
          "type": "address"
        },
        {
          "internalType": "uint256",
          "name": "tokenId",
          "type": "uint256"
        }
      ],
      "name": "safeTransferFrom",
      "outputs": [],
      "stateMutability": "nonpayable",
      "type": "function"
    },
    {
      "inputs": [
        {
          "internalType": "address",
          "name": "from",
          "type": "address"
        },
        {
          "internalType": "address",
          "name": "to",
          "type": "address"
        },
        {
          "internalType": "uint256",
          "name": "tokenId",
          "type": "uint256"
        },
        {
          "internalType": "bytes",
          "name": "_data",
          "type": "bytes"
        }
      ],
      "name": "safeTransferFrom",
      "outputs": [],
      "stateMutability": "nonpayable",
      "type": "function"
    },
    {
      "inputs": [
        {
          "internalType": "address",
          "name": "operator",
          "type": "address"
        },
        {
          "internalType": "bool",
          "name": "approved",
          "type": "bool"
        }
      ],
      "name": "setApprovalForAll",
      "outputs": [],
      "stateMutability": "nonpayable",
      "type": "function"
    },
    {
      "inputs": [
        {
          "internalType": "bytes4",
          "name": "interfaceId",
          "type": "bytes4"
        }
      ],
      "name": "supportsInterface",
      "outputs": [
        {
          "internalType": "bool",
          "name": "",
          "type": "bool"
        }
      ],
      "stateMutability": "view",
      "type": "function"
    },
    {
      "inputs": [],
      "name": "symbol",
      "outputs": [
        {
          "internalType": "string",
          "name": "",
          "type": "string"
        }
      ],
      "stateMutability": "view",
      "type": "function"
    },
    {
      "inputs": [
        {
          "internalType": "uint256",
          "name": "index",
          "type": "uint256"
        }
      ],
      "name": "tokenByIndex",
      "outputs": [
        {
          "internalType": "uint256",
          "name": "",
          "type": "uint256"
        }
      ],
      "stateMutability": "view",
      "type": "function"
    },
    {
      "inputs": [
        {
          "internalType": "address",
          "name": "owner",
          "type": "address"
        },
        {
          "internalType": "uint256",
          "name": "index",
          "type": "uint256"
        }
      ],
      "name": "tokenOfOwnerByIndex",
      "outputs": [
        {
          "internalType": "uint256",
          "name": "",
          "type": "uint256"
        }
      ],
      "stateMutability": "view",
      "type": "function"
    },
    {
      "inputs": [
        {
          "internalType": "uint256",
          "name": "tokenId",
          "type": "uint256"
        }
      ],
      "name": "tokenURI",
      "outputs": [
        {
          "internalType": "string",
          "name": "",
          "type": "string"
        }
      ],
      "stateMutability": "view",
      "type": "function"
    },
    {
      "inputs": [],
      "name": "totalSupply",
      "outputs": [
        {
          "internalType": "uint256",
          "name": "",
          "type": "uint256"
        }
      ],
      "stateMutability": "view",
      "type": "function"
    },
    {
      "inputs": [
        {
          "internalType": "address",
          "name": "from",
          "type": "address"
        },
        {
          "internalType": "address",
          "name": "to",
          "type": "address"
        },
        {
          "internalType": "uint256",
          "name": "tokenId",
          "type": "uint256"
        }
      ],
      "name": "transferFrom",
      "outputs": [],
      "stateMutability": "nonpayable",
      "type": "function"
    },
    {
      "inputs": [
        {
          "internalType": "uint256",
          "name": "",
          "type": "uint256"
        }
      ],
      "name": "turtlesForSale",
      "outputs": [
        {
          "internalType": "uint256",
          "name": "",
          "type": "uint256"
        }
      ],
      "stateMutability": "view",
      "type": "function"
    },
    {
      "inputs": [
        {
          "internalType": "address",
          "name": "",
          "type": "address"
        }
      ],
      "name": "userAddressToHighScore",
      "outputs": [
        {
          "internalType": "string",
          "name": "",
          "type": "string"
        }
      ],
      "stateMutability": "view",
      "type": "function"
    },
    {
      "inputs": [],
      "name": "getUsers",
      "outputs": [
        {
          "internalType": "address[]",
          "name": "",
          "type": "address[]"
        }
      ],
      "stateMutability": "view",
      "type": "function"
    },
    {
      "inputs": [
        {
          "internalType": "uint256",
          "name": "_tokenId",
          "type": "uint256"
        }
      ],
      "name": "buyTurtle",
      "outputs": [],
      "stateMutability": "payable",
      "type": "function"
    },
    {
      "inputs": [
        {
          "internalType": "uint256",
          "name": "_tokenId",
          "type": "uint256"
        },
        {
          "internalType": "uint256",
          "name": "_price",
          "type": "uint256"
        }
      ],
      "name": "putUpTurtleForSale",
      "outputs": [],
      "stateMutability": "nonpayable",
      "type": "function"
    },
    {
      "inputs": [
        {
          "internalType": "uint256",
          "name": "_tokenId",
          "type": "uint256"
        },
        {
          "internalType": "string",
          "name": "_tokenURI",
          "type": "string"
        }
      ],
      "name": "updateTokenURI",
      "outputs": [],
      "stateMutability": "nonpayable",
      "type": "function"
    }
  ],
  "bytecode": "0x60806040523480156200001157600080fd5b506040518060400160405280600f81526020017f547572746c6543686172616374657200000000000000000000000000000000008152506040518060400160405280600481526020017f5452544c00000000000000000000000000000000000000000000000000000000815250620000966301ffc9a760e01b6200015960201b60201c565b8160069080519060200190620000ae92919062000262565b508060079080519060200190620000c792919062000262565b50620000e06380ac58cd60e01b6200015960201b60201c565b620000f8635b5e139f60e01b6200015960201b60201c565b6200011063780e9d6360e01b6200015960201b60201c565b505033600a60006101000a81548173ffffffffffffffffffffffffffffffffffffffff021916908373ffffffffffffffffffffffffffffffffffffffff16021790555062000311565b63ffffffff60e01b817bffffffffffffffffffffffffffffffffffffffffffffffffffffffff19161415620001f6576040517f08c379a000000000000000000000000000000000000000000000000000000000815260040180806020018281038252601c8152602001807f4552433136353a20696e76616c696420696e746572666163652069640000000081525060200191505060405180910390fd5b6001600080837bffffffffffffffffffffffffffffffffffffffffffffffffffffffff19167bffffffffffffffffffffffffffffffffffffffffffffffffffffffff1916815260200190815260200160002060006101000a81548160ff02191690831515021790555050565b828054600181600116156101000203166002900490600052602060002090601f016020900481019282601f10620002a557805160ff1916838001178555620002d6565b82800160010185558215620002d6579182015b82811115620002d5578251825591602001919060010190620002b8565b5b509050620002e59190620002e9565b5090565b6200030e91905b808211156200030a576000816000905550600101620002f0565b5090565b90565b6132ab80620003216000396000f3fe60806040526004361061014a5760003560e01c80636352211e116100b6578063b88d4fde1161006f578063b88d4fde14610935578063c87b56dd14610a47578063ce606ee014610afb578063e503cafa14610b52578063e985e9c514610c1c578063f2044fe914610ca55761014a565b80636352211e146106895780636c0360eb1461070457806370a082311461079457806395d89b41146107f9578063a22cb46514610889578063a748efb2146108e65761014a565b8063184d9bb911610108578063184d9bb9146103be57806318e97fd11461040357806323b872dd146104d55780632f745c591461055057806342842e0e146105bf5780634f6ccce71461063a5761014a565b8062ce8e3e1461014f57806301ffc9a7146101bb57806306fdde031461022d578063081812fc146102bd578063095ea7b31461033857806318160ddd14610393575b600080fd5b34801561015b57600080fd5b50610164610cd3565b6040518080602001828103825283818151815260200191508051906020019060200280838360005b838110156101a757808201518184015260208101905061018c565b505050509050019250505060405180910390f35b3480156101c757600080fd5b50610213600480360360208110156101de57600080fd5b8101908080357bffffffffffffffffffffffffffffffffffffffffffffffffffffffff19169060200190929190505050610d61565b604051808215151515815260200191505060405180910390f35b34801561023957600080fd5b50610242610dc8565b6040518080602001828103825283818151815260200191508051906020019080838360005b83811015610282578082015181840152602081019050610267565b50505050905090810190601f1680156102af5780820380516001836020036101000a031916815260200191505b509250505060405180910390f35b3480156102c957600080fd5b506102f6600480360360208110156102e057600080fd5b8101908080359060200190929190505050610e6a565b604051808273ffffffffffffffffffffffffffffffffffffffff1673ffffffffffffffffffffffffffffffffffffffff16815260200191505060405180910390f35b34801561034457600080fd5b506103916004803603604081101561035b57600080fd5b81019080803573ffffffffffffffffffffffffffffffffffffffff16906020019092919080359060200190929190505050610f05565b005b34801561039f57600080fd5b506103a8611049565b6040518082815260200191505060405180910390f35b3480156103ca57600080fd5b50610401600480360360408110156103e157600080fd5b81019080803590602001909291908035906020019092919050505061105a565b005b34801561040f57600080fd5b506104d36004803603604081101561042657600080fd5b81019080803590602001909291908035906020019064010000000081111561044d57600080fd5b82018360208201111561045f57600080fd5b8035906020019184600183028401116401000000008311171561048157600080fd5b91908080601f016020809104026020016040519081016040528093929190818152602001838380828437600081840152601f19601f820116905080830192505050505050509192919290505050611113565b005b3480156104e157600080fd5b5061054e600480360360608110156104f857600080fd5b81019080803573ffffffffffffffffffffffffffffffffffffffff169060200190929190803573ffffffffffffffffffffffffffffffffffffffff169060200190929190803590602001909291905050506111c7565b005b34801561055c57600080fd5b506105a96004803603604081101561057357600080fd5b81019080803573ffffffffffffffffffffffffffffffffffffffff1690602001909291908035906020019092919050505061123d565b6040518082815260200191505060405180910390f35b3480156105cb57600080fd5b50610638600480360360608110156105e257600080fd5b81019080803573ffffffffffffffffffffffffffffffffffffffff169060200190929190803573ffffffffffffffffffffffffffffffffffffffff16906020019092919080359060200190929190505050611298565b005b34801561064657600080fd5b506106736004803603602081101561065d57600080fd5b81019080803590602001909291905050506112b8565b6040518082815260200191505060405180910390f35b34801561069557600080fd5b506106c2600480360360208110156106ac57600080fd5b81019080803590602001909291905050506112db565b604051808273ffffffffffffffffffffffffffffffffffffffff1673ffffffffffffffffffffffffffffffffffffffff16815260200191505060405180910390f35b34801561071057600080fd5b50610719611312565b6040518080602001828103825283818151815260200191508051906020019080838360005b8381101561075957808201518184015260208101905061073e565b50505050905090810190601f1680156107865780820380516001836020036101000a031916815260200191505b509250505060405180910390f35b3480156107a057600080fd5b506107e3600480360360208110156107b757600080fd5b81019080803573ffffffffffffffffffffffffffffffffffffffff1690602001909291905050506113b4565b6040518082815260200191505060405180910390f35b34801561080557600080fd5b5061080e611489565b6040518080602001828103825283818151815260200191508051906020019080838360005b8381101561084e578082015181840152602081019050610833565b50505050905090810190601f16801561087b5780820380516001836020036101000a031916815260200191505b509250505060405180910390f35b34801561089557600080fd5b506108e4600480360360408110156108ac57600080fd5b81019080803573ffffffffffffffffffffffffffffffffffffffff16906020019092919080351515906020019092919050505061152b565b005b3480156108f257600080fd5b5061091f6004803603602081101561090957600080fd5b81019080803590602001909291905050506116e3565b6040518082815260200191505060405180910390f35b34801561094157600080fd5b50610a456004803603608081101561095857600080fd5b81019080803573ffffffffffffffffffffffffffffffffffffffff169060200190929190803573ffffffffffffffffffffffffffffffffffffffff16906020019092919080359060200190929190803590602001906401000000008111156109bf57600080fd5b8201836020820111156109d157600080fd5b803590602001918460018302840111640100000000831117156109f357600080fd5b91908080601f016020809104026020016040519081016040528093929190818152602001838380828437600081840152601f19601f8201169050808301925050505050505091929192905050506116fb565b005b348015610a5357600080fd5b50610a8060048036036020811015610a6a57600080fd5b8101908080359060200190929190505050611773565b6040518080602001828103825283818151815260200191508051906020019080838360005b83811015610ac0578082015181840152602081019050610aa5565b50505050905090810190601f168015610aed5780820380516001836020036101000a031916815260200191505b509250505060405180910390f35b348015610b0757600080fd5b50610b10611a44565b604051808273ffffffffffffffffffffffffffffffffffffffff1673ffffffffffffffffffffffffffffffffffffffff16815260200191505060405180910390f35b348015610b5e57600080fd5b50610ba160048036036020811015610b7557600080fd5b81019080803573ffffffffffffffffffffffffffffffffffffffff169060200190929190505050611a6a565b6040518080602001828103825283818151815260200191508051906020019080838360005b83811015610be1578082015181840152602081019050610bc6565b50505050905090810190601f168015610c0e5780820380516001836020036101000a031916815260200191505b509250505060405180910390f35b348015610c2857600080fd5b50610c8b60048036036040811015610c3f57600080fd5b81019080803573ffffffffffffffffffffffffffffffffffffffff169060200190929190803573ffffffffffffffffffffffffffffffffffffffff169060200190929190505050611b1a565b604051808215151515815260200191505060405180910390f35b610cd160048036036020811015610cbb57600080fd5b8101908080359060200190929190505050611bae565b005b6060600b805480602002602001604051908101604052809291908181526020018280548015610d5757602002820191906000526020600020905b8160009054906101000a900473ffffffffffffffffffffffffffffffffffffffff1673ffffffffffffffffffffffffffffffffffffffff1681526020019060010190808311610d0d575b5050505050905090565b6000806000837bffffffffffffffffffffffffffffffffffffffffffffffffffffffff19167bffffffffffffffffffffffffffffffffffffffffffffffffffffffff1916815260200190815260200160002060009054906101000a900460ff169050919050565b606060068054600181600116156101000203166002900480601f016020809104026020016040519081016040528092919081815260200182805460018160011615610100020316600290048015610e605780601f10610e3557610100808354040283529160200191610e60565b820191906000526020600020905b815481529060010190602001808311610e4357829003601f168201915b5050505050905090565b6000610e7582611e06565b610eca576040517f08c379a000000000000000000000000000000000000000000000000000000000815260040180806020018281038252602c815260200180613150602c913960400191505060405180910390fd5b6004600083815260200190815260200160002060009054906101000a900473ffffffffffffffffffffffffffffffffffffffff169050919050565b6000610f10826112db565b90508073ffffffffffffffffffffffffffffffffffffffff168373ffffffffffffffffffffffffffffffffffffffff161415610f97576040517f08c379a00000000000000000000000000000000000000000000000000000000081526004018080602001828103825260218152602001806132006021913960400191505060405180910390fd5b8073ffffffffffffffffffffffffffffffffffffffff16610fb6611e23565b73ffffffffffffffffffffffffffffffffffffffff161480610fe55750610fe481610fdf611e23565b611b1a565b5b61103a576040517f08c379a00000000000000000000000000000000000000000000000000000000081526004018080602001828103825260388152602001806130a36038913960400191505060405180910390fd5b6110448383611e2b565b505050565b60006110556002611ee4565b905090565b61106b611065611e23565b83611ef9565b6110c0576040517f08c379a0000000000000000000000000000000000000000000000000000000008152600401808060200182810382526028815260200180612fd36028913960400191505060405180910390fd5b80600c6000848152602001908152602001600020819055507f5cfd7981b7826a1543139612aae7cac778558e6d89d166a9d4b69423535fe087826040518082815260200191505060405180910390a15050565b600a60009054906101000a900473ffffffffffffffffffffffffffffffffffffffff1673ffffffffffffffffffffffffffffffffffffffff163373ffffffffffffffffffffffffffffffffffffffff16146111b9576040517f08c379a00000000000000000000000000000000000000000000000000000000081526004018080602001828103825260248152602001806132526024913960400191505060405180910390fd5b6111c38282611fed565b5050565b6111d86111d2611e23565b82611ef9565b61122d576040517f08c379a00000000000000000000000000000000000000000000000000000000081526004018080602001828103825260318152602001806132216031913960400191505060405180910390fd5b611238838383612077565b505050565b600061129082600160008673ffffffffffffffffffffffffffffffffffffffff1673ffffffffffffffffffffffffffffffffffffffff1681526020019081526020016000206122ba90919063ffffffff16565b905092915050565b6112b3838383604051806020016040528060008152506116fb565b505050565b6000806112cf8360026122d490919063ffffffff16565b50905080915050919050565b600061130b826040518060600160405280602981526020016131056029913960026123039092919063ffffffff16565b9050919050565b606060098054600181600116156101000203166002900480601f0160208091040260200160405190810160405280929190818152602001828054600181600116156101000203166002900480156113aa5780601f1061137f576101008083540402835291602001916113aa565b820191906000526020600020905b81548152906001019060200180831161138d57829003601f168201915b5050505050905090565b60008073ffffffffffffffffffffffffffffffffffffffff168273ffffffffffffffffffffffffffffffffffffffff16141561143b576040517f08c379a000000000000000000000000000000000000000000000000000000000815260040180806020018281038252602a8152602001806130db602a913960400191505060405180910390fd5b611482600160008473ffffffffffffffffffffffffffffffffffffffff1673ffffffffffffffffffffffffffffffffffffffff168152602001908152602001600020612322565b9050919050565b606060078054600181600116156101000203166002900480601f0160208091040260200160405190810160405280929190818152602001828054600181600116156101000203166002900480156115215780601f106114f657610100808354040283529160200191611521565b820191906000526020600020905b81548152906001019060200180831161150457829003601f168201915b5050505050905090565b611533611e23565b73ffffffffffffffffffffffffffffffffffffffff168273ffffffffffffffffffffffffffffffffffffffff1614156115d4576040517f08c379a00000000000000000000000000000000000000000000000000000000081526004018080602001828103825260198152602001807f4552433732313a20617070726f766520746f2063616c6c65720000000000000081525060200191505060405180910390fd5b80600560006115e1611e23565b73ffffffffffffffffffffffffffffffffffffffff1673ffffffffffffffffffffffffffffffffffffffff16815260200190815260200160002060008473ffffffffffffffffffffffffffffffffffffffff1673ffffffffffffffffffffffffffffffffffffffff16815260200190815260200160002060006101000a81548160ff0219169083151502179055508173ffffffffffffffffffffffffffffffffffffffff1661168e611e23565b73ffffffffffffffffffffffffffffffffffffffff167f17307eab39ab6107e8899845ad3d59bd9653f200f220920489ca2b5937696c3183604051808215151515815260200191505060405180910390a35050565b600c6020528060005260406000206000915090505481565b61170c611706611e23565b83611ef9565b611761576040517f08c379a00000000000000000000000000000000000000000000000000000000081526004018080602001828103825260318152602001806132216031913960400191505060405180910390fd5b61176d84848484612337565b50505050565b606061177e82611e06565b6117d3576040517f08c379a000000000000000000000000000000000000000000000000000000000815260040180806020018281038252602f8152602001806131d1602f913960400191505060405180910390fd5b6060600860008481526020019081526020016000208054600181600116156101000203166002900480601f01602080910402602001604051908101604052809291908181526020018280546001816001161561010002031660029004801561187c5780601f106118515761010080835404028352916020019161187c565b820191906000526020600020905b81548152906001019060200180831161185f57829003601f168201915b50505050509050606061188d611312565b90506000815114156118a3578192505050611a3f565b6000825111156119745780826040516020018083805190602001908083835b602083106118e557805182526020820191506020810190506020830392506118c2565b6001836020036101000a03801982511681845116808217855250505050505090500182805190602001908083835b602083106119365780518252602082019150602081019050602083039250611913565b6001836020036101000a0380198251168184511680821785525050505050509050019250505060405160208183030381529060405292505050611a3f565b8061197e856123a9565b6040516020018083805190602001908083835b602083106119b45780518252602082019150602081019050602083039250611991565b6001836020036101000a03801982511681845116808217855250505050505090500182805190602001908083835b60208310611a0557805182526020820191506020810190506020830392506119e2565b6001836020036101000a03801982511681845116808217855250505050505090500192505050604051602081830303815290604052925050505b919050565b600a60009054906101000a900473ffffffffffffffffffffffffffffffffffffffff1681565b600d6020528060005260406000206000915090508054600181600116156101000203166002900480601f016020809104026020016040519081016040528092919081815260200182805460018160011615610100020316600290048015611b125780601f10611ae757610100808354040283529160200191611b12565b820191906000526020600020905b815481529060010190602001808311611af557829003601f168201915b505050505081565b6000600560008473ffffffffffffffffffffffffffffffffffffffff1673ffffffffffffffffffffffffffffffffffffffff16815260200190815260200160002060008373ffffffffffffffffffffffffffffffffffffffff1673ffffffffffffffffffffffffffffffffffffffff16815260200190815260200160002060009054906101000a900460ff16905092915050565b6000600c60008381526020019081526020016000205411611c37576040517f08c379a00000000000000000000000000000000000000000000000000000000081526004018080602001828103825260208152602001807f54686520547572746c652073686f756c6420626520757020666f722073616c6581525060200191505060405180910390fd5b6000600c60008381526020019081526020016000205490506000600c6000848152602001908152602001600020819055506000611c73836112db565b9050813411611cea576040517f08c379a000000000000000000000000000000000000000000000000000000000815260040180806020018281038252601d8152602001807f596f75206e65656420746f206861766520656e6f75676820457468657200000081525060200191505060405180910390fd5b611d2b8133856040518060400160405280600c81526020017f427579206120547572746c650000000000000000000000000000000000000000815250612337565b60008190508073ffffffffffffffffffffffffffffffffffffffff166108fc849081150290604051600060405180830381858888f19350505050158015611d76573d6000803e3d6000fd5b5082341115611dc9573373ffffffffffffffffffffffffffffffffffffffff166108fc8434039081150290604051600060405180830381858888f19350505050158015611dc7573d6000803e3d6000fd5b505b7f8c78864e67a7dfb4ed185a3b2dad4a13fd8a7f807e84ecf1687eab5cb297676e846040518082815260200191505060405180910390a150505050565b6000611e1c8260026124f090919063ffffffff16565b9050919050565b600033905090565b816004600083815260200190815260200160002060006101000a81548173ffffffffffffffffffffffffffffffffffffffff021916908373ffffffffffffffffffffffffffffffffffffffff160217905550808273ffffffffffffffffffffffffffffffffffffffff16611e9e836112db565b73ffffffffffffffffffffffffffffffffffffffff167f8c5be1e5ebec7d5bd14f71427d1e84f3dd0314c0f7b2291e5b200ac8c7c3b92560405160405180910390a45050565b6000611ef28260000161250a565b9050919050565b6000611f0482611e06565b611f59576040517f08c379a000000000000000000000000000000000000000000000000000000000815260040180806020018281038252602c815260200180613077602c913960400191505060405180910390fd5b6000611f64836112db565b90508073ffffffffffffffffffffffffffffffffffffffff168473ffffffffffffffffffffffffffffffffffffffff161480611fd357508373ffffffffffffffffffffffffffffffffffffffff16611fbb84610e6a565b73ffffffffffffffffffffffffffffffffffffffff16145b80611fe45750611fe38185611b1a565b5b91505092915050565b611ff682611e06565b61204b576040517f08c379a000000000000000000000000000000000000000000000000000000000815260040180806020018281038252602c81526020018061317c602c913960400191505060405180910390fd5b80600860008481526020019081526020016000209080519060200190612072929190612f0b565b505050565b8273ffffffffffffffffffffffffffffffffffffffff16612097826112db565b73ffffffffffffffffffffffffffffffffffffffff1614612103576040517f08c379a00000000000000000000000000000000000000000000000000000000081526004018080602001828103825260298152602001806131a86029913960400191505060405180910390fd5b600073ffffffffffffffffffffffffffffffffffffffff168273ffffffffffffffffffffffffffffffffffffffff161415612189576040517f08c379a000000000000000000000000000000000000000000000000000000000815260040180806020018281038252602481526020018061302d6024913960400191505060405180910390fd5b61219483838361251b565b61219f600082611e2b565b6121f081600160008673ffffffffffffffffffffffffffffffffffffffff1673ffffffffffffffffffffffffffffffffffffffff16815260200190815260200160002061252090919063ffffffff16565b5061224281600160008573ffffffffffffffffffffffffffffffffffffffff1673ffffffffffffffffffffffffffffffffffffffff16815260200190815260200160002061253a90919063ffffffff16565b50612259818360026125549092919063ffffffff16565b50808273ffffffffffffffffffffffffffffffffffffffff168473ffffffffffffffffffffffffffffffffffffffff167fddf252ad1be2c89b69c2b068fc378daa952ba7f163c4a11628f55a4df523b3ef60405160405180910390a4505050565b60006122c98360000183612589565b60001c905092915050565b6000806000806122e7866000018661260c565b915091508160001c8160001c8090509350935050509250929050565b6000612316846000018460001b846126a5565b60001c90509392505050565b60006123308260000161279b565b9050919050565b612342848484612077565b61234e848484846127ac565b6123a3576040517f08c379a0000000000000000000000000000000000000000000000000000000008152600401808060200182810382526032815260200180612ffb6032913960400191505060405180910390fd5b50505050565b606060008214156123f1576040518060400160405280600181526020017f300000000000000000000000000000000000000000000000000000000000000081525090506124eb565b600082905060005b6000821461241b578080600101915050600a828161241357fe5b0491506123f9565b60608167ffffffffffffffff8111801561243457600080fd5b506040519080825280601f01601f1916602001820160405280156124675781602001600182028036833780820191505090505b50905060006001830390508593505b600084146124e357600a848161248857fe5b0660300160f81b828280600190039350815181106124a257fe5b60200101907effffffffffffffffffffffffffffffffffffffffffffffffffffffffffffff1916908160001a905350600a84816124db57fe5b049350612476565b819450505050505b919050565b6000612502836000018360001b6129f1565b905092915050565b600081600001805490509050919050565b505050565b6000612532836000018360001b612a14565b905092915050565b600061254c836000018360001b612afc565b905092915050565b6000612580846000018460001b8473ffffffffffffffffffffffffffffffffffffffff1660001b612b6c565b90509392505050565b6000818360000180549050116125ea576040517f08c379a0000000000000000000000000000000000000000000000000000000008152600401808060200182810382526022815260200180612fb16022913960400191505060405180910390fd5b8260000182815481106125f957fe5b9060005260206000200154905092915050565b6000808284600001805490501161266e576040517f08c379a000000000000000000000000000000000000000000000000000000000815260040180806020018281038252602281526020018061312e6022913960400191505060405180910390fd5b600084600001848154811061267f57fe5b906000526020600020906002020190508060000154816001015492509250509250929050565b6000808460010160008581526020019081526020016000205490506000811415839061276c576040517f08c379a00000000000000000000000000000000000000000000000000000000081526004018080602001828103825283818151815260200191508051906020019080838360005b83811015612731578082015181840152602081019050612716565b50505050905090810190601f16801561275e5780820380516001836020036101000a031916815260200191505b509250505060405180910390fd5b5084600001600182038154811061277f57fe5b9060005260206000209060020201600101549150509392505050565b600081600001805490509050919050565b60006127cd8473ffffffffffffffffffffffffffffffffffffffff16612c48565b6127da57600190506129e9565b606061297063150b7a0260e01b6127ef611e23565b888787604051602401808573ffffffffffffffffffffffffffffffffffffffff1673ffffffffffffffffffffffffffffffffffffffff1681526020018473ffffffffffffffffffffffffffffffffffffffff1673ffffffffffffffffffffffffffffffffffffffff16815260200183815260200180602001828103825283818151815260200191508051906020019080838360005b8381101561289f578082015181840152602081019050612884565b50505050905090810190601f1680156128cc5780820380516001836020036101000a031916815260200191505b5095505050505050604051602081830303815290604052907bffffffffffffffffffffffffffffffffffffffffffffffffffffffff19166020820180517bffffffffffffffffffffffffffffffffffffffffffffffffffffffff8381831617835250505050604051806060016040528060328152602001612ffb603291398773ffffffffffffffffffffffffffffffffffffffff16612c5b9092919063ffffffff16565b9050600081806020019051602081101561298957600080fd5b8101908080519060200190929190505050905063150b7a0260e01b7bffffffffffffffffffffffffffffffffffffffffffffffffffffffff1916817bffffffffffffffffffffffffffffffffffffffffffffffffffffffff191614925050505b949350505050565b600080836001016000848152602001908152602001600020541415905092915050565b60008083600101600084815260200190815260200160002054905060008114612af05760006001820390506000600186600001805490500390506000866000018281548110612a5f57fe5b9060005260206000200154905080876000018481548110612a7c57fe5b9060005260206000200181905550600183018760010160008381526020019081526020016000208190555086600001805480612ab457fe5b60019003818190600052602060002001600090559055866001016000878152602001908152602001600020600090556001945050505050612af6565b60009150505b92915050565b6000612b088383612c73565b612b61578260000182908060018154018082558091505060019003906000526020600020016000909190919091505582600001805490508360010160008481526020019081526020016000208190555060019050612b66565b600090505b92915050565b6000808460010160008581526020019081526020016000205490506000811415612c1357846000016040518060400160405280868152602001858152509080600181540180825580915050600190039060005260206000209060020201600090919091909150600082015181600001556020820151816001015550508460000180549050856001016000868152602001908152602001600020819055506001915050612c41565b82856000016001830381548110612c2657fe5b90600052602060002090600202016001018190555060009150505b9392505050565b600080823b905060008111915050919050565b6060612c6a8484600085612c96565b90509392505050565b600080836001016000848152602001908152602001600020541415905092915050565b606082471015612cf1576040517f08c379a00000000000000000000000000000000000000000000000000000000081526004018080602001828103825260268152602001806130516026913960400191505060405180910390fd5b612cfa85612c48565b612d6c576040517f08c379a000000000000000000000000000000000000000000000000000000000815260040180806020018281038252601d8152602001807f416464726573733a2063616c6c20746f206e6f6e2d636f6e747261637400000081525060200191505060405180910390fd5b600060608673ffffffffffffffffffffffffffffffffffffffff1685876040518082805190602001908083835b60208310612dbc5780518252602082019150602081019050602083039250612d99565b6001836020036101000a03801982511681845116808217855250505050505090500191505060006040518083038185875af1925050503d8060008114612e1e576040519150601f19603f3d011682016040523d82523d6000602084013e612e23565b606091505b5091509150612e33828286612e3f565b92505050949350505050565b60608315612e4f57829050612f04565b600083511115612e625782518084602001fd5b816040517f08c379a00000000000000000000000000000000000000000000000000000000081526004018080602001828103825283818151815260200191508051906020019080838360005b83811015612ec9578082015181840152602081019050612eae565b50505050905090810190601f168015612ef65780820380516001836020036101000a031916815260200191505b509250505060405180910390fd5b9392505050565b828054600181600116156101000203166002900490600052602060002090601f016020900481019282601f10612f4c57805160ff1916838001178555612f7a565b82800160010185558215612f7a579182015b82811115612f79578251825591602001919060010190612f5e565b5b509050612f879190612f8b565b5090565b612fad91905b80821115612fa9576000816000905550600101612f91565b5090565b9056fe456e756d657261626c655365743a20696e646578206f7574206f6620626f756e64734552433732313a2043616c6c6572206973206e6f74206f776e6572206e6f7220617070726f7665644552433732313a207472616e7366657220746f206e6f6e20455243373231526563656976657220696d706c656d656e7465724552433732313a207472616e7366657220746f20746865207a65726f2061646472657373416464726573733a20696e73756666696369656e742062616c616e636520666f722063616c6c4552433732313a206f70657261746f7220717565727920666f72206e6f6e6578697374656e7420746f6b656e4552433732313a20617070726f76652063616c6c6572206973206e6f74206f776e6572206e6f7220617070726f76656420666f7220616c6c4552433732313a2062616c616e636520717565727920666f7220746865207a65726f20616464726573734552433732313a206f776e657220717565727920666f72206e6f6e6578697374656e7420746f6b656e456e756d657261626c654d61703a20696e646578206f7574206f6620626f756e64734552433732313a20617070726f76656420717565727920666f72206e6f6e6578697374656e7420746f6b656e4552433732314d657461646174613a2055524920736574206f66206e6f6e6578697374656e7420746f6b656e4552433732313a207472616e73666572206f6620746f6b656e2074686174206973206e6f74206f776e4552433732314d657461646174613a2055524920717565727920666f72206e6f6e6578697374656e7420746f6b656e4552433732313a20617070726f76616c20746f2063757272656e74206f776e65724552433732313a207472616e736665722063616c6c6572206973206e6f74206f776e6572206e6f7220617070726f7665645468652063616c6c6572206973206e6f742074686520636f6e7472616374206f776e6572a26469706673582212209998ea53e55e5c53c3d5e673d408a17ff210874a6e98fd2a848dc319df1bf08564736f6c63430006060033",
  "immutableReferences": {},
  "source": "// SPDX-License-Identifier: MIT\npragma solidity ^0.6.6;\n\nimport \"@openzeppelin/contracts/token/ERC721/ERC721.sol\";\n\ncontract Turtis is ERC721 {\n  address public contractOwner; // Owner of this contract\n\n  address[] private users; // Address array to store all the users\n\n  // Mapping from Token ID to Price\n  mapping(uint256 => uint256) public turtlesForSale;\n\n  // Mapping from User address to high score\n  mapping(address => string) public userAddressToHighScore;\n\n  // Events\n\n  // Emitted when a new Turtle is generated after reaching a new checkpoint in the game\n  event NewTurtleGenerated(uint256 tokenId);\n\n  // Emitted when the data received from the API is successful\n  event DataReceivedFromAPI(string ipfsLink);\n\n  // Emitted when a turtle is bought\n  event TurtleBought(uint256 tokenId);\n\n  // Emitted when a turtle is put up for sale\n  event TurtleUpForSale(uint256 tokenId);\n\n  // Contructor is called when an instance of 'TurtleCharacter' contract is deployed\n  constructor() public ERC721(\"TurtleCharacter\", \"TRTL\") {\n    contractOwner = msg.sender;\n  }\n\n  // Modifer that checks to see if msg.sender == contractOwner\n  modifier onlyContractOwner() {\n    require(\n      msg.sender == contractOwner,\n      \"The caller is not the contract owner\"\n    );\n    _;\n  }\n\n  // Function 'getUsers' returns the address array of users\n  function getUsers() public view returns (address[] memory) {\n    return users;\n  }\n\n  // Function 'setHighScore' sets a new highScore for the user\n  function setHighScore(string memory _highScore, address _sender) internal {\n    bytes memory score = bytes(userAddressToHighScore[_sender]);\n    if (score.length == 0) {\n      users.push(_sender);\n    }\n    userAddressToHighScore[_sender] = _highScore;\n  }\n\n  // Function 'buyTurtle' allows anyone to buy a turtle that is put up for sale\n  function buyTurtle(uint256 _tokenId) public payable {\n    require(turtlesForSale[_tokenId] > 0, \"The Turtle should be up for sale\");\n\n    uint256 turtleCost = turtlesForSale[_tokenId];\n    turtlesForSale[_tokenId] = 0;\n\n    address ownerAddress = ownerOf(_tokenId);\n    require(msg.value > turtleCost, \"You need to have enough Ether\");\n\n    _safeTransfer(ownerAddress, msg.sender, _tokenId, bytes(\"Buy a Turtle\")); // ERC721 Token is safely transferred using this function call\n\n    address payable ownerAddressPayable = payable(ownerAddress);\n    ownerAddressPayable.transfer(turtleCost);\n    if (msg.value > turtleCost) {\n      payable(msg.sender).transfer(msg.value - turtleCost); // Excess Ether is returned back to the buyer\n    }\n\n    emit TurtleBought(_tokenId);\n  }\n\n  // Function 'putUpTurtleForSale' allows a turtle owner to put it up for sale\n  function putUpTurtleForSale(uint256 _tokenId, uint256 _price) public {\n    require(\n      _isApprovedOrOwner(_msgSender(), _tokenId),\n      \"ERC721: Caller is not owner nor approved\"\n    );\n    turtlesForSale[_tokenId] = _price;\n\n    emit TurtleUpForSale(_tokenId);\n  }\n\n  // Function 'setTokenURI' sets the Token URI for the ERC721 standard token\n  function setTokenURI(string memory _tokenURI) private {\n    uint256 lastTokenId = totalSupply() - 1;\n    _setTokenURI(lastTokenId, _tokenURI);\n  }\n\n  // Function 'updateTokenURI' updates the Token URI for a specific Token\n  function updateTokenURI(uint256 _tokenId, string memory _tokenURI)\n    public\n    onlyContractOwner\n  {\n    _setTokenURI(_tokenId, _tokenURI);\n  }\n}\n",
  "sourcePath": "C:/Users/dines/Downloads/NFT-Game/contracts/Turtis.sol",
  "compiler": {
    "name": "solc",
    "version": "0.6.6+commit.6c089d02.Emscripten.clang"
  },
  "schemaVersion": "3.4.1",
  "updatedAt": "2021-11-03T20:58:04.661Z",
  "devdoc": {
    "methods": {
      "approve(address,uint256)": {
        "details": "See {IERC721-approve}."
      },
      "balanceOf(address)": {
        "details": "See {IERC721-balanceOf}."
      },
      "baseURI()": {
        "details": "Returns the base URI set via {_setBaseURI}. This will be automatically added as a prefix in {tokenURI} to each token's URI, or to the token ID if no specific URI is set for that token ID."
      },
      "getApproved(uint256)": {
        "details": "See {IERC721-getApproved}."
      },
      "isApprovedForAll(address,address)": {
        "details": "See {IERC721-isApprovedForAll}."
      },
      "name()": {
        "details": "See {IERC721Metadata-name}."
      },
      "ownerOf(uint256)": {
        "details": "See {IERC721-ownerOf}."
      },
      "safeTransferFrom(address,address,uint256)": {
        "details": "See {IERC721-safeTransferFrom}."
      },
      "safeTransferFrom(address,address,uint256,bytes)": {
        "details": "See {IERC721-safeTransferFrom}."
      },
      "setApprovalForAll(address,bool)": {
        "details": "See {IERC721-setApprovalForAll}."
      },
      "supportsInterface(bytes4)": {
        "details": "See {IERC165-supportsInterface}.     * Time complexity O(1), guaranteed to always use less than 30 000 gas."
      },
      "symbol()": {
        "details": "See {IERC721Metadata-symbol}."
      },
      "tokenByIndex(uint256)": {
        "details": "See {IERC721Enumerable-tokenByIndex}."
      },
      "tokenOfOwnerByIndex(address,uint256)": {
        "details": "See {IERC721Enumerable-tokenOfOwnerByIndex}."
      },
      "tokenURI(uint256)": {
        "details": "See {IERC721Metadata-tokenURI}."
      },
      "totalSupply()": {
        "details": "See {IERC721Enumerable-totalSupply}."
      },
      "transferFrom(address,address,uint256)": {
        "details": "See {IERC721-transferFrom}."
      }
    }
  },
  "userdoc": {
    "methods": {}
  }
}