{
  "contractName": "TurtleCharacter",
  "abi": [
    {
      "inputs": [],
      "stateMutability": "nonpayable",
      "type": "constructor"
    },
    {
      "anonymous": false,
      "inputs": [
        {
          "indexed": true,
          "internalType": "address",
          "name": "owner",
          "type": "address"
        },
        {
          "indexed": true,
          "internalType": "address",
          "name": "approved",
          "type": "address"
        },
        {
          "indexed": true,
          "internalType": "uint256",
          "name": "tokenId",
          "type": "uint256"
        }
      ],
      "name": "Approval",
      "type": "event"
    },
    {
      "anonymous": false,
      "inputs": [
        {
          "indexed": true,
          "internalType": "address",
          "name": "owner",
          "type": "address"
        },
        {
          "indexed": true,
          "internalType": "address",
          "name": "operator",
          "type": "address"
        },
        {
          "indexed": false,
          "internalType": "bool",
          "name": "approved",
          "type": "bool"
        }
      ],
      "name": "ApprovalForAll",
      "type": "event"
    },
    {
      "anonymous": false,
      "inputs": [
        {
          "indexed": true,
          "internalType": "bytes32",
          "name": "id",
          "type": "bytes32"
        }
      ],
      "name": "ChainlinkCancelled",
      "type": "event"
    },
    {
      "anonymous": false,
      "inputs": [
        {
          "indexed": true,
          "internalType": "bytes32",
          "name": "id",
          "type": "bytes32"
        }
      ],
      "name": "ChainlinkFulfilled",
      "type": "event"
    },
    {
      "anonymous": false,
      "inputs": [
        {
          "indexed": true,
          "internalType": "bytes32",
          "name": "id",
          "type": "bytes32"
        }
      ],
      "name": "ChainlinkRequested",
      "type": "event"
    },
    {
      "anonymous": false,
      "inputs": [
        {
          "indexed": false,
          "internalType": "string",
          "name": "ipfsLink",
          "type": "string"
        }
      ],
      "name": "DataReceivedFromAPI",
      "type": "event"
    },
    {
      "anonymous": false,
      "inputs": [
        {
          "indexed": false,
          "internalType": "uint256",
          "name": "tokenId",
          "type": "uint256"
        }
      ],
      "name": "NewTurtleGenerated",
      "type": "event"
    },
    {
      "anonymous": false,
      "inputs": [
        {
          "indexed": true,
          "internalType": "address",
          "name": "from",
          "type": "address"
        },
        {
          "indexed": true,
          "internalType": "address",
          "name": "to",
          "type": "address"
        },
        {
          "indexed": true,
          "internalType": "uint256",
          "name": "tokenId",
          "type": "uint256"
        }
      ],
      "name": "Transfer",
      "type": "event"
    },
    {
      "anonymous": false,
      "inputs": [
        {
          "indexed": false,
          "internalType": "uint256",
          "name": "tokenId",
          "type": "uint256"
        }
      ],
      "name": "TurtleBought",
      "type": "event"
    },
    {
      "anonymous": false,
      "inputs": [
        {
          "indexed": false,
          "internalType": "uint256",
          "name": "tokenId",
          "type": "uint256"
        }
      ],
      "name": "TurtleUpForSale",
      "type": "event"
    },
    {
      "inputs": [
        {
          "internalType": "address",
          "name": "to",
          "type": "address"
        },
        {
          "internalType": "uint256",
          "name": "tokenId",
          "type": "uint256"
        }
      ],
      "name": "approve",
      "outputs": [],
      "stateMutability": "nonpayable",
      "type": "function"
    },
    {
      "inputs": [
        {
          "internalType": "address",
          "name": "owner",
          "type": "address"
        }
      ],
      "name": "balanceOf",
      "outputs": [
        {
          "internalType": "uint256",
          "name": "",
          "type": "uint256"
        }
      ],
      "stateMutability": "view",
      "type": "function",
      "constant": true
    },
    {
      "inputs": [],
      "name": "baseURI",
      "outputs": [
        {
          "internalType": "string",
          "name": "",
          "type": "string"
        }
      ],
      "stateMutability": "view",
      "type": "function",
      "constant": true
    },
    {
      "inputs": [],
      "name": "contractOwner",
      "outputs": [
        {
          "internalType": "address",
          "name": "",
          "type": "address"
        }
      ],
      "stateMutability": "view",
      "type": "function",
      "constant": true
    },
    {
      "inputs": [
        {
          "internalType": "uint256",
          "name": "tokenId",
          "type": "uint256"
        }
      ],
      "name": "getApproved",
      "outputs": [
        {
          "internalType": "address",
          "name": "",
          "type": "address"
        }
      ],
      "stateMutability": "view",
      "type": "function",
      "constant": true
    },
    {
      "inputs": [],
      "name": "ipfsLink",
      "outputs": [
        {
          "internalType": "string",
          "name": "",
          "type": "string"
        }
      ],
      "stateMutability": "view",
      "type": "function",
      "constant": true
    },
    {
      "inputs": [
        {
          "internalType": "address",
          "name": "owner",
          "type": "address"
        },
        {
          "internalType": "address",
          "name": "operator",
          "type": "address"
        }
      ],
      "name": "isApprovedForAll",
      "outputs": [
        {
          "internalType": "bool",
          "name": "",
          "type": "bool"
        }
      ],
      "stateMutability": "view",
      "type": "function",
      "constant": true
    },
    {
      "inputs": [],
      "name": "name",
      "outputs": [
        {
          "internalType": "string",
          "name": "",
          "type": "string"
        }
      ],
      "stateMutability": "view",
      "type": "function",
      "constant": true
    },
    {
      "inputs": [
        {
          "internalType": "uint256",
          "name": "tokenId",
          "type": "uint256"
        }
      ],
      "name": "ownerOf",
      "outputs": [
        {
          "internalType": "address",
          "name": "",
          "type": "address"
        }
      ],
      "stateMutability": "view",
      "type": "function",
      "constant": true
    },
    {
      "inputs": [
        {
          "internalType": "address",
          "name": "from",
          "type": "address"
        },
        {
          "internalType": "address",
          "name": "to",
          "type": "address"
        },
        {
          "internalType": "uint256",
          "name": "tokenId",
          "type": "uint256"
        }
      ],
      "name": "safeTransferFrom",
      "outputs": [],
      "stateMutability": "nonpayable",
      "type": "function"
    },
    {
      "inputs": [
        {
          "internalType": "address",
          "name": "from",
          "type": "address"
        },
        {
          "internalType": "address",
          "name": "to",
          "type": "address"
        },
        {
          "internalType": "uint256",
          "name": "tokenId",
          "type": "uint256"
        },
        {
          "internalType": "bytes",
          "name": "_data",
          "type": "bytes"
        }
      ],
      "name": "safeTransferFrom",
      "outputs": [],
      "stateMutability": "nonpayable",
      "type": "function"
    },
    {
      "inputs": [
        {
          "internalType": "address",
          "name": "operator",
          "type": "address"
        },
        {
          "internalType": "bool",
          "name": "approved",
          "type": "bool"
        }
      ],
      "name": "setApprovalForAll",
      "outputs": [],
      "stateMutability": "nonpayable",
      "type": "function"
    },
    {
      "inputs": [
        {
          "internalType": "bytes4",
          "name": "interfaceId",
          "type": "bytes4"
        }
      ],
      "name": "supportsInterface",
      "outputs": [
        {
          "internalType": "bool",
          "name": "",
          "type": "bool"
        }
      ],
      "stateMutability": "view",
      "type": "function",
      "constant": true
    },
    {
      "inputs": [],
      "name": "symbol",
      "outputs": [
        {
          "internalType": "string",
          "name": "",
          "type": "string"
        }
      ],
      "stateMutability": "view",
      "type": "function",
      "constant": true
    },
    {
      "inputs": [
        {
          "internalType": "uint256",
          "name": "index",
          "type": "uint256"
        }
      ],
      "name": "tokenByIndex",
      "outputs": [
        {
          "internalType": "uint256",
          "name": "",
          "type": "uint256"
        }
      ],
      "stateMutability": "view",
      "type": "function",
      "constant": true
    },
    {
      "inputs": [
        {
          "internalType": "address",
          "name": "owner",
          "type": "address"
        },
        {
          "internalType": "uint256",
          "name": "index",
          "type": "uint256"
        }
      ],
      "name": "tokenOfOwnerByIndex",
      "outputs": [
        {
          "internalType": "uint256",
          "name": "",
          "type": "uint256"
        }
      ],
      "stateMutability": "view",
      "type": "function",
      "constant": true
    },
    {
      "inputs": [
        {
          "internalType": "uint256",
          "name": "tokenId",
          "type": "uint256"
        }
      ],
      "name": "tokenURI",
      "outputs": [
        {
          "internalType": "string",
          "name": "",
          "type": "string"
        }
      ],
      "stateMutability": "view",
      "type": "function",
      "constant": true
    },
    {
      "inputs": [],
      "name": "totalSupply",
      "outputs": [
        {
          "internalType": "uint256",
          "name": "",
          "type": "uint256"
        }
      ],
      "stateMutability": "view",
      "type": "function",
      "constant": true
    },
    {
      "inputs": [
        {
          "internalType": "address",
          "name": "from",
          "type": "address"
        },
        {
          "internalType": "address",
          "name": "to",
          "type": "address"
        },
        {
          "internalType": "uint256",
          "name": "tokenId",
          "type": "uint256"
        }
      ],
      "name": "transferFrom",
      "outputs": [],
      "stateMutability": "nonpayable",
      "type": "function"
    },
    {
      "inputs": [
        {
          "internalType": "uint256",
          "name": "",
          "type": "uint256"
        }
      ],
      "name": "turtlesForSale",
      "outputs": [
        {
          "internalType": "uint256",
          "name": "",
          "type": "uint256"
        }
      ],
      "stateMutability": "view",
      "type": "function",
      "constant": true
    },
    {
      "inputs": [
        {
          "internalType": "address",
          "name": "_oracleAddress",
          "type": "address"
        }
      ],
      "name": "setOracleAddress",
      "outputs": [],
      "stateMutability": "nonpayable",
      "type": "function"
    },
    {
      "inputs": [
        {
          "internalType": "bytes32",
          "name": "_jobID",
          "type": "bytes32"
        }
      ],
      "name": "setJobID",
      "outputs": [],
      "stateMutability": "nonpayable",
      "type": "function"
    },
    {
      "inputs": [
        {
          "internalType": "uint256",
          "name": "_fee",
          "type": "uint256"
        }
      ],
      "name": "setFeeInLink",
      "outputs": [],
      "stateMutability": "nonpayable",
      "type": "function"
    },
    {
      "inputs": [
        {
          "internalType": "string",
          "name": "_url",
          "type": "string"
        }
      ],
      "name": "setApiBaseUrl",
      "outputs": [],
      "stateMutability": "nonpayable",
      "type": "function"
    },
    {
      "inputs": [
        {
          "internalType": "string",
          "name": "_url",
          "type": "string"
        }
      ],
      "name": "setApiSecondUrl",
      "outputs": [],
      "stateMutability": "nonpayable",
      "type": "function"
    },
    {
      "inputs": [
        {
          "internalType": "uint256",
          "name": "_tokenId",
          "type": "uint256"
        }
      ],
      "name": "buyTurtle",
      "outputs": [],
      "stateMutability": "payable",
      "type": "function",
      "payable": true
    },
    {
      "inputs": [
        {
          "internalType": "uint256",
          "name": "_tokenId",
          "type": "uint256"
        },
        {
          "internalType": "uint256",
          "name": "_price",
          "type": "uint256"
        }
      ],
      "name": "putUpTurtleForSale",
      "outputs": [],
      "stateMutability": "nonpayable",
      "type": "function"
    },
    {
      "inputs": [],
      "name": "requestNewRandomTurtle",
      "outputs": [],
      "stateMutability": "nonpayable",
      "type": "function"
    },
    {
      "inputs": [
        {
          "internalType": "bytes32",
          "name": "_requestId",
          "type": "bytes32"
        },
        {
          "internalType": "bytes32",
          "name": "dataFromAPI",
          "type": "bytes32"
        }
      ],
      "name": "fulfill",
      "outputs": [
        {
          "internalType": "bytes32",
          "name": "requestId",
          "type": "bytes32"
        }
      ],
      "stateMutability": "nonpayable",
      "type": "function"
    },
    {
      "inputs": [
        {
          "internalType": "bytes32",
          "name": "_requestId",
          "type": "bytes32"
        },
        {
          "internalType": "bytes32",
          "name": "dataFromAPI",
          "type": "bytes32"
        }
      ],
      "name": "fulfillSecondRequest",
      "outputs": [],
      "stateMutability": "nonpayable",
      "type": "function"
    },
    {
      "inputs": [],
      "name": "withdrawLink",
      "outputs": [],
      "stateMutability": "nonpayable",
      "type": "function"
    }
  ],
  "bytecode": "0x60806040526001600e556040518060400160405280601581526020017f68747470733a2f2f697066732e696f2f697066732f0000000000000000000000815250601390805190602001906200005692919062000419565b5060006017553480156200006957600080fd5b506040518060400160405280600f81526020017f547572746c6543686172616374657200000000000000000000000000000000008152506040518060400160405280600481526020017f5452544c00000000000000000000000000000000000000000000000000000000815250620000ee6301ffc9a760e01b620002cc60201b60201c565b81600690805190602001906200010692919062000419565b5080600790805190602001906200011f92919062000419565b50620001386380ac58cd60e01b620002cc60201b60201c565b62000150635b5e139f60e01b620002cc60201b60201c565b6200016863780e9d6360e01b620002cc60201b60201c565b50506200018f73326c977e6efc84e512bb9c30f76e30c160ed06fb620003d560201b60201c565b600060178190555033601060006101000a81548173ffffffffffffffffffffffffffffffffffffffff021916908373ffffffffffffffffffffffffffffffffffffffff1602179055506040518060600160405280602381526020016200552060239139601890805190602001906200020992919062000419565b506040518060600160405280602a815260200162005543602a9139601990805190602001906200023b92919062000419565b5073c8d925525ca8759812d0c299b90247917d4d4b7c601460006101000a81548173ffffffffffffffffffffffffffffffffffffffff021916908373ffffffffffffffffffffffffffffffffffffffff1602179055507f6137333330643062346239363463303561626336366132363330373034376330601581905550662386f26fc10000601681905550620004c8565b63ffffffff60e01b817bffffffffffffffffffffffffffffffffffffffffffffffffffffffff1916141562000369576040517f08c379a000000000000000000000000000000000000000000000000000000000815260040180806020018281038252601c8152602001807f4552433136353a20696e76616c696420696e746572666163652069640000000081525060200191505060405180910390fd5b6001600080837bffffffffffffffffffffffffffffffffffffffffffffffffffffffff19167bffffffffffffffffffffffffffffffffffffffffffffffffffffffff1916815260200190815260200160002060006101000a81548160ff02191690831515021790555050565b80600c60006101000a81548173ffffffffffffffffffffffffffffffffffffffff021916908373ffffffffffffffffffffffffffffffffffffffff16021790555050565b828054600181600116156101000203166002900490600052602060002090601f016020900481019282601f106200045c57805160ff19168380011785556200048d565b828001600101855582156200048d579182015b828111156200048c5782518255916020019190600101906200046f565b5b5090506200049c9190620004a0565b5090565b620004c591905b80821115620004c1576000816000905550600101620004a7565b5090565b90565b61504880620004d86000396000f3fe6080604052600436106101d85760003560e01c80636352211e11610102578063a5ac5f1c11610095578063ce606ee011610064578063ce606ee014610dc3578063e985e9c514610e1a578063f2044fe914610ea3578063faa0b6b714610ed1576101d8565b8063a5ac5f1c14610b73578063a748efb214610bae578063b88d4fde14610bfd578063c87b56dd14610d0f576101d8565b8063877f282b116100d1578063877f282b146109a75780638dc654a214610a6f57806395d89b4114610a86578063a22cb46514610b16576101d8565b80636352211e146108205780636a94964c1461089b5780636c0360eb146108b257806370a0823114610942576101d8565b806323b872dd1161017a578063328c9f0211610149578063328c9f021461063d57806342842e0e146107055780634c69c00f146107805780634f6ccce7146107d1576101d8565b806323b872dd1461047e5780632b22aaea146104f95780632b9d8c9a1461053e5780632f745c59146105ce576101d8565b8063081812fc116101b6578063081812fc14610338578063095ea7b3146103b357806318160ddd1461040e578063184d9bb914610439576101d8565b806301ffc9a7146101dd578063042f2b651461024f57806306fdde03146102a8575b600080fd5b3480156101e957600080fd5b506102356004803603602081101561020057600080fd5b8101908080357bffffffffffffffffffffffffffffffffffffffffffffffffffffffff19169060200190929190505050610f0c565b604051808215151515815260200191505060405180910390f35b34801561025b57600080fd5b506102926004803603604081101561027257600080fd5b810190808035906020019092919080359060200190929190505050610f73565b6040518082815260200191505060405180910390f35b3480156102b457600080fd5b506102bd611251565b6040518080602001828103825283818151815260200191508051906020019080838360005b838110156102fd5780820151818401526020810190506102e2565b50505050905090810190601f16801561032a5780820380516001836020036101000a031916815260200191505b509250505060405180910390f35b34801561034457600080fd5b506103716004803603602081101561035b57600080fd5b81019080803590602001909291905050506112f3565b604051808273ffffffffffffffffffffffffffffffffffffffff1673ffffffffffffffffffffffffffffffffffffffff16815260200191505060405180910390f35b3480156103bf57600080fd5b5061040c600480360360408110156103d657600080fd5b81019080803573ffffffffffffffffffffffffffffffffffffffff1690602001909291908035906020019092919050505061138e565b005b34801561041a57600080fd5b506104236114d2565b6040518082815260200191505060405180910390f35b34801561044557600080fd5b5061047c6004803603604081101561045c57600080fd5b8101908080359060200190929190803590602001909291905050506114e3565b005b34801561048a57600080fd5b506104f7600480360360608110156104a157600080fd5b81019080803573ffffffffffffffffffffffffffffffffffffffff169060200190929190803573ffffffffffffffffffffffffffffffffffffffff1690602001909291908035906020019092919050505061159c565b005b34801561050557600080fd5b5061053c6004803603604081101561051c57600080fd5b810190808035906020019092919080359060200190929190505050611612565b005b34801561054a57600080fd5b506105536118da565b6040518080602001828103825283818151815260200191508051906020019080838360005b83811015610593578082015181840152602081019050610578565b50505050905090810190601f1680156105c05780820380516001836020036101000a031916815260200191505b509250505060405180910390f35b3480156105da57600080fd5b50610627600480360360408110156105f157600080fd5b81019080803573ffffffffffffffffffffffffffffffffffffffff16906020019092919080359060200190929190505050611978565b6040518082815260200191505060405180910390f35b34801561064957600080fd5b506107036004803603602081101561066057600080fd5b810190808035906020019064010000000081111561067d57600080fd5b82018360208201111561068f57600080fd5b803590602001918460018302840111640100000000831117156106b157600080fd5b91908080601f016020809104026020016040519081016040528093929190818152602001838380828437600081840152601f19601f8201169050808301925050505050505091929192905050506119d3565b005b34801561071157600080fd5b5061077e6004803603606081101561072857600080fd5b81019080803573ffffffffffffffffffffffffffffffffffffffff169060200190929190803573ffffffffffffffffffffffffffffffffffffffff16906020019092919080359060200190929190505050611a47565b005b34801561078c57600080fd5b506107cf600480360360208110156107a357600080fd5b81019080803573ffffffffffffffffffffffffffffffffffffffff169060200190929190505050611a67565b005b3480156107dd57600080fd5b5061080a600480360360208110156107f457600080fd5b8101908080359060200190929190505050611b05565b6040518082815260200191505060405180910390f35b34801561082c57600080fd5b506108596004803603602081101561084357600080fd5b8101908080359060200190929190505050611b28565b604051808273ffffffffffffffffffffffffffffffffffffffff1673ffffffffffffffffffffffffffffffffffffffff16815260200191505060405180910390f35b3480156108a757600080fd5b506108b0611b5f565b005b3480156108be57600080fd5b506108c7611bc2565b6040518080602001828103825283818151815260200191508051906020019080838360005b838110156109075780820151818401526020810190506108ec565b50505050905090810190601f1680156109345780820380516001836020036101000a031916815260200191505b509250505060405180910390f35b34801561094e57600080fd5b506109916004803603602081101561096557600080fd5b81019080803573ffffffffffffffffffffffffffffffffffffffff169060200190929190505050611c64565b6040518082815260200191505060405180910390f35b3480156109b357600080fd5b50610a6d600480360360208110156109ca57600080fd5b81019080803590602001906401000000008111156109e757600080fd5b8201836020820111156109f957600080fd5b80359060200191846001830284011164010000000083111715610a1b57600080fd5b91908080601f016020809104026020016040519081016040528093929190818152602001838380828437600081840152601f19601f820116905080830192505050505050509192919290505050611d39565b005b348015610a7b57600080fd5b50610a84611dad565b005b348015610a9257600080fd5b50610a9b612001565b6040518080602001828103825283818151815260200191508051906020019080838360005b83811015610adb578082015181840152602081019050610ac0565b50505050905090810190601f168015610b085780820380516001836020036101000a031916815260200191505b509250505060405180910390f35b348015610b2257600080fd5b50610b7160048036036040811015610b3957600080fd5b81019080803573ffffffffffffffffffffffffffffffffffffffff1690602001909291908035151590602001909291905050506120a3565b005b348015610b7f57600080fd5b50610bac60048036036020811015610b9657600080fd5b810190808035906020019092919050505061225b565b005b348015610bba57600080fd5b50610be760048036036020811015610bd157600080fd5b81019080803590602001909291905050506122c9565b6040518082815260200191505060405180910390f35b348015610c0957600080fd5b50610d0d60048036036080811015610c2057600080fd5b81019080803573ffffffffffffffffffffffffffffffffffffffff169060200190929190803573ffffffffffffffffffffffffffffffffffffffff1690602001909291908035906020019092919080359060200190640100000000811115610c8757600080fd5b820183602082011115610c9957600080fd5b80359060200191846001830284011164010000000083111715610cbb57600080fd5b91908080601f016020809104026020016040519081016040528093929190818152602001838380828437600081840152601f19601f8201169050808301925050505050505091929192905050506122e1565b005b348015610d1b57600080fd5b50610d4860048036036020811015610d3257600080fd5b8101908080359060200190929190505050612359565b6040518080602001828103825283818151815260200191508051906020019080838360005b83811015610d88578082015181840152602081019050610d6d565b50505050905090810190601f168015610db55780820380516001836020036101000a031916815260200191505b509250505060405180910390f35b348015610dcf57600080fd5b50610dd861262a565b604051808273ffffffffffffffffffffffffffffffffffffffff1673ffffffffffffffffffffffffffffffffffffffff16815260200191505060405180910390f35b348015610e2657600080fd5b50610e8960048036036040811015610e3d57600080fd5b81019080803573ffffffffffffffffffffffffffffffffffffffff169060200190929190803573ffffffffffffffffffffffffffffffffffffffff169060200190929190505050612650565b604051808215151515815260200191505060405180910390f35b610ecf60048036036020811015610eb957600080fd5b81019080803590602001909291905050506126e4565b005b348015610edd57600080fd5b50610f0a60048036036020811015610ef457600080fd5b810190808035906020019092919050505061293c565b005b6000806000837bffffffffffffffffffffffffffffffffffffffffffffffffffffffff19167bffffffffffffffffffffffffffffffffffffffffffffffffffffffff1916815260200190815260200160002060009054906101000a900460ff169050919050565b600082600f600082815260200190815260200160002060009054906101000a900473ffffffffffffffffffffffffffffffffffffffff1673ffffffffffffffffffffffffffffffffffffffff163373ffffffffffffffffffffffffffffffffffffffff161461102d576040517f08c379a0000000000000000000000000000000000000000000000000000000008152600401808060200182810382526028815260200180614feb6028913960400191505060405180910390fd5b600f600082815260200190815260200160002060006101000a81549073ffffffffffffffffffffffffffffffffffffffff0219169055807f7cc135e0cebb02c3480ae5d74d377283180a2601f8f644edf7987b009316c63a60405160405180910390a28260118190555061109f614bfa565b6110b360155430632b22aaea60e01b6129a0565b90506111996040518060400160405280600381526020017f676574000000000000000000000000000000000000000000000000000000000081525060198054600181600116156101000203166002900480601f0160208091040260200160405190810160405280929190818152602001828054600181600116156101000203166002900480156111845780601f1061115957610100808354040283529160200191611184565b820191906000526020600020905b81548152906001019060200180831161116757829003601f168201915b5050505050836129d19092919063ffffffff16565b6112186040518060400160405280600481526020017f70617468000000000000000000000000000000000000000000000000000000008152506040518060400160405280600981526020017f495046535f504154480000000000000000000000000000000000000000000000815250836129d19092919063ffffffff16565b611247601460009054906101000a900473ffffffffffffffffffffffffffffffffffffffff1682601654612a04565b9250505092915050565b606060068054600181600116156101000203166002900480601f0160208091040260200160405190810160405280929190818152602001828054600181600116156101000203166002900480156112e95780601f106112be576101008083540402835291602001916112e9565b820191906000526020600020905b8154815290600101906020018083116112cc57829003601f168201915b5050505050905090565b60006112fe82612cbc565b611353576040517f08c379a000000000000000000000000000000000000000000000000000000000815260040180806020018281038252602c815260200180614ee9602c913960400191505060405180910390fd5b6004600083815260200190815260200160002060009054906101000a900473ffffffffffffffffffffffffffffffffffffffff169050919050565b600061139982611b28565b90508073ffffffffffffffffffffffffffffffffffffffff168373ffffffffffffffffffffffffffffffffffffffff161415611420576040517f08c379a0000000000000000000000000000000000000000000000000000000008152600401808060200182810382526021815260200180614f996021913960400191505060405180910390fd5b8073ffffffffffffffffffffffffffffffffffffffff1661143f612cd9565b73ffffffffffffffffffffffffffffffffffffffff16148061146e575061146d81611468612cd9565b612650565b5b6114c3576040517f08c379a0000000000000000000000000000000000000000000000000000000008152600401808060200182810382526038815260200180614e3c6038913960400191505060405180910390fd5b6114cd8383612ce1565b505050565b60006114de6002612d9a565b905090565b6114f46114ee612cd9565b83612daf565b611549576040517f08c379a0000000000000000000000000000000000000000000000000000000008152600401808060200182810382526028815260200180614d496028913960400191505060405180910390fd5b80601a6000848152602001908152602001600020819055507f5cfd7981b7826a1543139612aae7cac778558e6d89d166a9d4b69423535fe087826040518082815260200191505060405180910390a15050565b6115ad6115a7612cd9565b82612daf565b611602576040517f08c379a0000000000000000000000000000000000000000000000000000000008152600401808060200182810382526031815260200180614fba6031913960400191505060405180910390fd5b61160d838383612ea3565b505050565b81600f600082815260200190815260200160002060009054906101000a900473ffffffffffffffffffffffffffffffffffffffff1673ffffffffffffffffffffffffffffffffffffffff163373ffffffffffffffffffffffffffffffffffffffff16146116ca576040517f08c379a0000000000000000000000000000000000000000000000000000000008152600401808060200182810382526028815260200180614feb6028913960400191505060405180910390fd5b600f600082815260200190815260200160002060006101000a81549073ffffffffffffffffffffffffffffffffffffffff0219169055807f7cc135e0cebb02c3480ae5d74d377283180a2601f8f644edf7987b009316c63a60405160405180910390a28160128190555061173c6130e6565b7f1a1317a9b735d6402ccd1a577bb88ad490d3c2301e44fa83a56561c708287bdb601360405180806020018281038252838181546001816001161561010002031660029004815260200191508054600181600116156101000203166002900480156117e85780601f106117bd576101008083540402835291602001916117e8565b820191906000526020600020905b8154815290600101906020018083116117cb57829003601f168201915b50509250505060405180910390a161189960138054600181600116156101000203166002900480601f01602080910402602001604051908101604052809291908181526020018280546001816001161561010002031660029004801561188f5780601f106118645761010080835404028352916020019161188f565b820191906000526020600020905b81548152906001019060200180831161187257829003601f168201915b50505050506131c3565b7f375888a712a23aa4f960c32984e16baf008be32cc52f7b9c12212feee89eb6086001601754036040518082815260200191505060405180910390a1505050565b60138054600181600116156101000203166002900480601f0160208091040260200160405190810160405280929190818152602001828054600181600116156101000203166002900480156119705780601f1061194557610100808354040283529160200191611970565b820191906000526020600020905b81548152906001019060200180831161195357829003601f168201915b505050505081565b60006119cb82600160008673ffffffffffffffffffffffffffffffffffffffff1673ffffffffffffffffffffffffffffffffffffffff1681526020019081526020016000206131e490919063ffffffff16565b905092915050565b601060009054906101000a900473ffffffffffffffffffffffffffffffffffffffff1673ffffffffffffffffffffffffffffffffffffffff163373ffffffffffffffffffffffffffffffffffffffff1614611a2d57600080fd5b8060199080519060200190611a43929190614c67565b5050565b611a62838383604051806020016040528060008152506122e1565b505050565b601060009054906101000a900473ffffffffffffffffffffffffffffffffffffffff1673ffffffffffffffffffffffffffffffffffffffff163373ffffffffffffffffffffffffffffffffffffffff1614611ac157600080fd5b80601460006101000a81548173ffffffffffffffffffffffffffffffffffffffff021916908373ffffffffffffffffffffffffffffffffffffffff16021790555050565b600080611b1c8360026131fe90919063ffffffff16565b50905080915050919050565b6000611b5882604051806060016040528060298152602001614e9e60299139600261322d9092919063ffffffff16565b9050919050565b6040518060400160405280601581526020017f68747470733a2f2f697066732e696f2f697066732f000000000000000000000081525060139080519060200190611baa929190614c67565b50611bb73360175461324c565b611bbf61326a565b50565b606060098054600181600116156101000203166002900480601f016020809104026020016040519081016040528092919081815260200182805460018160011615610100020316600290048015611c5a5780601f10611c2f57610100808354040283529160200191611c5a565b820191906000526020600020905b815481529060010190602001808311611c3d57829003601f168201915b5050505050905090565b60008073ffffffffffffffffffffffffffffffffffffffff168273ffffffffffffffffffffffffffffffffffffffff161415611ceb576040517f08c379a000000000000000000000000000000000000000000000000000000000815260040180806020018281038252602a815260200180614e74602a913960400191505060405180910390fd5b611d32600160008473ffffffffffffffffffffffffffffffffffffffff1673ffffffffffffffffffffffffffffffffffffffff168152602001908152602001600020613422565b9050919050565b601060009054906101000a900473ffffffffffffffffffffffffffffffffffffffff1673ffffffffffffffffffffffffffffffffffffffff163373ffffffffffffffffffffffffffffffffffffffff1614611d9357600080fd5b8060189080519060200190611da9929190614c67565b5050565b601060009054906101000a900473ffffffffffffffffffffffffffffffffffffffff1673ffffffffffffffffffffffffffffffffffffffff163373ffffffffffffffffffffffffffffffffffffffff1614611e0757600080fd5b6000611e11613437565b90508073ffffffffffffffffffffffffffffffffffffffff1663a9059cbb338373ffffffffffffffffffffffffffffffffffffffff166370a08231306040518263ffffffff1660e01b8152600401808273ffffffffffffffffffffffffffffffffffffffff1673ffffffffffffffffffffffffffffffffffffffff16815260200191505060206040518083038186803b158015611ead57600080fd5b505afa158015611ec1573d6000803e3d6000fd5b505050506040513d6020811015611ed757600080fd5b81019080805190602001909291905050506040518363ffffffff1660e01b8152600401808373ffffffffffffffffffffffffffffffffffffffff1673ffffffffffffffffffffffffffffffffffffffff16815260200182815260200192505050602060405180830381600087803b158015611f5157600080fd5b505af1158015611f65573d6000803e3d6000fd5b505050506040513d6020811015611f7b57600080fd5b8101908080519060200190929190505050611ffe576040517f08c379a00000000000000000000000000000000000000000000000000000000081526004018080602001828103825260178152602001807f556e61626c6520746f207472616e73666572204c494e4b00000000000000000081525060200191505060405180910390fd5b50565b606060078054600181600116156101000203166002900480601f0160208091040260200160405190810160405280929190818152602001828054600181600116156101000203166002900480156120995780601f1061206e57610100808354040283529160200191612099565b820191906000526020600020905b81548152906001019060200180831161207c57829003601f168201915b5050505050905090565b6120ab612cd9565b73ffffffffffffffffffffffffffffffffffffffff168273ffffffffffffffffffffffffffffffffffffffff16141561214c576040517f08c379a00000000000000000000000000000000000000000000000000000000081526004018080602001828103825260198152602001807f4552433732313a20617070726f766520746f2063616c6c65720000000000000081525060200191505060405180910390fd5b8060056000612159612cd9565b73ffffffffffffffffffffffffffffffffffffffff1673ffffffffffffffffffffffffffffffffffffffff16815260200190815260200160002060008473ffffffffffffffffffffffffffffffffffffffff1673ffffffffffffffffffffffffffffffffffffffff16815260200190815260200160002060006101000a81548160ff0219169083151502179055508173ffffffffffffffffffffffffffffffffffffffff16612206612cd9565b73ffffffffffffffffffffffffffffffffffffffff167f17307eab39ab6107e8899845ad3d59bd9653f200f220920489ca2b5937696c3183604051808215151515815260200191505060405180910390a35050565b601060009054906101000a900473ffffffffffffffffffffffffffffffffffffffff1673ffffffffffffffffffffffffffffffffffffffff163373ffffffffffffffffffffffffffffffffffffffff16146122b557600080fd5b670de0b6b3a7640000810260168190555050565b601a6020528060005260406000206000915090505481565b6122f26122ec612cd9565b83612daf565b612347576040517f08c379a0000000000000000000000000000000000000000000000000000000008152600401808060200182810382526031815260200180614fba6031913960400191505060405180910390fd5b61235384848484613461565b50505050565b606061236482612cbc565b6123b9576040517f08c379a000000000000000000000000000000000000000000000000000000000815260040180806020018281038252602f815260200180614f6a602f913960400191505060405180910390fd5b6060600860008481526020019081526020016000208054600181600116156101000203166002900480601f0160208091040260200160405190810160405280929190818152602001828054600181600116156101000203166002900480156124625780601f1061243757610100808354040283529160200191612462565b820191906000526020600020905b81548152906001019060200180831161244557829003601f168201915b505050505090506060612473611bc2565b9050600081511415612489578192505050612625565b60008251111561255a5780826040516020018083805190602001908083835b602083106124cb57805182526020820191506020810190506020830392506124a8565b6001836020036101000a03801982511681845116808217855250505050505090500182805190602001908083835b6020831061251c57805182526020820191506020810190506020830392506124f9565b6001836020036101000a0380198251168184511680821785525050505050509050019250505060405160208183030381529060405292505050612625565b80612564856134d3565b6040516020018083805190602001908083835b6020831061259a5780518252602082019150602081019050602083039250612577565b6001836020036101000a03801982511681845116808217855250505050505090500182805190602001908083835b602083106125eb57805182526020820191506020810190506020830392506125c8565b6001836020036101000a03801982511681845116808217855250505050505090500192505050604051602081830303815290604052925050505b919050565b601060009054906101000a900473ffffffffffffffffffffffffffffffffffffffff1681565b6000600560008473ffffffffffffffffffffffffffffffffffffffff1673ffffffffffffffffffffffffffffffffffffffff16815260200190815260200160002060008373ffffffffffffffffffffffffffffffffffffffff1673ffffffffffffffffffffffffffffffffffffffff16815260200190815260200160002060009054906101000a900460ff16905092915050565b6000601a6000838152602001908152602001600020541161276d576040517f08c379a00000000000000000000000000000000000000000000000000000000081526004018080602001828103825260208152602001807f54686520547572746c652073686f756c6420626520757020666f722073616c6581525060200191505060405180910390fd5b6000601a60008381526020019081526020016000205490506000601a60008481526020019081526020016000208190555060006127a983611b28565b9050813411612820576040517f08c379a000000000000000000000000000000000000000000000000000000000815260040180806020018281038252601d8152602001807f596f75206e65656420746f206861766520656e6f75676820457468657200000081525060200191505060405180910390fd5b6128618133856040518060400160405280600c81526020017f427579206120547572746c650000000000000000000000000000000000000000815250613461565b60008190508073ffffffffffffffffffffffffffffffffffffffff166108fc849081150290604051600060405180830381858888f193505050501580156128ac573d6000803e3d6000fd5b50823411156128ff573373ffffffffffffffffffffffffffffffffffffffff166108fc8434039081150290604051600060405180830381858888f193505050501580156128fd573d6000803e3d6000fd5b505b7f8c78864e67a7dfb4ed185a3b2dad4a13fd8a7f807e84ecf1687eab5cb297676e846040518082815260200191505060405180910390a150505050565b601060009054906101000a900473ffffffffffffffffffffffffffffffffffffffff1673ffffffffffffffffffffffffffffffffffffffff163373ffffffffffffffffffffffffffffffffffffffff161461299657600080fd5b8060158190555050565b6129a8614bfa565b6129b0614bfa565b6129c78585858461361a909392919063ffffffff16565b9150509392505050565b6129e88284608001516136ca90919063ffffffff16565b6129ff8184608001516136ca90919063ffffffff16565b505050565b600030600e54604051602001808373ffffffffffffffffffffffffffffffffffffffff1673ffffffffffffffffffffffffffffffffffffffff1660601b815260140182815260200192505050604051602081830303815290604052805190602001209050600e5483606001818152505083600f600083815260200190815260200160002060006101000a81548173ffffffffffffffffffffffffffffffffffffffff021916908373ffffffffffffffffffffffffffffffffffffffff160217905550807fb5e6e01e79f91267dc17b4e6314d5d4d03593d2ceee0fbb452b750bd70ea5af960405160405180910390a2600c60009054906101000a900473ffffffffffffffffffffffffffffffffffffffff1673ffffffffffffffffffffffffffffffffffffffff16634000aea08584612b3c876136ef565b6040518463ffffffff1660e01b8152600401808473ffffffffffffffffffffffffffffffffffffffff1673ffffffffffffffffffffffffffffffffffffffff16815260200183815260200180602001828103825283818151815260200191508051906020019080838360005b83811015612bc3578082015181840152602081019050612ba8565b50505050905090810190601f168015612bf05780820380516001836020036101000a031916815260200191505b50945050505050602060405180830381600087803b158015612c1157600080fd5b505af1158015612c25573d6000803e3d6000fd5b505050506040513d6020811015612c3b57600080fd5b8101908080519060200190929190505050612ca1576040517f08c379a0000000000000000000000000000000000000000000000000000000008152600401808060200182810382526023815260200180614da36023913960400191505060405180910390fd5b6001600e600082825401925050819055508090509392505050565b6000612cd28260026138bb90919063ffffffff16565b9050919050565b600033905090565b816004600083815260200190815260200160002060006101000a81548173ffffffffffffffffffffffffffffffffffffffff021916908373ffffffffffffffffffffffffffffffffffffffff160217905550808273ffffffffffffffffffffffffffffffffffffffff16612d5483611b28565b73ffffffffffffffffffffffffffffffffffffffff167f8c5be1e5ebec7d5bd14f71427d1e84f3dd0314c0f7b2291e5b200ac8c7c3b92560405160405180910390a45050565b6000612da8826000016138d5565b9050919050565b6000612dba82612cbc565b612e0f576040517f08c379a000000000000000000000000000000000000000000000000000000000815260040180806020018281038252602c815260200180614e10602c913960400191505060405180910390fd5b6000612e1a83611b28565b90508073ffffffffffffffffffffffffffffffffffffffff168473ffffffffffffffffffffffffffffffffffffffff161480612e8957508373ffffffffffffffffffffffffffffffffffffffff16612e71846112f3565b73ffffffffffffffffffffffffffffffffffffffff16145b80612e9a5750612e998185612650565b5b91505092915050565b8273ffffffffffffffffffffffffffffffffffffffff16612ec382611b28565b73ffffffffffffffffffffffffffffffffffffffff1614612f2f576040517f08c379a0000000000000000000000000000000000000000000000000000000008152600401808060200182810382526029815260200180614f416029913960400191505060405180910390fd5b600073ffffffffffffffffffffffffffffffffffffffff168273ffffffffffffffffffffffffffffffffffffffff161415612fb5576040517f08c379a0000000000000000000000000000000000000000000000000000000008152600401808060200182810382526024815260200180614dc66024913960400191505060405180910390fd5b612fc08383836138e6565b612fcb600082612ce1565b61301c81600160008673ffffffffffffffffffffffffffffffffffffffff1673ffffffffffffffffffffffffffffffffffffffff1681526020019081526020016000206138eb90919063ffffffff16565b5061306e81600160008573ffffffffffffffffffffffffffffffffffffffff1673ffffffffffffffffffffffffffffffffffffffff16815260200190815260200160002061390590919063ffffffff16565b506130858183600261391f9092919063ffffffff16565b50808273ffffffffffffffffffffffffffffffffffffffff168473ffffffffffffffffffffffffffffffffffffffff167fddf252ad1be2c89b69c2b068fc378daa952ba7f163c4a11628f55a4df523b3ef60405160405180910390a4505050565b60606130f3601154613954565b90506060613102601254613954565b90506131a960138054600181600116156101000203166002900480601f01602080910402602001604051908101604052809291908181526020018280546001816001161561010002031660029004801561319d5780601f106131725761010080835404028352916020019161319d565b820191906000526020600020905b81548152906001019060200180831161318057829003601f168201915b50505050508383613ac8565b601390805190602001906131be929190614c67565b505050565b6131cf60175482613be4565b60176000815480929190600101919050555050565b60006131f38360000183613c6e565b60001c905092915050565b6000806000806132118660000186613cf1565b915091508160001c8160001c8090509350935050509250929050565b6000613240846000018460001b84613d8a565b60001c90509392505050565b613266828260405180602001604052806000815250613e80565b5050565b6000613274614bfa565b6132886015543063042f2b6560e01b6129a0565b905061336e6040518060400160405280600381526020017f676574000000000000000000000000000000000000000000000000000000000081525060188054600181600116156101000203166002900480601f0160208091040260200160405190810160405280929190818152602001828054600181600116156101000203166002900480156133595780601f1061332e57610100808354040283529160200191613359565b820191906000526020600020905b81548152906001019060200180831161333c57829003601f168201915b5050505050836129d19092919063ffffffff16565b6133ed6040518060400160405280600481526020017f70617468000000000000000000000000000000000000000000000000000000008152506040518060400160405280600981526020017f495046535f504154480000000000000000000000000000000000000000000000815250836129d19092919063ffffffff16565b61341c601460009054906101000a900473ffffffffffffffffffffffffffffffffffffffff1682601654612a04565b91505090565b600061343082600001613ef1565b9050919050565b6000600c60009054906101000a900473ffffffffffffffffffffffffffffffffffffffff16905090565b61346c848484612ea3565b61347884848484613f02565b6134cd576040517f08c379a0000000000000000000000000000000000000000000000000000000008152600401808060200182810382526032815260200180614d716032913960400191505060405180910390fd5b50505050565b6060600082141561351b576040518060400160405280600181526020017f30000000000000000000000000000000000000000000000000000000000000008152509050613615565b600082905060005b60008214613545578080600101915050600a828161353d57fe5b049150613523565b60608167ffffffffffffffff8111801561355e57600080fd5b506040519080825280601f01601f1916602001820160405280156135915781602001600182028036833780820191505090505b50905060006001830390508593505b6000841461360d57600a84816135b257fe5b0660300160f81b828280600190039350815181106135cc57fe5b60200101907effffffffffffffffffffffffffffffffffffffffffffffffffffffffffffff1916908160001a905350600a848161360557fe5b0493506135a0565b819450505050505b919050565b613622614bfa565b6136328560800151610100614147565b508385600001818152505082856020019073ffffffffffffffffffffffffffffffffffffffff16908173ffffffffffffffffffffffffffffffffffffffff16815250508185604001907bffffffffffffffffffffffffffffffffffffffffffffffffffffffff191690817bffffffffffffffffffffffffffffffffffffffffffffffffffffffff191681525050849050949350505050565b6136d7826003835161419b565b6136ea81836142e090919063ffffffff16565b505050565b6060634042994660e01b60008084600001518560200151866040015187606001516001896080015160000151604051602401808973ffffffffffffffffffffffffffffffffffffffff1673ffffffffffffffffffffffffffffffffffffffff1681526020018881526020018781526020018673ffffffffffffffffffffffffffffffffffffffff1673ffffffffffffffffffffffffffffffffffffffff168152602001857bffffffffffffffffffffffffffffffffffffffffffffffffffffffff19167bffffffffffffffffffffffffffffffffffffffffffffffffffffffff1916815260200184815260200183815260200180602001828103825283818151815260200191508051906020019080838360005b8381101561381e578082015181840152602081019050613803565b50505050905090810190601f16801561384b5780820380516001836020036101000a031916815260200191505b509950505050505050505050604051602081830303815290604052907bffffffffffffffffffffffffffffffffffffffffffffffffffffffff19166020820180517bffffffffffffffffffffffffffffffffffffffffffffffffffffffff83818316178352505050509050919050565b60006138cd836000018360001b614302565b905092915050565b600081600001805490509050919050565b505050565b60006138fd836000018360001b614325565b905092915050565b6000613917836000018360001b61440d565b905092915050565b600061394b846000018460001b8473ffffffffffffffffffffffffffffffffffffffff1660001b61447d565b90509392505050565b606060008090505b60208160ff161080156139a75750600060f81b838260ff166020811061397e57fe5b1a60f81b7effffffffffffffffffffffffffffffffffffffffffffffffffffffffffffff191614155b156139b957808060010191505061395c565b60608160ff1667ffffffffffffffff811180156139d557600080fd5b506040519080825280601f01601f191660200182016040528015613a085781602001600182028036833780820191505090505b509050600091505b60208260ff16108015613a5b5750600060f81b848360ff1660208110613a3257fe5b1a60f81b7effffffffffffffffffffffffffffffffffffffffffffffffffffffffffffff191614155b15613abe57838260ff1660208110613a6f57fe5b1a60f81b818360ff1681518110613a8257fe5b60200101907effffffffffffffffffffffffffffffffffffffffffffffffffffffffffffff1916908160001a9053508180600101925050613a10565b8092505050919050565b60608383836040516020018084805190602001908083835b60208310613b035780518252602082019150602081019050602083039250613ae0565b6001836020036101000a03801982511681845116808217855250505050505090500183805190602001908083835b60208310613b545780518252602082019150602081019050602083039250613b31565b6001836020036101000a03801982511681845116808217855250505050505090500182805190602001908083835b60208310613ba55780518252602082019150602081019050602083039250613b82565b6001836020036101000a038019825116818451168082178552505050505050905001935050505060405160208183030381529060405290509392505050565b613bed82612cbc565b613c42576040517f08c379a000000000000000000000000000000000000000000000000000000000815260040180806020018281038252602c815260200180614f15602c913960400191505060405180910390fd5b80600860008481526020019081526020016000209080519060200190613c69929190614c67565b505050565b600081836000018054905011613ccf576040517f08c379a0000000000000000000000000000000000000000000000000000000008152600401808060200182810382526022815260200180614d276022913960400191505060405180910390fd5b826000018281548110613cde57fe5b9060005260206000200154905092915050565b60008082846000018054905011613d53576040517f08c379a0000000000000000000000000000000000000000000000000000000008152600401808060200182810382526022815260200180614ec76022913960400191505060405180910390fd5b6000846000018481548110613d6457fe5b906000526020600020906002020190508060000154816001015492509250509250929050565b60008084600101600085815260200190815260200160002054905060008114158390613e51576040517f08c379a00000000000000000000000000000000000000000000000000000000081526004018080602001828103825283818151815260200191508051906020019080838360005b83811015613e16578082015181840152602081019050613dfb565b50505050905090810190601f168015613e435780820380516001836020036101000a031916815260200191505b509250505060405180910390fd5b50846000016001820381548110613e6457fe5b9060005260206000209060020201600101549150509392505050565b613e8a8383614559565b613e976000848484613f02565b613eec576040517f08c379a0000000000000000000000000000000000000000000000000000000008152600401808060200182810382526032815260200180614d716032913960400191505060405180910390fd5b505050565b600081600001805490509050919050565b6000613f238473ffffffffffffffffffffffffffffffffffffffff1661474d565b613f30576001905061413f565b60606140c663150b7a0260e01b613f45612cd9565b888787604051602401808573ffffffffffffffffffffffffffffffffffffffff1673ffffffffffffffffffffffffffffffffffffffff1681526020018473ffffffffffffffffffffffffffffffffffffffff1673ffffffffffffffffffffffffffffffffffffffff16815260200183815260200180602001828103825283818151815260200191508051906020019080838360005b83811015613ff5578082015181840152602081019050613fda565b50505050905090810190601f1680156140225780820380516001836020036101000a031916815260200191505b5095505050505050604051602081830303815290604052907bffffffffffffffffffffffffffffffffffffffffffffffffffffffff19166020820180517bffffffffffffffffffffffffffffffffffffffffffffffffffffffff8381831617835250505050604051806060016040528060328152602001614d71603291398773ffffffffffffffffffffffffffffffffffffffff166147609092919063ffffffff16565b905060008180602001905160208110156140df57600080fd5b8101908080519060200190929190505050905063150b7a0260e01b7bffffffffffffffffffffffffffffffffffffffffffffffffffffffff1916817bffffffffffffffffffffffffffffffffffffffffffffffffffffffff191614925050505b949350505050565b61414f614ce7565b60006020838161415b57fe5b0614614174576020828161416b57fe5b06602003820191505b81836020018181525050604051808452600081528281016020016040525082905092915050565b601781116141c8576141c28160058460ff16901b60ff16178461477890919063ffffffff16565b506142db565b60ff811161420a576141ed601860058460ff16901b178461477890919063ffffffff16565b50614204816001856147989092919063ffffffff16565b506142da565b61ffff811161424d57614230601960058460ff16901b178461477890919063ffffffff16565b50614247816002856147989092919063ffffffff16565b506142d9565b63ffffffff811161429257614275601a60058460ff16901b178461477890919063ffffffff16565b5061428c816004856147989092919063ffffffff16565b506142d8565b67ffffffffffffffff81116142d7576142be601b60058460ff16901b178461477890919063ffffffff16565b506142d5816008856147989092919063ffffffff16565b505b5b5b5b5b505050565b6142e8614ce7565b6142fa838460000151518485516147ba565b905092915050565b600080836001016000848152602001908152602001600020541415905092915050565b60008083600101600084815260200190815260200160002054905060008114614401576000600182039050600060018660000180549050039050600086600001828154811061437057fe5b906000526020600020015490508087600001848154811061438d57fe5b90600052602060002001819055506001830187600101600083815260200190815260200160002081905550866000018054806143c557fe5b60019003818190600052602060002001600090559055866001016000878152602001908152602001600020600090556001945050505050614407565b60009150505b92915050565b60006144198383614873565b614472578260000182908060018154018082558091505060019003906000526020600020016000909190919091505582600001805490508360010160008481526020019081526020016000208190555060019050614477565b600090505b92915050565b600080846001016000858152602001908152602001600020549050600081141561452457846000016040518060400160405280868152602001858152509080600181540180825580915050600190039060005260206000209060020201600090919091909150600082015181600001556020820151816001015550508460000180549050856001016000868152602001908152602001600020819055506001915050614552565b8285600001600183038154811061453757fe5b90600052602060002090600202016001018190555060009150505b9392505050565b600073ffffffffffffffffffffffffffffffffffffffff168273ffffffffffffffffffffffffffffffffffffffff1614156145fc576040517f08c379a00000000000000000000000000000000000000000000000000000000081526004018080602001828103825260208152602001807f4552433732313a206d696e7420746f20746865207a65726f206164647265737381525060200191505060405180910390fd5b61460581612cbc565b15614678576040517f08c379a000000000000000000000000000000000000000000000000000000000815260040180806020018281038252601c8152602001807f4552433732313a20746f6b656e20616c7265616479206d696e7465640000000081525060200191505060405180910390fd5b614684600083836138e6565b6146d581600160008573ffffffffffffffffffffffffffffffffffffffff1673ffffffffffffffffffffffffffffffffffffffff16815260200190815260200160002061390590919063ffffffff16565b506146ec8183600261391f9092919063ffffffff16565b50808273ffffffffffffffffffffffffffffffffffffffff16600073ffffffffffffffffffffffffffffffffffffffff167fddf252ad1be2c89b69c2b068fc378daa952ba7f163c4a11628f55a4df523b3ef60405160405180910390a45050565b600080823b905060008111915050919050565b606061476f8484600085614896565b90509392505050565b614780614ce7565b6147908384600001515184614a3f565b905092915050565b6147a0614ce7565b6147b1848560000151518585614a8d565b90509392505050565b6147c2614ce7565b82518211156147d057600080fd5b846020015182850111156147fb576147fa8560026147f48860200151888701614aee565b02614b0a565b5b60008086518051876020830101935080888701111561481a5787860182525b60208701925050505b602084106148465780518252602082019150602081019050602084039350614823565b60006001856020036101000a03905080198251168184511681811785525050879350505050949350505050565b600080836001016000848152602001908152602001600020541415905092915050565b6060824710156148f1576040517f08c379a0000000000000000000000000000000000000000000000000000000008152600401808060200182810382526026815260200180614dea6026913960400191505060405180910390fd5b6148fa8561474d565b61496c576040517f08c379a000000000000000000000000000000000000000000000000000000000815260040180806020018281038252601d8152602001807f416464726573733a2063616c6c20746f206e6f6e2d636f6e747261637400000081525060200191505060405180910390fd5b600060608673ffffffffffffffffffffffffffffffffffffffff1685876040518082805190602001908083835b602083106149bc5780518252602082019150602081019050602083039250614999565b6001836020036101000a03801982511681845116808217855250505050505090500191505060006040518083038185875af1925050503d8060008114614a1e576040519150601f19603f3d011682016040523d82523d6000602084013e614a23565b606091505b5091509150614a33828286614b2e565b92505050949350505050565b614a47614ce7565b83602001518310614a6457614a63846002866020015102614b0a565b5b8351805160208583010184815381861415614a80576001820183525b5050508390509392505050565b614a95614ce7565b84602001518483011115614ab357614ab285600286850102614b0a565b5b60006001836101000a0390508551838682010185831982511617815281518588011115614ae05784870182525b505085915050949350505050565b600081831115614b0057829050614b04565b8190505b92915050565b606082600001519050614b1d8383614147565b50614b2883826142e0565b50505050565b60608315614b3e57829050614bf3565b600083511115614b515782518084602001fd5b816040517f08c379a00000000000000000000000000000000000000000000000000000000081526004018080602001828103825283818151815260200191508051906020019080838360005b83811015614bb8578082015181840152602081019050614b9d565b50505050905090810190601f168015614be55780820380516001836020036101000a031916815260200191505b509250505060405180910390fd5b9392505050565b6040518060a0016040528060008019168152602001600073ffffffffffffffffffffffffffffffffffffffff16815260200160007bffffffffffffffffffffffffffffffffffffffffffffffffffffffff1916815260200160008152602001614c61614ce7565b81525090565b828054600181600116156101000203166002900490600052602060002090601f016020900481019282601f10614ca857805160ff1916838001178555614cd6565b82800160010185558215614cd6579182015b82811115614cd5578251825591602001919060010190614cba565b5b509050614ce39190614d01565b5090565b604051806040016040528060608152602001600081525090565b614d2391905b80821115614d1f576000816000905550600101614d07565b5090565b9056fe456e756d657261626c655365743a20696e646578206f7574206f6620626f756e64734552433732313a2043616c6c6572206973206e6f74206f776e6572206e6f7220617070726f7665644552433732313a207472616e7366657220746f206e6f6e20455243373231526563656976657220696d706c656d656e746572756e61626c6520746f207472616e73666572416e6443616c6c20746f206f7261636c654552433732313a207472616e7366657220746f20746865207a65726f2061646472657373416464726573733a20696e73756666696369656e742062616c616e636520666f722063616c6c4552433732313a206f70657261746f7220717565727920666f72206e6f6e6578697374656e7420746f6b656e4552433732313a20617070726f76652063616c6c6572206973206e6f74206f776e6572206e6f7220617070726f76656420666f7220616c6c4552433732313a2062616c616e636520717565727920666f7220746865207a65726f20616464726573734552433732313a206f776e657220717565727920666f72206e6f6e6578697374656e7420746f6b656e456e756d657261626c654d61703a20696e646578206f7574206f6620626f756e64734552433732313a20617070726f76656420717565727920666f72206e6f6e6578697374656e7420746f6b656e4552433732314d657461646174613a2055524920736574206f66206e6f6e6578697374656e7420746f6b656e4552433732313a207472616e73666572206f6620746f6b656e2074686174206973206e6f74206f776e4552433732314d657461646174613a2055524920717565727920666f72206e6f6e6578697374656e7420746f6b656e4552433732313a20617070726f76616c20746f2063757272656e74206f776e65724552433732313a207472616e736665722063616c6c6572206973206e6f74206f776e6572206e6f7220617070726f766564536f75726365206d75737420626520746865206f7261636c65206f66207468652072657175657374a26469706673582212201e6ee7dd8fbe3f14970b91e16685b6edc0fee1f6657a33c7b35cdbf102cede4764736f6c6343000606003368747470733a2f2f696d616765732d626c656e642e6865726f6b756170702e636f6d2f68747470733a2f2f696d616765732d626c656e642e6865726f6b756170702e636f6d2f7365636f6e642f",
  "immutableReferences": {},
  "source": "// SPDX-License-Identifier: MIT\npragma solidity ^0.6.6;\n\nimport \"@openzeppelin/contracts/token/ERC721/ERC721.sol\";\nimport \"@chainlink/contracts/src/v0.6/ChainlinkClient.sol\";\n\ncontract TurtleCharacter is ERC721, ChainlinkClient {\n  address public contractOwner; // Owner of this contract\n\n  // Bytes32 data related to IPFS Hash returned from the API\n  bytes32 private ipfsHashOneBytes32;\n  bytes32 private ipfsHashTwoBytes32;\n\n  string public ipfsLink = \"https://ipfs.io/ipfs/\"; // Stores the IPFS link after the API call\n\n  // Chainlink Oracle, Job ID and fee required for making the API call using Chainlink\n  address private oracle;\n  bytes32 private jobId;\n  uint256 private fee;\n\n  uint256 private uniqueTokenId = 0; // Unique TokenID\n\n  string private apiBaseUrl; // Stores the base url of the api\n  string private apiSecondUrl; // API url for the second call\n\n  // Mapping from Token ID to Price\n  mapping(uint256 => uint256) public turtlesForSale;\n\n  // Events\n\n  // Emitted when a new Turtle is generated after reaching a new checkpoint in the game\n  event NewTurtleGenerated(uint256 tokenId);\n\n  // Emitted when the data received from the API is successful\n  event DataReceivedFromAPI(string ipfsLink);\n\n  // Emitted when a turtle is bought\n  event TurtleBought(uint256 tokenId);\n\n  // Emitted when a turtle is put up for sale\n  event TurtleUpForSale(uint256 tokenId);\n\n  /**\n   * Network: Matic Mumbai Testnet\n   * Oracle: 0xc8D925525CA8759812d0c299B90247917d4d4b7C\n   * Job ID: a7330d0b4b964c05abc66a26307047c0\n   * LINK address: 0x326C977E6efc84E512bB9C30f76E30c160eD06FB\n   * Fee: 0.01 LINK\n   */\n\n  // Contructor is called when an instance of 'TurtleCharacter' contract is deployed\n  constructor() public ERC721(\"TurtleCharacter\", \"TRTL\") {\n    setChainlinkToken(0x326C977E6efc84E512bB9C30f76E30c160eD06FB);\n\n    uniqueTokenId = 0;\n    contractOwner = msg.sender;\n    apiBaseUrl = \"https://images-blend.herokuapp.com/\";\n    apiSecondUrl = \"https://images-blend.herokuapp.com/second/\";\n\n    oracle = 0xc8D925525CA8759812d0c299B90247917d4d4b7C; // Address of the chainlink oracle\n    jobId = \"a7330d0b4b964c05abc66a26307047c0\"; // This Job gets data from an API in the form of a bytes32 variable\n    fee = 0.01 * 10**18; // 0.01 LINK (Fee for Chainlink Oracle for returning the required data)\n  }\n\n  // Modifer that checks to see if msg.sender == contractOwner\n  modifier onlyContractOwner() {\n    require(msg.sender == contractOwner);\n    _;\n  }\n\n  // Function 'setOracleAddress' sets a new oracle address\n  function setOracleAddress(address _oracleAddress) public onlyContractOwner {\n    oracle = _oracleAddress;\n  }\n\n  // Function 'setJobID' sets a new job ID\n  function setJobID(bytes32 _jobID) public onlyContractOwner {\n    jobId = _jobID;\n  }\n\n  // Function 'setFeeInLink' sets a new fee for the Chainlink Oracle\n  function setFeeInLink(uint256 _fee) public onlyContractOwner {\n    fee = _fee * 10**18;\n  }\n\n  // Function 'setApiBaseUrl' sets a new base URL link for the API\n  function setApiBaseUrl(string memory _url) public onlyContractOwner {\n    apiBaseUrl = _url;\n  }\n\n  // Function 'setApiSecondUrl' sets a new second URL link for the API\n  function setApiSecondUrl(string memory _url) public onlyContractOwner {\n    apiSecondUrl = _url;\n  }\n\n  // Function 'buyTurtle' allows anyone to buy a turtle that is put up for sale\n  function buyTurtle(uint256 _tokenId) public payable {\n    require(turtlesForSale[_tokenId] > 0, \"The Turtle should be up for sale\");\n\n    uint256 turtleCost = turtlesForSale[_tokenId];\n    turtlesForSale[_tokenId] = 0;\n\n    address ownerAddress = ownerOf(_tokenId);\n    require(msg.value > turtleCost, \"You need to have enough Ether\");\n\n    _safeTransfer(ownerAddress, msg.sender, _tokenId, bytes(\"Buy a Turtle\")); // ERC721 Token is safely transferred using this function call\n\n    address payable ownerAddressPayable = payable(ownerAddress);\n    ownerAddressPayable.transfer(turtleCost);\n    if (msg.value > turtleCost) {\n      payable(msg.sender).transfer(msg.value - turtleCost); // Excess Ether is returned back to the buyer\n    }\n\n    emit TurtleBought(_tokenId);\n  }\n\n  // Function 'putUpTurtleForSale' allows a turtle owner to put it up for sale\n  function putUpTurtleForSale(uint256 _tokenId, uint256 _price) public {\n    require(\n      _isApprovedOrOwner(_msgSender(), _tokenId),\n      \"ERC721: Caller is not owner nor approved\"\n    );\n    turtlesForSale[_tokenId] = _price;\n\n    emit TurtleUpForSale(_tokenId);\n  }\n\n  // Function 'requestNewRandomTurtle' mints a new Turtle character\n  function requestNewRandomTurtle() public {\n    ipfsLink = \"https://ipfs.io/ipfs/\";\n    _safeMint(msg.sender, uniqueTokenId);\n    requestIPFSHash();\n  }\n\n  // Function 'requestIPFSHash' requests a new IPFS hash from the API\n  function requestIPFSHash() private returns (bytes32 requestId) {\n    Chainlink.Request memory request = buildChainlinkRequest(\n      jobId,\n      address(this),\n      this.fulfill.selector\n    );\n    request.add(\"get\", apiBaseUrl);\n    request.add(\"path\", \"IPFS_PATH\");\n\n    return sendChainlinkRequestTo(oracle, request, fee);\n  }\n\n  // Function 'fulfill' is called after the response for the API call is received\n  function fulfill(bytes32 _requestId, bytes32 dataFromAPI)\n    public\n    recordChainlinkFulfillment(_requestId)\n    returns (bytes32 requestId)\n  {\n    ipfsHashOneBytes32 = dataFromAPI;\n\n    Chainlink.Request memory request = buildChainlinkRequest(\n      jobId,\n      address(this),\n      this.fulfillSecondRequest.selector\n    );\n    request.add(\"get\", apiSecondUrl);\n    request.add(\"path\", \"IPFS_PATH\");\n\n    return sendChainlinkRequestTo(oracle, request, fee);\n  }\n\n  // Function 'fulfillSecondRequest' is called after the response for the API call is received\n  function fulfillSecondRequest(bytes32 _requestId, bytes32 dataFromAPI)\n    public\n    recordChainlinkFulfillment(_requestId)\n  {\n    ipfsHashTwoBytes32 = dataFromAPI;\n    generateIPFSLink();\n\n    emit DataReceivedFromAPI(ipfsLink);\n\n    setTokenURI(ipfsLink);\n\n    emit NewTurtleGenerated(uniqueTokenId - 1);\n  }\n\n  // Function 'bytes32ToString' convers a bytes32 variable to a string variable\n  function bytes32ToString(bytes32 _bytes32)\n    internal\n    pure\n    returns (string memory)\n  {\n    uint8 i = 0;\n    while (i < 32 && _bytes32[i] != 0) {\n      i++;\n    }\n    bytes memory bytesArray = new bytes(i);\n    for (i = 0; i < 32 && _bytes32[i] != 0; i++) {\n      bytesArray[i] = _bytes32[i];\n    }\n    return string(bytesArray);\n  }\n\n  // Function 'generateIPFSLink' generates the IPFS link from the 2 API calls\n  function generateIPFSLink() private {\n    string memory ipfsHashPartOne = bytes32ToString(ipfsHashOneBytes32);\n    string memory ipfsHashPartTwo = bytes32ToString(ipfsHashTwoBytes32);\n    ipfsLink = append(ipfsLink, ipfsHashPartOne, ipfsHashPartTwo);\n  }\n\n  // Function 'append' appends 3 strings\n  function append(\n    string memory a,\n    string memory b,\n    string memory c\n  ) internal pure returns (string memory) {\n    return string(abi.encodePacked(a, b, c));\n  }\n\n  // Function 'withdrawLink' allows the contract owner to withdraw the LINK from the contract\n  function withdrawLink() external onlyContractOwner {\n    LinkTokenInterface linkToken = LinkTokenInterface(chainlinkTokenAddress());\n    require(\n      linkToken.transfer(msg.sender, linkToken.balanceOf(address(this))),\n      \"Unable to transfer LINK\"\n    );\n  }\n\n  // Function 'setTokenURI' sets the Token URI for the ERC721 standard token\n  function setTokenURI(string memory _tokenURI) private {\n    _setTokenURI(uniqueTokenId, _tokenURI);\n    uniqueTokenId++;\n  }\n}\n",
  "sourcePath": "D:/EthOdyssey/NFT-Game/contracts/TurtleCharacter.sol",
  "compiler": {
    "name": "solc",
    "version": "0.6.6+commit.6c089d02.Emscripten.clang"
  },
  "schemaVersion": "3.4.1",
  "updatedAt": "2021-07-28T17:47:27.785Z",
  "networkType": "ethereum",
  "devdoc": {
    "methods": {
      "approve(address,uint256)": {
        "details": "See {IERC721-approve}."
      },
      "balanceOf(address)": {
        "details": "See {IERC721-balanceOf}."
      },
      "baseURI()": {
        "details": "Returns the base URI set via {_setBaseURI}. This will be automatically added as a prefix in {tokenURI} to each token's URI, or to the token ID if no specific URI is set for that token ID."
      },
      "getApproved(uint256)": {
        "details": "See {IERC721-getApproved}."
      },
      "isApprovedForAll(address,address)": {
        "details": "See {IERC721-isApprovedForAll}."
      },
      "name()": {
        "details": "See {IERC721Metadata-name}."
      },
      "ownerOf(uint256)": {
        "details": "See {IERC721-ownerOf}."
      },
      "safeTransferFrom(address,address,uint256)": {
        "details": "See {IERC721-safeTransferFrom}."
      },
      "safeTransferFrom(address,address,uint256,bytes)": {
        "details": "See {IERC721-safeTransferFrom}."
      },
      "setApprovalForAll(address,bool)": {
        "details": "See {IERC721-setApprovalForAll}."
      },
      "supportsInterface(bytes4)": {
        "details": "See {IERC165-supportsInterface}.     * Time complexity O(1), guaranteed to always use less than 30 000 gas."
      },
      "symbol()": {
        "details": "See {IERC721Metadata-symbol}."
      },
      "tokenByIndex(uint256)": {
        "details": "See {IERC721Enumerable-tokenByIndex}."
      },
      "tokenOfOwnerByIndex(address,uint256)": {
        "details": "See {IERC721Enumerable-tokenOfOwnerByIndex}."
      },
      "tokenURI(uint256)": {
        "details": "See {IERC721Metadata-tokenURI}."
      },
      "totalSupply()": {
        "details": "See {IERC721Enumerable-totalSupply}."
      },
      "transferFrom(address,address,uint256)": {
        "details": "See {IERC721-transferFrom}."
      }
    }
  },
  "userdoc": {
    "methods": {
      "constructor": "Network: Matic Mumbai Testnet Oracle: 0xc8D925525CA8759812d0c299B90247917d4d4b7C Job ID: a7330d0b4b964c05abc66a26307047c0 LINK address: 0x326C977E6efc84E512bB9C30f76E30c160eD06FB Fee: 0.01 LINK"
    }
  }
}