{
  "contractName": "TurtleCharacter",
  "abi": [
    {
      "inputs": [],
      "stateMutability": "nonpayable",
      "type": "constructor"
    },
    {
      "anonymous": false,
      "inputs": [
        {
          "indexed": true,
          "internalType": "address",
          "name": "owner",
          "type": "address"
        },
        {
          "indexed": true,
          "internalType": "address",
          "name": "approved",
          "type": "address"
        },
        {
          "indexed": true,
          "internalType": "uint256",
          "name": "tokenId",
          "type": "uint256"
        }
      ],
      "name": "Approval",
      "type": "event"
    },
    {
      "anonymous": false,
      "inputs": [
        {
          "indexed": true,
          "internalType": "address",
          "name": "owner",
          "type": "address"
        },
        {
          "indexed": true,
          "internalType": "address",
          "name": "operator",
          "type": "address"
        },
        {
          "indexed": false,
          "internalType": "bool",
          "name": "approved",
          "type": "bool"
        }
      ],
      "name": "ApprovalForAll",
      "type": "event"
    },
    {
      "anonymous": false,
      "inputs": [
        {
          "indexed": true,
          "internalType": "bytes32",
          "name": "id",
          "type": "bytes32"
        }
      ],
      "name": "ChainlinkCancelled",
      "type": "event"
    },
    {
      "anonymous": false,
      "inputs": [
        {
          "indexed": true,
          "internalType": "bytes32",
          "name": "id",
          "type": "bytes32"
        }
      ],
      "name": "ChainlinkFulfilled",
      "type": "event"
    },
    {
      "anonymous": false,
      "inputs": [
        {
          "indexed": true,
          "internalType": "bytes32",
          "name": "id",
          "type": "bytes32"
        }
      ],
      "name": "ChainlinkRequested",
      "type": "event"
    },
    {
      "anonymous": false,
      "inputs": [
        {
          "indexed": true,
          "internalType": "address",
          "name": "from",
          "type": "address"
        },
        {
          "indexed": true,
          "internalType": "address",
          "name": "to",
          "type": "address"
        },
        {
          "indexed": true,
          "internalType": "uint256",
          "name": "tokenId",
          "type": "uint256"
        }
      ],
      "name": "Transfer",
      "type": "event"
    },
    {
      "inputs": [
        {
          "internalType": "address",
          "name": "to",
          "type": "address"
        },
        {
          "internalType": "uint256",
          "name": "tokenId",
          "type": "uint256"
        }
      ],
      "name": "approve",
      "outputs": [],
      "stateMutability": "nonpayable",
      "type": "function"
    },
    {
      "inputs": [
        {
          "internalType": "address",
          "name": "owner",
          "type": "address"
        }
      ],
      "name": "balanceOf",
      "outputs": [
        {
          "internalType": "uint256",
          "name": "",
          "type": "uint256"
        }
      ],
      "stateMutability": "view",
      "type": "function"
    },
    {
      "inputs": [],
      "name": "baseURI",
      "outputs": [
        {
          "internalType": "string",
          "name": "",
          "type": "string"
        }
      ],
      "stateMutability": "view",
      "type": "function"
    },
    {
      "inputs": [],
      "name": "contractOwner",
      "outputs": [
        {
          "internalType": "address",
          "name": "",
          "type": "address"
        }
      ],
      "stateMutability": "view",
      "type": "function"
    },
    {
      "inputs": [
        {
          "internalType": "uint256",
          "name": "tokenId",
          "type": "uint256"
        }
      ],
      "name": "getApproved",
      "outputs": [
        {
          "internalType": "address",
          "name": "",
          "type": "address"
        }
      ],
      "stateMutability": "view",
      "type": "function"
    },
    {
      "inputs": [],
      "name": "ipfsLink",
      "outputs": [
        {
          "internalType": "string",
          "name": "",
          "type": "string"
        }
      ],
      "stateMutability": "view",
      "type": "function"
    },
    {
      "inputs": [
        {
          "internalType": "address",
          "name": "owner",
          "type": "address"
        },
        {
          "internalType": "address",
          "name": "operator",
          "type": "address"
        }
      ],
      "name": "isApprovedForAll",
      "outputs": [
        {
          "internalType": "bool",
          "name": "",
          "type": "bool"
        }
      ],
      "stateMutability": "view",
      "type": "function"
    },
    {
      "inputs": [],
      "name": "name",
      "outputs": [
        {
          "internalType": "string",
          "name": "",
          "type": "string"
        }
      ],
      "stateMutability": "view",
      "type": "function"
    },
    {
      "inputs": [
        {
          "internalType": "uint256",
          "name": "tokenId",
          "type": "uint256"
        }
      ],
      "name": "ownerOf",
      "outputs": [
        {
          "internalType": "address",
          "name": "",
          "type": "address"
        }
      ],
      "stateMutability": "view",
      "type": "function"
    },
    {
      "inputs": [
        {
          "internalType": "address",
          "name": "from",
          "type": "address"
        },
        {
          "internalType": "address",
          "name": "to",
          "type": "address"
        },
        {
          "internalType": "uint256",
          "name": "tokenId",
          "type": "uint256"
        }
      ],
      "name": "safeTransferFrom",
      "outputs": [],
      "stateMutability": "nonpayable",
      "type": "function"
    },
    {
      "inputs": [
        {
          "internalType": "address",
          "name": "from",
          "type": "address"
        },
        {
          "internalType": "address",
          "name": "to",
          "type": "address"
        },
        {
          "internalType": "uint256",
          "name": "tokenId",
          "type": "uint256"
        },
        {
          "internalType": "bytes",
          "name": "_data",
          "type": "bytes"
        }
      ],
      "name": "safeTransferFrom",
      "outputs": [],
      "stateMutability": "nonpayable",
      "type": "function"
    },
    {
      "inputs": [
        {
          "internalType": "address",
          "name": "operator",
          "type": "address"
        },
        {
          "internalType": "bool",
          "name": "approved",
          "type": "bool"
        }
      ],
      "name": "setApprovalForAll",
      "outputs": [],
      "stateMutability": "nonpayable",
      "type": "function"
    },
    {
      "inputs": [
        {
          "internalType": "bytes4",
          "name": "interfaceId",
          "type": "bytes4"
        }
      ],
      "name": "supportsInterface",
      "outputs": [
        {
          "internalType": "bool",
          "name": "",
          "type": "bool"
        }
      ],
      "stateMutability": "view",
      "type": "function"
    },
    {
      "inputs": [],
      "name": "symbol",
      "outputs": [
        {
          "internalType": "string",
          "name": "",
          "type": "string"
        }
      ],
      "stateMutability": "view",
      "type": "function"
    },
    {
      "inputs": [
        {
          "internalType": "uint256",
          "name": "index",
          "type": "uint256"
        }
      ],
      "name": "tokenByIndex",
      "outputs": [
        {
          "internalType": "uint256",
          "name": "",
          "type": "uint256"
        }
      ],
      "stateMutability": "view",
      "type": "function"
    },
    {
      "inputs": [
        {
          "internalType": "address",
          "name": "owner",
          "type": "address"
        },
        {
          "internalType": "uint256",
          "name": "index",
          "type": "uint256"
        }
      ],
      "name": "tokenOfOwnerByIndex",
      "outputs": [
        {
          "internalType": "uint256",
          "name": "",
          "type": "uint256"
        }
      ],
      "stateMutability": "view",
      "type": "function"
    },
    {
      "inputs": [
        {
          "internalType": "uint256",
          "name": "tokenId",
          "type": "uint256"
        }
      ],
      "name": "tokenURI",
      "outputs": [
        {
          "internalType": "string",
          "name": "",
          "type": "string"
        }
      ],
      "stateMutability": "view",
      "type": "function"
    },
    {
      "inputs": [],
      "name": "totalSupply",
      "outputs": [
        {
          "internalType": "uint256",
          "name": "",
          "type": "uint256"
        }
      ],
      "stateMutability": "view",
      "type": "function"
    },
    {
      "inputs": [
        {
          "internalType": "address",
          "name": "from",
          "type": "address"
        },
        {
          "internalType": "address",
          "name": "to",
          "type": "address"
        },
        {
          "internalType": "uint256",
          "name": "tokenId",
          "type": "uint256"
        }
      ],
      "name": "transferFrom",
      "outputs": [],
      "stateMutability": "nonpayable",
      "type": "function"
    },
    {
      "inputs": [
        {
          "internalType": "address",
          "name": "_oracleAddress",
          "type": "address"
        }
      ],
      "name": "setOracleAddress",
      "outputs": [],
      "stateMutability": "nonpayable",
      "type": "function"
    },
    {
      "inputs": [
        {
          "internalType": "bytes32",
          "name": "_jobID",
          "type": "bytes32"
        }
      ],
      "name": "setJobID",
      "outputs": [],
      "stateMutability": "nonpayable",
      "type": "function"
    },
    {
      "inputs": [
        {
          "internalType": "uint256",
          "name": "_fee",
          "type": "uint256"
        }
      ],
      "name": "setFeeInLink",
      "outputs": [],
      "stateMutability": "nonpayable",
      "type": "function"
    },
    {
      "inputs": [],
      "name": "requestRandomCharacter",
      "outputs": [],
      "stateMutability": "nonpayable",
      "type": "function"
    },
    {
      "inputs": [],
      "name": "requestIPFSHash",
      "outputs": [
        {
          "internalType": "bytes32",
          "name": "requestId",
          "type": "bytes32"
        }
      ],
      "stateMutability": "nonpayable",
      "type": "function"
    },
    {
      "inputs": [
        {
          "internalType": "bytes32",
          "name": "_requestId",
          "type": "bytes32"
        },
        {
          "internalType": "bytes32",
          "name": "dataFromAPI",
          "type": "bytes32"
        }
      ],
      "name": "fulfill",
      "outputs": [
        {
          "internalType": "bytes32",
          "name": "requestId",
          "type": "bytes32"
        }
      ],
      "stateMutability": "nonpayable",
      "type": "function"
    },
    {
      "inputs": [
        {
          "internalType": "bytes32",
          "name": "_requestId",
          "type": "bytes32"
        },
        {
          "internalType": "bytes32",
          "name": "dataFromAPI",
          "type": "bytes32"
        }
      ],
      "name": "fulfillSecondRequest",
      "outputs": [],
      "stateMutability": "nonpayable",
      "type": "function"
    },
    {
      "inputs": [
        {
          "internalType": "bytes32",
          "name": "_bytes32",
          "type": "bytes32"
        }
      ],
      "name": "bytes32ToString",
      "outputs": [
        {
          "internalType": "string",
          "name": "",
          "type": "string"
        }
      ],
      "stateMutability": "pure",
      "type": "function"
    },
    {
      "inputs": [
        {
          "internalType": "string",
          "name": "a",
          "type": "string"
        },
        {
          "internalType": "string",
          "name": "b",
          "type": "string"
        },
        {
          "internalType": "string",
          "name": "c",
          "type": "string"
        }
      ],
      "name": "append",
      "outputs": [
        {
          "internalType": "string",
          "name": "",
          "type": "string"
        }
      ],
      "stateMutability": "pure",
      "type": "function"
    },
    {
      "inputs": [],
      "name": "withdrawLink",
      "outputs": [],
      "stateMutability": "nonpayable",
      "type": "function"
    }
  ],
  "bytecode": "0x608060405260016004556040518060400160405280601581526020017f68747470733a2f2f697066732e696f2f697066732f0000000000000000000000815250601390805190602001906200005692919062000443565b5060006017553480156200006957600080fd5b506040518060400160405280600f81526020017f547572746c6543686172616374657200000000000000000000000000000000008152506040518060400160405280600481526020017f5452544c00000000000000000000000000000000000000000000000000000000815250620000ee6301ffc9a760e01b6200024b60201b60201c565b81600c90805190602001906200010692919062000443565b5080600d90805190602001906200011f92919062000443565b50620001386380ac58cd60e01b6200024b60201b60201c565b62000150635b5e139f60e01b6200024b60201b60201c565b6200016863780e9d6360e01b6200024b60201b60201c565b50506200017a6200035560201b60201c565b33601060006101000a81548173ffffffffffffffffffffffffffffffffffffffff021916908373ffffffffffffffffffffffffffffffffffffffff160217905550733a56ae4a2831c3d3514b5d7af5578e45ebdb7a40601460006101000a81548173ffffffffffffffffffffffffffffffffffffffff021916908373ffffffffffffffffffffffffffffffffffffffff1602179055507f3138376262383065356565373461313339373334636163373437356633633665601581905550662386f26fc10000601681905550620004f2565b63ffffffff60e01b817bffffffffffffffffffffffffffffffffffffffffffffffffffffffff19161415620002e8576040517f08c379a000000000000000000000000000000000000000000000000000000000815260040180806020018281038252601c8152602001807f4552433136353a20696e76616c696420696e746572666163652069640000000081525060200191505060405180910390fd5b600160066000837bffffffffffffffffffffffffffffffffffffffffffffffffffffffff19167bffffffffffffffffffffffffffffffffffffffffffffffffffffffff1916815260200190815260200160002060006101000a81548160ff02191690831515021790555050565b620003fd73c89bd4e1632d3a43cb03aaad5262cbe4038bc57173ffffffffffffffffffffffffffffffffffffffff166338cc48316040518163ffffffff1660e01b815260040160206040518083038186803b158015620003b457600080fd5b505afa158015620003c9573d6000803e3d6000fd5b505050506040513d6020811015620003e057600080fd5b8101908080519060200190929190505050620003ff60201b60201c565b565b80600260006101000a81548173ffffffffffffffffffffffffffffffffffffffff021916908373ffffffffffffffffffffffffffffffffffffffff16021790555050565b828054600181600116156101000203166002900490600052602060002090601f016020900481019282601f106200048657805160ff1916838001178555620004b7565b82800160010185558215620004b7579182015b82811115620004b657825182559160200191906001019062000499565b5b509050620004c69190620004ca565b5090565b620004ef91905b80821115620004eb576000816000905550600101620004d1565b5090565b90565b61498280620005026000396000f3fe608060405234801561001057600080fd5b50600436106101cf5760003560e01c80634f6ccce711610104578063a22cb465116100a2578063ce606ee011610071578063ce606ee014610d74578063e985e9c514610dbe578063f8b2474d14610e3a578063faa0b6b714610e58576101cf565b8063a22cb46514610b4a578063a5ac5f1c14610b9a578063b88d4fde14610bc8578063c87b56dd14610ccd576101cf565b806370a08231116100de57806370a08231146109be5780638dc654a214610a165780639201de5514610a2057806395d89b4114610ac7576101cf565b80634f6ccce71461088b5780636352211e146108cd5780636c0360eb1461093b576101cf565b8063259049f4116101715780632f745c591161014b5780632f745c591461051557806342842e0e1461057757806347395ced146105e55780634c69c00f14610847576101cf565b8063259049f4146104505780632b22aaea1461045a5780632b9d8c9a14610492576101cf565b8063081812fc116101ad578063081812fc14610308578063095ea7b31461037657806318160ddd146103c457806323b872dd146103e2576101cf565b806301ffc9a7146101d4578063042f2b651461023957806306fdde0314610285575b600080fd5b61021f600480360360208110156101ea57600080fd5b8101908080357bffffffffffffffffffffffffffffffffffffffffffffffffffffffff19169060200190929190505050610e86565b604051808215151515815260200191505060405180910390f35b61026f6004803603604081101561024f57600080fd5b810190808035906020019092919080359060200190929190505050610eee565b6040518082815260200191505060405180910390f35b61028d61114a565b6040518080602001828103825283818151815260200191508051906020019080838360005b838110156102cd5780820151818401526020810190506102b2565b50505050905090810190601f1680156102fa5780820380516001836020036101000a031916815260200191505b509250505060405180910390f35b6103346004803603602081101561031e57600080fd5b81019080803590602001909291905050506111ec565b604051808273ffffffffffffffffffffffffffffffffffffffff1673ffffffffffffffffffffffffffffffffffffffff16815260200191505060405180910390f35b6103c26004803603604081101561038c57600080fd5b81019080803573ffffffffffffffffffffffffffffffffffffffff16906020019092919080359060200190929190505050611287565b005b6103cc6113cb565b6040518082815260200191505060405180910390f35b61044e600480360360608110156103f857600080fd5b81019080803573ffffffffffffffffffffffffffffffffffffffff169060200190929190803573ffffffffffffffffffffffffffffffffffffffff169060200190929190803590602001909291905050506113dc565b005b610458611452565b005b6104906004803603604081101561047057600080fd5b8101908080359060200190929190803590602001909291905050506114b5565b005b61049a611687565b6040518080602001828103825283818151815260200191508051906020019080838360005b838110156104da5780820151818401526020810190506104bf565b50505050905090810190601f1680156105075780820380516001836020036101000a031916815260200191505b509250505060405180910390f35b6105616004803603604081101561052b57600080fd5b81019080803573ffffffffffffffffffffffffffffffffffffffff16906020019092919080359060200190929190505050611725565b6040518082815260200191505060405180910390f35b6105e36004803603606081101561058d57600080fd5b81019080803573ffffffffffffffffffffffffffffffffffffffff169060200190929190803573ffffffffffffffffffffffffffffffffffffffff16906020019092919080359060200190929190505050611780565b005b6107cc600480360360608110156105fb57600080fd5b810190808035906020019064010000000081111561061857600080fd5b82018360208201111561062a57600080fd5b8035906020019184600183028401116401000000008311171561064c57600080fd5b91908080601f016020809104026020016040519081016040528093929190818152602001838380828437600081840152601f19601f820116905080830192505050505050509192919290803590602001906401000000008111156106af57600080fd5b8201836020820111156106c157600080fd5b803590602001918460018302840111640100000000831117156106e357600080fd5b91908080601f016020809104026020016040519081016040528093929190818152602001838380828437600081840152601f19601f8201169050808301925050505050505091929192908035906020019064010000000081111561074657600080fd5b82018360208201111561075857600080fd5b8035906020019184600183028401116401000000008311171561077a57600080fd5b91908080601f016020809104026020016040519081016040528093929190818152602001838380828437600081840152601f19601f8201169050808301925050505050505091929192905050506117a0565b6040518080602001828103825283818151815260200191508051906020019080838360005b8381101561080c5780820151818401526020810190506107f1565b50505050905090810190601f1680156108395780820380516001836020036101000a031916815260200191505b509250505060405180910390f35b6108896004803603602081101561085d57600080fd5b81019080803573ffffffffffffffffffffffffffffffffffffffff1690602001909291905050506118bc565b005b6108b7600480360360208110156108a157600080fd5b810190808035906020019092919050505061195a565b6040518082815260200191505060405180910390f35b6108f9600480360360208110156108e357600080fd5b810190808035906020019092919050505061197d565b604051808273ffffffffffffffffffffffffffffffffffffffff1673ffffffffffffffffffffffffffffffffffffffff16815260200191505060405180910390f35b6109436119b4565b6040518080602001828103825283818151815260200191508051906020019080838360005b83811015610983578082015181840152602081019050610968565b50505050905090810190601f1680156109b05780820380516001836020036101000a031916815260200191505b509250505060405180910390f35b610a00600480360360208110156109d457600080fd5b81019080803573ffffffffffffffffffffffffffffffffffffffff169060200190929190505050611a56565b6040518082815260200191505060405180910390f35b610a1e611b2b565b005b610a4c60048036036020811015610a3657600080fd5b8101908080359060200190929190505050611d25565b6040518080602001828103825283818151815260200191508051906020019080838360005b83811015610a8c578082015181840152602081019050610a71565b50505050905090810190601f168015610ab95780820380516001836020036101000a031916815260200191505b509250505060405180910390f35b610acf611e99565b6040518080602001828103825283818151815260200191508051906020019080838360005b83811015610b0f578082015181840152602081019050610af4565b50505050905090810190601f168015610b3c5780820380516001836020036101000a031916815260200191505b509250505060405180910390f35b610b9860048036036040811015610b6057600080fd5b81019080803573ffffffffffffffffffffffffffffffffffffffff169060200190929190803515159060200190929190505050611f3b565b005b610bc660048036036020811015610bb057600080fd5b81019080803590602001909291905050506120f3565b005b610ccb60048036036080811015610bde57600080fd5b81019080803573ffffffffffffffffffffffffffffffffffffffff169060200190929190803573ffffffffffffffffffffffffffffffffffffffff1690602001909291908035906020019092919080359060200190640100000000811115610c4557600080fd5b820183602082011115610c5757600080fd5b80359060200191846001830284011164010000000083111715610c7957600080fd5b91908080601f016020809104026020016040519081016040528093929190818152602001838380828437600081840152601f19601f820116905080830192505050505050509192919290505050612161565b005b610cf960048036036020811015610ce357600080fd5b81019080803590602001909291905050506121d9565b6040518080602001828103825283818151815260200191508051906020019080838360005b83811015610d39578082015181840152602081019050610d1e565b50505050905090810190601f168015610d665780820380516001836020036101000a031916815260200191505b509250505060405180910390f35b610d7c6124aa565b604051808273ffffffffffffffffffffffffffffffffffffffff1673ffffffffffffffffffffffffffffffffffffffff16815260200191505060405180910390f35b610e2060048036036040811015610dd457600080fd5b81019080803573ffffffffffffffffffffffffffffffffffffffff169060200190929190803573ffffffffffffffffffffffffffffffffffffffff1690602001909291905050506124d0565b604051808215151515815260200191505060405180910390f35b610e42612564565b6040518082815260200191505060405180910390f35b610e8460048036036020811015610e6e57600080fd5b810190808035906020019092919050505061269a565b005b600060066000837bffffffffffffffffffffffffffffffffffffffffffffffffffffffff19167bffffffffffffffffffffffffffffffffffffffffffffffffffffffff1916815260200190815260200160002060009054906101000a900460ff169050919050565b6000826005600082815260200190815260200160002060009054906101000a900473ffffffffffffffffffffffffffffffffffffffff1673ffffffffffffffffffffffffffffffffffffffff163373ffffffffffffffffffffffffffffffffffffffff1614610fa8576040517f08c379a00000000000000000000000000000000000000000000000000000000081526004018080602001828103825260288152602001806149256028913960400191505060405180910390fd5b6005600082815260200190815260200160002060006101000a81549073ffffffffffffffffffffffffffffffffffffffff0219169055807f7cc135e0cebb02c3480ae5d74d377283180a2601f8f644edf7987b009316c63a60405160405180910390a28260118190555061101a614510565b61102e60155430632b22aaea60e01b6126fe565b90506110926040518060400160405280600381526020017f676574000000000000000000000000000000000000000000000000000000000081525060405180606001604052806029815260200161465f602991398361272f9092919063ffffffff16565b6111116040518060400160405280600481526020017f70617468000000000000000000000000000000000000000000000000000000008152506040518060400160405280600981526020017f495046535f5041544800000000000000000000000000000000000000000000008152508361272f9092919063ffffffff16565b611140601460009054906101000a900473ffffffffffffffffffffffffffffffffffffffff1682601654612762565b9250505092915050565b6060600c8054600181600116156101000203166002900480601f0160208091040260200160405190810160405280929190818152602001828054600181600116156101000203166002900480156111e25780601f106111b7576101008083540402835291602001916111e2565b820191906000526020600020905b8154815290600101906020018083116111c557829003601f168201915b5050505050905090565b60006111f782612a1a565b61124c576040517f08c379a000000000000000000000000000000000000000000000000000000000815260040180806020018281038252602c815260200180614823602c913960400191505060405180910390fd5b600a600083815260200190815260200160002060009054906101000a900473ffffffffffffffffffffffffffffffffffffffff169050919050565b60006112928261197d565b90508073ffffffffffffffffffffffffffffffffffffffff168373ffffffffffffffffffffffffffffffffffffffff161415611319576040517f08c379a00000000000000000000000000000000000000000000000000000000081526004018080602001828103825260218152602001806148d36021913960400191505060405180910390fd5b8073ffffffffffffffffffffffffffffffffffffffff16611338612a37565b73ffffffffffffffffffffffffffffffffffffffff161480611367575061136681611361612a37565b6124d0565b5b6113bc576040517f08c379a00000000000000000000000000000000000000000000000000000000081526004018080602001828103825260388152602001806147536038913960400191505060405180910390fd5b6113c68383612a3f565b505050565b60006113d76008612af8565b905090565b6113ed6113e7612a37565b82612b0d565b611442576040517f08c379a00000000000000000000000000000000000000000000000000000000081526004018080602001828103825260318152602001806148f46031913960400191505060405180910390fd5b61144d838383612c01565b505050565b6040518060400160405280601581526020017f68747470733a2f2f697066732e696f2f697066732f00000000000000000000008152506013908051906020019061149d92919061457d565b506114aa33601754612e44565b6114b2612564565b50565b816005600082815260200190815260200160002060009054906101000a900473ffffffffffffffffffffffffffffffffffffffff1673ffffffffffffffffffffffffffffffffffffffff163373ffffffffffffffffffffffffffffffffffffffff161461156d576040517f08c379a00000000000000000000000000000000000000000000000000000000081526004018080602001828103825260288152602001806149256028913960400191505060405180910390fd5b6005600082815260200190815260200160002060006101000a81549073ffffffffffffffffffffffffffffffffffffffff0219169055807f7cc135e0cebb02c3480ae5d74d377283180a2601f8f644edf7987b009316c63a60405160405180910390a2816012819055506115df612e62565b61168260138054600181600116156101000203166002900480601f0160208091040260200160405190810160405280929190818152602001828054600181600116156101000203166002900480156116785780601f1061164d57610100808354040283529160200191611678565b820191906000526020600020905b81548152906001019060200180831161165b57829003601f168201915b5050505050612f3f565b505050565b60138054600181600116156101000203166002900480601f01602080910402602001604051908101604052809291908181526020018280546001816001161561010002031660029004801561171d5780601f106116f25761010080835404028352916020019161171d565b820191906000526020600020905b81548152906001019060200180831161170057829003601f168201915b505050505081565b600061177882600760008673ffffffffffffffffffffffffffffffffffffffff1673ffffffffffffffffffffffffffffffffffffffff168152602001908152602001600020612f6090919063ffffffff16565b905092915050565b61179b83838360405180602001604052806000815250612161565b505050565b60608383836040516020018084805190602001908083835b602083106117db57805182526020820191506020810190506020830392506117b8565b6001836020036101000a03801982511681845116808217855250505050505090500183805190602001908083835b6020831061182c5780518252602082019150602081019050602083039250611809565b6001836020036101000a03801982511681845116808217855250505050505090500182805190602001908083835b6020831061187d578051825260208201915060208101905060208303925061185a565b6001836020036101000a038019825116818451168082178552505050505050905001935050505060405160208183030381529060405290509392505050565b601060009054906101000a900473ffffffffffffffffffffffffffffffffffffffff1673ffffffffffffffffffffffffffffffffffffffff163373ffffffffffffffffffffffffffffffffffffffff161461191657600080fd5b80601460006101000a81548173ffffffffffffffffffffffffffffffffffffffff021916908373ffffffffffffffffffffffffffffffffffffffff16021790555050565b600080611971836008612f7a90919063ffffffff16565b50905080915050919050565b60006119ad826040518060600160405280602981526020016147b5602991396008612fa99092919063ffffffff16565b9050919050565b6060600f8054600181600116156101000203166002900480601f016020809104026020016040519081016040528092919081815260200182805460018160011615610100020316600290048015611a4c5780601f10611a2157610100808354040283529160200191611a4c565b820191906000526020600020905b815481529060010190602001808311611a2f57829003601f168201915b5050505050905090565b60008073ffffffffffffffffffffffffffffffffffffffff168273ffffffffffffffffffffffffffffffffffffffff161415611add576040517f08c379a000000000000000000000000000000000000000000000000000000000815260040180806020018281038252602a81526020018061478b602a913960400191505060405180910390fd5b611b24600760008473ffffffffffffffffffffffffffffffffffffffff1673ffffffffffffffffffffffffffffffffffffffff168152602001908152602001600020612fc8565b9050919050565b6000611b35612fdd565b90508073ffffffffffffffffffffffffffffffffffffffff1663a9059cbb338373ffffffffffffffffffffffffffffffffffffffff166370a08231306040518263ffffffff1660e01b8152600401808273ffffffffffffffffffffffffffffffffffffffff1673ffffffffffffffffffffffffffffffffffffffff16815260200191505060206040518083038186803b158015611bd157600080fd5b505afa158015611be5573d6000803e3d6000fd5b505050506040513d6020811015611bfb57600080fd5b81019080805190602001909291905050506040518363ffffffff1660e01b8152600401808373ffffffffffffffffffffffffffffffffffffffff1673ffffffffffffffffffffffffffffffffffffffff16815260200182815260200192505050602060405180830381600087803b158015611c7557600080fd5b505af1158015611c89573d6000803e3d6000fd5b505050506040513d6020811015611c9f57600080fd5b8101908080519060200190929190505050611d22576040517f08c379a00000000000000000000000000000000000000000000000000000000081526004018080602001828103825260178152602001807f556e61626c6520746f207472616e73666572204c494e4b00000000000000000081525060200191505060405180910390fd5b50565b606060008090505b60208160ff16108015611d785750600060f81b838260ff1660208110611d4f57fe5b1a60f81b7effffffffffffffffffffffffffffffffffffffffffffffffffffffffffffff191614155b15611d8a578080600101915050611d2d565b60608160ff1667ffffffffffffffff81118015611da657600080fd5b506040519080825280601f01601f191660200182016040528015611dd95781602001600182028036833780820191505090505b509050600091505b60208260ff16108015611e2c5750600060f81b848360ff1660208110611e0357fe5b1a60f81b7effffffffffffffffffffffffffffffffffffffffffffffffffffffffffffff191614155b15611e8f57838260ff1660208110611e4057fe5b1a60f81b818360ff1681518110611e5357fe5b60200101907effffffffffffffffffffffffffffffffffffffffffffffffffffffffffffff1916908160001a9053508180600101925050611de1565b8092505050919050565b6060600d8054600181600116156101000203166002900480601f016020809104026020016040519081016040528092919081815260200182805460018160011615610100020316600290048015611f315780601f10611f0657610100808354040283529160200191611f31565b820191906000526020600020905b815481529060010190602001808311611f1457829003601f168201915b5050505050905090565b611f43612a37565b73ffffffffffffffffffffffffffffffffffffffff168273ffffffffffffffffffffffffffffffffffffffff161415611fe4576040517f08c379a00000000000000000000000000000000000000000000000000000000081526004018080602001828103825260198152602001807f4552433732313a20617070726f766520746f2063616c6c65720000000000000081525060200191505060405180910390fd5b80600b6000611ff1612a37565b73ffffffffffffffffffffffffffffffffffffffff1673ffffffffffffffffffffffffffffffffffffffff16815260200190815260200160002060008473ffffffffffffffffffffffffffffffffffffffff1673ffffffffffffffffffffffffffffffffffffffff16815260200190815260200160002060006101000a81548160ff0219169083151502179055508173ffffffffffffffffffffffffffffffffffffffff1661209e612a37565b73ffffffffffffffffffffffffffffffffffffffff167f17307eab39ab6107e8899845ad3d59bd9653f200f220920489ca2b5937696c3183604051808215151515815260200191505060405180910390a35050565b601060009054906101000a900473ffffffffffffffffffffffffffffffffffffffff1673ffffffffffffffffffffffffffffffffffffffff163373ffffffffffffffffffffffffffffffffffffffff161461214d57600080fd5b670de0b6b3a7640000810260168190555050565b61217261216c612a37565b83612b0d565b6121c7576040517f08c379a00000000000000000000000000000000000000000000000000000000081526004018080602001828103825260318152602001806148f46031913960400191505060405180910390fd5b6121d384848484613007565b50505050565b60606121e482612a1a565b612239576040517f08c379a000000000000000000000000000000000000000000000000000000000815260040180806020018281038252602f8152602001806148a4602f913960400191505060405180910390fd5b6060600e60008481526020019081526020016000208054600181600116156101000203166002900480601f0160208091040260200160405190810160405280929190818152602001828054600181600116156101000203166002900480156122e25780601f106122b7576101008083540402835291602001916122e2565b820191906000526020600020905b8154815290600101906020018083116122c557829003601f168201915b5050505050905060606122f36119b4565b90506000815114156123095781925050506124a5565b6000825111156123da5780826040516020018083805190602001908083835b6020831061234b5780518252602082019150602081019050602083039250612328565b6001836020036101000a03801982511681845116808217855250505050505090500182805190602001908083835b6020831061239c5780518252602082019150602081019050602083039250612379565b6001836020036101000a03801982511681845116808217855250505050505090500192505050604051602081830303815290604052925050506124a5565b806123e485613079565b6040516020018083805190602001908083835b6020831061241a57805182526020820191506020810190506020830392506123f7565b6001836020036101000a03801982511681845116808217855250505050505090500182805190602001908083835b6020831061246b5780518252602082019150602081019050602083039250612448565b6001836020036101000a03801982511681845116808217855250505050505090500192505050604051602081830303815290604052925050505b919050565b601060009054906101000a900473ffffffffffffffffffffffffffffffffffffffff1681565b6000600b60008473ffffffffffffffffffffffffffffffffffffffff1673ffffffffffffffffffffffffffffffffffffffff16815260200190815260200160002060008373ffffffffffffffffffffffffffffffffffffffff1673ffffffffffffffffffffffffffffffffffffffff16815260200190815260200160002060009054906101000a900460ff16905092915050565b600061256e614510565b6125826015543063042f2b6560e01b6126fe565b90506125e66040518060400160405280600381526020017f6765740000000000000000000000000000000000000000000000000000000000815250604051806060016040528060238152602001614800602391398361272f9092919063ffffffff16565b6126656040518060400160405280600481526020017f70617468000000000000000000000000000000000000000000000000000000008152506040518060400160405280600981526020017f495046535f5041544800000000000000000000000000000000000000000000008152508361272f9092919063ffffffff16565b612694601460009054906101000a900473ffffffffffffffffffffffffffffffffffffffff1682601654612762565b91505090565b601060009054906101000a900473ffffffffffffffffffffffffffffffffffffffff1673ffffffffffffffffffffffffffffffffffffffff163373ffffffffffffffffffffffffffffffffffffffff16146126f457600080fd5b8060158190555050565b612706614510565b61270e614510565b612725858585846131c0909392919063ffffffff16565b9150509392505050565b61274682846080015161327090919063ffffffff16565b61275d81846080015161327090919063ffffffff16565b505050565b600030600454604051602001808373ffffffffffffffffffffffffffffffffffffffff1673ffffffffffffffffffffffffffffffffffffffff1660601b815260140182815260200192505050604051602081830303815290604052805190602001209050600454836060018181525050836005600083815260200190815260200160002060006101000a81548173ffffffffffffffffffffffffffffffffffffffff021916908373ffffffffffffffffffffffffffffffffffffffff160217905550807fb5e6e01e79f91267dc17b4e6314d5d4d03593d2ceee0fbb452b750bd70ea5af960405160405180910390a2600260009054906101000a900473ffffffffffffffffffffffffffffffffffffffff1673ffffffffffffffffffffffffffffffffffffffff16634000aea0858461289a87613295565b6040518463ffffffff1660e01b8152600401808473ffffffffffffffffffffffffffffffffffffffff1673ffffffffffffffffffffffffffffffffffffffff16815260200183815260200180602001828103825283818151815260200191508051906020019080838360005b83811015612921578082015181840152602081019050612906565b50505050905090810190601f16801561294e5780820380516001836020036101000a031916815260200191505b50945050505050602060405180830381600087803b15801561296f57600080fd5b505af1158015612983573d6000803e3d6000fd5b505050506040513d602081101561299957600080fd5b81019080805190602001909291905050506129ff576040517f08c379a00000000000000000000000000000000000000000000000000000000081526004018080602001828103825260238152602001806146ba6023913960400191505060405180910390fd5b60016004600082825401925050819055508090509392505050565b6000612a3082600861346190919063ffffffff16565b9050919050565b600033905090565b81600a600083815260200190815260200160002060006101000a81548173ffffffffffffffffffffffffffffffffffffffff021916908373ffffffffffffffffffffffffffffffffffffffff160217905550808273ffffffffffffffffffffffffffffffffffffffff16612ab28361197d565b73ffffffffffffffffffffffffffffffffffffffff167f8c5be1e5ebec7d5bd14f71427d1e84f3dd0314c0f7b2291e5b200ac8c7c3b92560405160405180910390a45050565b6000612b068260000161347b565b9050919050565b6000612b1882612a1a565b612b6d576040517f08c379a000000000000000000000000000000000000000000000000000000000815260040180806020018281038252602c815260200180614727602c913960400191505060405180910390fd5b6000612b788361197d565b90508073ffffffffffffffffffffffffffffffffffffffff168473ffffffffffffffffffffffffffffffffffffffff161480612be757508373ffffffffffffffffffffffffffffffffffffffff16612bcf846111ec565b73ffffffffffffffffffffffffffffffffffffffff16145b80612bf85750612bf781856124d0565b5b91505092915050565b8273ffffffffffffffffffffffffffffffffffffffff16612c218261197d565b73ffffffffffffffffffffffffffffffffffffffff1614612c8d576040517f08c379a000000000000000000000000000000000000000000000000000000000815260040180806020018281038252602981526020018061487b6029913960400191505060405180910390fd5b600073ffffffffffffffffffffffffffffffffffffffff168273ffffffffffffffffffffffffffffffffffffffff161415612d13576040517f08c379a00000000000000000000000000000000000000000000000000000000081526004018080602001828103825260248152602001806146dd6024913960400191505060405180910390fd5b612d1e83838361348c565b612d29600082612a3f565b612d7a81600760008673ffffffffffffffffffffffffffffffffffffffff1673ffffffffffffffffffffffffffffffffffffffff16815260200190815260200160002061349190919063ffffffff16565b50612dcc81600760008573ffffffffffffffffffffffffffffffffffffffff1673ffffffffffffffffffffffffffffffffffffffff1681526020019081526020016000206134ab90919063ffffffff16565b50612de3818360086134c59092919063ffffffff16565b50808273ffffffffffffffffffffffffffffffffffffffff168473ffffffffffffffffffffffffffffffffffffffff167fddf252ad1be2c89b69c2b068fc378daa952ba7f163c4a11628f55a4df523b3ef60405160405180910390a4505050565b612e5e8282604051806020016040528060008152506134fa565b5050565b6060612e6f601154611d25565b90506060612e7e601254611d25565b9050612f2560138054600181600116156101000203166002900480601f016020809104026020016040519081016040528092919081815260200182805460018160011615610100020316600290048015612f195780601f10612eee57610100808354040283529160200191612f19565b820191906000526020600020905b815481529060010190602001808311612efc57829003601f168201915b505050505083836117a0565b60139080519060200190612f3a92919061457d565b505050565b612f4b6017548261356b565b60176000815480929190600101919050555050565b6000612f6f83600001836135f5565b60001c905092915050565b600080600080612f8d8660000186613678565b915091508160001c8160001c8090509350935050509250929050565b6000612fbc846000018460001b84613711565b60001c90509392505050565b6000612fd682600001613807565b9050919050565b6000600260009054906101000a900473ffffffffffffffffffffffffffffffffffffffff16905090565b613012848484612c01565b61301e84848484613818565b613073576040517f08c379a00000000000000000000000000000000000000000000000000000000081526004018080602001828103825260328152602001806146886032913960400191505060405180910390fd5b50505050565b606060008214156130c1576040518060400160405280600181526020017f300000000000000000000000000000000000000000000000000000000000000081525090506131bb565b600082905060005b600082146130eb578080600101915050600a82816130e357fe5b0491506130c9565b60608167ffffffffffffffff8111801561310457600080fd5b506040519080825280601f01601f1916602001820160405280156131375781602001600182028036833780820191505090505b50905060006001830390508593505b600084146131b357600a848161315857fe5b0660300160f81b8282806001900393508151811061317257fe5b60200101907effffffffffffffffffffffffffffffffffffffffffffffffffffffffffffff1916908160001a905350600a84816131ab57fe5b049350613146565b819450505050505b919050565b6131c8614510565b6131d88560800151610100613a5d565b508385600001818152505082856020019073ffffffffffffffffffffffffffffffffffffffff16908173ffffffffffffffffffffffffffffffffffffffff16815250508185604001907bffffffffffffffffffffffffffffffffffffffffffffffffffffffff191690817bffffffffffffffffffffffffffffffffffffffffffffffffffffffff191681525050849050949350505050565b61327d8260038351613ab1565b6132908183613bf690919063ffffffff16565b505050565b6060634042994660e01b60008084600001518560200151866040015187606001516001896080015160000151604051602401808973ffffffffffffffffffffffffffffffffffffffff1673ffffffffffffffffffffffffffffffffffffffff1681526020018881526020018781526020018673ffffffffffffffffffffffffffffffffffffffff1673ffffffffffffffffffffffffffffffffffffffff168152602001857bffffffffffffffffffffffffffffffffffffffffffffffffffffffff19167bffffffffffffffffffffffffffffffffffffffffffffffffffffffff1916815260200184815260200183815260200180602001828103825283818151815260200191508051906020019080838360005b838110156133c45780820151818401526020810190506133a9565b50505050905090810190601f1680156133f15780820380516001836020036101000a031916815260200191505b509950505050505050505050604051602081830303815290604052907bffffffffffffffffffffffffffffffffffffffffffffffffffffffff19166020820180517bffffffffffffffffffffffffffffffffffffffffffffffffffffffff83818316178352505050509050919050565b6000613473836000018360001b613c18565b905092915050565b600081600001805490509050919050565b505050565b60006134a3836000018360001b613c3b565b905092915050565b60006134bd836000018360001b613d23565b905092915050565b60006134f1846000018460001b8473ffffffffffffffffffffffffffffffffffffffff1660001b613d93565b90509392505050565b6135048383613e6f565b6135116000848484613818565b613566576040517f08c379a00000000000000000000000000000000000000000000000000000000081526004018080602001828103825260328152602001806146886032913960400191505060405180910390fd5b505050565b61357482612a1a565b6135c9576040517f08c379a000000000000000000000000000000000000000000000000000000000815260040180806020018281038252602c81526020018061484f602c913960400191505060405180910390fd5b80600e600084815260200190815260200160002090805190602001906135f092919061457d565b505050565b600081836000018054905011613656576040517f08c379a000000000000000000000000000000000000000000000000000000000815260040180806020018281038252602281526020018061463d6022913960400191505060405180910390fd5b82600001828154811061366557fe5b9060005260206000200154905092915050565b600080828460000180549050116136da576040517f08c379a00000000000000000000000000000000000000000000000000000000081526004018080602001828103825260228152602001806147de6022913960400191505060405180910390fd5b60008460000184815481106136eb57fe5b906000526020600020906002020190508060000154816001015492509250509250929050565b600080846001016000858152602001908152602001600020549050600081141583906137d8576040517f08c379a00000000000000000000000000000000000000000000000000000000081526004018080602001828103825283818151815260200191508051906020019080838360005b8381101561379d578082015181840152602081019050613782565b50505050905090810190601f1680156137ca5780820380516001836020036101000a031916815260200191505b509250505060405180910390fd5b508460000160018203815481106137eb57fe5b9060005260206000209060020201600101549150509392505050565b600081600001805490509050919050565b60006138398473ffffffffffffffffffffffffffffffffffffffff16614063565b6138465760019050613a55565b60606139dc63150b7a0260e01b61385b612a37565b888787604051602401808573ffffffffffffffffffffffffffffffffffffffff1673ffffffffffffffffffffffffffffffffffffffff1681526020018473ffffffffffffffffffffffffffffffffffffffff1673ffffffffffffffffffffffffffffffffffffffff16815260200183815260200180602001828103825283818151815260200191508051906020019080838360005b8381101561390b5780820151818401526020810190506138f0565b50505050905090810190601f1680156139385780820380516001836020036101000a031916815260200191505b5095505050505050604051602081830303815290604052907bffffffffffffffffffffffffffffffffffffffffffffffffffffffff19166020820180517bffffffffffffffffffffffffffffffffffffffffffffffffffffffff8381831617835250505050604051806060016040528060328152602001614688603291398773ffffffffffffffffffffffffffffffffffffffff166140769092919063ffffffff16565b905060008180602001905160208110156139f557600080fd5b8101908080519060200190929190505050905063150b7a0260e01b7bffffffffffffffffffffffffffffffffffffffffffffffffffffffff1916817bffffffffffffffffffffffffffffffffffffffffffffffffffffffff191614925050505b949350505050565b613a656145fd565b600060208381613a7157fe5b0614613a8a5760208281613a8157fe5b06602003820191505b81836020018181525050604051808452600081528281016020016040525082905092915050565b60178111613ade57613ad88160058460ff16901b60ff16178461408e90919063ffffffff16565b50613bf1565b60ff8111613b2057613b03601860058460ff16901b178461408e90919063ffffffff16565b50613b1a816001856140ae9092919063ffffffff16565b50613bf0565b61ffff8111613b6357613b46601960058460ff16901b178461408e90919063ffffffff16565b50613b5d816002856140ae9092919063ffffffff16565b50613bef565b63ffffffff8111613ba857613b8b601a60058460ff16901b178461408e90919063ffffffff16565b50613ba2816004856140ae9092919063ffffffff16565b50613bee565b67ffffffffffffffff8111613bed57613bd4601b60058460ff16901b178461408e90919063ffffffff16565b50613beb816008856140ae9092919063ffffffff16565b505b5b5b5b5b505050565b613bfe6145fd565b613c10838460000151518485516140d0565b905092915050565b600080836001016000848152602001908152602001600020541415905092915050565b60008083600101600084815260200190815260200160002054905060008114613d175760006001820390506000600186600001805490500390506000866000018281548110613c8657fe5b9060005260206000200154905080876000018481548110613ca357fe5b9060005260206000200181905550600183018760010160008381526020019081526020016000208190555086600001805480613cdb57fe5b60019003818190600052602060002001600090559055866001016000878152602001908152602001600020600090556001945050505050613d1d565b60009150505b92915050565b6000613d2f8383614189565b613d88578260000182908060018154018082558091505060019003906000526020600020016000909190919091505582600001805490508360010160008481526020019081526020016000208190555060019050613d8d565b600090505b92915050565b6000808460010160008581526020019081526020016000205490506000811415613e3a57846000016040518060400160405280868152602001858152509080600181540180825580915050600190039060005260206000209060020201600090919091909150600082015181600001556020820151816001015550508460000180549050856001016000868152602001908152602001600020819055506001915050613e68565b82856000016001830381548110613e4d57fe5b90600052602060002090600202016001018190555060009150505b9392505050565b600073ffffffffffffffffffffffffffffffffffffffff168273ffffffffffffffffffffffffffffffffffffffff161415613f12576040517f08c379a00000000000000000000000000000000000000000000000000000000081526004018080602001828103825260208152602001807f4552433732313a206d696e7420746f20746865207a65726f206164647265737381525060200191505060405180910390fd5b613f1b81612a1a565b15613f8e576040517f08c379a000000000000000000000000000000000000000000000000000000000815260040180806020018281038252601c8152602001807f4552433732313a20746f6b656e20616c7265616479206d696e7465640000000081525060200191505060405180910390fd5b613f9a6000838361348c565b613feb81600760008573ffffffffffffffffffffffffffffffffffffffff1673ffffffffffffffffffffffffffffffffffffffff1681526020019081526020016000206134ab90919063ffffffff16565b50614002818360086134c59092919063ffffffff16565b50808273ffffffffffffffffffffffffffffffffffffffff16600073ffffffffffffffffffffffffffffffffffffffff167fddf252ad1be2c89b69c2b068fc378daa952ba7f163c4a11628f55a4df523b3ef60405160405180910390a45050565b600080823b905060008111915050919050565b606061408584846000856141ac565b90509392505050565b6140966145fd565b6140a68384600001515184614355565b905092915050565b6140b66145fd565b6140c78485600001515185856143a3565b90509392505050565b6140d86145fd565b82518211156140e657600080fd5b846020015182850111156141115761411085600261410a8860200151888701614404565b02614420565b5b6000808651805187602083010193508088870111156141305787860182525b60208701925050505b6020841061415c5780518252602082019150602081019050602084039350614139565b60006001856020036101000a03905080198251168184511681811785525050879350505050949350505050565b600080836001016000848152602001908152602001600020541415905092915050565b606082471015614207576040517f08c379a00000000000000000000000000000000000000000000000000000000081526004018080602001828103825260268152602001806147016026913960400191505060405180910390fd5b61421085614063565b614282576040517f08c379a000000000000000000000000000000000000000000000000000000000815260040180806020018281038252601d8152602001807f416464726573733a2063616c6c20746f206e6f6e2d636f6e747261637400000081525060200191505060405180910390fd5b600060608673ffffffffffffffffffffffffffffffffffffffff1685876040518082805190602001908083835b602083106142d257805182526020820191506020810190506020830392506142af565b6001836020036101000a03801982511681845116808217855250505050505090500191505060006040518083038185875af1925050503d8060008114614334576040519150601f19603f3d011682016040523d82523d6000602084013e614339565b606091505b5091509150614349828286614444565b92505050949350505050565b61435d6145fd565b8360200151831061437a57614379846002866020015102614420565b5b8351805160208583010184815381861415614396576001820183525b5050508390509392505050565b6143ab6145fd565b846020015184830111156143c9576143c885600286850102614420565b5b60006001836101000a03905085518386820101858319825116178152815185880111156143f65784870182525b505085915050949350505050565b6000818311156144165782905061441a565b8190505b92915050565b6060826000015190506144338383613a5d565b5061443e8382613bf6565b50505050565b6060831561445457829050614509565b6000835111156144675782518084602001fd5b816040517f08c379a00000000000000000000000000000000000000000000000000000000081526004018080602001828103825283818151815260200191508051906020019080838360005b838110156144ce5780820151818401526020810190506144b3565b50505050905090810190601f1680156144fb5780820380516001836020036101000a031916815260200191505b509250505060405180910390fd5b9392505050565b6040518060a0016040528060008019168152602001600073ffffffffffffffffffffffffffffffffffffffff16815260200160007bffffffffffffffffffffffffffffffffffffffffffffffffffffffff19168152602001600081526020016145776145fd565b81525090565b828054600181600116156101000203166002900490600052602060002090601f016020900481019282601f106145be57805160ff19168380011785556145ec565b828001600101855582156145ec579182015b828111156145eb5782518255916020019190600101906145d0565b5b5090506145f99190614617565b5090565b604051806040016040528060608152602001600081525090565b61463991905b8082111561463557600081600090555060010161461d565b5090565b9056fe456e756d657261626c655365743a20696e646578206f7574206f6620626f756e647368747470733a2f2f696d616765732d626c656e642e6865726f6b756170702e636f6d2f7365636f6e644552433732313a207472616e7366657220746f206e6f6e20455243373231526563656976657220696d706c656d656e746572756e61626c6520746f207472616e73666572416e6443616c6c20746f206f7261636c654552433732313a207472616e7366657220746f20746865207a65726f2061646472657373416464726573733a20696e73756666696369656e742062616c616e636520666f722063616c6c4552433732313a206f70657261746f7220717565727920666f72206e6f6e6578697374656e7420746f6b656e4552433732313a20617070726f76652063616c6c6572206973206e6f74206f776e6572206e6f7220617070726f76656420666f7220616c6c4552433732313a2062616c616e636520717565727920666f7220746865207a65726f20616464726573734552433732313a206f776e657220717565727920666f72206e6f6e6578697374656e7420746f6b656e456e756d657261626c654d61703a20696e646578206f7574206f6620626f756e647368747470733a2f2f696d616765732d626c656e642e6865726f6b756170702e636f6d2f4552433732313a20617070726f76656420717565727920666f72206e6f6e6578697374656e7420746f6b656e4552433732314d657461646174613a2055524920736574206f66206e6f6e6578697374656e7420746f6b656e4552433732313a207472616e73666572206f6620746f6b656e2074686174206973206e6f74206f776e4552433732314d657461646174613a2055524920717565727920666f72206e6f6e6578697374656e7420746f6b656e4552433732313a20617070726f76616c20746f2063757272656e74206f776e65724552433732313a207472616e736665722063616c6c6572206973206e6f74206f776e6572206e6f7220617070726f766564536f75726365206d75737420626520746865206f7261636c65206f66207468652072657175657374a264697066735822122005624a16575764cf00f6819831850ae9fc0246e4710cd033a21f64630ac734b764736f6c63430006060033",
  "immutableReferences": {},
  "source": "// SPDX-License-Identifier: MIT\npragma solidity ^0.6.6;\n\nimport \"@chainlink/contracts/src/v0.6/ChainlinkClient.sol\";\nimport \"@openzeppelin/contracts/token/ERC721/ERC721.sol\";\n\ncontract TurtleCharacter is ChainlinkClient, ERC721 {\n    address public contractOwner;\n\n\n    bytes32 private ipfsHashOneBytes32;\n    bytes32 private ipfsHashTwoBytes32;\n    string public ipfsLink = \"https://ipfs.io/ipfs/\";\n\n    address private oracle;\n    bytes32 private jobId;\n    uint256 private fee;\n    uint256 private uniqueTokenId = 0;\n\n    /**\n     * Network: Rinkeby\n     * Oracle - 0x3A56aE4a2831C3d3514b5D7Af5578E45eBDb7a40\n     * Job ID - 187bb80e5ee74a139734cac7475f3c6e\n     * Fee: 0.01 LINK\n     */\n    constructor() public ERC721(\"TurtleCharacter\", \"TRTL\") {\n        setPublicChainlinkToken();\n        contractOwner = msg.sender;\n        oracle = 0x3A56aE4a2831C3d3514b5D7Af5578E45eBDb7a40;\n        jobId = \"187bb80e5ee74a139734cac7475f3c6e\";\n        fee = 0.01 * 10**18; // 0.01 LINK\n    }\n\n    modifier onlyContractOwner() {\n        require(msg.sender == contractOwner);\n        _;\n    }\n\n    function setOracleAddress(address _oracleAddress) public onlyContractOwner {\n        oracle = _oracleAddress;\n    }\n\n    function setJobID(bytes32 _jobID) public onlyContractOwner {\n        jobId = _jobID;\n    }\n\n    function setFeeInLink(uint256 _fee) public onlyContractOwner {\n        fee = _fee * 10**18;\n    }\n\n    function requestRandomCharacter() public {\n        ipfsLink = \"https://ipfs.io/ipfs/\";\n        _safeMint(msg.sender, uniqueTokenId);\n        requestIPFSHash();\n    }\n\n    function requestIPFSHash() public returns (bytes32 requestId) {\n        Chainlink.Request memory request = buildChainlinkRequest(\n            jobId,\n            address(this),\n            this.fulfill.selector\n        );\n        request.add(\"get\", \"https://images-blend.herokuapp.com/\");\n        request.add(\"path\", \"IPFS_PATH\");\n\n        return sendChainlinkRequestTo(oracle, request, fee);\n    }\n\n    function fulfill(bytes32 _requestId, bytes32 dataFromAPI) public recordChainlinkFulfillment(_requestId) returns (bytes32 requestId) {\n        ipfsHashOneBytes32 = dataFromAPI;\n\n        Chainlink.Request memory request = buildChainlinkRequest(\n            jobId,\n            address(this),\n            this.fulfillSecondRequest.selector\n        );\n        request.add(\"get\", \"https://images-blend.herokuapp.com/second\");\n        request.add(\"path\", \"IPFS_PATH\");\n\n        return sendChainlinkRequestTo(oracle, request, fee);\n    }\n\n    function fulfillSecondRequest(bytes32 _requestId, bytes32 dataFromAPI) public recordChainlinkFulfillment(_requestId) {\n        ipfsHashTwoBytes32 = dataFromAPI;\n        generateIPFSLink();\n        setTokenURI(ipfsLink);\n    }\n\n    function bytes32ToString(bytes32 _bytes32) public pure returns (string memory) {\n        uint8 i = 0;\n        while (i < 32 && _bytes32[i] != 0) {\n            i++;\n        }\n        bytes memory bytesArray = new bytes(i);\n        for (i = 0; i < 32 && _bytes32[i] != 0; i++) {\n            bytesArray[i] = _bytes32[i];\n        }\n        return string(bytesArray);\n    }\n\n    function generateIPFSLink() private {\n        string memory ipfsHashPartOne = bytes32ToString(ipfsHashOneBytes32);\n        string memory ipfsHashPartTwo = bytes32ToString(ipfsHashTwoBytes32);\n        ipfsLink = append(ipfsLink, ipfsHashPartOne, ipfsHashPartTwo);\n    }\n\n    function append(\n        string memory a,\n        string memory b,\n        string memory c\n    ) public pure returns (string memory) {\n        return string(abi.encodePacked(a, b, c));\n    }\n\n    function withdrawLink() external {\n        LinkTokenInterface linkToken = LinkTokenInterface(\n            chainlinkTokenAddress()\n        );\n        require(\n            linkToken.transfer(msg.sender, linkToken.balanceOf(address(this))),\n            \"Unable to transfer LINK\"\n        );\n    }\n\n    function setTokenURI(string memory _tokenURI) private {\n        _setTokenURI(uniqueTokenId, _tokenURI);\n        uniqueTokenId++;\n    }\n}\n",
  "sourcePath": "D:/EthOdyssey/NFT-Game/contracts/TurtleCharacter.sol",
  "compiler": {
    "name": "solc",
    "version": "0.6.6+commit.6c089d02.Emscripten.clang"
  },
  "schemaVersion": "3.4.1",
  "updatedAt": "2021-07-27T12:17:29.144Z",
  "devdoc": {
    "methods": {
      "approve(address,uint256)": {
        "details": "See {IERC721-approve}."
      },
      "balanceOf(address)": {
        "details": "See {IERC721-balanceOf}."
      },
      "baseURI()": {
        "details": "Returns the base URI set via {_setBaseURI}. This will be automatically added as a prefix in {tokenURI} to each token's URI, or to the token ID if no specific URI is set for that token ID."
      },
      "getApproved(uint256)": {
        "details": "See {IERC721-getApproved}."
      },
      "isApprovedForAll(address,address)": {
        "details": "See {IERC721-isApprovedForAll}."
      },
      "name()": {
        "details": "See {IERC721Metadata-name}."
      },
      "ownerOf(uint256)": {
        "details": "See {IERC721-ownerOf}."
      },
      "safeTransferFrom(address,address,uint256)": {
        "details": "See {IERC721-safeTransferFrom}."
      },
      "safeTransferFrom(address,address,uint256,bytes)": {
        "details": "See {IERC721-safeTransferFrom}."
      },
      "setApprovalForAll(address,bool)": {
        "details": "See {IERC721-setApprovalForAll}."
      },
      "supportsInterface(bytes4)": {
        "details": "See {IERC165-supportsInterface}.     * Time complexity O(1), guaranteed to always use less than 30 000 gas."
      },
      "symbol()": {
        "details": "See {IERC721Metadata-symbol}."
      },
      "tokenByIndex(uint256)": {
        "details": "See {IERC721Enumerable-tokenByIndex}."
      },
      "tokenOfOwnerByIndex(address,uint256)": {
        "details": "See {IERC721Enumerable-tokenOfOwnerByIndex}."
      },
      "tokenURI(uint256)": {
        "details": "See {IERC721Metadata-tokenURI}."
      },
      "totalSupply()": {
        "details": "See {IERC721Enumerable-totalSupply}."
      },
      "transferFrom(address,address,uint256)": {
        "details": "See {IERC721-transferFrom}."
      }
    }
  },
  "userdoc": {
    "methods": {
      "constructor": "Network: Rinkeby Oracle - 0x3A56aE4a2831C3d3514b5D7Af5578E45eBDb7a40 Job ID - 187bb80e5ee74a139734cac7475f3c6e Fee: 0.01 LINK"
    }
  }
}