{
  "contractName": "TurtisGameUserAuth",
  "abi": [
    {
      "inputs": [
        {
          "internalType": "string",
          "name": "_nickName",
          "type": "string"
        }
      ],
      "stateMutability": "nonpayable",
      "type": "constructor"
    },
    {
      "anonymous": false,
      "inputs": [
        {
          "indexed": false,
          "internalType": "string",
          "name": "nickName",
          "type": "string"
        }
      ],
      "name": "AccountCreated",
      "type": "event"
    },
    {
      "inputs": [
        {
          "internalType": "string",
          "name": "_nickName",
          "type": "string"
        }
      ],
      "name": "createAccount",
      "outputs": [],
      "stateMutability": "nonpayable",
      "type": "function"
    },
    {
      "inputs": [
        {
          "internalType": "string",
          "name": "_nickName",
          "type": "string"
        }
      ],
      "name": "addressByNickName",
      "outputs": [
        {
          "internalType": "address",
          "name": "",
          "type": "address"
        }
      ],
      "stateMutability": "view",
      "type": "function",
      "constant": true
    },
    {
      "inputs": [
        {
          "internalType": "address",
          "name": "_address",
          "type": "address"
        }
      ],
      "name": "nickNameByAddress",
      "outputs": [
        {
          "internalType": "string",
          "name": "",
          "type": "string"
        }
      ],
      "stateMutability": "view",
      "type": "function",
      "constant": true
    },
    {
      "inputs": [],
      "name": "getRegisteredAccounts",
      "outputs": [
        {
          "internalType": "address[]",
          "name": "",
          "type": "address[]"
        }
      ],
      "stateMutability": "view",
      "type": "function",
      "constant": true
    }
  ],
  "bytecode": "0x608060405234801561001057600080fd5b50604051610d19380380610d198339818101604052602081101561003357600080fd5b810190808051604051939291908464010000000082111561005357600080fd5b8382019150602082018581111561006957600080fd5b825186600182028301116401000000008211171561008657600080fd5b8083526020830192505050908051906020019080838360005b838110156100ba57808201518184015260208101905061009f565b50505050905090810190601f1680156100e75780820380516001836020036101000a031916815260200191505b50604052505050336000806101000a81548173ffffffffffffffffffffffffffffffffffffffff021916908373ffffffffffffffffffffffffffffffffffffffff16021790555060018081905550336004826040518082805190602001908083835b6020831061016c5780518252602082019150602081019050602083039250610149565b6001836020036101000a038019825116818451168082178552505050505050905001915050908152602001604051809103902060006101000a81548173ffffffffffffffffffffffffffffffffffffffff021916908373ffffffffffffffffffffffffffffffffffffffff16021790555080600360003373ffffffffffffffffffffffffffffffffffffffff1673ffffffffffffffffffffffffffffffffffffffff168152602001908152602001600020908051906020019061023092919061029a565b506002339080600181540180825580915050600190039060005260206000200160009091909190916101000a81548173ffffffffffffffffffffffffffffffffffffffff021916908373ffffffffffffffffffffffffffffffffffffffff1602179055505061033f565b828054600181600116156101000203166002900490600052602060002090601f016020900481019282601f106102db57805160ff1916838001178555610309565b82800160010185558215610309579182015b828111156103085782518255916020019190600101906102ed565b5b509050610316919061031a565b5090565b61033c91905b80821115610338576000816000905550600101610320565b5090565b90565b6109cb8061034e6000396000f3fe608060405234801561001057600080fd5b506004361061004c5760003560e01c8063298daf5b146100515780632cc5cdd31461010c5780638b374a32146102075780638dda93e3146102c4575b600080fd5b61010a6004803603602081101561006757600080fd5b810190808035906020019064010000000081111561008457600080fd5b82018360208201111561009657600080fd5b803590602001918460018302840111640100000000831117156100b857600080fd5b91908080601f016020809104026020016040519081016040528093929190818152602001838380828437600081840152601f19601f820116905080830192505050505050509192919290505050610323565b005b6101c56004803603602081101561012257600080fd5b810190808035906020019064010000000081111561013f57600080fd5b82018360208201111561015157600080fd5b8035906020019184600183028401116401000000008311171561017357600080fd5b91908080601f016020809104026020016040519081016040528093929190818152602001838380828437600081840152601f19601f820116905080830192505050505050509192919290505050610698565b604051808273ffffffffffffffffffffffffffffffffffffffff1673ffffffffffffffffffffffffffffffffffffffff16815260200191505060405180910390f35b6102496004803603602081101561021d57600080fd5b81019080803573ffffffffffffffffffffffffffffffffffffffff16906020019092919050505061072b565b6040518080602001828103825283818151815260200191508051906020019080838360005b8381101561028957808201518184015260208101905061026e565b50505050905090810190601f1680156102b65780820380516001836020036101000a031916815260200191505b509250505060405180910390f35b6102cc61080c565b6040518080602001828103825283818151815260200191508051906020019060200280838360005b8381101561030f5780820151818401526020810190506102f4565b505050509050019250505060405180910390f35b60208151111561037e576040517f08c379a000000000000000000000000000000000000000000000000000000000815260040180806020018281038252602e815260200180610940602e913960400191505060405180910390fd5b60028151116103d8576040517f08c379a000000000000000000000000000000000000000000000000000000000815260040180806020018281038252602881526020018061096e6028913960400191505060405180910390fd5b600073ffffffffffffffffffffffffffffffffffffffff166004826040518082805190602001908083835b602083106104265780518252602082019150602081019050602083039250610403565b6001836020036101000a038019825116818451168082178552505050505050905001915050908152602001604051809103902060009054906101000a900473ffffffffffffffffffffffffffffffffffffffff1673ffffffffffffffffffffffffffffffffffffffff161461049a57600080fd5b336004826040518082805190602001908083835b602083106104d157805182526020820191506020810190506020830392506104ae565b6001836020036101000a038019825116818451168082178552505050505050905001915050908152602001604051809103902060006101000a81548173ffffffffffffffffffffffffffffffffffffffff021916908373ffffffffffffffffffffffffffffffffffffffff16021790555080600360003373ffffffffffffffffffffffffffffffffffffffff1673ffffffffffffffffffffffffffffffffffffffff168152602001908152602001600020908051906020019061059592919061089a565b506002339080600181540180825580915050600190039060005260206000200160009091909190916101000a81548173ffffffffffffffffffffffffffffffffffffffff021916908373ffffffffffffffffffffffffffffffffffffffff1602179055507f4952d20ae14916eae94ccc55a2379b737f3bc5e4874f6709bfb08611d3623133816040518080602001828103825283818151815260200191508051906020019080838360005b8381101561065b578082015181840152602081019050610640565b50505050905090810190601f1680156106885780820380516001836020036101000a031916815260200191505b509250505060405180910390a150565b60006004826040518082805190602001908083835b602083106106d057805182526020820191506020810190506020830392506106ad565b6001836020036101000a038019825116818451168082178552505050505050905001915050908152602001604051809103902060009054906101000a900473ffffffffffffffffffffffffffffffffffffffff169050919050565b6060600360008373ffffffffffffffffffffffffffffffffffffffff1673ffffffffffffffffffffffffffffffffffffffff1681526020019081526020016000208054600181600116156101000203166002900480601f0160208091040260200160405190810160405280929190818152602001828054600181600116156101000203166002900480156108005780601f106107d557610100808354040283529160200191610800565b820191906000526020600020905b8154815290600101906020018083116107e357829003601f168201915b50505050509050919050565b6060600280548060200260200160405190810160405280929190818152602001828054801561089057602002820191906000526020600020905b8160009054906101000a900473ffffffffffffffffffffffffffffffffffffffff1673ffffffffffffffffffffffffffffffffffffffff1681526020019060010190808311610846575b5050505050905090565b828054600181600116156101000203166002900490600052602060002090601f016020900481019282601f106108db57805160ff1916838001178555610909565b82800160010185558215610909579182015b828111156109085782518255916020019190600101906108ed565b5b509050610916919061091a565b5090565b61093c91905b80821115610938576000816000905550600101610920565b5090565b9056fe4e69636b6e616d652073686f756c64206e6f74206265206d6f7265207468616e20333220636861726163746572734e69636b206e616d652073686f756c642062652061746c6561737420332063686172616374657273a264697066735822122011eebdfaf70c4bffd8c2de5d526c800891421b3f935bc1667f8bca683885868f64736f6c63430006060033",
  "immutableReferences": {},
  "source": "pragma solidity ^0.6.6;\r\n\r\ncontract TurtisGameUserAuth {\r\n  address authContractOwner; // Owner of this contract\r\n\r\n  uint256 totalAccounts; // Total number of registered accounts\r\n\r\n  address[] registeredAccounts; // Array of registered addresses\r\n\r\n  // Mapping from address of the user to nickName\r\n  mapping(address => string) addressToNickName;\r\n\r\n  // Mapping from nickName to address of the user\r\n  mapping(string => address) nickNameToAddress;\r\n\r\n  // Event is emitted when the account is created\r\n  event AccountCreated(string nickName);\r\n\r\n  // Contructor is called when an instance of 'TurtleGameUserAuth' contract is deployed\r\n  constructor(string memory _nickName) public {\r\n    authContractOwner = msg.sender;\r\n    totalAccounts = 1;\r\n    nickNameToAddress[_nickName] = msg.sender;\r\n    addressToNickName[msg.sender] = _nickName;\r\n    registeredAccounts.push(msg.sender);\r\n  }\r\n\r\n  // Function 'createAccount' creates an account for a unique nickName\r\n  function createAccount(string memory _nickName) public {\r\n    require(\r\n      bytes(_nickName).length <= 32,\r\n      \"Nickname should not be more than 32 characters\"\r\n    );\r\n    require(\r\n      bytes(_nickName).length > 2,\r\n      \"Nick name should be atleast 3 characters\"\r\n    );\r\n    require(nickNameToAddress[_nickName] == address(0));\r\n    nickNameToAddress[_nickName] = msg.sender;\r\n    addressToNickName[msg.sender] = _nickName;\r\n    registeredAccounts.push(msg.sender);\r\n\r\n    emit AccountCreated(_nickName);\r\n  }\r\n\r\n  // Function 'addressByNickName' returns address of the user by their nickName\r\n  function addressByNickName(string memory _nickName)\r\n    public\r\n    view\r\n    returns (address)\r\n  {\r\n    return nickNameToAddress[_nickName];\r\n  }\r\n\r\n  // Function 'nickNameByAddress' returns nickName of the user by their wallet address\r\n  function nickNameByAddress(address _address)\r\n    public\r\n    view\r\n    returns (string memory)\r\n  {\r\n    return addressToNickName[_address];\r\n  }\r\n\r\n  // Function 'getRegisteredAccounts' returns the list of registered accounts\r\n  function getRegisteredAccounts() public view returns (address[] memory) {\r\n    return registeredAccounts;\r\n  }\r\n}\r\n",
  "sourcePath": "C:/Users/dines/Downloads/NFT-Game/contracts/TurtisGameUserAuth.sol",
  "compiler": {
    "name": "solc",
    "version": "0.6.6+commit.6c089d02.Emscripten.clang"
  },
  "schemaVersion": "3.4.1",
  "updatedAt": "2021-08-05T19:48:21.089Z",
  "networkType": "ethereum",
  "devdoc": {
    "methods": {}
  },
  "userdoc": {
    "methods": {}
  }
}