{
  "contractName": "Turtis",
  "abi": [
    {
      "inputs": [],
      "stateMutability": "nonpayable",
      "type": "constructor"
    },
    {
      "anonymous": false,
      "inputs": [
        {
          "indexed": true,
          "internalType": "address",
          "name": "owner",
          "type": "address"
        },
        {
          "indexed": true,
          "internalType": "address",
          "name": "approved",
          "type": "address"
        },
        {
          "indexed": true,
          "internalType": "uint256",
          "name": "tokenId",
          "type": "uint256"
        }
      ],
      "name": "Approval",
      "type": "event"
    },
    {
      "anonymous": false,
      "inputs": [
        {
          "indexed": true,
          "internalType": "address",
          "name": "owner",
          "type": "address"
        },
        {
          "indexed": true,
          "internalType": "address",
          "name": "operator",
          "type": "address"
        },
        {
          "indexed": false,
          "internalType": "bool",
          "name": "approved",
          "type": "bool"
        }
      ],
      "name": "ApprovalForAll",
      "type": "event"
    },
    {
      "anonymous": false,
      "inputs": [
        {
          "indexed": true,
          "internalType": "bytes32",
          "name": "id",
          "type": "bytes32"
        }
      ],
      "name": "ChainlinkCancelled",
      "type": "event"
    },
    {
      "anonymous": false,
      "inputs": [
        {
          "indexed": true,
          "internalType": "bytes32",
          "name": "id",
          "type": "bytes32"
        }
      ],
      "name": "ChainlinkFulfilled",
      "type": "event"
    },
    {
      "anonymous": false,
      "inputs": [
        {
          "indexed": true,
          "internalType": "bytes32",
          "name": "id",
          "type": "bytes32"
        }
      ],
      "name": "ChainlinkRequested",
      "type": "event"
    },
    {
      "anonymous": false,
      "inputs": [
        {
          "indexed": false,
          "internalType": "string",
          "name": "ipfsLink",
          "type": "string"
        }
      ],
      "name": "DataReceivedFromAPI",
      "type": "event"
    },
    {
      "anonymous": false,
      "inputs": [
        {
          "indexed": false,
          "internalType": "uint256",
          "name": "tokenId",
          "type": "uint256"
        }
      ],
      "name": "NewTurtleGenerated",
      "type": "event"
    },
    {
      "anonymous": false,
      "inputs": [
        {
          "indexed": true,
          "internalType": "address",
          "name": "from",
          "type": "address"
        },
        {
          "indexed": true,
          "internalType": "address",
          "name": "to",
          "type": "address"
        },
        {
          "indexed": true,
          "internalType": "uint256",
          "name": "tokenId",
          "type": "uint256"
        }
      ],
      "name": "Transfer",
      "type": "event"
    },
    {
      "anonymous": false,
      "inputs": [
        {
          "indexed": false,
          "internalType": "uint256",
          "name": "tokenId",
          "type": "uint256"
        }
      ],
      "name": "TurtleBought",
      "type": "event"
    },
    {
      "anonymous": false,
      "inputs": [
        {
          "indexed": false,
          "internalType": "uint256",
          "name": "tokenId",
          "type": "uint256"
        }
      ],
      "name": "TurtleUpForSale",
      "type": "event"
    },
    {
      "inputs": [
        {
          "internalType": "address",
          "name": "to",
          "type": "address"
        },
        {
          "internalType": "uint256",
          "name": "tokenId",
          "type": "uint256"
        }
      ],
      "name": "approve",
      "outputs": [],
      "stateMutability": "nonpayable",
      "type": "function"
    },
    {
      "inputs": [
        {
          "internalType": "address",
          "name": "owner",
          "type": "address"
        }
      ],
      "name": "balanceOf",
      "outputs": [
        {
          "internalType": "uint256",
          "name": "",
          "type": "uint256"
        }
      ],
      "stateMutability": "view",
      "type": "function",
      "constant": true
    },
    {
      "inputs": [],
      "name": "baseURI",
      "outputs": [
        {
          "internalType": "string",
          "name": "",
          "type": "string"
        }
      ],
      "stateMutability": "view",
      "type": "function",
      "constant": true
    },
    {
      "inputs": [],
      "name": "contractOwner",
      "outputs": [
        {
          "internalType": "address",
          "name": "",
          "type": "address"
        }
      ],
      "stateMutability": "view",
      "type": "function",
      "constant": true
    },
    {
      "inputs": [
        {
          "internalType": "uint256",
          "name": "tokenId",
          "type": "uint256"
        }
      ],
      "name": "getApproved",
      "outputs": [
        {
          "internalType": "address",
          "name": "",
          "type": "address"
        }
      ],
      "stateMutability": "view",
      "type": "function",
      "constant": true
    },
    {
      "inputs": [],
      "name": "ipfsLink",
      "outputs": [
        {
          "internalType": "string",
          "name": "",
          "type": "string"
        }
      ],
      "stateMutability": "view",
      "type": "function",
      "constant": true
    },
    {
      "inputs": [
        {
          "internalType": "address",
          "name": "owner",
          "type": "address"
        },
        {
          "internalType": "address",
          "name": "operator",
          "type": "address"
        }
      ],
      "name": "isApprovedForAll",
      "outputs": [
        {
          "internalType": "bool",
          "name": "",
          "type": "bool"
        }
      ],
      "stateMutability": "view",
      "type": "function",
      "constant": true
    },
    {
      "inputs": [],
      "name": "name",
      "outputs": [
        {
          "internalType": "string",
          "name": "",
          "type": "string"
        }
      ],
      "stateMutability": "view",
      "type": "function",
      "constant": true
    },
    {
      "inputs": [
        {
          "internalType": "uint256",
          "name": "tokenId",
          "type": "uint256"
        }
      ],
      "name": "ownerOf",
      "outputs": [
        {
          "internalType": "address",
          "name": "",
          "type": "address"
        }
      ],
      "stateMutability": "view",
      "type": "function",
      "constant": true
    },
    {
      "inputs": [
        {
          "internalType": "address",
          "name": "from",
          "type": "address"
        },
        {
          "internalType": "address",
          "name": "to",
          "type": "address"
        },
        {
          "internalType": "uint256",
          "name": "tokenId",
          "type": "uint256"
        }
      ],
      "name": "safeTransferFrom",
      "outputs": [],
      "stateMutability": "nonpayable",
      "type": "function"
    },
    {
      "inputs": [
        {
          "internalType": "address",
          "name": "from",
          "type": "address"
        },
        {
          "internalType": "address",
          "name": "to",
          "type": "address"
        },
        {
          "internalType": "uint256",
          "name": "tokenId",
          "type": "uint256"
        },
        {
          "internalType": "bytes",
          "name": "_data",
          "type": "bytes"
        }
      ],
      "name": "safeTransferFrom",
      "outputs": [],
      "stateMutability": "nonpayable",
      "type": "function"
    },
    {
      "inputs": [
        {
          "internalType": "address",
          "name": "operator",
          "type": "address"
        },
        {
          "internalType": "bool",
          "name": "approved",
          "type": "bool"
        }
      ],
      "name": "setApprovalForAll",
      "outputs": [],
      "stateMutability": "nonpayable",
      "type": "function"
    },
    {
      "inputs": [
        {
          "internalType": "bytes4",
          "name": "interfaceId",
          "type": "bytes4"
        }
      ],
      "name": "supportsInterface",
      "outputs": [
        {
          "internalType": "bool",
          "name": "",
          "type": "bool"
        }
      ],
      "stateMutability": "view",
      "type": "function",
      "constant": true
    },
    {
      "inputs": [],
      "name": "symbol",
      "outputs": [
        {
          "internalType": "string",
          "name": "",
          "type": "string"
        }
      ],
      "stateMutability": "view",
      "type": "function",
      "constant": true
    },
    {
      "inputs": [
        {
          "internalType": "uint256",
          "name": "index",
          "type": "uint256"
        }
      ],
      "name": "tokenByIndex",
      "outputs": [
        {
          "internalType": "uint256",
          "name": "",
          "type": "uint256"
        }
      ],
      "stateMutability": "view",
      "type": "function",
      "constant": true
    },
    {
      "inputs": [
        {
          "internalType": "address",
          "name": "owner",
          "type": "address"
        },
        {
          "internalType": "uint256",
          "name": "index",
          "type": "uint256"
        }
      ],
      "name": "tokenOfOwnerByIndex",
      "outputs": [
        {
          "internalType": "uint256",
          "name": "",
          "type": "uint256"
        }
      ],
      "stateMutability": "view",
      "type": "function",
      "constant": true
    },
    {
      "inputs": [
        {
          "internalType": "uint256",
          "name": "tokenId",
          "type": "uint256"
        }
      ],
      "name": "tokenURI",
      "outputs": [
        {
          "internalType": "string",
          "name": "",
          "type": "string"
        }
      ],
      "stateMutability": "view",
      "type": "function",
      "constant": true
    },
    {
      "inputs": [],
      "name": "totalSupply",
      "outputs": [
        {
          "internalType": "uint256",
          "name": "",
          "type": "uint256"
        }
      ],
      "stateMutability": "view",
      "type": "function",
      "constant": true
    },
    {
      "inputs": [
        {
          "internalType": "address",
          "name": "from",
          "type": "address"
        },
        {
          "internalType": "address",
          "name": "to",
          "type": "address"
        },
        {
          "internalType": "uint256",
          "name": "tokenId",
          "type": "uint256"
        }
      ],
      "name": "transferFrom",
      "outputs": [],
      "stateMutability": "nonpayable",
      "type": "function"
    },
    {
      "inputs": [
        {
          "internalType": "uint256",
          "name": "",
          "type": "uint256"
        }
      ],
      "name": "turtlesForSale",
      "outputs": [
        {
          "internalType": "uint256",
          "name": "",
          "type": "uint256"
        }
      ],
      "stateMutability": "view",
      "type": "function",
      "constant": true
    },
    {
      "inputs": [
        {
          "internalType": "address",
          "name": "_oracleAddress",
          "type": "address"
        }
      ],
      "name": "setOracleAddress",
      "outputs": [],
      "stateMutability": "nonpayable",
      "type": "function"
    },
    {
      "inputs": [
        {
          "internalType": "string",
          "name": "_jobID",
          "type": "string"
        }
      ],
      "name": "setJobID",
      "outputs": [],
      "stateMutability": "nonpayable",
      "type": "function"
    },
    {
      "inputs": [
        {
          "internalType": "uint256",
          "name": "_fee",
          "type": "uint256"
        }
      ],
      "name": "setFeeInLink",
      "outputs": [],
      "stateMutability": "nonpayable",
      "type": "function"
    },
    {
      "inputs": [
        {
          "internalType": "string",
          "name": "_url",
          "type": "string"
        }
      ],
      "name": "setApiBaseUrl",
      "outputs": [],
      "stateMutability": "nonpayable",
      "type": "function"
    },
    {
      "inputs": [
        {
          "internalType": "string",
          "name": "_url",
          "type": "string"
        }
      ],
      "name": "setApiSecondUrl",
      "outputs": [],
      "stateMutability": "nonpayable",
      "type": "function"
    },
    {
      "inputs": [
        {
          "internalType": "uint256",
          "name": "_tokenId",
          "type": "uint256"
        }
      ],
      "name": "buyTurtle",
      "outputs": [],
      "stateMutability": "payable",
      "type": "function",
      "payable": true
    },
    {
      "inputs": [
        {
          "internalType": "uint256",
          "name": "_tokenId",
          "type": "uint256"
        },
        {
          "internalType": "uint256",
          "name": "_price",
          "type": "uint256"
        }
      ],
      "name": "putUpTurtleForSale",
      "outputs": [],
      "stateMutability": "nonpayable",
      "type": "function"
    },
    {
      "inputs": [
        {
          "internalType": "string",
          "name": "score",
          "type": "string"
        }
      ],
      "name": "requestNewRandomTurtle",
      "outputs": [],
      "stateMutability": "nonpayable",
      "type": "function"
    },
    {
      "inputs": [
        {
          "internalType": "bytes32",
          "name": "_requestId",
          "type": "bytes32"
        },
        {
          "internalType": "bytes32",
          "name": "dataFromAPI",
          "type": "bytes32"
        }
      ],
      "name": "fulfill",
      "outputs": [
        {
          "internalType": "bytes32",
          "name": "requestId",
          "type": "bytes32"
        }
      ],
      "stateMutability": "nonpayable",
      "type": "function"
    },
    {
      "inputs": [
        {
          "internalType": "bytes32",
          "name": "_requestId",
          "type": "bytes32"
        },
        {
          "internalType": "bytes32",
          "name": "dataFromAPI",
          "type": "bytes32"
        }
      ],
      "name": "fulfillSecondRequest",
      "outputs": [],
      "stateMutability": "nonpayable",
      "type": "function"
    }
  ],
  "bytecode": "0x60806040526001600e556040518060400160405280601581526020017f68747470733a2f2f697066732e696f2f697066732f0000000000000000000000815250601390805190602001906200005692919062000419565b5060006017553480156200006957600080fd5b506040518060400160405280600f81526020017f547572746c6543686172616374657200000000000000000000000000000000008152506040518060400160405280600481526020017f5452544c00000000000000000000000000000000000000000000000000000000815250620000ee6301ffc9a760e01b620002cc60201b60201c565b81600690805190602001906200010692919062000419565b5080600790805190602001906200011f92919062000419565b50620001386380ac58cd60e01b620002cc60201b60201c565b62000150635b5e139f60e01b620002cc60201b60201c565b6200016863780e9d6360e01b620002cc60201b60201c565b50506200018f73326c977e6efc84e512bb9c30f76e30c160ed06fb620003d560201b60201c565b600060178190555033601060006101000a81548173ffffffffffffffffffffffffffffffffffffffff021916908373ffffffffffffffffffffffffffffffffffffffff1602179055506040518060600160405280602381526020016200578160239139601890805190602001906200020992919062000419565b506040518060600160405280602a8152602001620057a4602a9139601990805190602001906200023b92919062000419565b5073c8d925525ca8759812d0c299b90247917d4d4b7c601460006101000a81548173ffffffffffffffffffffffffffffffffffffffff021916908373ffffffffffffffffffffffffffffffffffffffff1602179055507f6137333330643062346239363463303561626336366132363330373034376330601581905550662386f26fc10000601681905550620004c8565b63ffffffff60e01b817bffffffffffffffffffffffffffffffffffffffffffffffffffffffff1916141562000369576040517f08c379a000000000000000000000000000000000000000000000000000000000815260040180806020018281038252601c8152602001807f4552433136353a20696e76616c696420696e746572666163652069640000000081525060200191505060405180910390fd5b6001600080837bffffffffffffffffffffffffffffffffffffffffffffffffffffffff19167bffffffffffffffffffffffffffffffffffffffffffffffffffffffff1916815260200190815260200160002060006101000a81548160ff02191690831515021790555050565b80600c60006101000a81548173ffffffffffffffffffffffffffffffffffffffff021916908373ffffffffffffffffffffffffffffffffffffffff16021790555050565b828054600181600116156101000203166002900490600052602060002090601f016020900481019282601f106200045c57805160ff19168380011785556200048d565b828001600101855582156200048d579182015b828111156200048c5782518255916020019190600101906200046f565b5b5090506200049c9190620004a0565b5090565b620004c591905b80821115620004c1576000816000905550600101620004a7565b5090565b90565b6152a980620004d86000396000f3fe6080604052600436106101cd5760003560e01c80634f6ccce7116100f7578063a22cb46511610095578063c87b56dd11610064578063c87b56dd14610e66578063ce606ee014610f1a578063e985e9c514610f71578063f2044fe914610ffa576101cd565b8063a22cb46514610c6d578063a5ac5f1c14610cca578063a748efb214610d05578063b88d4fde14610d54576101cd565b80636c0360eb116100d15780636c0360eb14610a2057806370a0823114610ab0578063877f282b14610b1557806395d89b4114610bdd576101cd565b80634f6ccce71461088e5780635a717299146108dd5780636352211e146109a5576101cd565b806323b872dd1161016f578063328c9f021161013e578063328c9f02146106325780633380f068146106fa57806342842e0e146107c25780634c69c00f1461083d576101cd565b806323b872dd146104735780632b22aaea146104ee5780632b9d8c9a146105335780632f745c59146105c3576101cd565b8063081812fc116101ab578063081812fc1461032d578063095ea7b3146103a857806318160ddd14610403578063184d9bb91461042e576101cd565b806301ffc9a7146101d2578063042f2b651461024457806306fdde031461029d575b600080fd5b3480156101de57600080fd5b5061022a600480360360208110156101f557600080fd5b8101908080357bffffffffffffffffffffffffffffffffffffffffffffffffffffffff19169060200190929190505050611028565b604051808215151515815260200191505060405180910390f35b34801561025057600080fd5b506102876004803603604081101561026757600080fd5b81019080803590602001909291908035906020019092919050505061108f565b6040518082815260200191505060405180910390f35b3480156102a957600080fd5b506102b261136d565b6040518080602001828103825283818151815260200191508051906020019080838360005b838110156102f25780820151818401526020810190506102d7565b50505050905090810190601f16801561031f5780820380516001836020036101000a031916815260200191505b509250505060405180910390f35b34801561033957600080fd5b506103666004803603602081101561035057600080fd5b810190808035906020019092919050505061140f565b604051808273ffffffffffffffffffffffffffffffffffffffff1673ffffffffffffffffffffffffffffffffffffffff16815260200191505060405180910390f35b3480156103b457600080fd5b50610401600480360360408110156103cb57600080fd5b81019080803573ffffffffffffffffffffffffffffffffffffffff169060200190929190803590602001909291905050506114aa565b005b34801561040f57600080fd5b506104186115ee565b6040518082815260200191505060405180910390f35b34801561043a57600080fd5b506104716004803603604081101561045157600080fd5b8101908080359060200190929190803590602001909291905050506115ff565b005b34801561047f57600080fd5b506104ec6004803603606081101561049657600080fd5b81019080803573ffffffffffffffffffffffffffffffffffffffff169060200190929190803573ffffffffffffffffffffffffffffffffffffffff169060200190929190803590602001909291905050506116b8565b005b3480156104fa57600080fd5b506105316004803603604081101561051157600080fd5b81019080803590602001909291908035906020019092919050505061172e565b005b34801561053f57600080fd5b506105486119f6565b6040518080602001828103825283818151815260200191508051906020019080838360005b8381101561058857808201518184015260208101905061056d565b50505050905090810190601f1680156105b55780820380516001836020036101000a031916815260200191505b509250505060405180910390f35b3480156105cf57600080fd5b5061061c600480360360408110156105e657600080fd5b81019080803573ffffffffffffffffffffffffffffffffffffffff16906020019092919080359060200190929190505050611a94565b6040518082815260200191505060405180910390f35b34801561063e57600080fd5b506106f86004803603602081101561065557600080fd5b810190808035906020019064010000000081111561067257600080fd5b82018360208201111561068457600080fd5b803590602001918460018302840111640100000000831117156106a657600080fd5b91908080601f016020809104026020016040519081016040528093929190818152602001838380828437600081840152601f19601f820116905080830192505050505050509192919290505050611aef565b005b34801561070657600080fd5b506107c06004803603602081101561071d57600080fd5b810190808035906020019064010000000081111561073a57600080fd5b82018360208201111561074c57600080fd5b8035906020019184600183028401116401000000008311171561076e57600080fd5b91908080601f016020809104026020016040519081016040528093929190818152602001838380828437600081840152601f19601f820116905080830192505050505050509192919290505050611baf565b005b3480156107ce57600080fd5b5061083b600480360360608110156107e557600080fd5b81019080803573ffffffffffffffffffffffffffffffffffffffff169060200190929190803573ffffffffffffffffffffffffffffffffffffffff16906020019092919080359060200190929190505050611d4a565b005b34801561084957600080fd5b5061088c6004803603602081101561086057600080fd5b81019080803573ffffffffffffffffffffffffffffffffffffffff169060200190929190505050611d6a565b005b34801561089a57600080fd5b506108c7600480360360208110156108b157600080fd5b8101908080359060200190929190505050611e54565b6040518082815260200191505060405180910390f35b3480156108e957600080fd5b506109a36004803603602081101561090057600080fd5b810190808035906020019064010000000081111561091d57600080fd5b82018360208201111561092f57600080fd5b8035906020019184600183028401116401000000008311171561095157600080fd5b91908080601f016020809104026020016040519081016040528093929190818152602001838380828437600081840152601f19601f820116905080830192505050505050509192919290505050611e77565b005b3480156109b157600080fd5b506109de600480360360208110156109c857600080fd5b8101908080359060200190929190505050611f2f565b604051808273ffffffffffffffffffffffffffffffffffffffff1673ffffffffffffffffffffffffffffffffffffffff16815260200191505060405180910390f35b348015610a2c57600080fd5b50610a35611f66565b6040518080602001828103825283818151815260200191508051906020019080838360005b83811015610a75578082015181840152602081019050610a5a565b50505050905090810190601f168015610aa25780820380516001836020036101000a031916815260200191505b509250505060405180910390f35b348015610abc57600080fd5b50610aff60048036036020811015610ad357600080fd5b81019080803573ffffffffffffffffffffffffffffffffffffffff169060200190929190505050612008565b6040518082815260200191505060405180910390f35b348015610b2157600080fd5b50610bdb60048036036020811015610b3857600080fd5b8101908080359060200190640100000000811115610b5557600080fd5b820183602082011115610b6757600080fd5b80359060200191846001830284011164010000000083111715610b8957600080fd5b91908080601f016020809104026020016040519081016040528093929190818152602001838380828437600081840152601f19601f8201169050808301925050505050505091929192905050506120dd565b005b348015610be957600080fd5b50610bf261219d565b6040518080602001828103825283818151815260200191508051906020019080838360005b83811015610c32578082015181840152602081019050610c17565b50505050905090810190601f168015610c5f5780820380516001836020036101000a031916815260200191505b509250505060405180910390f35b348015610c7957600080fd5b50610cc860048036036040811015610c9057600080fd5b81019080803573ffffffffffffffffffffffffffffffffffffffff16906020019092919080351515906020019092919050505061223f565b005b348015610cd657600080fd5b50610d0360048036036020811015610ced57600080fd5b81019080803590602001909291905050506123f7565b005b348015610d1157600080fd5b50610d3e60048036036020811015610d2857600080fd5b81019080803590602001909291905050506124b1565b6040518082815260200191505060405180910390f35b348015610d6057600080fd5b50610e6460048036036080811015610d7757600080fd5b81019080803573ffffffffffffffffffffffffffffffffffffffff169060200190929190803573ffffffffffffffffffffffffffffffffffffffff1690602001909291908035906020019092919080359060200190640100000000811115610dde57600080fd5b820183602082011115610df057600080fd5b80359060200191846001830284011164010000000083111715610e1257600080fd5b91908080601f016020809104026020016040519081016040528093929190818152602001838380828437600081840152601f19601f8201169050808301925050505050505091929192905050506124c9565b005b348015610e7257600080fd5b50610e9f60048036036020811015610e8957600080fd5b8101908080359060200190929190505050612541565b6040518080602001828103825283818151815260200191508051906020019080838360005b83811015610edf578082015181840152602081019050610ec4565b50505050905090810190601f168015610f0c5780820380516001836020036101000a031916815260200191505b509250505060405180910390f35b348015610f2657600080fd5b50610f2f612812565b604051808273ffffffffffffffffffffffffffffffffffffffff1673ffffffffffffffffffffffffffffffffffffffff16815260200191505060405180910390f35b348015610f7d57600080fd5b50610fe060048036036040811015610f9457600080fd5b81019080803573ffffffffffffffffffffffffffffffffffffffff169060200190929190803573ffffffffffffffffffffffffffffffffffffffff169060200190929190505050612838565b604051808215151515815260200191505060405180910390f35b6110266004803603602081101561101057600080fd5b81019080803590602001909291905050506128cc565b005b6000806000837bffffffffffffffffffffffffffffffffffffffffffffffffffffffff19167bffffffffffffffffffffffffffffffffffffffffffffffffffffffff1916815260200190815260200160002060009054906101000a900460ff169050919050565b600082600f600082815260200190815260200160002060009054906101000a900473ffffffffffffffffffffffffffffffffffffffff1673ffffffffffffffffffffffffffffffffffffffff163373ffffffffffffffffffffffffffffffffffffffff1614611149576040517f08c379a00000000000000000000000000000000000000000000000000000000081526004018080602001828103825260288152602001806152286028913960400191505060405180910390fd5b600f600082815260200190815260200160002060006101000a81549073ffffffffffffffffffffffffffffffffffffffff0219169055807f7cc135e0cebb02c3480ae5d74d377283180a2601f8f644edf7987b009316c63a60405160405180910390a2826011819055506111bb614e37565b6111cf60155430632b22aaea60e01b612b24565b90506112b56040518060400160405280600381526020017f676574000000000000000000000000000000000000000000000000000000000081525060198054600181600116156101000203166002900480601f0160208091040260200160405190810160405280929190818152602001828054600181600116156101000203166002900480156112a05780601f10611275576101008083540402835291602001916112a0565b820191906000526020600020905b81548152906001019060200180831161128357829003601f168201915b505050505083612b559092919063ffffffff16565b6113346040518060400160405280600481526020017f70617468000000000000000000000000000000000000000000000000000000008152506040518060400160405280600981526020017f495046535f50415448000000000000000000000000000000000000000000000081525083612b559092919063ffffffff16565b611363601460009054906101000a900473ffffffffffffffffffffffffffffffffffffffff1682601654612b88565b9250505092915050565b606060068054600181600116156101000203166002900480601f0160208091040260200160405190810160405280929190818152602001828054600181600116156101000203166002900480156114055780601f106113da57610100808354040283529160200191611405565b820191906000526020600020905b8154815290600101906020018083116113e857829003601f168201915b5050505050905090565b600061141a82612e40565b61146f576040517f08c379a000000000000000000000000000000000000000000000000000000000815260040180806020018281038252602c815260200180615126602c913960400191505060405180910390fd5b6004600083815260200190815260200160002060009054906101000a900473ffffffffffffffffffffffffffffffffffffffff169050919050565b60006114b582611f2f565b90508073ffffffffffffffffffffffffffffffffffffffff168373ffffffffffffffffffffffffffffffffffffffff16141561153c576040517f08c379a00000000000000000000000000000000000000000000000000000000081526004018080602001828103825260218152602001806151d66021913960400191505060405180910390fd5b8073ffffffffffffffffffffffffffffffffffffffff1661155b612e5d565b73ffffffffffffffffffffffffffffffffffffffff16148061158a575061158981611584612e5d565b612838565b5b6115df576040517f08c379a00000000000000000000000000000000000000000000000000000000081526004018080602001828103825260388152602001806150796038913960400191505060405180910390fd5b6115e98383612e65565b505050565b60006115fa6002612f1e565b905090565b61161061160a612e5d565b83612f33565b611665576040517f08c379a0000000000000000000000000000000000000000000000000000000008152600401808060200182810382526028815260200180614f866028913960400191505060405180910390fd5b80601a6000848152602001908152602001600020819055507f5cfd7981b7826a1543139612aae7cac778558e6d89d166a9d4b69423535fe087826040518082815260200191505060405180910390a15050565b6116c96116c3612e5d565b82612f33565b61171e576040517f08c379a00000000000000000000000000000000000000000000000000000000081526004018080602001828103825260318152602001806151f76031913960400191505060405180910390fd5b611729838383613027565b505050565b81600f600082815260200190815260200160002060009054906101000a900473ffffffffffffffffffffffffffffffffffffffff1673ffffffffffffffffffffffffffffffffffffffff163373ffffffffffffffffffffffffffffffffffffffff16146117e6576040517f08c379a00000000000000000000000000000000000000000000000000000000081526004018080602001828103825260288152602001806152286028913960400191505060405180910390fd5b600f600082815260200190815260200160002060006101000a81549073ffffffffffffffffffffffffffffffffffffffff0219169055807f7cc135e0cebb02c3480ae5d74d377283180a2601f8f644edf7987b009316c63a60405160405180910390a28160128190555061185861326a565b7f1a1317a9b735d6402ccd1a577bb88ad490d3c2301e44fa83a56561c708287bdb601360405180806020018281038252838181546001816001161561010002031660029004815260200191508054600181600116156101000203166002900480156119045780601f106118d957610100808354040283529160200191611904565b820191906000526020600020905b8154815290600101906020018083116118e757829003601f168201915b50509250505060405180910390a16119b560138054600181600116156101000203166002900480601f0160208091040260200160405190810160405280929190818152602001828054600181600116156101000203166002900480156119ab5780601f10611980576101008083540402835291602001916119ab565b820191906000526020600020905b81548152906001019060200180831161198e57829003601f168201915b5050505050613347565b7f375888a712a23aa4f960c32984e16baf008be32cc52f7b9c12212feee89eb6086001601754036040518082815260200191505060405180910390a1505050565b60138054600181600116156101000203166002900480601f016020809104026020016040519081016040528092919081815260200182805460018160011615610100020316600290048015611a8c5780601f10611a6157610100808354040283529160200191611a8c565b820191906000526020600020905b815481529060010190602001808311611a6f57829003601f168201915b505050505081565b6000611ae782600160008673ffffffffffffffffffffffffffffffffffffffff1673ffffffffffffffffffffffffffffffffffffffff16815260200190815260200160002061336890919063ffffffff16565b905092915050565b601060009054906101000a900473ffffffffffffffffffffffffffffffffffffffff1673ffffffffffffffffffffffffffffffffffffffff163373ffffffffffffffffffffffffffffffffffffffff1614611b95576040517f08c379a00000000000000000000000000000000000000000000000000000000081526004018080602001828103825260248152602001806152506024913960400191505060405180910390fd5b8060199080519060200190611bab929190614ea4565b5050565b6040518060400160405280601581526020017f68747470733a2f2f697066732e696f2f697066732f000000000000000000000081525060139080519060200190611bfa929190614ea4565b50611c0733601754613382565b6060611ce360188054600181600116156101000203166002900480601f016020809104026020016040519081016040528092919081815260200182805460018160011615610100020316600290048015611ca25780601f10611c7757610100808354040283529160200191611ca2565b820191906000526020600020905b815481529060010190602001808311611c8557829003601f168201915b50505050506040518060400160405280600781526020017f3f73636f72653d00000000000000000000000000000000000000000000000000815250846133a0565b90506060611cf7611cf26115ee565b6134bc565b9050611d39826040518060400160405280600d81526020017f2663686172616374657249643d00000000000000000000000000000000000000815250836133a0565b9150611d448261360c565b50505050565b611d65838383604051806020016040528060008152506124c9565b505050565b601060009054906101000a900473ffffffffffffffffffffffffffffffffffffffff1673ffffffffffffffffffffffffffffffffffffffff163373ffffffffffffffffffffffffffffffffffffffff1614611e10576040517f08c379a00000000000000000000000000000000000000000000000000000000081526004018080602001828103825260248152602001806152506024913960400191505060405180910390fd5b80601460006101000a81548173ffffffffffffffffffffffffffffffffffffffff021916908373ffffffffffffffffffffffffffffffffffffffff16021790555050565b600080611e6b83600261372c90919063ffffffff16565b50905080915050919050565b601060009054906101000a900473ffffffffffffffffffffffffffffffffffffffff1673ffffffffffffffffffffffffffffffffffffffff163373ffffffffffffffffffffffffffffffffffffffff1614611f1d576040517f08c379a00000000000000000000000000000000000000000000000000000000081526004018080602001828103825260248152602001806152506024913960400191505060405180910390fd5b611f268161375b565b60158190555050565b6000611f5f826040518060600160405280602981526020016150db6029913960026137869092919063ffffffff16565b9050919050565b606060098054600181600116156101000203166002900480601f016020809104026020016040519081016040528092919081815260200182805460018160011615610100020316600290048015611ffe5780601f10611fd357610100808354040283529160200191611ffe565b820191906000526020600020905b815481529060010190602001808311611fe157829003601f168201915b5050505050905090565b60008073ffffffffffffffffffffffffffffffffffffffff168273ffffffffffffffffffffffffffffffffffffffff16141561208f576040517f08c379a000000000000000000000000000000000000000000000000000000000815260040180806020018281038252602a8152602001806150b1602a913960400191505060405180910390fd5b6120d6600160008473ffffffffffffffffffffffffffffffffffffffff1673ffffffffffffffffffffffffffffffffffffffff1681526020019081526020016000206137a5565b9050919050565b601060009054906101000a900473ffffffffffffffffffffffffffffffffffffffff1673ffffffffffffffffffffffffffffffffffffffff163373ffffffffffffffffffffffffffffffffffffffff1614612183576040517f08c379a00000000000000000000000000000000000000000000000000000000081526004018080602001828103825260248152602001806152506024913960400191505060405180910390fd5b8060189080519060200190612199929190614ea4565b5050565b606060078054600181600116156101000203166002900480601f0160208091040260200160405190810160405280929190818152602001828054600181600116156101000203166002900480156122355780601f1061220a57610100808354040283529160200191612235565b820191906000526020600020905b81548152906001019060200180831161221857829003601f168201915b5050505050905090565b612247612e5d565b73ffffffffffffffffffffffffffffffffffffffff168273ffffffffffffffffffffffffffffffffffffffff1614156122e8576040517f08c379a00000000000000000000000000000000000000000000000000000000081526004018080602001828103825260198152602001807f4552433732313a20617070726f766520746f2063616c6c65720000000000000081525060200191505060405180910390fd5b80600560006122f5612e5d565b73ffffffffffffffffffffffffffffffffffffffff1673ffffffffffffffffffffffffffffffffffffffff16815260200190815260200160002060008473ffffffffffffffffffffffffffffffffffffffff1673ffffffffffffffffffffffffffffffffffffffff16815260200190815260200160002060006101000a81548160ff0219169083151502179055508173ffffffffffffffffffffffffffffffffffffffff166123a2612e5d565b73ffffffffffffffffffffffffffffffffffffffff167f17307eab39ab6107e8899845ad3d59bd9653f200f220920489ca2b5937696c3183604051808215151515815260200191505060405180910390a35050565b601060009054906101000a900473ffffffffffffffffffffffffffffffffffffffff1673ffffffffffffffffffffffffffffffffffffffff163373ffffffffffffffffffffffffffffffffffffffff161461249d576040517f08c379a00000000000000000000000000000000000000000000000000000000081526004018080602001828103825260248152602001806152506024913960400191505060405180910390fd5b670de0b6b3a7640000810260168190555050565b601a6020528060005260406000206000915090505481565b6124da6124d4612e5d565b83612f33565b61252f576040517f08c379a00000000000000000000000000000000000000000000000000000000081526004018080602001828103825260318152602001806151f76031913960400191505060405180910390fd5b61253b848484846137ba565b50505050565b606061254c82612e40565b6125a1576040517f08c379a000000000000000000000000000000000000000000000000000000000815260040180806020018281038252602f8152602001806151a7602f913960400191505060405180910390fd5b6060600860008481526020019081526020016000208054600181600116156101000203166002900480601f01602080910402602001604051908101604052809291908181526020018280546001816001161561010002031660029004801561264a5780601f1061261f5761010080835404028352916020019161264a565b820191906000526020600020905b81548152906001019060200180831161262d57829003601f168201915b50505050509050606061265b611f66565b905060008151141561267157819250505061280d565b6000825111156127425780826040516020018083805190602001908083835b602083106126b35780518252602082019150602081019050602083039250612690565b6001836020036101000a03801982511681845116808217855250505050505090500182805190602001908083835b6020831061270457805182526020820191506020810190506020830392506126e1565b6001836020036101000a038019825116818451168082178552505050505050905001925050506040516020818303038152906040529250505061280d565b8061274c8561382c565b6040516020018083805190602001908083835b60208310612782578051825260208201915060208101905060208303925061275f565b6001836020036101000a03801982511681845116808217855250505050505090500182805190602001908083835b602083106127d357805182526020820191506020810190506020830392506127b0565b6001836020036101000a03801982511681845116808217855250505050505090500192505050604051602081830303815290604052925050505b919050565b601060009054906101000a900473ffffffffffffffffffffffffffffffffffffffff1681565b6000600560008473ffffffffffffffffffffffffffffffffffffffff1673ffffffffffffffffffffffffffffffffffffffff16815260200190815260200160002060008373ffffffffffffffffffffffffffffffffffffffff1673ffffffffffffffffffffffffffffffffffffffff16815260200190815260200160002060009054906101000a900460ff16905092915050565b6000601a60008381526020019081526020016000205411612955576040517f08c379a00000000000000000000000000000000000000000000000000000000081526004018080602001828103825260208152602001807f54686520547572746c652073686f756c6420626520757020666f722073616c6581525060200191505060405180910390fd5b6000601a60008381526020019081526020016000205490506000601a600084815260200190815260200160002081905550600061299183611f2f565b9050813411612a08576040517f08c379a000000000000000000000000000000000000000000000000000000000815260040180806020018281038252601d8152602001807f596f75206e65656420746f206861766520656e6f75676820457468657200000081525060200191505060405180910390fd5b612a498133856040518060400160405280600c81526020017f427579206120547572746c6500000000000000000000000000000000000000008152506137ba565b60008190508073ffffffffffffffffffffffffffffffffffffffff166108fc849081150290604051600060405180830381858888f19350505050158015612a94573d6000803e3d6000fd5b5082341115612ae7573373ffffffffffffffffffffffffffffffffffffffff166108fc8434039081150290604051600060405180830381858888f19350505050158015612ae5573d6000803e3d6000fd5b505b7f8c78864e67a7dfb4ed185a3b2dad4a13fd8a7f807e84ecf1687eab5cb297676e846040518082815260200191505060405180910390a150505050565b612b2c614e37565b612b34614e37565b612b4b85858584613973909392919063ffffffff16565b9150509392505050565b612b6c828460800151613a2390919063ffffffff16565b612b83818460800151613a2390919063ffffffff16565b505050565b600030600e54604051602001808373ffffffffffffffffffffffffffffffffffffffff1673ffffffffffffffffffffffffffffffffffffffff1660601b815260140182815260200192505050604051602081830303815290604052805190602001209050600e5483606001818152505083600f600083815260200190815260200160002060006101000a81548173ffffffffffffffffffffffffffffffffffffffff021916908373ffffffffffffffffffffffffffffffffffffffff160217905550807fb5e6e01e79f91267dc17b4e6314d5d4d03593d2ceee0fbb452b750bd70ea5af960405160405180910390a2600c60009054906101000a900473ffffffffffffffffffffffffffffffffffffffff1673ffffffffffffffffffffffffffffffffffffffff16634000aea08584612cc087613a48565b6040518463ffffffff1660e01b8152600401808473ffffffffffffffffffffffffffffffffffffffff1673ffffffffffffffffffffffffffffffffffffffff16815260200183815260200180602001828103825283818151815260200191508051906020019080838360005b83811015612d47578082015181840152602081019050612d2c565b50505050905090810190601f168015612d745780820380516001836020036101000a031916815260200191505b50945050505050602060405180830381600087803b158015612d9557600080fd5b505af1158015612da9573d6000803e3d6000fd5b505050506040513d6020811015612dbf57600080fd5b8101908080519060200190929190505050612e25576040517f08c379a0000000000000000000000000000000000000000000000000000000008152600401808060200182810382526023815260200180614fe06023913960400191505060405180910390fd5b6001600e600082825401925050819055508090509392505050565b6000612e56826002613c1490919063ffffffff16565b9050919050565b600033905090565b816004600083815260200190815260200160002060006101000a81548173ffffffffffffffffffffffffffffffffffffffff021916908373ffffffffffffffffffffffffffffffffffffffff160217905550808273ffffffffffffffffffffffffffffffffffffffff16612ed883611f2f565b73ffffffffffffffffffffffffffffffffffffffff167f8c5be1e5ebec7d5bd14f71427d1e84f3dd0314c0f7b2291e5b200ac8c7c3b92560405160405180910390a45050565b6000612f2c82600001613c2e565b9050919050565b6000612f3e82612e40565b612f93576040517f08c379a000000000000000000000000000000000000000000000000000000000815260040180806020018281038252602c81526020018061504d602c913960400191505060405180910390fd5b6000612f9e83611f2f565b90508073ffffffffffffffffffffffffffffffffffffffff168473ffffffffffffffffffffffffffffffffffffffff16148061300d57508373ffffffffffffffffffffffffffffffffffffffff16612ff58461140f565b73ffffffffffffffffffffffffffffffffffffffff16145b8061301e575061301d8185612838565b5b91505092915050565b8273ffffffffffffffffffffffffffffffffffffffff1661304782611f2f565b73ffffffffffffffffffffffffffffffffffffffff16146130b3576040517f08c379a000000000000000000000000000000000000000000000000000000000815260040180806020018281038252602981526020018061517e6029913960400191505060405180910390fd5b600073ffffffffffffffffffffffffffffffffffffffff168273ffffffffffffffffffffffffffffffffffffffff161415613139576040517f08c379a00000000000000000000000000000000000000000000000000000000081526004018080602001828103825260248152602001806150036024913960400191505060405180910390fd5b613144838383613c3f565b61314f600082612e65565b6131a081600160008673ffffffffffffffffffffffffffffffffffffffff1673ffffffffffffffffffffffffffffffffffffffff168152602001908152602001600020613c4490919063ffffffff16565b506131f281600160008573ffffffffffffffffffffffffffffffffffffffff1673ffffffffffffffffffffffffffffffffffffffff168152602001908152602001600020613c5e90919063ffffffff16565b5061320981836002613c789092919063ffffffff16565b50808273ffffffffffffffffffffffffffffffffffffffff168473ffffffffffffffffffffffffffffffffffffffff167fddf252ad1be2c89b69c2b068fc378daa952ba7f163c4a11628f55a4df523b3ef60405160405180910390a4505050565b6060613277601154613cad565b90506060613286601254613cad565b905061332d60138054600181600116156101000203166002900480601f0160208091040260200160405190810160405280929190818152602001828054600181600116156101000203166002900480156133215780601f106132f657610100808354040283529160200191613321565b820191906000526020600020905b81548152906001019060200180831161330457829003601f168201915b505050505083836133a0565b60139080519060200190613342929190614ea4565b505050565b61335360175482613e21565b60176000815480929190600101919050555050565b60006133778360000183613eab565b60001c905092915050565b61339c828260405180602001604052806000815250613f2e565b5050565b60608383836040516020018084805190602001908083835b602083106133db57805182526020820191506020810190506020830392506133b8565b6001836020036101000a03801982511681845116808217855250505050505090500183805190602001908083835b6020831061342c5780518252602082019150602081019050602083039250613409565b6001836020036101000a03801982511681845116808217855250505050505090500182805190602001908083835b6020831061347d578051825260208201915060208101905060208303925061345a565b6001836020036101000a038019825116818451168082178552505050505050905001935050505060405160208183030381529060405290509392505050565b60606000821415613504576040518060400160405280600181526020017f30000000000000000000000000000000000000000000000000000000000000008152509050613607565b600082905060005b6000821461352e578080600101915050600a828161352657fe5b04915061350c565b60608167ffffffffffffffff8111801561354757600080fd5b506040519080825280601f01601f19166020018201604052801561357a5781602001600182028036833780820191505090505b50905060008290505b600086146135ff576001810390506000600a80888161359e57fe5b04028703603001905060008160f81b9050808484815181106135bc57fe5b60200101907effffffffffffffffffffffffffffffffffffffffffffffffffffffffffffff1916908160001a905350600a88816135f557fe5b0497505050613583565b819450505050505b919050565b6000613616614e37565b61362a6015543063042f2b6560e01b612b24565b90506136766040518060400160405280600381526020017f67657400000000000000000000000000000000000000000000000000000000008152508483612b559092919063ffffffff16565b6136f56040518060400160405280600481526020017f70617468000000000000000000000000000000000000000000000000000000008152506040518060400160405280600981526020017f495046535f50415448000000000000000000000000000000000000000000000081525083612b559092919063ffffffff16565b613724601460009054906101000a900473ffffffffffffffffffffffffffffffffffffffff1682601654612b88565b915050919050565b60008060008061373f8660000186613f9f565b915091508160001c8160001c8090509350935050509250929050565b60006060829050600081511415613778576000801b915050613781565b60208301519150505b919050565b6000613799846000018460001b84614038565b60001c90509392505050565b60006137b38260000161412e565b9050919050565b6137c5848484613027565b6137d18484848461413f565b613826576040517f08c379a0000000000000000000000000000000000000000000000000000000008152600401808060200182810382526032815260200180614fae6032913960400191505060405180910390fd5b50505050565b60606000821415613874576040518060400160405280600181526020017f3000000000000000000000000000000000000000000000000000000000000000815250905061396e565b600082905060005b6000821461389e578080600101915050600a828161389657fe5b04915061387c565b60608167ffffffffffffffff811180156138b757600080fd5b506040519080825280601f01601f1916602001820160405280156138ea5781602001600182028036833780820191505090505b50905060006001830390508593505b6000841461396657600a848161390b57fe5b0660300160f81b8282806001900393508151811061392557fe5b60200101907effffffffffffffffffffffffffffffffffffffffffffffffffffffffffffff1916908160001a905350600a848161395e57fe5b0493506138f9565b819450505050505b919050565b61397b614e37565b61398b8560800151610100614384565b508385600001818152505082856020019073ffffffffffffffffffffffffffffffffffffffff16908173ffffffffffffffffffffffffffffffffffffffff16815250508185604001907bffffffffffffffffffffffffffffffffffffffffffffffffffffffff191690817bffffffffffffffffffffffffffffffffffffffffffffffffffffffff191681525050849050949350505050565b613a3082600383516143d8565b613a43818361451d90919063ffffffff16565b505050565b6060634042994660e01b60008084600001518560200151866040015187606001516001896080015160000151604051602401808973ffffffffffffffffffffffffffffffffffffffff1673ffffffffffffffffffffffffffffffffffffffff1681526020018881526020018781526020018673ffffffffffffffffffffffffffffffffffffffff1673ffffffffffffffffffffffffffffffffffffffff168152602001857bffffffffffffffffffffffffffffffffffffffffffffffffffffffff19167bffffffffffffffffffffffffffffffffffffffffffffffffffffffff1916815260200184815260200183815260200180602001828103825283818151815260200191508051906020019080838360005b83811015613b77578082015181840152602081019050613b5c565b50505050905090810190601f168015613ba45780820380516001836020036101000a031916815260200191505b509950505050505050505050604051602081830303815290604052907bffffffffffffffffffffffffffffffffffffffffffffffffffffffff19166020820180517bffffffffffffffffffffffffffffffffffffffffffffffffffffffff83818316178352505050509050919050565b6000613c26836000018360001b61453f565b905092915050565b600081600001805490509050919050565b505050565b6000613c56836000018360001b614562565b905092915050565b6000613c70836000018360001b61464a565b905092915050565b6000613ca4846000018460001b8473ffffffffffffffffffffffffffffffffffffffff1660001b6146ba565b90509392505050565b606060008090505b60208160ff16108015613d005750600060f81b838260ff1660208110613cd757fe5b1a60f81b7effffffffffffffffffffffffffffffffffffffffffffffffffffffffffffff191614155b15613d12578080600101915050613cb5565b60608160ff1667ffffffffffffffff81118015613d2e57600080fd5b506040519080825280601f01601f191660200182016040528015613d615781602001600182028036833780820191505090505b509050600091505b60208260ff16108015613db45750600060f81b848360ff1660208110613d8b57fe5b1a60f81b7effffffffffffffffffffffffffffffffffffffffffffffffffffffffffffff191614155b15613e1757838260ff1660208110613dc857fe5b1a60f81b818360ff1681518110613ddb57fe5b60200101907effffffffffffffffffffffffffffffffffffffffffffffffffffffffffffff1916908160001a9053508180600101925050613d69565b8092505050919050565b613e2a82612e40565b613e7f576040517f08c379a000000000000000000000000000000000000000000000000000000000815260040180806020018281038252602c815260200180615152602c913960400191505060405180910390fd5b80600860008481526020019081526020016000209080519060200190613ea6929190614ea4565b505050565b600081836000018054905011613f0c576040517f08c379a0000000000000000000000000000000000000000000000000000000008152600401808060200182810382526022815260200180614f646022913960400191505060405180910390fd5b826000018281548110613f1b57fe5b9060005260206000200154905092915050565b613f388383614796565b613f45600084848461413f565b613f9a576040517f08c379a0000000000000000000000000000000000000000000000000000000008152600401808060200182810382526032815260200180614fae6032913960400191505060405180910390fd5b505050565b60008082846000018054905011614001576040517f08c379a00000000000000000000000000000000000000000000000000000000081526004018080602001828103825260228152602001806151046022913960400191505060405180910390fd5b600084600001848154811061401257fe5b906000526020600020906002020190508060000154816001015492509250509250929050565b600080846001016000858152602001908152602001600020549050600081141583906140ff576040517f08c379a00000000000000000000000000000000000000000000000000000000081526004018080602001828103825283818151815260200191508051906020019080838360005b838110156140c45780820151818401526020810190506140a9565b50505050905090810190601f1680156140f15780820380516001836020036101000a031916815260200191505b509250505060405180910390fd5b5084600001600182038154811061411257fe5b9060005260206000209060020201600101549150509392505050565b600081600001805490509050919050565b60006141608473ffffffffffffffffffffffffffffffffffffffff1661498a565b61416d576001905061437c565b606061430363150b7a0260e01b614182612e5d565b888787604051602401808573ffffffffffffffffffffffffffffffffffffffff1673ffffffffffffffffffffffffffffffffffffffff1681526020018473ffffffffffffffffffffffffffffffffffffffff1673ffffffffffffffffffffffffffffffffffffffff16815260200183815260200180602001828103825283818151815260200191508051906020019080838360005b83811015614232578082015181840152602081019050614217565b50505050905090810190601f16801561425f5780820380516001836020036101000a031916815260200191505b5095505050505050604051602081830303815290604052907bffffffffffffffffffffffffffffffffffffffffffffffffffffffff19166020820180517bffffffffffffffffffffffffffffffffffffffffffffffffffffffff8381831617835250505050604051806060016040528060328152602001614fae603291398773ffffffffffffffffffffffffffffffffffffffff1661499d9092919063ffffffff16565b9050600081806020019051602081101561431c57600080fd5b8101908080519060200190929190505050905063150b7a0260e01b7bffffffffffffffffffffffffffffffffffffffffffffffffffffffff1916817bffffffffffffffffffffffffffffffffffffffffffffffffffffffff191614925050505b949350505050565b61438c614f24565b60006020838161439857fe5b06146143b157602082816143a857fe5b06602003820191505b81836020018181525050604051808452600081528281016020016040525082905092915050565b60178111614405576143ff8160058460ff16901b60ff1617846149b590919063ffffffff16565b50614518565b60ff81116144475761442a601860058460ff16901b17846149b590919063ffffffff16565b50614441816001856149d59092919063ffffffff16565b50614517565b61ffff811161448a5761446d601960058460ff16901b17846149b590919063ffffffff16565b50614484816002856149d59092919063ffffffff16565b50614516565b63ffffffff81116144cf576144b2601a60058460ff16901b17846149b590919063ffffffff16565b506144c9816004856149d59092919063ffffffff16565b50614515565b67ffffffffffffffff8111614514576144fb601b60058460ff16901b17846149b590919063ffffffff16565b50614512816008856149d59092919063ffffffff16565b505b5b5b5b5b505050565b614525614f24565b614537838460000151518485516149f7565b905092915050565b600080836001016000848152602001908152602001600020541415905092915050565b6000808360010160008481526020019081526020016000205490506000811461463e57600060018203905060006001866000018054905003905060008660000182815481106145ad57fe5b90600052602060002001549050808760000184815481106145ca57fe5b906000526020600020018190555060018301876001016000838152602001908152602001600020819055508660000180548061460257fe5b60019003818190600052602060002001600090559055866001016000878152602001908152602001600020600090556001945050505050614644565b60009150505b92915050565b60006146568383614ab0565b6146af5782600001829080600181540180825580915050600190039060005260206000200160009091909190915055826000018054905083600101600084815260200190815260200160002081905550600190506146b4565b600090505b92915050565b60008084600101600085815260200190815260200160002054905060008114156147615784600001604051806040016040528086815260200185815250908060018154018082558091505060019003906000526020600020906002020160009091909190915060008201518160000155602082015181600101555050846000018054905085600101600086815260200190815260200160002081905550600191505061478f565b8285600001600183038154811061477457fe5b90600052602060002090600202016001018190555060009150505b9392505050565b600073ffffffffffffffffffffffffffffffffffffffff168273ffffffffffffffffffffffffffffffffffffffff161415614839576040517f08c379a00000000000000000000000000000000000000000000000000000000081526004018080602001828103825260208152602001807f4552433732313a206d696e7420746f20746865207a65726f206164647265737381525060200191505060405180910390fd5b61484281612e40565b156148b5576040517f08c379a000000000000000000000000000000000000000000000000000000000815260040180806020018281038252601c8152602001807f4552433732313a20746f6b656e20616c7265616479206d696e7465640000000081525060200191505060405180910390fd5b6148c160008383613c3f565b61491281600160008573ffffffffffffffffffffffffffffffffffffffff1673ffffffffffffffffffffffffffffffffffffffff168152602001908152602001600020613c5e90919063ffffffff16565b5061492981836002613c789092919063ffffffff16565b50808273ffffffffffffffffffffffffffffffffffffffff16600073ffffffffffffffffffffffffffffffffffffffff167fddf252ad1be2c89b69c2b068fc378daa952ba7f163c4a11628f55a4df523b3ef60405160405180910390a45050565b600080823b905060008111915050919050565b60606149ac8484600085614ad3565b90509392505050565b6149bd614f24565b6149cd8384600001515184614c7c565b905092915050565b6149dd614f24565b6149ee848560000151518585614cca565b90509392505050565b6149ff614f24565b8251821115614a0d57600080fd5b84602001518285011115614a3857614a37856002614a318860200151888701614d2b565b02614d47565b5b600080865180518760208301019350808887011115614a575787860182525b60208701925050505b60208410614a835780518252602082019150602081019050602084039350614a60565b60006001856020036101000a03905080198251168184511681811785525050879350505050949350505050565b600080836001016000848152602001908152602001600020541415905092915050565b606082471015614b2e576040517f08c379a00000000000000000000000000000000000000000000000000000000081526004018080602001828103825260268152602001806150276026913960400191505060405180910390fd5b614b378561498a565b614ba9576040517f08c379a000000000000000000000000000000000000000000000000000000000815260040180806020018281038252601d8152602001807f416464726573733a2063616c6c20746f206e6f6e2d636f6e747261637400000081525060200191505060405180910390fd5b600060608673ffffffffffffffffffffffffffffffffffffffff1685876040518082805190602001908083835b60208310614bf95780518252602082019150602081019050602083039250614bd6565b6001836020036101000a03801982511681845116808217855250505050505090500191505060006040518083038185875af1925050503d8060008114614c5b576040519150601f19603f3d011682016040523d82523d6000602084013e614c60565b606091505b5091509150614c70828286614d6b565b92505050949350505050565b614c84614f24565b83602001518310614ca157614ca0846002866020015102614d47565b5b8351805160208583010184815381861415614cbd576001820183525b5050508390509392505050565b614cd2614f24565b84602001518483011115614cf057614cef85600286850102614d47565b5b60006001836101000a0390508551838682010185831982511617815281518588011115614d1d5784870182525b505085915050949350505050565b600081831115614d3d57829050614d41565b8190505b92915050565b606082600001519050614d5a8383614384565b50614d65838261451d565b50505050565b60608315614d7b57829050614e30565b600083511115614d8e5782518084602001fd5b816040517f08c379a00000000000000000000000000000000000000000000000000000000081526004018080602001828103825283818151815260200191508051906020019080838360005b83811015614df5578082015181840152602081019050614dda565b50505050905090810190601f168015614e225780820380516001836020036101000a031916815260200191505b509250505060405180910390fd5b9392505050565b6040518060a0016040528060008019168152602001600073ffffffffffffffffffffffffffffffffffffffff16815260200160007bffffffffffffffffffffffffffffffffffffffffffffffffffffffff1916815260200160008152602001614e9e614f24565b81525090565b828054600181600116156101000203166002900490600052602060002090601f016020900481019282601f10614ee557805160ff1916838001178555614f13565b82800160010185558215614f13579182015b82811115614f12578251825591602001919060010190614ef7565b5b509050614f209190614f3e565b5090565b604051806040016040528060608152602001600081525090565b614f6091905b80821115614f5c576000816000905550600101614f44565b5090565b9056fe456e756d657261626c655365743a20696e646578206f7574206f6620626f756e64734552433732313a2043616c6c6572206973206e6f74206f776e6572206e6f7220617070726f7665644552433732313a207472616e7366657220746f206e6f6e20455243373231526563656976657220696d706c656d656e746572756e61626c6520746f207472616e73666572416e6443616c6c20746f206f7261636c654552433732313a207472616e7366657220746f20746865207a65726f2061646472657373416464726573733a20696e73756666696369656e742062616c616e636520666f722063616c6c4552433732313a206f70657261746f7220717565727920666f72206e6f6e6578697374656e7420746f6b656e4552433732313a20617070726f76652063616c6c6572206973206e6f74206f776e6572206e6f7220617070726f76656420666f7220616c6c4552433732313a2062616c616e636520717565727920666f7220746865207a65726f20616464726573734552433732313a206f776e657220717565727920666f72206e6f6e6578697374656e7420746f6b656e456e756d657261626c654d61703a20696e646578206f7574206f6620626f756e64734552433732313a20617070726f76656420717565727920666f72206e6f6e6578697374656e7420746f6b656e4552433732314d657461646174613a2055524920736574206f66206e6f6e6578697374656e7420746f6b656e4552433732313a207472616e73666572206f6620746f6b656e2074686174206973206e6f74206f776e4552433732314d657461646174613a2055524920717565727920666f72206e6f6e6578697374656e7420746f6b656e4552433732313a20617070726f76616c20746f2063757272656e74206f776e65724552433732313a207472616e736665722063616c6c6572206973206e6f74206f776e6572206e6f7220617070726f766564536f75726365206d75737420626520746865206f7261636c65206f662074686520726571756573745468652063616c6c6572206973206e6f742074686520636f6e7472616374206f776e6572a26469706673582212204b684b2747da1be8bd63678b5982b4d98651a6c48b0ed563894ca781c56b691a64736f6c6343000606003368747470733a2f2f696d616765732d626c656e642e6865726f6b756170702e636f6d2f68747470733a2f2f696d616765732d626c656e642e6865726f6b756170702e636f6d2f7365636f6e642f",
  "immutableReferences": {},
  "source": "// SPDX-License-Identifier: MIT\npragma solidity ^0.6.6;\n\nimport \"@openzeppelin/contracts/token/ERC721/ERC721.sol\";\nimport \"@chainlink/contracts/src/v0.6/ChainlinkClient.sol\";\n\ncontract Turtis is ERC721, ChainlinkClient {\n  address public contractOwner; // Owner of this contract\n\n  // Bytes32 data related to IPFS Hash returned from the API\n  bytes32 private ipfsHashOneBytes32;\n  bytes32 private ipfsHashTwoBytes32;\n\n  string public ipfsLink = \"https://ipfs.io/ipfs/\"; // Stores the IPFS link after the API call\n\n  // Chainlink Oracle, Job ID and fee required for making the API call using Chainlink\n  address private oracle;\n  bytes32 private jobId;\n  uint256 private fee;\n\n  uint256 private uniqueTokenId = 0; // Unique TokenID\n\n  string private apiBaseUrl; // Stores the base url of the api\n  string private apiSecondUrl; // API url for the second call\n\n  // Mapping from Token ID to Price\n  mapping(uint256 => uint256) public turtlesForSale;\n\n  // Events\n\n  // Emitted when a new Turtle is generated after reaching a new checkpoint in the game\n  event NewTurtleGenerated(uint256 tokenId);\n\n  // Emitted when the data received from the API is successful\n  event DataReceivedFromAPI(string ipfsLink);\n\n  // Emitted when a turtle is bought\n  event TurtleBought(uint256 tokenId);\n\n  // Emitted when a turtle is put up for sale\n  event TurtleUpForSale(uint256 tokenId);\n\n  /**\n   * Network: Matic Mumbai Testnet\n   * Oracle: 0xc8D925525CA8759812d0c299B90247917d4d4b7C\n   * Job ID: a7330d0b4b964c05abc66a26307047c0\n   * LINK address: 0x326C977E6efc84E512bB9C30f76E30c160eD06FB\n   * Fee: 0.01 LINK\n   */\n\n  // Contructor is called when an instance of 'TurtleCharacter' contract is deployed\n  constructor() public ERC721(\"TurtleCharacter\", \"TRTL\") {\n    setChainlinkToken(0x326C977E6efc84E512bB9C30f76E30c160eD06FB);\n\n    uniqueTokenId = 0;\n    contractOwner = msg.sender;\n    apiBaseUrl = \"https://images-blend.herokuapp.com/\";\n    apiSecondUrl = \"https://images-blend.herokuapp.com/second/\";\n\n    oracle = 0xc8D925525CA8759812d0c299B90247917d4d4b7C; // Address of the chainlink oracle\n    jobId = \"a7330d0b4b964c05abc66a26307047c0\"; // This Job gets data from an API in the form of a bytes32 variable\n    fee = 0.01 * 10**18; // 0.01 LINK (Fee for Chainlink Oracle for returning the required data)\n  }\n\n  // Modifer that checks to see if msg.sender == contractOwner\n  modifier onlyContractOwner() {\n    require(\n      msg.sender == contractOwner,\n      \"The caller is not the contract owner\"\n    );\n    _;\n  }\n\n  // Function 'setOracleAddress' sets a new oracle address\n  function setOracleAddress(address _oracleAddress) public onlyContractOwner {\n    oracle = _oracleAddress;\n  }\n\n  // Function 'setJobID' sets a new job ID\n  function setJobID(string memory _jobID) public onlyContractOwner {\n    jobId = stringToBytes32(_jobID);\n  }\n\n  // Function 'setFeeInLink' sets a new fee for the Chainlink Oracle\n  function setFeeInLink(uint256 _fee) public onlyContractOwner {\n    fee = _fee * 10**18;\n  }\n\n  // Function 'setApiBaseUrl' sets a new base URL link for the API\n  function setApiBaseUrl(string memory _url) public onlyContractOwner {\n    apiBaseUrl = _url;\n  }\n\n  // Function 'setApiSecondUrl' sets a new second URL link for the API\n  function setApiSecondUrl(string memory _url) public onlyContractOwner {\n    apiSecondUrl = _url;\n  }\n\n  // Function 'buyTurtle' allows anyone to buy a turtle that is put up for sale\n  function buyTurtle(uint256 _tokenId) public payable {\n    require(turtlesForSale[_tokenId] > 0, \"The Turtle should be up for sale\");\n\n    uint256 turtleCost = turtlesForSale[_tokenId];\n    turtlesForSale[_tokenId] = 0;\n\n    address ownerAddress = ownerOf(_tokenId);\n    require(msg.value > turtleCost, \"You need to have enough Ether\");\n\n    _safeTransfer(ownerAddress, msg.sender, _tokenId, bytes(\"Buy a Turtle\")); // ERC721 Token is safely transferred using this function call\n\n    address payable ownerAddressPayable = payable(ownerAddress);\n    ownerAddressPayable.transfer(turtleCost);\n    if (msg.value > turtleCost) {\n      payable(msg.sender).transfer(msg.value - turtleCost); // Excess Ether is returned back to the buyer\n    }\n\n    emit TurtleBought(_tokenId);\n  }\n\n  // Function 'putUpTurtleForSale' allows a turtle owner to put it up for sale\n  function putUpTurtleForSale(uint256 _tokenId, uint256 _price) public {\n    require(\n      _isApprovedOrOwner(_msgSender(), _tokenId),\n      \"ERC721: Caller is not owner nor approved\"\n    );\n    turtlesForSale[_tokenId] = _price;\n\n    emit TurtleUpForSale(_tokenId);\n  }\n\n  // Function 'requestNewRandomTurtle' mints a new Turtle character\n  function requestNewRandomTurtle(string memory score) public {\n    ipfsLink = \"https://ipfs.io/ipfs/\";\n    _safeMint(msg.sender, uniqueTokenId);\n    string memory apiLink = append(apiBaseUrl, \"?score=\", score);\n    string memory characterId = uint2str(totalSupply());\n    apiLink = append(apiLink, \"&characterId=\", characterId);\n    requestIPFSHash(apiLink);\n  }\n\n  // Function 'requestIPFSHash' requests a new IPFS hash from the API\n  function requestIPFSHash(string memory apiLink)\n    private\n    returns (bytes32 requestId)\n  {\n    Chainlink.Request memory request = buildChainlinkRequest(\n      jobId,\n      address(this),\n      this.fulfill.selector\n    );\n    request.add(\"get\", apiLink);\n    request.add(\"path\", \"IPFS_PATH\");\n\n    return sendChainlinkRequestTo(oracle, request, fee);\n  }\n\n  // Function 'fulfill' is called after the response for the API call is received\n  function fulfill(bytes32 _requestId, bytes32 dataFromAPI)\n    public\n    recordChainlinkFulfillment(_requestId)\n    returns (bytes32 requestId)\n  {\n    ipfsHashOneBytes32 = dataFromAPI;\n\n    Chainlink.Request memory request = buildChainlinkRequest(\n      jobId,\n      address(this),\n      this.fulfillSecondRequest.selector\n    );\n    request.add(\"get\", apiSecondUrl);\n    request.add(\"path\", \"IPFS_PATH\");\n\n    return sendChainlinkRequestTo(oracle, request, fee);\n  }\n\n  // Function 'fulfillSecondRequest' is called after the response for the API call is received\n  function fulfillSecondRequest(bytes32 _requestId, bytes32 dataFromAPI)\n    public\n    recordChainlinkFulfillment(_requestId)\n  {\n    ipfsHashTwoBytes32 = dataFromAPI;\n    generateIPFSLink();\n\n    emit DataReceivedFromAPI(ipfsLink);\n\n    setTokenURI(ipfsLink);\n\n    emit NewTurtleGenerated(uniqueTokenId - 1);\n  }\n\n  // Function 'bytes32ToString' convers a bytes32 variable to a string variable\n  function bytes32ToString(bytes32 _bytes32)\n    internal\n    pure\n    returns (string memory)\n  {\n    uint8 i = 0;\n    while (i < 32 && _bytes32[i] != 0) {\n      i++;\n    }\n    bytes memory bytesArray = new bytes(i);\n    for (i = 0; i < 32 && _bytes32[i] != 0; i++) {\n      bytesArray[i] = _bytes32[i];\n    }\n    return string(bytesArray);\n  }\n\n  // Function 'stringToBytes32' convers a string variable to a bytes32 variable\n  function stringToBytes32(string memory source)\n    internal\n    pure\n    returns (bytes32 result)\n  {\n    bytes memory tempEmptyStringTest = bytes(source);\n    if (tempEmptyStringTest.length == 0) {\n      return 0x0;\n    }\n    assembly {\n      result := mload(add(source, 32))\n    }\n  }\n\n  // Function 'generateIPFSLink' generates the IPFS link from the 2 API calls\n  function generateIPFSLink() private {\n    string memory ipfsHashPartOne = bytes32ToString(ipfsHashOneBytes32);\n    string memory ipfsHashPartTwo = bytes32ToString(ipfsHashTwoBytes32);\n    ipfsLink = append(ipfsLink, ipfsHashPartOne, ipfsHashPartTwo);\n  }\n\n  // Function 'append' appends 3 strings\n  function append(\n    string memory a,\n    string memory b,\n    string memory c\n  ) internal pure returns (string memory) {\n    return string(abi.encodePacked(a, b, c));\n  }\n\n  // Function 'uint2str' converts a uint256 variable to a string variable\n  function uint2str(uint256 _i)\n    internal\n    pure\n    returns (string memory _uintAsString)\n  {\n    if (_i == 0) {\n      return \"0\";\n    }\n    uint256 j = _i;\n    uint256 len;\n    while (j != 0) {\n      len++;\n      j /= 10;\n    }\n    bytes memory bstr = new bytes(len);\n    uint256 k = len;\n    while (_i != 0) {\n      k = k - 1;\n      uint8 temp = (48 + uint8(_i - (_i / 10) * 10));\n      bytes1 b1 = bytes1(temp);\n      bstr[k] = b1;\n      _i /= 10;\n    }\n    return string(bstr);\n  }\n\n  // Function 'setTokenURI' sets the Token URI for the ERC721 standard token\n  function setTokenURI(string memory _tokenURI) private {\n    _setTokenURI(uniqueTokenId, _tokenURI);\n    uniqueTokenId++;\n  }\n}\n",
  "sourcePath": "D:/EthOdyssey/NFT-Game/contracts/Turtis.sol",
  "compiler": {
    "name": "solc",
    "version": "0.6.6+commit.6c089d02.Emscripten.clang"
  },
  "schemaVersion": "3.4.1",
  "updatedAt": "2021-07-29T12:58:21.806Z",
  "networkType": "ethereum",
  "devdoc": {
    "methods": {
      "approve(address,uint256)": {
        "details": "See {IERC721-approve}."
      },
      "balanceOf(address)": {
        "details": "See {IERC721-balanceOf}."
      },
      "baseURI()": {
        "details": "Returns the base URI set via {_setBaseURI}. This will be automatically added as a prefix in {tokenURI} to each token's URI, or to the token ID if no specific URI is set for that token ID."
      },
      "getApproved(uint256)": {
        "details": "See {IERC721-getApproved}."
      },
      "isApprovedForAll(address,address)": {
        "details": "See {IERC721-isApprovedForAll}."
      },
      "name()": {
        "details": "See {IERC721Metadata-name}."
      },
      "ownerOf(uint256)": {
        "details": "See {IERC721-ownerOf}."
      },
      "safeTransferFrom(address,address,uint256)": {
        "details": "See {IERC721-safeTransferFrom}."
      },
      "safeTransferFrom(address,address,uint256,bytes)": {
        "details": "See {IERC721-safeTransferFrom}."
      },
      "setApprovalForAll(address,bool)": {
        "details": "See {IERC721-setApprovalForAll}."
      },
      "supportsInterface(bytes4)": {
        "details": "See {IERC165-supportsInterface}.     * Time complexity O(1), guaranteed to always use less than 30 000 gas."
      },
      "symbol()": {
        "details": "See {IERC721Metadata-symbol}."
      },
      "tokenByIndex(uint256)": {
        "details": "See {IERC721Enumerable-tokenByIndex}."
      },
      "tokenOfOwnerByIndex(address,uint256)": {
        "details": "See {IERC721Enumerable-tokenOfOwnerByIndex}."
      },
      "tokenURI(uint256)": {
        "details": "See {IERC721Metadata-tokenURI}."
      },
      "totalSupply()": {
        "details": "See {IERC721Enumerable-totalSupply}."
      },
      "transferFrom(address,address,uint256)": {
        "details": "See {IERC721-transferFrom}."
      }
    }
  },
  "userdoc": {
    "methods": {
      "constructor": "Network: Matic Mumbai Testnet Oracle: 0xc8D925525CA8759812d0c299B90247917d4d4b7C Job ID: a7330d0b4b964c05abc66a26307047c0 LINK address: 0x326C977E6efc84E512bB9C30f76E30c160eD06FB Fee: 0.01 LINK"
    }
  }
}