{
  "contractName": "TurtleCharacter",
  "abi": [
    {
      "inputs": [],
      "stateMutability": "nonpayable",
      "type": "constructor"
    },
    {
      "anonymous": false,
      "inputs": [
        {
          "indexed": true,
          "internalType": "address",
          "name": "owner",
          "type": "address"
        },
        {
          "indexed": true,
          "internalType": "address",
          "name": "approved",
          "type": "address"
        },
        {
          "indexed": true,
          "internalType": "uint256",
          "name": "tokenId",
          "type": "uint256"
        }
      ],
      "name": "Approval",
      "type": "event"
    },
    {
      "anonymous": false,
      "inputs": [
        {
          "indexed": true,
          "internalType": "address",
          "name": "owner",
          "type": "address"
        },
        {
          "indexed": true,
          "internalType": "address",
          "name": "operator",
          "type": "address"
        },
        {
          "indexed": false,
          "internalType": "bool",
          "name": "approved",
          "type": "bool"
        }
      ],
      "name": "ApprovalForAll",
      "type": "event"
    },
    {
      "anonymous": false,
      "inputs": [
        {
          "indexed": true,
          "internalType": "bytes32",
          "name": "id",
          "type": "bytes32"
        }
      ],
      "name": "ChainlinkCancelled",
      "type": "event"
    },
    {
      "anonymous": false,
      "inputs": [
        {
          "indexed": true,
          "internalType": "bytes32",
          "name": "id",
          "type": "bytes32"
        }
      ],
      "name": "ChainlinkFulfilled",
      "type": "event"
    },
    {
      "anonymous": false,
      "inputs": [
        {
          "indexed": true,
          "internalType": "bytes32",
          "name": "id",
          "type": "bytes32"
        }
      ],
      "name": "ChainlinkRequested",
      "type": "event"
    },
    {
      "anonymous": false,
      "inputs": [
        {
          "indexed": true,
          "internalType": "address",
          "name": "from",
          "type": "address"
        },
        {
          "indexed": true,
          "internalType": "address",
          "name": "to",
          "type": "address"
        },
        {
          "indexed": true,
          "internalType": "uint256",
          "name": "tokenId",
          "type": "uint256"
        }
      ],
      "name": "Transfer",
      "type": "event"
    },
    {
      "inputs": [
        {
          "internalType": "address",
          "name": "to",
          "type": "address"
        },
        {
          "internalType": "uint256",
          "name": "tokenId",
          "type": "uint256"
        }
      ],
      "name": "approve",
      "outputs": [],
      "stateMutability": "nonpayable",
      "type": "function"
    },
    {
      "inputs": [
        {
          "internalType": "address",
          "name": "owner",
          "type": "address"
        }
      ],
      "name": "balanceOf",
      "outputs": [
        {
          "internalType": "uint256",
          "name": "",
          "type": "uint256"
        }
      ],
      "stateMutability": "view",
      "type": "function",
      "constant": true
    },
    {
      "inputs": [],
      "name": "baseURI",
      "outputs": [
        {
          "internalType": "string",
          "name": "",
          "type": "string"
        }
      ],
      "stateMutability": "view",
      "type": "function",
      "constant": true
    },
    {
      "inputs": [
        {
          "internalType": "uint256",
          "name": "tokenId",
          "type": "uint256"
        }
      ],
      "name": "getApproved",
      "outputs": [
        {
          "internalType": "address",
          "name": "",
          "type": "address"
        }
      ],
      "stateMutability": "view",
      "type": "function",
      "constant": true
    },
    {
      "inputs": [],
      "name": "ipfsLink",
      "outputs": [
        {
          "internalType": "string",
          "name": "",
          "type": "string"
        }
      ],
      "stateMutability": "view",
      "type": "function",
      "constant": true
    },
    {
      "inputs": [
        {
          "internalType": "address",
          "name": "owner",
          "type": "address"
        },
        {
          "internalType": "address",
          "name": "operator",
          "type": "address"
        }
      ],
      "name": "isApprovedForAll",
      "outputs": [
        {
          "internalType": "bool",
          "name": "",
          "type": "bool"
        }
      ],
      "stateMutability": "view",
      "type": "function",
      "constant": true
    },
    {
      "inputs": [],
      "name": "name",
      "outputs": [
        {
          "internalType": "string",
          "name": "",
          "type": "string"
        }
      ],
      "stateMutability": "view",
      "type": "function",
      "constant": true
    },
    {
      "inputs": [
        {
          "internalType": "uint256",
          "name": "tokenId",
          "type": "uint256"
        }
      ],
      "name": "ownerOf",
      "outputs": [
        {
          "internalType": "address",
          "name": "",
          "type": "address"
        }
      ],
      "stateMutability": "view",
      "type": "function",
      "constant": true
    },
    {
      "inputs": [
        {
          "internalType": "address",
          "name": "from",
          "type": "address"
        },
        {
          "internalType": "address",
          "name": "to",
          "type": "address"
        },
        {
          "internalType": "uint256",
          "name": "tokenId",
          "type": "uint256"
        }
      ],
      "name": "safeTransferFrom",
      "outputs": [],
      "stateMutability": "nonpayable",
      "type": "function"
    },
    {
      "inputs": [
        {
          "internalType": "address",
          "name": "from",
          "type": "address"
        },
        {
          "internalType": "address",
          "name": "to",
          "type": "address"
        },
        {
          "internalType": "uint256",
          "name": "tokenId",
          "type": "uint256"
        },
        {
          "internalType": "bytes",
          "name": "_data",
          "type": "bytes"
        }
      ],
      "name": "safeTransferFrom",
      "outputs": [],
      "stateMutability": "nonpayable",
      "type": "function"
    },
    {
      "inputs": [
        {
          "internalType": "address",
          "name": "operator",
          "type": "address"
        },
        {
          "internalType": "bool",
          "name": "approved",
          "type": "bool"
        }
      ],
      "name": "setApprovalForAll",
      "outputs": [],
      "stateMutability": "nonpayable",
      "type": "function"
    },
    {
      "inputs": [
        {
          "internalType": "bytes4",
          "name": "interfaceId",
          "type": "bytes4"
        }
      ],
      "name": "supportsInterface",
      "outputs": [
        {
          "internalType": "bool",
          "name": "",
          "type": "bool"
        }
      ],
      "stateMutability": "view",
      "type": "function",
      "constant": true
    },
    {
      "inputs": [],
      "name": "symbol",
      "outputs": [
        {
          "internalType": "string",
          "name": "",
          "type": "string"
        }
      ],
      "stateMutability": "view",
      "type": "function",
      "constant": true
    },
    {
      "inputs": [
        {
          "internalType": "uint256",
          "name": "index",
          "type": "uint256"
        }
      ],
      "name": "tokenByIndex",
      "outputs": [
        {
          "internalType": "uint256",
          "name": "",
          "type": "uint256"
        }
      ],
      "stateMutability": "view",
      "type": "function",
      "constant": true
    },
    {
      "inputs": [
        {
          "internalType": "address",
          "name": "owner",
          "type": "address"
        },
        {
          "internalType": "uint256",
          "name": "index",
          "type": "uint256"
        }
      ],
      "name": "tokenOfOwnerByIndex",
      "outputs": [
        {
          "internalType": "uint256",
          "name": "",
          "type": "uint256"
        }
      ],
      "stateMutability": "view",
      "type": "function",
      "constant": true
    },
    {
      "inputs": [
        {
          "internalType": "uint256",
          "name": "tokenId",
          "type": "uint256"
        }
      ],
      "name": "tokenURI",
      "outputs": [
        {
          "internalType": "string",
          "name": "",
          "type": "string"
        }
      ],
      "stateMutability": "view",
      "type": "function",
      "constant": true
    },
    {
      "inputs": [],
      "name": "totalSupply",
      "outputs": [
        {
          "internalType": "uint256",
          "name": "",
          "type": "uint256"
        }
      ],
      "stateMutability": "view",
      "type": "function",
      "constant": true
    },
    {
      "inputs": [
        {
          "internalType": "address",
          "name": "from",
          "type": "address"
        },
        {
          "internalType": "address",
          "name": "to",
          "type": "address"
        },
        {
          "internalType": "uint256",
          "name": "tokenId",
          "type": "uint256"
        }
      ],
      "name": "transferFrom",
      "outputs": [],
      "stateMutability": "nonpayable",
      "type": "function"
    },
    {
      "inputs": [],
      "name": "volume",
      "outputs": [
        {
          "internalType": "bytes32",
          "name": "",
          "type": "bytes32"
        }
      ],
      "stateMutability": "view",
      "type": "function",
      "constant": true
    },
    {
      "inputs": [],
      "name": "volume2",
      "outputs": [
        {
          "internalType": "bytes32",
          "name": "",
          "type": "bytes32"
        }
      ],
      "stateMutability": "view",
      "type": "function",
      "constant": true
    },
    {
      "inputs": [],
      "name": "requestRandomCharacter",
      "outputs": [],
      "stateMutability": "nonpayable",
      "type": "function"
    },
    {
      "inputs": [],
      "name": "requestVolumeData",
      "outputs": [
        {
          "internalType": "bytes32",
          "name": "requestId",
          "type": "bytes32"
        }
      ],
      "stateMutability": "nonpayable",
      "type": "function"
    },
    {
      "inputs": [
        {
          "internalType": "bytes32",
          "name": "_requestId",
          "type": "bytes32"
        },
        {
          "internalType": "bytes32",
          "name": "_volume",
          "type": "bytes32"
        }
      ],
      "name": "fulfill",
      "outputs": [
        {
          "internalType": "bytes32",
          "name": "requestId",
          "type": "bytes32"
        }
      ],
      "stateMutability": "nonpayable",
      "type": "function"
    },
    {
      "inputs": [
        {
          "internalType": "bytes32",
          "name": "_requestId",
          "type": "bytes32"
        },
        {
          "internalType": "bytes32",
          "name": "_volume",
          "type": "bytes32"
        }
      ],
      "name": "fulfillSecondRequest",
      "outputs": [],
      "stateMutability": "nonpayable",
      "type": "function"
    },
    {
      "inputs": [
        {
          "internalType": "bytes32",
          "name": "_bytes32",
          "type": "bytes32"
        }
      ],
      "name": "bytes32ToString",
      "outputs": [
        {
          "internalType": "string",
          "name": "",
          "type": "string"
        }
      ],
      "stateMutability": "pure",
      "type": "function",
      "constant": true
    },
    {
      "inputs": [],
      "name": "generateIPFSLink",
      "outputs": [],
      "stateMutability": "nonpayable",
      "type": "function"
    },
    {
      "inputs": [
        {
          "internalType": "string",
          "name": "_tokenURI",
          "type": "string"
        }
      ],
      "name": "setTokenURI",
      "outputs": [],
      "stateMutability": "nonpayable",
      "type": "function"
    }
  ],
  "bytecode": "0x60806040526001600e556040518060400160405280601581526020017f68747470733a2f2f697066732e696f2f697066732f0000000000000000000000815250601290805190602001906200005692919062000402565b5060006016553480156200006957600080fd5b506040518060400160405280600f81526020017f547572746c6543686172616374657200000000000000000000000000000000008152506040518060400160405280600481526020017f5452544c00000000000000000000000000000000000000000000000000000000815250620000ee6301ffc9a760e01b6200020b60201b60201c565b81600690805190602001906200010692919062000402565b5080600790805190602001906200011f92919062000402565b50620001386380ac58cd60e01b6200020b60201b60201c565b62000150635b5e139f60e01b6200020b60201b60201c565b6200016863780e9d6360e01b6200020b60201b60201c565b50506200017a6200031460201b60201c565b73aa1dc356dc4b18f30c347798fd5379f3d77abc5b601360006101000a81548173ffffffffffffffffffffffffffffffffffffffff021916908373ffffffffffffffffffffffffffffffffffffffff1602179055507f623732383564343835396461346232383963373836316462393731626166306160148190555067016345785d8a0000601581905550620004b1565b63ffffffff60e01b817bffffffffffffffffffffffffffffffffffffffffffffffffffffffff19161415620002a8576040517f08c379a000000000000000000000000000000000000000000000000000000000815260040180806020018281038252601c8152602001807f4552433136353a20696e76616c696420696e746572666163652069640000000081525060200191505060405180910390fd5b6001600080837bffffffffffffffffffffffffffffffffffffffffffffffffffffffff19167bffffffffffffffffffffffffffffffffffffffffffffffffffffffff1916815260200190815260200160002060006101000a81548160ff02191690831515021790555050565b620003bc73c89bd4e1632d3a43cb03aaad5262cbe4038bc57173ffffffffffffffffffffffffffffffffffffffff166338cc48316040518163ffffffff1660e01b815260040160206040518083038186803b1580156200037357600080fd5b505afa15801562000388573d6000803e3d6000fd5b505050506040513d60208110156200039f57600080fd5b8101908080519060200190929190505050620003be60201b60201c565b565b80600c60006101000a81548173ffffffffffffffffffffffffffffffffffffffff021916908373ffffffffffffffffffffffffffffffffffffffff16021790555050565b828054600181600116156101000203166002900490600052602060002090601f016020900481019282601f106200044557805160ff191683800117855562000476565b8280016001018555821562000476579182015b828111156200047557825182559160200191906001019062000458565b5b50905062000485919062000489565b5090565b620004ae91905b80821115620004aa57600081600090555060010162000490565b5090565b90565b61413180620004c16000396000f3fe608060405234801561001057600080fd5b50600436106101a95760003560e01c80636006e134116100f957806395d89b4111610097578063c618a1e411610071578063c618a1e414610a0f578063c87b56dd14610a2d578063e0df5b6f14610ad4578063e985e9c514610b8f576101a9565b806395d89b4114610837578063a22cb465146108ba578063b88d4fde1461090a576101a9565b80636c0360eb116100d35780636c0360eb146106ab57806370a082311461072e57806389ec60ce146107865780639201de5514610790576101a9565b80636006e134146106015780636021abac1461061f5780636352211e1461063d576101a9565b806323b872dd116101665780632b9d8c9a116101405780632b9d8c9a1461046c5780632f745c59146104ef57806342842e0e146105515780634f6ccce7146105bf576101a9565b806323b872dd146103bc578063259049f41461042a5780632b22aaea14610434576101a9565b806301ffc9a7146101ae578063042f2b651461021357806306fdde031461025f578063081812fc146102e2578063095ea7b31461035057806318160ddd1461039e575b600080fd5b6101f9600480360360208110156101c457600080fd5b8101908080357bffffffffffffffffffffffffffffffffffffffffffffffffffffffff19169060200190929190505050610c0b565b604051808215151515815260200191505060405180910390f35b6102496004803603604081101561022957600080fd5b810190808035906020019092919080359060200190929190505050610c72565b6040518082815260200191505060405180910390f35b610267610ece565b6040518080602001828103825283818151815260200191508051906020019080838360005b838110156102a757808201518184015260208101905061028c565b50505050905090810190601f1680156102d45780820380516001836020036101000a031916815260200191505b509250505060405180910390f35b61030e600480360360208110156102f857600080fd5b8101908080359060200190929190505050610f70565b604051808273ffffffffffffffffffffffffffffffffffffffff1673ffffffffffffffffffffffffffffffffffffffff16815260200191505060405180910390f35b61039c6004803603604081101561036657600080fd5b81019080803573ffffffffffffffffffffffffffffffffffffffff1690602001909291908035906020019092919050505061100b565b005b6103a661114f565b6040518082815260200191505060405180910390f35b610428600480360360608110156103d257600080fd5b81019080803573ffffffffffffffffffffffffffffffffffffffff169060200190929190803573ffffffffffffffffffffffffffffffffffffffff16906020019092919080359060200190929190505050611160565b005b6104326111d6565b005b61046a6004803603604081101561044a57600080fd5b81019080803590602001909291908035906020019092919050505061122d565b005b6104746113ff565b6040518080602001828103825283818151815260200191508051906020019080838360005b838110156104b4578082015181840152602081019050610499565b50505050905090810190601f1680156104e15780820380516001836020036101000a031916815260200191505b509250505060405180910390f35b61053b6004803603604081101561050557600080fd5b81019080803573ffffffffffffffffffffffffffffffffffffffff1690602001909291908035906020019092919050505061149d565b6040518082815260200191505060405180910390f35b6105bd6004803603606081101561056757600080fd5b81019080803573ffffffffffffffffffffffffffffffffffffffff169060200190929190803573ffffffffffffffffffffffffffffffffffffffff169060200190929190803590602001909291905050506114f8565b005b6105eb600480360360208110156105d557600080fd5b8101908080359060200190929190505050611518565b6040518082815260200191505060405180910390f35b61060961153b565b6040518082815260200191505060405180910390f35b610627611541565b6040518082815260200191505060405180910390f35b6106696004803603602081101561065357600080fd5b8101908080359060200190929190505050611677565b604051808273ffffffffffffffffffffffffffffffffffffffff1673ffffffffffffffffffffffffffffffffffffffff16815260200191505060405180910390f35b6106b36116ae565b6040518080602001828103825283818151815260200191508051906020019080838360005b838110156106f35780820151818401526020810190506106d8565b50505050905090810190601f1680156107205780820380516001836020036101000a031916815260200191505b509250505060405180910390f35b6107706004803603602081101561074457600080fd5b81019080803573ffffffffffffffffffffffffffffffffffffffff169060200190929190505050611750565b6040518082815260200191505060405180910390f35b61078e611825565b005b6107bc600480360360208110156107a657600080fd5b8101908080359060200190929190505050611902565b6040518080602001828103825283818151815260200191508051906020019080838360005b838110156107fc5780820151818401526020810190506107e1565b50505050905090810190601f1680156108295780820380516001836020036101000a031916815260200191505b509250505060405180910390f35b61083f611a76565b6040518080602001828103825283818151815260200191508051906020019080838360005b8381101561087f578082015181840152602081019050610864565b50505050905090810190601f1680156108ac5780820380516001836020036101000a031916815260200191505b509250505060405180910390f35b610908600480360360408110156108d057600080fd5b81019080803573ffffffffffffffffffffffffffffffffffffffff169060200190929190803515159060200190929190505050611b18565b005b610a0d6004803603608081101561092057600080fd5b81019080803573ffffffffffffffffffffffffffffffffffffffff169060200190929190803573ffffffffffffffffffffffffffffffffffffffff169060200190929190803590602001909291908035906020019064010000000081111561098757600080fd5b82018360208201111561099957600080fd5b803590602001918460018302840111640100000000831117156109bb57600080fd5b91908080601f016020809104026020016040519081016040528093929190818152602001838380828437600081840152601f19601f820116905080830192505050505050509192919290505050611cd0565b005b610a17611d48565b6040518082815260200191505060405180910390f35b610a5960048036036020811015610a4357600080fd5b8101908080359060200190929190505050611d4e565b6040518080602001828103825283818151815260200191508051906020019080838360005b83811015610a99578082015181840152602081019050610a7e565b50505050905090810190601f168015610ac65780820380516001836020036101000a031916815260200191505b509250505060405180910390f35b610b8d60048036036020811015610aea57600080fd5b8101908080359060200190640100000000811115610b0757600080fd5b820183602082011115610b1957600080fd5b80359060200191846001830284011164010000000083111715610b3b57600080fd5b91908080601f016020809104026020016040519081016040528093929190818152602001838380828437600081840152601f19601f82011690508083019250505050505050919291929050505061201f565b005b610bf160048036036040811015610ba557600080fd5b81019080803573ffffffffffffffffffffffffffffffffffffffff169060200190929190803573ffffffffffffffffffffffffffffffffffffffff1690602001909291905050506120a8565b604051808215151515815260200191505060405180910390f35b6000806000837bffffffffffffffffffffffffffffffffffffffffffffffffffffffff19167bffffffffffffffffffffffffffffffffffffffffffffffffffffffff1916815260200190815260200160002060009054906101000a900460ff169050919050565b600082600f600082815260200190815260200160002060009054906101000a900473ffffffffffffffffffffffffffffffffffffffff1673ffffffffffffffffffffffffffffffffffffffff163373ffffffffffffffffffffffffffffffffffffffff1614610d2c576040517f08c379a00000000000000000000000000000000000000000000000000000000081526004018080602001828103825260288152602001806140d46028913960400191505060405180910390fd5b600f600082815260200190815260200160002060006101000a81549073ffffffffffffffffffffffffffffffffffffffff0219169055807f7cc135e0cebb02c3480ae5d74d377283180a2601f8f644edf7987b009316c63a60405160405180910390a282601081905550610d9e613cbf565b610db260145430632b22aaea60e01b61213c565b9050610e166040518060400160405280600381526020017f6765740000000000000000000000000000000000000000000000000000000000815250604051806060016040528060298152602001613e0e602991398361216d9092919063ffffffff16565b610e956040518060400160405280600481526020017f70617468000000000000000000000000000000000000000000000000000000008152506040518060400160405280600981526020017f495046535f5041544800000000000000000000000000000000000000000000008152508361216d9092919063ffffffff16565b610ec4601360009054906101000a900473ffffffffffffffffffffffffffffffffffffffff16826015546121a0565b9250505092915050565b606060068054600181600116156101000203166002900480601f016020809104026020016040519081016040528092919081815260200182805460018160011615610100020316600290048015610f665780601f10610f3b57610100808354040283529160200191610f66565b820191906000526020600020905b815481529060010190602001808311610f4957829003601f168201915b5050505050905090565b6000610f7b82612458565b610fd0576040517f08c379a000000000000000000000000000000000000000000000000000000000815260040180806020018281038252602c815260200180613fd2602c913960400191505060405180910390fd5b6004600083815260200190815260200160002060009054906101000a900473ffffffffffffffffffffffffffffffffffffffff169050919050565b600061101682611677565b90508073ffffffffffffffffffffffffffffffffffffffff168373ffffffffffffffffffffffffffffffffffffffff16141561109d576040517f08c379a00000000000000000000000000000000000000000000000000000000081526004018080602001828103825260218152602001806140826021913960400191505060405180910390fd5b8073ffffffffffffffffffffffffffffffffffffffff166110bc612475565b73ffffffffffffffffffffffffffffffffffffffff1614806110eb57506110ea816110e5612475565b6120a8565b5b611140576040517f08c379a0000000000000000000000000000000000000000000000000000000008152600401808060200182810382526038815260200180613f026038913960400191505060405180910390fd5b61114a838361247d565b505050565b600061115b6002612536565b905090565b61117161116b612475565b8261254b565b6111c6576040517f08c379a00000000000000000000000000000000000000000000000000000000081526004018080602001828103825260318152602001806140a36031913960400191505060405180910390fd5b6111d183838361263f565b505050565b6040518060400160405280601581526020017f68747470733a2f2f697066732e696f2f697066732f000000000000000000000081525060129080519060200190611221929190613d2c565b5061122a611541565b50565b81600f600082815260200190815260200160002060009054906101000a900473ffffffffffffffffffffffffffffffffffffffff1673ffffffffffffffffffffffffffffffffffffffff163373ffffffffffffffffffffffffffffffffffffffff16146112e5576040517f08c379a00000000000000000000000000000000000000000000000000000000081526004018080602001828103825260288152602001806140d46028913960400191505060405180910390fd5b600f600082815260200190815260200160002060006101000a81549073ffffffffffffffffffffffffffffffffffffffff0219169055807f7cc135e0cebb02c3480ae5d74d377283180a2601f8f644edf7987b009316c63a60405160405180910390a281601181905550611357611825565b6113fa60128054600181600116156101000203166002900480601f0160208091040260200160405190810160405280929190818152602001828054600181600116156101000203166002900480156113f05780601f106113c5576101008083540402835291602001916113f0565b820191906000526020600020905b8154815290600101906020018083116113d357829003601f168201915b505050505061201f565b505050565b60128054600181600116156101000203166002900480601f0160208091040260200160405190810160405280929190818152602001828054600181600116156101000203166002900480156114955780601f1061146a57610100808354040283529160200191611495565b820191906000526020600020905b81548152906001019060200180831161147857829003601f168201915b505050505081565b60006114f082600160008673ffffffffffffffffffffffffffffffffffffffff1673ffffffffffffffffffffffffffffffffffffffff16815260200190815260200160002061288290919063ffffffff16565b905092915050565b61151383838360405180602001604052806000815250611cd0565b505050565b60008061152f83600261289c90919063ffffffff16565b50905080915050919050565b60115481565b600061154b613cbf565b61155f6014543063042f2b6560e01b61213c565b90506115c36040518060400160405280600381526020017f6765740000000000000000000000000000000000000000000000000000000000815250604051806060016040528060238152602001613faf602391398361216d9092919063ffffffff16565b6116426040518060400160405280600481526020017f70617468000000000000000000000000000000000000000000000000000000008152506040518060400160405280600981526020017f495046535f5041544800000000000000000000000000000000000000000000008152508361216d9092919063ffffffff16565b611671601360009054906101000a900473ffffffffffffffffffffffffffffffffffffffff16826015546121a0565b91505090565b60006116a782604051806060016040528060298152602001613f646029913960026128cb9092919063ffffffff16565b9050919050565b606060098054600181600116156101000203166002900480601f0160208091040260200160405190810160405280929190818152602001828054600181600116156101000203166002900480156117465780601f1061171b57610100808354040283529160200191611746565b820191906000526020600020905b81548152906001019060200180831161172957829003601f168201915b5050505050905090565b60008073ffffffffffffffffffffffffffffffffffffffff168273ffffffffffffffffffffffffffffffffffffffff1614156117d7576040517f08c379a000000000000000000000000000000000000000000000000000000000815260040180806020018281038252602a815260200180613f3a602a913960400191505060405180910390fd5b61181e600160008473ffffffffffffffffffffffffffffffffffffffff1673ffffffffffffffffffffffffffffffffffffffff1681526020019081526020016000206128ea565b9050919050565b6060611832601054611902565b90506060611841601154611902565b90506118e860128054600181600116156101000203166002900480601f0160208091040260200160405190810160405280929190818152602001828054600181600116156101000203166002900480156118dc5780601f106118b1576101008083540402835291602001916118dc565b820191906000526020600020905b8154815290600101906020018083116118bf57829003601f168201915b505050505083836128ff565b601290805190602001906118fd929190613d2c565b505050565b606060008090505b60208160ff161080156119555750600060f81b838260ff166020811061192c57fe5b1a60f81b7effffffffffffffffffffffffffffffffffffffffffffffffffffffffffffff191614155b1561196757808060010191505061190a565b60608160ff1667ffffffffffffffff8111801561198357600080fd5b506040519080825280601f01601f1916602001820160405280156119b65781602001600182028036833780820191505090505b509050600091505b60208260ff16108015611a095750600060f81b848360ff16602081106119e057fe5b1a60f81b7effffffffffffffffffffffffffffffffffffffffffffffffffffffffffffff191614155b15611a6c57838260ff1660208110611a1d57fe5b1a60f81b818360ff1681518110611a3057fe5b60200101907effffffffffffffffffffffffffffffffffffffffffffffffffffffffffffff1916908160001a90535081806001019250506119be565b8092505050919050565b606060078054600181600116156101000203166002900480601f016020809104026020016040519081016040528092919081815260200182805460018160011615610100020316600290048015611b0e5780601f10611ae357610100808354040283529160200191611b0e565b820191906000526020600020905b815481529060010190602001808311611af157829003601f168201915b5050505050905090565b611b20612475565b73ffffffffffffffffffffffffffffffffffffffff168273ffffffffffffffffffffffffffffffffffffffff161415611bc1576040517f08c379a00000000000000000000000000000000000000000000000000000000081526004018080602001828103825260198152602001807f4552433732313a20617070726f766520746f2063616c6c65720000000000000081525060200191505060405180910390fd5b8060056000611bce612475565b73ffffffffffffffffffffffffffffffffffffffff1673ffffffffffffffffffffffffffffffffffffffff16815260200190815260200160002060008473ffffffffffffffffffffffffffffffffffffffff1673ffffffffffffffffffffffffffffffffffffffff16815260200190815260200160002060006101000a81548160ff0219169083151502179055508173ffffffffffffffffffffffffffffffffffffffff16611c7b612475565b73ffffffffffffffffffffffffffffffffffffffff167f17307eab39ab6107e8899845ad3d59bd9653f200f220920489ca2b5937696c3183604051808215151515815260200191505060405180910390a35050565b611ce1611cdb612475565b8361254b565b611d36576040517f08c379a00000000000000000000000000000000000000000000000000000000081526004018080602001828103825260318152602001806140a36031913960400191505060405180910390fd5b611d4284848484612a1b565b50505050565b60105481565b6060611d5982612458565b611dae576040517f08c379a000000000000000000000000000000000000000000000000000000000815260040180806020018281038252602f815260200180614053602f913960400191505060405180910390fd5b6060600860008481526020019081526020016000208054600181600116156101000203166002900480601f016020809104026020016040519081016040528092919081815260200182805460018160011615610100020316600290048015611e575780601f10611e2c57610100808354040283529160200191611e57565b820191906000526020600020905b815481529060010190602001808311611e3a57829003601f168201915b505050505090506060611e686116ae565b9050600081511415611e7e57819250505061201a565b600082511115611f4f5780826040516020018083805190602001908083835b60208310611ec05780518252602082019150602081019050602083039250611e9d565b6001836020036101000a03801982511681845116808217855250505050505090500182805190602001908083835b60208310611f115780518252602082019150602081019050602083039250611eee565b6001836020036101000a038019825116818451168082178552505050505050905001925050506040516020818303038152906040529250505061201a565b80611f5985612a8d565b6040516020018083805190602001908083835b60208310611f8f5780518252602082019150602081019050602083039250611f6c565b6001836020036101000a03801982511681845116808217855250505050505090500182805190602001908083835b60208310611fe05780518252602082019150602081019050602083039250611fbd565b6001836020036101000a03801982511681845116808217855250505050505090500192505050604051602081830303815290604052925050505b919050565b61203261202a612475565b60165461254b565b612087576040517f08c379a00000000000000000000000000000000000000000000000000000000081526004018080602001828103825260318152602001806140a36031913960400191505060405180910390fd5b61209360165482612bd4565b60166000815480929190600101919050555050565b6000600560008473ffffffffffffffffffffffffffffffffffffffff1673ffffffffffffffffffffffffffffffffffffffff16815260200190815260200160002060008373ffffffffffffffffffffffffffffffffffffffff1673ffffffffffffffffffffffffffffffffffffffff16815260200190815260200160002060009054906101000a900460ff16905092915050565b612144613cbf565b61214c613cbf565b61216385858584612c5e909392919063ffffffff16565b9150509392505050565b612184828460800151612d0e90919063ffffffff16565b61219b818460800151612d0e90919063ffffffff16565b505050565b600030600e54604051602001808373ffffffffffffffffffffffffffffffffffffffff1673ffffffffffffffffffffffffffffffffffffffff1660601b815260140182815260200192505050604051602081830303815290604052805190602001209050600e5483606001818152505083600f600083815260200190815260200160002060006101000a81548173ffffffffffffffffffffffffffffffffffffffff021916908373ffffffffffffffffffffffffffffffffffffffff160217905550807fb5e6e01e79f91267dc17b4e6314d5d4d03593d2ceee0fbb452b750bd70ea5af960405160405180910390a2600c60009054906101000a900473ffffffffffffffffffffffffffffffffffffffff1673ffffffffffffffffffffffffffffffffffffffff16634000aea085846122d887612d33565b6040518463ffffffff1660e01b8152600401808473ffffffffffffffffffffffffffffffffffffffff1673ffffffffffffffffffffffffffffffffffffffff16815260200183815260200180602001828103825283818151815260200191508051906020019080838360005b8381101561235f578082015181840152602081019050612344565b50505050905090810190601f16801561238c5780820380516001836020036101000a031916815260200191505b50945050505050602060405180830381600087803b1580156123ad57600080fd5b505af11580156123c1573d6000803e3d6000fd5b505050506040513d60208110156123d757600080fd5b810190808051906020019092919050505061243d576040517f08c379a0000000000000000000000000000000000000000000000000000000008152600401808060200182810382526023815260200180613e696023913960400191505060405180910390fd5b6001600e600082825401925050819055508090509392505050565b600061246e826002612eff90919063ffffffff16565b9050919050565b600033905090565b816004600083815260200190815260200160002060006101000a81548173ffffffffffffffffffffffffffffffffffffffff021916908373ffffffffffffffffffffffffffffffffffffffff160217905550808273ffffffffffffffffffffffffffffffffffffffff166124f083611677565b73ffffffffffffffffffffffffffffffffffffffff167f8c5be1e5ebec7d5bd14f71427d1e84f3dd0314c0f7b2291e5b200ac8c7c3b92560405160405180910390a45050565b600061254482600001612f19565b9050919050565b600061255682612458565b6125ab576040517f08c379a000000000000000000000000000000000000000000000000000000000815260040180806020018281038252602c815260200180613ed6602c913960400191505060405180910390fd5b60006125b683611677565b90508073ffffffffffffffffffffffffffffffffffffffff168473ffffffffffffffffffffffffffffffffffffffff16148061262557508373ffffffffffffffffffffffffffffffffffffffff1661260d84610f70565b73ffffffffffffffffffffffffffffffffffffffff16145b80612636575061263581856120a8565b5b91505092915050565b8273ffffffffffffffffffffffffffffffffffffffff1661265f82611677565b73ffffffffffffffffffffffffffffffffffffffff16146126cb576040517f08c379a000000000000000000000000000000000000000000000000000000000815260040180806020018281038252602981526020018061402a6029913960400191505060405180910390fd5b600073ffffffffffffffffffffffffffffffffffffffff168273ffffffffffffffffffffffffffffffffffffffff161415612751576040517f08c379a0000000000000000000000000000000000000000000000000000000008152600401808060200182810382526024815260200180613e8c6024913960400191505060405180910390fd5b61275c838383612f2a565b61276760008261247d565b6127b881600160008673ffffffffffffffffffffffffffffffffffffffff1673ffffffffffffffffffffffffffffffffffffffff168152602001908152602001600020612f2f90919063ffffffff16565b5061280a81600160008573ffffffffffffffffffffffffffffffffffffffff1673ffffffffffffffffffffffffffffffffffffffff168152602001908152602001600020612f4990919063ffffffff16565b5061282181836002612f639092919063ffffffff16565b50808273ffffffffffffffffffffffffffffffffffffffff168473ffffffffffffffffffffffffffffffffffffffff167fddf252ad1be2c89b69c2b068fc378daa952ba7f163c4a11628f55a4df523b3ef60405160405180910390a4505050565b60006128918360000183612f98565b60001c905092915050565b6000806000806128af866000018661301b565b915091508160001c8160001c8090509350935050509250929050565b60006128de846000018460001b846130b4565b60001c90509392505050565b60006128f8826000016131aa565b9050919050565b60608383836040516020018084805190602001908083835b6020831061293a5780518252602082019150602081019050602083039250612917565b6001836020036101000a03801982511681845116808217855250505050505090500183805190602001908083835b6020831061298b5780518252602082019150602081019050602083039250612968565b6001836020036101000a03801982511681845116808217855250505050505090500182805190602001908083835b602083106129dc57805182526020820191506020810190506020830392506129b9565b6001836020036101000a038019825116818451168082178552505050505050905001935050505060405160208183030381529060405290509392505050565b612a2684848461263f565b612a32848484846131bb565b612a87576040517f08c379a0000000000000000000000000000000000000000000000000000000008152600401808060200182810382526032815260200180613e376032913960400191505060405180910390fd5b50505050565b60606000821415612ad5576040518060400160405280600181526020017f30000000000000000000000000000000000000000000000000000000000000008152509050612bcf565b600082905060005b60008214612aff578080600101915050600a8281612af757fe5b049150612add565b60608167ffffffffffffffff81118015612b1857600080fd5b506040519080825280601f01601f191660200182016040528015612b4b5781602001600182028036833780820191505090505b50905060006001830390508593505b60008414612bc757600a8481612b6c57fe5b0660300160f81b82828060019003935081518110612b8657fe5b60200101907effffffffffffffffffffffffffffffffffffffffffffffffffffffffffffff1916908160001a905350600a8481612bbf57fe5b049350612b5a565b819450505050505b919050565b612bdd82612458565b612c32576040517f08c379a000000000000000000000000000000000000000000000000000000000815260040180806020018281038252602c815260200180613ffe602c913960400191505060405180910390fd5b80600860008481526020019081526020016000209080519060200190612c59929190613d2c565b505050565b612c66613cbf565b612c768560800151610100613400565b508385600001818152505082856020019073ffffffffffffffffffffffffffffffffffffffff16908173ffffffffffffffffffffffffffffffffffffffff16815250508185604001907bffffffffffffffffffffffffffffffffffffffffffffffffffffffff191690817bffffffffffffffffffffffffffffffffffffffffffffffffffffffff191681525050849050949350505050565b612d1b8260038351613454565b612d2e818361359990919063ffffffff16565b505050565b6060634042994660e01b60008084600001518560200151866040015187606001516001896080015160000151604051602401808973ffffffffffffffffffffffffffffffffffffffff1673ffffffffffffffffffffffffffffffffffffffff1681526020018881526020018781526020018673ffffffffffffffffffffffffffffffffffffffff1673ffffffffffffffffffffffffffffffffffffffff168152602001857bffffffffffffffffffffffffffffffffffffffffffffffffffffffff19167bffffffffffffffffffffffffffffffffffffffffffffffffffffffff1916815260200184815260200183815260200180602001828103825283818151815260200191508051906020019080838360005b83811015612e62578082015181840152602081019050612e47565b50505050905090810190601f168015612e8f5780820380516001836020036101000a031916815260200191505b509950505050505050505050604051602081830303815290604052907bffffffffffffffffffffffffffffffffffffffffffffffffffffffff19166020820180517bffffffffffffffffffffffffffffffffffffffffffffffffffffffff83818316178352505050509050919050565b6000612f11836000018360001b6135bb565b905092915050565b600081600001805490509050919050565b505050565b6000612f41836000018360001b6135de565b905092915050565b6000612f5b836000018360001b6136c6565b905092915050565b6000612f8f846000018460001b8473ffffffffffffffffffffffffffffffffffffffff1660001b613736565b90509392505050565b600081836000018054905011612ff9576040517f08c379a0000000000000000000000000000000000000000000000000000000008152600401808060200182810382526022815260200180613dec6022913960400191505060405180910390fd5b82600001828154811061300857fe5b9060005260206000200154905092915050565b6000808284600001805490501161307d576040517f08c379a0000000000000000000000000000000000000000000000000000000008152600401808060200182810382526022815260200180613f8d6022913960400191505060405180910390fd5b600084600001848154811061308e57fe5b906000526020600020906002020190508060000154816001015492509250509250929050565b6000808460010160008581526020019081526020016000205490506000811415839061317b576040517f08c379a00000000000000000000000000000000000000000000000000000000081526004018080602001828103825283818151815260200191508051906020019080838360005b83811015613140578082015181840152602081019050613125565b50505050905090810190601f16801561316d5780820380516001836020036101000a031916815260200191505b509250505060405180910390fd5b5084600001600182038154811061318e57fe5b9060005260206000209060020201600101549150509392505050565b600081600001805490509050919050565b60006131dc8473ffffffffffffffffffffffffffffffffffffffff16613812565b6131e957600190506133f8565b606061337f63150b7a0260e01b6131fe612475565b888787604051602401808573ffffffffffffffffffffffffffffffffffffffff1673ffffffffffffffffffffffffffffffffffffffff1681526020018473ffffffffffffffffffffffffffffffffffffffff1673ffffffffffffffffffffffffffffffffffffffff16815260200183815260200180602001828103825283818151815260200191508051906020019080838360005b838110156132ae578082015181840152602081019050613293565b50505050905090810190601f1680156132db5780820380516001836020036101000a031916815260200191505b5095505050505050604051602081830303815290604052907bffffffffffffffffffffffffffffffffffffffffffffffffffffffff19166020820180517bffffffffffffffffffffffffffffffffffffffffffffffffffffffff8381831617835250505050604051806060016040528060328152602001613e37603291398773ffffffffffffffffffffffffffffffffffffffff166138259092919063ffffffff16565b9050600081806020019051602081101561339857600080fd5b8101908080519060200190929190505050905063150b7a0260e01b7bffffffffffffffffffffffffffffffffffffffffffffffffffffffff1916817bffffffffffffffffffffffffffffffffffffffffffffffffffffffff191614925050505b949350505050565b613408613dac565b60006020838161341457fe5b061461342d576020828161342457fe5b06602003820191505b81836020018181525050604051808452600081528281016020016040525082905092915050565b601781116134815761347b8160058460ff16901b60ff16178461383d90919063ffffffff16565b50613594565b60ff81116134c3576134a6601860058460ff16901b178461383d90919063ffffffff16565b506134bd8160018561385d9092919063ffffffff16565b50613593565b61ffff8111613506576134e9601960058460ff16901b178461383d90919063ffffffff16565b506135008160028561385d9092919063ffffffff16565b50613592565b63ffffffff811161354b5761352e601a60058460ff16901b178461383d90919063ffffffff16565b506135458160048561385d9092919063ffffffff16565b50613591565b67ffffffffffffffff811161359057613577601b60058460ff16901b178461383d90919063ffffffff16565b5061358e8160088561385d9092919063ffffffff16565b505b5b5b5b5b505050565b6135a1613dac565b6135b38384600001515184855161387f565b905092915050565b600080836001016000848152602001908152602001600020541415905092915050565b600080836001016000848152602001908152602001600020549050600081146136ba576000600182039050600060018660000180549050039050600086600001828154811061362957fe5b906000526020600020015490508087600001848154811061364657fe5b906000526020600020018190555060018301876001016000838152602001908152602001600020819055508660000180548061367e57fe5b600190038181906000526020600020016000905590558660010160008781526020019081526020016000206000905560019450505050506136c0565b60009150505b92915050565b60006136d28383613938565b61372b578260000182908060018154018082558091505060019003906000526020600020016000909190919091505582600001805490508360010160008481526020019081526020016000208190555060019050613730565b600090505b92915050565b60008084600101600085815260200190815260200160002054905060008114156137dd5784600001604051806040016040528086815260200185815250908060018154018082558091505060019003906000526020600020906002020160009091909190915060008201518160000155602082015181600101555050846000018054905085600101600086815260200190815260200160002081905550600191505061380b565b828560000160018303815481106137f057fe5b90600052602060002090600202016001018190555060009150505b9392505050565b600080823b905060008111915050919050565b6060613834848460008561395b565b90509392505050565b613845613dac565b6138558384600001515184613b04565b905092915050565b613865613dac565b613876848560000151518585613b52565b90509392505050565b613887613dac565b825182111561389557600080fd5b846020015182850111156138c0576138bf8560026138b98860200151888701613bb3565b02613bcf565b5b6000808651805187602083010193508088870111156138df5787860182525b60208701925050505b6020841061390b57805182526020820191506020810190506020840393506138e8565b60006001856020036101000a03905080198251168184511681811785525050879350505050949350505050565b600080836001016000848152602001908152602001600020541415905092915050565b6060824710156139b6576040517f08c379a0000000000000000000000000000000000000000000000000000000008152600401808060200182810382526026815260200180613eb06026913960400191505060405180910390fd5b6139bf85613812565b613a31576040517f08c379a000000000000000000000000000000000000000000000000000000000815260040180806020018281038252601d8152602001807f416464726573733a2063616c6c20746f206e6f6e2d636f6e747261637400000081525060200191505060405180910390fd5b600060608673ffffffffffffffffffffffffffffffffffffffff1685876040518082805190602001908083835b60208310613a815780518252602082019150602081019050602083039250613a5e565b6001836020036101000a03801982511681845116808217855250505050505090500191505060006040518083038185875af1925050503d8060008114613ae3576040519150601f19603f3d011682016040523d82523d6000602084013e613ae8565b606091505b5091509150613af8828286613bf3565b92505050949350505050565b613b0c613dac565b83602001518310613b2957613b28846002866020015102613bcf565b5b8351805160208583010184815381861415613b45576001820183525b5050508390509392505050565b613b5a613dac565b84602001518483011115613b7857613b7785600286850102613bcf565b5b60006001836101000a0390508551838682010185831982511617815281518588011115613ba55784870182525b505085915050949350505050565b600081831115613bc557829050613bc9565b8190505b92915050565b606082600001519050613be28383613400565b50613bed8382613599565b50505050565b60608315613c0357829050613cb8565b600083511115613c165782518084602001fd5b816040517f08c379a00000000000000000000000000000000000000000000000000000000081526004018080602001828103825283818151815260200191508051906020019080838360005b83811015613c7d578082015181840152602081019050613c62565b50505050905090810190601f168015613caa5780820380516001836020036101000a031916815260200191505b509250505060405180910390fd5b9392505050565b6040518060a0016040528060008019168152602001600073ffffffffffffffffffffffffffffffffffffffff16815260200160007bffffffffffffffffffffffffffffffffffffffffffffffffffffffff1916815260200160008152602001613d26613dac565b81525090565b828054600181600116156101000203166002900490600052602060002090601f016020900481019282601f10613d6d57805160ff1916838001178555613d9b565b82800160010185558215613d9b579182015b82811115613d9a578251825591602001919060010190613d7f565b5b509050613da89190613dc6565b5090565b604051806040016040528060608152602001600081525090565b613de891905b80821115613de4576000816000905550600101613dcc565b5090565b9056fe456e756d657261626c655365743a20696e646578206f7574206f6620626f756e647368747470733a2f2f696d616765732d626c656e642e6865726f6b756170702e636f6d2f7365636f6e644552433732313a207472616e7366657220746f206e6f6e20455243373231526563656976657220696d706c656d656e746572756e61626c6520746f207472616e73666572416e6443616c6c20746f206f7261636c654552433732313a207472616e7366657220746f20746865207a65726f2061646472657373416464726573733a20696e73756666696369656e742062616c616e636520666f722063616c6c4552433732313a206f70657261746f7220717565727920666f72206e6f6e6578697374656e7420746f6b656e4552433732313a20617070726f76652063616c6c6572206973206e6f74206f776e6572206e6f7220617070726f76656420666f7220616c6c4552433732313a2062616c616e636520717565727920666f7220746865207a65726f20616464726573734552433732313a206f776e657220717565727920666f72206e6f6e6578697374656e7420746f6b656e456e756d657261626c654d61703a20696e646578206f7574206f6620626f756e647368747470733a2f2f696d616765732d626c656e642e6865726f6b756170702e636f6d2f4552433732313a20617070726f76656420717565727920666f72206e6f6e6578697374656e7420746f6b656e4552433732314d657461646174613a2055524920736574206f66206e6f6e6578697374656e7420746f6b656e4552433732313a207472616e73666572206f6620746f6b656e2074686174206973206e6f74206f776e4552433732314d657461646174613a2055524920717565727920666f72206e6f6e6578697374656e7420746f6b656e4552433732313a20617070726f76616c20746f2063757272656e74206f776e65724552433732313a207472616e736665722063616c6c6572206973206e6f74206f776e6572206e6f7220617070726f766564536f75726365206d75737420626520746865206f7261636c65206f66207468652072657175657374a26469706673582212209b34fbde8fe0541af6edc50c0e860c2c10d81aef550c98da0e67f4754aaba5da64736f6c63430006060033",
  "immutableReferences": {},
  "source": "// SPDX-License-Identifier: MIT\r\npragma solidity ^0.6.6;\r\n\r\nimport \"@openzeppelin/contracts/token/ERC721/ERC721.sol\";\r\nimport \"@chainlink/contracts/src/v0.6/ChainlinkClient.sol\";\r\n\r\ncontract TurtleCharacter is ERC721, ChainlinkClient {\r\n\r\n    using Chainlink for Chainlink.Request;\r\n  \r\n    bytes32 public volume;\r\n    bytes32 public volume2;\r\n    string public ipfsLink = \"https://ipfs.io/ipfs/\";\r\n    \r\n    address private oracle;\r\n    bytes32 private jobId;\r\n    uint256 private fee;\r\n    uint uniqueTokenId = 0;\r\n    \r\n    /**\r\n     * Network: Kovan\r\n     * Oracle: 0xAA1DC356dc4B18f30C347798FD5379F3D77ABC5b\r\n     * Job ID: b7285d4859da4b289c7861db971baf0a\r\n     * Fee: 0.1 LINK\r\n     */\r\n    constructor() public ERC721(\"TurtleCharacter\", \"TRTL\") {\r\n        setPublicChainlinkToken();\r\n        oracle = 0xAA1DC356dc4B18f30C347798FD5379F3D77ABC5b;\r\n        jobId = \"b7285d4859da4b289c7861db971baf0a\";\r\n        fee = 0.1 * 10 ** 18; // 0.1 LINK\r\n    }\r\n\r\n    function requestRandomCharacter() public {\r\n        ipfsLink = \"https://ipfs.io/ipfs/\";\r\n        requestVolumeData();\r\n    }\r\n    \r\n    /**\r\n     * Create a Chainlink request to retrieve API response, find the target\r\n     * data, then multiply by 1000000000000000000 (to remove decimal places from data).\r\n     */\r\n    function requestVolumeData() public returns (bytes32 requestId) \r\n    {\r\n        Chainlink.Request memory request = buildChainlinkRequest(jobId, address(this), this.fulfill.selector);\r\n        \r\n        // Set the URL to perform the GET request on\r\n        request.add(\"get\", \"https://images-blend.herokuapp.com/\");\r\n        \r\n        // Set the path to find the desired data in the API response, where the response format is:\r\n        // {\"RAW\":\r\n        //      {\"ETH\":\r\n        //          {\"USD\":\r\n        //              {\r\n        //                  ...,\r\n        //                  \"VOLUME24HOUR\": xxx.xxx,\r\n        //                  ...\r\n        //              }\r\n        //          }\r\n        //      }\r\n        //  }\r\n        \r\n        // {\r\n        //     \"IPFS_HASH\": \"UcJmG9EmhAnHiAybVQyEdmLaC4TRT6jqBaNBSgsQyCM4\"\r\n        // }\r\n        request.add(\"path\", \"IPFS_PATH\");\r\n        \r\n        // Multiply the result by 1000000000000000000 to remove decimals\r\n        /*int timesAmount = 10**18;\r\n        request.addInt(\"times\", timesAmount);*/\r\n        \r\n        // Sends the request\r\n        return sendChainlinkRequestTo(oracle, request, fee);\r\n    }\r\n    \r\n    /**\r\n     * Receive the response in the form of uint256\r\n     */ \r\n    function fulfill(bytes32 _requestId, bytes32 _volume) public recordChainlinkFulfillment(_requestId) returns (bytes32 requestId)\r\n    {\r\n        volume = _volume;\r\n\r\n        Chainlink.Request memory request = buildChainlinkRequest(jobId, address(this), this.fulfillSecondRequest.selector);\r\n        \r\n        // Set the URL to perform the GET request on\r\n        request.add(\"get\", \"https://images-blend.herokuapp.com/second\");\r\n        \r\n        // Set the path to find the desired data in the API response, where the response format is:\r\n        // {\"RAW\":\r\n        //      {\"ETH\":\r\n        //          {\"USD\":\r\n        //              {\r\n        //                  ...,\r\n        //                  \"VOLUME24HOUR\": xxx.xxx,\r\n        //                  ...\r\n        //              }\r\n        //          }\r\n        //      }\r\n        //  }\r\n        \r\n        // {\r\n        //     \"IPFS_HASH\": \"UcJmG9EmhAnHiAybVQyEdmLaC4TRT6jqBaNBSgsQyCM4\"\r\n        // }\r\n        request.add(\"path\", \"IPFS_PATH\");\r\n        \r\n        // Multiply the result by 1000000000000000000 to remove decimals\r\n        /*int timesAmount = 10**18;\r\n        request.addInt(\"times\", timesAmount);*/\r\n        \r\n        // Sends the request\r\n        return sendChainlinkRequestTo(oracle, request, fee);\r\n    }\r\n \r\n    // function withdrawLink() external {} - Implement a withdraw function to avoid locking your LINK in the contract\r\n\r\n    function fulfillSecondRequest(bytes32 _requestId, bytes32 _volume) public recordChainlinkFulfillment(_requestId) {\r\n        volume2 = _volume;\r\n        generateIPFSLink();\r\n        setTokenURI(ipfsLink);\r\n    }\r\n    \r\n    function bytes32ToString(bytes32 _bytes32) public pure returns (string memory) {\r\n        uint8 i = 0;\r\n        while(i < 32 && _bytes32[i] != 0) {\r\n            i++;\r\n        }\r\n        bytes memory bytesArray = new bytes(i);\r\n        for (i = 0; i < 32 && _bytes32[i] != 0; i++) {\r\n            bytesArray[i] = _bytes32[i];\r\n        }\r\n        return string(bytesArray);\r\n    }\r\n    \r\n    function generateIPFSLink() public {\r\n        string memory part1 = bytes32ToString(volume);\r\n        string memory part2 = bytes32ToString(volume2);\r\n        ipfsLink = append(ipfsLink, part1, part2);\r\n    }\r\n    \r\n    function append(string memory a, string memory b, string memory c) internal pure returns (string memory) {\r\n    return string(abi.encodePacked(a, b, c));\r\n    }\r\n\r\n    function setTokenURI(string memory _tokenURI) public {\r\n        require(\r\n            _isApprovedOrOwner(_msgSender(), uniqueTokenId),\r\n            \"ERC721: transfer caller is not owner nor approved\"\r\n        );\r\n        _setTokenURI(uniqueTokenId, _tokenURI);\r\n        uniqueTokenId++;\r\n    }\r\n}",
  "sourcePath": "D:/EthOdyssey/NFT-Game/contracts/TurtleCharacter.sol",
  "compiler": {
    "name": "solc",
    "version": "0.6.6+commit.6c089d02.Emscripten.clang"
  },
  "schemaVersion": "3.4.1",
  "updatedAt": "2021-07-26T18:16:37.028Z",
  "networkType": "ethereum",
  "devdoc": {
    "methods": {
      "approve(address,uint256)": {
        "details": "See {IERC721-approve}."
      },
      "balanceOf(address)": {
        "details": "See {IERC721-balanceOf}."
      },
      "baseURI()": {
        "details": "Returns the base URI set via {_setBaseURI}. This will be automatically added as a prefix in {tokenURI} to each token's URI, or to the token ID if no specific URI is set for that token ID."
      },
      "getApproved(uint256)": {
        "details": "See {IERC721-getApproved}."
      },
      "isApprovedForAll(address,address)": {
        "details": "See {IERC721-isApprovedForAll}."
      },
      "name()": {
        "details": "See {IERC721Metadata-name}."
      },
      "ownerOf(uint256)": {
        "details": "See {IERC721-ownerOf}."
      },
      "safeTransferFrom(address,address,uint256)": {
        "details": "See {IERC721-safeTransferFrom}."
      },
      "safeTransferFrom(address,address,uint256,bytes)": {
        "details": "See {IERC721-safeTransferFrom}."
      },
      "setApprovalForAll(address,bool)": {
        "details": "See {IERC721-setApprovalForAll}."
      },
      "supportsInterface(bytes4)": {
        "details": "See {IERC165-supportsInterface}.     * Time complexity O(1), guaranteed to always use less than 30 000 gas."
      },
      "symbol()": {
        "details": "See {IERC721Metadata-symbol}."
      },
      "tokenByIndex(uint256)": {
        "details": "See {IERC721Enumerable-tokenByIndex}."
      },
      "tokenOfOwnerByIndex(address,uint256)": {
        "details": "See {IERC721Enumerable-tokenOfOwnerByIndex}."
      },
      "tokenURI(uint256)": {
        "details": "See {IERC721Metadata-tokenURI}."
      },
      "totalSupply()": {
        "details": "See {IERC721Enumerable-totalSupply}."
      },
      "transferFrom(address,address,uint256)": {
        "details": "See {IERC721-transferFrom}."
      }
    }
  },
  "userdoc": {
    "methods": {
      "constructor": "Network: Kovan Oracle: 0xAA1DC356dc4B18f30C347798FD5379F3D77ABC5b Job ID: b7285d4859da4b289c7861db971baf0a Fee: 0.1 LINK",
      "fulfill(bytes32,bytes32)": {
        "notice": "Receive the response in the form of uint256"
      },
      "requestVolumeData()": {
        "notice": "Create a Chainlink request to retrieve API response, find the target data, then multiply by 1000000000000000000 (to remove decimal places from data)."
      }
    }
  }
}