{
  "contractName": "Turtis",
  "abi": [
    {
      "inputs": [],
      "stateMutability": "nonpayable",
      "type": "constructor"
    },
    {
      "anonymous": false,
      "inputs": [
        {
          "indexed": true,
          "internalType": "address",
          "name": "owner",
          "type": "address"
        },
        {
          "indexed": true,
          "internalType": "address",
          "name": "approved",
          "type": "address"
        },
        {
          "indexed": true,
          "internalType": "uint256",
          "name": "tokenId",
          "type": "uint256"
        }
      ],
      "name": "Approval",
      "type": "event"
    },
    {
      "anonymous": false,
      "inputs": [
        {
          "indexed": true,
          "internalType": "address",
          "name": "owner",
          "type": "address"
        },
        {
          "indexed": true,
          "internalType": "address",
          "name": "operator",
          "type": "address"
        },
        {
          "indexed": false,
          "internalType": "bool",
          "name": "approved",
          "type": "bool"
        }
      ],
      "name": "ApprovalForAll",
      "type": "event"
    },
    {
      "anonymous": false,
      "inputs": [
        {
          "indexed": true,
          "internalType": "bytes32",
          "name": "id",
          "type": "bytes32"
        }
      ],
      "name": "ChainlinkCancelled",
      "type": "event"
    },
    {
      "anonymous": false,
      "inputs": [
        {
          "indexed": true,
          "internalType": "bytes32",
          "name": "id",
          "type": "bytes32"
        }
      ],
      "name": "ChainlinkFulfilled",
      "type": "event"
    },
    {
      "anonymous": false,
      "inputs": [
        {
          "indexed": true,
          "internalType": "bytes32",
          "name": "id",
          "type": "bytes32"
        }
      ],
      "name": "ChainlinkRequested",
      "type": "event"
    },
    {
      "anonymous": false,
      "inputs": [
        {
          "indexed": false,
          "internalType": "string",
          "name": "ipfsLink",
          "type": "string"
        }
      ],
      "name": "DataReceivedFromAPI",
      "type": "event"
    },
    {
      "anonymous": false,
      "inputs": [
        {
          "indexed": false,
          "internalType": "uint256",
          "name": "tokenId",
          "type": "uint256"
        }
      ],
      "name": "NewTurtleGenerated",
      "type": "event"
    },
    {
      "anonymous": false,
      "inputs": [
        {
          "indexed": true,
          "internalType": "address",
          "name": "from",
          "type": "address"
        },
        {
          "indexed": true,
          "internalType": "address",
          "name": "to",
          "type": "address"
        },
        {
          "indexed": true,
          "internalType": "uint256",
          "name": "tokenId",
          "type": "uint256"
        }
      ],
      "name": "Transfer",
      "type": "event"
    },
    {
      "anonymous": false,
      "inputs": [
        {
          "indexed": false,
          "internalType": "uint256",
          "name": "tokenId",
          "type": "uint256"
        }
      ],
      "name": "TurtleBought",
      "type": "event"
    },
    {
      "anonymous": false,
      "inputs": [
        {
          "indexed": false,
          "internalType": "uint256",
          "name": "tokenId",
          "type": "uint256"
        }
      ],
      "name": "TurtleUpForSale",
      "type": "event"
    },
    {
      "inputs": [
        {
          "internalType": "address",
          "name": "to",
          "type": "address"
        },
        {
          "internalType": "uint256",
          "name": "tokenId",
          "type": "uint256"
        }
      ],
      "name": "approve",
      "outputs": [],
      "stateMutability": "nonpayable",
      "type": "function"
    },
    {
      "inputs": [
        {
          "internalType": "address",
          "name": "owner",
          "type": "address"
        }
      ],
      "name": "balanceOf",
      "outputs": [
        {
          "internalType": "uint256",
          "name": "",
          "type": "uint256"
        }
      ],
      "stateMutability": "view",
      "type": "function",
      "constant": true
    },
    {
      "inputs": [],
      "name": "baseURI",
      "outputs": [
        {
          "internalType": "string",
          "name": "",
          "type": "string"
        }
      ],
      "stateMutability": "view",
      "type": "function",
      "constant": true
    },
    {
      "inputs": [],
      "name": "contractOwner",
      "outputs": [
        {
          "internalType": "address",
          "name": "",
          "type": "address"
        }
      ],
      "stateMutability": "view",
      "type": "function",
      "constant": true
    },
    {
      "inputs": [
        {
          "internalType": "uint256",
          "name": "tokenId",
          "type": "uint256"
        }
      ],
      "name": "getApproved",
      "outputs": [
        {
          "internalType": "address",
          "name": "",
          "type": "address"
        }
      ],
      "stateMutability": "view",
      "type": "function",
      "constant": true
    },
    {
      "inputs": [],
      "name": "ipfsLink",
      "outputs": [
        {
          "internalType": "string",
          "name": "",
          "type": "string"
        }
      ],
      "stateMutability": "view",
      "type": "function",
      "constant": true
    },
    {
      "inputs": [
        {
          "internalType": "address",
          "name": "owner",
          "type": "address"
        },
        {
          "internalType": "address",
          "name": "operator",
          "type": "address"
        }
      ],
      "name": "isApprovedForAll",
      "outputs": [
        {
          "internalType": "bool",
          "name": "",
          "type": "bool"
        }
      ],
      "stateMutability": "view",
      "type": "function",
      "constant": true
    },
    {
      "inputs": [],
      "name": "name",
      "outputs": [
        {
          "internalType": "string",
          "name": "",
          "type": "string"
        }
      ],
      "stateMutability": "view",
      "type": "function",
      "constant": true
    },
    {
      "inputs": [
        {
          "internalType": "uint256",
          "name": "tokenId",
          "type": "uint256"
        }
      ],
      "name": "ownerOf",
      "outputs": [
        {
          "internalType": "address",
          "name": "",
          "type": "address"
        }
      ],
      "stateMutability": "view",
      "type": "function",
      "constant": true
    },
    {
      "inputs": [
        {
          "internalType": "address",
          "name": "from",
          "type": "address"
        },
        {
          "internalType": "address",
          "name": "to",
          "type": "address"
        },
        {
          "internalType": "uint256",
          "name": "tokenId",
          "type": "uint256"
        }
      ],
      "name": "safeTransferFrom",
      "outputs": [],
      "stateMutability": "nonpayable",
      "type": "function"
    },
    {
      "inputs": [
        {
          "internalType": "address",
          "name": "from",
          "type": "address"
        },
        {
          "internalType": "address",
          "name": "to",
          "type": "address"
        },
        {
          "internalType": "uint256",
          "name": "tokenId",
          "type": "uint256"
        },
        {
          "internalType": "bytes",
          "name": "_data",
          "type": "bytes"
        }
      ],
      "name": "safeTransferFrom",
      "outputs": [],
      "stateMutability": "nonpayable",
      "type": "function"
    },
    {
      "inputs": [
        {
          "internalType": "address",
          "name": "operator",
          "type": "address"
        },
        {
          "internalType": "bool",
          "name": "approved",
          "type": "bool"
        }
      ],
      "name": "setApprovalForAll",
      "outputs": [],
      "stateMutability": "nonpayable",
      "type": "function"
    },
    {
      "inputs": [
        {
          "internalType": "bytes4",
          "name": "interfaceId",
          "type": "bytes4"
        }
      ],
      "name": "supportsInterface",
      "outputs": [
        {
          "internalType": "bool",
          "name": "",
          "type": "bool"
        }
      ],
      "stateMutability": "view",
      "type": "function",
      "constant": true
    },
    {
      "inputs": [],
      "name": "symbol",
      "outputs": [
        {
          "internalType": "string",
          "name": "",
          "type": "string"
        }
      ],
      "stateMutability": "view",
      "type": "function",
      "constant": true
    },
    {
      "inputs": [
        {
          "internalType": "uint256",
          "name": "index",
          "type": "uint256"
        }
      ],
      "name": "tokenByIndex",
      "outputs": [
        {
          "internalType": "uint256",
          "name": "",
          "type": "uint256"
        }
      ],
      "stateMutability": "view",
      "type": "function",
      "constant": true
    },
    {
      "inputs": [
        {
          "internalType": "address",
          "name": "owner",
          "type": "address"
        },
        {
          "internalType": "uint256",
          "name": "index",
          "type": "uint256"
        }
      ],
      "name": "tokenOfOwnerByIndex",
      "outputs": [
        {
          "internalType": "uint256",
          "name": "",
          "type": "uint256"
        }
      ],
      "stateMutability": "view",
      "type": "function",
      "constant": true
    },
    {
      "inputs": [
        {
          "internalType": "uint256",
          "name": "tokenId",
          "type": "uint256"
        }
      ],
      "name": "tokenURI",
      "outputs": [
        {
          "internalType": "string",
          "name": "",
          "type": "string"
        }
      ],
      "stateMutability": "view",
      "type": "function",
      "constant": true
    },
    {
      "inputs": [],
      "name": "totalSupply",
      "outputs": [
        {
          "internalType": "uint256",
          "name": "",
          "type": "uint256"
        }
      ],
      "stateMutability": "view",
      "type": "function",
      "constant": true
    },
    {
      "inputs": [
        {
          "internalType": "address",
          "name": "from",
          "type": "address"
        },
        {
          "internalType": "address",
          "name": "to",
          "type": "address"
        },
        {
          "internalType": "uint256",
          "name": "tokenId",
          "type": "uint256"
        }
      ],
      "name": "transferFrom",
      "outputs": [],
      "stateMutability": "nonpayable",
      "type": "function"
    },
    {
      "inputs": [
        {
          "internalType": "uint256",
          "name": "",
          "type": "uint256"
        }
      ],
      "name": "turtlesForSale",
      "outputs": [
        {
          "internalType": "uint256",
          "name": "",
          "type": "uint256"
        }
      ],
      "stateMutability": "view",
      "type": "function",
      "constant": true
    },
    {
      "inputs": [
        {
          "internalType": "address",
          "name": "_oracleAddress",
          "type": "address"
        }
      ],
      "name": "setOracleAddress",
      "outputs": [],
      "stateMutability": "nonpayable",
      "type": "function"
    },
    {
      "inputs": [
        {
          "internalType": "string",
          "name": "_jobID",
          "type": "string"
        }
      ],
      "name": "setJobID",
      "outputs": [],
      "stateMutability": "nonpayable",
      "type": "function"
    },
    {
      "inputs": [
        {
          "internalType": "uint256",
          "name": "_fee",
          "type": "uint256"
        }
      ],
      "name": "setFeeInLink",
      "outputs": [],
      "stateMutability": "nonpayable",
      "type": "function"
    },
    {
      "inputs": [
        {
          "internalType": "string",
          "name": "_url",
          "type": "string"
        }
      ],
      "name": "setApiBaseUrl",
      "outputs": [],
      "stateMutability": "nonpayable",
      "type": "function"
    },
    {
      "inputs": [
        {
          "internalType": "string",
          "name": "_url",
          "type": "string"
        }
      ],
      "name": "setApiSecondUrl",
      "outputs": [],
      "stateMutability": "nonpayable",
      "type": "function"
    },
    {
      "inputs": [
        {
          "internalType": "uint256",
          "name": "_highScore",
          "type": "uint256"
        }
      ],
      "name": "setHighScore",
      "outputs": [],
      "stateMutability": "nonpayable",
      "type": "function"
    },
    {
      "inputs": [
        {
          "internalType": "uint256",
          "name": "_tokenId",
          "type": "uint256"
        }
      ],
      "name": "buyTurtle",
      "outputs": [],
      "stateMutability": "payable",
      "type": "function",
      "payable": true
    },
    {
      "inputs": [
        {
          "internalType": "uint256",
          "name": "_tokenId",
          "type": "uint256"
        },
        {
          "internalType": "uint256",
          "name": "_price",
          "type": "uint256"
        }
      ],
      "name": "putUpTurtleForSale",
      "outputs": [],
      "stateMutability": "nonpayable",
      "type": "function"
    },
    {
      "inputs": [
        {
          "internalType": "string",
          "name": "score",
          "type": "string"
        }
      ],
      "name": "requestNewRandomTurtle",
      "outputs": [],
      "stateMutability": "nonpayable",
      "type": "function"
    },
    {
      "inputs": [
        {
          "internalType": "bytes32",
          "name": "_requestId",
          "type": "bytes32"
        },
        {
          "internalType": "bytes32",
          "name": "dataFromAPI",
          "type": "bytes32"
        }
      ],
      "name": "fulfill",
      "outputs": [
        {
          "internalType": "bytes32",
          "name": "requestId",
          "type": "bytes32"
        }
      ],
      "stateMutability": "nonpayable",
      "type": "function"
    },
    {
      "inputs": [
        {
          "internalType": "bytes32",
          "name": "_requestId",
          "type": "bytes32"
        },
        {
          "internalType": "bytes32",
          "name": "dataFromAPI",
          "type": "bytes32"
        }
      ],
      "name": "fulfillSecondRequest",
      "outputs": [],
      "stateMutability": "nonpayable",
      "type": "function"
    },
    {
      "inputs": [
        {
          "internalType": "uint256",
          "name": "_tokenId",
          "type": "uint256"
        },
        {
          "internalType": "string",
          "name": "_tokenURI",
          "type": "string"
        }
      ],
      "name": "updateTokenURI",
      "outputs": [],
      "stateMutability": "nonpayable",
      "type": "function"
    }
  ],
  "bytecode": "0x60806040526001600e556040518060400160405280600781526020017f697066733a2f2f00000000000000000000000000000000000000000000000000815250601390805190602001906200005692919062000419565b5060006017553480156200006957600080fd5b506040518060400160405280600f81526020017f547572746c6543686172616374657200000000000000000000000000000000008152506040518060400160405280600481526020017f5452544c00000000000000000000000000000000000000000000000000000000815250620000ee6301ffc9a760e01b620002cc60201b60201c565b81600690805190602001906200010692919062000419565b5080600790805190602001906200011f92919062000419565b50620001386380ac58cd60e01b620002cc60201b60201c565b62000150635b5e139f60e01b620002cc60201b60201c565b6200016863780e9d6360e01b620002cc60201b60201c565b50506200018f73326c977e6efc84e512bb9c30f76e30c160ed06fb620003d560201b60201c565b600060178190555033601060006101000a81548173ffffffffffffffffffffffffffffffffffffffff021916908373ffffffffffffffffffffffffffffffffffffffff16021790555060405180606001604052806023815260200162005ac460239139601890805190602001906200020992919062000419565b506040518060600160405280602a815260200162005ae7602a9139601990805190602001906200023b92919062000419565b5073c8d925525ca8759812d0c299b90247917d4d4b7c601460006101000a81548173ffffffffffffffffffffffffffffffffffffffff021916908373ffffffffffffffffffffffffffffffffffffffff1602179055507f6137333330643062346239363463303561626336366132363330373034376330601581905550662386f26fc10000601681905550620004c8565b63ffffffff60e01b817bffffffffffffffffffffffffffffffffffffffffffffffffffffffff1916141562000369576040517f08c379a000000000000000000000000000000000000000000000000000000000815260040180806020018281038252601c8152602001807f4552433136353a20696e76616c696420696e746572666163652069640000000081525060200191505060405180910390fd5b6001600080837bffffffffffffffffffffffffffffffffffffffffffffffffffffffff19167bffffffffffffffffffffffffffffffffffffffffffffffffffffffff1916815260200190815260200160002060006101000a81548160ff02191690831515021790555050565b80600c60006101000a81548173ffffffffffffffffffffffffffffffffffffffff021916908373ffffffffffffffffffffffffffffffffffffffff16021790555050565b828054600181600116156101000203166002900490600052602060002090601f016020900481019282601f106200045c57805160ff19168380011785556200048d565b828001600101855582156200048d579182015b828111156200048c5782518255916020019190600101906200046f565b5b5090506200049c9190620004a0565b5090565b620004c591905b80821115620004c1576000816000905550600101620004a7565b5090565b90565b6155ec80620004d86000396000f3fe6080604052600436106101e35760003560e01c80634f6ccce711610102578063a22cb46511610095578063c87b56dd11610064578063c87b56dd14610f89578063ce606ee01461103d578063e985e9c514611094578063f2044fe91461111d576101e3565b8063a22cb46514610d90578063a5ac5f1c14610ded578063a748efb214610e28578063b88d4fde14610e77576101e3565b806370a08231116100d157806370a0823114610b98578063877f282b14610bfd5780639271b99714610cc557806395d89b4114610d00576101e3565b80634f6ccce7146109765780635a717299146109c55780636352211e14610a8d5780636c0360eb14610b08576101e3565b806323b872dd1161017a578063328c9f0211610149578063328c9f021461071a5780633380f068146107e257806342842e0e146108aa5780634c69c00f14610925576101e3565b806323b872dd1461055b5780632b22aaea146105d65780632b9d8c9a1461061b5780632f745c59146106ab576101e3565b8063095ea7b3116101b6578063095ea7b3146103be57806318160ddd14610419578063184d9bb91461044457806318e97fd114610489576101e3565b806301ffc9a7146101e8578063042f2b651461025a57806306fdde03146102b3578063081812fc14610343575b600080fd5b3480156101f457600080fd5b506102406004803603602081101561020b57600080fd5b8101908080357bffffffffffffffffffffffffffffffffffffffffffffffffffffffff1916906020019092919050505061114b565b604051808215151515815260200191505060405180910390f35b34801561026657600080fd5b5061029d6004803603604081101561027d57600080fd5b8101908080359060200190929190803590602001909291905050506111b2565b6040518082815260200191505060405180910390f35b3480156102bf57600080fd5b506102c8611490565b6040518080602001828103825283818151815260200191508051906020019080838360005b838110156103085780820151818401526020810190506102ed565b50505050905090810190601f1680156103355780820380516001836020036101000a031916815260200191505b509250505060405180910390f35b34801561034f57600080fd5b5061037c6004803603602081101561036657600080fd5b8101908080359060200190929190505050611532565b604051808273ffffffffffffffffffffffffffffffffffffffff1673ffffffffffffffffffffffffffffffffffffffff16815260200191505060405180910390f35b3480156103ca57600080fd5b50610417600480360360408110156103e157600080fd5b81019080803573ffffffffffffffffffffffffffffffffffffffff169060200190929190803590602001909291905050506115cd565b005b34801561042557600080fd5b5061042e611711565b6040518082815260200191505060405180910390f35b34801561045057600080fd5b506104876004803603604081101561046757600080fd5b810190808035906020019092919080359060200190929190505050611722565b005b34801561049557600080fd5b50610559600480360360408110156104ac57600080fd5b8101908080359060200190929190803590602001906401000000008111156104d357600080fd5b8201836020820111156104e557600080fd5b8035906020019184600183028401116401000000008311171561050757600080fd5b91908080601f016020809104026020016040519081016040528093929190818152602001838380828437600081840152601f19601f8201169050808301925050505050505091929192905050506117db565b005b34801561056757600080fd5b506105d46004803603606081101561057e57600080fd5b81019080803573ffffffffffffffffffffffffffffffffffffffff169060200190929190803573ffffffffffffffffffffffffffffffffffffffff1690602001909291908035906020019092919050505061188f565b005b3480156105e257600080fd5b50610619600480360360408110156105f957600080fd5b810190808035906020019092919080359060200190929190505050611905565b005b34801561062757600080fd5b50610630611bcd565b6040518080602001828103825283818151815260200191508051906020019080838360005b83811015610670578082015181840152602081019050610655565b50505050905090810190601f16801561069d5780820380516001836020036101000a031916815260200191505b509250505060405180910390f35b3480156106b757600080fd5b50610704600480360360408110156106ce57600080fd5b81019080803573ffffffffffffffffffffffffffffffffffffffff16906020019092919080359060200190929190505050611c6b565b6040518082815260200191505060405180910390f35b34801561072657600080fd5b506107e06004803603602081101561073d57600080fd5b810190808035906020019064010000000081111561075a57600080fd5b82018360208201111561076c57600080fd5b8035906020019184600183028401116401000000008311171561078e57600080fd5b91908080601f016020809104026020016040519081016040528093929190818152602001838380828437600081840152601f19601f820116905080830192505050505050509192919290505050611cc6565b005b3480156107ee57600080fd5b506108a86004803603602081101561080557600080fd5b810190808035906020019064010000000081111561082257600080fd5b82018360208201111561083457600080fd5b8035906020019184600183028401116401000000008311171561085657600080fd5b91908080601f016020809104026020016040519081016040528093929190818152602001838380828437600081840152601f19601f820116905080830192505050505050509192919290505050611d86565b005b3480156108b657600080fd5b50610923600480360360608110156108cd57600080fd5b81019080803573ffffffffffffffffffffffffffffffffffffffff169060200190929190803573ffffffffffffffffffffffffffffffffffffffff16906020019092919080359060200190929190505050611f21565b005b34801561093157600080fd5b506109746004803603602081101561094857600080fd5b81019080803573ffffffffffffffffffffffffffffffffffffffff169060200190929190505050611f41565b005b34801561098257600080fd5b506109af6004803603602081101561099957600080fd5b810190808035906020019092919050505061202b565b6040518082815260200191505060405180910390f35b3480156109d157600080fd5b50610a8b600480360360208110156109e857600080fd5b8101908080359060200190640100000000811115610a0557600080fd5b820183602082011115610a1757600080fd5b80359060200191846001830284011164010000000083111715610a3957600080fd5b91908080601f016020809104026020016040519081016040528093929190818152602001838380828437600081840152601f19601f82011690508083019250505050505050919291929050505061204e565b005b348015610a9957600080fd5b50610ac660048036036020811015610ab057600080fd5b8101908080359060200190929190505050612106565b604051808273ffffffffffffffffffffffffffffffffffffffff1673ffffffffffffffffffffffffffffffffffffffff16815260200191505060405180910390f35b348015610b1457600080fd5b50610b1d61213d565b6040518080602001828103825283818151815260200191508051906020019080838360005b83811015610b5d578082015181840152602081019050610b42565b50505050905090810190601f168015610b8a5780820380516001836020036101000a031916815260200191505b509250505060405180910390f35b348015610ba457600080fd5b50610be760048036036020811015610bbb57600080fd5b81019080803573ffffffffffffffffffffffffffffffffffffffff1690602001909291905050506121df565b6040518082815260200191505060405180910390f35b348015610c0957600080fd5b50610cc360048036036020811015610c2057600080fd5b8101908080359060200190640100000000811115610c3d57600080fd5b820183602082011115610c4f57600080fd5b80359060200191846001830284011164010000000083111715610c7157600080fd5b91908080601f016020809104026020016040519081016040528093929190818152602001838380828437600081840152601f19601f8201169050808301925050505050505091929192905050506122b4565b005b348015610cd157600080fd5b50610cfe60048036036020811015610ce857600080fd5b8101908080359060200190929190505050612374565b005b348015610d0c57600080fd5b50610d156123bb565b6040518080602001828103825283818151815260200191508051906020019080838360005b83811015610d55578082015181840152602081019050610d3a565b50505050905090810190601f168015610d825780820380516001836020036101000a031916815260200191505b509250505060405180910390f35b348015610d9c57600080fd5b50610deb60048036036040811015610db357600080fd5b81019080803573ffffffffffffffffffffffffffffffffffffffff16906020019092919080351515906020019092919050505061245d565b005b348015610df957600080fd5b50610e2660048036036020811015610e1057600080fd5b8101908080359060200190929190505050612615565b005b348015610e3457600080fd5b50610e6160048036036020811015610e4b57600080fd5b81019080803590602001909291905050506126cf565b6040518082815260200191505060405180910390f35b348015610e8357600080fd5b50610f8760048036036080811015610e9a57600080fd5b81019080803573ffffffffffffffffffffffffffffffffffffffff169060200190929190803573ffffffffffffffffffffffffffffffffffffffff1690602001909291908035906020019092919080359060200190640100000000811115610f0157600080fd5b820183602082011115610f1357600080fd5b80359060200191846001830284011164010000000083111715610f3557600080fd5b91908080601f016020809104026020016040519081016040528093929190818152602001838380828437600081840152601f19601f8201169050808301925050505050505091929192905050506126e7565b005b348015610f9557600080fd5b50610fc260048036036020811015610fac57600080fd5b810190808035906020019092919050505061275f565b6040518080602001828103825283818151815260200191508051906020019080838360005b83811015611002578082015181840152602081019050610fe7565b50505050905090810190601f16801561102f5780820380516001836020036101000a031916815260200191505b509250505060405180910390f35b34801561104957600080fd5b50611052612a30565b604051808273ffffffffffffffffffffffffffffffffffffffff1673ffffffffffffffffffffffffffffffffffffffff16815260200191505060405180910390f35b3480156110a057600080fd5b50611103600480360360408110156110b757600080fd5b81019080803573ffffffffffffffffffffffffffffffffffffffff169060200190929190803573ffffffffffffffffffffffffffffffffffffffff169060200190929190505050612a56565b604051808215151515815260200191505060405180910390f35b6111496004803603602081101561113357600080fd5b8101908080359060200190929190505050612aea565b005b6000806000837bffffffffffffffffffffffffffffffffffffffffffffffffffffffff19167bffffffffffffffffffffffffffffffffffffffffffffffffffffffff1916815260200190815260200160002060009054906101000a900460ff169050919050565b600082600f600082815260200190815260200160002060009054906101000a900473ffffffffffffffffffffffffffffffffffffffff1673ffffffffffffffffffffffffffffffffffffffff163373ffffffffffffffffffffffffffffffffffffffff161461126c576040517f08c379a000000000000000000000000000000000000000000000000000000000815260040180806020018281038252602881526020018061556b6028913960400191505060405180910390fd5b600f600082815260200190815260200160002060006101000a81549073ffffffffffffffffffffffffffffffffffffffff0219169055807f7cc135e0cebb02c3480ae5d74d377283180a2601f8f644edf7987b009316c63a60405160405180910390a2826011819055506112de61517a565b6112f260155430632b22aaea60e01b612d42565b90506113d86040518060400160405280600381526020017f676574000000000000000000000000000000000000000000000000000000000081525060198054600181600116156101000203166002900480601f0160208091040260200160405190810160405280929190818152602001828054600181600116156101000203166002900480156113c35780601f10611398576101008083540402835291602001916113c3565b820191906000526020600020905b8154815290600101906020018083116113a657829003601f168201915b505050505083612d739092919063ffffffff16565b6114576040518060400160405280600481526020017f70617468000000000000000000000000000000000000000000000000000000008152506040518060400160405280600981526020017f495046535f50415448000000000000000000000000000000000000000000000081525083612d739092919063ffffffff16565b611486601460009054906101000a900473ffffffffffffffffffffffffffffffffffffffff1682601654612da6565b9250505092915050565b606060068054600181600116156101000203166002900480601f0160208091040260200160405190810160405280929190818152602001828054600181600116156101000203166002900480156115285780601f106114fd57610100808354040283529160200191611528565b820191906000526020600020905b81548152906001019060200180831161150b57829003601f168201915b5050505050905090565b600061153d8261305e565b611592576040517f08c379a000000000000000000000000000000000000000000000000000000000815260040180806020018281038252602c815260200180615469602c913960400191505060405180910390fd5b6004600083815260200190815260200160002060009054906101000a900473ffffffffffffffffffffffffffffffffffffffff169050919050565b60006115d882612106565b90508073ffffffffffffffffffffffffffffffffffffffff168373ffffffffffffffffffffffffffffffffffffffff16141561165f576040517f08c379a00000000000000000000000000000000000000000000000000000000081526004018080602001828103825260218152602001806155196021913960400191505060405180910390fd5b8073ffffffffffffffffffffffffffffffffffffffff1661167e61307b565b73ffffffffffffffffffffffffffffffffffffffff1614806116ad57506116ac816116a761307b565b612a56565b5b611702576040517f08c379a00000000000000000000000000000000000000000000000000000000081526004018080602001828103825260388152602001806153bc6038913960400191505060405180910390fd5b61170c8383613083565b505050565b600061171d600261313c565b905090565b61173361172d61307b565b83613151565b611788576040517f08c379a00000000000000000000000000000000000000000000000000000000081526004018080602001828103825260288152602001806152c96028913960400191505060405180910390fd5b80601a6000848152602001908152602001600020819055507f5cfd7981b7826a1543139612aae7cac778558e6d89d166a9d4b69423535fe087826040518082815260200191505060405180910390a15050565b601060009054906101000a900473ffffffffffffffffffffffffffffffffffffffff1673ffffffffffffffffffffffffffffffffffffffff163373ffffffffffffffffffffffffffffffffffffffff1614611881576040517f08c379a00000000000000000000000000000000000000000000000000000000081526004018080602001828103825260248152602001806155936024913960400191505060405180910390fd5b61188b8282613245565b5050565b6118a061189a61307b565b82613151565b6118f5576040517f08c379a000000000000000000000000000000000000000000000000000000000815260040180806020018281038252603181526020018061553a6031913960400191505060405180910390fd5b6119008383836132cf565b505050565b81600f600082815260200190815260200160002060009054906101000a900473ffffffffffffffffffffffffffffffffffffffff1673ffffffffffffffffffffffffffffffffffffffff163373ffffffffffffffffffffffffffffffffffffffff16146119bd576040517f08c379a000000000000000000000000000000000000000000000000000000000815260040180806020018281038252602881526020018061556b6028913960400191505060405180910390fd5b600f600082815260200190815260200160002060006101000a81549073ffffffffffffffffffffffffffffffffffffffff0219169055807f7cc135e0cebb02c3480ae5d74d377283180a2601f8f644edf7987b009316c63a60405160405180910390a281601281905550611a2f613512565b7f1a1317a9b735d6402ccd1a577bb88ad490d3c2301e44fa83a56561c708287bdb60136040518080602001828103825283818154600181600116156101000203166002900481526020019150805460018160011615610100020316600290048015611adb5780601f10611ab057610100808354040283529160200191611adb565b820191906000526020600020905b815481529060010190602001808311611abe57829003601f168201915b50509250505060405180910390a1611b8c60138054600181600116156101000203166002900480601f016020809104026020016040519081016040528092919081815260200182805460018160011615610100020316600290048015611b825780601f10611b5757610100808354040283529160200191611b82565b820191906000526020600020905b815481529060010190602001808311611b6557829003601f168201915b5050505050613714565b7f375888a712a23aa4f960c32984e16baf008be32cc52f7b9c12212feee89eb6086001601754036040518082815260200191505060405180910390a1505050565b60138054600181600116156101000203166002900480601f016020809104026020016040519081016040528092919081815260200182805460018160011615610100020316600290048015611c635780601f10611c3857610100808354040283529160200191611c63565b820191906000526020600020905b815481529060010190602001808311611c4657829003601f168201915b505050505081565b6000611cbe82600160008673ffffffffffffffffffffffffffffffffffffffff1673ffffffffffffffffffffffffffffffffffffffff16815260200190815260200160002061373590919063ffffffff16565b905092915050565b601060009054906101000a900473ffffffffffffffffffffffffffffffffffffffff1673ffffffffffffffffffffffffffffffffffffffff163373ffffffffffffffffffffffffffffffffffffffff1614611d6c576040517f08c379a00000000000000000000000000000000000000000000000000000000081526004018080602001828103825260248152602001806155936024913960400191505060405180910390fd5b8060199080519060200190611d829291906151e7565b5050565b6040518060400160405280600781526020017f697066733a2f2f0000000000000000000000000000000000000000000000000081525060139080519060200190611dd19291906151e7565b50611dde3360175461374f565b6060611eba60188054600181600116156101000203166002900480601f016020809104026020016040519081016040528092919081815260200182805460018160011615610100020316600290048015611e795780601f10611e4e57610100808354040283529160200191611e79565b820191906000526020600020905b815481529060010190602001808311611e5c57829003601f168201915b50505050506040518060400160405280600781526020017f3f73636f72653d000000000000000000000000000000000000000000000000008152508461376d565b90506060611ece611ec9611711565b613889565b9050611f10826040518060400160405280600d81526020017f2663686172616374657249643d000000000000000000000000000000000000008152508361376d565b9150611f1b826139d9565b50505050565b611f3c838383604051806020016040528060008152506126e7565b505050565b601060009054906101000a900473ffffffffffffffffffffffffffffffffffffffff1673ffffffffffffffffffffffffffffffffffffffff163373ffffffffffffffffffffffffffffffffffffffff1614611fe7576040517f08c379a00000000000000000000000000000000000000000000000000000000081526004018080602001828103825260248152602001806155936024913960400191505060405180910390fd5b80601460006101000a81548173ffffffffffffffffffffffffffffffffffffffff021916908373ffffffffffffffffffffffffffffffffffffffff16021790555050565b600080612042836002613af990919063ffffffff16565b50905080915050919050565b601060009054906101000a900473ffffffffffffffffffffffffffffffffffffffff1673ffffffffffffffffffffffffffffffffffffffff163373ffffffffffffffffffffffffffffffffffffffff16146120f4576040517f08c379a00000000000000000000000000000000000000000000000000000000081526004018080602001828103825260248152602001806155936024913960400191505060405180910390fd5b6120fd81613b28565b60158190555050565b60006121368260405180606001604052806029815260200161541e602991396002613b539092919063ffffffff16565b9050919050565b606060098054600181600116156101000203166002900480601f0160208091040260200160405190810160405280929190818152602001828054600181600116156101000203166002900480156121d55780601f106121aa576101008083540402835291602001916121d5565b820191906000526020600020905b8154815290600101906020018083116121b857829003601f168201915b5050505050905090565b60008073ffffffffffffffffffffffffffffffffffffffff168273ffffffffffffffffffffffffffffffffffffffff161415612266576040517f08c379a000000000000000000000000000000000000000000000000000000000815260040180806020018281038252602a8152602001806153f4602a913960400191505060405180910390fd5b6122ad600160008473ffffffffffffffffffffffffffffffffffffffff1673ffffffffffffffffffffffffffffffffffffffff168152602001908152602001600020613b72565b9050919050565b601060009054906101000a900473ffffffffffffffffffffffffffffffffffffffff1673ffffffffffffffffffffffffffffffffffffffff163373ffffffffffffffffffffffffffffffffffffffff161461235a576040517f08c379a00000000000000000000000000000000000000000000000000000000081526004018080602001828103825260248152602001806155936024913960400191505060405180910390fd5b80601890805190602001906123709291906151e7565b5050565b80601b60003373ffffffffffffffffffffffffffffffffffffffff1673ffffffffffffffffffffffffffffffffffffffff1681526020019081526020016000208190555050565b606060078054600181600116156101000203166002900480601f0160208091040260200160405190810160405280929190818152602001828054600181600116156101000203166002900480156124535780601f1061242857610100808354040283529160200191612453565b820191906000526020600020905b81548152906001019060200180831161243657829003601f168201915b5050505050905090565b61246561307b565b73ffffffffffffffffffffffffffffffffffffffff168273ffffffffffffffffffffffffffffffffffffffff161415612506576040517f08c379a00000000000000000000000000000000000000000000000000000000081526004018080602001828103825260198152602001807f4552433732313a20617070726f766520746f2063616c6c65720000000000000081525060200191505060405180910390fd5b806005600061251361307b565b73ffffffffffffffffffffffffffffffffffffffff1673ffffffffffffffffffffffffffffffffffffffff16815260200190815260200160002060008473ffffffffffffffffffffffffffffffffffffffff1673ffffffffffffffffffffffffffffffffffffffff16815260200190815260200160002060006101000a81548160ff0219169083151502179055508173ffffffffffffffffffffffffffffffffffffffff166125c061307b565b73ffffffffffffffffffffffffffffffffffffffff167f17307eab39ab6107e8899845ad3d59bd9653f200f220920489ca2b5937696c3183604051808215151515815260200191505060405180910390a35050565b601060009054906101000a900473ffffffffffffffffffffffffffffffffffffffff1673ffffffffffffffffffffffffffffffffffffffff163373ffffffffffffffffffffffffffffffffffffffff16146126bb576040517f08c379a00000000000000000000000000000000000000000000000000000000081526004018080602001828103825260248152602001806155936024913960400191505060405180910390fd5b670de0b6b3a7640000810260168190555050565b601a6020528060005260406000206000915090505481565b6126f86126f261307b565b83613151565b61274d576040517f08c379a000000000000000000000000000000000000000000000000000000000815260040180806020018281038252603181526020018061553a6031913960400191505060405180910390fd5b61275984848484613b87565b50505050565b606061276a8261305e565b6127bf576040517f08c379a000000000000000000000000000000000000000000000000000000000815260040180806020018281038252602f8152602001806154ea602f913960400191505060405180910390fd5b6060600860008481526020019081526020016000208054600181600116156101000203166002900480601f0160208091040260200160405190810160405280929190818152602001828054600181600116156101000203166002900480156128685780601f1061283d57610100808354040283529160200191612868565b820191906000526020600020905b81548152906001019060200180831161284b57829003601f168201915b50505050509050606061287961213d565b905060008151141561288f578192505050612a2b565b6000825111156129605780826040516020018083805190602001908083835b602083106128d157805182526020820191506020810190506020830392506128ae565b6001836020036101000a03801982511681845116808217855250505050505090500182805190602001908083835b6020831061292257805182526020820191506020810190506020830392506128ff565b6001836020036101000a0380198251168184511680821785525050505050509050019250505060405160208183030381529060405292505050612a2b565b8061296a85613bf9565b6040516020018083805190602001908083835b602083106129a0578051825260208201915060208101905060208303925061297d565b6001836020036101000a03801982511681845116808217855250505050505090500182805190602001908083835b602083106129f157805182526020820191506020810190506020830392506129ce565b6001836020036101000a03801982511681845116808217855250505050505090500192505050604051602081830303815290604052925050505b919050565b601060009054906101000a900473ffffffffffffffffffffffffffffffffffffffff1681565b6000600560008473ffffffffffffffffffffffffffffffffffffffff1673ffffffffffffffffffffffffffffffffffffffff16815260200190815260200160002060008373ffffffffffffffffffffffffffffffffffffffff1673ffffffffffffffffffffffffffffffffffffffff16815260200190815260200160002060009054906101000a900460ff16905092915050565b6000601a60008381526020019081526020016000205411612b73576040517f08c379a00000000000000000000000000000000000000000000000000000000081526004018080602001828103825260208152602001807f54686520547572746c652073686f756c6420626520757020666f722073616c6581525060200191505060405180910390fd5b6000601a60008381526020019081526020016000205490506000601a6000848152602001908152602001600020819055506000612baf83612106565b9050813411612c26576040517f08c379a000000000000000000000000000000000000000000000000000000000815260040180806020018281038252601d8152602001807f596f75206e65656420746f206861766520656e6f75676820457468657200000081525060200191505060405180910390fd5b612c678133856040518060400160405280600c81526020017f427579206120547572746c650000000000000000000000000000000000000000815250613b87565b60008190508073ffffffffffffffffffffffffffffffffffffffff166108fc849081150290604051600060405180830381858888f19350505050158015612cb2573d6000803e3d6000fd5b5082341115612d05573373ffffffffffffffffffffffffffffffffffffffff166108fc8434039081150290604051600060405180830381858888f19350505050158015612d03573d6000803e3d6000fd5b505b7f8c78864e67a7dfb4ed185a3b2dad4a13fd8a7f807e84ecf1687eab5cb297676e846040518082815260200191505060405180910390a150505050565b612d4a61517a565b612d5261517a565b612d6985858584613d40909392919063ffffffff16565b9150509392505050565b612d8a828460800151613df090919063ffffffff16565b612da1818460800151613df090919063ffffffff16565b505050565b600030600e54604051602001808373ffffffffffffffffffffffffffffffffffffffff1673ffffffffffffffffffffffffffffffffffffffff1660601b815260140182815260200192505050604051602081830303815290604052805190602001209050600e5483606001818152505083600f600083815260200190815260200160002060006101000a81548173ffffffffffffffffffffffffffffffffffffffff021916908373ffffffffffffffffffffffffffffffffffffffff160217905550807fb5e6e01e79f91267dc17b4e6314d5d4d03593d2ceee0fbb452b750bd70ea5af960405160405180910390a2600c60009054906101000a900473ffffffffffffffffffffffffffffffffffffffff1673ffffffffffffffffffffffffffffffffffffffff16634000aea08584612ede87613e15565b6040518463ffffffff1660e01b8152600401808473ffffffffffffffffffffffffffffffffffffffff1673ffffffffffffffffffffffffffffffffffffffff16815260200183815260200180602001828103825283818151815260200191508051906020019080838360005b83811015612f65578082015181840152602081019050612f4a565b50505050905090810190601f168015612f925780820380516001836020036101000a031916815260200191505b50945050505050602060405180830381600087803b158015612fb357600080fd5b505af1158015612fc7573d6000803e3d6000fd5b505050506040513d6020811015612fdd57600080fd5b8101908080519060200190929190505050613043576040517f08c379a00000000000000000000000000000000000000000000000000000000081526004018080602001828103825260238152602001806153236023913960400191505060405180910390fd5b6001600e600082825401925050819055508090509392505050565b6000613074826002613fe190919063ffffffff16565b9050919050565b600033905090565b816004600083815260200190815260200160002060006101000a81548173ffffffffffffffffffffffffffffffffffffffff021916908373ffffffffffffffffffffffffffffffffffffffff160217905550808273ffffffffffffffffffffffffffffffffffffffff166130f683612106565b73ffffffffffffffffffffffffffffffffffffffff167f8c5be1e5ebec7d5bd14f71427d1e84f3dd0314c0f7b2291e5b200ac8c7c3b92560405160405180910390a45050565b600061314a82600001613ffb565b9050919050565b600061315c8261305e565b6131b1576040517f08c379a000000000000000000000000000000000000000000000000000000000815260040180806020018281038252602c815260200180615390602c913960400191505060405180910390fd5b60006131bc83612106565b90508073ffffffffffffffffffffffffffffffffffffffff168473ffffffffffffffffffffffffffffffffffffffff16148061322b57508373ffffffffffffffffffffffffffffffffffffffff1661321384611532565b73ffffffffffffffffffffffffffffffffffffffff16145b8061323c575061323b8185612a56565b5b91505092915050565b61324e8261305e565b6132a3576040517f08c379a000000000000000000000000000000000000000000000000000000000815260040180806020018281038252602c815260200180615495602c913960400191505060405180910390fd5b806008600084815260200190815260200160002090805190602001906132ca9291906151e7565b505050565b8273ffffffffffffffffffffffffffffffffffffffff166132ef82612106565b73ffffffffffffffffffffffffffffffffffffffff161461335b576040517f08c379a00000000000000000000000000000000000000000000000000000000081526004018080602001828103825260298152602001806154c16029913960400191505060405180910390fd5b600073ffffffffffffffffffffffffffffffffffffffff168273ffffffffffffffffffffffffffffffffffffffff1614156133e1576040517f08c379a00000000000000000000000000000000000000000000000000000000081526004018080602001828103825260248152602001806153466024913960400191505060405180910390fd5b6133ec83838361400c565b6133f7600082613083565b61344881600160008673ffffffffffffffffffffffffffffffffffffffff1673ffffffffffffffffffffffffffffffffffffffff16815260200190815260200160002061401190919063ffffffff16565b5061349a81600160008573ffffffffffffffffffffffffffffffffffffffff1673ffffffffffffffffffffffffffffffffffffffff16815260200190815260200160002061402b90919063ffffffff16565b506134b1818360026140459092919063ffffffff16565b50808273ffffffffffffffffffffffffffffffffffffffff168473ffffffffffffffffffffffffffffffffffffffff167fddf252ad1be2c89b69c2b068fc378daa952ba7f163c4a11628f55a4df523b3ef60405160405180910390a4505050565b606061351f60115461407a565b9050606061352e60125461407a565b90506135d560138054600181600116156101000203166002900480601f0160208091040260200160405190810160405280929190818152602001828054600181600116156101000203166002900480156135c95780601f1061359e576101008083540402835291602001916135c9565b820191906000526020600020905b8154815290600101906020018083116135ac57829003601f168201915b5050505050838361376d565b601390805190602001906135ea9291906151e7565b506136fa60138054600181600116156101000203166002900480601f0160208091040260200160405190810160405280929190818152602001828054600181600116156101000203166002900480156136845780601f1061365957610100808354040283529160200191613684565b820191906000526020600020905b81548152906001019060200180831161366757829003601f168201915b50505050506040518060400160405280600981526020017f2f6d6574616461746100000000000000000000000000000000000000000000008152506040518060400160405280600581526020017f2e6a736f6e00000000000000000000000000000000000000000000000000000081525061376d565b6013908051906020019061370f9291906151e7565b505050565b61372060175482613245565b60176000815480929190600101919050555050565b600061374483600001836141ee565b60001c905092915050565b613769828260405180602001604052806000815250614271565b5050565b60608383836040516020018084805190602001908083835b602083106137a85780518252602082019150602081019050602083039250613785565b6001836020036101000a03801982511681845116808217855250505050505090500183805190602001908083835b602083106137f957805182526020820191506020810190506020830392506137d6565b6001836020036101000a03801982511681845116808217855250505050505090500182805190602001908083835b6020831061384a5780518252602082019150602081019050602083039250613827565b6001836020036101000a038019825116818451168082178552505050505050905001935050505060405160208183030381529060405290509392505050565b606060008214156138d1576040518060400160405280600181526020017f300000000000000000000000000000000000000000000000000000000000000081525090506139d4565b600082905060005b600082146138fb578080600101915050600a82816138f357fe5b0491506138d9565b60608167ffffffffffffffff8111801561391457600080fd5b506040519080825280601f01601f1916602001820160405280156139475781602001600182028036833780820191505090505b50905060008290505b600086146139cc576001810390506000600a80888161396b57fe5b04028703603001905060008160f81b90508084848151811061398957fe5b60200101907effffffffffffffffffffffffffffffffffffffffffffffffffffffffffffff1916908160001a905350600a88816139c257fe5b0497505050613950565b819450505050505b919050565b60006139e361517a565b6139f76015543063042f2b6560e01b612d42565b9050613a436040518060400160405280600381526020017f67657400000000000000000000000000000000000000000000000000000000008152508483612d739092919063ffffffff16565b613ac26040518060400160405280600481526020017f70617468000000000000000000000000000000000000000000000000000000008152506040518060400160405280600981526020017f495046535f50415448000000000000000000000000000000000000000000000081525083612d739092919063ffffffff16565b613af1601460009054906101000a900473ffffffffffffffffffffffffffffffffffffffff1682601654612da6565b915050919050565b600080600080613b0c86600001866142e2565b915091508160001c8160001c8090509350935050509250929050565b60006060829050600081511415613b45576000801b915050613b4e565b60208301519150505b919050565b6000613b66846000018460001b8461437b565b60001c90509392505050565b6000613b8082600001614471565b9050919050565b613b928484846132cf565b613b9e84848484614482565b613bf3576040517f08c379a00000000000000000000000000000000000000000000000000000000081526004018080602001828103825260328152602001806152f16032913960400191505060405180910390fd5b50505050565b60606000821415613c41576040518060400160405280600181526020017f30000000000000000000000000000000000000000000000000000000000000008152509050613d3b565b600082905060005b60008214613c6b578080600101915050600a8281613c6357fe5b049150613c49565b60608167ffffffffffffffff81118015613c8457600080fd5b506040519080825280601f01601f191660200182016040528015613cb75781602001600182028036833780820191505090505b50905060006001830390508593505b60008414613d3357600a8481613cd857fe5b0660300160f81b82828060019003935081518110613cf257fe5b60200101907effffffffffffffffffffffffffffffffffffffffffffffffffffffffffffff1916908160001a905350600a8481613d2b57fe5b049350613cc6565b819450505050505b919050565b613d4861517a565b613d5885608001516101006146c7565b508385600001818152505082856020019073ffffffffffffffffffffffffffffffffffffffff16908173ffffffffffffffffffffffffffffffffffffffff16815250508185604001907bffffffffffffffffffffffffffffffffffffffffffffffffffffffff191690817bffffffffffffffffffffffffffffffffffffffffffffffffffffffff191681525050849050949350505050565b613dfd826003835161471b565b613e10818361486090919063ffffffff16565b505050565b6060634042994660e01b60008084600001518560200151866040015187606001516001896080015160000151604051602401808973ffffffffffffffffffffffffffffffffffffffff1673ffffffffffffffffffffffffffffffffffffffff1681526020018881526020018781526020018673ffffffffffffffffffffffffffffffffffffffff1673ffffffffffffffffffffffffffffffffffffffff168152602001857bffffffffffffffffffffffffffffffffffffffffffffffffffffffff19167bffffffffffffffffffffffffffffffffffffffffffffffffffffffff1916815260200184815260200183815260200180602001828103825283818151815260200191508051906020019080838360005b83811015613f44578082015181840152602081019050613f29565b50505050905090810190601f168015613f715780820380516001836020036101000a031916815260200191505b509950505050505050505050604051602081830303815290604052907bffffffffffffffffffffffffffffffffffffffffffffffffffffffff19166020820180517bffffffffffffffffffffffffffffffffffffffffffffffffffffffff83818316178352505050509050919050565b6000613ff3836000018360001b614882565b905092915050565b600081600001805490509050919050565b505050565b6000614023836000018360001b6148a5565b905092915050565b600061403d836000018360001b61498d565b905092915050565b6000614071846000018460001b8473ffffffffffffffffffffffffffffffffffffffff1660001b6149fd565b90509392505050565b606060008090505b60208160ff161080156140cd5750600060f81b838260ff16602081106140a457fe5b1a60f81b7effffffffffffffffffffffffffffffffffffffffffffffffffffffffffffff191614155b156140df578080600101915050614082565b60608160ff1667ffffffffffffffff811180156140fb57600080fd5b506040519080825280601f01601f19166020018201604052801561412e5781602001600182028036833780820191505090505b509050600091505b60208260ff161080156141815750600060f81b848360ff166020811061415857fe5b1a60f81b7effffffffffffffffffffffffffffffffffffffffffffffffffffffffffffff191614155b156141e457838260ff166020811061419557fe5b1a60f81b818360ff16815181106141a857fe5b60200101907effffffffffffffffffffffffffffffffffffffffffffffffffffffffffffff1916908160001a9053508180600101925050614136565b8092505050919050565b60008183600001805490501161424f576040517f08c379a00000000000000000000000000000000000000000000000000000000081526004018080602001828103825260228152602001806152a76022913960400191505060405180910390fd5b82600001828154811061425e57fe5b9060005260206000200154905092915050565b61427b8383614ad9565b6142886000848484614482565b6142dd576040517f08c379a00000000000000000000000000000000000000000000000000000000081526004018080602001828103825260328152602001806152f16032913960400191505060405180910390fd5b505050565b60008082846000018054905011614344576040517f08c379a00000000000000000000000000000000000000000000000000000000081526004018080602001828103825260228152602001806154476022913960400191505060405180910390fd5b600084600001848154811061435557fe5b906000526020600020906002020190508060000154816001015492509250509250929050565b60008084600101600085815260200190815260200160002054905060008114158390614442576040517f08c379a00000000000000000000000000000000000000000000000000000000081526004018080602001828103825283818151815260200191508051906020019080838360005b838110156144075780820151818401526020810190506143ec565b50505050905090810190601f1680156144345780820380516001836020036101000a031916815260200191505b509250505060405180910390fd5b5084600001600182038154811061445557fe5b9060005260206000209060020201600101549150509392505050565b600081600001805490509050919050565b60006144a38473ffffffffffffffffffffffffffffffffffffffff16614ccd565b6144b057600190506146bf565b606061464663150b7a0260e01b6144c561307b565b888787604051602401808573ffffffffffffffffffffffffffffffffffffffff1673ffffffffffffffffffffffffffffffffffffffff1681526020018473ffffffffffffffffffffffffffffffffffffffff1673ffffffffffffffffffffffffffffffffffffffff16815260200183815260200180602001828103825283818151815260200191508051906020019080838360005b8381101561457557808201518184015260208101905061455a565b50505050905090810190601f1680156145a25780820380516001836020036101000a031916815260200191505b5095505050505050604051602081830303815290604052907bffffffffffffffffffffffffffffffffffffffffffffffffffffffff19166020820180517bffffffffffffffffffffffffffffffffffffffffffffffffffffffff83818316178352505050506040518060600160405280603281526020016152f1603291398773ffffffffffffffffffffffffffffffffffffffff16614ce09092919063ffffffff16565b9050600081806020019051602081101561465f57600080fd5b8101908080519060200190929190505050905063150b7a0260e01b7bffffffffffffffffffffffffffffffffffffffffffffffffffffffff1916817bffffffffffffffffffffffffffffffffffffffffffffffffffffffff191614925050505b949350505050565b6146cf615267565b6000602083816146db57fe5b06146146f457602082816146eb57fe5b06602003820191505b81836020018181525050604051808452600081528281016020016040525082905092915050565b60178111614748576147428160058460ff16901b60ff161784614cf890919063ffffffff16565b5061485b565b60ff811161478a5761476d601860058460ff16901b1784614cf890919063ffffffff16565b5061478481600185614d189092919063ffffffff16565b5061485a565b61ffff81116147cd576147b0601960058460ff16901b1784614cf890919063ffffffff16565b506147c781600285614d189092919063ffffffff16565b50614859565b63ffffffff8111614812576147f5601a60058460ff16901b1784614cf890919063ffffffff16565b5061480c81600485614d189092919063ffffffff16565b50614858565b67ffffffffffffffff81116148575761483e601b60058460ff16901b1784614cf890919063ffffffff16565b5061485581600885614d189092919063ffffffff16565b505b5b5b5b5b505050565b614868615267565b61487a83846000015151848551614d3a565b905092915050565b600080836001016000848152602001908152602001600020541415905092915050565b6000808360010160008481526020019081526020016000205490506000811461498157600060018203905060006001866000018054905003905060008660000182815481106148f057fe5b906000526020600020015490508087600001848154811061490d57fe5b906000526020600020018190555060018301876001016000838152602001908152602001600020819055508660000180548061494557fe5b60019003818190600052602060002001600090559055866001016000878152602001908152602001600020600090556001945050505050614987565b60009150505b92915050565b60006149998383614df3565b6149f25782600001829080600181540180825580915050600190039060005260206000200160009091909190915055826000018054905083600101600084815260200190815260200160002081905550600190506149f7565b600090505b92915050565b6000808460010160008581526020019081526020016000205490506000811415614aa457846000016040518060400160405280868152602001858152509080600181540180825580915050600190039060005260206000209060020201600090919091909150600082015181600001556020820151816001015550508460000180549050856001016000868152602001908152602001600020819055506001915050614ad2565b82856000016001830381548110614ab757fe5b90600052602060002090600202016001018190555060009150505b9392505050565b600073ffffffffffffffffffffffffffffffffffffffff168273ffffffffffffffffffffffffffffffffffffffff161415614b7c576040517f08c379a00000000000000000000000000000000000000000000000000000000081526004018080602001828103825260208152602001807f4552433732313a206d696e7420746f20746865207a65726f206164647265737381525060200191505060405180910390fd5b614b858161305e565b15614bf8576040517f08c379a000000000000000000000000000000000000000000000000000000000815260040180806020018281038252601c8152602001807f4552433732313a20746f6b656e20616c7265616479206d696e7465640000000081525060200191505060405180910390fd5b614c046000838361400c565b614c5581600160008573ffffffffffffffffffffffffffffffffffffffff1673ffffffffffffffffffffffffffffffffffffffff16815260200190815260200160002061402b90919063ffffffff16565b50614c6c818360026140459092919063ffffffff16565b50808273ffffffffffffffffffffffffffffffffffffffff16600073ffffffffffffffffffffffffffffffffffffffff167fddf252ad1be2c89b69c2b068fc378daa952ba7f163c4a11628f55a4df523b3ef60405160405180910390a45050565b600080823b905060008111915050919050565b6060614cef8484600085614e16565b90509392505050565b614d00615267565b614d108384600001515184614fbf565b905092915050565b614d20615267565b614d3184856000015151858561500d565b90509392505050565b614d42615267565b8251821115614d5057600080fd5b84602001518285011115614d7b57614d7a856002614d74886020015188870161506e565b0261508a565b5b600080865180518760208301019350808887011115614d9a5787860182525b60208701925050505b60208410614dc65780518252602082019150602081019050602084039350614da3565b60006001856020036101000a03905080198251168184511681811785525050879350505050949350505050565b600080836001016000848152602001908152602001600020541415905092915050565b606082471015614e71576040517f08c379a000000000000000000000000000000000000000000000000000000000815260040180806020018281038252602681526020018061536a6026913960400191505060405180910390fd5b614e7a85614ccd565b614eec576040517f08c379a000000000000000000000000000000000000000000000000000000000815260040180806020018281038252601d8152602001807f416464726573733a2063616c6c20746f206e6f6e2d636f6e747261637400000081525060200191505060405180910390fd5b600060608673ffffffffffffffffffffffffffffffffffffffff1685876040518082805190602001908083835b60208310614f3c5780518252602082019150602081019050602083039250614f19565b6001836020036101000a03801982511681845116808217855250505050505090500191505060006040518083038185875af1925050503d8060008114614f9e576040519150601f19603f3d011682016040523d82523d6000602084013e614fa3565b606091505b5091509150614fb38282866150ae565b92505050949350505050565b614fc7615267565b83602001518310614fe457614fe384600286602001510261508a565b5b8351805160208583010184815381861415615000576001820183525b5050508390509392505050565b615015615267565b84602001518483011115615033576150328560028685010261508a565b5b60006001836101000a03905085518386820101858319825116178152815185880111156150605784870182525b505085915050949350505050565b60008183111561508057829050615084565b8190505b92915050565b60608260000151905061509d83836146c7565b506150a88382614860565b50505050565b606083156150be57829050615173565b6000835111156150d15782518084602001fd5b816040517f08c379a00000000000000000000000000000000000000000000000000000000081526004018080602001828103825283818151815260200191508051906020019080838360005b8381101561513857808201518184015260208101905061511d565b50505050905090810190601f1680156151655780820380516001836020036101000a031916815260200191505b509250505060405180910390fd5b9392505050565b6040518060a0016040528060008019168152602001600073ffffffffffffffffffffffffffffffffffffffff16815260200160007bffffffffffffffffffffffffffffffffffffffffffffffffffffffff19168152602001600081526020016151e1615267565b81525090565b828054600181600116156101000203166002900490600052602060002090601f016020900481019282601f1061522857805160ff1916838001178555615256565b82800160010185558215615256579182015b8281111561525557825182559160200191906001019061523a565b5b5090506152639190615281565b5090565b604051806040016040528060608152602001600081525090565b6152a391905b8082111561529f576000816000905550600101615287565b5090565b9056fe456e756d657261626c655365743a20696e646578206f7574206f6620626f756e64734552433732313a2043616c6c6572206973206e6f74206f776e6572206e6f7220617070726f7665644552433732313a207472616e7366657220746f206e6f6e20455243373231526563656976657220696d706c656d656e746572756e61626c6520746f207472616e73666572416e6443616c6c20746f206f7261636c654552433732313a207472616e7366657220746f20746865207a65726f2061646472657373416464726573733a20696e73756666696369656e742062616c616e636520666f722063616c6c4552433732313a206f70657261746f7220717565727920666f72206e6f6e6578697374656e7420746f6b656e4552433732313a20617070726f76652063616c6c6572206973206e6f74206f776e6572206e6f7220617070726f76656420666f7220616c6c4552433732313a2062616c616e636520717565727920666f7220746865207a65726f20616464726573734552433732313a206f776e657220717565727920666f72206e6f6e6578697374656e7420746f6b656e456e756d657261626c654d61703a20696e646578206f7574206f6620626f756e64734552433732313a20617070726f76656420717565727920666f72206e6f6e6578697374656e7420746f6b656e4552433732314d657461646174613a2055524920736574206f66206e6f6e6578697374656e7420746f6b656e4552433732313a207472616e73666572206f6620746f6b656e2074686174206973206e6f74206f776e4552433732314d657461646174613a2055524920717565727920666f72206e6f6e6578697374656e7420746f6b656e4552433732313a20617070726f76616c20746f2063757272656e74206f776e65724552433732313a207472616e736665722063616c6c6572206973206e6f74206f776e6572206e6f7220617070726f766564536f75726365206d75737420626520746865206f7261636c65206f662074686520726571756573745468652063616c6c6572206973206e6f742074686520636f6e7472616374206f776e6572a2646970667358221220700f9e78076b7cc2018b174f652eec18c6fff3025df3820d162cdb5e17b10a3864736f6c6343000606003368747470733a2f2f696d616765732d626c656e642e6865726f6b756170702e636f6d2f68747470733a2f2f696d616765732d626c656e642e6865726f6b756170702e636f6d2f7365636f6e642f",
  "immutableReferences": {},
  "source": "// SPDX-License-Identifier: MIT\r\npragma solidity ^0.6.6;\r\n\r\nimport \"@openzeppelin/contracts/token/ERC721/ERC721.sol\";\r\nimport \"@chainlink/contracts/src/v0.6/ChainlinkClient.sol\";\r\n\r\ncontract Turtis is ERC721, ChainlinkClient {\r\n  address public contractOwner; // Owner of this contract\r\n\r\n  // Bytes32 data related to IPFS Hash returned from the API\r\n  bytes32 private ipfsHashOneBytes32;\r\n  bytes32 private ipfsHashTwoBytes32;\r\n\r\n  string public ipfsLink = \"ipfs://\"; // Stores the IPFS link after the API call\r\n\r\n  // Chainlink Oracle, Job ID and fee required for making the API call using Chainlink\r\n  address private oracle;\r\n  bytes32 private jobId;\r\n  uint256 private fee;\r\n\r\n  uint256 private uniqueTokenId = 0; // Unique TokenID\r\n\r\n  string private apiBaseUrl; // Stores the base url of the api\r\n  string private apiSecondUrl; // API url for the second call\r\n\r\n  // Mapping from Token ID to Price\r\n  mapping(uint256 => uint256) public turtlesForSale;\r\n\r\n  // Mapping from User address to high score\r\n  mapping(address => uint256) userAddressToHighScore;\r\n\r\n  // Events\r\n\r\n  // Emitted when a new Turtle is generated after reaching a new checkpoint in the game\r\n  event NewTurtleGenerated(uint256 tokenId);\r\n\r\n  // Emitted when the data received from the API is successful\r\n  event DataReceivedFromAPI(string ipfsLink);\r\n\r\n  // Emitted when a turtle is bought\r\n  event TurtleBought(uint256 tokenId);\r\n\r\n  // Emitted when a turtle is put up for sale\r\n  event TurtleUpForSale(uint256 tokenId);\r\n\r\n  /**\r\n   * Network: Matic Mumbai Testnet\r\n   * Oracle: 0xc8D925525CA8759812d0c299B90247917d4d4b7C\r\n   * Job ID: a7330d0b4b964c05abc66a26307047c0\r\n   * LINK address: 0x326C977E6efc84E512bB9C30f76E30c160eD06FB\r\n   * Fee: 0.01 LINK\r\n   */\r\n\r\n  // Contructor is called when an instance of 'TurtleCharacter' contract is deployed\r\n  constructor() public ERC721(\"TurtleCharacter\", \"TRTL\") {\r\n    setChainlinkToken(0x326C977E6efc84E512bB9C30f76E30c160eD06FB);\r\n\r\n    uniqueTokenId = 0;\r\n    contractOwner = msg.sender;\r\n    apiBaseUrl = \"https://images-blend.herokuapp.com/\";\r\n    apiSecondUrl = \"https://images-blend.herokuapp.com/second/\";\r\n\r\n    oracle = 0xc8D925525CA8759812d0c299B90247917d4d4b7C; // Address of the chainlink oracle\r\n    jobId = \"a7330d0b4b964c05abc66a26307047c0\"; // This Job gets data from an API in the form of a bytes32 variable\r\n    fee = 0.01 * 10**18; // 0.01 LINK (Fee for Chainlink Oracle for returning the required data)\r\n  }\r\n\r\n  // Modifer that checks to see if msg.sender == contractOwner\r\n  modifier onlyContractOwner() {\r\n    require(\r\n      msg.sender == contractOwner,\r\n      \"The caller is not the contract owner\"\r\n    );\r\n    _;\r\n  }\r\n\r\n  // Function 'setOracleAddress' sets a new oracle address\r\n  function setOracleAddress(address _oracleAddress) public onlyContractOwner {\r\n    oracle = _oracleAddress;\r\n  }\r\n\r\n  // Function 'setJobID' sets a new job ID\r\n  function setJobID(string memory _jobID) public onlyContractOwner {\r\n    jobId = stringToBytes32(_jobID);\r\n  }\r\n\r\n  // Function 'setFeeInLink' sets a new fee for the Chainlink Oracle\r\n  function setFeeInLink(uint256 _fee) public onlyContractOwner {\r\n    fee = _fee * 10**18;\r\n  }\r\n\r\n  // Function 'setApiBaseUrl' sets a new base URL link for the API\r\n  function setApiBaseUrl(string memory _url) public onlyContractOwner {\r\n    apiBaseUrl = _url;\r\n  }\r\n\r\n  // Function 'setApiSecondUrl' sets a new second URL link for the API\r\n  function setApiSecondUrl(string memory _url) public onlyContractOwner {\r\n    apiSecondUrl = _url;\r\n  }\r\n\r\n  // Function 'setHighScore' sets a new highScore for the user\r\n  function setHighScore(uint256 _highScore) public {\r\n    userAddressToHighScore[msg.sender] = _highScore;\r\n  }\r\n\r\n  // Function 'buyTurtle' allows anyone to buy a turtle that is put up for sale\r\n  function buyTurtle(uint256 _tokenId) public payable {\r\n    require(turtlesForSale[_tokenId] > 0, \"The Turtle should be up for sale\");\r\n\r\n    uint256 turtleCost = turtlesForSale[_tokenId];\r\n    turtlesForSale[_tokenId] = 0;\r\n\r\n    address ownerAddress = ownerOf(_tokenId);\r\n    require(msg.value > turtleCost, \"You need to have enough Ether\");\r\n\r\n    _safeTransfer(ownerAddress, msg.sender, _tokenId, bytes(\"Buy a Turtle\")); // ERC721 Token is safely transferred using this function call\r\n\r\n    address payable ownerAddressPayable = payable(ownerAddress);\r\n    ownerAddressPayable.transfer(turtleCost);\r\n    if (msg.value > turtleCost) {\r\n      payable(msg.sender).transfer(msg.value - turtleCost); // Excess Ether is returned back to the buyer\r\n    }\r\n\r\n    emit TurtleBought(_tokenId);\r\n  }\r\n\r\n  // Function 'putUpTurtleForSale' allows a turtle owner to put it up for sale\r\n  function putUpTurtleForSale(uint256 _tokenId, uint256 _price) public {\r\n    require(\r\n      _isApprovedOrOwner(_msgSender(), _tokenId),\r\n      \"ERC721: Caller is not owner nor approved\"\r\n    );\r\n    turtlesForSale[_tokenId] = _price;\r\n\r\n    emit TurtleUpForSale(_tokenId);\r\n  }\r\n\r\n  // Function 'requestNewRandomTurtle' mints a new Turtle character\r\n  function requestNewRandomTurtle(string memory score) public {\r\n    ipfsLink = \"ipfs://\";\r\n    _safeMint(msg.sender, uniqueTokenId);\r\n    string memory apiLink = append(apiBaseUrl, \"?score=\", score);\r\n    string memory characterId = uint2str(totalSupply());\r\n    apiLink = append(apiLink, \"&characterId=\", characterId);\r\n    requestIPFSHash(apiLink);\r\n  }\r\n\r\n  // Function 'requestIPFSHash' requests a new IPFS hash from the API\r\n  function requestIPFSHash(string memory apiLink)\r\n    private\r\n    returns (bytes32 requestId)\r\n  {\r\n    Chainlink.Request memory request = buildChainlinkRequest(\r\n      jobId,\r\n      address(this),\r\n      this.fulfill.selector\r\n    );\r\n    request.add(\"get\", apiLink);\r\n    request.add(\"path\", \"IPFS_PATH\");\r\n\r\n    return sendChainlinkRequestTo(oracle, request, fee);\r\n  }\r\n\r\n  // Function 'fulfill' is called after the response for the API call is received\r\n  function fulfill(bytes32 _requestId, bytes32 dataFromAPI)\r\n    public\r\n    recordChainlinkFulfillment(_requestId)\r\n    returns (bytes32 requestId)\r\n  {\r\n    ipfsHashOneBytes32 = dataFromAPI;\r\n\r\n    Chainlink.Request memory request = buildChainlinkRequest(\r\n      jobId,\r\n      address(this),\r\n      this.fulfillSecondRequest.selector\r\n    );\r\n    request.add(\"get\", apiSecondUrl);\r\n    request.add(\"path\", \"IPFS_PATH\");\r\n\r\n    return sendChainlinkRequestTo(oracle, request, fee);\r\n  }\r\n\r\n  // Function 'fulfillSecondRequest' is called after the response for the API call is received\r\n  function fulfillSecondRequest(bytes32 _requestId, bytes32 dataFromAPI)\r\n    public\r\n    recordChainlinkFulfillment(_requestId)\r\n  {\r\n    ipfsHashTwoBytes32 = dataFromAPI;\r\n    generateIPFSLink();\r\n\r\n    emit DataReceivedFromAPI(ipfsLink);\r\n\r\n    setTokenURI(ipfsLink);\r\n\r\n    emit NewTurtleGenerated(uniqueTokenId - 1);\r\n  }\r\n\r\n  // Function 'bytes32ToString' convers a bytes32 variable to a string variable\r\n  function bytes32ToString(bytes32 _bytes32)\r\n    internal\r\n    pure\r\n    returns (string memory)\r\n  {\r\n    uint8 i = 0;\r\n    while (i < 32 && _bytes32[i] != 0) {\r\n      i++;\r\n    }\r\n    bytes memory bytesArray = new bytes(i);\r\n    for (i = 0; i < 32 && _bytes32[i] != 0; i++) {\r\n      bytesArray[i] = _bytes32[i];\r\n    }\r\n    return string(bytesArray);\r\n  }\r\n\r\n  // Function 'stringToBytes32' convers a string variable to a bytes32 variable\r\n  function stringToBytes32(string memory source)\r\n    internal\r\n    pure\r\n    returns (bytes32 result)\r\n  {\r\n    bytes memory tempEmptyStringTest = bytes(source);\r\n    if (tempEmptyStringTest.length == 0) {\r\n      return 0x0;\r\n    }\r\n    assembly {\r\n      result := mload(add(source, 32))\r\n    }\r\n  }\r\n\r\n  // Function 'generateIPFSLink' generates the IPFS link from the 2 API calls\r\n  function generateIPFSLink() private {\r\n    string memory ipfsHashPartOne = bytes32ToString(ipfsHashOneBytes32);\r\n    string memory ipfsHashPartTwo = bytes32ToString(ipfsHashTwoBytes32);\r\n    ipfsLink = append(ipfsLink, ipfsHashPartOne, ipfsHashPartTwo);\r\n    ipfsLink = append(ipfsLink, \"/metadata\", \".json\");\r\n  }\r\n\r\n  // Function 'append' appends 3 strings\r\n  function append(\r\n    string memory a,\r\n    string memory b,\r\n    string memory c\r\n  ) internal pure returns (string memory) {\r\n    return string(abi.encodePacked(a, b, c));\r\n  }\r\n\r\n  // Function 'uint2str' converts a uint256 variable to a string variable\r\n  function uint2str(uint256 _i)\r\n    internal\r\n    pure\r\n    returns (string memory _uintAsString)\r\n  {\r\n    if (_i == 0) {\r\n      return \"0\";\r\n    }\r\n    uint256 j = _i;\r\n    uint256 len;\r\n    while (j != 0) {\r\n      len++;\r\n      j /= 10;\r\n    }\r\n    bytes memory bstr = new bytes(len);\r\n    uint256 k = len;\r\n    while (_i != 0) {\r\n      k = k - 1;\r\n      uint8 temp = (48 + uint8(_i - (_i / 10) * 10));\r\n      bytes1 b1 = bytes1(temp);\r\n      bstr[k] = b1;\r\n      _i /= 10;\r\n    }\r\n    return string(bstr);\r\n  }\r\n\r\n  // Function 'setTokenURI' sets the Token URI for the ERC721 standard token\r\n  function setTokenURI(string memory _tokenURI) private {\r\n    _setTokenURI(uniqueTokenId, _tokenURI);\r\n    uniqueTokenId++;\r\n  }\r\n\r\n  // Function 'updateTokenURI' updates the Token URI for a specific Token\r\n  function updateTokenURI(uint256 _tokenId, string memory _tokenURI)\r\n    public\r\n    onlyContractOwner\r\n  {\r\n    _setTokenURI(_tokenId, _tokenURI);\r\n  }\r\n}\r\n",
  "sourcePath": "C:/Users/dines/Downloads/NFT-Game/contracts/Turtis.sol",
  "compiler": {
    "name": "solc",
    "version": "0.6.6+commit.6c089d02.Emscripten.clang"
  },
  "schemaVersion": "3.4.1",
  "updatedAt": "2021-07-31T08:34:28.845Z",
  "networkType": "ethereum",
  "devdoc": {
    "methods": {
      "approve(address,uint256)": {
        "details": "See {IERC721-approve}."
      },
      "balanceOf(address)": {
        "details": "See {IERC721-balanceOf}."
      },
      "baseURI()": {
        "details": "Returns the base URI set via {_setBaseURI}. This will be automatically added as a prefix in {tokenURI} to each token's URI, or to the token ID if no specific URI is set for that token ID."
      },
      "getApproved(uint256)": {
        "details": "See {IERC721-getApproved}."
      },
      "isApprovedForAll(address,address)": {
        "details": "See {IERC721-isApprovedForAll}."
      },
      "name()": {
        "details": "See {IERC721Metadata-name}."
      },
      "ownerOf(uint256)": {
        "details": "See {IERC721-ownerOf}."
      },
      "safeTransferFrom(address,address,uint256)": {
        "details": "See {IERC721-safeTransferFrom}."
      },
      "safeTransferFrom(address,address,uint256,bytes)": {
        "details": "See {IERC721-safeTransferFrom}."
      },
      "setApprovalForAll(address,bool)": {
        "details": "See {IERC721-setApprovalForAll}."
      },
      "supportsInterface(bytes4)": {
        "details": "See {IERC165-supportsInterface}.     * Time complexity O(1), guaranteed to always use less than 30 000 gas."
      },
      "symbol()": {
        "details": "See {IERC721Metadata-symbol}."
      },
      "tokenByIndex(uint256)": {
        "details": "See {IERC721Enumerable-tokenByIndex}."
      },
      "tokenOfOwnerByIndex(address,uint256)": {
        "details": "See {IERC721Enumerable-tokenOfOwnerByIndex}."
      },
      "tokenURI(uint256)": {
        "details": "See {IERC721Metadata-tokenURI}."
      },
      "totalSupply()": {
        "details": "See {IERC721Enumerable-totalSupply}."
      },
      "transferFrom(address,address,uint256)": {
        "details": "See {IERC721-transferFrom}."
      }
    }
  },
  "userdoc": {
    "methods": {
      "constructor": "Network: Matic Mumbai Testnet Oracle: 0xc8D925525CA8759812d0c299B90247917d4d4b7C Job ID: a7330d0b4b964c05abc66a26307047c0 LINK address: 0x326C977E6efc84E512bB9C30f76E30c160eD06FB Fee: 0.01 LINK"
    }
  }
}