{
  "contractName": "Turtis",
  "abi": [
    {
      "inputs": [],
      "stateMutability": "nonpayable",
      "type": "constructor"
    },
    {
      "anonymous": false,
      "inputs": [
        {
          "indexed": true,
          "internalType": "address",
          "name": "owner",
          "type": "address"
        },
        {
          "indexed": true,
          "internalType": "address",
          "name": "approved",
          "type": "address"
        },
        {
          "indexed": true,
          "internalType": "uint256",
          "name": "tokenId",
          "type": "uint256"
        }
      ],
      "name": "Approval",
      "type": "event"
    },
    {
      "anonymous": false,
      "inputs": [
        {
          "indexed": true,
          "internalType": "address",
          "name": "owner",
          "type": "address"
        },
        {
          "indexed": true,
          "internalType": "address",
          "name": "operator",
          "type": "address"
        },
        {
          "indexed": false,
          "internalType": "bool",
          "name": "approved",
          "type": "bool"
        }
      ],
      "name": "ApprovalForAll",
      "type": "event"
    },
    {
      "anonymous": false,
      "inputs": [
        {
          "indexed": false,
          "internalType": "string",
          "name": "ipfsLink",
          "type": "string"
        }
      ],
      "name": "DataReceivedFromAPI",
      "type": "event"
    },
    {
      "anonymous": false,
      "inputs": [
        {
          "indexed": false,
          "internalType": "uint256",
          "name": "tokenId",
          "type": "uint256"
        }
      ],
      "name": "NewTurtleGenerated",
      "type": "event"
    },
    {
      "anonymous": false,
      "inputs": [
        {
          "indexed": true,
          "internalType": "address",
          "name": "from",
          "type": "address"
        },
        {
          "indexed": true,
          "internalType": "address",
          "name": "to",
          "type": "address"
        },
        {
          "indexed": true,
          "internalType": "uint256",
          "name": "tokenId",
          "type": "uint256"
        }
      ],
      "name": "Transfer",
      "type": "event"
    },
    {
      "anonymous": false,
      "inputs": [
        {
          "indexed": false,
          "internalType": "uint256",
          "name": "tokenId",
          "type": "uint256"
        }
      ],
      "name": "TurtleBought",
      "type": "event"
    },
    {
      "anonymous": false,
      "inputs": [
        {
          "indexed": false,
          "internalType": "uint256",
          "name": "tokenId",
          "type": "uint256"
        }
      ],
      "name": "TurtleUpForSale",
      "type": "event"
    },
    {
      "inputs": [
        {
          "internalType": "address",
          "name": "to",
          "type": "address"
        },
        {
          "internalType": "uint256",
          "name": "tokenId",
          "type": "uint256"
        }
      ],
      "name": "approve",
      "outputs": [],
      "stateMutability": "nonpayable",
      "type": "function"
    },
    {
      "inputs": [
        {
          "internalType": "address",
          "name": "owner",
          "type": "address"
        }
      ],
      "name": "balanceOf",
      "outputs": [
        {
          "internalType": "uint256",
          "name": "",
          "type": "uint256"
        }
      ],
      "stateMutability": "view",
      "type": "function",
      "constant": true
    },
    {
      "inputs": [],
      "name": "baseURI",
      "outputs": [
        {
          "internalType": "string",
          "name": "",
          "type": "string"
        }
      ],
      "stateMutability": "view",
      "type": "function",
      "constant": true
    },
    {
      "inputs": [],
      "name": "contractOwner",
      "outputs": [
        {
          "internalType": "address",
          "name": "",
          "type": "address"
        }
      ],
      "stateMutability": "view",
      "type": "function",
      "constant": true
    },
    {
      "inputs": [
        {
          "internalType": "uint256",
          "name": "tokenId",
          "type": "uint256"
        }
      ],
      "name": "getApproved",
      "outputs": [
        {
          "internalType": "address",
          "name": "",
          "type": "address"
        }
      ],
      "stateMutability": "view",
      "type": "function",
      "constant": true
    },
    {
      "inputs": [
        {
          "internalType": "address",
          "name": "owner",
          "type": "address"
        },
        {
          "internalType": "address",
          "name": "operator",
          "type": "address"
        }
      ],
      "name": "isApprovedForAll",
      "outputs": [
        {
          "internalType": "bool",
          "name": "",
          "type": "bool"
        }
      ],
      "stateMutability": "view",
      "type": "function",
      "constant": true
    },
    {
      "inputs": [],
      "name": "name",
      "outputs": [
        {
          "internalType": "string",
          "name": "",
          "type": "string"
        }
      ],
      "stateMutability": "view",
      "type": "function",
      "constant": true
    },
    {
      "inputs": [
        {
          "internalType": "uint256",
          "name": "tokenId",
          "type": "uint256"
        }
      ],
      "name": "ownerOf",
      "outputs": [
        {
          "internalType": "address",
          "name": "",
          "type": "address"
        }
      ],
      "stateMutability": "view",
      "type": "function",
      "constant": true
    },
    {
      "inputs": [
        {
          "internalType": "address",
          "name": "from",
          "type": "address"
        },
        {
          "internalType": "address",
          "name": "to",
          "type": "address"
        },
        {
          "internalType": "uint256",
          "name": "tokenId",
          "type": "uint256"
        }
      ],
      "name": "safeTransferFrom",
      "outputs": [],
      "stateMutability": "nonpayable",
      "type": "function"
    },
    {
      "inputs": [
        {
          "internalType": "address",
          "name": "from",
          "type": "address"
        },
        {
          "internalType": "address",
          "name": "to",
          "type": "address"
        },
        {
          "internalType": "uint256",
          "name": "tokenId",
          "type": "uint256"
        },
        {
          "internalType": "bytes",
          "name": "_data",
          "type": "bytes"
        }
      ],
      "name": "safeTransferFrom",
      "outputs": [],
      "stateMutability": "nonpayable",
      "type": "function"
    },
    {
      "inputs": [
        {
          "internalType": "address",
          "name": "operator",
          "type": "address"
        },
        {
          "internalType": "bool",
          "name": "approved",
          "type": "bool"
        }
      ],
      "name": "setApprovalForAll",
      "outputs": [],
      "stateMutability": "nonpayable",
      "type": "function"
    },
    {
      "inputs": [],
      "name": "signedWalletAddress",
      "outputs": [
        {
          "internalType": "address",
          "name": "",
          "type": "address"
        }
      ],
      "stateMutability": "view",
      "type": "function",
      "constant": true
    },
    {
      "inputs": [
        {
          "internalType": "bytes4",
          "name": "interfaceId",
          "type": "bytes4"
        }
      ],
      "name": "supportsInterface",
      "outputs": [
        {
          "internalType": "bool",
          "name": "",
          "type": "bool"
        }
      ],
      "stateMutability": "view",
      "type": "function",
      "constant": true
    },
    {
      "inputs": [],
      "name": "symbol",
      "outputs": [
        {
          "internalType": "string",
          "name": "",
          "type": "string"
        }
      ],
      "stateMutability": "view",
      "type": "function",
      "constant": true
    },
    {
      "inputs": [
        {
          "internalType": "uint256",
          "name": "index",
          "type": "uint256"
        }
      ],
      "name": "tokenByIndex",
      "outputs": [
        {
          "internalType": "uint256",
          "name": "",
          "type": "uint256"
        }
      ],
      "stateMutability": "view",
      "type": "function",
      "constant": true
    },
    {
      "inputs": [
        {
          "internalType": "address",
          "name": "owner",
          "type": "address"
        },
        {
          "internalType": "uint256",
          "name": "index",
          "type": "uint256"
        }
      ],
      "name": "tokenOfOwnerByIndex",
      "outputs": [
        {
          "internalType": "uint256",
          "name": "",
          "type": "uint256"
        }
      ],
      "stateMutability": "view",
      "type": "function",
      "constant": true
    },
    {
      "inputs": [
        {
          "internalType": "uint256",
          "name": "tokenId",
          "type": "uint256"
        }
      ],
      "name": "tokenURI",
      "outputs": [
        {
          "internalType": "string",
          "name": "",
          "type": "string"
        }
      ],
      "stateMutability": "view",
      "type": "function",
      "constant": true
    },
    {
      "inputs": [],
      "name": "totalSupply",
      "outputs": [
        {
          "internalType": "uint256",
          "name": "",
          "type": "uint256"
        }
      ],
      "stateMutability": "view",
      "type": "function",
      "constant": true
    },
    {
      "inputs": [
        {
          "internalType": "address",
          "name": "from",
          "type": "address"
        },
        {
          "internalType": "address",
          "name": "to",
          "type": "address"
        },
        {
          "internalType": "uint256",
          "name": "tokenId",
          "type": "uint256"
        }
      ],
      "name": "transferFrom",
      "outputs": [],
      "stateMutability": "nonpayable",
      "type": "function"
    },
    {
      "inputs": [
        {
          "internalType": "uint256",
          "name": "",
          "type": "uint256"
        }
      ],
      "name": "turtlesForSale",
      "outputs": [
        {
          "internalType": "uint256",
          "name": "",
          "type": "uint256"
        }
      ],
      "stateMutability": "view",
      "type": "function",
      "constant": true
    },
    {
      "inputs": [
        {
          "internalType": "address",
          "name": "",
          "type": "address"
        }
      ],
      "name": "userAddressToHighScore",
      "outputs": [
        {
          "internalType": "uint256",
          "name": "",
          "type": "uint256"
        }
      ],
      "stateMutability": "view",
      "type": "function",
      "constant": true
    },
    {
      "inputs": [],
      "name": "getUsers",
      "outputs": [
        {
          "internalType": "address[]",
          "name": "",
          "type": "address[]"
        }
      ],
      "stateMutability": "view",
      "type": "function",
      "constant": true
    },
    {
      "inputs": [
        {
          "internalType": "uint256",
          "name": "_score",
          "type": "uint256"
        },
        {
          "internalType": "string",
          "name": "_tokenURI",
          "type": "string"
        },
        {
          "internalType": "bytes",
          "name": "_signature",
          "type": "bytes"
        }
      ],
      "name": "generateTurtle",
      "outputs": [],
      "stateMutability": "nonpayable",
      "type": "function"
    },
    {
      "inputs": [
        {
          "internalType": "uint256",
          "name": "_tokenId",
          "type": "uint256"
        }
      ],
      "name": "buyTurtle",
      "outputs": [],
      "stateMutability": "payable",
      "type": "function",
      "payable": true
    },
    {
      "inputs": [
        {
          "internalType": "uint256",
          "name": "_tokenId",
          "type": "uint256"
        },
        {
          "internalType": "uint256",
          "name": "_price",
          "type": "uint256"
        }
      ],
      "name": "putUpTurtleForSale",
      "outputs": [],
      "stateMutability": "nonpayable",
      "type": "function"
    },
    {
      "inputs": [
        {
          "internalType": "address",
          "name": "_walletAddress",
          "type": "address"
        }
      ],
      "name": "setSignedWalletAddress",
      "outputs": [],
      "stateMutability": "nonpayable",
      "type": "function"
    },
    {
      "inputs": [
        {
          "internalType": "uint256",
          "name": "_tokenId",
          "type": "uint256"
        },
        {
          "internalType": "string",
          "name": "_tokenURI",
          "type": "string"
        }
      ],
      "name": "updateTokenURI",
      "outputs": [],
      "stateMutability": "nonpayable",
      "type": "function"
    }
  ],
  "bytecode": "0x60806040523480156200001157600080fd5b506040518060400160405280600f81526020017f547572746c6543686172616374657200000000000000000000000000000000008152506040518060400160405280600481526020017f5452544c00000000000000000000000000000000000000000000000000000000815250620000966301ffc9a760e01b6200015960201b60201c565b8160069080519060200190620000ae92919062000262565b508060079080519060200190620000c792919062000262565b50620000e06380ac58cd60e01b6200015960201b60201c565b620000f8635b5e139f60e01b6200015960201b60201c565b6200011063780e9d6360e01b6200015960201b60201c565b505033600a60006101000a81548173ffffffffffffffffffffffffffffffffffffffff021916908373ffffffffffffffffffffffffffffffffffffffff16021790555062000311565b63ffffffff60e01b817bffffffffffffffffffffffffffffffffffffffffffffffffffffffff19161415620001f6576040517f08c379a000000000000000000000000000000000000000000000000000000000815260040180806020018281038252601c8152602001807f4552433136353a20696e76616c696420696e746572666163652069640000000081525060200191505060405180910390fd5b6001600080837bffffffffffffffffffffffffffffffffffffffffffffffffffffffff19167bffffffffffffffffffffffffffffffffffffffffffffffffffffffff1916815260200190815260200160002060006101000a81548160ff02191690831515021790555050565b828054600181600116156101000203166002900490600052602060002090601f016020900481019282601f10620002a557805160ff1916838001178555620002d6565b82800160010185558215620002d6579182015b82811115620002d5578251825591602001919060010190620002b8565b5b509050620002e59190620002e9565b5090565b6200030e91905b808211156200030a576000816000905550600101620002f0565b5090565b90565b61410a80620003216000396000f3fe60806040526004361061019b5760003560e01c80634f6ccce7116100ec578063a748efb21161008a578063ce606ee011610064578063ce606ee014610d5d578063e503cafa14610db4578063e985e9c514610e19578063f2044fe914610ea25761019b565b8063a748efb214610b48578063b88d4fde14610b97578063c87b56dd14610ca95761019b565b806370a08231116100c657806370a082311461088d5780638eb20a05146108f257806395d89b4114610a5b578063a22cb46514610aeb5761019b565b80634f6ccce7146107335780636352211e146107825780636c0360eb146107fd5761019b565b806318160ddd1161015957806323b872dd1161013357806323b872dd146105775780632f745c59146105f257806335f4ee691461066157806342842e0e146106b85761019b565b806318160ddd14610435578063184d9bb91461046057806318e97fd1146104a55761019b565b8062ce8e3e146101a057806301ffc9a71461020c57806306fdde031461027e578063081812fc1461030e578063095ea7b3146103895780630ce8a614146103e4575b600080fd5b3480156101ac57600080fd5b506101b5610ed0565b6040518080602001828103825283818151815260200191508051906020019060200280838360005b838110156101f85780820151818401526020810190506101dd565b505050509050019250505060405180910390f35b34801561021857600080fd5b506102646004803603602081101561022f57600080fd5b8101908080357bffffffffffffffffffffffffffffffffffffffffffffffffffffffff19169060200190929190505050610f5e565b604051808215151515815260200191505060405180910390f35b34801561028a57600080fd5b50610293610fc5565b6040518080602001828103825283818151815260200191508051906020019080838360005b838110156102d35780820151818401526020810190506102b8565b50505050905090810190601f1680156103005780820380516001836020036101000a031916815260200191505b509250505060405180910390f35b34801561031a57600080fd5b506103476004803603602081101561033157600080fd5b8101908080359060200190929190505050611067565b604051808273ffffffffffffffffffffffffffffffffffffffff1673ffffffffffffffffffffffffffffffffffffffff16815260200191505060405180910390f35b34801561039557600080fd5b506103e2600480360360408110156103ac57600080fd5b81019080803573ffffffffffffffffffffffffffffffffffffffff16906020019092919080359060200190929190505050611102565b005b3480156103f057600080fd5b506104336004803603602081101561040757600080fd5b81019080803573ffffffffffffffffffffffffffffffffffffffff169060200190929190505050611246565b005b34801561044157600080fd5b5061044a611330565b6040518082815260200191505060405180910390f35b34801561046c57600080fd5b506104a36004803603604081101561048357600080fd5b810190808035906020019092919080359060200190929190505050611341565b005b3480156104b157600080fd5b50610575600480360360408110156104c857600080fd5b8101908080359060200190929190803590602001906401000000008111156104ef57600080fd5b82018360208201111561050157600080fd5b8035906020019184600183028401116401000000008311171561052357600080fd5b91908080601f016020809104026020016040519081016040528093929190818152602001838380828437600081840152601f19601f8201169050808301925050505050505091929192905050506113fa565b005b34801561058357600080fd5b506105f06004803603606081101561059a57600080fd5b81019080803573ffffffffffffffffffffffffffffffffffffffff169060200190929190803573ffffffffffffffffffffffffffffffffffffffff169060200190929190803590602001909291905050506114ae565b005b3480156105fe57600080fd5b5061064b6004803603604081101561061557600080fd5b81019080803573ffffffffffffffffffffffffffffffffffffffff16906020019092919080359060200190929190505050611524565b6040518082815260200191505060405180910390f35b34801561066d57600080fd5b5061067661157f565b604051808273ffffffffffffffffffffffffffffffffffffffff1673ffffffffffffffffffffffffffffffffffffffff16815260200191505060405180910390f35b3480156106c457600080fd5b50610731600480360360608110156106db57600080fd5b81019080803573ffffffffffffffffffffffffffffffffffffffff169060200190929190803573ffffffffffffffffffffffffffffffffffffffff169060200190929190803590602001909291905050506115a5565b005b34801561073f57600080fd5b5061076c6004803603602081101561075657600080fd5b81019080803590602001909291905050506115c5565b6040518082815260200191505060405180910390f35b34801561078e57600080fd5b506107bb600480360360208110156107a557600080fd5b81019080803590602001909291905050506115e8565b604051808273ffffffffffffffffffffffffffffffffffffffff1673ffffffffffffffffffffffffffffffffffffffff16815260200191505060405180910390f35b34801561080957600080fd5b5061081261161f565b6040518080602001828103825283818151815260200191508051906020019080838360005b83811015610852578082015181840152602081019050610837565b50505050905090810190601f16801561087f5780820380516001836020036101000a031916815260200191505b509250505060405180910390f35b34801561089957600080fd5b506108dc600480360360208110156108b057600080fd5b81019080803573ffffffffffffffffffffffffffffffffffffffff1690602001909291905050506116c1565b6040518082815260200191505060405180910390f35b3480156108fe57600080fd5b50610a596004803603606081101561091557600080fd5b81019080803590602001909291908035906020019064010000000081111561093c57600080fd5b82018360208201111561094e57600080fd5b8035906020019184600183028401116401000000008311171561097057600080fd5b91908080601f016020809104026020016040519081016040528093929190818152602001838380828437600081840152601f19601f820116905080830192505050505050509192919290803590602001906401000000008111156109d357600080fd5b8201836020820111156109e557600080fd5b80359060200191846001830284011164010000000083111715610a0757600080fd5b91908080601f016020809104026020016040519081016040528093929190818152602001838380828437600081840152601f19601f820116905080830192505050505050509192919290505050611796565b005b348015610a6757600080fd5b50610a70611ba3565b6040518080602001828103825283818151815260200191508051906020019080838360005b83811015610ab0578082015181840152602081019050610a95565b50505050905090810190601f168015610add5780820380516001836020036101000a031916815260200191505b509250505060405180910390f35b348015610af757600080fd5b50610b4660048036036040811015610b0e57600080fd5b81019080803573ffffffffffffffffffffffffffffffffffffffff169060200190929190803515159060200190929190505050611c45565b005b348015610b5457600080fd5b50610b8160048036036020811015610b6b57600080fd5b8101908080359060200190929190505050611dfd565b6040518082815260200191505060405180910390f35b348015610ba357600080fd5b50610ca760048036036080811015610bba57600080fd5b81019080803573ffffffffffffffffffffffffffffffffffffffff169060200190929190803573ffffffffffffffffffffffffffffffffffffffff1690602001909291908035906020019092919080359060200190640100000000811115610c2157600080fd5b820183602082011115610c3357600080fd5b80359060200191846001830284011164010000000083111715610c5557600080fd5b91908080601f016020809104026020016040519081016040528093929190818152602001838380828437600081840152601f19601f820116905080830192505050505050509192919290505050611e15565b005b348015610cb557600080fd5b50610ce260048036036020811015610ccc57600080fd5b8101908080359060200190929190505050611e8d565b6040518080602001828103825283818151815260200191508051906020019080838360005b83811015610d22578082015181840152602081019050610d07565b50505050905090810190601f168015610d4f5780820380516001836020036101000a031916815260200191505b509250505060405180910390f35b348015610d6957600080fd5b50610d7261215e565b604051808273ffffffffffffffffffffffffffffffffffffffff1673ffffffffffffffffffffffffffffffffffffffff16815260200191505060405180910390f35b348015610dc057600080fd5b50610e0360048036036020811015610dd757600080fd5b81019080803573ffffffffffffffffffffffffffffffffffffffff169060200190929190505050612184565b6040518082815260200191505060405180910390f35b348015610e2557600080fd5b50610e8860048036036040811015610e3c57600080fd5b81019080803573ffffffffffffffffffffffffffffffffffffffff169060200190929190803573ffffffffffffffffffffffffffffffffffffffff16906020019092919050505061219c565b604051808215151515815260200191505060405180910390f35b610ece60048036036020811015610eb857600080fd5b8101908080359060200190929190505050612230565b005b6060600b805480602002602001604051908101604052809291908181526020018280548015610f5457602002820191906000526020600020905b8160009054906101000a900473ffffffffffffffffffffffffffffffffffffffff1673ffffffffffffffffffffffffffffffffffffffff1681526020019060010190808311610f0a575b5050505050905090565b6000806000837bffffffffffffffffffffffffffffffffffffffffffffffffffffffff19167bffffffffffffffffffffffffffffffffffffffffffffffffffffffff1916815260200190815260200160002060009054906101000a900460ff169050919050565b606060068054600181600116156101000203166002900480601f01602080910402602001604051908101604052809291908181526020018280546001816001161561010002031660029004801561105d5780601f106110325761010080835404028352916020019161105d565b820191906000526020600020905b81548152906001019060200180831161104057829003601f168201915b5050505050905090565b600061107282612488565b6110c7576040517f08c379a000000000000000000000000000000000000000000000000000000000815260040180806020018281038252602c815260200180613faf602c913960400191505060405180910390fd5b6004600083815260200190815260200160002060009054906101000a900473ffffffffffffffffffffffffffffffffffffffff169050919050565b600061110d826115e8565b90508073ffffffffffffffffffffffffffffffffffffffff168373ffffffffffffffffffffffffffffffffffffffff161415611194576040517f08c379a000000000000000000000000000000000000000000000000000000000815260040180806020018281038252602181526020018061405f6021913960400191505060405180910390fd5b8073ffffffffffffffffffffffffffffffffffffffff166111b36124a5565b73ffffffffffffffffffffffffffffffffffffffff1614806111e257506111e1816111dc6124a5565b61219c565b5b611237576040517f08c379a0000000000000000000000000000000000000000000000000000000008152600401808060200182810382526038815260200180613ee06038913960400191505060405180910390fd5b61124183836124ad565b505050565b600a60009054906101000a900473ffffffffffffffffffffffffffffffffffffffff1673ffffffffffffffffffffffffffffffffffffffff163373ffffffffffffffffffffffffffffffffffffffff16146112ec576040517f08c379a00000000000000000000000000000000000000000000000000000000081526004018080602001828103825260248152602001806140b16024913960400191505060405180910390fd5b80600c60006101000a81548173ffffffffffffffffffffffffffffffffffffffff021916908373ffffffffffffffffffffffffffffffffffffffff16021790555050565b600061133c6002612566565b905090565b61135261134c6124a5565b8361257b565b6113a7576040517f08c379a0000000000000000000000000000000000000000000000000000000008152600401808060200182810382526028815260200180613dcb6028913960400191505060405180910390fd5b80600d6000848152602001908152602001600020819055507f5cfd7981b7826a1543139612aae7cac778558e6d89d166a9d4b69423535fe087826040518082815260200191505060405180910390a15050565b600a60009054906101000a900473ffffffffffffffffffffffffffffffffffffffff1673ffffffffffffffffffffffffffffffffffffffff163373ffffffffffffffffffffffffffffffffffffffff16146114a0576040517f08c379a00000000000000000000000000000000000000000000000000000000081526004018080602001828103825260248152602001806140b16024913960400191505060405180910390fd5b6114aa828261266f565b5050565b6114bf6114b96124a5565b8261257b565b611514576040517f08c379a00000000000000000000000000000000000000000000000000000000081526004018080602001828103825260318152602001806140806031913960400191505060405180910390fd5b61151f8383836126f9565b505050565b600061157782600160008673ffffffffffffffffffffffffffffffffffffffff1673ffffffffffffffffffffffffffffffffffffffff16815260200190815260200160002061293c90919063ffffffff16565b905092915050565b600c60009054906101000a900473ffffffffffffffffffffffffffffffffffffffff1681565b6115c083838360405180602001604052806000815250611e15565b505050565b6000806115dc83600261295690919063ffffffff16565b50905080915050919050565b600061161882604051806060016040528060298152602001613f426029913960026129859092919063ffffffff16565b9050919050565b606060098054600181600116156101000203166002900480601f0160208091040260200160405190810160405280929190818152602001828054600181600116156101000203166002900480156116b75780601f1061168c576101008083540402835291602001916116b7565b820191906000526020600020905b81548152906001019060200180831161169a57829003601f168201915b5050505050905090565b60008073ffffffffffffffffffffffffffffffffffffffff168273ffffffffffffffffffffffffffffffffffffffff161415611748576040517f08c379a000000000000000000000000000000000000000000000000000000000815260040180806020018281038252602a815260200180613f18602a913960400191505060405180910390fd5b61178f600160008473ffffffffffffffffffffffffffffffffffffffff1673ffffffffffffffffffffffffffffffffffffffff1681526020019081526020016000206129a4565b9050919050565b60606117a1846129b9565b33604051602001808273ffffffffffffffffffffffffffffffffffffffff1673ffffffffffffffffffffffffffffffffffffffff1660601b8152601401915050604051602081830303815290604052846040516020018084805190602001908083835b602083106118275780518252602082019150602081019050602083039250611804565b6001836020036101000a03801982511681845116808217855250505050505090500183805190602001908083835b602083106118785780518252602082019150602081019050602083039250611855565b6001836020036101000a03801982511681845116808217855250505050505090500182805190602001908083835b602083106118c957805182526020820191506020810190506020830392506118a6565b6001836020036101000a038019825116818451168082178552505050505050905001935050505060405160208183030381529060405290506000816040516020018082805190602001908083835b6020831061193a5780518252602082019150602081019050602083039250611917565b6001836020036101000a0380198251168184511680821785525050505050509050019150506040516020818303038152906040528051906020012060405160200180807f19457468657265756d205369676e6564204d6573736167653a0a333200000000815250601c0182815260200191505060405160208183030381529060405280519060200120905060006119da8483612b0990919063ffffffff16565b9050600c60009054906101000a900473ffffffffffffffffffffffffffffffffffffffff1673ffffffffffffffffffffffffffffffffffffffff168173ffffffffffffffffffffffffffffffffffffffff1614611a9f576040517f08c379a00000000000000000000000000000000000000000000000000000000081526004018080602001828103825260118152602001807f496e76616c6964207369676e617475726500000000000000000000000000000081525060200191505060405180910390fd5b600e60003373ffffffffffffffffffffffffffffffffffffffff1673ffffffffffffffffffffffffffffffffffffffff168152602001908152602001600020548611611b36576040517f08c379a0000000000000000000000000000000000000000000000000000000008152600401808060200182810382526023815260200180613e256023913960400191505060405180910390fd5b611b408633612bb6565b60006001611b4c611330565b039050611b593382612caa565b611b63818761266f565b7f375888a712a23aa4f960c32984e16baf008be32cc52f7b9c12212feee89eb608816040518082815260200191505060405180910390a150505050505050565b606060078054600181600116156101000203166002900480601f016020809104026020016040519081016040528092919081815260200182805460018160011615610100020316600290048015611c3b5780601f10611c1057610100808354040283529160200191611c3b565b820191906000526020600020905b815481529060010190602001808311611c1e57829003601f168201915b5050505050905090565b611c4d6124a5565b73ffffffffffffffffffffffffffffffffffffffff168273ffffffffffffffffffffffffffffffffffffffff161415611cee576040517f08c379a00000000000000000000000000000000000000000000000000000000081526004018080602001828103825260198152602001807f4552433732313a20617070726f766520746f2063616c6c65720000000000000081525060200191505060405180910390fd5b8060056000611cfb6124a5565b73ffffffffffffffffffffffffffffffffffffffff1673ffffffffffffffffffffffffffffffffffffffff16815260200190815260200160002060008473ffffffffffffffffffffffffffffffffffffffff1673ffffffffffffffffffffffffffffffffffffffff16815260200190815260200160002060006101000a81548160ff0219169083151502179055508173ffffffffffffffffffffffffffffffffffffffff16611da86124a5565b73ffffffffffffffffffffffffffffffffffffffff167f17307eab39ab6107e8899845ad3d59bd9653f200f220920489ca2b5937696c3183604051808215151515815260200191505060405180910390a35050565b600d6020528060005260406000206000915090505481565b611e26611e206124a5565b8361257b565b611e7b576040517f08c379a00000000000000000000000000000000000000000000000000000000081526004018080602001828103825260318152602001806140806031913960400191505060405180910390fd5b611e8784848484612cc8565b50505050565b6060611e9882612488565b611eed576040517f08c379a000000000000000000000000000000000000000000000000000000000815260040180806020018281038252602f815260200180614030602f913960400191505060405180910390fd5b6060600860008481526020019081526020016000208054600181600116156101000203166002900480601f016020809104026020016040519081016040528092919081815260200182805460018160011615610100020316600290048015611f965780601f10611f6b57610100808354040283529160200191611f96565b820191906000526020600020905b815481529060010190602001808311611f7957829003601f168201915b505050505090506060611fa761161f565b9050600081511415611fbd578192505050612159565b60008251111561208e5780826040516020018083805190602001908083835b60208310611fff5780518252602082019150602081019050602083039250611fdc565b6001836020036101000a03801982511681845116808217855250505050505090500182805190602001908083835b60208310612050578051825260208201915060208101905060208303925061202d565b6001836020036101000a0380198251168184511680821785525050505050509050019250505060405160208183030381529060405292505050612159565b8061209885612d3a565b6040516020018083805190602001908083835b602083106120ce57805182526020820191506020810190506020830392506120ab565b6001836020036101000a03801982511681845116808217855250505050505090500182805190602001908083835b6020831061211f57805182526020820191506020810190506020830392506120fc565b6001836020036101000a03801982511681845116808217855250505050505090500192505050604051602081830303815290604052925050505b919050565b600a60009054906101000a900473ffffffffffffffffffffffffffffffffffffffff1681565b600e6020528060005260406000206000915090505481565b6000600560008473ffffffffffffffffffffffffffffffffffffffff1673ffffffffffffffffffffffffffffffffffffffff16815260200190815260200160002060008373ffffffffffffffffffffffffffffffffffffffff1673ffffffffffffffffffffffffffffffffffffffff16815260200190815260200160002060009054906101000a900460ff16905092915050565b6000600d600083815260200190815260200160002054116122b9576040517f08c379a00000000000000000000000000000000000000000000000000000000081526004018080602001828103825260208152602001807f54686520547572746c652073686f756c6420626520757020666f722073616c6581525060200191505060405180910390fd5b6000600d60008381526020019081526020016000205490506000600d60008481526020019081526020016000208190555060006122f5836115e8565b905081341161236c576040517f08c379a000000000000000000000000000000000000000000000000000000000815260040180806020018281038252601d8152602001807f596f75206e65656420746f206861766520656e6f75676820457468657200000081525060200191505060405180910390fd5b6123ad8133856040518060400160405280600c81526020017f427579206120547572746c650000000000000000000000000000000000000000815250612cc8565b60008190508073ffffffffffffffffffffffffffffffffffffffff166108fc849081150290604051600060405180830381858888f193505050501580156123f8573d6000803e3d6000fd5b508234111561244b573373ffffffffffffffffffffffffffffffffffffffff166108fc8434039081150290604051600060405180830381858888f19350505050158015612449573d6000803e3d6000fd5b505b7f8c78864e67a7dfb4ed185a3b2dad4a13fd8a7f807e84ecf1687eab5cb297676e846040518082815260200191505060405180910390a150505050565b600061249e826002612e8190919063ffffffff16565b9050919050565b600033905090565b816004600083815260200190815260200160002060006101000a81548173ffffffffffffffffffffffffffffffffffffffff021916908373ffffffffffffffffffffffffffffffffffffffff160217905550808273ffffffffffffffffffffffffffffffffffffffff16612520836115e8565b73ffffffffffffffffffffffffffffffffffffffff167f8c5be1e5ebec7d5bd14f71427d1e84f3dd0314c0f7b2291e5b200ac8c7c3b92560405160405180910390a45050565b600061257482600001612e9b565b9050919050565b600061258682612488565b6125db576040517f08c379a000000000000000000000000000000000000000000000000000000000815260040180806020018281038252602c815260200180613eb4602c913960400191505060405180910390fd5b60006125e6836115e8565b90508073ffffffffffffffffffffffffffffffffffffffff168473ffffffffffffffffffffffffffffffffffffffff16148061265557508373ffffffffffffffffffffffffffffffffffffffff1661263d84611067565b73ffffffffffffffffffffffffffffffffffffffff16145b806126665750612665818561219c565b5b91505092915050565b61267882612488565b6126cd576040517f08c379a000000000000000000000000000000000000000000000000000000000815260040180806020018281038252602c815260200180613fdb602c913960400191505060405180910390fd5b806008600084815260200190815260200160002090805190602001906126f4929190613d03565b505050565b8273ffffffffffffffffffffffffffffffffffffffff16612719826115e8565b73ffffffffffffffffffffffffffffffffffffffff1614612785576040517f08c379a00000000000000000000000000000000000000000000000000000000081526004018080602001828103825260298152602001806140076029913960400191505060405180910390fd5b600073ffffffffffffffffffffffffffffffffffffffff168273ffffffffffffffffffffffffffffffffffffffff16141561280b576040517f08c379a0000000000000000000000000000000000000000000000000000000008152600401808060200182810382526024815260200180613e486024913960400191505060405180910390fd5b612816838383612eac565b6128216000826124ad565b61287281600160008673ffffffffffffffffffffffffffffffffffffffff1673ffffffffffffffffffffffffffffffffffffffff168152602001908152602001600020612eb190919063ffffffff16565b506128c481600160008573ffffffffffffffffffffffffffffffffffffffff1673ffffffffffffffffffffffffffffffffffffffff168152602001908152602001600020612ecb90919063ffffffff16565b506128db81836002612ee59092919063ffffffff16565b50808273ffffffffffffffffffffffffffffffffffffffff168473ffffffffffffffffffffffffffffffffffffffff167fddf252ad1be2c89b69c2b068fc378daa952ba7f163c4a11628f55a4df523b3ef60405160405180910390a4505050565b600061294b8360000183612f1a565b60001c905092915050565b6000806000806129698660000186612f9d565b915091508160001c8160001c8090509350935050509250929050565b6000612998846000018460001b84613036565b60001c90509392505050565b60006129b28260000161312c565b9050919050565b60606000821415612a01576040518060400160405280600181526020017f30000000000000000000000000000000000000000000000000000000000000008152509050612b04565b600082905060005b60008214612a2b578080600101915050600a8281612a2357fe5b049150612a09565b60608167ffffffffffffffff81118015612a4457600080fd5b506040519080825280601f01601f191660200182016040528015612a775781602001600182028036833780820191505090505b50905060008290505b60008614612afc576001810390506000600a808881612a9b57fe5b04028703603001905060008160f81b905080848481518110612ab957fe5b60200101907effffffffffffffffffffffffffffffffffffffffffffffffffffffffffffff1916908160001a905350600a8881612af257fe5b0497505050612a80565b819450505050505b919050565b60006041825114612b82576040517f08c379a000000000000000000000000000000000000000000000000000000000815260040180806020018281038252601f8152602001807f45434453413a20696e76616c6964207369676e6174757265206c656e6774680081525060200191505060405180910390fd5b60008060006020850151925060408501519150606085015160001a9050612bab8682858561313d565b935050505092915050565b6000600e60008373ffffffffffffffffffffffffffffffffffffffff1673ffffffffffffffffffffffffffffffffffffffff168152602001908152602001600020541415612c6257600b819080600181540180825580915050600190039060005260206000200160009091909190916101000a81548173ffffffffffffffffffffffffffffffffffffffff021916908373ffffffffffffffffffffffffffffffffffffffff1602179055505b81600e60008373ffffffffffffffffffffffffffffffffffffffff1673ffffffffffffffffffffffffffffffffffffffff168152602001908152602001600020819055505050565b612cc482826040518060200160405280600081525061333f565b5050565b612cd38484846126f9565b612cdf848484846133b0565b612d34576040517f08c379a0000000000000000000000000000000000000000000000000000000008152600401808060200182810382526032815260200180613df36032913960400191505060405180910390fd5b50505050565b60606000821415612d82576040518060400160405280600181526020017f30000000000000000000000000000000000000000000000000000000000000008152509050612e7c565b600082905060005b60008214612dac578080600101915050600a8281612da457fe5b049150612d8a565b60608167ffffffffffffffff81118015612dc557600080fd5b506040519080825280601f01601f191660200182016040528015612df85781602001600182028036833780820191505090505b50905060006001830390508593505b60008414612e7457600a8481612e1957fe5b0660300160f81b82828060019003935081518110612e3357fe5b60200101907effffffffffffffffffffffffffffffffffffffffffffffffffffffffffffff1916908160001a905350600a8481612e6c57fe5b049350612e07565b819450505050505b919050565b6000612e93836000018360001b6135f5565b905092915050565b600081600001805490509050919050565b505050565b6000612ec3836000018360001b613618565b905092915050565b6000612edd836000018360001b613700565b905092915050565b6000612f11846000018460001b8473ffffffffffffffffffffffffffffffffffffffff1660001b613770565b90509392505050565b600081836000018054905011612f7b576040517f08c379a0000000000000000000000000000000000000000000000000000000008152600401808060200182810382526022815260200180613da96022913960400191505060405180910390fd5b826000018281548110612f8a57fe5b9060005260206000200154905092915050565b60008082846000018054905011612fff576040517f08c379a0000000000000000000000000000000000000000000000000000000008152600401808060200182810382526022815260200180613f8d6022913960400191505060405180910390fd5b600084600001848154811061301057fe5b906000526020600020906002020190508060000154816001015492509250509250929050565b600080846001016000858152602001908152602001600020549050600081141583906130fd576040517f08c379a00000000000000000000000000000000000000000000000000000000081526004018080602001828103825283818151815260200191508051906020019080838360005b838110156130c25780820151818401526020810190506130a7565b50505050905090810190601f1680156130ef5780820380516001836020036101000a031916815260200191505b509250505060405180910390fd5b5084600001600182038154811061311057fe5b9060005260206000209060020201600101549150509392505050565b600081600001805490509050919050565b60007f7fffffffffffffffffffffffffffffff5d576e7357a4501ddfe92f46681b20a08260001c11156131bb576040517f08c379a0000000000000000000000000000000000000000000000000000000008152600401808060200182810382526022815260200180613e6c6022913960400191505060405180910390fd5b601b8460ff1614806131d05750601c8460ff16145b613225576040517f08c379a0000000000000000000000000000000000000000000000000000000008152600401808060200182810382526022815260200180613f6b6022913960400191505060405180910390fd5b600060018686868660405160008152602001604052604051808581526020018460ff1660ff1681526020018381526020018281526020019450505050506020604051602081039080840390855afa158015613284573d6000803e3d6000fd5b505050602060405103519050600073ffffffffffffffffffffffffffffffffffffffff168173ffffffffffffffffffffffffffffffffffffffff161415613333576040517f08c379a00000000000000000000000000000000000000000000000000000000081526004018080602001828103825260188152602001807f45434453413a20696e76616c6964207369676e6174757265000000000000000081525060200191505060405180910390fd5b80915050949350505050565b613349838361384c565b61335660008484846133b0565b6133ab576040517f08c379a0000000000000000000000000000000000000000000000000000000008152600401808060200182810382526032815260200180613df36032913960400191505060405180910390fd5b505050565b60006133d18473ffffffffffffffffffffffffffffffffffffffff16613a40565b6133de57600190506135ed565b606061357463150b7a0260e01b6133f36124a5565b888787604051602401808573ffffffffffffffffffffffffffffffffffffffff1673ffffffffffffffffffffffffffffffffffffffff1681526020018473ffffffffffffffffffffffffffffffffffffffff1673ffffffffffffffffffffffffffffffffffffffff16815260200183815260200180602001828103825283818151815260200191508051906020019080838360005b838110156134a3578082015181840152602081019050613488565b50505050905090810190601f1680156134d05780820380516001836020036101000a031916815260200191505b5095505050505050604051602081830303815290604052907bffffffffffffffffffffffffffffffffffffffffffffffffffffffff19166020820180517bffffffffffffffffffffffffffffffffffffffffffffffffffffffff8381831617835250505050604051806060016040528060328152602001613df3603291398773ffffffffffffffffffffffffffffffffffffffff16613a539092919063ffffffff16565b9050600081806020019051602081101561358d57600080fd5b8101908080519060200190929190505050905063150b7a0260e01b7bffffffffffffffffffffffffffffffffffffffffffffffffffffffff1916817bffffffffffffffffffffffffffffffffffffffffffffffffffffffff191614925050505b949350505050565b600080836001016000848152602001908152602001600020541415905092915050565b600080836001016000848152602001908152602001600020549050600081146136f4576000600182039050600060018660000180549050039050600086600001828154811061366357fe5b906000526020600020015490508087600001848154811061368057fe5b90600052602060002001819055506001830187600101600083815260200190815260200160002081905550866000018054806136b857fe5b600190038181906000526020600020016000905590558660010160008781526020019081526020016000206000905560019450505050506136fa565b60009150505b92915050565b600061370c8383613a6b565b61376557826000018290806001815401808255809150506001900390600052602060002001600090919091909150558260000180549050836001016000848152602001908152602001600020819055506001905061376a565b600090505b92915050565b600080846001016000858152602001908152602001600020549050600081141561381757846000016040518060400160405280868152602001858152509080600181540180825580915050600190039060005260206000209060020201600090919091909150600082015181600001556020820151816001015550508460000180549050856001016000868152602001908152602001600020819055506001915050613845565b8285600001600183038154811061382a57fe5b90600052602060002090600202016001018190555060009150505b9392505050565b600073ffffffffffffffffffffffffffffffffffffffff168273ffffffffffffffffffffffffffffffffffffffff1614156138ef576040517f08c379a00000000000000000000000000000000000000000000000000000000081526004018080602001828103825260208152602001807f4552433732313a206d696e7420746f20746865207a65726f206164647265737381525060200191505060405180910390fd5b6138f881612488565b1561396b576040517f08c379a000000000000000000000000000000000000000000000000000000000815260040180806020018281038252601c8152602001807f4552433732313a20746f6b656e20616c7265616479206d696e7465640000000081525060200191505060405180910390fd5b61397760008383612eac565b6139c881600160008573ffffffffffffffffffffffffffffffffffffffff1673ffffffffffffffffffffffffffffffffffffffff168152602001908152602001600020612ecb90919063ffffffff16565b506139df81836002612ee59092919063ffffffff16565b50808273ffffffffffffffffffffffffffffffffffffffff16600073ffffffffffffffffffffffffffffffffffffffff167fddf252ad1be2c89b69c2b068fc378daa952ba7f163c4a11628f55a4df523b3ef60405160405180910390a45050565b600080823b905060008111915050919050565b6060613a628484600085613a8e565b90509392505050565b600080836001016000848152602001908152602001600020541415905092915050565b606082471015613ae9576040517f08c379a0000000000000000000000000000000000000000000000000000000008152600401808060200182810382526026815260200180613e8e6026913960400191505060405180910390fd5b613af285613a40565b613b64576040517f08c379a000000000000000000000000000000000000000000000000000000000815260040180806020018281038252601d8152602001807f416464726573733a2063616c6c20746f206e6f6e2d636f6e747261637400000081525060200191505060405180910390fd5b600060608673ffffffffffffffffffffffffffffffffffffffff1685876040518082805190602001908083835b60208310613bb45780518252602082019150602081019050602083039250613b91565b6001836020036101000a03801982511681845116808217855250505050505090500191505060006040518083038185875af1925050503d8060008114613c16576040519150601f19603f3d011682016040523d82523d6000602084013e613c1b565b606091505b5091509150613c2b828286613c37565b92505050949350505050565b60608315613c4757829050613cfc565b600083511115613c5a5782518084602001fd5b816040517f08c379a00000000000000000000000000000000000000000000000000000000081526004018080602001828103825283818151815260200191508051906020019080838360005b83811015613cc1578082015181840152602081019050613ca6565b50505050905090810190601f168015613cee5780820380516001836020036101000a031916815260200191505b509250505060405180910390fd5b9392505050565b828054600181600116156101000203166002900490600052602060002090601f016020900481019282601f10613d4457805160ff1916838001178555613d72565b82800160010185558215613d72579182015b82811115613d71578251825591602001919060010190613d56565b5b509050613d7f9190613d83565b5090565b613da591905b80821115613da1576000816000905550600101613d89565b5090565b9056fe456e756d657261626c655365743a20696e646578206f7574206f6620626f756e64734552433732313a2043616c6c6572206973206e6f74206f776e6572206e6f7220617070726f7665644552433732313a207472616e7366657220746f206e6f6e20455243373231526563656976657220696d706c656d656e746572416c7265616479206d696e74656420617420746869732073636f7265206265666f72654552433732313a207472616e7366657220746f20746865207a65726f206164647265737345434453413a20696e76616c6964207369676e6174757265202773272076616c7565416464726573733a20696e73756666696369656e742062616c616e636520666f722063616c6c4552433732313a206f70657261746f7220717565727920666f72206e6f6e6578697374656e7420746f6b656e4552433732313a20617070726f76652063616c6c6572206973206e6f74206f776e6572206e6f7220617070726f76656420666f7220616c6c4552433732313a2062616c616e636520717565727920666f7220746865207a65726f20616464726573734552433732313a206f776e657220717565727920666f72206e6f6e6578697374656e7420746f6b656e45434453413a20696e76616c6964207369676e6174757265202776272076616c7565456e756d657261626c654d61703a20696e646578206f7574206f6620626f756e64734552433732313a20617070726f76656420717565727920666f72206e6f6e6578697374656e7420746f6b656e4552433732314d657461646174613a2055524920736574206f66206e6f6e6578697374656e7420746f6b656e4552433732313a207472616e73666572206f6620746f6b656e2074686174206973206e6f74206f776e4552433732314d657461646174613a2055524920717565727920666f72206e6f6e6578697374656e7420746f6b656e4552433732313a20617070726f76616c20746f2063757272656e74206f776e65724552433732313a207472616e736665722063616c6c6572206973206e6f74206f776e6572206e6f7220617070726f7665645468652063616c6c6572206973206e6f742074686520636f6e7472616374206f776e6572a2646970667358221220388f5e011916118d39f296eafc3afd50927d6e8dcb7fa87b464040d76ea11c0e64736f6c63430006060033",
  "immutableReferences": {},
  "source": "// SPDX-License-Identifier: MIT\npragma solidity ^0.6.6;\n\nimport \"@openzeppelin/contracts/token/ERC721/ERC721.sol\";\nimport \"@openzeppelin/contracts/cryptography/ECDSA.sol\";\n\ncontract Turtis is ERC721 {\n  using ECDSA for bytes32;\n\n  address public contractOwner; // Owner of this contract\n\n  address[] private users; // Address array to store all the users\n\n  address public signedWalletAddress;\n\n  // Mapping from Token ID to Price\n  mapping(uint256 => uint256) public turtlesForSale;\n\n  // Mapping from User address to high score\n  mapping(address => uint256) public userAddressToHighScore;\n\n  // Events\n\n  // Emitted when a new Turtle is generated after reaching a new checkpoint in the game\n  event NewTurtleGenerated(uint256 tokenId);\n\n  // Emitted when the data received from the API is successful\n  event DataReceivedFromAPI(string ipfsLink);\n\n  // Emitted when a turtle is bought\n  event TurtleBought(uint256 tokenId);\n\n  // Emitted when a turtle is put up for sale\n  event TurtleUpForSale(uint256 tokenId);\n\n  // Contructor is called when an instance of 'TurtleCharacter' contract is deployed\n  constructor() public ERC721(\"TurtleCharacter\", \"TRTL\") {\n    contractOwner = msg.sender;\n  }\n\n  // Modifer that checks to see if msg.sender == contractOwner\n  modifier onlyContractOwner() {\n    require(\n      msg.sender == contractOwner,\n      \"The caller is not the contract owner\"\n    );\n    _;\n  }\n\n  // Function 'getUsers' returns the address array of users\n  function getUsers() public view returns (address[] memory) {\n    return users;\n  }\n\n  // Function 'setHighScore' sets a new highScore for the user\n  function setHighScore(uint256 _newHighScore, address _sender) internal {\n    if (userAddressToHighScore[_sender] == 0) {\n      users.push(_sender);\n    }\n    userAddressToHighScore[_sender] = _newHighScore;\n  }\n\n  // Function 'generateTurtle' mints a new Turtle NFT for the user\n  function generateTurtle(\n    uint256 _score,\n    string memory _tokenURI,\n    bytes memory _signature\n  ) public {\n    string memory message = string(\n      abi.encodePacked(\n        uint2str(_score),\n        string(abi.encodePacked(msg.sender)),\n        _tokenURI\n      )\n    );\n\n    bytes32 hash = keccak256(\n      abi.encodePacked(\n        \"\\x19Ethereum Signed Message:\\n32\",\n        keccak256(abi.encodePacked(message))\n      )\n    );\n    address walletAddress = hash.recover(_signature);\n    require(walletAddress == signedWalletAddress, \"Invalid signature\");\n    require(\n      _score > userAddressToHighScore[msg.sender],\n      \"Already minted at this score before\"\n    );\n    setHighScore(_score, msg.sender);\n    uint256 lastTokenId = totalSupply() - 1;\n    _safeMint(msg.sender, lastTokenId);\n    _setTokenURI(lastTokenId, _tokenURI);\n\n    emit NewTurtleGenerated(lastTokenId);\n  }\n\n  // Function 'buyTurtle' allows anyone to buy a turtle that is put up for sale\n  function buyTurtle(uint256 _tokenId) public payable {\n    require(turtlesForSale[_tokenId] > 0, \"The Turtle should be up for sale\");\n\n    uint256 turtleCost = turtlesForSale[_tokenId];\n    turtlesForSale[_tokenId] = 0;\n\n    address ownerAddress = ownerOf(_tokenId);\n    require(msg.value > turtleCost, \"You need to have enough Ether\");\n\n    _safeTransfer(ownerAddress, msg.sender, _tokenId, bytes(\"Buy a Turtle\")); // ERC721 Token is safely transferred using this function call\n\n    address payable ownerAddressPayable = payable(ownerAddress);\n    ownerAddressPayable.transfer(turtleCost);\n    if (msg.value > turtleCost) {\n      payable(msg.sender).transfer(msg.value - turtleCost); // Excess Ether is returned back to the buyer\n    }\n\n    emit TurtleBought(_tokenId);\n  }\n\n  // Function 'putUpTurtleForSale' allows a turtle owner to put it up for sale\n  function putUpTurtleForSale(uint256 _tokenId, uint256 _price) public {\n    require(\n      _isApprovedOrOwner(_msgSender(), _tokenId),\n      \"ERC721: Caller is not owner nor approved\"\n    );\n    turtlesForSale[_tokenId] = _price;\n\n    emit TurtleUpForSale(_tokenId);\n  }\n\n  // Function 'setTokenURI' sets the Token URI for the ERC721 standard token\n  function setTokenURI(string memory _tokenURI) private {\n    uint256 lastTokenId = totalSupply() - 1;\n    _setTokenURI(lastTokenId, _tokenURI);\n  }\n\n  // Function 'setSignedWalletAddress' sets the address of the wallet that signs the minting of the Turtle NFT\n  function setSignedWalletAddress(address _walletAddress)\n    public\n    onlyContractOwner\n  {\n    signedWalletAddress = _walletAddress;\n  }\n\n  // Function 'uint2str' converts a uint256 variable to a string variable\n  function uint2str(uint256 _i)\n    internal\n    pure\n    returns (string memory _uintAsString)\n  {\n    if (_i == 0) {\n      return \"0\";\n    }\n    uint256 j = _i;\n    uint256 len;\n    while (j != 0) {\n      len++;\n      j /= 10;\n    }\n    bytes memory bstr = new bytes(len);\n    uint256 k = len;\n    while (_i != 0) {\n      k = k - 1;\n      uint8 temp = (48 + uint8(_i - (_i / 10) * 10));\n      bytes1 b1 = bytes1(temp);\n      bstr[k] = b1;\n      _i /= 10;\n    }\n    return string(bstr);\n  }\n\n  // Function 'updateTokenURI' updates the Token URI for a specific Token\n  function updateTokenURI(uint256 _tokenId, string memory _tokenURI)\n    public\n    onlyContractOwner\n  {\n    _setTokenURI(_tokenId, _tokenURI);\n  }\n}\n",
  "sourcePath": "/mnt/c/Users/dines/downloads/nft-game/truffle/contracts/Turtis.sol",
  "compiler": {
    "name": "solc",
    "version": "0.6.6+commit.6c089d02.Emscripten.clang"
  },
  "schemaVersion": "3.4.1",
  "updatedAt": "2021-11-10T14:09:24.186Z",
  "networkType": "ethereum",
  "devdoc": {
    "methods": {
      "approve(address,uint256)": {
        "details": "See {IERC721-approve}."
      },
      "balanceOf(address)": {
        "details": "See {IERC721-balanceOf}."
      },
      "baseURI()": {
        "details": "Returns the base URI set via {_setBaseURI}. This will be automatically added as a prefix in {tokenURI} to each token's URI, or to the token ID if no specific URI is set for that token ID."
      },
      "getApproved(uint256)": {
        "details": "See {IERC721-getApproved}."
      },
      "isApprovedForAll(address,address)": {
        "details": "See {IERC721-isApprovedForAll}."
      },
      "name()": {
        "details": "See {IERC721Metadata-name}."
      },
      "ownerOf(uint256)": {
        "details": "See {IERC721-ownerOf}."
      },
      "safeTransferFrom(address,address,uint256)": {
        "details": "See {IERC721-safeTransferFrom}."
      },
      "safeTransferFrom(address,address,uint256,bytes)": {
        "details": "See {IERC721-safeTransferFrom}."
      },
      "setApprovalForAll(address,bool)": {
        "details": "See {IERC721-setApprovalForAll}."
      },
      "supportsInterface(bytes4)": {
        "details": "See {IERC165-supportsInterface}.     * Time complexity O(1), guaranteed to always use less than 30 000 gas."
      },
      "symbol()": {
        "details": "See {IERC721Metadata-symbol}."
      },
      "tokenByIndex(uint256)": {
        "details": "See {IERC721Enumerable-tokenByIndex}."
      },
      "tokenOfOwnerByIndex(address,uint256)": {
        "details": "See {IERC721Enumerable-tokenOfOwnerByIndex}."
      },
      "tokenURI(uint256)": {
        "details": "See {IERC721Metadata-tokenURI}."
      },
      "totalSupply()": {
        "details": "See {IERC721Enumerable-totalSupply}."
      },
      "transferFrom(address,address,uint256)": {
        "details": "See {IERC721-transferFrom}."
      }
    }
  },
  "userdoc": {
    "methods": {}
  }
}