{
  "contractName": "Turtis",
  "abi": [
    {
      "inputs": [
        {
          "internalType": "address",
          "name": "marketplaceAddress",
          "type": "address"
        }
      ],
      "stateMutability": "nonpayable",
      "type": "constructor"
    },
    {
      "anonymous": false,
      "inputs": [
        {
          "indexed": true,
          "internalType": "address",
          "name": "owner",
          "type": "address"
        },
        {
          "indexed": true,
          "internalType": "address",
          "name": "approved",
          "type": "address"
        },
        {
          "indexed": true,
          "internalType": "uint256",
          "name": "tokenId",
          "type": "uint256"
        }
      ],
      "name": "Approval",
      "type": "event"
    },
    {
      "anonymous": false,
      "inputs": [
        {
          "indexed": true,
          "internalType": "address",
          "name": "owner",
          "type": "address"
        },
        {
          "indexed": true,
          "internalType": "address",
          "name": "operator",
          "type": "address"
        },
        {
          "indexed": false,
          "internalType": "bool",
          "name": "approved",
          "type": "bool"
        }
      ],
      "name": "ApprovalForAll",
      "type": "event"
    },
    {
      "anonymous": false,
      "inputs": [
        {
          "indexed": false,
          "internalType": "uint256",
          "name": "tokenId",
          "type": "uint256"
        }
      ],
      "name": "NewTurtleGenerated",
      "type": "event"
    },
    {
      "anonymous": false,
      "inputs": [
        {
          "indexed": true,
          "internalType": "address",
          "name": "from",
          "type": "address"
        },
        {
          "indexed": true,
          "internalType": "address",
          "name": "to",
          "type": "address"
        },
        {
          "indexed": true,
          "internalType": "uint256",
          "name": "tokenId",
          "type": "uint256"
        }
      ],
      "name": "Transfer",
      "type": "event"
    },
    {
      "anonymous": false,
      "inputs": [
        {
          "indexed": false,
          "internalType": "uint256",
          "name": "tokenId",
          "type": "uint256"
        }
      ],
      "name": "TurtleBought",
      "type": "event"
    },
    {
      "anonymous": false,
      "inputs": [
        {
          "indexed": false,
          "internalType": "uint256",
          "name": "tokenId",
          "type": "uint256"
        }
      ],
      "name": "TurtleUpForSale",
      "type": "event"
    },
    {
      "anonymous": false,
      "inputs": [
        {
          "indexed": false,
          "internalType": "uint256",
          "name": "tokenId",
          "type": "uint256"
        }
      ],
      "name": "TurtleUpgraded",
      "type": "event"
    },
    {
      "inputs": [
        {
          "internalType": "address",
          "name": "to",
          "type": "address"
        },
        {
          "internalType": "uint256",
          "name": "tokenId",
          "type": "uint256"
        }
      ],
      "name": "approve",
      "outputs": [],
      "stateMutability": "nonpayable",
      "type": "function"
    },
    {
      "inputs": [
        {
          "internalType": "address",
          "name": "owner",
          "type": "address"
        }
      ],
      "name": "balanceOf",
      "outputs": [
        {
          "internalType": "uint256",
          "name": "",
          "type": "uint256"
        }
      ],
      "stateMutability": "view",
      "type": "function",
      "constant": true
    },
    {
      "inputs": [],
      "name": "contractOwner",
      "outputs": [
        {
          "internalType": "address payable",
          "name": "",
          "type": "address"
        }
      ],
      "stateMutability": "view",
      "type": "function",
      "constant": true
    },
    {
      "inputs": [
        {
          "internalType": "uint256",
          "name": "tokenId",
          "type": "uint256"
        }
      ],
      "name": "getApproved",
      "outputs": [
        {
          "internalType": "address",
          "name": "",
          "type": "address"
        }
      ],
      "stateMutability": "view",
      "type": "function",
      "constant": true
    },
    {
      "inputs": [
        {
          "internalType": "address",
          "name": "owner",
          "type": "address"
        },
        {
          "internalType": "address",
          "name": "operator",
          "type": "address"
        }
      ],
      "name": "isApprovedForAll",
      "outputs": [
        {
          "internalType": "bool",
          "name": "",
          "type": "bool"
        }
      ],
      "stateMutability": "view",
      "type": "function",
      "constant": true
    },
    {
      "inputs": [],
      "name": "name",
      "outputs": [
        {
          "internalType": "string",
          "name": "",
          "type": "string"
        }
      ],
      "stateMutability": "view",
      "type": "function",
      "constant": true
    },
    {
      "inputs": [
        {
          "internalType": "uint256",
          "name": "tokenId",
          "type": "uint256"
        }
      ],
      "name": "ownerOf",
      "outputs": [
        {
          "internalType": "address",
          "name": "",
          "type": "address"
        }
      ],
      "stateMutability": "view",
      "type": "function",
      "constant": true
    },
    {
      "inputs": [
        {
          "internalType": "address",
          "name": "from",
          "type": "address"
        },
        {
          "internalType": "address",
          "name": "to",
          "type": "address"
        },
        {
          "internalType": "uint256",
          "name": "tokenId",
          "type": "uint256"
        }
      ],
      "name": "safeTransferFrom",
      "outputs": [],
      "stateMutability": "nonpayable",
      "type": "function"
    },
    {
      "inputs": [
        {
          "internalType": "address",
          "name": "from",
          "type": "address"
        },
        {
          "internalType": "address",
          "name": "to",
          "type": "address"
        },
        {
          "internalType": "uint256",
          "name": "tokenId",
          "type": "uint256"
        },
        {
          "internalType": "bytes",
          "name": "_data",
          "type": "bytes"
        }
      ],
      "name": "safeTransferFrom",
      "outputs": [],
      "stateMutability": "nonpayable",
      "type": "function"
    },
    {
      "inputs": [
        {
          "internalType": "address",
          "name": "operator",
          "type": "address"
        },
        {
          "internalType": "bool",
          "name": "approved",
          "type": "bool"
        }
      ],
      "name": "setApprovalForAll",
      "outputs": [],
      "stateMutability": "nonpayable",
      "type": "function"
    },
    {
      "inputs": [],
      "name": "signedWalletAddress",
      "outputs": [
        {
          "internalType": "address",
          "name": "",
          "type": "address"
        }
      ],
      "stateMutability": "view",
      "type": "function",
      "constant": true
    },
    {
      "inputs": [
        {
          "internalType": "bytes4",
          "name": "interfaceId",
          "type": "bytes4"
        }
      ],
      "name": "supportsInterface",
      "outputs": [
        {
          "internalType": "bool",
          "name": "",
          "type": "bool"
        }
      ],
      "stateMutability": "view",
      "type": "function",
      "constant": true
    },
    {
      "inputs": [],
      "name": "symbol",
      "outputs": [
        {
          "internalType": "string",
          "name": "",
          "type": "string"
        }
      ],
      "stateMutability": "view",
      "type": "function",
      "constant": true
    },
    {
      "inputs": [
        {
          "internalType": "uint256",
          "name": "tokenId",
          "type": "uint256"
        }
      ],
      "name": "tokenURI",
      "outputs": [
        {
          "internalType": "string",
          "name": "",
          "type": "string"
        }
      ],
      "stateMutability": "view",
      "type": "function",
      "constant": true
    },
    {
      "inputs": [
        {
          "internalType": "address",
          "name": "from",
          "type": "address"
        },
        {
          "internalType": "address",
          "name": "to",
          "type": "address"
        },
        {
          "internalType": "uint256",
          "name": "tokenId",
          "type": "uint256"
        }
      ],
      "name": "transferFrom",
      "outputs": [],
      "stateMutability": "nonpayable",
      "type": "function"
    },
    {
      "inputs": [
        {
          "internalType": "address",
          "name": "",
          "type": "address"
        }
      ],
      "name": "userAddressToHighScore",
      "outputs": [
        {
          "internalType": "uint256",
          "name": "",
          "type": "uint256"
        }
      ],
      "stateMutability": "view",
      "type": "function",
      "constant": true
    },
    {
      "inputs": [],
      "name": "totalSupply",
      "outputs": [
        {
          "internalType": "uint256",
          "name": "",
          "type": "uint256"
        }
      ],
      "stateMutability": "view",
      "type": "function",
      "constant": true
    },
    {
      "inputs": [
        {
          "internalType": "address",
          "name": "_contractAddress",
          "type": "address"
        }
      ],
      "name": "setMarketContractAddress",
      "outputs": [],
      "stateMutability": "nonpayable",
      "type": "function"
    },
    {
      "inputs": [],
      "name": "getUsers",
      "outputs": [
        {
          "internalType": "address[]",
          "name": "",
          "type": "address[]"
        }
      ],
      "stateMutability": "view",
      "type": "function",
      "constant": true
    },
    {
      "inputs": [
        {
          "internalType": "uint256",
          "name": "_score",
          "type": "uint256"
        },
        {
          "internalType": "string",
          "name": "_tokenURI",
          "type": "string"
        },
        {
          "internalType": "bytes",
          "name": "_signature",
          "type": "bytes"
        }
      ],
      "name": "generateTurtle",
      "outputs": [],
      "stateMutability": "nonpayable",
      "type": "function"
    },
    {
      "inputs": [
        {
          "internalType": "uint256",
          "name": "_score",
          "type": "uint256"
        },
        {
          "internalType": "string",
          "name": "_tokenURI",
          "type": "string"
        },
        {
          "internalType": "bytes",
          "name": "_signature",
          "type": "bytes"
        },
        {
          "internalType": "uint256",
          "name": "_tokenId",
          "type": "uint256"
        }
      ],
      "name": "upgradeTurtle",
      "outputs": [],
      "stateMutability": "nonpayable",
      "type": "function"
    },
    {
      "inputs": [
        {
          "internalType": "address",
          "name": "_walletAddress",
          "type": "address"
        }
      ],
      "name": "setSignedWalletAddress",
      "outputs": [],
      "stateMutability": "nonpayable",
      "type": "function"
    },
    {
      "inputs": [
        {
          "internalType": "uint256",
          "name": "_tokenId",
          "type": "uint256"
        },
        {
          "internalType": "string",
          "name": "_tokenURI",
          "type": "string"
        }
      ],
      "name": "updateTokenURI",
      "outputs": [],
      "stateMutability": "nonpayable",
      "type": "function"
    },
    {
      "inputs": [
        {
          "internalType": "address",
          "name": "_user",
          "type": "address"
        }
      ],
      "name": "getBalanceOfUser",
      "outputs": [
        {
          "internalType": "uint256",
          "name": "",
          "type": "uint256"
        }
      ],
      "stateMutability": "view",
      "type": "function",
      "constant": true
    },
    {
      "inputs": [
        {
          "internalType": "address",
          "name": "_user",
          "type": "address"
        }
      ],
      "name": "getUserOwnedNFTs",
      "outputs": [
        {
          "components": [
            {
              "internalType": "uint256",
              "name": "tokenId",
              "type": "uint256"
            },
            {
              "internalType": "string",
              "name": "tokenURI",
              "type": "string"
            }
          ],
          "internalType": "struct Turtis.NFTItem[]",
          "name": "",
          "type": "tuple[]"
        }
      ],
      "stateMutability": "view",
      "type": "function",
      "constant": true
    },
    {
      "inputs": [],
      "name": "getAllNFTs",
      "outputs": [
        {
          "components": [
            {
              "internalType": "uint256",
              "name": "tokenId",
              "type": "uint256"
            },
            {
              "internalType": "string",
              "name": "tokenURI",
              "type": "string"
            }
          ],
          "internalType": "struct Turtis.NFTItem[]",
          "name": "",
          "type": "tuple[]"
        }
      ],
      "stateMutability": "view",
      "type": "function",
      "constant": true
    }
  ],
  "bytecode": "0x60806040523480156200001157600080fd5b50604051620050a1380380620050a183398181016040528101906200003791906200022f565b6040518060400160405280600f81526020017f547572746c6543686172616374657200000000000000000000000000000000008152506040518060400160405280600481526020017f5452544c000000000000000000000000000000000000000000000000000000008152508160009080519060200190620000bb92919062000168565b508060019080519060200190620000d492919062000168565b505050600160078190555033600960006101000a81548173ffffffffffffffffffffffffffffffffffffffff021916908373ffffffffffffffffffffffffffffffffffffffff16021790555080600a60006101000a81548173ffffffffffffffffffffffffffffffffffffffff021916908373ffffffffffffffffffffffffffffffffffffffff160217905550506200030e565b82805462000176906200028f565b90600052602060002090601f0160209004810192826200019a5760008555620001e6565b82601f10620001b557805160ff1916838001178555620001e6565b82800160010185558215620001e6579182015b82811115620001e5578251825591602001919060010190620001c8565b5b509050620001f59190620001f9565b5090565b5b8082111562000214576000816000905550600101620001fa565b5090565b6000815190506200022981620002f4565b92915050565b6000602082840312156200024257600080fd5b6000620002528482850162000218565b91505092915050565b600062000268826200026f565b9050919050565b600073ffffffffffffffffffffffffffffffffffffffff82169050919050565b60006002820490506001821680620002a857607f821691505b60208210811415620002bf57620002be620002c5565b5b50919050565b7f4e487b7100000000000000000000000000000000000000000000000000000000600052602260045260246000fd5b620002ff816200025b565b81146200030b57600080fd5b50565b614d83806200031e6000396000f3fe608060405234801561001057600080fd5b506004361061018d5760003560e01c806345909a6f116100de578063b88d4fde11610097578063ce606ee011610071578063ce606ee014610490578063e0391b09146104ae578063e503cafa146104cc578063e985e9c5146104fc5761018d565b8063b88d4fde14610428578063c73358de14610444578063c87b56dd146104605761018d565b806345909a6f146103425780636352211e1461037257806370a08231146103a25780638eb20a05146103d257806395d89b41146103ee578063a22cb4651461040c5761018d565b80630ce8a6141161014b57806323b872dd1161012557806323b872dd146102d05780632d9f0dd0146102ec57806335f4ee691461030857806342842e0e146103265761018d565b80630ce8a6141461027a57806318160ddd1461029657806318e97fd1146102b45761018d565b8062ce8e3e1461019257806301ffc9a7146101b05780630335b5af146101e057806306fdde0314610210578063081812fc1461022e578063095ea7b31461025e575b600080fd5b61019a61052c565b6040516101a79190613d2c565b60405180910390f35b6101ca60048036038101906101c591906133b5565b6105ba565b6040516101d79190613d70565b60405180910390f35b6101fa60048036038101906101f5919061320e565b61069c565b6040516102079190613d4e565b60405180910390f35b6102186108a8565b6040516102259190613dd0565b60405180910390f35b61024860048036038101906102439190613407565b61093a565b6040516102559190613caa565b60405180910390f35b61027860048036038101906102739190613379565b6109bf565b005b610294600480360381019061028f919061320e565b610ad7565b005b61029e610bab565b6040516102ab91906140f2565b60405180910390f35b6102ce60048036038101906102c99190613430565b610bbc565b005b6102ea60048036038101906102e59190613273565b610cac565b005b61030660048036038101906103019190613503565b610d0c565b005b610310610fda565b60405161031d9190613caa565b60405180910390f35b610340600480360381019061033b9190613273565b611000565b005b61035c6004803603810190610357919061320e565b611020565b60405161036991906140f2565b60405180910390f35b61038c60048036038101906103879190613407565b611032565b6040516103999190613caa565b60405180910390f35b6103bc60048036038101906103b7919061320e565b6110e4565b6040516103c991906140f2565b60405180910390f35b6103ec60048036038101906103e79190613484565b61119c565b005b6103f66114ad565b6040516104039190613dd0565b60405180910390f35b6104266004803603810190610421919061333d565b61153f565b005b610442600480360381019061043d91906132c2565b611555565b005b61045e6004803603810190610459919061320e565b6115b7565b005b61047a60048036038101906104759190613407565b61168b565b6040516104879190613dd0565b60405180910390f35b6104986117dd565b6040516104a59190613cc5565b60405180910390f35b6104b6611803565b6040516104c39190613d4e565b60405180910390f35b6104e660048036038101906104e1919061320e565b6119ba565b6040516104f391906140f2565b60405180910390f35b61051660048036038101906105119190613237565b6119d2565b6040516105239190613d70565b60405180910390f35b6060600b8054806020026020016040519081016040528092919081815260200182805480156105b057602002820191906000526020600020905b8160009054906101000a900473ffffffffffffffffffffffffffffffffffffffff1673ffffffffffffffffffffffffffffffffffffffff1681526020019060010190808311610566575b5050505050905090565b60007f80ac58cd000000000000000000000000000000000000000000000000000000007bffffffffffffffffffffffffffffffffffffffffffffffffffffffff1916827bffffffffffffffffffffffffffffffffffffffffffffffffffffffff1916148061068557507f5b5e139f000000000000000000000000000000000000000000000000000000007bffffffffffffffffffffffffffffffffffffffffffffffffffffffff1916827bffffffffffffffffffffffffffffffffffffffffffffffffffffffff1916145b80610695575061069482611a66565b5b9050919050565b606060006106a983611020565b67ffffffffffffffff8111156106e8577f4e487b7100000000000000000000000000000000000000000000000000000000600052604160045260246000fd5b60405190808252806020026020018201604052801561072157816020015b61070e613018565b8152602001906001900390816107065790505b509050600061072e610bab565b90506000805b8281101561089c578573ffffffffffffffffffffffffffffffffffffffff1661075c82611032565b73ffffffffffffffffffffffffffffffffffffffff161415610889576000600e6000838152602001908152602001600020905080604051806040016040529081600082015481526020016001820180546107b590614485565b80601f01602080910402602001604051908101604052809291908181526020018280546107e190614485565b801561082e5780601f106108035761010080835404028352916020019161082e565b820191906000526020600020905b81548152906001019060200180831161081157829003601f168201915b505050505081525050858480610843906144e8565b95508151811061087c577f4e487b7100000000000000000000000000000000000000000000000000000000600052603260045260246000fd5b6020026020010181905250505b8080610894906144e8565b915050610734565b50829350505050919050565b6060600080546108b790614485565b80601f01602080910402602001604051908101604052809291908181526020018280546108e390614485565b80156109305780601f1061090557610100808354040283529160200191610930565b820191906000526020600020905b81548152906001019060200180831161091357829003601f168201915b5050505050905090565b600061094582611ad0565b610984576040517f08c379a000000000000000000000000000000000000000000000000000000000815260040161097b90614012565b60405180910390fd5b6004600083815260200190815260200160002060009054906101000a900473ffffffffffffffffffffffffffffffffffffffff169050919050565b60006109ca82611032565b90508073ffffffffffffffffffffffffffffffffffffffff168373ffffffffffffffffffffffffffffffffffffffff161415610a3b576040517f08c379a0000000000000000000000000000000000000000000000000000000008152600401610a3290614072565b60405180910390fd5b8073ffffffffffffffffffffffffffffffffffffffff16610a5a611b3c565b73ffffffffffffffffffffffffffffffffffffffff161480610a895750610a8881610a83611b3c565b6119d2565b5b610ac8576040517f08c379a0000000000000000000000000000000000000000000000000000000008152600401610abf90613f32565b60405180910390fd5b610ad28383611b44565b505050565b600960009054906101000a900473ffffffffffffffffffffffffffffffffffffffff1673ffffffffffffffffffffffffffffffffffffffff163373ffffffffffffffffffffffffffffffffffffffff1614610b67576040517f08c379a0000000000000000000000000000000000000000000000000000000008152600401610b5e906140b2565b60405180910390fd5b80600c60006101000a81548173ffffffffffffffffffffffffffffffffffffffff021916908373ffffffffffffffffffffffffffffffffffffffff16021790555050565b6000610bb76008611bfd565b905090565b600960009054906101000a900473ffffffffffffffffffffffffffffffffffffffff1673ffffffffffffffffffffffffffffffffffffffff163373ffffffffffffffffffffffffffffffffffffffff1614610c4c576040517f08c379a0000000000000000000000000000000000000000000000000000000008152600401610c43906140b2565b60405180910390fd5b610c568282611c0b565b604051806040016040528083815260200182815250600e6000848152602001908152602001600020600082015181600001556020820151816001019080519060200190610ca4929190613032565b509050505050565b610cbd610cb7611b3c565b82611c7f565b610cfc576040517f08c379a0000000000000000000000000000000000000000000000000000000008152600401610cf390614092565b60405180910390fd5b610d07838383611d5d565b505050565b60026007541415610d52576040517f08c379a0000000000000000000000000000000000000000000000000000000008152600401610d49906140d2565b60405180910390fd5b60026007819055506000610d6585611fb9565b33604051602001610d769190613bbf565b60405160208183030381529060405285610d8f85611fb9565b604051602001610da29493929190613c46565b6040516020818303038152906040529050600081604051602001610dc69190613bda565b60405160208183030381529060405280519060200120604051602001610dec9190613c84565b6040516020818303038152906040528051906020012090506000610e19858361218e90919063ffffffff16565b9050600c60009054906101000a900473ffffffffffffffffffffffffffffffffffffffff1673ffffffffffffffffffffffffffffffffffffffff168173ffffffffffffffffffffffffffffffffffffffff1614610eab576040517f08c379a0000000000000000000000000000000000000000000000000000000008152600401610ea290613ed2565b60405180910390fd5b600d60003373ffffffffffffffffffffffffffffffffffffffff1673ffffffffffffffffffffffffffffffffffffffff168152602001908152602001600020548711610f2c576040517f08c379a0000000000000000000000000000000000000000000000000000000008152600401610f2390613e52565b60405180910390fd5b610f3687336121b5565b610f408487611c0b565b604051806040016040528085815260200187815250600e6000868152602001908152602001600020600082015181600001556020820151816001019080519060200190610f8e929190613032565b509050507f56f213350901e1a8f4e71b0ca5462d911c94c478eab593135b8a8ba5e7c1acea84604051610fc191906140f2565b60405180910390a1505050600160078190555050505050565b600c60009054906101000a900473ffffffffffffffffffffffffffffffffffffffff1681565b61101b83838360405180602001604052806000815250611555565b505050565b600061102b826110e4565b9050919050565b6000806002600084815260200190815260200160002060009054906101000a900473ffffffffffffffffffffffffffffffffffffffff169050600073ffffffffffffffffffffffffffffffffffffffff168173ffffffffffffffffffffffffffffffffffffffff1614156110db576040517f08c379a00000000000000000000000000000000000000000000000000000000081526004016110d290613f72565b60405180910390fd5b80915050919050565b60008073ffffffffffffffffffffffffffffffffffffffff168273ffffffffffffffffffffffffffffffffffffffff161415611155576040517f08c379a000000000000000000000000000000000000000000000000000000000815260040161114c90613f52565b60405180910390fd5b600360008373ffffffffffffffffffffffffffffffffffffffff1673ffffffffffffffffffffffffffffffffffffffff168152602001908152602001600020549050919050565b600260075414156111e2576040517f08c379a00000000000000000000000000000000000000000000000000000000081526004016111d9906140d2565b60405180910390fd5b600260078190555060006111f584611fb9565b336040516020016112069190613bbf565b6040516020818303038152906040528460405160200161122893929190613c15565b604051602081830303815290604052905060008160405160200161124c9190613bda565b604051602081830303815290604052805190602001206040516020016112729190613c84565b604051602081830303815290604052805190602001209050600061129f848361218e90919063ffffffff16565b9050600c60009054906101000a900473ffffffffffffffffffffffffffffffffffffffff1673ffffffffffffffffffffffffffffffffffffffff168173ffffffffffffffffffffffffffffffffffffffff1614611331576040517f08c379a000000000000000000000000000000000000000000000000000000000815260040161132890613ed2565b60405180910390fd5b600d60003373ffffffffffffffffffffffffffffffffffffffff1673ffffffffffffffffffffffffffffffffffffffff1681526020019081526020016000205486116113b2576040517f08c379a00000000000000000000000000000000000000000000000000000000081526004016113a990613e52565b60405180910390fd5b6113bc86336121b5565b60006113c6610bab565b90506113d233826122a9565b6113dc60086122c7565b6113e68187611c0b565b604051806040016040528082815260200187815250600e6000838152602001908152602001600020600082015181600001556020820151816001019080519060200190611434929190613032565b50905050611465600a60009054906101000a900473ffffffffffffffffffffffffffffffffffffffff16600161153f565b7f375888a712a23aa4f960c32984e16baf008be32cc52f7b9c12212feee89eb6088160405161149491906140f2565b60405180910390a1505050506001600781905550505050565b6060600180546114bc90614485565b80601f01602080910402602001604051908101604052809291908181526020018280546114e890614485565b80156115355780601f1061150a57610100808354040283529160200191611535565b820191906000526020600020905b81548152906001019060200180831161151857829003601f168201915b5050505050905090565b61155161154a611b3c565b83836122dd565b5050565b611566611560611b3c565b83611c7f565b6115a5576040517f08c379a000000000000000000000000000000000000000000000000000000000815260040161159c90614092565b60405180910390fd5b6115b18484848461244a565b50505050565b600960009054906101000a900473ffffffffffffffffffffffffffffffffffffffff1673ffffffffffffffffffffffffffffffffffffffff163373ffffffffffffffffffffffffffffffffffffffff1614611647576040517f08c379a000000000000000000000000000000000000000000000000000000000815260040161163e906140b2565b60405180910390fd5b80600a60006101000a81548173ffffffffffffffffffffffffffffffffffffffff021916908373ffffffffffffffffffffffffffffffffffffffff16021790555050565b606061169682611ad0565b6116d5576040517f08c379a00000000000000000000000000000000000000000000000000000000081526004016116cc90613ff2565b60405180910390fd5b60006006600084815260200190815260200160002080546116f590614485565b80601f016020809104026020016040519081016040528092919081815260200182805461172190614485565b801561176e5780601f106117435761010080835404028352916020019161176e565b820191906000526020600020905b81548152906001019060200180831161175157829003601f168201915b50505050509050600061177f6124a6565b90506000815114156117955781925050506117d8565b6000825111156117ca5780826040516020016117b2929190613bf1565b604051602081830303815290604052925050506117d8565b6117d3846124bd565b925050505b919050565b600960009054906101000a900473ffffffffffffffffffffffffffffffffffffffff1681565b6060600061180f610bab565b905060008167ffffffffffffffff811115611853577f4e487b7100000000000000000000000000000000000000000000000000000000600052604160045260246000fd5b60405190808252806020026020018201604052801561188c57816020015b611879613018565b8152602001906001900390816118715790505b50905060005b828110156119b1576000600e6000838152602001908152602001600020905080604051806040016040529081600082015481526020016001820180546118d790614485565b80601f016020809104026020016040519081016040528092919081815260200182805461190390614485565b80156119505780601f1061192557610100808354040283529160200191611950565b820191906000526020600020905b81548152906001019060200180831161193357829003601f168201915b505050505081525050838381518110611992577f4e487b7100000000000000000000000000000000000000000000000000000000600052603260045260246000fd5b60200260200101819052505080806119a9906144e8565b915050611892565b50809250505090565b600d6020528060005260406000206000915090505481565b6000600560008473ffffffffffffffffffffffffffffffffffffffff1673ffffffffffffffffffffffffffffffffffffffff16815260200190815260200160002060008373ffffffffffffffffffffffffffffffffffffffff1673ffffffffffffffffffffffffffffffffffffffff16815260200190815260200160002060009054906101000a900460ff16905092915050565b60007f01ffc9a7000000000000000000000000000000000000000000000000000000007bffffffffffffffffffffffffffffffffffffffffffffffffffffffff1916827bffffffffffffffffffffffffffffffffffffffffffffffffffffffff1916149050919050565b60008073ffffffffffffffffffffffffffffffffffffffff166002600084815260200190815260200160002060009054906101000a900473ffffffffffffffffffffffffffffffffffffffff1673ffffffffffffffffffffffffffffffffffffffff1614159050919050565b600033905090565b816004600083815260200190815260200160002060006101000a81548173ffffffffffffffffffffffffffffffffffffffff021916908373ffffffffffffffffffffffffffffffffffffffff160217905550808273ffffffffffffffffffffffffffffffffffffffff16611bb783611032565b73ffffffffffffffffffffffffffffffffffffffff167f8c5be1e5ebec7d5bd14f71427d1e84f3dd0314c0f7b2291e5b200ac8c7c3b92560405160405180910390a45050565b600081600001549050919050565b611c1482611ad0565b611c53576040517f08c379a0000000000000000000000000000000000000000000000000000000008152600401611c4a90613f92565b60405180910390fd5b80600660008481526020019081526020016000209080519060200190611c7a929190613032565b505050565b6000611c8a82611ad0565b611cc9576040517f08c379a0000000000000000000000000000000000000000000000000000000008152600401611cc090613f12565b60405180910390fd5b6000611cd483611032565b90508073ffffffffffffffffffffffffffffffffffffffff168473ffffffffffffffffffffffffffffffffffffffff161480611d4357508373ffffffffffffffffffffffffffffffffffffffff16611d2b8461093a565b73ffffffffffffffffffffffffffffffffffffffff16145b80611d545750611d5381856119d2565b5b91505092915050565b8273ffffffffffffffffffffffffffffffffffffffff16611d7d82611032565b73ffffffffffffffffffffffffffffffffffffffff1614611dd3576040517f08c379a0000000000000000000000000000000000000000000000000000000008152600401611dca90614032565b60405180910390fd5b600073ffffffffffffffffffffffffffffffffffffffff168273ffffffffffffffffffffffffffffffffffffffff161415611e43576040517f08c379a0000000000000000000000000000000000000000000000000000000008152600401611e3a90613e92565b60405180910390fd5b611e4e838383612564565b611e59600082611b44565b6001600360008573ffffffffffffffffffffffffffffffffffffffff1673ffffffffffffffffffffffffffffffffffffffff1681526020019081526020016000206000828254611ea99190614372565b925050819055506001600360008473ffffffffffffffffffffffffffffffffffffffff1673ffffffffffffffffffffffffffffffffffffffff1681526020019081526020016000206000828254611f00919061425a565b92505081905550816002600083815260200190815260200160002060006101000a81548173ffffffffffffffffffffffffffffffffffffffff021916908373ffffffffffffffffffffffffffffffffffffffff160217905550808273ffffffffffffffffffffffffffffffffffffffff168473ffffffffffffffffffffffffffffffffffffffff167fddf252ad1be2c89b69c2b068fc378daa952ba7f163c4a11628f55a4df523b3ef60405160405180910390a4505050565b60606000821415612001576040518060400160405280600181526020017f30000000000000000000000000000000000000000000000000000000000000008152509050612189565b600082905060005b6000821461203357808061201c906144e8565b915050600a8261202c91906142e7565b9150612009565b60008167ffffffffffffffff811115612075577f4e487b7100000000000000000000000000000000000000000000000000000000600052604160045260246000fd5b6040519080825280601f01601f1916602001820160405280156120a75781602001600182028036833780820191505090505b50905060008290505b60008614612181576001816120c59190614372565b90506000600a80886120d791906142e7565b6120e19190614318565b876120ec9190614372565b60306120f891906142b0565b905060008160f81b90508084848151811061213c577f4e487b7100000000000000000000000000000000000000000000000000000000600052603260045260246000fd5b60200101907effffffffffffffffffffffffffffffffffffffffffffffffffffffffffffff1916908160001a905350600a8861217891906142e7565b975050506120b0565b819450505050505b919050565b600080600061219d8585612569565b915091506121aa816125ec565b819250505092915050565b6000600d60008373ffffffffffffffffffffffffffffffffffffffff1673ffffffffffffffffffffffffffffffffffffffff16815260200190815260200160002054141561226157600b819080600181540180825580915050600190039060005260206000200160009091909190916101000a81548173ffffffffffffffffffffffffffffffffffffffff021916908373ffffffffffffffffffffffffffffffffffffffff1602179055505b81600d60008373ffffffffffffffffffffffffffffffffffffffff1673ffffffffffffffffffffffffffffffffffffffff168152602001908152602001600020819055505050565b6122c382826040518060200160405280600081525061293d565b5050565b6001816000016000828254019250508190555050565b8173ffffffffffffffffffffffffffffffffffffffff168373ffffffffffffffffffffffffffffffffffffffff16141561234c576040517f08c379a000000000000000000000000000000000000000000000000000000000815260040161234390613eb2565b60405180910390fd5b80600560008573ffffffffffffffffffffffffffffffffffffffff1673ffffffffffffffffffffffffffffffffffffffff16815260200190815260200160002060008473ffffffffffffffffffffffffffffffffffffffff1673ffffffffffffffffffffffffffffffffffffffff16815260200190815260200160002060006101000a81548160ff0219169083151502179055508173ffffffffffffffffffffffffffffffffffffffff168373ffffffffffffffffffffffffffffffffffffffff167f17307eab39ab6107e8899845ad3d59bd9653f200f220920489ca2b5937696c318360405161243d9190613d70565b60405180910390a3505050565b612455848484611d5d565b61246184848484612998565b6124a0576040517f08c379a000000000000000000000000000000000000000000000000000000000815260040161249790613e32565b60405180910390fd5b50505050565b606060405180602001604052806000815250905090565b60606124c882611ad0565b612507576040517f08c379a00000000000000000000000000000000000000000000000000000000081526004016124fe90614052565b60405180910390fd5b60006125116124a6565b90506000815111612531576040518060200160405280600081525061255c565b8061253b84612b2f565b60405160200161254c929190613bf1565b6040516020818303038152906040525b915050919050565b505050565b6000806041835114156125ab5760008060006020860151925060408601519150606086015160001a905061259f87828585612cdc565b945094505050506125e5565b6040835114156125dc5760008060208501519150604085015190506125d1868383612de9565b9350935050506125e5565b60006002915091505b9250929050565b60006004811115612626577f4e487b7100000000000000000000000000000000000000000000000000000000600052602160045260246000fd5b81600481111561265f577f4e487b7100000000000000000000000000000000000000000000000000000000600052602160045260246000fd5b141561266a5761293a565b600160048111156126a4577f4e487b7100000000000000000000000000000000000000000000000000000000600052602160045260246000fd5b8160048111156126dd577f4e487b7100000000000000000000000000000000000000000000000000000000600052602160045260246000fd5b141561271e576040517f08c379a000000000000000000000000000000000000000000000000000000000815260040161271590613df2565b60405180910390fd5b60026004811115612758577f4e487b7100000000000000000000000000000000000000000000000000000000600052602160045260246000fd5b816004811115612791577f4e487b7100000000000000000000000000000000000000000000000000000000600052602160045260246000fd5b14156127d2576040517f08c379a00000000000000000000000000000000000000000000000000000000081526004016127c990613e12565b60405180910390fd5b6003600481111561280c577f4e487b7100000000000000000000000000000000000000000000000000000000600052602160045260246000fd5b816004811115612845577f4e487b7100000000000000000000000000000000000000000000000000000000600052602160045260246000fd5b1415612886576040517f08c379a000000000000000000000000000000000000000000000000000000000815260040161287d90613ef2565b60405180910390fd5b6004808111156128bf577f4e487b7100000000000000000000000000000000000000000000000000000000600052602160045260246000fd5b8160048111156128f8577f4e487b7100000000000000000000000000000000000000000000000000000000600052602160045260246000fd5b1415612939576040517f08c379a000000000000000000000000000000000000000000000000000000000815260040161293090613fb2565b60405180910390fd5b5b50565b6129478383612e37565b6129546000848484612998565b612993576040517f08c379a000000000000000000000000000000000000000000000000000000000815260040161298a90613e32565b60405180910390fd5b505050565b60006129b98473ffffffffffffffffffffffffffffffffffffffff16613005565b15612b22578373ffffffffffffffffffffffffffffffffffffffff1663150b7a026129e2611b3c565b8786866040518563ffffffff1660e01b8152600401612a049493929190613ce0565b602060405180830381600087803b158015612a1e57600080fd5b505af1925050508015612a4f57506040513d601f19601f82011682018060405250810190612a4c91906133de565b60015b612ad2573d8060008114612a7f576040519150601f19603f3d011682016040523d82523d6000602084013e612a84565b606091505b50600081511415612aca576040517f08c379a0000000000000000000000000000000000000000000000000000000008152600401612ac190613e32565b60405180910390fd5b805181602001fd5b63150b7a0260e01b7bffffffffffffffffffffffffffffffffffffffffffffffffffffffff1916817bffffffffffffffffffffffffffffffffffffffffffffffffffffffff191614915050612b27565b600190505b949350505050565b60606000821415612b77576040518060400160405280600181526020017f30000000000000000000000000000000000000000000000000000000000000008152509050612cd7565b600082905060005b60008214612ba9578080612b92906144e8565b915050600a82612ba291906142e7565b9150612b7f565b60008167ffffffffffffffff811115612beb577f4e487b7100000000000000000000000000000000000000000000000000000000600052604160045260246000fd5b6040519080825280601f01601f191660200182016040528015612c1d5781602001600182028036833780820191505090505b5090505b60008514612cd057600182612c369190614372565b9150600a85612c45919061455f565b6030612c51919061425a565b60f81b818381518110612c8d577f4e487b7100000000000000000000000000000000000000000000000000000000600052603260045260246000fd5b60200101907effffffffffffffffffffffffffffffffffffffffffffffffffffffffffffff1916908160001a905350600a85612cc991906142e7565b9450612c21565b8093505050505b919050565b6000807f7fffffffffffffffffffffffffffffff5d576e7357a4501ddfe92f46681b20a08360001c1115612d17576000600391509150612de0565b601b8560ff1614158015612d2f5750601c8560ff1614155b15612d41576000600491509150612de0565b600060018787878760405160008152602001604052604051612d669493929190613d8b565b6020604051602081039080840390855afa158015612d88573d6000803e3d6000fd5b505050602060405103519050600073ffffffffffffffffffffffffffffffffffffffff168173ffffffffffffffffffffffffffffffffffffffff161415612dd757600060019250925050612de0565b80600092509250505b94509492505050565b6000806000807f7fffffffffffffffffffffffffffffffffffffffffffffffffffffffffffffff85169150601b8560ff1c019050612e2987828885612cdc565b935093505050935093915050565b600073ffffffffffffffffffffffffffffffffffffffff168273ffffffffffffffffffffffffffffffffffffffff161415612ea7576040517f08c379a0000000000000000000000000000000000000000000000000000000008152600401612e9e90613fd2565b60405180910390fd5b612eb081611ad0565b15612ef0576040517f08c379a0000000000000000000000000000000000000000000000000000000008152600401612ee790613e72565b60405180910390fd5b612efc60008383612564565b6001600360008473ffffffffffffffffffffffffffffffffffffffff1673ffffffffffffffffffffffffffffffffffffffff1681526020019081526020016000206000828254612f4c919061425a565b92505081905550816002600083815260200190815260200160002060006101000a81548173ffffffffffffffffffffffffffffffffffffffff021916908373ffffffffffffffffffffffffffffffffffffffff160217905550808273ffffffffffffffffffffffffffffffffffffffff16600073ffffffffffffffffffffffffffffffffffffffff167fddf252ad1be2c89b69c2b068fc378daa952ba7f163c4a11628f55a4df523b3ef60405160405180910390a45050565b600080823b905060008111915050919050565b604051806040016040528060008152602001606081525090565b82805461303e90614485565b90600052602060002090601f01602090048101928261306057600085556130a7565b82601f1061307957805160ff19168380011785556130a7565b828001600101855582156130a7579182015b828111156130a657825182559160200191906001019061308b565b5b5090506130b491906130b8565b5090565b5b808211156130d15760008160009055506001016130b9565b5090565b60006130e86130e384614132565b61410d565b90508281526020810184848401111561310057600080fd5b61310b848285614443565b509392505050565b600061312661312184614163565b61410d565b90508281526020810184848401111561313e57600080fd5b613149848285614443565b509392505050565b60008135905061316081614cf1565b92915050565b60008135905061317581614d08565b92915050565b60008135905061318a81614d1f565b92915050565b60008151905061319f81614d1f565b92915050565b600082601f8301126131b657600080fd5b81356131c68482602086016130d5565b91505092915050565b600082601f8301126131e057600080fd5b81356131f0848260208601613113565b91505092915050565b60008135905061320881614d36565b92915050565b60006020828403121561322057600080fd5b600061322e84828501613151565b91505092915050565b6000806040838503121561324a57600080fd5b600061325885828601613151565b925050602061326985828601613151565b9150509250929050565b60008060006060848603121561328857600080fd5b600061329686828701613151565b93505060206132a786828701613151565b92505060406132b8868287016131f9565b9150509250925092565b600080600080608085870312156132d857600080fd5b60006132e687828801613151565b94505060206132f787828801613151565b9350506040613308878288016131f9565b925050606085013567ffffffffffffffff81111561332557600080fd5b613331878288016131a5565b91505092959194509250565b6000806040838503121561335057600080fd5b600061335e85828601613151565b925050602061336f85828601613166565b9150509250929050565b6000806040838503121561338c57600080fd5b600061339a85828601613151565b92505060206133ab858286016131f9565b9150509250929050565b6000602082840312156133c757600080fd5b60006133d58482850161317b565b91505092915050565b6000602082840312156133f057600080fd5b60006133fe84828501613190565b91505092915050565b60006020828403121561341957600080fd5b6000613427848285016131f9565b91505092915050565b6000806040838503121561344357600080fd5b6000613451858286016131f9565b925050602083013567ffffffffffffffff81111561346e57600080fd5b61347a858286016131cf565b9150509250929050565b60008060006060848603121561349957600080fd5b60006134a7868287016131f9565b935050602084013567ffffffffffffffff8111156134c457600080fd5b6134d0868287016131cf565b925050604084013567ffffffffffffffff8111156134ed57600080fd5b6134f9868287016131a5565b9150509250925092565b6000806000806080858703121561351957600080fd5b6000613527878288016131f9565b945050602085013567ffffffffffffffff81111561354457600080fd5b613550878288016131cf565b935050604085013567ffffffffffffffff81111561356d57600080fd5b613579878288016131a5565b925050606061358a878288016131f9565b91505092959194509250565b60006135a283836135d1565b60208301905092915050565b60006135ba8383613b55565b905092915050565b6135cb816143b8565b82525050565b6135da816143a6565b82525050565b6135e9816143a6565b82525050565b6136006135fb826143a6565b614531565b82525050565b6000613611826141b4565b61361b81856141fa565b935061362683614194565b8060005b8381101561365757815161363e8882613596565b9750613649836141e0565b92505060018101905061362a565b5085935050505092915050565b600061366f826141bf565b613679818561420b565b93508360208202850161368b856141a4565b8060005b858110156136c757848403895281516136a885826135ae565b94506136b3836141ed565b925060208a0199505060018101905061368f565b50829750879550505050505092915050565b6136e2816143ca565b82525050565b6136f1816143d6565b82525050565b613708613703826143d6565b614543565b82525050565b6000613719826141ca565b613723818561421c565b9350613733818560208601614452565b61373c8161464c565b840191505092915050565b6000613752826141d5565b61375c818561422d565b935061376c818560208601614452565b6137758161464c565b840191505092915050565b600061378b826141d5565b613795818561423e565b93506137a5818560208601614452565b6137ae8161464c565b840191505092915050565b60006137c4826141d5565b6137ce818561424f565b93506137de818560208601614452565b80840191505092915050565b60006137f760188361423e565b91506138028261466a565b602082019050919050565b600061381a601f8361423e565b915061382582614693565b602082019050919050565b600061383d601c8361424f565b9150613848826146bc565b601c82019050919050565b600061386060328361423e565b915061386b826146e5565b604082019050919050565b600061388360238361423e565b915061388e82614734565b604082019050919050565b60006138a6601c8361423e565b91506138b182614783565b602082019050919050565b60006138c960248361423e565b91506138d4826147ac565b604082019050919050565b60006138ec60198361423e565b91506138f7826147fb565b602082019050919050565b600061390f60118361423e565b915061391a82614824565b602082019050919050565b600061393260228361423e565b915061393d8261484d565b604082019050919050565b6000613955602c8361423e565b91506139608261489c565b604082019050919050565b600061397860388361423e565b9150613983826148eb565b604082019050919050565b600061399b602a8361423e565b91506139a68261493a565b604082019050919050565b60006139be60298361423e565b91506139c982614989565b604082019050919050565b60006139e1602e8361423e565b91506139ec826149d8565b604082019050919050565b6000613a0460228361423e565b9150613a0f82614a27565b604082019050919050565b6000613a2760208361423e565b9150613a3282614a76565b602082019050919050565b6000613a4a60318361423e565b9150613a5582614a9f565b604082019050919050565b6000613a6d602c8361423e565b9150613a7882614aee565b604082019050919050565b6000613a9060298361423e565b9150613a9b82614b3d565b604082019050919050565b6000613ab3602f8361423e565b9150613abe82614b8c565b604082019050919050565b6000613ad660218361423e565b9150613ae182614bdb565b604082019050919050565b6000613af960318361423e565b9150613b0482614c2a565b604082019050919050565b6000613b1c60248361423e565b9150613b2782614c79565b604082019050919050565b6000613b3f601f8361423e565b9150613b4a82614cc8565b602082019050919050565b6000604083016000830151613b6d6000860182613b92565b5060208301518482036020860152613b858282613747565b9150508091505092915050565b613b9b8161442c565b82525050565b613baa8161442c565b82525050565b613bb981614436565b82525050565b6000613bcb82846135ef565b60148201915081905092915050565b6000613be682846137b9565b915081905092915050565b6000613bfd82856137b9565b9150613c0982846137b9565b91508190509392505050565b6000613c2182866137b9565b9150613c2d82856137b9565b9150613c3982846137b9565b9150819050949350505050565b6000613c5282876137b9565b9150613c5e82866137b9565b9150613c6a82856137b9565b9150613c7682846137b9565b915081905095945050505050565b6000613c8f82613830565b9150613c9b82846136f7565b60208201915081905092915050565b6000602082019050613cbf60008301846135e0565b92915050565b6000602082019050613cda60008301846135c2565b92915050565b6000608082019050613cf560008301876135e0565b613d0260208301866135e0565b613d0f6040830185613ba1565b8181036060830152613d21818461370e565b905095945050505050565b60006020820190508181036000830152613d468184613606565b905092915050565b60006020820190508181036000830152613d688184613664565b905092915050565b6000602082019050613d8560008301846136d9565b92915050565b6000608082019050613da060008301876136e8565b613dad6020830186613bb0565b613dba60408301856136e8565b613dc760608301846136e8565b95945050505050565b60006020820190508181036000830152613dea8184613780565b905092915050565b60006020820190508181036000830152613e0b816137ea565b9050919050565b60006020820190508181036000830152613e2b8161380d565b9050919050565b60006020820190508181036000830152613e4b81613853565b9050919050565b60006020820190508181036000830152613e6b81613876565b9050919050565b60006020820190508181036000830152613e8b81613899565b9050919050565b60006020820190508181036000830152613eab816138bc565b9050919050565b60006020820190508181036000830152613ecb816138df565b9050919050565b60006020820190508181036000830152613eeb81613902565b9050919050565b60006020820190508181036000830152613f0b81613925565b9050919050565b60006020820190508181036000830152613f2b81613948565b9050919050565b60006020820190508181036000830152613f4b8161396b565b9050919050565b60006020820190508181036000830152613f6b8161398e565b9050919050565b60006020820190508181036000830152613f8b816139b1565b9050919050565b60006020820190508181036000830152613fab816139d4565b9050919050565b60006020820190508181036000830152613fcb816139f7565b9050919050565b60006020820190508181036000830152613feb81613a1a565b9050919050565b6000602082019050818103600083015261400b81613a3d565b9050919050565b6000602082019050818103600083015261402b81613a60565b9050919050565b6000602082019050818103600083015261404b81613a83565b9050919050565b6000602082019050818103600083015261406b81613aa6565b9050919050565b6000602082019050818103600083015261408b81613ac9565b9050919050565b600060208201905081810360008301526140ab81613aec565b9050919050565b600060208201905081810360008301526140cb81613b0f565b9050919050565b600060208201905081810360008301526140eb81613b32565b9050919050565b60006020820190506141076000830184613ba1565b92915050565b6000614117614128565b905061412382826144b7565b919050565b6000604051905090565b600067ffffffffffffffff82111561414d5761414c61461d565b5b6141568261464c565b9050602081019050919050565b600067ffffffffffffffff82111561417e5761417d61461d565b5b6141878261464c565b9050602081019050919050565b6000819050602082019050919050565b6000819050602082019050919050565b600081519050919050565b600081519050919050565b600081519050919050565b600081519050919050565b6000602082019050919050565b6000602082019050919050565b600082825260208201905092915050565b600082825260208201905092915050565b600082825260208201905092915050565b600082825260208201905092915050565b600082825260208201905092915050565b600081905092915050565b60006142658261442c565b91506142708361442c565b9250827fffffffffffffffffffffffffffffffffffffffffffffffffffffffffffffffff038211156142a5576142a4614590565b5b828201905092915050565b60006142bb82614436565b91506142c683614436565b92508260ff038211156142dc576142db614590565b5b828201905092915050565b60006142f28261442c565b91506142fd8361442c565b92508261430d5761430c6145bf565b5b828204905092915050565b60006143238261442c565b915061432e8361442c565b9250817fffffffffffffffffffffffffffffffffffffffffffffffffffffffffffffffff048311821515161561436757614366614590565b5b828202905092915050565b600061437d8261442c565b91506143888361442c565b92508282101561439b5761439a614590565b5b828203905092915050565b60006143b18261440c565b9050919050565b60006143c38261440c565b9050919050565b60008115159050919050565b6000819050919050565b60007fffffffff0000000000000000000000000000000000000000000000000000000082169050919050565b600073ffffffffffffffffffffffffffffffffffffffff82169050919050565b6000819050919050565b600060ff82169050919050565b82818337600083830152505050565b60005b83811015614470578082015181840152602081019050614455565b8381111561447f576000848401525b50505050565b6000600282049050600182168061449d57607f821691505b602082108114156144b1576144b06145ee565b5b50919050565b6144c08261464c565b810181811067ffffffffffffffff821117156144df576144de61461d565b5b80604052505050565b60006144f38261442c565b91507fffffffffffffffffffffffffffffffffffffffffffffffffffffffffffffffff82141561452657614525614590565b5b600182019050919050565b600061453c8261454d565b9050919050565b6000819050919050565b60006145588261465d565b9050919050565b600061456a8261442c565b91506145758361442c565b925082614585576145846145bf565b5b828206905092915050565b7f4e487b7100000000000000000000000000000000000000000000000000000000600052601160045260246000fd5b7f4e487b7100000000000000000000000000000000000000000000000000000000600052601260045260246000fd5b7f4e487b7100000000000000000000000000000000000000000000000000000000600052602260045260246000fd5b7f4e487b7100000000000000000000000000000000000000000000000000000000600052604160045260246000fd5b6000601f19601f8301169050919050565b60008160601b9050919050565b7f45434453413a20696e76616c6964207369676e61747572650000000000000000600082015250565b7f45434453413a20696e76616c6964207369676e6174757265206c656e67746800600082015250565b7f19457468657265756d205369676e6564204d6573736167653a0a333200000000600082015250565b7f4552433732313a207472616e7366657220746f206e6f6e20455243373231526560008201527f63656976657220696d706c656d656e7465720000000000000000000000000000602082015250565b7f416c7265616479206d696e74656420617420746869732073636f72652062656660008201527f6f72650000000000000000000000000000000000000000000000000000000000602082015250565b7f4552433732313a20746f6b656e20616c7265616479206d696e74656400000000600082015250565b7f4552433732313a207472616e7366657220746f20746865207a65726f2061646460008201527f7265737300000000000000000000000000000000000000000000000000000000602082015250565b7f4552433732313a20617070726f766520746f2063616c6c657200000000000000600082015250565b7f496e76616c6964207369676e6174757265000000000000000000000000000000600082015250565b7f45434453413a20696e76616c6964207369676e6174757265202773272076616c60008201527f7565000000000000000000000000000000000000000000000000000000000000602082015250565b7f4552433732313a206f70657261746f7220717565727920666f72206e6f6e657860008201527f697374656e7420746f6b656e0000000000000000000000000000000000000000602082015250565b7f4552433732313a20617070726f76652063616c6c6572206973206e6f74206f7760008201527f6e6572206e6f7220617070726f76656420666f7220616c6c0000000000000000602082015250565b7f4552433732313a2062616c616e636520717565727920666f7220746865207a6560008201527f726f206164647265737300000000000000000000000000000000000000000000602082015250565b7f4552433732313a206f776e657220717565727920666f72206e6f6e657869737460008201527f656e7420746f6b656e0000000000000000000000000000000000000000000000602082015250565b7f45524337323155524953746f726167653a2055524920736574206f66206e6f6e60008201527f6578697374656e7420746f6b656e000000000000000000000000000000000000602082015250565b7f45434453413a20696e76616c6964207369676e6174757265202776272076616c60008201527f7565000000000000000000000000000000000000000000000000000000000000602082015250565b7f4552433732313a206d696e7420746f20746865207a65726f2061646472657373600082015250565b7f45524337323155524953746f726167653a2055524920717565727920666f722060008201527f6e6f6e6578697374656e7420746f6b656e000000000000000000000000000000602082015250565b7f4552433732313a20617070726f76656420717565727920666f72206e6f6e657860008201527f697374656e7420746f6b656e0000000000000000000000000000000000000000602082015250565b7f4552433732313a207472616e73666572206f6620746f6b656e2074686174206960008201527f73206e6f74206f776e0000000000000000000000000000000000000000000000602082015250565b7f4552433732314d657461646174613a2055524920717565727920666f72206e6f60008201527f6e6578697374656e7420746f6b656e0000000000000000000000000000000000602082015250565b7f4552433732313a20617070726f76616c20746f2063757272656e74206f776e6560008201527f7200000000000000000000000000000000000000000000000000000000000000602082015250565b7f4552433732313a207472616e736665722063616c6c6572206973206e6f74206f60008201527f776e6572206e6f7220617070726f766564000000000000000000000000000000602082015250565b7f5468652063616c6c6572206973206e6f742074686520636f6e7472616374206f60008201527f776e657200000000000000000000000000000000000000000000000000000000602082015250565b7f5265656e7472616e637947756172643a207265656e7472616e742063616c6c00600082015250565b614cfa816143a6565b8114614d0557600080fd5b50565b614d11816143ca565b8114614d1c57600080fd5b50565b614d28816143e0565b8114614d3357600080fd5b50565b614d3f8161442c565b8114614d4a57600080fd5b5056fea264697066735822122040218d34fa638e4b1002710dd369c2c113319e30b5ae590597dc9c054198d86464736f6c63430008040033",
  "immutableReferences": {},
  "source": "// SPDX-License-Identifier: MIT\r\npragma solidity ^0.8.4;\r\n\r\nimport \"@openzeppelin/contracts/token/ERC721/ERC721.sol\";\r\nimport \"@openzeppelin/contracts/token/ERC721/extensions/ERC721URIStorage.sol\";\r\nimport \"@openzeppelin/contracts/utils/Counters.sol\";\r\nimport \"@openzeppelin/contracts/utils/cryptography/ECDSA.sol\";\r\nimport \"@openzeppelin/contracts/security/ReentrancyGuard.sol\";\r\n\r\ncontract Turtis is ERC721URIStorage, ReentrancyGuard {\r\n  using ECDSA for bytes32;\r\n  using Counters for Counters.Counter;\r\n  Counters.Counter private _totalSupply;\r\n\r\n  address payable public contractOwner; // Owner of this contract\r\n  address private marketContractAddress;\r\n\r\n  address[] private users; // Address array to store all the users\r\n\r\n  address public signedWalletAddress;\r\n\r\n  // Mapping from User address to high score\r\n  mapping(address => uint256) public userAddressToHighScore;\r\n\r\n  // Events\r\n\r\n  // Emitted when a new Turtle is generated after reaching a new checkpoint in the game\r\n  event NewTurtleGenerated(uint256 tokenId);\r\n\r\n  // Emitted when an existing Turtle is upgraded by its owner\r\n  event TurtleUpgraded(uint256 tokenId);\r\n\r\n  // Emitted when a Turtle is bought\r\n  event TurtleBought(uint256 tokenId);\r\n\r\n  // Emitted when a Turtle is put up for sale\r\n  event TurtleUpForSale(uint256 tokenId);\r\n\r\n  struct NFTItem {\r\n    uint256 tokenId;\r\n    string tokenURI;\r\n  }\r\n\r\n  mapping(uint256 => NFTItem) tokenIdToNFTItem;\r\n\r\n  // Contructor is called when an instance of 'TurtleCharacter' contract is deployed\r\n  constructor(address marketplaceAddress) ERC721(\"TurtleCharacter\", \"TRTL\") {\r\n    contractOwner = payable(msg.sender);\r\n    marketContractAddress = marketplaceAddress;\r\n  }\r\n\r\n  // Modifer that checks to see if msg.sender == contractOwner\r\n  modifier onlyContractOwner() {\r\n    require(\r\n      msg.sender == contractOwner,\r\n      \"The caller is not the contract owner\"\r\n    );\r\n    _;\r\n  }\r\n\r\n  // Function 'totalSupply' returns the total token supply of this contract\r\n  function totalSupply() public view returns (uint256) {\r\n    return _totalSupply.current();\r\n  }\r\n\r\n  function setMarketContractAddress(address _contractAddress)\r\n    public\r\n    onlyContractOwner\r\n  {\r\n    marketContractAddress = _contractAddress;\r\n  }\r\n\r\n  // Function 'getUsers' returns the address array of users\r\n  function getUsers() public view returns (address[] memory) {\r\n    return users;\r\n  }\r\n\r\n  // Function 'setHighScore' sets a new highScore for the user\r\n  function setHighScore(uint256 _newHighScore, address _sender) internal {\r\n    if (userAddressToHighScore[_sender] == 0) {\r\n      users.push(_sender);\r\n    }\r\n    userAddressToHighScore[_sender] = _newHighScore;\r\n  }\r\n\r\n  // Function 'generateTurtle' mints a new Turtle NFT for the user\r\n  function generateTurtle(\r\n    uint256 _score,\r\n    string memory _tokenURI,\r\n    bytes memory _signature\r\n  ) public nonReentrant {\r\n    string memory message = string(\r\n      abi.encodePacked(\r\n        uint2str(_score),\r\n        string(abi.encodePacked(msg.sender)),\r\n        _tokenURI\r\n      )\r\n    );\r\n\r\n    bytes32 hash = keccak256(\r\n      abi.encodePacked(\r\n        \"\\x19Ethereum Signed Message:\\n32\",\r\n        keccak256(abi.encodePacked(message))\r\n      )\r\n    );\r\n    address walletAddress = hash.recover(_signature);\r\n    require(walletAddress == signedWalletAddress, \"Invalid signature\");\r\n    require(\r\n      _score > userAddressToHighScore[msg.sender],\r\n      \"Already minted at this score before\"\r\n    );\r\n    setHighScore(_score, msg.sender);\r\n    uint256 _tokenID = totalSupply();\r\n    _safeMint(msg.sender, _tokenID);\r\n    _totalSupply.increment();\r\n    _setTokenURI(_tokenID, _tokenURI);\r\n    tokenIdToNFTItem[_tokenID] = NFTItem(_tokenID, _tokenURI);\r\n    setApprovalForAll(marketContractAddress, true);\r\n\r\n    emit NewTurtleGenerated(_tokenID);\r\n  }\r\n\r\n  // Function 'upgradeTurtle' upgrades an existing Turtle NFT\r\n  function upgradeTurtle(\r\n    uint256 _score,\r\n    string memory _tokenURI,\r\n    bytes memory _signature,\r\n    uint256 _tokenId\r\n  ) public nonReentrant {\r\n    string memory message = string(\r\n      abi.encodePacked(\r\n        uint2str(_score),\r\n        string(abi.encodePacked(msg.sender)),\r\n        _tokenURI,\r\n        uint2str(_tokenId)\r\n      )\r\n    );\r\n\r\n    bytes32 hash = keccak256(\r\n      abi.encodePacked(\r\n        \"\\x19Ethereum Signed Message:\\n32\",\r\n        keccak256(abi.encodePacked(message))\r\n      )\r\n    );\r\n    address walletAddress = hash.recover(_signature);\r\n    require(walletAddress == signedWalletAddress, \"Invalid signature\");\r\n    require(\r\n      _score > userAddressToHighScore[msg.sender],\r\n      \"Already minted at this score before\"\r\n    );\r\n    setHighScore(_score, msg.sender);\r\n    _setTokenURI(_tokenId, _tokenURI);\r\n    tokenIdToNFTItem[_tokenId] = NFTItem(_tokenId, _tokenURI);\r\n\r\n    emit TurtleUpgraded(_tokenId);\r\n  }\r\n\r\n  // Function 'setTokenURI' sets the Token URI for the ERC721 standard token\r\n  function setTokenURI(string memory _tokenURI) private {\r\n    uint256 lastTokenId = totalSupply() - 1;\r\n    _setTokenURI(lastTokenId, _tokenURI);\r\n    tokenIdToNFTItem[lastTokenId] = NFTItem(lastTokenId, _tokenURI);\r\n  }\r\n\r\n  // Function 'setSignedWalletAddress' sets the address of the wallet that signs the minting of the Turtle NFT\r\n  function setSignedWalletAddress(address _walletAddress)\r\n    public\r\n    onlyContractOwner\r\n  {\r\n    signedWalletAddress = _walletAddress;\r\n  }\r\n\r\n  // Function 'uint2str' converts a uint256 variable to a string variable\r\n  function uint2str(uint256 _i)\r\n    internal\r\n    pure\r\n    returns (string memory _uintAsString)\r\n  {\r\n    if (_i == 0) {\r\n      return \"0\";\r\n    }\r\n    uint256 j = _i;\r\n    uint256 len;\r\n    while (j != 0) {\r\n      len++;\r\n      j /= 10;\r\n    }\r\n    bytes memory bstr = new bytes(len);\r\n    uint256 k = len;\r\n    while (_i != 0) {\r\n      k = k - 1;\r\n      uint8 temp = (48 + uint8(_i - (_i / 10) * 10));\r\n      bytes1 b1 = bytes1(temp);\r\n      bstr[k] = b1;\r\n      _i /= 10;\r\n    }\r\n    return string(bstr);\r\n  }\r\n\r\n  // Function 'updateTokenURI' updates the Token URI for a specific Token\r\n  function updateTokenURI(uint256 _tokenId, string memory _tokenURI)\r\n    public\r\n    onlyContractOwner\r\n  {\r\n    _setTokenURI(_tokenId, _tokenURI);\r\n    tokenIdToNFTItem[_tokenId] = NFTItem(_tokenId, _tokenURI);\r\n  }\r\n\r\n  function getBalanceOfUser(address _user) public view returns (uint256) {\r\n    return balanceOf(_user);\r\n  }\r\n\r\n  function getUserOwnedNFTs(address _user)\r\n    public\r\n    view\r\n    returns (NFTItem[] memory)\r\n  {\r\n    NFTItem[] memory nfts = new NFTItem[](getBalanceOfUser(_user));\r\n    uint256 totalNFTCount = totalSupply();\r\n    uint256 curInd = 0;\r\n    for (uint256 i = 0; i < totalNFTCount; i++) {\r\n      if (ownerOf(i) == _user) {\r\n        NFTItem storage curItem = tokenIdToNFTItem[i];\r\n        nfts[curInd++] = curItem;\r\n      }\r\n    }\r\n    return nfts;\r\n  }\r\n\r\n  function getAllNFTs() public view returns (NFTItem[] memory) {\r\n    uint256 totalNFTCount = totalSupply();\r\n    NFTItem[] memory nfts = new NFTItem[](totalNFTCount);\r\n    for (uint256 i = 0; i < totalNFTCount; i++) {\r\n      NFTItem storage curItem = tokenIdToNFTItem[i];\r\n      nfts[i] = curItem;\r\n    }\r\n    return nfts;\r\n  }\r\n}\r\n",
  "sourcePath": "D:/Dodging-Turtis/truffle/contracts/Turtis.sol",
  "compiler": {
    "name": "solc",
    "version": "0.8.4+commit.c7e474f2.Emscripten.clang"
  },
  "schemaVersion": "3.4.1",
  "updatedAt": "2022-01-07T19:01:57.069Z",
  "networkType": "ethereum",
  "devdoc": {
    "kind": "dev",
    "methods": {
      "approve(address,uint256)": {
        "details": "See {IERC721-approve}."
      },
      "balanceOf(address)": {
        "details": "See {IERC721-balanceOf}."
      },
      "getApproved(uint256)": {
        "details": "See {IERC721-getApproved}."
      },
      "isApprovedForAll(address,address)": {
        "details": "See {IERC721-isApprovedForAll}."
      },
      "name()": {
        "details": "See {IERC721Metadata-name}."
      },
      "ownerOf(uint256)": {
        "details": "See {IERC721-ownerOf}."
      },
      "safeTransferFrom(address,address,uint256)": {
        "details": "See {IERC721-safeTransferFrom}."
      },
      "safeTransferFrom(address,address,uint256,bytes)": {
        "details": "See {IERC721-safeTransferFrom}."
      },
      "setApprovalForAll(address,bool)": {
        "details": "See {IERC721-setApprovalForAll}."
      },
      "supportsInterface(bytes4)": {
        "details": "See {IERC165-supportsInterface}."
      },
      "symbol()": {
        "details": "See {IERC721Metadata-symbol}."
      },
      "tokenURI(uint256)": {
        "details": "See {IERC721Metadata-tokenURI}."
      },
      "transferFrom(address,address,uint256)": {
        "details": "See {IERC721-transferFrom}."
      }
    },
    "version": 1
  },
  "userdoc": {
    "kind": "user",
    "methods": {},
    "version": 1
  }
}