{
  "contractName": "Turtis",
  "abi": [
    {
      "inputs": [],
      "stateMutability": "nonpayable",
      "type": "constructor"
    },
    {
      "anonymous": false,
      "inputs": [
        {
          "indexed": true,
          "internalType": "address",
          "name": "owner",
          "type": "address"
        },
        {
          "indexed": true,
          "internalType": "address",
          "name": "approved",
          "type": "address"
        },
        {
          "indexed": true,
          "internalType": "uint256",
          "name": "tokenId",
          "type": "uint256"
        }
      ],
      "name": "Approval",
      "type": "event"
    },
    {
      "anonymous": false,
      "inputs": [
        {
          "indexed": true,
          "internalType": "address",
          "name": "owner",
          "type": "address"
        },
        {
          "indexed": true,
          "internalType": "address",
          "name": "operator",
          "type": "address"
        },
        {
          "indexed": false,
          "internalType": "bool",
          "name": "approved",
          "type": "bool"
        }
      ],
      "name": "ApprovalForAll",
      "type": "event"
    },
    {
      "anonymous": false,
      "inputs": [
        {
          "indexed": false,
          "internalType": "uint256",
          "name": "tokenId",
          "type": "uint256"
        }
      ],
      "name": "NewTurtleGenerated",
      "type": "event"
    },
    {
      "anonymous": false,
      "inputs": [
        {
          "indexed": true,
          "internalType": "address",
          "name": "from",
          "type": "address"
        },
        {
          "indexed": true,
          "internalType": "address",
          "name": "to",
          "type": "address"
        },
        {
          "indexed": true,
          "internalType": "uint256",
          "name": "tokenId",
          "type": "uint256"
        }
      ],
      "name": "Transfer",
      "type": "event"
    },
    {
      "anonymous": false,
      "inputs": [
        {
          "indexed": false,
          "internalType": "uint256",
          "name": "tokenId",
          "type": "uint256"
        }
      ],
      "name": "TurtleBought",
      "type": "event"
    },
    {
      "anonymous": false,
      "inputs": [
        {
          "indexed": false,
          "internalType": "uint256",
          "name": "tokenId",
          "type": "uint256"
        }
      ],
      "name": "TurtleUpForSale",
      "type": "event"
    },
    {
      "anonymous": false,
      "inputs": [
        {
          "indexed": false,
          "internalType": "uint256",
          "name": "tokenId",
          "type": "uint256"
        }
      ],
      "name": "TurtleUpgraded",
      "type": "event"
    },
    {
      "inputs": [
        {
          "internalType": "address",
          "name": "to",
          "type": "address"
        },
        {
          "internalType": "uint256",
          "name": "tokenId",
          "type": "uint256"
        }
      ],
      "name": "approve",
      "outputs": [],
      "stateMutability": "nonpayable",
      "type": "function"
    },
    {
      "inputs": [
        {
          "internalType": "address",
          "name": "owner",
          "type": "address"
        }
      ],
      "name": "balanceOf",
      "outputs": [
        {
          "internalType": "uint256",
          "name": "",
          "type": "uint256"
        }
      ],
      "stateMutability": "view",
      "type": "function"
    },
    {
      "inputs": [],
      "name": "baseURI",
      "outputs": [
        {
          "internalType": "string",
          "name": "",
          "type": "string"
        }
      ],
      "stateMutability": "view",
      "type": "function"
    },
    {
      "inputs": [],
      "name": "contractOwner",
      "outputs": [
        {
          "internalType": "address",
          "name": "",
          "type": "address"
        }
      ],
      "stateMutability": "view",
      "type": "function"
    },
    {
      "inputs": [
        {
          "internalType": "uint256",
          "name": "tokenId",
          "type": "uint256"
        }
      ],
      "name": "getApproved",
      "outputs": [
        {
          "internalType": "address",
          "name": "",
          "type": "address"
        }
      ],
      "stateMutability": "view",
      "type": "function"
    },
    {
      "inputs": [
        {
          "internalType": "address",
          "name": "owner",
          "type": "address"
        },
        {
          "internalType": "address",
          "name": "operator",
          "type": "address"
        }
      ],
      "name": "isApprovedForAll",
      "outputs": [
        {
          "internalType": "bool",
          "name": "",
          "type": "bool"
        }
      ],
      "stateMutability": "view",
      "type": "function"
    },
    {
      "inputs": [],
      "name": "name",
      "outputs": [
        {
          "internalType": "string",
          "name": "",
          "type": "string"
        }
      ],
      "stateMutability": "view",
      "type": "function"
    },
    {
      "inputs": [
        {
          "internalType": "uint256",
          "name": "tokenId",
          "type": "uint256"
        }
      ],
      "name": "ownerOf",
      "outputs": [
        {
          "internalType": "address",
          "name": "",
          "type": "address"
        }
      ],
      "stateMutability": "view",
      "type": "function"
    },
    {
      "inputs": [
        {
          "internalType": "address",
          "name": "from",
          "type": "address"
        },
        {
          "internalType": "address",
          "name": "to",
          "type": "address"
        },
        {
          "internalType": "uint256",
          "name": "tokenId",
          "type": "uint256"
        }
      ],
      "name": "safeTransferFrom",
      "outputs": [],
      "stateMutability": "nonpayable",
      "type": "function"
    },
    {
      "inputs": [
        {
          "internalType": "address",
          "name": "from",
          "type": "address"
        },
        {
          "internalType": "address",
          "name": "to",
          "type": "address"
        },
        {
          "internalType": "uint256",
          "name": "tokenId",
          "type": "uint256"
        },
        {
          "internalType": "bytes",
          "name": "_data",
          "type": "bytes"
        }
      ],
      "name": "safeTransferFrom",
      "outputs": [],
      "stateMutability": "nonpayable",
      "type": "function"
    },
    {
      "inputs": [
        {
          "internalType": "address",
          "name": "operator",
          "type": "address"
        },
        {
          "internalType": "bool",
          "name": "approved",
          "type": "bool"
        }
      ],
      "name": "setApprovalForAll",
      "outputs": [],
      "stateMutability": "nonpayable",
      "type": "function"
    },
    {
      "inputs": [],
      "name": "signedWalletAddress",
      "outputs": [
        {
          "internalType": "address",
          "name": "",
          "type": "address"
        }
      ],
      "stateMutability": "view",
      "type": "function"
    },
    {
      "inputs": [
        {
          "internalType": "bytes4",
          "name": "interfaceId",
          "type": "bytes4"
        }
      ],
      "name": "supportsInterface",
      "outputs": [
        {
          "internalType": "bool",
          "name": "",
          "type": "bool"
        }
      ],
      "stateMutability": "view",
      "type": "function"
    },
    {
      "inputs": [],
      "name": "symbol",
      "outputs": [
        {
          "internalType": "string",
          "name": "",
          "type": "string"
        }
      ],
      "stateMutability": "view",
      "type": "function"
    },
    {
      "inputs": [
        {
          "internalType": "uint256",
          "name": "index",
          "type": "uint256"
        }
      ],
      "name": "tokenByIndex",
      "outputs": [
        {
          "internalType": "uint256",
          "name": "",
          "type": "uint256"
        }
      ],
      "stateMutability": "view",
      "type": "function"
    },
    {
      "inputs": [
        {
          "internalType": "address",
          "name": "owner",
          "type": "address"
        },
        {
          "internalType": "uint256",
          "name": "index",
          "type": "uint256"
        }
      ],
      "name": "tokenOfOwnerByIndex",
      "outputs": [
        {
          "internalType": "uint256",
          "name": "",
          "type": "uint256"
        }
      ],
      "stateMutability": "view",
      "type": "function"
    },
    {
      "inputs": [
        {
          "internalType": "uint256",
          "name": "tokenId",
          "type": "uint256"
        }
      ],
      "name": "tokenURI",
      "outputs": [
        {
          "internalType": "string",
          "name": "",
          "type": "string"
        }
      ],
      "stateMutability": "view",
      "type": "function"
    },
    {
      "inputs": [],
      "name": "totalSupply",
      "outputs": [
        {
          "internalType": "uint256",
          "name": "",
          "type": "uint256"
        }
      ],
      "stateMutability": "view",
      "type": "function"
    },
    {
      "inputs": [
        {
          "internalType": "address",
          "name": "from",
          "type": "address"
        },
        {
          "internalType": "address",
          "name": "to",
          "type": "address"
        },
        {
          "internalType": "uint256",
          "name": "tokenId",
          "type": "uint256"
        }
      ],
      "name": "transferFrom",
      "outputs": [],
      "stateMutability": "nonpayable",
      "type": "function"
    },
    {
      "inputs": [
        {
          "internalType": "uint256",
          "name": "",
          "type": "uint256"
        }
      ],
      "name": "turtlesForSale",
      "outputs": [
        {
          "internalType": "uint256",
          "name": "",
          "type": "uint256"
        }
      ],
      "stateMutability": "view",
      "type": "function"
    },
    {
      "inputs": [
        {
          "internalType": "address",
          "name": "",
          "type": "address"
        }
      ],
      "name": "userAddressToHighScore",
      "outputs": [
        {
          "internalType": "uint256",
          "name": "",
          "type": "uint256"
        }
      ],
      "stateMutability": "view",
      "type": "function"
    },
    {
      "inputs": [],
      "name": "getUsers",
      "outputs": [
        {
          "internalType": "address[]",
          "name": "",
          "type": "address[]"
        }
      ],
      "stateMutability": "view",
      "type": "function"
    },
    {
      "inputs": [
        {
          "internalType": "uint256",
          "name": "_score",
          "type": "uint256"
        },
        {
          "internalType": "string",
          "name": "_tokenURI",
          "type": "string"
        },
        {
          "internalType": "bytes",
          "name": "_signature",
          "type": "bytes"
        }
      ],
      "name": "generateTurtle",
      "outputs": [],
      "stateMutability": "nonpayable",
      "type": "function"
    },
    {
      "inputs": [
        {
          "internalType": "uint256",
          "name": "_score",
          "type": "uint256"
        },
        {
          "internalType": "string",
          "name": "_tokenURI",
          "type": "string"
        },
        {
          "internalType": "bytes",
          "name": "_signature",
          "type": "bytes"
        },
        {
          "internalType": "uint256",
          "name": "_tokenId",
          "type": "uint256"
        }
      ],
      "name": "upgradeTurtle",
      "outputs": [],
      "stateMutability": "nonpayable",
      "type": "function"
    },
    {
      "inputs": [
        {
          "internalType": "uint256",
          "name": "_tokenId",
          "type": "uint256"
        }
      ],
      "name": "buyTurtle",
      "outputs": [],
      "stateMutability": "payable",
      "type": "function"
    },
    {
      "inputs": [
        {
          "internalType": "uint256",
          "name": "_tokenId",
          "type": "uint256"
        },
        {
          "internalType": "uint256",
          "name": "_price",
          "type": "uint256"
        }
      ],
      "name": "putUpTurtleForSale",
      "outputs": [],
      "stateMutability": "nonpayable",
      "type": "function"
    },
    {
      "inputs": [
        {
          "internalType": "address",
          "name": "_walletAddress",
          "type": "address"
        }
      ],
      "name": "setSignedWalletAddress",
      "outputs": [],
      "stateMutability": "nonpayable",
      "type": "function"
    },
    {
      "inputs": [
        {
          "internalType": "uint256",
          "name": "_tokenId",
          "type": "uint256"
        },
        {
          "internalType": "string",
          "name": "_tokenURI",
          "type": "string"
        }
      ],
      "name": "updateTokenURI",
      "outputs": [],
      "stateMutability": "nonpayable",
      "type": "function"
    }
  ],
  "bytecode": "0x60806040523480156200001157600080fd5b506040518060400160405280600f81526020017f547572746c6543686172616374657200000000000000000000000000000000008152506040518060400160405280600481526020017f5452544c00000000000000000000000000000000000000000000000000000000815250620000966301ffc9a760e01b6200015960201b60201c565b8160069080519060200190620000ae92919062000262565b508060079080519060200190620000c792919062000262565b50620000e06380ac58cd60e01b6200015960201b60201c565b620000f8635b5e139f60e01b6200015960201b60201c565b6200011063780e9d6360e01b6200015960201b60201c565b505033600a60006101000a81548173ffffffffffffffffffffffffffffffffffffffff021916908373ffffffffffffffffffffffffffffffffffffffff16021790555062000311565b63ffffffff60e01b817bffffffffffffffffffffffffffffffffffffffffffffffffffffffff19161415620001f6576040517f08c379a000000000000000000000000000000000000000000000000000000000815260040180806020018281038252601c8152602001807f4552433136353a20696e76616c696420696e746572666163652069640000000081525060200191505060405180910390fd5b6001600080837bffffffffffffffffffffffffffffffffffffffffffffffffffffffff19167bffffffffffffffffffffffffffffffffffffffffffffffffffffffff1916815260200190815260200160002060006101000a81548160ff02191690831515021790555050565b828054600181600116156101000203166002900490600052602060002090601f016020900481019282601f10620002a557805160ff1916838001178555620002d6565b82800160010185558215620002d6579182015b82811115620002d5578251825591602001919060010190620002b8565b5b509050620002e59190620002e9565b5090565b6200030e91905b808211156200030a576000816000905550600101620002f0565b5090565b90565b6146e780620003216000396000f3fe6080604052600436106101b65760003560e01c80634f6ccce7116100ec578063a748efb21161008a578063ce606ee011610064578063ce606ee014610eeb578063e503cafa14610f42578063e985e9c514610fa7578063f2044fe914611030576101b6565b8063a748efb214610cd6578063b88d4fde14610d25578063c87b56dd14610e37576101b6565b806370a08231116100c657806370a0823114610a1b5780638eb20a0514610a8057806395d89b4114610be9578063a22cb46514610c79576101b6565b80634f6ccce7146108c15780636352211e146109105780636c0360eb1461098b576101b6565b8063184d9bb9116101595780632d9f0dd0116101335780632d9f0dd01461060d5780632f745c591461078057806335f4ee69146107ef57806342842e0e14610846576101b6565b8063184d9bb91461047b57806318e97fd1146104c057806323b872dd14610592576101b6565b8063081812fc11610195578063081812fc14610329578063095ea7b3146103a45780630ce8a614146103ff57806318160ddd14610450576101b6565b8062ce8e3e146101bb57806301ffc9a71461022757806306fdde0314610299575b600080fd5b3480156101c757600080fd5b506101d061105e565b6040518080602001828103825283818151815260200191508051906020019060200280838360005b838110156102135780820151818401526020810190506101f8565b505050509050019250505060405180910390f35b34801561023357600080fd5b5061027f6004803603602081101561024a57600080fd5b8101908080357bffffffffffffffffffffffffffffffffffffffffffffffffffffffff191690602001909291905050506110ec565b604051808215151515815260200191505060405180910390f35b3480156102a557600080fd5b506102ae611153565b6040518080602001828103825283818151815260200191508051906020019080838360005b838110156102ee5780820151818401526020810190506102d3565b50505050905090810190601f16801561031b5780820380516001836020036101000a031916815260200191505b509250505060405180910390f35b34801561033557600080fd5b506103626004803603602081101561034c57600080fd5b81019080803590602001909291905050506111f5565b604051808273ffffffffffffffffffffffffffffffffffffffff1673ffffffffffffffffffffffffffffffffffffffff16815260200191505060405180910390f35b3480156103b057600080fd5b506103fd600480360360408110156103c757600080fd5b81019080803573ffffffffffffffffffffffffffffffffffffffff16906020019092919080359060200190929190505050611290565b005b34801561040b57600080fd5b5061044e6004803603602081101561042257600080fd5b81019080803573ffffffffffffffffffffffffffffffffffffffff1690602001909291905050506113d4565b005b34801561045c57600080fd5b506104656114be565b6040518082815260200191505060405180910390f35b34801561048757600080fd5b506104be6004803603604081101561049e57600080fd5b8101908080359060200190929190803590602001909291905050506114cf565b005b3480156104cc57600080fd5b50610590600480360360408110156104e357600080fd5b81019080803590602001909291908035906020019064010000000081111561050a57600080fd5b82018360208201111561051c57600080fd5b8035906020019184600183028401116401000000008311171561053e57600080fd5b91908080601f016020809104026020016040519081016040528093929190818152602001838380828437600081840152601f19601f820116905080830192505050505050509192919290505050611588565b005b34801561059e57600080fd5b5061060b600480360360608110156105b557600080fd5b81019080803573ffffffffffffffffffffffffffffffffffffffff169060200190929190803573ffffffffffffffffffffffffffffffffffffffff1690602001909291908035906020019092919050505061163c565b005b34801561061957600080fd5b5061077e6004803603608081101561063057600080fd5b81019080803590602001909291908035906020019064010000000081111561065757600080fd5b82018360208201111561066957600080fd5b8035906020019184600183028401116401000000008311171561068b57600080fd5b91908080601f016020809104026020016040519081016040528093929190818152602001838380828437600081840152601f19601f820116905080830192505050505050509192919290803590602001906401000000008111156106ee57600080fd5b82018360208201111561070057600080fd5b8035906020019184600183028401116401000000008311171561072257600080fd5b91908080601f016020809104026020016040519081016040528093929190818152602001838380828437600081840152601f19601f820116905080830192505050505050509192919290803590602001909291905050506116b2565b005b34801561078c57600080fd5b506107d9600480360360408110156107a357600080fd5b81019080803573ffffffffffffffffffffffffffffffffffffffff16906020019092919080359060200190929190505050611b01565b6040518082815260200191505060405180910390f35b3480156107fb57600080fd5b50610804611b5c565b604051808273ffffffffffffffffffffffffffffffffffffffff1673ffffffffffffffffffffffffffffffffffffffff16815260200191505060405180910390f35b34801561085257600080fd5b506108bf6004803603606081101561086957600080fd5b81019080803573ffffffffffffffffffffffffffffffffffffffff169060200190929190803573ffffffffffffffffffffffffffffffffffffffff16906020019092919080359060200190929190505050611b82565b005b3480156108cd57600080fd5b506108fa600480360360208110156108e457600080fd5b8101908080359060200190929190505050611ba2565b6040518082815260200191505060405180910390f35b34801561091c57600080fd5b506109496004803603602081101561093357600080fd5b8101908080359060200190929190505050611bc5565b604051808273ffffffffffffffffffffffffffffffffffffffff1673ffffffffffffffffffffffffffffffffffffffff16815260200191505060405180910390f35b34801561099757600080fd5b506109a0611bfc565b6040518080602001828103825283818151815260200191508051906020019080838360005b838110156109e05780820151818401526020810190506109c5565b50505050905090810190601f168015610a0d5780820380516001836020036101000a031916815260200191505b509250505060405180910390f35b348015610a2757600080fd5b50610a6a60048036036020811015610a3e57600080fd5b81019080803573ffffffffffffffffffffffffffffffffffffffff169060200190929190505050611c9e565b6040518082815260200191505060405180910390f35b348015610a8c57600080fd5b50610be760048036036060811015610aa357600080fd5b810190808035906020019092919080359060200190640100000000811115610aca57600080fd5b820183602082011115610adc57600080fd5b80359060200191846001830284011164010000000083111715610afe57600080fd5b91908080601f016020809104026020016040519081016040528093929190818152602001838380828437600081840152601f19601f82011690508083019250505050505050919291929080359060200190640100000000811115610b6157600080fd5b820183602082011115610b7357600080fd5b80359060200191846001830284011164010000000083111715610b9557600080fd5b91908080601f016020809104026020016040519081016040528093929190818152602001838380828437600081840152601f19601f820116905080830192505050505050509192919290505050611d73565b005b348015610bf557600080fd5b50610bfe612180565b6040518080602001828103825283818151815260200191508051906020019080838360005b83811015610c3e578082015181840152602081019050610c23565b50505050905090810190601f168015610c6b5780820380516001836020036101000a031916815260200191505b509250505060405180910390f35b348015610c8557600080fd5b50610cd460048036036040811015610c9c57600080fd5b81019080803573ffffffffffffffffffffffffffffffffffffffff169060200190929190803515159060200190929190505050612222565b005b348015610ce257600080fd5b50610d0f60048036036020811015610cf957600080fd5b81019080803590602001909291905050506123da565b6040518082815260200191505060405180910390f35b348015610d3157600080fd5b50610e3560048036036080811015610d4857600080fd5b81019080803573ffffffffffffffffffffffffffffffffffffffff169060200190929190803573ffffffffffffffffffffffffffffffffffffffff1690602001909291908035906020019092919080359060200190640100000000811115610daf57600080fd5b820183602082011115610dc157600080fd5b80359060200191846001830284011164010000000083111715610de357600080fd5b91908080601f016020809104026020016040519081016040528093929190818152602001838380828437600081840152601f19601f8201169050808301925050505050505091929192905050506123f2565b005b348015610e4357600080fd5b50610e7060048036036020811015610e5a57600080fd5b810190808035906020019092919050505061246a565b6040518080602001828103825283818151815260200191508051906020019080838360005b83811015610eb0578082015181840152602081019050610e95565b50505050905090810190601f168015610edd5780820380516001836020036101000a031916815260200191505b509250505060405180910390f35b348015610ef757600080fd5b50610f0061273b565b604051808273ffffffffffffffffffffffffffffffffffffffff1673ffffffffffffffffffffffffffffffffffffffff16815260200191505060405180910390f35b348015610f4e57600080fd5b50610f9160048036036020811015610f6557600080fd5b81019080803573ffffffffffffffffffffffffffffffffffffffff169060200190929190505050612761565b6040518082815260200191505060405180910390f35b348015610fb357600080fd5b5061101660048036036040811015610fca57600080fd5b81019080803573ffffffffffffffffffffffffffffffffffffffff169060200190929190803573ffffffffffffffffffffffffffffffffffffffff169060200190929190505050612779565b604051808215151515815260200191505060405180910390f35b61105c6004803603602081101561104657600080fd5b810190808035906020019092919050505061280d565b005b6060600b8054806020026020016040519081016040528092919081815260200182805480156110e257602002820191906000526020600020905b8160009054906101000a900473ffffffffffffffffffffffffffffffffffffffff1673ffffffffffffffffffffffffffffffffffffffff1681526020019060010190808311611098575b5050505050905090565b6000806000837bffffffffffffffffffffffffffffffffffffffffffffffffffffffff19167bffffffffffffffffffffffffffffffffffffffffffffffffffffffff1916815260200190815260200160002060009054906101000a900460ff169050919050565b606060068054600181600116156101000203166002900480601f0160208091040260200160405190810160405280929190818152602001828054600181600116156101000203166002900480156111eb5780601f106111c0576101008083540402835291602001916111eb565b820191906000526020600020905b8154815290600101906020018083116111ce57829003601f168201915b5050505050905090565b600061120082612a65565b611255576040517f08c379a000000000000000000000000000000000000000000000000000000000815260040180806020018281038252602c81526020018061458c602c913960400191505060405180910390fd5b6004600083815260200190815260200160002060009054906101000a900473ffffffffffffffffffffffffffffffffffffffff169050919050565b600061129b82611bc5565b90508073ffffffffffffffffffffffffffffffffffffffff168373ffffffffffffffffffffffffffffffffffffffff161415611322576040517f08c379a000000000000000000000000000000000000000000000000000000000815260040180806020018281038252602181526020018061463c6021913960400191505060405180910390fd5b8073ffffffffffffffffffffffffffffffffffffffff16611341612a82565b73ffffffffffffffffffffffffffffffffffffffff161480611370575061136f8161136a612a82565b612779565b5b6113c5576040517f08c379a00000000000000000000000000000000000000000000000000000000081526004018080602001828103825260388152602001806144bd6038913960400191505060405180910390fd5b6113cf8383612a8a565b505050565b600a60009054906101000a900473ffffffffffffffffffffffffffffffffffffffff1673ffffffffffffffffffffffffffffffffffffffff163373ffffffffffffffffffffffffffffffffffffffff161461147a576040517f08c379a000000000000000000000000000000000000000000000000000000000815260040180806020018281038252602481526020018061468e6024913960400191505060405180910390fd5b80600c60006101000a81548173ffffffffffffffffffffffffffffffffffffffff021916908373ffffffffffffffffffffffffffffffffffffffff16021790555050565b60006114ca6002612b43565b905090565b6114e06114da612a82565b83612b58565b611535576040517f08c379a00000000000000000000000000000000000000000000000000000000081526004018080602001828103825260288152602001806143a86028913960400191505060405180910390fd5b80600d6000848152602001908152602001600020819055507f5cfd7981b7826a1543139612aae7cac778558e6d89d166a9d4b69423535fe087826040518082815260200191505060405180910390a15050565b600a60009054906101000a900473ffffffffffffffffffffffffffffffffffffffff1673ffffffffffffffffffffffffffffffffffffffff163373ffffffffffffffffffffffffffffffffffffffff161461162e576040517f08c379a000000000000000000000000000000000000000000000000000000000815260040180806020018281038252602481526020018061468e6024913960400191505060405180910390fd5b6116388282612c4c565b5050565b61164d611647612a82565b82612b58565b6116a2576040517f08c379a000000000000000000000000000000000000000000000000000000000815260040180806020018281038252603181526020018061465d6031913960400191505060405180910390fd5b6116ad838383612cd6565b505050565b60606116bd85612f19565b33604051602001808273ffffffffffffffffffffffffffffffffffffffff1673ffffffffffffffffffffffffffffffffffffffff1660601b81526014019150506040516020818303038152906040528561171685612f19565b6040516020018085805190602001908083835b6020831061174c5780518252602082019150602081019050602083039250611729565b6001836020036101000a03801982511681845116808217855250505050505090500184805190602001908083835b6020831061179d578051825260208201915060208101905060208303925061177a565b6001836020036101000a03801982511681845116808217855250505050505090500183805190602001908083835b602083106117ee57805182526020820191506020810190506020830392506117cb565b6001836020036101000a03801982511681845116808217855250505050505090500182805190602001908083835b6020831061183f578051825260208201915060208101905060208303925061181c565b6001836020036101000a03801982511681845116808217855250505050505090500194505050505060405160208183030381529060405290506000816040516020018082805190602001908083835b602083106118b1578051825260208201915060208101905060208303925061188e565b6001836020036101000a0380198251168184511680821785525050505050509050019150506040516020818303038152906040528051906020012060405160200180807f19457468657265756d205369676e6564204d6573736167653a0a333200000000815250601c018281526020019150506040516020818303038152906040528051906020012090506000611951858361306990919063ffffffff16565b9050600c60009054906101000a900473ffffffffffffffffffffffffffffffffffffffff1673ffffffffffffffffffffffffffffffffffffffff168173ffffffffffffffffffffffffffffffffffffffff1614611a16576040517f08c379a00000000000000000000000000000000000000000000000000000000081526004018080602001828103825260118152602001807f496e76616c6964207369676e617475726500000000000000000000000000000081525060200191505060405180910390fd5b600e60003373ffffffffffffffffffffffffffffffffffffffff1673ffffffffffffffffffffffffffffffffffffffff168152602001908152602001600020548711611aad576040517f08c379a00000000000000000000000000000000000000000000000000000000081526004018080602001828103825260238152602001806144026023913960400191505060405180910390fd5b611ab78733613116565b611ac18487612c4c565b7f56f213350901e1a8f4e71b0ca5462d911c94c478eab593135b8a8ba5e7c1acea846040518082815260200191505060405180910390a150505050505050565b6000611b5482600160008673ffffffffffffffffffffffffffffffffffffffff1673ffffffffffffffffffffffffffffffffffffffff16815260200190815260200160002061320a90919063ffffffff16565b905092915050565b600c60009054906101000a900473ffffffffffffffffffffffffffffffffffffffff1681565b611b9d838383604051806020016040528060008152506123f2565b505050565b600080611bb983600261322490919063ffffffff16565b50905080915050919050565b6000611bf58260405180606001604052806029815260200161451f6029913960026132539092919063ffffffff16565b9050919050565b606060098054600181600116156101000203166002900480601f016020809104026020016040519081016040528092919081815260200182805460018160011615610100020316600290048015611c945780601f10611c6957610100808354040283529160200191611c94565b820191906000526020600020905b815481529060010190602001808311611c7757829003601f168201915b5050505050905090565b60008073ffffffffffffffffffffffffffffffffffffffff168273ffffffffffffffffffffffffffffffffffffffff161415611d25576040517f08c379a000000000000000000000000000000000000000000000000000000000815260040180806020018281038252602a8152602001806144f5602a913960400191505060405180910390fd5b611d6c600160008473ffffffffffffffffffffffffffffffffffffffff1673ffffffffffffffffffffffffffffffffffffffff168152602001908152602001600020613272565b9050919050565b6060611d7e84612f19565b33604051602001808273ffffffffffffffffffffffffffffffffffffffff1673ffffffffffffffffffffffffffffffffffffffff1660601b8152601401915050604051602081830303815290604052846040516020018084805190602001908083835b60208310611e045780518252602082019150602081019050602083039250611de1565b6001836020036101000a03801982511681845116808217855250505050505090500183805190602001908083835b60208310611e555780518252602082019150602081019050602083039250611e32565b6001836020036101000a03801982511681845116808217855250505050505090500182805190602001908083835b60208310611ea65780518252602082019150602081019050602083039250611e83565b6001836020036101000a038019825116818451168082178552505050505050905001935050505060405160208183030381529060405290506000816040516020018082805190602001908083835b60208310611f175780518252602082019150602081019050602083039250611ef4565b6001836020036101000a0380198251168184511680821785525050505050509050019150506040516020818303038152906040528051906020012060405160200180807f19457468657265756d205369676e6564204d6573736167653a0a333200000000815250601c018281526020019150506040516020818303038152906040528051906020012090506000611fb7848361306990919063ffffffff16565b9050600c60009054906101000a900473ffffffffffffffffffffffffffffffffffffffff1673ffffffffffffffffffffffffffffffffffffffff168173ffffffffffffffffffffffffffffffffffffffff161461207c576040517f08c379a00000000000000000000000000000000000000000000000000000000081526004018080602001828103825260118152602001807f496e76616c6964207369676e617475726500000000000000000000000000000081525060200191505060405180910390fd5b600e60003373ffffffffffffffffffffffffffffffffffffffff1673ffffffffffffffffffffffffffffffffffffffff168152602001908152602001600020548611612113576040517f08c379a00000000000000000000000000000000000000000000000000000000081526004018080602001828103825260238152602001806144026023913960400191505060405180910390fd5b61211d8633613116565b600060016121296114be565b0390506121363382613287565b6121408187612c4c565b7f375888a712a23aa4f960c32984e16baf008be32cc52f7b9c12212feee89eb608816040518082815260200191505060405180910390a150505050505050565b606060078054600181600116156101000203166002900480601f0160208091040260200160405190810160405280929190818152602001828054600181600116156101000203166002900480156122185780601f106121ed57610100808354040283529160200191612218565b820191906000526020600020905b8154815290600101906020018083116121fb57829003601f168201915b5050505050905090565b61222a612a82565b73ffffffffffffffffffffffffffffffffffffffff168273ffffffffffffffffffffffffffffffffffffffff1614156122cb576040517f08c379a00000000000000000000000000000000000000000000000000000000081526004018080602001828103825260198152602001807f4552433732313a20617070726f766520746f2063616c6c65720000000000000081525060200191505060405180910390fd5b80600560006122d8612a82565b73ffffffffffffffffffffffffffffffffffffffff1673ffffffffffffffffffffffffffffffffffffffff16815260200190815260200160002060008473ffffffffffffffffffffffffffffffffffffffff1673ffffffffffffffffffffffffffffffffffffffff16815260200190815260200160002060006101000a81548160ff0219169083151502179055508173ffffffffffffffffffffffffffffffffffffffff16612385612a82565b73ffffffffffffffffffffffffffffffffffffffff167f17307eab39ab6107e8899845ad3d59bd9653f200f220920489ca2b5937696c3183604051808215151515815260200191505060405180910390a35050565b600d6020528060005260406000206000915090505481565b6124036123fd612a82565b83612b58565b612458576040517f08c379a000000000000000000000000000000000000000000000000000000000815260040180806020018281038252603181526020018061465d6031913960400191505060405180910390fd5b612464848484846132a5565b50505050565b606061247582612a65565b6124ca576040517f08c379a000000000000000000000000000000000000000000000000000000000815260040180806020018281038252602f81526020018061460d602f913960400191505060405180910390fd5b6060600860008481526020019081526020016000208054600181600116156101000203166002900480601f0160208091040260200160405190810160405280929190818152602001828054600181600116156101000203166002900480156125735780601f1061254857610100808354040283529160200191612573565b820191906000526020600020905b81548152906001019060200180831161255657829003601f168201915b505050505090506060612584611bfc565b905060008151141561259a578192505050612736565b60008251111561266b5780826040516020018083805190602001908083835b602083106125dc57805182526020820191506020810190506020830392506125b9565b6001836020036101000a03801982511681845116808217855250505050505090500182805190602001908083835b6020831061262d578051825260208201915060208101905060208303925061260a565b6001836020036101000a0380198251168184511680821785525050505050509050019250505060405160208183030381529060405292505050612736565b8061267585613317565b6040516020018083805190602001908083835b602083106126ab5780518252602082019150602081019050602083039250612688565b6001836020036101000a03801982511681845116808217855250505050505090500182805190602001908083835b602083106126fc57805182526020820191506020810190506020830392506126d9565b6001836020036101000a03801982511681845116808217855250505050505090500192505050604051602081830303815290604052925050505b919050565b600a60009054906101000a900473ffffffffffffffffffffffffffffffffffffffff1681565b600e6020528060005260406000206000915090505481565b6000600560008473ffffffffffffffffffffffffffffffffffffffff1673ffffffffffffffffffffffffffffffffffffffff16815260200190815260200160002060008373ffffffffffffffffffffffffffffffffffffffff1673ffffffffffffffffffffffffffffffffffffffff16815260200190815260200160002060009054906101000a900460ff16905092915050565b6000600d60008381526020019081526020016000205411612896576040517f08c379a00000000000000000000000000000000000000000000000000000000081526004018080602001828103825260208152602001807f54686520547572746c652073686f756c6420626520757020666f722073616c6581525060200191505060405180910390fd5b6000600d60008381526020019081526020016000205490506000600d60008481526020019081526020016000208190555060006128d283611bc5565b9050813411612949576040517f08c379a000000000000000000000000000000000000000000000000000000000815260040180806020018281038252601d8152602001807f596f75206e65656420746f206861766520656e6f75676820457468657200000081525060200191505060405180910390fd5b61298a8133856040518060400160405280600c81526020017f427579206120547572746c6500000000000000000000000000000000000000008152506132a5565b60008190508073ffffffffffffffffffffffffffffffffffffffff166108fc849081150290604051600060405180830381858888f193505050501580156129d5573d6000803e3d6000fd5b5082341115612a28573373ffffffffffffffffffffffffffffffffffffffff166108fc8434039081150290604051600060405180830381858888f19350505050158015612a26573d6000803e3d6000fd5b505b7f8c78864e67a7dfb4ed185a3b2dad4a13fd8a7f807e84ecf1687eab5cb297676e846040518082815260200191505060405180910390a150505050565b6000612a7b82600261345e90919063ffffffff16565b9050919050565b600033905090565b816004600083815260200190815260200160002060006101000a81548173ffffffffffffffffffffffffffffffffffffffff021916908373ffffffffffffffffffffffffffffffffffffffff160217905550808273ffffffffffffffffffffffffffffffffffffffff16612afd83611bc5565b73ffffffffffffffffffffffffffffffffffffffff167f8c5be1e5ebec7d5bd14f71427d1e84f3dd0314c0f7b2291e5b200ac8c7c3b92560405160405180910390a45050565b6000612b5182600001613478565b9050919050565b6000612b6382612a65565b612bb8576040517f08c379a000000000000000000000000000000000000000000000000000000000815260040180806020018281038252602c815260200180614491602c913960400191505060405180910390fd5b6000612bc383611bc5565b90508073ffffffffffffffffffffffffffffffffffffffff168473ffffffffffffffffffffffffffffffffffffffff161480612c3257508373ffffffffffffffffffffffffffffffffffffffff16612c1a846111f5565b73ffffffffffffffffffffffffffffffffffffffff16145b80612c435750612c428185612779565b5b91505092915050565b612c5582612a65565b612caa576040517f08c379a000000000000000000000000000000000000000000000000000000000815260040180806020018281038252602c8152602001806145b8602c913960400191505060405180910390fd5b80600860008481526020019081526020016000209080519060200190612cd19291906142e0565b505050565b8273ffffffffffffffffffffffffffffffffffffffff16612cf682611bc5565b73ffffffffffffffffffffffffffffffffffffffff1614612d62576040517f08c379a00000000000000000000000000000000000000000000000000000000081526004018080602001828103825260298152602001806145e46029913960400191505060405180910390fd5b600073ffffffffffffffffffffffffffffffffffffffff168273ffffffffffffffffffffffffffffffffffffffff161415612de8576040517f08c379a00000000000000000000000000000000000000000000000000000000081526004018080602001828103825260248152602001806144256024913960400191505060405180910390fd5b612df3838383613489565b612dfe600082612a8a565b612e4f81600160008673ffffffffffffffffffffffffffffffffffffffff1673ffffffffffffffffffffffffffffffffffffffff16815260200190815260200160002061348e90919063ffffffff16565b50612ea181600160008573ffffffffffffffffffffffffffffffffffffffff1673ffffffffffffffffffffffffffffffffffffffff1681526020019081526020016000206134a890919063ffffffff16565b50612eb8818360026134c29092919063ffffffff16565b50808273ffffffffffffffffffffffffffffffffffffffff168473ffffffffffffffffffffffffffffffffffffffff167fddf252ad1be2c89b69c2b068fc378daa952ba7f163c4a11628f55a4df523b3ef60405160405180910390a4505050565b60606000821415612f61576040518060400160405280600181526020017f30000000000000000000000000000000000000000000000000000000000000008152509050613064565b600082905060005b60008214612f8b578080600101915050600a8281612f8357fe5b049150612f69565b60608167ffffffffffffffff81118015612fa457600080fd5b506040519080825280601f01601f191660200182016040528015612fd75781602001600182028036833780820191505090505b50905060008290505b6000861461305c576001810390506000600a808881612ffb57fe5b04028703603001905060008160f81b90508084848151811061301957fe5b60200101907effffffffffffffffffffffffffffffffffffffffffffffffffffffffffffff1916908160001a905350600a888161305257fe5b0497505050612fe0565b819450505050505b919050565b600060418251146130e2576040517f08c379a000000000000000000000000000000000000000000000000000000000815260040180806020018281038252601f8152602001807f45434453413a20696e76616c6964207369676e6174757265206c656e6774680081525060200191505060405180910390fd5b60008060006020850151925060408501519150606085015160001a905061310b868285856134f7565b935050505092915050565b6000600e60008373ffffffffffffffffffffffffffffffffffffffff1673ffffffffffffffffffffffffffffffffffffffff1681526020019081526020016000205414156131c257600b819080600181540180825580915050600190039060005260206000200160009091909190916101000a81548173ffffffffffffffffffffffffffffffffffffffff021916908373ffffffffffffffffffffffffffffffffffffffff1602179055505b81600e60008373ffffffffffffffffffffffffffffffffffffffff1673ffffffffffffffffffffffffffffffffffffffff168152602001908152602001600020819055505050565b600061321983600001836136f9565b60001c905092915050565b600080600080613237866000018661377c565b915091508160001c8160001c8090509350935050509250929050565b6000613266846000018460001b84613815565b60001c90509392505050565b60006132808260000161390b565b9050919050565b6132a182826040518060200160405280600081525061391c565b5050565b6132b0848484612cd6565b6132bc8484848461398d565b613311576040517f08c379a00000000000000000000000000000000000000000000000000000000081526004018080602001828103825260328152602001806143d06032913960400191505060405180910390fd5b50505050565b6060600082141561335f576040518060400160405280600181526020017f30000000000000000000000000000000000000000000000000000000000000008152509050613459565b600082905060005b60008214613389578080600101915050600a828161338157fe5b049150613367565b60608167ffffffffffffffff811180156133a257600080fd5b506040519080825280601f01601f1916602001820160405280156133d55781602001600182028036833780820191505090505b50905060006001830390508593505b6000841461345157600a84816133f657fe5b0660300160f81b8282806001900393508151811061341057fe5b60200101907effffffffffffffffffffffffffffffffffffffffffffffffffffffffffffff1916908160001a905350600a848161344957fe5b0493506133e4565b819450505050505b919050565b6000613470836000018360001b613bd2565b905092915050565b600081600001805490509050919050565b505050565b60006134a0836000018360001b613bf5565b905092915050565b60006134ba836000018360001b613cdd565b905092915050565b60006134ee846000018460001b8473ffffffffffffffffffffffffffffffffffffffff1660001b613d4d565b90509392505050565b60007f7fffffffffffffffffffffffffffffff5d576e7357a4501ddfe92f46681b20a08260001c1115613575576040517f08c379a00000000000000000000000000000000000000000000000000000000081526004018080602001828103825260228152602001806144496022913960400191505060405180910390fd5b601b8460ff16148061358a5750601c8460ff16145b6135df576040517f08c379a00000000000000000000000000000000000000000000000000000000081526004018080602001828103825260228152602001806145486022913960400191505060405180910390fd5b600060018686868660405160008152602001604052604051808581526020018460ff1660ff1681526020018381526020018281526020019450505050506020604051602081039080840390855afa15801561363e573d6000803e3d6000fd5b505050602060405103519050600073ffffffffffffffffffffffffffffffffffffffff168173ffffffffffffffffffffffffffffffffffffffff1614156136ed576040517f08c379a00000000000000000000000000000000000000000000000000000000081526004018080602001828103825260188152602001807f45434453413a20696e76616c6964207369676e6174757265000000000000000081525060200191505060405180910390fd5b80915050949350505050565b60008183600001805490501161375a576040517f08c379a00000000000000000000000000000000000000000000000000000000081526004018080602001828103825260228152602001806143866022913960400191505060405180910390fd5b82600001828154811061376957fe5b9060005260206000200154905092915050565b600080828460000180549050116137de576040517f08c379a000000000000000000000000000000000000000000000000000000000815260040180806020018281038252602281526020018061456a6022913960400191505060405180910390fd5b60008460000184815481106137ef57fe5b906000526020600020906002020190508060000154816001015492509250509250929050565b600080846001016000858152602001908152602001600020549050600081141583906138dc576040517f08c379a00000000000000000000000000000000000000000000000000000000081526004018080602001828103825283818151815260200191508051906020019080838360005b838110156138a1578082015181840152602081019050613886565b50505050905090810190601f1680156138ce5780820380516001836020036101000a031916815260200191505b509250505060405180910390fd5b508460000160018203815481106138ef57fe5b9060005260206000209060020201600101549150509392505050565b600081600001805490509050919050565b6139268383613e29565b613933600084848461398d565b613988576040517f08c379a00000000000000000000000000000000000000000000000000000000081526004018080602001828103825260328152602001806143d06032913960400191505060405180910390fd5b505050565b60006139ae8473ffffffffffffffffffffffffffffffffffffffff1661401d565b6139bb5760019050613bca565b6060613b5163150b7a0260e01b6139d0612a82565b888787604051602401808573ffffffffffffffffffffffffffffffffffffffff1673ffffffffffffffffffffffffffffffffffffffff1681526020018473ffffffffffffffffffffffffffffffffffffffff1673ffffffffffffffffffffffffffffffffffffffff16815260200183815260200180602001828103825283818151815260200191508051906020019080838360005b83811015613a80578082015181840152602081019050613a65565b50505050905090810190601f168015613aad5780820380516001836020036101000a031916815260200191505b5095505050505050604051602081830303815290604052907bffffffffffffffffffffffffffffffffffffffffffffffffffffffff19166020820180517bffffffffffffffffffffffffffffffffffffffffffffffffffffffff83818316178352505050506040518060600160405280603281526020016143d0603291398773ffffffffffffffffffffffffffffffffffffffff166140309092919063ffffffff16565b90506000818060200190516020811015613b6a57600080fd5b8101908080519060200190929190505050905063150b7a0260e01b7bffffffffffffffffffffffffffffffffffffffffffffffffffffffff1916817bffffffffffffffffffffffffffffffffffffffffffffffffffffffff191614925050505b949350505050565b600080836001016000848152602001908152602001600020541415905092915050565b60008083600101600084815260200190815260200160002054905060008114613cd15760006001820390506000600186600001805490500390506000866000018281548110613c4057fe5b9060005260206000200154905080876000018481548110613c5d57fe5b9060005260206000200181905550600183018760010160008381526020019081526020016000208190555086600001805480613c9557fe5b60019003818190600052602060002001600090559055866001016000878152602001908152602001600020600090556001945050505050613cd7565b60009150505b92915050565b6000613ce98383614048565b613d42578260000182908060018154018082558091505060019003906000526020600020016000909190919091505582600001805490508360010160008481526020019081526020016000208190555060019050613d47565b600090505b92915050565b6000808460010160008581526020019081526020016000205490506000811415613df457846000016040518060400160405280868152602001858152509080600181540180825580915050600190039060005260206000209060020201600090919091909150600082015181600001556020820151816001015550508460000180549050856001016000868152602001908152602001600020819055506001915050613e22565b82856000016001830381548110613e0757fe5b90600052602060002090600202016001018190555060009150505b9392505050565b600073ffffffffffffffffffffffffffffffffffffffff168273ffffffffffffffffffffffffffffffffffffffff161415613ecc576040517f08c379a00000000000000000000000000000000000000000000000000000000081526004018080602001828103825260208152602001807f4552433732313a206d696e7420746f20746865207a65726f206164647265737381525060200191505060405180910390fd5b613ed581612a65565b15613f48576040517f08c379a000000000000000000000000000000000000000000000000000000000815260040180806020018281038252601c8152602001807f4552433732313a20746f6b656e20616c7265616479206d696e7465640000000081525060200191505060405180910390fd5b613f5460008383613489565b613fa581600160008573ffffffffffffffffffffffffffffffffffffffff1673ffffffffffffffffffffffffffffffffffffffff1681526020019081526020016000206134a890919063ffffffff16565b50613fbc818360026134c29092919063ffffffff16565b50808273ffffffffffffffffffffffffffffffffffffffff16600073ffffffffffffffffffffffffffffffffffffffff167fddf252ad1be2c89b69c2b068fc378daa952ba7f163c4a11628f55a4df523b3ef60405160405180910390a45050565b600080823b905060008111915050919050565b606061403f848460008561406b565b90509392505050565b600080836001016000848152602001908152602001600020541415905092915050565b6060824710156140c6576040517f08c379a000000000000000000000000000000000000000000000000000000000815260040180806020018281038252602681526020018061446b6026913960400191505060405180910390fd5b6140cf8561401d565b614141576040517f08c379a000000000000000000000000000000000000000000000000000000000815260040180806020018281038252601d8152602001807f416464726573733a2063616c6c20746f206e6f6e2d636f6e747261637400000081525060200191505060405180910390fd5b600060608673ffffffffffffffffffffffffffffffffffffffff1685876040518082805190602001908083835b60208310614191578051825260208201915060208101905060208303925061416e565b6001836020036101000a03801982511681845116808217855250505050505090500191505060006040518083038185875af1925050503d80600081146141f3576040519150601f19603f3d011682016040523d82523d6000602084013e6141f8565b606091505b5091509150614208828286614214565b92505050949350505050565b60608315614224578290506142d9565b6000835111156142375782518084602001fd5b816040517f08c379a00000000000000000000000000000000000000000000000000000000081526004018080602001828103825283818151815260200191508051906020019080838360005b8381101561429e578082015181840152602081019050614283565b50505050905090810190601f1680156142cb5780820380516001836020036101000a031916815260200191505b509250505060405180910390fd5b9392505050565b828054600181600116156101000203166002900490600052602060002090601f016020900481019282601f1061432157805160ff191683800117855561434f565b8280016001018555821561434f579182015b8281111561434e578251825591602001919060010190614333565b5b50905061435c9190614360565b5090565b61438291905b8082111561437e576000816000905550600101614366565b5090565b9056fe456e756d657261626c655365743a20696e646578206f7574206f6620626f756e64734552433732313a2043616c6c6572206973206e6f74206f776e6572206e6f7220617070726f7665644552433732313a207472616e7366657220746f206e6f6e20455243373231526563656976657220696d706c656d656e746572416c7265616479206d696e74656420617420746869732073636f7265206265666f72654552433732313a207472616e7366657220746f20746865207a65726f206164647265737345434453413a20696e76616c6964207369676e6174757265202773272076616c7565416464726573733a20696e73756666696369656e742062616c616e636520666f722063616c6c4552433732313a206f70657261746f7220717565727920666f72206e6f6e6578697374656e7420746f6b656e4552433732313a20617070726f76652063616c6c6572206973206e6f74206f776e6572206e6f7220617070726f76656420666f7220616c6c4552433732313a2062616c616e636520717565727920666f7220746865207a65726f20616464726573734552433732313a206f776e657220717565727920666f72206e6f6e6578697374656e7420746f6b656e45434453413a20696e76616c6964207369676e6174757265202776272076616c7565456e756d657261626c654d61703a20696e646578206f7574206f6620626f756e64734552433732313a20617070726f76656420717565727920666f72206e6f6e6578697374656e7420746f6b656e4552433732314d657461646174613a2055524920736574206f66206e6f6e6578697374656e7420746f6b656e4552433732313a207472616e73666572206f6620746f6b656e2074686174206973206e6f74206f776e4552433732314d657461646174613a2055524920717565727920666f72206e6f6e6578697374656e7420746f6b656e4552433732313a20617070726f76616c20746f2063757272656e74206f776e65724552433732313a207472616e736665722063616c6c6572206973206e6f74206f776e6572206e6f7220617070726f7665645468652063616c6c6572206973206e6f742074686520636f6e7472616374206f776e6572a26469706673582212207022f5df763457ad4940f2b27cadff057e8e940257d9a3559df132bb360b9f0d64736f6c63430006060033",
  "immutableReferences": {},
  "source": "// SPDX-License-Identifier: MIT\npragma solidity ^0.6.6;\n\nimport \"@openzeppelin/contracts/token/ERC721/ERC721.sol\";\nimport \"@openzeppelin/contracts/cryptography/ECDSA.sol\";\n\ncontract Turtis is ERC721 {\n  using ECDSA for bytes32;\n\n  address public contractOwner; // Owner of this contract\n\n  address[] private users; // Address array to store all the users\n\n  address public signedWalletAddress;\n\n  // Mapping from Token ID to Price\n  mapping(uint256 => uint256) public turtlesForSale;\n\n  // Mapping from User address to high score\n  mapping(address => uint256) public userAddressToHighScore;\n\n  // Events\n\n  // Emitted when a new Turtle is generated after reaching a new checkpoint in the game\n  event NewTurtleGenerated(uint256 tokenId);\n\n  // Emitted when an existing Turtle is upgraded by its owner\n  event TurtleUpgraded(uint256 tokenId);\n\n  // Emitted when a Turtle is bought\n  event TurtleBought(uint256 tokenId);\n\n  // Emitted when a Turtle is put up for sale\n  event TurtleUpForSale(uint256 tokenId);\n\n  // Contructor is called when an instance of 'TurtleCharacter' contract is deployed\n  constructor() public ERC721(\"TurtleCharacter\", \"TRTL\") {\n    contractOwner = msg.sender;\n  }\n\n  // Modifer that checks to see if msg.sender == contractOwner\n  modifier onlyContractOwner() {\n    require(\n      msg.sender == contractOwner,\n      \"The caller is not the contract owner\"\n    );\n    _;\n  }\n\n  // Function 'getUsers' returns the address array of users\n  function getUsers() public view returns (address[] memory) {\n    return users;\n  }\n\n  // Function 'setHighScore' sets a new highScore for the user\n  function setHighScore(uint256 _newHighScore, address _sender) internal {\n    if (userAddressToHighScore[_sender] == 0) {\n      users.push(_sender);\n    }\n    userAddressToHighScore[_sender] = _newHighScore;\n  }\n\n  // Function 'generateTurtle' mints a new Turtle NFT for the user\n  function generateTurtle(\n    uint256 _score,\n    string memory _tokenURI,\n    bytes memory _signature\n  ) public {\n    string memory message = string(\n      abi.encodePacked(\n        uint2str(_score),\n        string(abi.encodePacked(msg.sender)),\n        _tokenURI\n      )\n    );\n\n    bytes32 hash = keccak256(\n      abi.encodePacked(\n        \"\\x19Ethereum Signed Message:\\n32\",\n        keccak256(abi.encodePacked(message))\n      )\n    );\n    address walletAddress = hash.recover(_signature);\n    require(walletAddress == signedWalletAddress, \"Invalid signature\");\n    require(\n      _score > userAddressToHighScore[msg.sender],\n      \"Already minted at this score before\"\n    );\n    setHighScore(_score, msg.sender);\n    uint256 lastTokenId = totalSupply() - 1;\n    _safeMint(msg.sender, lastTokenId);\n    _setTokenURI(lastTokenId, _tokenURI);\n\n    emit NewTurtleGenerated(lastTokenId);\n  }\n\n  // Function 'upgradeTurtle' upgrades an existing Turtle NFT\n  function upgradeTurtle(\n    uint256 _score,\n    string memory _tokenURI,\n    bytes memory _signature,\n    uint256 _tokenId\n  ) public {\n    string memory message = string(\n      abi.encodePacked(\n        uint2str(_score),\n        string(abi.encodePacked(msg.sender)),\n        _tokenURI,\n        uint2str(_tokenId)\n      )\n    );\n\n    bytes32 hash = keccak256(\n      abi.encodePacked(\n        \"\\x19Ethereum Signed Message:\\n32\",\n        keccak256(abi.encodePacked(message))\n      )\n    );\n    address walletAddress = hash.recover(_signature);\n    require(walletAddress == signedWalletAddress, \"Invalid signature\");\n    require(\n      _score > userAddressToHighScore[msg.sender],\n      \"Already minted at this score before\"\n    );\n    setHighScore(_score, msg.sender);\n    _setTokenURI(_tokenId, _tokenURI);\n\n    emit TurtleUpgraded(_tokenId);\n  }\n\n  // Function 'buyTurtle' allows anyone to buy a turtle that is put up for sale\n  function buyTurtle(uint256 _tokenId) public payable {\n    require(turtlesForSale[_tokenId] > 0, \"The Turtle should be up for sale\");\n\n    uint256 turtleCost = turtlesForSale[_tokenId];\n    turtlesForSale[_tokenId] = 0;\n\n    address ownerAddress = ownerOf(_tokenId);\n    require(msg.value > turtleCost, \"You need to have enough Ether\");\n\n    _safeTransfer(ownerAddress, msg.sender, _tokenId, bytes(\"Buy a Turtle\")); // ERC721 Token is safely transferred using this function call\n\n    address payable ownerAddressPayable = payable(ownerAddress);\n    ownerAddressPayable.transfer(turtleCost);\n    if (msg.value > turtleCost) {\n      payable(msg.sender).transfer(msg.value - turtleCost); // Excess Ether is returned back to the buyer\n    }\n\n    emit TurtleBought(_tokenId);\n  }\n\n  // Function 'putUpTurtleForSale' allows a turtle owner to put it up for sale\n  function putUpTurtleForSale(uint256 _tokenId, uint256 _price) public {\n    require(\n      _isApprovedOrOwner(_msgSender(), _tokenId),\n      \"ERC721: Caller is not owner nor approved\"\n    );\n    turtlesForSale[_tokenId] = _price;\n\n    emit TurtleUpForSale(_tokenId);\n  }\n\n  // Function 'setTokenURI' sets the Token URI for the ERC721 standard token\n  function setTokenURI(string memory _tokenURI) private {\n    uint256 lastTokenId = totalSupply() - 1;\n    _setTokenURI(lastTokenId, _tokenURI);\n  }\n\n  // Function 'setSignedWalletAddress' sets the address of the wallet that signs the minting of the Turtle NFT\n  function setSignedWalletAddress(address _walletAddress)\n    public\n    onlyContractOwner\n  {\n    signedWalletAddress = _walletAddress;\n  }\n\n  // Function 'uint2str' converts a uint256 variable to a string variable\n  function uint2str(uint256 _i)\n    internal\n    pure\n    returns (string memory _uintAsString)\n  {\n    if (_i == 0) {\n      return \"0\";\n    }\n    uint256 j = _i;\n    uint256 len;\n    while (j != 0) {\n      len++;\n      j /= 10;\n    }\n    bytes memory bstr = new bytes(len);\n    uint256 k = len;\n    while (_i != 0) {\n      k = k - 1;\n      uint8 temp = (48 + uint8(_i - (_i / 10) * 10));\n      bytes1 b1 = bytes1(temp);\n      bstr[k] = b1;\n      _i /= 10;\n    }\n    return string(bstr);\n  }\n\n  // Function 'updateTokenURI' updates the Token URI for a specific Token\n  function updateTokenURI(uint256 _tokenId, string memory _tokenURI)\n    public\n    onlyContractOwner\n  {\n    _setTokenURI(_tokenId, _tokenURI);\n  }\n}\n",
  "sourcePath": "/mnt/c/Users/dines/downloads/nft-game/truffle/contracts/Turtis.sol",
  "compiler": {
    "name": "solc",
    "version": "0.6.6+commit.6c089d02.Emscripten.clang"
  },
  "schemaVersion": "3.4.1",
  "updatedAt": "2021-11-11T20:44:39.679Z",
  "devdoc": {
    "methods": {
      "approve(address,uint256)": {
        "details": "See {IERC721-approve}."
      },
      "balanceOf(address)": {
        "details": "See {IERC721-balanceOf}."
      },
      "baseURI()": {
        "details": "Returns the base URI set via {_setBaseURI}. This will be automatically added as a prefix in {tokenURI} to each token's URI, or to the token ID if no specific URI is set for that token ID."
      },
      "getApproved(uint256)": {
        "details": "See {IERC721-getApproved}."
      },
      "isApprovedForAll(address,address)": {
        "details": "See {IERC721-isApprovedForAll}."
      },
      "name()": {
        "details": "See {IERC721Metadata-name}."
      },
      "ownerOf(uint256)": {
        "details": "See {IERC721-ownerOf}."
      },
      "safeTransferFrom(address,address,uint256)": {
        "details": "See {IERC721-safeTransferFrom}."
      },
      "safeTransferFrom(address,address,uint256,bytes)": {
        "details": "See {IERC721-safeTransferFrom}."
      },
      "setApprovalForAll(address,bool)": {
        "details": "See {IERC721-setApprovalForAll}."
      },
      "supportsInterface(bytes4)": {
        "details": "See {IERC165-supportsInterface}.     * Time complexity O(1), guaranteed to always use less than 30 000 gas."
      },
      "symbol()": {
        "details": "See {IERC721Metadata-symbol}."
      },
      "tokenByIndex(uint256)": {
        "details": "See {IERC721Enumerable-tokenByIndex}."
      },
      "tokenOfOwnerByIndex(address,uint256)": {
        "details": "See {IERC721Enumerable-tokenOfOwnerByIndex}."
      },
      "tokenURI(uint256)": {
        "details": "See {IERC721Metadata-tokenURI}."
      },
      "totalSupply()": {
        "details": "See {IERC721Enumerable-totalSupply}."
      },
      "transferFrom(address,address,uint256)": {
        "details": "See {IERC721-transferFrom}."
      }
    }
  },
  "userdoc": {
    "methods": {}
  }
}