{
  "contractName": "Turtis",
  "abi": [
    {
      "inputs": [
        {
          "internalType": "address",
          "name": "marketplaceAddress",
          "type": "address"
        }
      ],
      "stateMutability": "nonpayable",
      "type": "constructor"
    },
    {
      "anonymous": false,
      "inputs": [
        {
          "indexed": true,
          "internalType": "address",
          "name": "owner",
          "type": "address"
        },
        {
          "indexed": true,
          "internalType": "address",
          "name": "approved",
          "type": "address"
        },
        {
          "indexed": true,
          "internalType": "uint256",
          "name": "tokenId",
          "type": "uint256"
        }
      ],
      "name": "Approval",
      "type": "event"
    },
    {
      "anonymous": false,
      "inputs": [
        {
          "indexed": true,
          "internalType": "address",
          "name": "owner",
          "type": "address"
        },
        {
          "indexed": true,
          "internalType": "address",
          "name": "operator",
          "type": "address"
        },
        {
          "indexed": false,
          "internalType": "bool",
          "name": "approved",
          "type": "bool"
        }
      ],
      "name": "ApprovalForAll",
      "type": "event"
    },
    {
      "anonymous": false,
      "inputs": [
        {
          "indexed": false,
          "internalType": "uint256",
          "name": "tokenId",
          "type": "uint256"
        }
      ],
      "name": "NewTurtleGenerated",
      "type": "event"
    },
    {
      "anonymous": false,
      "inputs": [
        {
          "indexed": true,
          "internalType": "address",
          "name": "from",
          "type": "address"
        },
        {
          "indexed": true,
          "internalType": "address",
          "name": "to",
          "type": "address"
        },
        {
          "indexed": true,
          "internalType": "uint256",
          "name": "tokenId",
          "type": "uint256"
        }
      ],
      "name": "Transfer",
      "type": "event"
    },
    {
      "anonymous": false,
      "inputs": [
        {
          "indexed": false,
          "internalType": "uint256",
          "name": "tokenId",
          "type": "uint256"
        }
      ],
      "name": "TurtleBought",
      "type": "event"
    },
    {
      "anonymous": false,
      "inputs": [
        {
          "indexed": false,
          "internalType": "uint256",
          "name": "tokenId",
          "type": "uint256"
        }
      ],
      "name": "TurtleUpForSale",
      "type": "event"
    },
    {
      "anonymous": false,
      "inputs": [
        {
          "indexed": false,
          "internalType": "uint256",
          "name": "tokenId",
          "type": "uint256"
        }
      ],
      "name": "TurtleUpgraded",
      "type": "event"
    },
    {
      "inputs": [
        {
          "internalType": "address",
          "name": "to",
          "type": "address"
        },
        {
          "internalType": "uint256",
          "name": "tokenId",
          "type": "uint256"
        }
      ],
      "name": "approve",
      "outputs": [],
      "stateMutability": "nonpayable",
      "type": "function"
    },
    {
      "inputs": [
        {
          "internalType": "address",
          "name": "owner",
          "type": "address"
        }
      ],
      "name": "balanceOf",
      "outputs": [
        {
          "internalType": "uint256",
          "name": "",
          "type": "uint256"
        }
      ],
      "stateMutability": "view",
      "type": "function",
      "constant": true
    },
    {
      "inputs": [],
      "name": "contractOwner",
      "outputs": [
        {
          "internalType": "address payable",
          "name": "",
          "type": "address"
        }
      ],
      "stateMutability": "view",
      "type": "function",
      "constant": true
    },
    {
      "inputs": [
        {
          "internalType": "uint256",
          "name": "tokenId",
          "type": "uint256"
        }
      ],
      "name": "getApproved",
      "outputs": [
        {
          "internalType": "address",
          "name": "",
          "type": "address"
        }
      ],
      "stateMutability": "view",
      "type": "function",
      "constant": true
    },
    {
      "inputs": [
        {
          "internalType": "address",
          "name": "owner",
          "type": "address"
        },
        {
          "internalType": "address",
          "name": "operator",
          "type": "address"
        }
      ],
      "name": "isApprovedForAll",
      "outputs": [
        {
          "internalType": "bool",
          "name": "",
          "type": "bool"
        }
      ],
      "stateMutability": "view",
      "type": "function",
      "constant": true
    },
    {
      "inputs": [],
      "name": "name",
      "outputs": [
        {
          "internalType": "string",
          "name": "",
          "type": "string"
        }
      ],
      "stateMutability": "view",
      "type": "function",
      "constant": true
    },
    {
      "inputs": [
        {
          "internalType": "uint256",
          "name": "tokenId",
          "type": "uint256"
        }
      ],
      "name": "ownerOf",
      "outputs": [
        {
          "internalType": "address",
          "name": "",
          "type": "address"
        }
      ],
      "stateMutability": "view",
      "type": "function",
      "constant": true
    },
    {
      "inputs": [
        {
          "internalType": "address",
          "name": "from",
          "type": "address"
        },
        {
          "internalType": "address",
          "name": "to",
          "type": "address"
        },
        {
          "internalType": "uint256",
          "name": "tokenId",
          "type": "uint256"
        }
      ],
      "name": "safeTransferFrom",
      "outputs": [],
      "stateMutability": "nonpayable",
      "type": "function"
    },
    {
      "inputs": [
        {
          "internalType": "address",
          "name": "from",
          "type": "address"
        },
        {
          "internalType": "address",
          "name": "to",
          "type": "address"
        },
        {
          "internalType": "uint256",
          "name": "tokenId",
          "type": "uint256"
        },
        {
          "internalType": "bytes",
          "name": "_data",
          "type": "bytes"
        }
      ],
      "name": "safeTransferFrom",
      "outputs": [],
      "stateMutability": "nonpayable",
      "type": "function"
    },
    {
      "inputs": [
        {
          "internalType": "address",
          "name": "operator",
          "type": "address"
        },
        {
          "internalType": "bool",
          "name": "approved",
          "type": "bool"
        }
      ],
      "name": "setApprovalForAll",
      "outputs": [],
      "stateMutability": "nonpayable",
      "type": "function"
    },
    {
      "inputs": [],
      "name": "signedWalletAddress",
      "outputs": [
        {
          "internalType": "address",
          "name": "",
          "type": "address"
        }
      ],
      "stateMutability": "view",
      "type": "function",
      "constant": true
    },
    {
      "inputs": [
        {
          "internalType": "bytes4",
          "name": "interfaceId",
          "type": "bytes4"
        }
      ],
      "name": "supportsInterface",
      "outputs": [
        {
          "internalType": "bool",
          "name": "",
          "type": "bool"
        }
      ],
      "stateMutability": "view",
      "type": "function",
      "constant": true
    },
    {
      "inputs": [],
      "name": "symbol",
      "outputs": [
        {
          "internalType": "string",
          "name": "",
          "type": "string"
        }
      ],
      "stateMutability": "view",
      "type": "function",
      "constant": true
    },
    {
      "inputs": [
        {
          "internalType": "uint256",
          "name": "tokenId",
          "type": "uint256"
        }
      ],
      "name": "tokenURI",
      "outputs": [
        {
          "internalType": "string",
          "name": "",
          "type": "string"
        }
      ],
      "stateMutability": "view",
      "type": "function",
      "constant": true
    },
    {
      "inputs": [
        {
          "internalType": "address",
          "name": "from",
          "type": "address"
        },
        {
          "internalType": "address",
          "name": "to",
          "type": "address"
        },
        {
          "internalType": "uint256",
          "name": "tokenId",
          "type": "uint256"
        }
      ],
      "name": "transferFrom",
      "outputs": [],
      "stateMutability": "nonpayable",
      "type": "function"
    },
    {
      "inputs": [
        {
          "internalType": "address",
          "name": "",
          "type": "address"
        }
      ],
      "name": "userAddressToHighScore",
      "outputs": [
        {
          "internalType": "uint256",
          "name": "",
          "type": "uint256"
        }
      ],
      "stateMutability": "view",
      "type": "function",
      "constant": true
    },
    {
      "inputs": [],
      "name": "totalSupply",
      "outputs": [
        {
          "internalType": "uint256",
          "name": "",
          "type": "uint256"
        }
      ],
      "stateMutability": "view",
      "type": "function",
      "constant": true
    },
    {
      "inputs": [
        {
          "internalType": "address",
          "name": "_contractAddress",
          "type": "address"
        }
      ],
      "name": "setMarketContractAddress",
      "outputs": [],
      "stateMutability": "nonpayable",
      "type": "function"
    },
    {
      "inputs": [],
      "name": "getUsers",
      "outputs": [
        {
          "internalType": "address[]",
          "name": "",
          "type": "address[]"
        }
      ],
      "stateMutability": "view",
      "type": "function",
      "constant": true
    },
    {
      "inputs": [
        {
          "internalType": "uint256",
          "name": "_score",
          "type": "uint256"
        },
        {
          "internalType": "string",
          "name": "_tokenURI",
          "type": "string"
        },
        {
          "internalType": "uint8",
          "name": "v",
          "type": "uint8"
        },
        {
          "internalType": "bytes32",
          "name": "r",
          "type": "bytes32"
        },
        {
          "internalType": "bytes32",
          "name": "s",
          "type": "bytes32"
        }
      ],
      "name": "generateTurtle",
      "outputs": [],
      "stateMutability": "nonpayable",
      "type": "function"
    },
    {
      "inputs": [
        {
          "internalType": "uint256",
          "name": "_score",
          "type": "uint256"
        },
        {
          "internalType": "string",
          "name": "_tokenURI",
          "type": "string"
        },
        {
          "internalType": "uint256",
          "name": "_tokenId",
          "type": "uint256"
        },
        {
          "internalType": "uint8",
          "name": "v",
          "type": "uint8"
        },
        {
          "internalType": "bytes32",
          "name": "r",
          "type": "bytes32"
        },
        {
          "internalType": "bytes32",
          "name": "s",
          "type": "bytes32"
        }
      ],
      "name": "upgradeTurtle",
      "outputs": [],
      "stateMutability": "nonpayable",
      "type": "function"
    },
    {
      "inputs": [
        {
          "internalType": "address",
          "name": "_walletAddress",
          "type": "address"
        }
      ],
      "name": "setSignedWalletAddress",
      "outputs": [],
      "stateMutability": "nonpayable",
      "type": "function"
    },
    {
      "inputs": [
        {
          "internalType": "uint256",
          "name": "_tokenId",
          "type": "uint256"
        },
        {
          "internalType": "string",
          "name": "_tokenURI",
          "type": "string"
        }
      ],
      "name": "updateTokenURI",
      "outputs": [],
      "stateMutability": "nonpayable",
      "type": "function"
    },
    {
      "inputs": [
        {
          "internalType": "address",
          "name": "_user",
          "type": "address"
        }
      ],
      "name": "getBalanceOfUser",
      "outputs": [
        {
          "internalType": "uint256",
          "name": "",
          "type": "uint256"
        }
      ],
      "stateMutability": "view",
      "type": "function",
      "constant": true
    },
    {
      "inputs": [
        {
          "internalType": "address",
          "name": "_user",
          "type": "address"
        }
      ],
      "name": "getUserOwnedNFTs",
      "outputs": [
        {
          "components": [
            {
              "internalType": "uint256",
              "name": "tokenId",
              "type": "uint256"
            },
            {
              "internalType": "string",
              "name": "tokenURI",
              "type": "string"
            }
          ],
          "internalType": "struct Turtis.NFTItem[]",
          "name": "",
          "type": "tuple[]"
        }
      ],
      "stateMutability": "view",
      "type": "function",
      "constant": true
    },
    {
      "inputs": [],
      "name": "getAllNFTs",
      "outputs": [
        {
          "components": [
            {
              "internalType": "uint256",
              "name": "tokenId",
              "type": "uint256"
            },
            {
              "internalType": "string",
              "name": "tokenURI",
              "type": "string"
            }
          ],
          "internalType": "struct Turtis.NFTItem[]",
          "name": "",
          "type": "tuple[]"
        }
      ],
      "stateMutability": "view",
      "type": "function",
      "constant": true
    }
  ],
  "bytecode": "0x60806040523480156200001157600080fd5b5060405162004d5338038062004d5383398181016040528101906200003791906200022f565b6040518060400160405280600f81526020017f547572746c6543686172616374657200000000000000000000000000000000008152506040518060400160405280600481526020017f5452544c000000000000000000000000000000000000000000000000000000008152508160009080519060200190620000bb92919062000168565b508060019080519060200190620000d492919062000168565b505050600160078190555033600960006101000a81548173ffffffffffffffffffffffffffffffffffffffff021916908373ffffffffffffffffffffffffffffffffffffffff16021790555080600a60006101000a81548173ffffffffffffffffffffffffffffffffffffffff021916908373ffffffffffffffffffffffffffffffffffffffff160217905550506200030e565b82805462000176906200028f565b90600052602060002090601f0160209004810192826200019a5760008555620001e6565b82601f10620001b557805160ff1916838001178555620001e6565b82800160010185558215620001e6579182015b82811115620001e5578251825591602001919060010190620001c8565b5b509050620001f59190620001f9565b5090565b5b8082111562000214576000816000905550600101620001fa565b5090565b6000815190506200022981620002f4565b92915050565b6000602082840312156200024257600080fd5b6000620002528482850162000218565b91505092915050565b600062000268826200026f565b9050919050565b600073ffffffffffffffffffffffffffffffffffffffff82169050919050565b60006002820490506001821680620002a857607f821691505b60208210811415620002bf57620002be620002c5565b5b50919050565b7f4e487b7100000000000000000000000000000000000000000000000000000000600052602260045260246000fd5b620002ff816200025b565b81146200030b57600080fd5b50565b614a35806200031e6000396000f3fe608060405234801561001057600080fd5b506004361061018d5760003560e01c806354b64e90116100de578063b88d4fde11610097578063ce606ee011610071578063ce606ee014610490578063e0391b09146104ae578063e503cafa146104cc578063e985e9c5146104fc5761018d565b8063b88d4fde14610428578063c73358de14610444578063c87b56dd146104605761018d565b806354b64e90146103565780636352211e1461037257806370a08231146103a257806395d89b41146103d2578063a22cb465146103f0578063ac0fce0a1461040c5761018d565b80630ce8a6141161014b57806323b872dd1161012557806323b872dd146102d057806335f4ee69146102ec57806342842e0e1461030a57806345909a6f146103265761018d565b80630ce8a6141461027a57806318160ddd1461029657806318e97fd1146102b45761018d565b8062ce8e3e1461019257806301ffc9a7146101b05780630335b5af146101e057806306fdde0314610210578063081812fc1461022e578063095ea7b31461025e575b600080fd5b61019a61052c565b6040516101a79190613a37565b60405180910390f35b6101ca60048036038101906101c591906130a9565b6105ba565b6040516101d79190613a7b565b60405180910390f35b6101fa60048036038101906101f59190612f02565b61069c565b6040516102079190613a59565b60405180910390f35b6102186108a8565b6040516102259190613adb565b60405180910390f35b610248600480360381019061024391906130fb565b61093a565b60405161025591906139b5565b60405180910390f35b6102786004803603810190610273919061306d565b6109bf565b005b610294600480360381019061028f9190612f02565b610ad7565b005b61029e610bab565b6040516102ab9190613dfd565b60405180910390f35b6102ce60048036038101906102c99190613124565b610bbc565b005b6102ea60048036038101906102e59190612f67565b610cac565b005b6102f4610d0c565b60405161030191906139b5565b60405180910390f35b610324600480360381019061031f9190612f67565b610d32565b005b610340600480360381019061033b9190612f02565b610d52565b60405161034d9190613dfd565b60405180910390f35b610370600480360381019061036b9190613219565b610d64565b005b61038c600480360381019061038791906130fb565b611017565b60405161039991906139b5565b60405180910390f35b6103bc60048036038101906103b79190612f02565b6110c9565b6040516103c99190613dfd565b60405180910390f35b6103da611181565b6040516103e79190613adb565b60405180910390f35b61040a60048036038101906104059190613031565b611213565b005b61042660048036038101906104219190613178565b611229565b005b610442600480360381019061043d9190612fb6565b611491565b005b61045e60048036038101906104599190612f02565b6114f3565b005b61047a600480360381019061047591906130fb565b6115c7565b6040516104879190613adb565b60405180910390f35b610498611719565b6040516104a591906139d0565b60405180910390f35b6104b661173f565b6040516104c39190613a59565b60405180910390f35b6104e660048036038101906104e19190612f02565b6118f6565b6040516104f39190613dfd565b60405180910390f35b61051660048036038101906105119190612f2b565b61190e565b6040516105239190613a7b565b60405180910390f35b6060600b8054806020026020016040519081016040528092919081815260200182805480156105b057602002820191906000526020600020905b8160009054906101000a900473ffffffffffffffffffffffffffffffffffffffff1673ffffffffffffffffffffffffffffffffffffffff1681526020019060010190808311610566575b5050505050905090565b60007f80ac58cd000000000000000000000000000000000000000000000000000000007bffffffffffffffffffffffffffffffffffffffffffffffffffffffff1916827bffffffffffffffffffffffffffffffffffffffffffffffffffffffff1916148061068557507f5b5e139f000000000000000000000000000000000000000000000000000000007bffffffffffffffffffffffffffffffffffffffffffffffffffffffff1916827bffffffffffffffffffffffffffffffffffffffffffffffffffffffff1916145b806106955750610694826119a2565b5b9050919050565b606060006106a983610d52565b67ffffffffffffffff8111156106e8577f4e487b7100000000000000000000000000000000000000000000000000000000600052604160045260246000fd5b60405190808252806020026020018201604052801561072157816020015b61070e612ce2565b8152602001906001900390816107065790505b509050600061072e610bab565b90506000805b8281101561089c578573ffffffffffffffffffffffffffffffffffffffff1661075c82611017565b73ffffffffffffffffffffffffffffffffffffffff161415610889576000600e6000838152602001908152602001600020905080604051806040016040529081600082015481526020016001820180546107b5906140ff565b80601f01602080910402602001604051908101604052809291908181526020018280546107e1906140ff565b801561082e5780601f106108035761010080835404028352916020019161082e565b820191906000526020600020905b81548152906001019060200180831161081157829003601f168201915b50505050508152505085848061084390614162565b95508151811061087c577f4e487b7100000000000000000000000000000000000000000000000000000000600052603260045260246000fd5b6020026020010181905250505b808061089490614162565b915050610734565b50829350505050919050565b6060600080546108b7906140ff565b80601f01602080910402602001604051908101604052809291908181526020018280546108e3906140ff565b80156109305780601f1061090557610100808354040283529160200191610930565b820191906000526020600020905b81548152906001019060200180831161091357829003601f168201915b5050505050905090565b600061094582611a0c565b610984576040517f08c379a000000000000000000000000000000000000000000000000000000000815260040161097b90613d1d565b60405180910390fd5b6004600083815260200190815260200160002060009054906101000a900473ffffffffffffffffffffffffffffffffffffffff169050919050565b60006109ca82611017565b90508073ffffffffffffffffffffffffffffffffffffffff168373ffffffffffffffffffffffffffffffffffffffff161415610a3b576040517f08c379a0000000000000000000000000000000000000000000000000000000008152600401610a3290613d7d565b60405180910390fd5b8073ffffffffffffffffffffffffffffffffffffffff16610a5a611a78565b73ffffffffffffffffffffffffffffffffffffffff161480610a895750610a8881610a83611a78565b61190e565b5b610ac8576040517f08c379a0000000000000000000000000000000000000000000000000000000008152600401610abf90613c3d565b60405180910390fd5b610ad28383611a80565b505050565b600960009054906101000a900473ffffffffffffffffffffffffffffffffffffffff1673ffffffffffffffffffffffffffffffffffffffff163373ffffffffffffffffffffffffffffffffffffffff1614610b67576040517f08c379a0000000000000000000000000000000000000000000000000000000008152600401610b5e90613dbd565b60405180910390fd5b80600c60006101000a81548173ffffffffffffffffffffffffffffffffffffffff021916908373ffffffffffffffffffffffffffffffffffffffff16021790555050565b6000610bb76008611b39565b905090565b600960009054906101000a900473ffffffffffffffffffffffffffffffffffffffff1673ffffffffffffffffffffffffffffffffffffffff163373ffffffffffffffffffffffffffffffffffffffff1614610c4c576040517f08c379a0000000000000000000000000000000000000000000000000000000008152600401610c4390613dbd565b60405180910390fd5b610c568282611b47565b604051806040016040528083815260200182815250600e6000848152602001908152602001600020600082015181600001556020820151816001019080519060200190610ca4929190612cfc565b509050505050565b610cbd610cb7611a78565b82611bbb565b610cfc576040517f08c379a0000000000000000000000000000000000000000000000000000000008152600401610cf390613d9d565b60405180910390fd5b610d07838383611c99565b505050565b600c60009054906101000a900473ffffffffffffffffffffffffffffffffffffffff1681565b610d4d83838360405180602001604052806000815250611491565b505050565b6000610d5d826110c9565b9050919050565b60026007541415610daa576040517f08c379a0000000000000000000000000000000000000000000000000000000008152600401610da190613ddd565b60405180910390fd5b60026007819055506000853386604051602001610dc993929190613932565b6040516020818303038152906040528051906020012090506000610dec82611ef5565b90506000610e0786868685611f25909392919063ffffffff16565b9050600c60009054906101000a900473ffffffffffffffffffffffffffffffffffffffff1673ffffffffffffffffffffffffffffffffffffffff168173ffffffffffffffffffffffffffffffffffffffff1614610e99576040517f08c379a0000000000000000000000000000000000000000000000000000000008152600401610e9090613bdd565b60405180910390fd5b600d60003373ffffffffffffffffffffffffffffffffffffffff1673ffffffffffffffffffffffffffffffffffffffff168152602001908152602001600020548811610f1a576040517f08c379a0000000000000000000000000000000000000000000000000000000008152600401610f1190613b5d565b60405180910390fd5b610f248833611f50565b6000610f2e610bab565b9050610f3a3382612044565b610f446008612062565b610f4e8189611b47565b604051806040016040528082815260200189815250600e6000838152602001908152602001600020600082015181600001556020820151816001019080519060200190610f9c929190612cfc565b50905050610fcd600a60009054906101000a900473ffffffffffffffffffffffffffffffffffffffff166001611213565b7f375888a712a23aa4f960c32984e16baf008be32cc52f7b9c12212feee89eb60881604051610ffc9190613dfd565b60405180910390a15050505060016007819055505050505050565b6000806002600084815260200190815260200160002060009054906101000a900473ffffffffffffffffffffffffffffffffffffffff169050600073ffffffffffffffffffffffffffffffffffffffff168173ffffffffffffffffffffffffffffffffffffffff1614156110c0576040517f08c379a00000000000000000000000000000000000000000000000000000000081526004016110b790613c7d565b60405180910390fd5b80915050919050565b60008073ffffffffffffffffffffffffffffffffffffffff168273ffffffffffffffffffffffffffffffffffffffff16141561113a576040517f08c379a000000000000000000000000000000000000000000000000000000000815260040161113190613c5d565b60405180910390fd5b600360008373ffffffffffffffffffffffffffffffffffffffff1673ffffffffffffffffffffffffffffffffffffffff168152602001908152602001600020549050919050565b606060018054611190906140ff565b80601f01602080910402602001604051908101604052809291908181526020018280546111bc906140ff565b80156112095780601f106111de57610100808354040283529160200191611209565b820191906000526020600020905b8154815290600101906020018083116111ec57829003601f168201915b5050505050905090565b61122561121e611a78565b8383612078565b5050565b6002600754141561126f576040517f08c379a000000000000000000000000000000000000000000000000000000000815260040161126690613ddd565b60405180910390fd5b6002600781905550600086338787604051602001611290949392919061396b565b60405160208183030381529060405280519060200120905060006112b382611ef5565b905060006112ce86868685611f25909392919063ffffffff16565b9050600c60009054906101000a900473ffffffffffffffffffffffffffffffffffffffff1673ffffffffffffffffffffffffffffffffffffffff168173ffffffffffffffffffffffffffffffffffffffff1614611360576040517f08c379a000000000000000000000000000000000000000000000000000000000815260040161135790613bdd565b60405180910390fd5b600d60003373ffffffffffffffffffffffffffffffffffffffff1673ffffffffffffffffffffffffffffffffffffffff1681526020019081526020016000205489116113e1576040517f08c379a00000000000000000000000000000000000000000000000000000000081526004016113d890613b5d565b60405180910390fd5b6113eb8933611f50565b6113f58789611b47565b604051806040016040528088815260200189815250600e6000898152602001908152602001600020600082015181600001556020820151816001019080519060200190611443929190612cfc565b509050507f56f213350901e1a8f4e71b0ca5462d911c94c478eab593135b8a8ba5e7c1acea876040516114769190613dfd565b60405180910390a15050506001600781905550505050505050565b6114a261149c611a78565b83611bbb565b6114e1576040517f08c379a00000000000000000000000000000000000000000000000000000000081526004016114d890613d9d565b60405180910390fd5b6114ed848484846121e5565b50505050565b600960009054906101000a900473ffffffffffffffffffffffffffffffffffffffff1673ffffffffffffffffffffffffffffffffffffffff163373ffffffffffffffffffffffffffffffffffffffff1614611583576040517f08c379a000000000000000000000000000000000000000000000000000000000815260040161157a90613dbd565b60405180910390fd5b80600a60006101000a81548173ffffffffffffffffffffffffffffffffffffffff021916908373ffffffffffffffffffffffffffffffffffffffff16021790555050565b60606115d282611a0c565b611611576040517f08c379a000000000000000000000000000000000000000000000000000000000815260040161160890613cfd565b60405180910390fd5b6000600660008481526020019081526020016000208054611631906140ff565b80601f016020809104026020016040519081016040528092919081815260200182805461165d906140ff565b80156116aa5780601f1061167f576101008083540402835291602001916116aa565b820191906000526020600020905b81548152906001019060200180831161168d57829003601f168201915b5050505050905060006116bb612241565b90506000815114156116d1578192505050611714565b6000825111156117065780826040516020016116ee9291906138e8565b60405160208183030381529060405292505050611714565b61170f84612258565b925050505b919050565b600960009054906101000a900473ffffffffffffffffffffffffffffffffffffffff1681565b6060600061174b610bab565b905060008167ffffffffffffffff81111561178f577f4e487b7100000000000000000000000000000000000000000000000000000000600052604160045260246000fd5b6040519080825280602002602001820160405280156117c857816020015b6117b5612ce2565b8152602001906001900390816117ad5790505b50905060005b828110156118ed576000600e600083815260200190815260200160002090508060405180604001604052908160008201548152602001600182018054611813906140ff565b80601f016020809104026020016040519081016040528092919081815260200182805461183f906140ff565b801561188c5780601f106118615761010080835404028352916020019161188c565b820191906000526020600020905b81548152906001019060200180831161186f57829003601f168201915b5050505050815250508383815181106118ce577f4e487b7100000000000000000000000000000000000000000000000000000000600052603260045260246000fd5b60200260200101819052505080806118e590614162565b9150506117ce565b50809250505090565b600d6020528060005260406000206000915090505481565b6000600560008473ffffffffffffffffffffffffffffffffffffffff1673ffffffffffffffffffffffffffffffffffffffff16815260200190815260200160002060008373ffffffffffffffffffffffffffffffffffffffff1673ffffffffffffffffffffffffffffffffffffffff16815260200190815260200160002060009054906101000a900460ff16905092915050565b60007f01ffc9a7000000000000000000000000000000000000000000000000000000007bffffffffffffffffffffffffffffffffffffffffffffffffffffffff1916827bffffffffffffffffffffffffffffffffffffffffffffffffffffffff1916149050919050565b60008073ffffffffffffffffffffffffffffffffffffffff166002600084815260200190815260200160002060009054906101000a900473ffffffffffffffffffffffffffffffffffffffff1673ffffffffffffffffffffffffffffffffffffffff1614159050919050565b600033905090565b816004600083815260200190815260200160002060006101000a81548173ffffffffffffffffffffffffffffffffffffffff021916908373ffffffffffffffffffffffffffffffffffffffff160217905550808273ffffffffffffffffffffffffffffffffffffffff16611af383611017565b73ffffffffffffffffffffffffffffffffffffffff167f8c5be1e5ebec7d5bd14f71427d1e84f3dd0314c0f7b2291e5b200ac8c7c3b92560405160405180910390a45050565b600081600001549050919050565b611b5082611a0c565b611b8f576040517f08c379a0000000000000000000000000000000000000000000000000000000008152600401611b8690613c9d565b60405180910390fd5b80600660008481526020019081526020016000209080519060200190611bb6929190612cfc565b505050565b6000611bc682611a0c565b611c05576040517f08c379a0000000000000000000000000000000000000000000000000000000008152600401611bfc90613c1d565b60405180910390fd5b6000611c1083611017565b90508073ffffffffffffffffffffffffffffffffffffffff168473ffffffffffffffffffffffffffffffffffffffff161480611c7f57508373ffffffffffffffffffffffffffffffffffffffff16611c678461093a565b73ffffffffffffffffffffffffffffffffffffffff16145b80611c905750611c8f818561190e565b5b91505092915050565b8273ffffffffffffffffffffffffffffffffffffffff16611cb982611017565b73ffffffffffffffffffffffffffffffffffffffff1614611d0f576040517f08c379a0000000000000000000000000000000000000000000000000000000008152600401611d0690613d3d565b60405180910390fd5b600073ffffffffffffffffffffffffffffffffffffffff168273ffffffffffffffffffffffffffffffffffffffff161415611d7f576040517f08c379a0000000000000000000000000000000000000000000000000000000008152600401611d7690613b9d565b60405180910390fd5b611d8a8383836122ff565b611d95600082611a80565b6001600360008573ffffffffffffffffffffffffffffffffffffffff1673ffffffffffffffffffffffffffffffffffffffff1681526020019081526020016000206000828254611de59190613fec565b925050819055506001600360008473ffffffffffffffffffffffffffffffffffffffff1673ffffffffffffffffffffffffffffffffffffffff1681526020019081526020016000206000828254611e3c9190613f65565b92505081905550816002600083815260200190815260200160002060006101000a81548173ffffffffffffffffffffffffffffffffffffffff021916908373ffffffffffffffffffffffffffffffffffffffff160217905550808273ffffffffffffffffffffffffffffffffffffffff168473ffffffffffffffffffffffffffffffffffffffff167fddf252ad1be2c89b69c2b068fc378daa952ba7f163c4a11628f55a4df523b3ef60405160405180910390a4505050565b600081604051602001611f08919061390c565b604051602081830303815290604052805190602001209050919050565b6000806000611f3687878787612304565b91509150611f4381612411565b8192505050949350505050565b6000600d60008373ffffffffffffffffffffffffffffffffffffffff1673ffffffffffffffffffffffffffffffffffffffff168152602001908152602001600020541415611ffc57600b819080600181540180825580915050600190039060005260206000200160009091909190916101000a81548173ffffffffffffffffffffffffffffffffffffffff021916908373ffffffffffffffffffffffffffffffffffffffff1602179055505b81600d60008373ffffffffffffffffffffffffffffffffffffffff1673ffffffffffffffffffffffffffffffffffffffff168152602001908152602001600020819055505050565b61205e828260405180602001604052806000815250612762565b5050565b6001816000016000828254019250508190555050565b8173ffffffffffffffffffffffffffffffffffffffff168373ffffffffffffffffffffffffffffffffffffffff1614156120e7576040517f08c379a00000000000000000000000000000000000000000000000000000000081526004016120de90613bbd565b60405180910390fd5b80600560008573ffffffffffffffffffffffffffffffffffffffff1673ffffffffffffffffffffffffffffffffffffffff16815260200190815260200160002060008473ffffffffffffffffffffffffffffffffffffffff1673ffffffffffffffffffffffffffffffffffffffff16815260200190815260200160002060006101000a81548160ff0219169083151502179055508173ffffffffffffffffffffffffffffffffffffffff168373ffffffffffffffffffffffffffffffffffffffff167f17307eab39ab6107e8899845ad3d59bd9653f200f220920489ca2b5937696c31836040516121d89190613a7b565b60405180910390a3505050565b6121f0848484611c99565b6121fc848484846127bd565b61223b576040517f08c379a000000000000000000000000000000000000000000000000000000000815260040161223290613b3d565b60405180910390fd5b50505050565b606060405180602001604052806000815250905090565b606061226382611a0c565b6122a2576040517f08c379a000000000000000000000000000000000000000000000000000000000815260040161229990613d5d565b60405180910390fd5b60006122ac612241565b905060008151116122cc57604051806020016040528060008152506122f7565b806122d684612954565b6040516020016122e79291906138e8565b6040516020818303038152906040525b915050919050565b505050565b6000807f7fffffffffffffffffffffffffffffff5d576e7357a4501ddfe92f46681b20a08360001c111561233f576000600391509150612408565b601b8560ff16141580156123575750601c8560ff1614155b15612369576000600491509150612408565b60006001878787876040516000815260200160405260405161238e9493929190613a96565b6020604051602081039080840390855afa1580156123b0573d6000803e3d6000fd5b505050602060405103519050600073ffffffffffffffffffffffffffffffffffffffff168173ffffffffffffffffffffffffffffffffffffffff1614156123ff57600060019250925050612408565b80600092509250505b94509492505050565b6000600481111561244b577f4e487b7100000000000000000000000000000000000000000000000000000000600052602160045260246000fd5b816004811115612484577f4e487b7100000000000000000000000000000000000000000000000000000000600052602160045260246000fd5b141561248f5761275f565b600160048111156124c9577f4e487b7100000000000000000000000000000000000000000000000000000000600052602160045260246000fd5b816004811115612502577f4e487b7100000000000000000000000000000000000000000000000000000000600052602160045260246000fd5b1415612543576040517f08c379a000000000000000000000000000000000000000000000000000000000815260040161253a90613afd565b60405180910390fd5b6002600481111561257d577f4e487b7100000000000000000000000000000000000000000000000000000000600052602160045260246000fd5b8160048111156125b6577f4e487b7100000000000000000000000000000000000000000000000000000000600052602160045260246000fd5b14156125f7576040517f08c379a00000000000000000000000000000000000000000000000000000000081526004016125ee90613b1d565b60405180910390fd5b60036004811115612631577f4e487b7100000000000000000000000000000000000000000000000000000000600052602160045260246000fd5b81600481111561266a577f4e487b7100000000000000000000000000000000000000000000000000000000600052602160045260246000fd5b14156126ab576040517f08c379a00000000000000000000000000000000000000000000000000000000081526004016126a290613bfd565b60405180910390fd5b6004808111156126e4577f4e487b7100000000000000000000000000000000000000000000000000000000600052602160045260246000fd5b81600481111561271d577f4e487b7100000000000000000000000000000000000000000000000000000000600052602160045260246000fd5b141561275e576040517f08c379a000000000000000000000000000000000000000000000000000000000815260040161275590613cbd565b60405180910390fd5b5b50565b61276c8383612b01565b61277960008484846127bd565b6127b8576040517f08c379a00000000000000000000000000000000000000000000000000000000081526004016127af90613b3d565b60405180910390fd5b505050565b60006127de8473ffffffffffffffffffffffffffffffffffffffff16612ccf565b15612947578373ffffffffffffffffffffffffffffffffffffffff1663150b7a02612807611a78565b8786866040518563ffffffff1660e01b815260040161282994939291906139eb565b602060405180830381600087803b15801561284357600080fd5b505af192505050801561287457506040513d601f19601f8201168201806040525081019061287191906130d2565b60015b6128f7573d80600081146128a4576040519150601f19603f3d011682016040523d82523d6000602084013e6128a9565b606091505b506000815114156128ef576040517f08c379a00000000000000000000000000000000000000000000000000000000081526004016128e690613b3d565b60405180910390fd5b805181602001fd5b63150b7a0260e01b7bffffffffffffffffffffffffffffffffffffffffffffffffffffffff1916817bffffffffffffffffffffffffffffffffffffffffffffffffffffffff19161491505061294c565b600190505b949350505050565b6060600082141561299c576040518060400160405280600181526020017f30000000000000000000000000000000000000000000000000000000000000008152509050612afc565b600082905060005b600082146129ce5780806129b790614162565b915050600a826129c79190613fbb565b91506129a4565b60008167ffffffffffffffff811115612a10577f4e487b7100000000000000000000000000000000000000000000000000000000600052604160045260246000fd5b6040519080825280601f01601f191660200182016040528015612a425781602001600182028036833780820191505090505b5090505b60008514612af557600182612a5b9190613fec565b9150600a85612a6a91906141e3565b6030612a769190613f65565b60f81b818381518110612ab2577f4e487b7100000000000000000000000000000000000000000000000000000000600052603260045260246000fd5b60200101907effffffffffffffffffffffffffffffffffffffffffffffffffffffffffffff1916908160001a905350600a85612aee9190613fbb565b9450612a46565b8093505050505b919050565b600073ffffffffffffffffffffffffffffffffffffffff168273ffffffffffffffffffffffffffffffffffffffff161415612b71576040517f08c379a0000000000000000000000000000000000000000000000000000000008152600401612b6890613cdd565b60405180910390fd5b612b7a81611a0c565b15612bba576040517f08c379a0000000000000000000000000000000000000000000000000000000008152600401612bb190613b7d565b60405180910390fd5b612bc6600083836122ff565b6001600360008473ffffffffffffffffffffffffffffffffffffffff1673ffffffffffffffffffffffffffffffffffffffff1681526020019081526020016000206000828254612c169190613f65565b92505081905550816002600083815260200190815260200160002060006101000a81548173ffffffffffffffffffffffffffffffffffffffff021916908373ffffffffffffffffffffffffffffffffffffffff160217905550808273ffffffffffffffffffffffffffffffffffffffff16600073ffffffffffffffffffffffffffffffffffffffff167fddf252ad1be2c89b69c2b068fc378daa952ba7f163c4a11628f55a4df523b3ef60405160405180910390a45050565b600080823b905060008111915050919050565b604051806040016040528060008152602001606081525090565b828054612d08906140ff565b90600052602060002090601f016020900481019282612d2a5760008555612d71565b82601f10612d4357805160ff1916838001178555612d71565b82800160010185558215612d71579182015b82811115612d70578251825591602001919060010190612d55565b5b509050612d7e9190612d82565b5090565b5b80821115612d9b576000816000905550600101612d83565b5090565b6000612db2612dad84613e3d565b613e18565b905082815260208101848484011115612dca57600080fd5b612dd58482856140bd565b509392505050565b6000612df0612deb84613e6e565b613e18565b905082815260208101848484011115612e0857600080fd5b612e138482856140bd565b509392505050565b600081359050612e2a81614975565b92915050565b600081359050612e3f8161498c565b92915050565b600081359050612e54816149a3565b92915050565b600081359050612e69816149ba565b92915050565b600081519050612e7e816149ba565b92915050565b600082601f830112612e9557600080fd5b8135612ea5848260208601612d9f565b91505092915050565b600082601f830112612ebf57600080fd5b8135612ecf848260208601612ddd565b91505092915050565b600081359050612ee7816149d1565b92915050565b600081359050612efc816149e8565b92915050565b600060208284031215612f1457600080fd5b6000612f2284828501612e1b565b91505092915050565b60008060408385031215612f3e57600080fd5b6000612f4c85828601612e1b565b9250506020612f5d85828601612e1b565b9150509250929050565b600080600060608486031215612f7c57600080fd5b6000612f8a86828701612e1b565b9350506020612f9b86828701612e1b565b9250506040612fac86828701612ed8565b9150509250925092565b60008060008060808587031215612fcc57600080fd5b6000612fda87828801612e1b565b9450506020612feb87828801612e1b565b9350506040612ffc87828801612ed8565b925050606085013567ffffffffffffffff81111561301957600080fd5b61302587828801612e84565b91505092959194509250565b6000806040838503121561304457600080fd5b600061305285828601612e1b565b925050602061306385828601612e30565b9150509250929050565b6000806040838503121561308057600080fd5b600061308e85828601612e1b565b925050602061309f85828601612ed8565b9150509250929050565b6000602082840312156130bb57600080fd5b60006130c984828501612e5a565b91505092915050565b6000602082840312156130e457600080fd5b60006130f284828501612e6f565b91505092915050565b60006020828403121561310d57600080fd5b600061311b84828501612ed8565b91505092915050565b6000806040838503121561313757600080fd5b600061314585828601612ed8565b925050602083013567ffffffffffffffff81111561316257600080fd5b61316e85828601612eae565b9150509250929050565b60008060008060008060c0878903121561319157600080fd5b600061319f89828a01612ed8565b965050602087013567ffffffffffffffff8111156131bc57600080fd5b6131c889828a01612eae565b95505060406131d989828a01612ed8565b94505060606131ea89828a01612eed565b93505060806131fb89828a01612e45565b92505060a061320c89828a01612e45565b9150509295509295509295565b600080600080600060a0868803121561323157600080fd5b600061323f88828901612ed8565b955050602086013567ffffffffffffffff81111561325c57600080fd5b61326888828901612eae565b945050604061327988828901612eed565b935050606061328a88828901612e45565b925050608061329b88828901612e45565b9150509295509295909350565b60006132b483836132e3565b60208301905092915050565b60006132cc8383613867565b905092915050565b6132dd81614032565b82525050565b6132ec81614020565b82525050565b6132fb81614020565b82525050565b61331261330d82614020565b6141ab565b82525050565b600061332382613ebf565b61332d8185613f05565b935061333883613e9f565b8060005b8381101561336957815161335088826132a8565b975061335b83613eeb565b92505060018101905061333c565b5085935050505092915050565b600061338182613eca565b61338b8185613f16565b93508360208202850161339d85613eaf565b8060005b858110156133d957848403895281516133ba85826132c0565b94506133c583613ef8565b925060208a019950506001810190506133a1565b50829750879550505050505092915050565b6133f481614044565b82525050565b61340381614050565b82525050565b61341a61341582614050565b6141bd565b82525050565b600061342b82613ed5565b6134358185613f27565b93506134458185602086016140cc565b61344e816142d0565b840191505092915050565b600061346482613ee0565b61346e8185613f38565b935061347e8185602086016140cc565b613487816142d0565b840191505092915050565b600061349d82613ee0565b6134a78185613f49565b93506134b78185602086016140cc565b6134c0816142d0565b840191505092915050565b60006134d682613ee0565b6134e08185613f5a565b93506134f08185602086016140cc565b80840191505092915050565b6000613509601883613f49565b9150613514826142ee565b602082019050919050565b600061352c601f83613f49565b915061353782614317565b602082019050919050565b600061354f601c83613f5a565b915061355a82614340565b601c82019050919050565b6000613572603283613f49565b915061357d82614369565b604082019050919050565b6000613595602383613f49565b91506135a0826143b8565b604082019050919050565b60006135b8601c83613f49565b91506135c382614407565b602082019050919050565b60006135db602483613f49565b91506135e682614430565b604082019050919050565b60006135fe601983613f49565b91506136098261447f565b602082019050919050565b6000613621601183613f49565b915061362c826144a8565b602082019050919050565b6000613644602283613f49565b915061364f826144d1565b604082019050919050565b6000613667602c83613f49565b915061367282614520565b604082019050919050565b600061368a603883613f49565b91506136958261456f565b604082019050919050565b60006136ad602a83613f49565b91506136b8826145be565b604082019050919050565b60006136d0602983613f49565b91506136db8261460d565b604082019050919050565b60006136f3602e83613f49565b91506136fe8261465c565b604082019050919050565b6000613716602283613f49565b9150613721826146ab565b604082019050919050565b6000613739602083613f49565b9150613744826146fa565b602082019050919050565b600061375c603183613f49565b915061376782614723565b604082019050919050565b600061377f602c83613f49565b915061378a82614772565b604082019050919050565b60006137a2602983613f49565b91506137ad826147c1565b604082019050919050565b60006137c5602f83613f49565b91506137d082614810565b604082019050919050565b60006137e8602183613f49565b91506137f38261485f565b604082019050919050565b600061380b603183613f49565b9150613816826148ae565b604082019050919050565b600061382e602483613f49565b9150613839826148fd565b604082019050919050565b6000613851601f83613f49565b915061385c8261494c565b602082019050919050565b600060408301600083015161387f60008601826138a4565b50602083015184820360208601526138978282613459565b9150508091505092915050565b6138ad816140a6565b82525050565b6138bc816140a6565b82525050565b6138d36138ce826140a6565b6141d9565b82525050565b6138e2816140b0565b82525050565b60006138f482856134cb565b915061390082846134cb565b91508190509392505050565b600061391782613542565b91506139238284613409565b60208201915081905092915050565b600061393e82866138c2565b60208201915061394e8285613301565b60148201915061395e82846134cb565b9150819050949350505050565b600061397782876138c2565b6020820191506139878286613301565b60148201915061399782856134cb565b91506139a382846138c2565b60208201915081905095945050505050565b60006020820190506139ca60008301846132f2565b92915050565b60006020820190506139e560008301846132d4565b92915050565b6000608082019050613a0060008301876132f2565b613a0d60208301866132f2565b613a1a60408301856138b3565b8181036060830152613a2c8184613420565b905095945050505050565b60006020820190508181036000830152613a518184613318565b905092915050565b60006020820190508181036000830152613a738184613376565b905092915050565b6000602082019050613a9060008301846133eb565b92915050565b6000608082019050613aab60008301876133fa565b613ab860208301866138d9565b613ac560408301856133fa565b613ad260608301846133fa565b95945050505050565b60006020820190508181036000830152613af58184613492565b905092915050565b60006020820190508181036000830152613b16816134fc565b9050919050565b60006020820190508181036000830152613b368161351f565b9050919050565b60006020820190508181036000830152613b5681613565565b9050919050565b60006020820190508181036000830152613b7681613588565b9050919050565b60006020820190508181036000830152613b96816135ab565b9050919050565b60006020820190508181036000830152613bb6816135ce565b9050919050565b60006020820190508181036000830152613bd6816135f1565b9050919050565b60006020820190508181036000830152613bf681613614565b9050919050565b60006020820190508181036000830152613c1681613637565b9050919050565b60006020820190508181036000830152613c368161365a565b9050919050565b60006020820190508181036000830152613c568161367d565b9050919050565b60006020820190508181036000830152613c76816136a0565b9050919050565b60006020820190508181036000830152613c96816136c3565b9050919050565b60006020820190508181036000830152613cb6816136e6565b9050919050565b60006020820190508181036000830152613cd681613709565b9050919050565b60006020820190508181036000830152613cf68161372c565b9050919050565b60006020820190508181036000830152613d168161374f565b9050919050565b60006020820190508181036000830152613d3681613772565b9050919050565b60006020820190508181036000830152613d5681613795565b9050919050565b60006020820190508181036000830152613d76816137b8565b9050919050565b60006020820190508181036000830152613d96816137db565b9050919050565b60006020820190508181036000830152613db6816137fe565b9050919050565b60006020820190508181036000830152613dd681613821565b9050919050565b60006020820190508181036000830152613df681613844565b9050919050565b6000602082019050613e1260008301846138b3565b92915050565b6000613e22613e33565b9050613e2e8282614131565b919050565b6000604051905090565b600067ffffffffffffffff821115613e5857613e576142a1565b5b613e61826142d0565b9050602081019050919050565b600067ffffffffffffffff821115613e8957613e886142a1565b5b613e92826142d0565b9050602081019050919050565b6000819050602082019050919050565b6000819050602082019050919050565b600081519050919050565b600081519050919050565b600081519050919050565b600081519050919050565b6000602082019050919050565b6000602082019050919050565b600082825260208201905092915050565b600082825260208201905092915050565b600082825260208201905092915050565b600082825260208201905092915050565b600082825260208201905092915050565b600081905092915050565b6000613f70826140a6565b9150613f7b836140a6565b9250827fffffffffffffffffffffffffffffffffffffffffffffffffffffffffffffffff03821115613fb057613faf614214565b5b828201905092915050565b6000613fc6826140a6565b9150613fd1836140a6565b925082613fe157613fe0614243565b5b828204905092915050565b6000613ff7826140a6565b9150614002836140a6565b92508282101561401557614014614214565b5b828203905092915050565b600061402b82614086565b9050919050565b600061403d82614086565b9050919050565b60008115159050919050565b6000819050919050565b60007fffffffff0000000000000000000000000000000000000000000000000000000082169050919050565b600073ffffffffffffffffffffffffffffffffffffffff82169050919050565b6000819050919050565b600060ff82169050919050565b82818337600083830152505050565b60005b838110156140ea5780820151818401526020810190506140cf565b838111156140f9576000848401525b50505050565b6000600282049050600182168061411757607f821691505b6020821081141561412b5761412a614272565b5b50919050565b61413a826142d0565b810181811067ffffffffffffffff82111715614159576141586142a1565b5b80604052505050565b600061416d826140a6565b91507fffffffffffffffffffffffffffffffffffffffffffffffffffffffffffffffff8214156141a05761419f614214565b5b600182019050919050565b60006141b6826141c7565b9050919050565b6000819050919050565b60006141d2826142e1565b9050919050565b6000819050919050565b60006141ee826140a6565b91506141f9836140a6565b92508261420957614208614243565b5b828206905092915050565b7f4e487b7100000000000000000000000000000000000000000000000000000000600052601160045260246000fd5b7f4e487b7100000000000000000000000000000000000000000000000000000000600052601260045260246000fd5b7f4e487b7100000000000000000000000000000000000000000000000000000000600052602260045260246000fd5b7f4e487b7100000000000000000000000000000000000000000000000000000000600052604160045260246000fd5b6000601f19601f8301169050919050565b60008160601b9050919050565b7f45434453413a20696e76616c6964207369676e61747572650000000000000000600082015250565b7f45434453413a20696e76616c6964207369676e6174757265206c656e67746800600082015250565b7f19457468657265756d205369676e6564204d6573736167653a0a333200000000600082015250565b7f4552433732313a207472616e7366657220746f206e6f6e20455243373231526560008201527f63656976657220696d706c656d656e7465720000000000000000000000000000602082015250565b7f416c7265616479206d696e74656420617420746869732073636f72652062656660008201527f6f72650000000000000000000000000000000000000000000000000000000000602082015250565b7f4552433732313a20746f6b656e20616c7265616479206d696e74656400000000600082015250565b7f4552433732313a207472616e7366657220746f20746865207a65726f2061646460008201527f7265737300000000000000000000000000000000000000000000000000000000602082015250565b7f4552433732313a20617070726f766520746f2063616c6c657200000000000000600082015250565b7f496e76616c6964207369676e6174757265000000000000000000000000000000600082015250565b7f45434453413a20696e76616c6964207369676e6174757265202773272076616c60008201527f7565000000000000000000000000000000000000000000000000000000000000602082015250565b7f4552433732313a206f70657261746f7220717565727920666f72206e6f6e657860008201527f697374656e7420746f6b656e0000000000000000000000000000000000000000602082015250565b7f4552433732313a20617070726f76652063616c6c6572206973206e6f74206f7760008201527f6e6572206e6f7220617070726f76656420666f7220616c6c0000000000000000602082015250565b7f4552433732313a2062616c616e636520717565727920666f7220746865207a6560008201527f726f206164647265737300000000000000000000000000000000000000000000602082015250565b7f4552433732313a206f776e657220717565727920666f72206e6f6e657869737460008201527f656e7420746f6b656e0000000000000000000000000000000000000000000000602082015250565b7f45524337323155524953746f726167653a2055524920736574206f66206e6f6e60008201527f6578697374656e7420746f6b656e000000000000000000000000000000000000602082015250565b7f45434453413a20696e76616c6964207369676e6174757265202776272076616c60008201527f7565000000000000000000000000000000000000000000000000000000000000602082015250565b7f4552433732313a206d696e7420746f20746865207a65726f2061646472657373600082015250565b7f45524337323155524953746f726167653a2055524920717565727920666f722060008201527f6e6f6e6578697374656e7420746f6b656e000000000000000000000000000000602082015250565b7f4552433732313a20617070726f76656420717565727920666f72206e6f6e657860008201527f697374656e7420746f6b656e0000000000000000000000000000000000000000602082015250565b7f4552433732313a207472616e73666572206f6620746f6b656e2074686174206960008201527f73206e6f74206f776e0000000000000000000000000000000000000000000000602082015250565b7f4552433732314d657461646174613a2055524920717565727920666f72206e6f60008201527f6e6578697374656e7420746f6b656e0000000000000000000000000000000000602082015250565b7f4552433732313a20617070726f76616c20746f2063757272656e74206f776e6560008201527f7200000000000000000000000000000000000000000000000000000000000000602082015250565b7f4552433732313a207472616e736665722063616c6c6572206973206e6f74206f60008201527f776e6572206e6f7220617070726f766564000000000000000000000000000000602082015250565b7f5468652063616c6c6572206973206e6f742074686520636f6e7472616374206f60008201527f776e657200000000000000000000000000000000000000000000000000000000602082015250565b7f5265656e7472616e637947756172643a207265656e7472616e742063616c6c00600082015250565b61497e81614020565b811461498957600080fd5b50565b61499581614044565b81146149a057600080fd5b50565b6149ac81614050565b81146149b757600080fd5b50565b6149c38161405a565b81146149ce57600080fd5b50565b6149da816140a6565b81146149e557600080fd5b50565b6149f1816140b0565b81146149fc57600080fd5b5056fea264697066735822122039e3ab25bbe14cc1e0a56f2c848af0755726f018f4d8c5abf9cd1c5dcd6100bf64736f6c63430008040033",
  "immutableReferences": {},
  "source": "// SPDX-License-Identifier: MIT\r\npragma solidity ^0.8.4;\r\n\r\nimport \"@openzeppelin/contracts/token/ERC721/ERC721.sol\";\r\nimport \"@openzeppelin/contracts/token/ERC721/extensions/ERC721URIStorage.sol\";\r\nimport \"@openzeppelin/contracts/utils/Counters.sol\";\r\nimport \"@openzeppelin/contracts/utils/cryptography/ECDSA.sol\";\r\nimport \"@openzeppelin/contracts/security/ReentrancyGuard.sol\";\r\n\r\ncontract Turtis is ERC721URIStorage, ReentrancyGuard {\r\n  using ECDSA for bytes32;\r\n  using Counters for Counters.Counter;\r\n  Counters.Counter private _totalSupply;\r\n\r\n  address payable public contractOwner; // Owner of this contract\r\n  address private marketContractAddress;\r\n\r\n  address[] private users; // Address array to store all the users\r\n\r\n  address public signedWalletAddress;\r\n\r\n  // Mapping from User address to high score\r\n  mapping(address => uint256) public userAddressToHighScore;\r\n\r\n  // Events\r\n\r\n  // Emitted when a new Turtle is generated after reaching a new checkpoint in the game\r\n  event NewTurtleGenerated(uint256 tokenId);\r\n\r\n  // Emitted when an existing Turtle is upgraded by its owner\r\n  event TurtleUpgraded(uint256 tokenId);\r\n\r\n  // Emitted when a Turtle is bought\r\n  event TurtleBought(uint256 tokenId);\r\n\r\n  // Emitted when a Turtle is put up for sale\r\n  event TurtleUpForSale(uint256 tokenId);\r\n\r\n  struct NFTItem {\r\n    uint256 tokenId;\r\n    string tokenURI;\r\n  }\r\n\r\n  mapping(uint256 => NFTItem) tokenIdToNFTItem;\r\n\r\n  // Contructor is called when an instance of 'TurtleMarket' contract is deployed\r\n  constructor(address marketplaceAddress) ERC721(\"TurtleCharacter\", \"TRTL\") {\r\n    contractOwner = payable(msg.sender);\r\n    marketContractAddress = marketplaceAddress;\r\n  }\r\n\r\n  // Modifer that checks to see if msg.sender == contractOwner\r\n  modifier onlyContractOwner() {\r\n    require(\r\n      msg.sender == contractOwner,\r\n      \"The caller is not the contract owner\"\r\n    );\r\n    _;\r\n  }\r\n\r\n  // Function 'totalSupply' returns the total token supply of this contract\r\n  function totalSupply() public view returns (uint256) {\r\n    return _totalSupply.current();\r\n  }\r\n\r\n  function setMarketContractAddress(address _contractAddress)\r\n    public\r\n    onlyContractOwner\r\n  {\r\n    marketContractAddress = _contractAddress;\r\n  }\r\n\r\n  // Function 'getUsers' returns the address array of users\r\n  function getUsers() public view returns (address[] memory) {\r\n    return users;\r\n  }\r\n\r\n  // Function 'setHighScore' sets a new highScore for the user\r\n  function setHighScore(uint256 _newHighScore, address _sender) internal {\r\n    if (userAddressToHighScore[_sender] == 0) {\r\n      users.push(_sender);\r\n    }\r\n    userAddressToHighScore[_sender] = _newHighScore;\r\n  }\r\n\r\n  // Function 'generateTurtle' mints a new Turtle NFT for the user\r\n  function generateTurtle(\r\n    uint256 _score,\r\n    string memory _tokenURI,\r\n    uint8 v,\r\n    bytes32 r,\r\n    bytes32 s\r\n  ) public nonReentrant {\r\n    bytes32 message = keccak256(\r\n      abi.encodePacked(_score, msg.sender, _tokenURI)\r\n    );\r\n\r\n    bytes32 messageHash = message.toEthSignedMessageHash();\r\n    address walletAddress = messageHash.recover(v, r, s);\r\n    require(walletAddress == signedWalletAddress, \"Invalid signature\");\r\n    require(\r\n      _score > userAddressToHighScore[msg.sender],\r\n      \"Already minted at this score before\"\r\n    );\r\n    setHighScore(_score, msg.sender);\r\n    uint256 _tokenID = totalSupply();\r\n    _safeMint(msg.sender, _tokenID);\r\n    _totalSupply.increment();\r\n    _setTokenURI(_tokenID, _tokenURI);\r\n    tokenIdToNFTItem[_tokenID] = NFTItem(_tokenID, _tokenURI);\r\n    setApprovalForAll(marketContractAddress, true);\r\n\r\n    emit NewTurtleGenerated(_tokenID);\r\n  }\r\n\r\n  // Function 'upgradeTurtle' upgrades an existing Turtle NFT\r\n  function upgradeTurtle(\r\n    uint256 _score,\r\n    string memory _tokenURI,\r\n    uint256 _tokenId,\r\n    uint8 v,\r\n    bytes32 r,\r\n    bytes32 s\r\n  ) public nonReentrant {\r\n    bytes32 message = keccak256(\r\n      abi.encodePacked(_score, msg.sender, _tokenURI, _tokenId)\r\n    );\r\n\r\n    bytes32 messageHash = message.toEthSignedMessageHash();\r\n    address walletAddress = messageHash.recover(v, r, s);\r\n    require(walletAddress == signedWalletAddress, \"Invalid signature\");\r\n    require(\r\n      _score > userAddressToHighScore[msg.sender],\r\n      \"Already minted at this score before\"\r\n    );\r\n    setHighScore(_score, msg.sender);\r\n    _setTokenURI(_tokenId, _tokenURI);\r\n    tokenIdToNFTItem[_tokenId] = NFTItem(_tokenId, _tokenURI);\r\n\r\n    emit TurtleUpgraded(_tokenId);\r\n  }\r\n\r\n  // Function 'setTokenURI' sets the Token URI for the ERC721 standard token\r\n  function setTokenURI(string memory _tokenURI) private {\r\n    uint256 lastTokenId = totalSupply() - 1;\r\n    _setTokenURI(lastTokenId, _tokenURI);\r\n    tokenIdToNFTItem[lastTokenId] = NFTItem(lastTokenId, _tokenURI);\r\n  }\r\n\r\n  // Function 'setSignedWalletAddress' sets the address of the wallet that signs the minting of the Turtle NFT\r\n  function setSignedWalletAddress(address _walletAddress)\r\n    public\r\n    onlyContractOwner\r\n  {\r\n    signedWalletAddress = _walletAddress;\r\n  }\r\n\r\n  // Function 'uint2str' converts a uint256 variable to a string variable\r\n  function uint2str(uint256 _i)\r\n    internal\r\n    pure\r\n    returns (string memory _uintAsString)\r\n  {\r\n    if (_i == 0) {\r\n      return \"0\";\r\n    }\r\n    uint256 j = _i;\r\n    uint256 len;\r\n    while (j != 0) {\r\n      len++;\r\n      j /= 10;\r\n    }\r\n    bytes memory bstr = new bytes(len);\r\n    uint256 k = len;\r\n    while (_i != 0) {\r\n      k = k - 1;\r\n      uint8 temp = (48 + uint8(_i - (_i / 10) * 10));\r\n      bytes1 b1 = bytes1(temp);\r\n      bstr[k] = b1;\r\n      _i /= 10;\r\n    }\r\n    return string(bstr);\r\n  }\r\n\r\n  // Function 'updateTokenURI' updates the Token URI for a specific Token\r\n  function updateTokenURI(uint256 _tokenId, string memory _tokenURI)\r\n    public\r\n    onlyContractOwner\r\n  {\r\n    _setTokenURI(_tokenId, _tokenURI);\r\n    tokenIdToNFTItem[_tokenId] = NFTItem(_tokenId, _tokenURI);\r\n  }\r\n\r\n  function getBalanceOfUser(address _user) public view returns (uint256) {\r\n    return balanceOf(_user);\r\n  }\r\n\r\n  function getUserOwnedNFTs(address _user)\r\n    public\r\n    view\r\n    returns (NFTItem[] memory)\r\n  {\r\n    NFTItem[] memory nfts = new NFTItem[](getBalanceOfUser(_user));\r\n    uint256 totalNFTCount = totalSupply();\r\n    uint256 curInd = 0;\r\n    for (uint256 i = 0; i < totalNFTCount; i++) {\r\n      if (ownerOf(i) == _user) {\r\n        NFTItem storage curItem = tokenIdToNFTItem[i];\r\n        nfts[curInd++] = curItem;\r\n      }\r\n    }\r\n    return nfts;\r\n  }\r\n\r\n  function getAllNFTs() public view returns (NFTItem[] memory) {\r\n    uint256 totalNFTCount = totalSupply();\r\n    NFTItem[] memory nfts = new NFTItem[](totalNFTCount);\r\n    for (uint256 i = 0; i < totalNFTCount; i++) {\r\n      NFTItem storage curItem = tokenIdToNFTItem[i];\r\n      nfts[i] = curItem;\r\n    }\r\n    return nfts;\r\n  }\r\n}\r\n",
  "sourcePath": "D:/Dodging-Turtis/truffle/contracts/Turtis.sol",
  "compiler": {
    "name": "solc",
    "version": "0.8.4+commit.c7e474f2.Emscripten.clang"
  },
  "schemaVersion": "3.4.1",
  "updatedAt": "2022-03-19T10:15:46.933Z",
  "networkType": "ethereum",
  "devdoc": {
    "kind": "dev",
    "methods": {
      "approve(address,uint256)": {
        "details": "See {IERC721-approve}."
      },
      "balanceOf(address)": {
        "details": "See {IERC721-balanceOf}."
      },
      "getApproved(uint256)": {
        "details": "See {IERC721-getApproved}."
      },
      "isApprovedForAll(address,address)": {
        "details": "See {IERC721-isApprovedForAll}."
      },
      "name()": {
        "details": "See {IERC721Metadata-name}."
      },
      "ownerOf(uint256)": {
        "details": "See {IERC721-ownerOf}."
      },
      "safeTransferFrom(address,address,uint256)": {
        "details": "See {IERC721-safeTransferFrom}."
      },
      "safeTransferFrom(address,address,uint256,bytes)": {
        "details": "See {IERC721-safeTransferFrom}."
      },
      "setApprovalForAll(address,bool)": {
        "details": "See {IERC721-setApprovalForAll}."
      },
      "supportsInterface(bytes4)": {
        "details": "See {IERC165-supportsInterface}."
      },
      "symbol()": {
        "details": "See {IERC721Metadata-symbol}."
      },
      "tokenURI(uint256)": {
        "details": "See {IERC721Metadata-tokenURI}."
      },
      "transferFrom(address,address,uint256)": {
        "details": "See {IERC721-transferFrom}."
      }
    },
    "version": 1
  },
  "userdoc": {
    "kind": "user",
    "methods": {},
    "version": 1
  }
}