{
  "contractName": "TurtisMarket",
  "abi": [
    {
      "inputs": [],
      "stateMutability": "nonpayable",
      "type": "constructor"
    },
    {
      "anonymous": false,
      "inputs": [
        {
          "indexed": true,
          "internalType": "uint256",
          "name": "itemId",
          "type": "uint256"
        },
        {
          "indexed": true,
          "internalType": "address",
          "name": "nftContract",
          "type": "address"
        },
        {
          "indexed": true,
          "internalType": "uint256",
          "name": "tokenId",
          "type": "uint256"
        },
        {
          "indexed": false,
          "internalType": "address",
          "name": "seller",
          "type": "address"
        },
        {
          "indexed": false,
          "internalType": "address",
          "name": "owner",
          "type": "address"
        },
        {
          "indexed": false,
          "internalType": "uint256",
          "name": "price",
          "type": "uint256"
        },
        {
          "indexed": false,
          "internalType": "bool",
          "name": "sold",
          "type": "bool"
        }
      ],
      "name": "MarketItemCreated",
      "type": "event"
    },
    {
      "inputs": [],
      "name": "getListingPrice",
      "outputs": [
        {
          "internalType": "uint256",
          "name": "",
          "type": "uint256"
        }
      ],
      "stateMutability": "view",
      "type": "function",
      "constant": true
    },
    {
      "inputs": [
        {
          "internalType": "address",
          "name": "nftContract",
          "type": "address"
        },
        {
          "internalType": "uint256",
          "name": "tokenId",
          "type": "uint256"
        },
        {
          "internalType": "uint256",
          "name": "price",
          "type": "uint256"
        }
      ],
      "name": "createMarketItem",
      "outputs": [],
      "stateMutability": "payable",
      "type": "function",
      "payable": true
    },
    {
      "inputs": [
        {
          "internalType": "address",
          "name": "nftContract",
          "type": "address"
        },
        {
          "internalType": "uint256",
          "name": "itemId",
          "type": "uint256"
        }
      ],
      "name": "createMarketSale",
      "outputs": [],
      "stateMutability": "payable",
      "type": "function",
      "payable": true
    },
    {
      "inputs": [],
      "name": "fetchMarketItems",
      "outputs": [
        {
          "components": [
            {
              "internalType": "uint256",
              "name": "itemId",
              "type": "uint256"
            },
            {
              "internalType": "address",
              "name": "nftContract",
              "type": "address"
            },
            {
              "internalType": "uint256",
              "name": "tokenId",
              "type": "uint256"
            },
            {
              "internalType": "address payable",
              "name": "seller",
              "type": "address"
            },
            {
              "internalType": "address payable",
              "name": "owner",
              "type": "address"
            },
            {
              "internalType": "uint256",
              "name": "price",
              "type": "uint256"
            },
            {
              "internalType": "bool",
              "name": "sold",
              "type": "bool"
            }
          ],
          "internalType": "struct TurtisMarket.MarketItem[]",
          "name": "",
          "type": "tuple[]"
        }
      ],
      "stateMutability": "view",
      "type": "function",
      "constant": true
    },
    {
      "inputs": [
        {
          "internalType": "address",
          "name": "_user",
          "type": "address"
        }
      ],
      "name": "fetchUserNFTs",
      "outputs": [
        {
          "components": [
            {
              "internalType": "uint256",
              "name": "itemId",
              "type": "uint256"
            },
            {
              "internalType": "address",
              "name": "nftContract",
              "type": "address"
            },
            {
              "internalType": "uint256",
              "name": "tokenId",
              "type": "uint256"
            },
            {
              "internalType": "address payable",
              "name": "seller",
              "type": "address"
            },
            {
              "internalType": "address payable",
              "name": "owner",
              "type": "address"
            },
            {
              "internalType": "uint256",
              "name": "price",
              "type": "uint256"
            },
            {
              "internalType": "bool",
              "name": "sold",
              "type": "bool"
            }
          ],
          "internalType": "struct TurtisMarket.MarketItem[]",
          "name": "",
          "type": "tuple[]"
        }
      ],
      "stateMutability": "view",
      "type": "function",
      "constant": true
    },
    {
      "inputs": [
        {
          "internalType": "address",
          "name": "_user",
          "type": "address"
        }
      ],
      "name": "fetchUserItemsCreated",
      "outputs": [
        {
          "components": [
            {
              "internalType": "uint256",
              "name": "itemId",
              "type": "uint256"
            },
            {
              "internalType": "address",
              "name": "nftContract",
              "type": "address"
            },
            {
              "internalType": "uint256",
              "name": "tokenId",
              "type": "uint256"
            },
            {
              "internalType": "address payable",
              "name": "seller",
              "type": "address"
            },
            {
              "internalType": "address payable",
              "name": "owner",
              "type": "address"
            },
            {
              "internalType": "uint256",
              "name": "price",
              "type": "uint256"
            },
            {
              "internalType": "bool",
              "name": "sold",
              "type": "bool"
            }
          ],
          "internalType": "struct TurtisMarket.MarketItem[]",
          "name": "",
          "type": "tuple[]"
        }
      ],
      "stateMutability": "view",
      "type": "function",
      "constant": true
    },
    {
      "inputs": [
        {
          "internalType": "address",
          "name": "_user",
          "type": "address"
        }
      ],
      "name": "fetchUserItemsSold",
      "outputs": [
        {
          "components": [
            {
              "internalType": "uint256",
              "name": "itemId",
              "type": "uint256"
            },
            {
              "internalType": "address",
              "name": "nftContract",
              "type": "address"
            },
            {
              "internalType": "uint256",
              "name": "tokenId",
              "type": "uint256"
            },
            {
              "internalType": "address payable",
              "name": "seller",
              "type": "address"
            },
            {
              "internalType": "address payable",
              "name": "owner",
              "type": "address"
            },
            {
              "internalType": "uint256",
              "name": "price",
              "type": "uint256"
            },
            {
              "internalType": "bool",
              "name": "sold",
              "type": "bool"
            }
          ],
          "internalType": "struct TurtisMarket.MarketItem[]",
          "name": "",
          "type": "tuple[]"
        }
      ],
      "stateMutability": "view",
      "type": "function",
      "constant": true
    }
  ],
  "bytecode": "0x6080604052670de0b6b3a764000060045534801561001c57600080fd5b50600160008190555033600360006101000a81548173ffffffffffffffffffffffffffffffffffffffff021916908373ffffffffffffffffffffffffffffffffffffffff160217905550611f3a806100756000396000f3fe6080604052600436106100705760003560e01c806358eb2df51161004e57806358eb2df514610108578063596a0f3b14610124578063bd68b11714610161578063c23b139e1461019e57610070565b80630f08efe01461007557806312e85585146100a057806318c45743146100cb575b600080fd5b34801561008157600080fd5b5061008a6101ba565b6040516100979190611b14565b60405180910390f35b3480156100ac57600080fd5b506100b56104e6565b6040516100c29190611bd6565b60405180910390f35b3480156100d757600080fd5b506100f260048036038101906100ed91906117c8565b6104f0565b6040516100ff9190611b14565b60405180910390f35b610122600480360381019061011d919061182d565b6108a2565b005b34801561013057600080fd5b5061014b600480360381019061014691906117c8565b610c06565b6040516101589190611b14565b60405180910390f35b34801561016d57600080fd5b50610188600480360381019061018391906117c8565b611036565b6040516101959190611b14565b60405180910390f35b6101b860048036038101906101b391906117f1565b6113e8565b005b606060006101c860016116f9565b905060006101d660026116f9565b6101e060016116f9565b6101ea9190611c91565b90506000808267ffffffffffffffff81111561022f577f4e487b7100000000000000000000000000000000000000000000000000000000600052604160045260246000fd5b60405190808252806020026020018201604052801561026857816020015b61025561171d565b81526020019060019003908161024d5790505b50905060005b848110156104db57600073ffffffffffffffffffffffffffffffffffffffff166005600060018461029f9190611c3b565b815260200190815260200160002060040160009054906101000a900473ffffffffffffffffffffffffffffffffffffffff1673ffffffffffffffffffffffffffffffffffffffff1614156104c8576000600560006001846103009190611c3b565b81526020019081526020016000206000015490506000600560008381526020019081526020016000209050806040518060e0016040529081600082015481526020016001820160009054906101000a900473ffffffffffffffffffffffffffffffffffffffff1673ffffffffffffffffffffffffffffffffffffffff1673ffffffffffffffffffffffffffffffffffffffff168152602001600282015481526020016003820160009054906101000a900473ffffffffffffffffffffffffffffffffffffffff1673ffffffffffffffffffffffffffffffffffffffff1673ffffffffffffffffffffffffffffffffffffffff1681526020016004820160009054906101000a900473ffffffffffffffffffffffffffffffffffffffff1673ffffffffffffffffffffffffffffffffffffffff1673ffffffffffffffffffffffffffffffffffffffff168152602001600582015481526020016006820160009054906101000a900460ff1615151515815250508486815181106104ab577f4e487b7100000000000000000000000000000000000000000000000000000000600052603260045260246000fd5b60200260200101819052506001856104c39190611c3b565b945050505b80806104d390611d1f565b91505061026e565b508094505050505090565b6000600454905090565b606060006104fe60016116f9565b905060008060005b838110156105a7578573ffffffffffffffffffffffffffffffffffffffff16600560006001846105369190611c3b565b815260200190815260200160002060030160009054906101000a900473ffffffffffffffffffffffffffffffffffffffff1673ffffffffffffffffffffffffffffffffffffffff161415610594576001836105919190611c3b565b92505b808061059f90611d1f565b915050610506565b5060008267ffffffffffffffff8111156105ea577f4e487b7100000000000000000000000000000000000000000000000000000000600052604160045260246000fd5b60405190808252806020026020018201604052801561062357816020015b61061061171d565b8152602001906001900390816106085790505b50905060005b84811015610895578673ffffffffffffffffffffffffffffffffffffffff16600560006001846106599190611c3b565b815260200190815260200160002060030160009054906101000a900473ffffffffffffffffffffffffffffffffffffffff1673ffffffffffffffffffffffffffffffffffffffff161415610882576000600560006001846106ba9190611c3b565b81526020019081526020016000206000015490506000600560008381526020019081526020016000209050806040518060e0016040529081600082015481526020016001820160009054906101000a900473ffffffffffffffffffffffffffffffffffffffff1673ffffffffffffffffffffffffffffffffffffffff1673ffffffffffffffffffffffffffffffffffffffff168152602001600282015481526020016003820160009054906101000a900473ffffffffffffffffffffffffffffffffffffffff1673ffffffffffffffffffffffffffffffffffffffff1673ffffffffffffffffffffffffffffffffffffffff1681526020016004820160009054906101000a900473ffffffffffffffffffffffffffffffffffffffff1673ffffffffffffffffffffffffffffffffffffffff1673ffffffffffffffffffffffffffffffffffffffff168152602001600582015481526020016006820160009054906101000a900460ff161515151581525050848681518110610865577f4e487b7100000000000000000000000000000000000000000000000000000000600052603260045260246000fd5b602002602001018190525060018561087d9190611c3b565b945050505b808061088d90611d1f565b915050610629565b5080945050505050919050565b600260005414156108e8576040517f08c379a00000000000000000000000000000000000000000000000000000000081526004016108df90611b96565b60405180910390fd5b600260008190555060018111610933576040517f08c379a000000000000000000000000000000000000000000000000000000000815260040161092a90611b36565b60405180910390fd5b6004543414610977576040517f08c379a000000000000000000000000000000000000000000000000000000000815260040161096e90611b76565b60405180910390fd5b6109816001611707565b600061098d60016116f9565b90506040518060e001604052808281526020018573ffffffffffffffffffffffffffffffffffffffff1681526020018481526020013373ffffffffffffffffffffffffffffffffffffffff168152602001600073ffffffffffffffffffffffffffffffffffffffff16815260200183815260200160001515815250600560008381526020019081526020016000206000820151816000015560208201518160010160006101000a81548173ffffffffffffffffffffffffffffffffffffffff021916908373ffffffffffffffffffffffffffffffffffffffff1602179055506040820151816002015560608201518160030160006101000a81548173ffffffffffffffffffffffffffffffffffffffff021916908373ffffffffffffffffffffffffffffffffffffffff16021790555060808201518160040160006101000a81548173ffffffffffffffffffffffffffffffffffffffff021916908373ffffffffffffffffffffffffffffffffffffffff16021790555060a0820151816005015560c08201518160060160006101000a81548160ff0219169083151502179055509050508373ffffffffffffffffffffffffffffffffffffffff166323b872dd3330866040518463ffffffff1660e01b8152600401610b6e93929190611a98565b600060405180830381600087803b158015610b8857600080fd5b505af1158015610b9c573d6000803e3d6000fd5b50505050828473ffffffffffffffffffffffffffffffffffffffff16827f045dfa01dcba2b36aba1d3dc4a874f4b0c5d2fbeb8d2c4b34a7d88c8d8f929d1336000876000604051610bf09493929190611acf565b60405180910390a4506001600081905550505050565b60606000610c1460016116f9565b905060008060005b83811015610cfc578573ffffffffffffffffffffffffffffffffffffffff1660056000600184610c4c9190611c3b565b815260200190815260200160002060030160009054906101000a900473ffffffffffffffffffffffffffffffffffffffff1673ffffffffffffffffffffffffffffffffffffffff16148015610cd457506001151560056000600184610cb19190611c3b565b815260200190815260200160002060060160009054906101000a900460ff161515145b15610ce957600183610ce69190611c3b565b92505b8080610cf490611d1f565b915050610c1c565b5060008267ffffffffffffffff811115610d3f577f4e487b7100000000000000000000000000000000000000000000000000000000600052604160045260246000fd5b604051908082528060200260200182016040528015610d7857816020015b610d6561171d565b815260200190600190039081610d5d5790505b50905060005b84811015611029578673ffffffffffffffffffffffffffffffffffffffff1660056000600184610dae9190611c3b565b815260200190815260200160002060030160009054906101000a900473ffffffffffffffffffffffffffffffffffffffff1673ffffffffffffffffffffffffffffffffffffffff16148015610e3657506001151560056000600184610e139190611c3b565b815260200190815260200160002060060160009054906101000a900460ff161515145b1561101657600060056000600184610e4e9190611c3b565b81526020019081526020016000206000015490506000600560008381526020019081526020016000209050806040518060e0016040529081600082015481526020016001820160009054906101000a900473ffffffffffffffffffffffffffffffffffffffff1673ffffffffffffffffffffffffffffffffffffffff1673ffffffffffffffffffffffffffffffffffffffff168152602001600282015481526020016003820160009054906101000a900473ffffffffffffffffffffffffffffffffffffffff1673ffffffffffffffffffffffffffffffffffffffff1673ffffffffffffffffffffffffffffffffffffffff1681526020016004820160009054906101000a900473ffffffffffffffffffffffffffffffffffffffff1673ffffffffffffffffffffffffffffffffffffffff1673ffffffffffffffffffffffffffffffffffffffff168152602001600582015481526020016006820160009054906101000a900460ff161515151581525050848681518110610ff9577f4e487b7100000000000000000000000000000000000000000000000000000000600052603260045260246000fd5b60200260200101819052506001856110119190611c3b565b945050505b808061102190611d1f565b915050610d7e565b5080945050505050919050565b6060600061104460016116f9565b905060008060005b838110156110ed578573ffffffffffffffffffffffffffffffffffffffff166005600060018461107c9190611c3b565b815260200190815260200160002060040160009054906101000a900473ffffffffffffffffffffffffffffffffffffffff1673ffffffffffffffffffffffffffffffffffffffff1614156110da576001836110d79190611c3b565b92505b80806110e590611d1f565b91505061104c565b5060008267ffffffffffffffff811115611130577f4e487b7100000000000000000000000000000000000000000000000000000000600052604160045260246000fd5b60405190808252806020026020018201604052801561116957816020015b61115661171d565b81526020019060019003908161114e5790505b50905060005b848110156113db578673ffffffffffffffffffffffffffffffffffffffff166005600060018461119f9190611c3b565b815260200190815260200160002060040160009054906101000a900473ffffffffffffffffffffffffffffffffffffffff1673ffffffffffffffffffffffffffffffffffffffff1614156113c8576000600560006001846112009190611c3b565b81526020019081526020016000206000015490506000600560008381526020019081526020016000209050806040518060e0016040529081600082015481526020016001820160009054906101000a900473ffffffffffffffffffffffffffffffffffffffff1673ffffffffffffffffffffffffffffffffffffffff1673ffffffffffffffffffffffffffffffffffffffff168152602001600282015481526020016003820160009054906101000a900473ffffffffffffffffffffffffffffffffffffffff1673ffffffffffffffffffffffffffffffffffffffff1673ffffffffffffffffffffffffffffffffffffffff1681526020016004820160009054906101000a900473ffffffffffffffffffffffffffffffffffffffff1673ffffffffffffffffffffffffffffffffffffffff1673ffffffffffffffffffffffffffffffffffffffff168152602001600582015481526020016006820160009054906101000a900460ff1615151515815250508486815181106113ab577f4e487b7100000000000000000000000000000000000000000000000000000000600052603260045260246000fd5b60200260200101819052506001856113c39190611c3b565b945050505b80806113d390611d1f565b91505061116f565b5080945050505050919050565b6002600054141561142e576040517f08c379a000000000000000000000000000000000000000000000000000000000815260040161142590611b96565b60405180910390fd5b600260008190555060008111801561144f575061144b60016116f9565b8111155b61148e576040517f08c379a000000000000000000000000000000000000000000000000000000000815260040161148590611bb6565b60405180910390fd5b600060056000838152602001908152602001600020600501549050600060056000848152602001908152602001600020600201549050813414611506576040517f08c379a00000000000000000000000000000000000000000000000000000000081526004016114fd90611b56565b60405180910390fd5b6005600084815260200190815260200160002060030160009054906101000a900473ffffffffffffffffffffffffffffffffffffffff1673ffffffffffffffffffffffffffffffffffffffff166108fc349081150290604051600060405180830381858888f19350505050158015611582573d6000803e3d6000fd5b508373ffffffffffffffffffffffffffffffffffffffff166323b872dd3033846040518463ffffffff1660e01b81526004016115c093929190611a98565b600060405180830381600087803b1580156115da57600080fd5b505af11580156115ee573d6000803e3d6000fd5b50505050336005600085815260200190815260200160002060040160006101000a81548173ffffffffffffffffffffffffffffffffffffffff021916908373ffffffffffffffffffffffffffffffffffffffff16021790555060016005600085815260200190815260200160002060060160006101000a81548160ff0219169083151502179055506116806002611707565b600360009054906101000a900473ffffffffffffffffffffffffffffffffffffffff1673ffffffffffffffffffffffffffffffffffffffff166108fc6004549081150290604051600060405180830381858888f193505050501580156116ea573d6000803e3d6000fd5b50505060016000819055505050565b600081600001549050919050565b6001816000016000828254019250508190555050565b6040518060e0016040528060008152602001600073ffffffffffffffffffffffffffffffffffffffff16815260200160008152602001600073ffffffffffffffffffffffffffffffffffffffff168152602001600073ffffffffffffffffffffffffffffffffffffffff168152602001600081526020016000151581525090565b6000813590506117ad81611ed6565b92915050565b6000813590506117c281611eed565b92915050565b6000602082840312156117da57600080fd5b60006117e88482850161179e565b91505092915050565b6000806040838503121561180457600080fd5b60006118128582860161179e565b9250506020611823858286016117b3565b9150509250929050565b60008060006060848603121561184257600080fd5b60006118508682870161179e565b9350506020611861868287016117b3565b9250506040611872868287016117b3565b9150509250925092565b600061188883836119ec565b60e08301905092915050565b61189d81611cd7565b82525050565b6118ac81611cc5565b82525050565b6118bb81611cc5565b82525050565b60006118cc82611c01565b6118d68185611c19565b93506118e183611bf1565b8060005b838110156119125781516118f9888261187c565b975061190483611c0c565b9250506001810190506118e5565b5085935050505092915050565b61192881611ce9565b82525050565b61193781611ce9565b82525050565b600061194a601e83611c2a565b915061195582611d97565b602082019050919050565b600061196d604083611c2a565b915061197882611dc0565b604082019050919050565b6000611990602483611c2a565b915061199b82611e0f565b604082019050919050565b60006119b3601f83611c2a565b91506119be82611e5e565b602082019050919050565b60006119d6602a83611c2a565b91506119e182611e87565b604082019050919050565b60e082016000820151611a026000850182611a7a565b506020820151611a1560208501826118a3565b506040820151611a286040850182611a7a565b506060820151611a3b6060850182611894565b506080820151611a4e6080850182611894565b5060a0820151611a6160a0850182611a7a565b5060c0820151611a7460c085018261191f565b50505050565b611a8381611d15565b82525050565b611a9281611d15565b82525050565b6000606082019050611aad60008301866118b2565b611aba60208301856118b2565b611ac76040830184611a89565b949350505050565b6000608082019050611ae460008301876118b2565b611af160208301866118b2565b611afe6040830185611a89565b611b0b606083018461192e565b95945050505050565b60006020820190508181036000830152611b2e81846118c1565b905092915050565b60006020820190508181036000830152611b4f8161193d565b9050919050565b60006020820190508181036000830152611b6f81611960565b9050919050565b60006020820190508181036000830152611b8f81611983565b9050919050565b60006020820190508181036000830152611baf816119a6565b9050919050565b60006020820190508181036000830152611bcf816119c9565b9050919050565b6000602082019050611beb6000830184611a89565b92915050565b6000819050602082019050919050565b600081519050919050565b6000602082019050919050565b600082825260208201905092915050565b600082825260208201905092915050565b6000611c4682611d15565b9150611c5183611d15565b9250827fffffffffffffffffffffffffffffffffffffffffffffffffffffffffffffffff03821115611c8657611c85611d68565b5b828201905092915050565b6000611c9c82611d15565b9150611ca783611d15565b925082821015611cba57611cb9611d68565b5b828203905092915050565b6000611cd082611cf5565b9050919050565b6000611ce282611cf5565b9050919050565b60008115159050919050565b600073ffffffffffffffffffffffffffffffffffffffff82169050919050565b6000819050919050565b6000611d2a82611d15565b91507fffffffffffffffffffffffffffffffffffffffffffffffffffffffffffffffff821415611d5d57611d5c611d68565b5b600182019050919050565b7f4e487b7100000000000000000000000000000000000000000000000000000000600052601160045260246000fd5b7f5072696365206d757374206265206174206c656173742031204d415449430000600082015250565b7f506c65617365207375626d6974207468652061736b696e67207072696365206960008201527f6e206f7264657220746f20636f6d706c65746520746865207075726368617365602082015250565b7f5072696365206d75737420626520657175616c20746f206c697374696e67207060008201527f7269636500000000000000000000000000000000000000000000000000000000602082015250565b7f5265656e7472616e637947756172643a207265656e7472616e742063616c6c00600082015250565b7f546865206974656d20646f6573206e6f7420657869737420696e20746865206d60008201527f61726b6574706c61636500000000000000000000000000000000000000000000602082015250565b611edf81611cc5565b8114611eea57600080fd5b50565b611ef681611d15565b8114611f0157600080fd5b5056fea2646970667358221220df5dea1db8d04379e0b8b628df9bcb29ff3a95fc1bd5be07b4374c2cfcc4956764736f6c63430008040033",
  "immutableReferences": {},
  "source": "// SPDX-License-Identifier: MIT\r\npragma solidity ^0.8.4;\r\n\r\nimport \"@openzeppelin/contracts/token/ERC721/ERC721.sol\";\r\nimport \"@openzeppelin/contracts/utils/Counters.sol\";\r\nimport \"@openzeppelin/contracts/security/ReentrancyGuard.sol\";\r\n\r\ncontract TurtisMarket is ReentrancyGuard {\r\n  using Counters for Counters.Counter;\r\n  Counters.Counter private _itemIds;\r\n  Counters.Counter private _itemsSold;\r\n\r\n  address payable owner;\r\n  uint256 listingPrice = 1 ether;\r\n\r\n  constructor() {\r\n    owner = payable(msg.sender);\r\n  }\r\n\r\n  struct MarketItem {\r\n    uint256 itemId;\r\n    address nftContract;\r\n    uint256 tokenId;\r\n    address payable seller;\r\n    address payable owner;\r\n    uint256 price;\r\n    bool sold;\r\n  }\r\n\r\n  mapping(uint256 => MarketItem) private idToMarketItem;\r\n\r\n  event MarketItemCreated(\r\n    uint256 indexed itemId,\r\n    address indexed nftContract,\r\n    uint256 indexed tokenId,\r\n    address seller,\r\n    address owner,\r\n    uint256 price,\r\n    bool sold\r\n  );\r\n\r\n  function getListingPrice() public view returns (uint256) {\r\n    return listingPrice;\r\n  }\r\n\r\n  function createMarketItem(\r\n    address nftContract,\r\n    uint256 tokenId,\r\n    uint256 price\r\n  ) public payable nonReentrant {\r\n    require(price > 1, \"Price must be at least 1 MATIC\");\r\n    require(msg.value == listingPrice, \"Price must be equal to listing price\");\r\n\r\n    _itemIds.increment();\r\n    uint256 itemId = _itemIds.current();\r\n\r\n    idToMarketItem[itemId] = MarketItem(\r\n      itemId,\r\n      nftContract,\r\n      tokenId,\r\n      payable(msg.sender),\r\n      payable(address(0)),\r\n      price,\r\n      false\r\n    );\r\n\r\n    IERC721(nftContract).transferFrom(msg.sender, address(this), tokenId);\r\n\r\n    emit MarketItemCreated(\r\n      itemId,\r\n      nftContract,\r\n      tokenId,\r\n      msg.sender,\r\n      address(0),\r\n      price,\r\n      false\r\n    );\r\n  }\r\n\r\n  function createMarketSale(address nftContract, uint256 itemId)\r\n    public\r\n    payable\r\n    nonReentrant\r\n  {\r\n    require(\r\n      itemId > 0 && itemId <= _itemIds.current(),\r\n      \"The item does not exist in the marketplace\"\r\n    );\r\n    uint256 price = idToMarketItem[itemId].price;\r\n    uint256 tokenId = idToMarketItem[itemId].tokenId;\r\n    require(\r\n      msg.value == price,\r\n      \"Please submit the asking price in order to complete the purchase\"\r\n    );\r\n\r\n    idToMarketItem[itemId].seller.transfer(msg.value);\r\n    IERC721(nftContract).transferFrom(address(this), msg.sender, tokenId);\r\n    idToMarketItem[itemId].owner = payable(msg.sender);\r\n    idToMarketItem[itemId].sold = true;\r\n    _itemsSold.increment();\r\n    payable(owner).transfer(listingPrice);\r\n  }\r\n\r\n  function fetchMarketItems() public view returns (MarketItem[] memory) {\r\n    // List of NFTs for sale\r\n    uint256 itemCount = _itemIds.current();\r\n    uint256 unsoldItemCount = _itemIds.current() - _itemsSold.current();\r\n    uint256 currentIndex = 0;\r\n\r\n    MarketItem[] memory items = new MarketItem[](unsoldItemCount);\r\n    for (uint256 i = 0; i < itemCount; i++) {\r\n      if (idToMarketItem[i + 1].owner == address(0)) {\r\n        uint256 currentId = idToMarketItem[i + 1].itemId;\r\n        MarketItem storage currentItem = idToMarketItem[currentId];\r\n        items[currentIndex] = currentItem;\r\n        currentIndex += 1;\r\n      }\r\n    }\r\n    return items;\r\n  }\r\n\r\n  //\r\n  function fetchUserNFTs(address _user)\r\n    public\r\n    view\r\n    returns (MarketItem[] memory)\r\n  {\r\n    // List of currently owned NFTs\r\n    uint256 totalItemCount = _itemIds.current();\r\n    uint256 itemCount = 0;\r\n    uint256 currentIndex = 0;\r\n\r\n    for (uint256 i = 0; i < totalItemCount; i++) {\r\n      if (idToMarketItem[i + 1].owner == _user) {\r\n        itemCount += 1;\r\n      }\r\n    }\r\n\r\n    MarketItem[] memory items = new MarketItem[](itemCount);\r\n    for (uint256 i = 0; i < totalItemCount; i++) {\r\n      if (idToMarketItem[i + 1].owner == _user) {\r\n        uint256 currentId = idToMarketItem[i + 1].itemId;\r\n        MarketItem storage currentItem = idToMarketItem[currentId];\r\n        items[currentIndex] = currentItem;\r\n        currentIndex += 1;\r\n      }\r\n    }\r\n    return items;\r\n  }\r\n\r\n  function fetchUserItemsCreated(address _user)\r\n    public\r\n    view\r\n    returns (MarketItem[] memory)\r\n  {\r\n    // List of NFTs that are created by the user (sold or unsold)\r\n    uint256 totalItemCount = _itemIds.current();\r\n    uint256 itemCount = 0;\r\n    uint256 currentIndex = 0;\r\n\r\n    for (uint256 i = 0; i < totalItemCount; i++) {\r\n      if (idToMarketItem[i + 1].seller == _user) {\r\n        itemCount += 1;\r\n      }\r\n    }\r\n\r\n    MarketItem[] memory items = new MarketItem[](itemCount);\r\n    for (uint256 i = 0; i < totalItemCount; i++) {\r\n      if (idToMarketItem[i + 1].seller == _user) {\r\n        uint256 currentId = idToMarketItem[i + 1].itemId;\r\n        MarketItem storage currentItem = idToMarketItem[currentId];\r\n        items[currentIndex] = currentItem;\r\n        currentIndex += 1;\r\n      }\r\n    }\r\n    return items;\r\n  }\r\n\r\n  function fetchUserItemsSold(address _user)\r\n    public\r\n    view\r\n    returns (MarketItem[] memory)\r\n  {\r\n    // List of NFTs that are sold by the user\r\n    uint256 totalItemCount = _itemIds.current();\r\n    uint256 itemCount = 0;\r\n    uint256 currentIndex = 0;\r\n\r\n    for (uint256 i = 0; i < totalItemCount; i++) {\r\n      if (\r\n        idToMarketItem[i + 1].seller == _user &&\r\n        idToMarketItem[i + 1].sold == true\r\n      ) {\r\n        itemCount += 1;\r\n      }\r\n    }\r\n\r\n    MarketItem[] memory items = new MarketItem[](itemCount);\r\n    for (uint256 i = 0; i < totalItemCount; i++) {\r\n      if (\r\n        idToMarketItem[i + 1].seller == _user &&\r\n        idToMarketItem[i + 1].sold == true\r\n      ) {\r\n        uint256 currentId = idToMarketItem[i + 1].itemId;\r\n        MarketItem storage currentItem = idToMarketItem[currentId];\r\n        items[currentIndex] = currentItem;\r\n        currentIndex += 1;\r\n      }\r\n    }\r\n    return items;\r\n  }\r\n}\r\n",
  "sourcePath": "D:/Dodging-Turtis/truffle/contracts/TurtisMarket.sol",
  "compiler": {
    "name": "solc",
    "version": "0.8.4+commit.c7e474f2.Emscripten.clang"
  },
  "schemaVersion": "3.4.1",
  "updatedAt": "2022-01-07T19:01:57.140Z",
  "networkType": "ethereum",
  "devdoc": {
    "kind": "dev",
    "methods": {},
    "version": 1
  },
  "userdoc": {
    "kind": "user",
    "methods": {},
    "version": 1
  }
}